:10000000FF004C6174746963650069434563756200
:10001000653220323031342E30342E3235383130A2
:1000200000506172743A2069434534304C50314B72
:100030002D434D343900446174653A204175672081
:10004000313120323031342030393A35363A00FF00
:100050003235007EAA997E5100010592002062018E
:100060004B720090820000110001010000000000AE
:100070000000000000000000000000000000000080
:1000800000000000000000000000000000008000F0
:100090000000000000000000000000000000000060
:1000A0000000000000000000000000000000000050
:1000B0000000000000000000000000000000000040
:1000C0000000000000000000000000000000000030
:1000D0000000000000000000000000000000000020
:1000E00000400000000000000000000000000000D0
:1000F0000000000000000000000000000000000000
:1001000000000000000000000000000000000000EF
:1001100000000000000000000000000000000000DF
:1001200000000000000000000000000000000000CF
:10013000000000008000000100000000000000003E
:1001400000000000000000000000000000000000AF
:10015000000000000000000000000000000000009F
:10016000003000000000000000040000000000005B
:10017000100000000000004000000000100000001F
:10018000000000400000000000010000000000002E
:10019000000000000000000000000000000000005F
:1001A000000000000000000000000000000000004F
:1001B000000000000000000000000000040000003B
:1001C00000000010000000000000400000000010CF
:1001D00000000000000040000000000703000000D5
:1001E000000000000000000000000000000000000F
:1001F00000000000000000000000000000000000FF
:1002000000000000000800000000000000000000E6
:1002100000000000000000000000000000000000DE
:1002200000000000000000000000000000000000CE
:1002300000000000000000000000000000000000BE
:1002400000000000000000000000000000000000AE
:10025000000000000000000000000000000000009E
:10026000000000000000000000000000000000008E
:10027000000000000000000000000000000000007E
:10028000000000000000000000000000000000006E
:10029000000000000000000000000000000000005E
:1002A000000000000000000000040000000000004A
:1002B000000000000000000000000000000000003E
:1002C000000000000000000000000000000000002E
:1002D00000000040000000000000000000000000DE
:1002E000000000000000000000000000000000000E
:1002F00000000000000000000000000000000000FE
:1003000000000000000000000000000000000000ED
:1003100000000000000000000000000000000000DD
:1003200000000000000000000000000000000000CD
:10033000000000000000000000000000004000007D
:1003400000000000000000000000000000000000AD
:10035000000000000000000000000000000000009D
:10036000000000000000000000000000000000008D
:10037000000000000000000000000000000000007D
:10038000000000000000000000000000000000006D
:10039000000000000000000000000000000000005D
:1003A000000000000000000000000000000000004D
:1003B000000000000000000000000000000000003D
:1003C000000000000000000000000001000000002C
:1003D000000000000000000000000000000000001D
:1003E000000000000000000000000000000000000D
:1003F00000000000001000000000000000020000EB
:1004000000000000000000000000000000000000EC
:1004100000000000000000000000000000000000DC
:1004200000000000000000000000000000000000CC
:1004300000000000000000000000000000000000BC
:1004400000000000000000000000000000000000AC
:10045000000000000000000000000000000000009C
:10046000000000000000000000000000000000008C
:10047000000000000000000000002000000000005C
:10048000000000000000000000000000000000006C
:10049000000000000000000000000000000000005C
:1004A000000000000000000000000000000000004C
:1004B000000000000000000000000000000000003C
:100690000000000000020000000000000000000058
:1006A000000000000000000000000000000000004A
:1006B000000000000000000000000000000000003A
:1006C000000000000000000000000000000000002A
:1006D000000000000000000000000000000000001A
:1006E000000000000000000000000000000000000A
:1006F00000000000000000000000000000000000FA
:1007000000000000000000000000000000000000E9
:1007100000002000000000000000000000000000B9
:1007200000000000000000000000000000000000C9
:1007300000000000000000000000000000000000B9
:1007400000000000000000000000000000000000A9
:100750000000000000000000000000000000000099
:100760000000000000000000000000000000000089
:100770000000000000000000000000000000000079
:100780000000000000000000000000000000000069
:100790000000000000000000000000000000000059
:1007A0000000000000000000000000000000000049
:1007B0000000000000000000000000000000000039
:1007C0000000000000000000000000000000000029
:1007D0000000000000000000000000000000000019
:1007E0000000000000000000000000000000000009
:1007F00000000000000000000000000000000000F9
:1008000000000000000000000000000000000000E8
:1008100000000000000000000000000000000000D8
:1008200000000000000000000000000000000000C8
:1008300000000000000000000373D440000000012D
:10084000AF060000000000000000000000000000F3
:100850000000000000000000000000000000000098
:100860000000003D400000000000F040004000009B
:100870000000000000000000000000000000000078
:10088000000000000000000000000000000000E088
:100890000000000000000000000000000000000058
:1008A00000038000000000000000000000000000C5
:1008B0000000000000000000080000000000000030
:1008C0000000000000000000000000000000000028
:1008D0000000000000000000000000000000000018
:1008E00000004000038000000080000000000000C5
:1008F00000000000000000000000000000000000F8
:1009000000000000000000000000000C00000000DB
:1009100000000000000000000000000000000000D7
:1009200000000000000000000000000000020000C5
:1009300000000000000002100000000000000000A5
:100940000000000601AF00002000000000000000D1
:100950000000000000000000000000000000000097
:100960002C0000000000000000000000000010F05B
:100970000001000000000000000000000000000076
:10098000000000380000000000000000000000002F
:1009900000000000000000000C30200000000000FB
:1009A00000000000000000000000200000800000A7
:1009B0000000000000000000000000000000000037
:1009C0000000C3000000000000000000C0000000A4
:1009D00000000000000038000000000000000000DF
:1009E0000000000000000000000000000000000007
:1009F00000000000000000000000000000000000F7
:100A000000000000000000000000000000000000E6
:100A1000000000380000000000000000000000009E
:100A200000000000000000000000000000000000C6
:100A300000000000000000000000000000000000B6
:100A400000000000003C102000000000000000003A
:100A50000000000000000000000000000000000096
:100A6000000000000000000000000000000003C3C0
:100A70000000000000000000000000050000000071
:100A80000040000000000000000000000000000026
:100A900001CF000300000000000000000000000083
:100AA000000000000020000000000800000000001E
:100AB0000000000000000000000010F00000000036
:100AC0000000000000000000000000000000000026
:100AD0000000000000000000000000000000000016
:100AE00000000000000000000800F690D0000004A4
:100AF00026DB8D4000000000000000000000080020
:100B000000000000000000000000000000000000E5
:100B10000000108B238C8600002625EA50900000F0
:100B200000000000000000E00000000000000000E5
:100B3000000000000000000000038000003A814037
:100B40000E041C0040A50000000000000B00000087
:100B5000080000000000000000000000000000008D
:100B600000000020000000401400800023960000D8
:100B700000000004000000000000C001C0000000F0
:100B8000000000000000000000000000000000184D
:100B90000030C0804034005C0A20000000000000EB
:100BA0000000000E00020000000000000000000035
:100BB00000000000000000000000030C000003E043
:100BC0000200A00000020000000000000000000081
:100BD00000AF040000000000000000000000000062
:100BE0000008000030C0800080680C032200000074
:100BF0000000000000000000000000F040000000C5
:100C00000000000000000000000000B000030C0025
:100C1000000C02410030000000000001A0000000B4
:100C200000000000000000000000000000000020A4
:100C30000A5000008000800900C0020628DE001073
:100C40000000200000000000000080000000000004
:100C5000000000000000000002C05A00080000036D
:100C60000060000000079F901000000000010000DD
:100C70000000000000000000000000000000000074
:100C80000000600240200008000000000000140284
:100C90006B000000000000200000000000000000C9
:100CA000000000000000000000000023C018000049
:100CB0000594F000000000002036830000000000D2
:100CC00000001B3A94000000030000000000000038
:100CD0000000000000000C3020000D0000000000AB
:100CE0004014025EFC0200000000000D9C15401044
:100CF00000004000000000000000000000000000B4
:100D0000C30008007000000000080020340F4000FD
:100D1000000004000000000000400000000000008F
:100D20000000000000100000000000000000009320
:100D3000940000001E03F80A4880000040000000F4
:100D400000000A0000000000000000000000010098
:100D500000200000000800900783C00020014235F9
:100D6000050000000010008009E18D000409400525
:100D7000800008000000000000020000CF06000014
:100D8000078F3A1680004036005C05000000200006
:100D900001005630D0420002014E10000040000019
:100DA0000002001C0000F0000010F1E7C014002059
:100DB00003C0010050000000380050A0000000E017
:100DC00002E01FA50000000000000020000000CF8E
:100DD0000403A000001204108E0000607E5F420831
:100DE000000600009000000008000600005001000E
:100DF000000000000200800010F0002100F0B94067
:100E0000616080C002AE05B684000000010003BE30
:100E1000950000026635D880000000000000000048
:100E200000000000000008003A42000008007418AA
:100E30000A00000000802000B79A9002001402D837
:100E40001121000000000002000000000000080066
:100E5000F007600000200007DD00500000010000E6
:100E600070000000000000603EE25024000000001E
:100E7000000000000005A20028000EDF0200102084
:100E8000406BCACB02000800000000000000000018
:100E90000000500000000000000000001401C0A588
:100EA00008010031BDE00000008803CF04301000CD
:100EB00000000000100000000001E020C6542000E7
:100EC000000000000000620DA0500000001C720035
:100ED000808000003BCA0000000000000008000005
:100EE0000000000000409A400000000000000000E8
:100EF0003C20052000000007C000400001C037E092
:100F00008000000000007010000000000002D5A565
:100F1000561000000000000000000000000000016A
:100F20009D12401400012438CEF50000000400009A
:100F30000800000000000060E0F060000000000019
:100F4000000000000000000030018B78090000095B
:100F500064000F500000000200000BFE950000012D
:100F6000E6A59C3400000000000000000000000026
:100F7000000001805A94100001062D7C0123080016
:100F80000010000AB7A69000000041CD9340000079
:100F900000000000003C00000000000000E102959D
:100FA00000080003BE000000000010005800000010
:100FB000004001C00000000020000000000400000C
:100FC000000000012800001F0280040016025C07D8
:100FD0004200000280000A0000000A000000000039
:100FE00000010000000002A0000000000029001025
:100FF00001C00000A0200024003410000000000008
:101000000D707C0010020006E5500000000000009A
:101010000000060000000003818B731540000FB430
:101020006048111000000000000A17C5400140345C
:10103000300055000000000000000000000000002B
:10104000000001B0C154000201634DA440800000C3
:10105000380098037AF008E8034005A20220000057
:10106000000000E003E040000003800F80032A80BE
:101070000E0000014E8042000002000100581900DD
:1010800008401C035004000000000000080006385F
:101090000000002000B8AB415400C40000140BF560
:1010A000100000000070E770810A00000014A20028
:1010B0002000200000000001E055C0A00000000A50
:1010C000363CC000000668000000000000000590EB
:1010D000D82C1000003C30D00000000100000000BF
:1010E000000038300A100000010F2400000003C087
:1010F0000000000000020000000973D4000001E6B7
:1011000080000000000000000000006006CC6500C8
:1011100010080076200081001E01E9254000000033
:1011200000000E1C2800000002000000000000006B
:10113000000000003C0359C3490280100100000078
:1011400010016027FDA40000000004501DE294007F
:1011500000026034C0400800000000000000C04DE4
:10116000AA060000050A07A000000020004855005C
:1011700000002000000DF8154000002C0049000080
:1011800000000000000000003C00A040020000A79A
:101190002500000003C00105500000000000599820
:1011A000295584000000000000000000000000003D
:1011B00000073DAF54080020015781D6800004008D
:1011C0004EFF02000000000088142A920000000078
:1011D000000000000000000000000041400040004E
:1011E000000080801D000000201C0EF000000004A4
:1011F00000819F32950000026014A40000030000EB
:1012000000000001E00000000000811ADA14100064
:101210000C1C3FDA8002000000000B08B2A6900010
:10122000002401EC000000000000000000000000AD
:101230000000000008A74295000401C2560000000B
:101240000000100011A82D950040000637EB042087
:10125000000000000040000026BA14110003803E88
:1012600002800441007F4EE702000002000000B649
:1012700026920800000050F1400000000000080025
:10128000000168D16020005800C028008A08074F7C
:101290000EF000000000020010000000000200003C
:1012A000000000000000000000000014EAF400004C
:1012B000051817168000400663CB80000000000070
:1012C000500900000000003C000000000040000049
:1012D0000000000001D0FA48002008D74014000A9E
:1012E0000143E4B00000000038007000000000205E
:1012F0000200379010000000000000E0000000EF46
:1013000024078001019301109E002404006642001E
:10131000000200000000000002002C01CC4200008E
:101320000000000008003C03CAF140200008EB80E8
:1013300031A0C001E284099400000000000011AB5C
:10134000C5000000000000000000000000000002D6
:10135000000000000000091E933DC000002028FE90
:101360008040000000000008B7AC10000000000042
:101370000000000000000000000400000000000564
:101380007809AFFC040003C02C87F40000020000C1
:1013900001800000000001C000000000000000000B
:1013A000000020000000000000250A1302100000C9
:1013B0009C7818554000000000000000000000006C
:1013C000020000000000000000000000000000001B
:1013D000000000910BA82903000024250AA40000A6
:1013E000000000000000000000000001EF04000009
:1013F000000000000000000000000000099E130231
:10140000804000140448CC200000200000080000A8
:10141000000000000010F0010000000000000000CB
:10142000000000000000300080280000002235D0BD
:1014300000100000000000000000000000E0000FAD
:10144000F1000000000000000000000000000000AB
:101450001CD6808080000E03F8000200000000000F
:10146000000000000000020000FF2100000000005A
:1014700000000000000000000000018000000000EB
:10148000201E0400000000010058000000000000C1
:1014900000000C342001000000000000600000008B
:1014A00000028180FE9780C0200006D8C3020000A1
:1014B000002800080000000000000000C300000039
:1014C000000000000000340000000000000D007467
:1014D00000000243440D300000001000000DA295F2
:1014E000000000004000000000000000004000007C
:1014F00000000001000800F28200040020605AE7AA
:10150000020000020000001FD95000003C20000033
:101510000000000000000400000000000020005057
:10152000012400028080C43E0EF000800000000014
:10153000000000000000001C8F0C000000000000F4
:10154000000146A588000010201813E200000034B6
:101550002C4CB84008000000000E00000000000005
:1015600000000F020000000000000014417E000097
:10157000028100EFEC44000000661C8D1C00007826
:1015800000000000604000E000001C8F0C00000024
:10159000000000E0000304AFF123C00001BE300AE8
:1015A0009E001E78C8E560000400000100000000F5
:1015B00008000000000F00000000000008000440C8
:1015C00040DA00240070A34000008000400DEEAC23
:1015D00000A70000000000000848400006548F0CDF
:1015E0000000000000000001E00003C024000780AC
:1015F000FBAC10804000686C050001E00000000AB0
:1016000000000000000020200F000000000000008B
:10161000001600003C00000008EFC2A1001A0006FE
:10162000C10050000001100000A000000000006692
:10163000548F0C0000000000004001660000000014
:1016400000098F77309004002066CAE56200000030
:1016500000000000000000000020200F000000003B
:10166000000008000200000000000011D367110014
:10167000880043F50D9C00140404000000000000E5
:101680000010001E8F0C0000000000000000002071
:1016900080800000018AB6AC900000267D7AB840B8
:1016A0000A328040000000000000000000000F002F
:1016B0000000000000000000015E0420000001BBEB
:1016C0003541000001C39D0D1C000078010000059C
:1016D000A29400000000168F0C0000000000000023
:1016E000016005EF04000005813EAC9000000000A1
:1016F000FFB040000400080000DC2A820000000067
:10170000000F0000000000000000000049E2E000BF
:1017100000D083B681000000402C8F1C0000040024
:10172000000000000000000260168F0C00000000A6
:1017300000000008402FF8800000055BDB0200007D
:10174000001401EA8B400803C00000000000000004
:10175000000400200F00000000000000014001CB49
:10176000110000000881A400000003C01FDE2C004F
:101770001400010000000000000002001685540063
:10178000000000000040026017AB04010000095691
:10179000420004000605DB8B400200000800000048
:1017A000000000000400205500400000000004007C
:1017B000140158F1D02000018D2C000040000225BA
:1017C0009D1C00000011010101000000000000004C
:1017D00000000000000000000010000000000400F5
:1017E0007000000000000000000000008008000001
:1017F00000000000000000000000000000000000E9
:101800000000000000000000000080000000000058
:101810000000000000000090000000000000000038
:1018200000000000000000000000000010000000A8
:1018300000040090000000000000000000000040D4
:101840000000000000000000000000000000000098
:101850000000000000000000000000000800000080
:101860000000000000000000000000000000000078
:101870000000000000000000000000000000002048
:101880000000010008000000C0000000000000008F
:1018900000008008000300000000000000000000BD
:1018A0000000000000000000000000001000000028
:1018B000040C0000000000000000000000B0003038
:1018C0000000000000000004000000000000100004
:1018D00000000000244000000000000000000000A4
:1018E00000400000000000010000000000000000B7
:1018F000000000000000000000000000001E0000CA
:1019000000000000000000000000000000000000D7
:1019100000000000000000000000040000000000C3
:101920000010000000000000000000000020000087
:101930000000000040000000000001000000000066
:101940000000000000000000000000000000000097
:101950000000000000000000000000000000000087
:101960000000000000000000000000000000000077
:101970000000000000000000000000000000000067
:101980000040000000000000000000000000008097
:101990000000000000000000000000000000000047
:1019A000000000000000004000000C0000000000EB
:1019B00000000000000000000C000000000000001B
:1019C0000000000000000000000000000000000017
:1019D0000000000000000000000000000000000007
:1019E00000000000000000000000000000000000F7
:1019F00000000000000000000000400004000000A3
:101A000000000000000000000000000000000000D6
:101A100000000000000000000000000000000000C6
:101A20000040000000001000000000000000000066
:101A300000000001000000000000000000000000A5
:101A40000000000000000000000000000080000016
:101A50000000000000000000000000000000000086
:101A60000000000000000000000000000000000076
:101A70000000000000000000000000000000000066
:101A80000000000000000000000000000000000056
:101A90000000000000000000000000000000000046
:101AA0000000000000000000000000000000000036
:101AB0000000000000000000000000000000000026
:101AC0000000000000000000000000000000000016
:101AD0000000090000000000003870550000000000
:101AE00000000000000000000000000000000000F6
:101AF00000000000000000000000000000000000E6
:101B000000000004EA500000000000000000000097
:101B1000000000000000000000000000000006407F
:101B200000000000000000000000000000000000B5
:101B300000000000000000000000000000000000A5
:101B40000000000000000000200000000000000075
:101B50000000000000000000000000020000000083
:101B60000000000000000000000000000000000075
:101B700000002D0500000000000000000000000033
:101B80000000000000000000000000000000000055
:101B90000000000000000000000000021CA0000087
:101BA0000000000000000000000000000000000035
:101BB00000000000000000000000000000038000A2
:101BC0000000000000000000000000000000000015
:101BD00000000000000000002000000000000000E5
:101BE00000000000000000000000000000000000F5
:101BF00000000000000000000000000000000000E5
:101C000000000000000000000000000000000000D4
:101C100000000000000000000000000000000000C4
:101C200000000000000000000000000000000000B4
:101C300000000000000000000000000000000000A4
:101C4000000000000000003800000000000000005C
:101C50000000000000000000000000000000000084
:101C60000000000000000000000000000000000074
:101C70000000F0140400000000000000000000005C
:101C80000000000000000000000000000000000054
:101C90000000000000000000000000002A8000009A
:101CA0000000000000000000000000000000000034
:101CB0000000000000000000000000000000000024
:101CC000000000000000000000003C0000000000D8
:101CD0000000000000000000000000000000000004
:101CE00000000000000000000000000000000000F4
:101CF000000000020780000000000000000000005B
:101D00000000000040000000000000000000000093
:101D100000000000000000000000000000000000C3
:101D200000000000000000000000000C0026000081
:101D300000000000000000000000000000000000A3
:101D40000000000000000000000000000000000093
:101D50000000000000000000000000000000000083
:101D60000000000000000000000000080148000022
:101D70000000C05A00000000000000000000000049
:101D8000060000000000000000000000000000004D
:101D90000000000001281400000000040002000000
:101DA00000000000000000000000001400540000CB
:101DB0000000000000E00000000000000000000043
:101DC00000000E0000000000000000000000000005
:101DD0000000000003E85040000000000000000088
:101DE00000000000000000000000000000000000F3
:101DF00000000002000000000000000000000400DD
:101E0000540000000000000000000000000000007E
:101E100000000000000006000000000000000000BC
:101E20000000000000000003E850C000380000007F
:101E3000000000000000000000580000000000004A
:101E40004000000000000000000000000000000151
:101E500040160054000000000000000000000000D8
:101E6000001000000030C000000000000000000072
:101E700020000000000000000000034850C00000E7
:101E80000000000000000000000000800000030CC3
:101E90000A00000000000000000000000000000038
:101EA000000000420200F4000000000000000000FA
:101EB000000000000007000030C00000000000002B
:101EC000000000000000000000000000346548F041
:101ED000C0000000000000000000000000000080C2
:101EE00000030C08000000000000000000000000DB
:101EF000000000000001400000F4000000000000AD
:101F000000000000000000002000301680000000EB
:101F100000C0A5010000000000000000000E00004D
:101F200039C8F0C000000000000000000000000000
:101F3000000500000294000000000005A000000061
:101F40000000000000000000000001A0F4000400F8
:101F50000000000000000000000000001000000071
:101F6000000002000000000000000000000000006F
:101F70000000000158F0C000000000000000000058
:101F8000000000000001E00000000001C0000000AF
:101F90000000000000000000000000000000000041
:101FA000000000000000000002000000000000002F
:101FB000000000000000000000000000030000001E
:101FC0000000000000000000000000000000000C05
:101FD00000000400000001000000000000000000FC
:101FE000000000000000000010800000000000035E
:101FF000D500A01000000000000000000F05548074
:1020000000000000000000010000000000000000CF
:10201000000981000000000000036E0000000000C5
:10202000000000000001EA05600000000000000060
:102030000008000000000000000000000000000098
:102040000000000000000000000000000000000090
:102050000000000000000000000000000000000080
:102060000000000000000000000000000000000070
:102070000000000000000000000000000000000060
:10208000000000000000000000000002000000004E
:1020900000000000E002340502880000000000009B
:1020A00002C000000000000000000000000000006E
:1020B000000000000000000000000000000000041C
:1020C00018A0000000000000000000000000000454
:1020D0000000000000000000000000000000000000
:1020E0000001000000000003E0000000000000000C
:1020F00000000000000000000000000000000000E0
:102100000000000000000000200000180000000097
:1021100000040000000000000000000000000000BB
:1021200000000000000000000000000000000000AF
:1021300000003000010D8015400083442480000021
:10214000000000000000000300000000000000008C
:10215000000000000000000000000001000018F274
:102160001410000000284B080000000000000000D0
:10217000000400000000000000000000000000005B
:1021800000000000000000010900150100036007C5
:102190000FF0100000000000000000000000000030
:1021A00000000000000000000000000000000380AC
:1021B0000018F21430000014034C4A020000000022
:1021C000000E008000000000000000000000000081
:1021D00000000000000000000000000D00151100CC
:1021E0000022C10A001000000000000000000000F2
:1021F000000000000000000000008000000000005F
:102200000000004000F21430000014016EA0000035
:1022100000000000000000000000000000000000BE
:1022200000000014000000000020000000100B80DF
:1022300015000000220000F0100000000000000166
:10224000420E0AC4000000000000000A000000DD89
:10225000C341094003000818FA14301C001E040E84
:102260000F0000000000000C0036056CA04230009A
:102270000000000000400000069E240080000800CE
:10228000100980150020000306042400200000002F
:10229000002001C2800F300080000000000000001C
:1022A000040000000000000000099ADA1430000069
:1022B0000631FC40428000000000000026040AF3C2
:1022C00002000000000000000002630000000000A7
:1022D000000000040B0015200002400E00A00000CA
:1022E000000000000000021690008800000032C2CA
:1022F000100000000000000004068000001ADA143C
:102300003000002C03DC0F0000000000000000067D
:1023100006DE80000000180926D500000006000037
:1023200000002332080000090015002014C005A594
:10233000A48000000000002000420CD04400800077
:1023400000003C00000102000000000140400000CD
:1023500000FA143000009C02CB4040000000000056
:102360000000366D7FB54000000005A3C2000008E4
:10237000630000000000800000008B801500000159
:1023800042BC0FF00000000000000000403E9C84B2
:102390000000050A083C0000000000205540000035
:1023A00010000181D2143200003C00DCFE0200006B
:1023B00000000000002E60ECC240000081B123C28A
:1023C00000000000148554000E00300000898015C4
:1023D00000000002A400000000000000000001C096
:1023E0000FD42400000000083C0002000020200F51
:1023F00048086003000019D21432000000025A029B
:1024000002000000000000000001EC93400000000A
:102410000123C200000006548F0C000000000000E1
:102420009B00152000004280050000000000000015
:102430000000001E0C8400000000083C0008002C76
:1024400000000F4000068B800000F214300E0020C8
:102450000458500000000000000E400000EED04282
:1024600038000005A3C200E002001C8F0C00000031
:1024700000000009001548000042A5E00400040027
:102480000000000000001400000000050A00000029
:1024900080A000381F0F48080000000000F214322E
:1024A000000036045B2040000000000000000063D4
:1024B0005C0A000000D9B10002000400001CCF0C2F
:1024C000000000000051A043C300200360340FF05F
:1024D0001000000000002002C000000000000010FA
:1024E0001BA8000A00000000000000000300001FFD
:1024F00007BC1000081470DCF50000000000000CA0
:1025000000200000000000207887F909004000004A
:102510000000000000000800110003D700200000A8
:10252000010030000000000000200000000000005A
:10253000800F00000000020000000000000000000A
:1025400000091C33BD50000000000C030200000015
:102550000000000000000000000000D000000000AB
:102560000000020000000000000000018340D302D0
:102570000000C01E00000000000000000000000E6F
:1025800000F4100000000000000000000000000047
:10259000000000000389DF091480002003FE1102FF
:1025A000000000000000000602CC006000000000F7
:1025B0000000000000000000000000020800000D04
:1025C0008140022003C4040AF00000000000002043
:1025D00001C2000000008000000000000201400075
:1025E00010F041000000000300D780000000A02A86
:1025F0006A7E0200000000000000200400000000CD
:1026000000000000000000E86001AF04000080004E
:1026100000000743EB00000002A5B40000007000BA
:102620000000000020000054100000000000000026
:1026300000002010F04000002000019803BD52006F
:102640000000014900000000000000000006015ADF
:10265000054000000000000000000000008F0600A0
:1026600000000000D8E083D72000F043C60500003A
:1026700000000000002000202CB0540000001000DA
:1026800000000E00000010F0400000000005013BBB
:10269000BD500000B4036AE24200000000000000E8
:1026A0000661FCF260800000C0000000C000000075
:1026B0008F060000000000000703EB00000140252A
:1026C0008A00000000000000000000000A5D000316
:1026D000000008014818003C0000F04000000380A2
:1026E000000003BD500E001401492000000000004E
:1026F000000E00000040A54038000005381401E03D
:102700000200018F04000000000000B96A0100040B
:102710000802A7A002000000000000000040000A1C
:102720005C040000800000000200002400F0400073
:1027300000000000005780100421002968200000DC
:102740000000000000002C0040A540000010000028
:10275000000000000640CF04002320040030058361
:102760000500000002000000000000000000000062
:102770000000000000000B00BC001000081C00005E
:102780000000095043400818FE30D2AC000004009D
:10279000000000000000000C0000000000003000FD
:1027A000008FE8150000000000000000000000009D
:1027B00000E0414000100002000F04000000000093
:1027C000001A0000000000000000180000000100D6
:1027D0005E01C050000040000001003A14000000FB
:1027E000063C1CF041000000000001000000000059
:1027F00000000019D00000001001401DE002000F91
:1028000024020001A77C81000000002405A600002E
:102810000000000000000024050400000010003C3F
:10282000340000000000050008C04010019CB70003
:10283000100000060000A54000000000000000009D
:102840006818A0400000188063C10100000015A0B6
:10285000500062000000300043C1000040001C0531
:10286000A400000000000000000245D2E4100000B7
:102870000D000000000000000000000146000008FC
:1028800000023C100000000000A541000000000014
:102890000000000368254100000010000000000057
:1028A00000000000000020000010000000000000F8
:1028B00004010F04000000000000020140010F0DA0
:1028C00000000B10701690000000000000000000D7
:1028D00040000800000000000000381AF04000002E
:1028E000000000004006000CF040000080A80295A7
:1028F00000000160000000000B0000001007C0692C
:1029000020C00000010F04000000000000000000D3
:10291000000000000000007A82000000000000A01B
:10292000010860000008003A0FD0AC0000001EF063
:1029300040000000000000000000000000000058FF
:10294000017060000001601DEA020000240000D058
:10295000E5E8F0000008003C05A40002800000004B
:10296000000040000F0400100F005C0F1000010079
:10297000000000000000438000011A4F800E00405C
:102980000000A54000000000000E0020001AF040EA
:102990003A00800B3AF108000000000000008000BF
:1029A0000000018BB041000000001F000080040007
:1029B000000000000004010F0400000000DFE940F7
:1029C00000000100000000090600000009F7801067
:1029D00000000061C80A0000000000000000006064
:1029E0001CF0400000018F74940000000000000003
:1029F00000000000000000000000000000000000D7
:102A000000000000000000000402050400000000B7
:102A10001003C000020000000000000000000500DC
:102A20000000000C00000000000000000000000C8E
:102A3000000020CC5060000001E9B97808C0000017
:102A4000000000000000000000A0000000000004E2
:102A50000000000000000000000000000000000076
:102A6000000000D800000001244000000000000029
:102A70000005000000000000003000000001000020
:102A800000000000000000000000001805016800C0
:102A9000000A0380000000000000000000000000A9
:102AA0000000000000000000000000000000000026
:102AB00000000000000894000000063C00300A01FD
:102AC0000000000000000000000000000000000006
:102AD000000000000000000038000000000018198D
:102AE000F1400000020014E0A00000020000000716
:102AF000F884800040260000000000000000001064
:102B000003C3C5FA7400000F0AB00F0000000200F2
:102B100000000000000000000A73408000000E74F6
:102B20000000000000000000010020075DA54140FA
:102B300000801570700800006000000000000000B8
:102B4000020000000000000003C10F0400000000AC
:102B5000000000000000000000000F001C01400009
:102B600000000000000000002000500A00000000EB
:102B70000000000CF06000000000000000000000F9
:102B80000000000001836A0008000000000000004F
:102B90000000000000000000000000402F0AF400C8
:102BA00000000000000003400000000000010A9E39
:102BB000480000400000000A000000000000000083
:102BC00000000000A0016CA5400000000000000013
:102BD00000000000000028D8A96000000200020CDC
:102BE000E0A000000000000000000000000000174E
:102BF000C144000000000000000040020504000085
:102C0000050A54028000000200485B4100000000F9
:102C100000000000000E000001C8106080000000ED
:102C2000000E002001F85040380050AB780100E061
:102C3000014021CA740000000000000D016800007E
:102C40000403FC90240000000000000000000000CD
:102C5000000000000A9281000000000000F5500012
:102C6000000000000080294000000004CA4060808D
:102C70000000000000000000000000000018A86034
:102C80002000000060058F540022400080000003F7
:102C90000C000000640D0F560000000000008000D2
:102CA0000000000000030100980150040000000033
:102CB00000000953001000000030C084002E704A4C
:102CC000A0400000000000040000000000003000F0
:102CD0008005A1410040800000000000003C02008F
:102CE0000000030C00000000010F040000000000C1
:102CF0000000000000000000000000D801500000AB
:102D000040340000000000400100000030C080009E
:102D100000001AF040000000000000000000000069
:102D20000000001985A14300000000400000000BD6
:102D30000000000000030C00000002010F0400006E
:102D400000000000000000000000000000009001F2
:102D5000500000040000000008F0000000000030F7
:102D6000C0800006741CF04000000000000000005D
:102D70000000000000000005A14300000600000064
:102D80000000202040000000030C00000000000FA5
:102D90000400000000000000000024842400000063
:102DA00000D0015000004000CAD1C00140401000D6
:102DB000000030C0800004001CF040000000000053
:102DC0000000000249934000000007A143000001F9
:102DD000602C98B600000000005000030C0000E3D7
:102DE000E7A40F70000000000000000260000F0068
:102DF00000000D08980150080014002FF00000009A
:102E0000000008000030C08400367E7ADB1200002B
:102E10000000000000260168F0800400199721439B
:102E200000400142968F0800103C00010000030C96
:102E3000000003C004B200000000000000001406FF
:102E4000400F00000201180803D00000000029F024
:102E5000000200400000000030C080002030DE7022
:102E60000000000000000008806568F0800000801D
:102E7000B523C3000000001C9F0800800000000074
:102E800000030C00800040179000000000000000CC
:102E9000800042420F0000000D000003D008000433
:102EA000280FF0000000044000000030C08E0040F9
:102EB0002A5A080080000000000E00200548F0801B
:102EC0003800000723C300E00000048F0800000260
:102ED0000000000003C0000000C79EF000000400D6
:102EE0000000000000200200002000D0100203D0EB
:102EF0000000140000000200000000000006BC00FA
:102F00000000007AEB0800800000000000000601CD
:102F1000400080000200A56FC300000000160008FA
:102F2000000000110201010000000000000000206C
:102F30000000000000000000000000100000000081
:102F40000000000000000000000000000000000081
:102F50000000000000000000000000000000000071
:102F60000000000000000000000000000000000061
:102F70000000000000000000000000000000000051
:102F80000000200000000000008000000000200081
:102F900000000000000000006000000000000000D1
:102FA0000000000000000000000000000000000021
:102FB0000000000000000000000000000000000011
:102FC0000000000000000000000000000000000001
:102FD00000010000001000000000000000040001DB
:102FE00000100000000000000000000000000000D1
:102FF00000000000000000000000002000000000B1
:1030000000000000000000C0008000000000000080
:1030100000000000000000000000000000000000B0
:103020000000000000000E00200000002000000052
:1030300000000000000000002000000000000080F0
:10304000000000000000034000000000000000003D
:10305000000000000000000004000000000000006C
:103060000000000000000000000000000000000060
:103070000400000000000000040000000000000048
:10308000000000000C000000000000200000000014
:1030900000008000000000000300000000000000AD
:1030A0000000000000000000000000000000000020
:1030B0000000000000000000000000000000000010
:1030C0000000000000000000000002000F000000EF
:1030D00000000000000000000000000000000000F0
:1030E00000000000000000000000040000000000DC
:1030F000000000002000100200000000000000009E
:1031000000000000000000000000000000000000BF
:10311000000000008000000000000000000000002F
:10312000000000000000000000000000000000009F
:10313000000000000000000000000000000000008F
:103140000000000000000000080002000000000075
:10315000000000000000020000000000000000006D
:10316000000000000000000000000000000000005F
:10317000000800000000000020000000000800001F
:10318000000000000000000000000000000000003F
:10319000000000000000000000000000000100002E
:1031A000000000000000000000000000000000001F
:1031B000000000000000000000000000000000000F
:1031C00000000000000000000000000000000000FF
:1031D0000000000000000000000000030A13C0000F
:1031E00000000000000000000000000000000000DF
:1031F00000000000000000000000000008000000C7
:1032000000000000042A003C000000000000000054
:1032100000000000000000000000000000000000AE
:103220000000000000000000000005800000030A0C
:1032300013C000007000000000000000000000004B
:10324000000000000000000000000000000000007E
:1032500000000000080000002A0034000001000007
:10326000000000000000000000000000000000005E
:103270000000000000000000000000015780000076
:1032800000030A12E6000000000000000000000039
:10329000000000000000000000000000000000002E
:1032A00000000000001410000000002A007C400014
:1032B000000000000000000000020000000000000C
:1032C00000000000000000000000000000000000FE
:1032D00000010000030A12E6600000000000000088
:1032E00000000000000000000000000000000000DE
:1032F00000000000000000000000009000002A0014
:103300007440000000000000000000000000000009
:1033100000000000000000000000000000000000AD
:1033200000000000000000030A17C00000040007AE
:10333000FD58120000002000000000000000000006
:10334000000000000000000000000000000000007D
:10335000002A003C00000000003CD00A40000000B1
:10336000000000000000000000000000000000005D
:1033700000000000000000000000030A16C4000066
:10338000040004CE81A00000000000000000000046
:10339000000000000000000000000000000000002D
:1033A000000000002A003400000000002CF500009E
:1033B000000000000000000000000000000000000D
:1033C00000000000000000000000000000030A16DA
:1033D000C064000000000081A000000000000000A8
:1033E00000000000000000000000000000000000DD
:1033F000000000000000002A007C02000000000025
:1034000005000000000000000000000000000000B7
:1034100000000000000000000000000000000000AC
:10342000030A16C404002000000058100000000029
:10343000000000000000000000000000000000008C
:10344000000000000000000000002A0074220001BB
:10345000000000000A000000000000000000000062
:10346000000000000000000000000000000000005C
:10347000008000030A13802000000000000000000C
:10348000000000000000000000000000000000003C
:103490000000000000000000000000000A2A0034C4
:1034A0000400000000000000000000000000000018
:1034B000000000000000000000000000000000000C
:1034C000000000000000030A1380000070000000EC
:1034D00000000000000000000000000000000000EC
:1034E00000000000000000000000000000000008D4
:1034F0002A00200000010000000000000000000081
:10350000000000002000000000000000000000009B
:10351000000000000000000000070A12A6000000E2
:10352000000000000000000000000000000000009B
:10353000000000000000000000000000000000008B
:103540000000002A0074400000000000000000009D
:103550000002000000000000000000000000000069
:10356000000000000000000000000000130A12A08C
:1035700060000000000000000000000000000000EB
:10358000000000000000000000000000000000003B
:103590000000000000002A00604000000000000061
:1035A000000000000000000000000000000000001B
:1035B0000000000000000000000000000000000308
:1035C0000A1780000000000000000000000020003A
:1035D00000000000000000000000000000000000EB
:1035E0000000000000000000002A0036400000003B
:1035F00000000000000000000000000000000000CB
:1036000000000000000000000000000000000000BA
:103610000000030A16800000000000000000000007
:10362000000000000000000000000000000000009A
:103630000000000000000000000000002A00200040
:10364000000000000000000000000000000000007A
:10365000000000000000000000000000000000006A
:103660000000000000030A16806400000000000053
:10367000000000000000000000000000000000004A
:103680000000000000000000000000000000002A10
:1036900000740200000000000000000000000000B4
:1036A000000000000000000000000000000000001A
:1036B0000000000000000000030A1786040020003C
:1036C00000000000040000000000000000000000F6
:1036D00000000000000000000000000000000000EA
:1036E00000002A00600200010000000000008000CD
:1036F00000000000000000000000000000000000CA
:103700000000000000000000000000030A13C000D9
:103710000000000779000000000000000000000029
:103720000000000000000000000000000800000091
:1037300000000000022A0038000000000034900061
:103740000000000000000000000000000000000079
:103750000000000000000000000000000000030A5C
:1037600013C0000070000000818000000000000015
:103770000000000000000000000000000000000049
:1037800000000000000000002A00300000010000DE
:103790000009100000000000000000000000000010
:1037A0000000000000000000000000000000000019
:1037B00000030A12E6000000000000000000000004
:1037C00000000000000000000000000000000000F9
:1037D00000000000000000000000002A0078400007
:1037E00000000000000000000002000000000000D7
:1037F00000000000000000000000000000000000C9
:1038000000000080030A12E06000000000001810B1
:1038100000000000000000000000000000000000A8
:1038200000000000000000000000000010002A005E
:10383000704000000000000089000000000000004F
:103840000000000000000000000000000000000078
:1038500000000000000000030A17C000000200057D
:10386000CC81A0000000200000000000000000004B
:103870000000000000000000000000000000000048
:10388000002A003800000000003CD50000000000C5
:103890000000000000000000000000000000000028
:1038A00000000000000000000000030A16C028000D
:1038B000020042FF5810000000000000000000005D
:1038C00000000000000000000000000000000000F8
:1038D000000000002A003000000000002CF00A0068
:1038E00000000000000000000000000000000000D8
:1038F00000000000000000000000000000030A16A5
:10390000C06400000000005810000000000000002B
:1039100000000000000000000000000000000000A7
:10392000000000000000002A0078020000000000F3
:10393000000A00000000000000000000000000007D
:103940000000000000000000000000000000000077
:10395000030A17C62C002000000081A00000000010
:103960000000000000000000000000000000000057
:10397000000000000000000000002A0070020001AA
:1039800000000005000000006000000000000000D2
:1039900040968010000000000000000000062EA7E6
:1039A000810880030A13C600000000F37D80000038
:1039B000000400000000000000002A940A0000003B
:1039C00000000000000200514C08E000022A00380C
:1039D000000000000E04DF00000000840020F380DF
:1039E0000000070000000000001C000000000002B2
:1039F0002BDD8001A01C030A13C004007003C279F0
:103A0000000004000280030F00000000000000001E
:103A100000000040000000000202BC0000840040E2
:103A20002A0030028001002C15C70B018000000025
:103A30000000000000000000000000000000000086
:103A4000000010168EC7000000030A12E0000000FC
:103A50000015EC0000000000000000000000000065
:103A600000000000000100000000000011283F904D
:103A7000F001002A0078400004040141090A000016
:103A8000000000000000000000000000002800000E
:103A90000000000000118C15C01B4C00020A1780AA
:103AA0000680001169FC0010000008000000000002
:103AB00000000000000000000000000000000208FC
:103AC00040290082000025002402D000802803B194
:103AD0000F000004000000000000000000000000D3
:103AE000000000000000000041A957E99800100004
:103AF00000001C0002000001EA51C00002C02000CA
:103B00000000000000400000000000000000000075
:103B10000002283C0870E0000000000020000000C7
:103B20001403911800008000000000000040000015
:103B30000000000000800000000000003FD6F38D70
:103B40000001068FFE006800000006CC188400000B
:103B5000B000000000003800000000000000140069
:103B60000000000002403C0A09D0000030F5B4001B
:103B70000000000035C510A100000000000000009A
:103B800000100000000000000000000000000038ED
:103B900014D10800000000000064000100055DD998
:103BA000B0800000000000000000024000000000A3
:103BB00000000000000000000282EE09000000008A
:103BC0000000020000000001E50A0000940000006F
:103BD00000000000030000000000000800000000DA
:103BE0000000000000080008000000146800200029
:103BF00041CEF1C0000A800000000000000000007B
:103C000000000000014000000100000000000095DD
:103C1000C94000000020080500003DEF8F00200093
:103C20000000000000000000000000000000000094
:103C300000000000C0A006E90100000010BFC6346B
:103C400000000042FD18018080000000000000001C
:103C5000000000000000000000000000080008054F
:103C60005E10F000000009A802000000002EA7006E
:103C700000000080000000000000000000000000C4
:103C800000000000000000000437F00A001C0010D3
:103C9000BB202C02710101FA01F011C000000000EC
:103CA0000000000000000000000000000000010013
:103CB000004001EA010008400005E5428051201063
:103CC0000300180084000000000000000000000055
:103CD00000000000000000000000108056E0180006
:103CE0000040001A00000000000000000A00000070
:103CF0000000000000000040000000000001000083
:103D0000000000000A0039300001000400200020FB
:103D1000040000000000401000020000000000004D
:103D200000000000000000000000000000003FAEA6
:103D3000159B400006A53BD465020002806F599A8E
:103D4000100008000000000000000000000000005B
:103D50000000000000000003F54C50820000A8099C
:103D60003823A950000001A51E40000000000000FB
:103D7000000000000000000000000000000028001B
:103D8000108694001F01400010976000000010058D
:103D90006E00100000002000000000000040000045
:103DA0000000000000000001000028942C01E00841
:103DB00000000BEB400000810027C00B000000005A
:103DC0000000000000000000000000000080000073
:103DD000001020C0A044901F000082A5BFE6643000
:103DE00001033DC0D9A00000000000000000000059
:103DF000000000000000000000000084000A126BB8
:103E000000F00000A803744340000033C20100002A
:103E100000000000000000000000000000000000A2
:103E200000000000000004014DD00800008207F3EC
:103E3000E064000118BC5990000000000000000080
:103E40000000004000000000000000000000000032
:103E500000000B10000000A05B734640008183C28D
:103E6000ED804000000000000000000000000000A5
:103E70000000000000000000000016B6C0190C0889
:103E800082A01EF6043020003E6FD1E008800000C2
:103E900000000000000040000000000001000000E1
:103EA0000000000068CC01E001412F007D42800548
:103EB0000013FDA700105480000000000000000067
:103EC000000000000A00000000003000C0BC140028
:103ED00001000000AF320028900803F868818000DC
:103EE00000000000000000000000000000010000D1
:103EF0000000000300000FC000508014000AF00012
:103F0000065000011F94D9000000000000000000CE
:103F10000000070000000001001C0000002000005D
:103F2000281E800E005C40E70004000070117CCB6E
:103F3000D88001C000000000000000001000000058
:103F400000800840000001000003C02A0000004873
:103F50000DB038200001003FC1F70B00048B0400B6
:103F60000000000028000000000000080000000021
:103F7000000000001DF0010000000A7FC060000189
:103F8000000CE018E00000B200000000000100009A
:103F900000000000000000000000000001006D3083
:103FA000C000000000AC0000008200C20000000061
:103FB00000020000000000000000000000002000DF
:103FC00000000000001001169D0100004080330633
:103FD00000320059680100E000008010000000007D
:103FE00000000000000000F00000000000000022BF
:103FF000B02BB8E0000008004000004000E940F0AD
:1040000000408004000865A00000000000A9569050
:10401000000000000000000000041FB00C00004081
:10402000001F7E3C000002BDE000120082C00002C2
:10403000A503C0000002083C0800000000000000CA
:1040400030000003DF000000000400FDE60008006F
:1040500017C2B70C000000000000000000000000C4
:10406000000000004000000000005010081C8B0100
:104070004900403433AE2C0001003D7871A00000AF
:10408000000000000000000000000000000A000026
:10409000000000020000001C1090000003C0B56684
:1040A00060000037C1E080200000000000000160D7
:1040B0000000000000000000000000000000B081CF
:1040C00017D11800010ABD1F0024000101407E0025
:1040D00010000000000000000200000000000000CE
:1040E0000000000000000008682C1DD00000002F18
:1040F000D1A8074800000402900C1400140000002E
:1041000000000000020000000000000800000000A5
:104110000000000FD781000882003F7E04022108C2
:10412000BC7FD0000082834000000000000010002F
:10413000000000000040000000000000135800E0F4
:1041400080416803656380410293C1C78E0004000B
:1041500000000000000000004083CE0000000400CA
:10416000000000000003B5C81A00000002FBB428DC
:104170000100006BECD00000000000000000000017
:104180000000083C20000000000000000800201291
:104190007E500014000007F8E40020020FFEFB0030
:1041A00000000000000000000000070083DC0001A8
:1041B000001C0000000000041417C0010C1C025079
:1041C00057E000007000000A59E200000000000003
:1041D0000000000000083C000090004000000000CB
:1041E0000001401050E0004824096C438001002980
:1041F00041B00B40000000000000000000000183FF
:10420000CC00000000000000000000002ED00000E4
:1042100000024A92A038000103045DB9E0000000EA
:104220000000000000000000283C2000000000000A
:10423000000000000102EAD00000102001E8C240A6
:10424000000020C3DD901C000402000000000000FC
:10425000000183C600000000000000025010329CE4
:104260001398000000501BA600230100E06A81C0E3
:104270000000000000000000000000283C000001D9
:10428000C000000000020003140DD8000000000070
:10429000BE638020000800E110000000000020F74D
:1042A000800000000000000300000000000000503B
:1042B000100356800EA00040017040000001001461
:1042C0007A00B000000020030F080000000000008A
:1042D00000000000000000000200203C2901040052
:1042E000000020340280000001C3900A400000005A
:1042F00000000000000000000000030000000000BB
:1043000000000000A956F980000044835B80000093
:10431000820140FA58000000000000000000000088
:1043200000000000080000000000000000083C1F22
:10433000100004000020E2400000000282990A0000
:1043400000000000000000000000000000000E005F
:104350000000000000000096801118000002A0D7A5
:10436000A460000001026F3800000000000000009F
:10437000000000000000000000000000000002003B
:104380000E940F080000106E093062400000000D0E
:10439000F508000000000000000000000700000019
:1043A00000000008000000000042A9579B800008A0
:1043B000824092A46C00220000ED5804000000002E
:1043C0000000002C00000000000000000040000081
:1043D000008000483C2DF8000048A505A5470001D5
:1043E0000001368F002000000000000000000000E7
:1043F00002EBC4E01A000000000000000031DEB94A
:10440000800002004AFA66300000010360800A0062
:10441000000020000000000000010A800A010000E6
:10442000000000000000433CDFB0B1400005AD6675
:10443000C20700002026E900000000000000000084
:1044400000000002EBC4E000001C000000000010AF
:10445000A817C81D001C024FF3547000710101DB46
:10446000980000000000000000000000000A800822
:104470000000004000000000000B801C7180004123
:1044800000D1666240010000029B80000020000015
:1044900000000000000002EBC4A99A000000000028
:1044A000000004140C9580000002AA3E560402018C
:1044B000039DCD01900003000000000000000000FB
:1044C0000A801A110000000000000002000018908D
:1044D00000001905A0F0234050043BC3D01F00008A
:1044E00000020000000000000002EBC4A018000061
:1044F0000000001000008404B51D200318FA379650
:1045000068400002BC5E9081800000000000000056
:104510000000800A80180000000000000000000A6F
:1045200081F8098400100FA040040000002BC3098B
:1045300000002000000000000000000004EBC5E0C7
:104540000E0000000000000000902D8119000040C6
:104550000856002000010285CBB880000000200032
:104560000000000000000A800A00000000000000B7
:10457000000009426B00B000000080024280000091
:1045800016C0A58800000C00000000000000000418
:10459000EBC5A00000000000000000003C169900E0
:1045A000000082507A0604000001414180000000B2
:1045B000C000000000000000000A800800000000A9
:1045C000000000000001682A700800200F0070033E
:1045D0004000042800B100000000000000000000BE
:1045E0000000004000C01900000000000000103969
:1045F0005DC8190000008182006000010008D9D95F
:10460000B0000803000000000000000000000000EF
:10461000800200000000000003D43E11F0000040C2
:10462000052C000000001081BF0E000054040000A3
:104630000000000000004000001D000C0000000011
:10464000000000000500000802501A14600002007B
:1046500028CC3800000202800000000000000000AA
:1046600000C0008000C0000000000000000008C082
:1046700000400500000600004002810080000000AC
:104680000011030101000000000000000000000014
:10469000000000000000000000000000000000001A
:1046A00040000000000001000000000000000000C9
:1046B00000000000000000000000000000000000FA
:1046C00000000000000000000000000000000000EA
:1046D00000000000000000000000000000000000DA
:1046E00000000000000000000000000000000000CA
:1046F00000000080000000009002000000000000A8
:1047000000000000000000000000000000000000A9
:104710000000000000000000000000000000000099
:104720000001000000000000000000000000000088
:104730000000000000000000000000000000000079
:10474000000020000000400000C000000100000048
:104750000000000000000000000000000000000059
:104760000000000000000000000000030000000046
:104770000000080000000000000000000000000031
:104780000000000800000000000020000000000001
:104790000000000000000000000000000000000019
:1047A00000000000024000000000000000000000C7
:1047B00000000000000000000000000000000000F9
:1047C00000000000000000000000000000000400E5
:1047D00000000000000008000000000000200000B1
:1047E00000000C000000000000306000000001002C
:1047F000C0000000000003000000000000000000F6
:1048000000000000000000000000000000000000A8
:104810000000000400000000000000000000000094
:104820000000000000000000000000000000000088
:104830000000000000000000000000000000000078
:104840000000200000000000040000000000000044
:104850000000000000000000000000000000000058
:104860000000000000000000000000000000002028
:1048700000008000000000000000000000000000B8
:104880000000000000000000000000200000000008
:104890000000800000000000000000000020000078
:1048A0000000000000000000000000000000000008
:1048B00000000800020000000020000800000002C4
:1048C0000000200000000000008000000000000048
:1048D00000000000000000000000020800000000CE
:1048E0000000000000000000008000000000000048
:1048F00000000000000000010000000000000000B7
:1049000000000000000000000000000000000000A7
:104910000010001E00100000000000000000000059
:104920000000000000000000000000000000000087
:104930002800002800000000000000000000000027
:104940000000000000000000000000000000000067
:104950000000000000000000000100000281DC00F7
:104960000000000000000000000000000000000047
:104970000000000000000000000000000000000037
:104980000000000000000000001000000000000215
:104990002C0000000000700000000000000000007B
:1049A0000000000000000000000000000000000007
:1049B0000000008000000000004000000000000037
:1049C00000000000000000000000000000000000E7
:1049D00000000000000000000000000009000000CE
:1049E00000000000000000000000000000000000C7
:1049F00000000000000000000000000000000000B7
:104A000000000000000000000000000000000000A6
:104A10000000000000000002000000000000000094
:104A20000000000000000000000000000000000086
:104A30000000000A03C000000000000000000000A9
:104A40000000000000000000000000000000000066
:104A500000000000000000000000000000570000FF
:104A60000000000000000000000000000000000046
:104A70000000000000000000000000000000000036
:104A80000000002000000000000000000000000006
:104A900000000000200000000000000000000000F6
:104AA0000000000000000000000000000400000002
:104AB00000000000000000000000000000000000F6
:104AC00000000000000000000000000000000000E6
:104AD00000000000000000000000000000000000D6
:104AE00000000000000000000000000000000000C6
:104AF00000000000000000000000000000000000B6
:104B000000000000000000000000000000000000A5
:104B10000000000000000000000000000000000095
:104B20000000000000000000000000000000000085
:104B30000000000000000000000000000000000075
:104B40000000000000000000000000000000000065
:104B50000000000000000000000000000000000055
:104B60000000000000000000000000000000000045
:104B70000000000000000000000000000000000035
:104B8000000000000003C020000000000000000042
:104B90000000000000000000000000000000000015
:104BA0000000000000000000000000000000003CC9
:104BB0001C000000000000000000000000000000D9
:104BC00000000000000000000000000000000000E5
:104BD00000000000000000000000000000000000D5
:104BE00000000000000000000000000000000000C5
:104BF00000000000000000000000000000000000B5
:104C00004000000000000000000000000000000064
:104C10000000000000000000000000000000000094
:104C20000000000000000000000000000000000084
:104C30000000000000000000000000000000000074
:104C40000000000000000000000000000000000064
:104C50000000000000000000000000000000000054
:104C60000000000000000000000000000000000044
:104C70000000000000A08000000000000100000013
:104C800000000040000000000000000000000000E4
:104C90000000000000000000000000000000001400
:104CA0000000000000000000000000000000000202
:104CB00000000000000000000000000000000000F4
:104CC00000000000000000000000000000000000E4
:104CD00000000000000000000000000000000000D4
:104CE00000000000000000000000000000000000C4
:104CF00000000000000000000000000000000000B4
:104D0000000600000000000000000000000000009D
:104D1000000000000500000000000000000000008E
:104D20000000000000000000000000002000000063
:104D30000000000000000000000000000000000073
:104D40000000000000000000000000000000000063
:104D50000000000000000000000000000000000053
:104D60000000000000000000000000000000000043
:104D70000000000000000000000000000000000033
:104D80000000000000000000000000000000000023
:104D90000000000000000000000000000000000013
:104DA0000000000000000000000000000000000003
:104DB00000000000000000000000000000000000F3
:104DC00000000000000000000000000000000000E3
:104DD00000000000000000000000000000000000D3
:104DE00000000000200000000000000000000000A3
:104DF00000000000000000000000000000000000B3
:104E00000000000000000000010000000000800021
:104E10000000000000000000000000000000000092
:104E20000000000000000000000000000000000082
:104E3000000008000000000000000000000000006A
:104E40000000000000000000000000000000000062
:104E50000000000000000000000000000000000052
:104E6000000000000000000004000000000000003E
:104E7000083C0001000040000000000000000000AD
:104E80000000000000000000000000000000000022
:104E90000000800000000000000083DE001A00080F
:104EA0000000000000000000000000000000000002
:104EB00000000000000000000000000000AA02C086
:104EC00000000000000010000000000000000000D2
:104ED00000000000000000000000000000000000D2
:104EE0000000000000100A556800000000000003E8
:104EF00000000000000000000000000000000000B2
:104F000000000000000000000000000F0000000092
:104F10000000000000000000000000000000000091
:104F20000000000000000000000000000000000081
:104F300000000000008000000000000000000000F1
:104F4000000000000000000200000000000000005F
:104F50000000000000000000000000000000000051
:104F6000000000000000000000083C2000000000DD
:104F70000000000000000000000000000000000031
:104F80000000000000000000000000000000000021
:104F900000000083DC0000000000000000000000B2
:104FA000000000000000000000000000000000B051
:104FB000E7908000000000000028000000000000D2
:104FC00000000000200000000000000000000000C1
:104FD0000000000000004000491D7D10000000009E
:104FE000000142C0000000000000000000000000BE
:104FF00000000000000000000000000000000010A1
:10500000000000000000000000AA06943802000A18
:105010009400000000C0000000000000000000003C
:1050200000000000000000000280000000000000FE
:1050300000000A552F40004000A9408000000C00ED
:105040000000000000000000000000000000000060
:1050500000000000000000008000040000000000CC
:105060000000000000000000400000000000000000
:105070000000000000000000000000000000000030
:1050800000380001C00000016000000000000000C6
:10509000001C0000000000000000000000000000F4
:1050A000000000000000000000000000000200AA54
:1050B00006C0000000000000010000000000000029
:1050C00000000000000000000000000000000000E0
:1050D00000000000180000000A55640000000000F5
:1050E00000001E00000000000000000000000000A2
:1050F0000000000000000000000000B0AFF1090057
:105100001402C3BE00000050028020000001000015
:10511000000000000000000000000000000000008F
:10512000000000000B1E6901E000802479A400004B
:10513000022228048100014000000000000000005D
:10514000000000000000400000000000000096E6A3
:10515000D08E000000000000000000010009000ADD
:105160000000000000000000000000000000000A35
:10517000000000000000000897EF10100000000081
:10518000000000005020140000400000000000005B
:10519000000000000000000000000000000000000F
:1051A0000096FEC109000002C33600000000001492
:1051B00010000000000000000000000000000000DF
:1051C000000000000000000000000A865F999000C7
:1051D00000247B246E0000220155E0000000000244
:1051E00000000000000700000000000000000000B8
:1051F00000000000A9DECD0E000000000004380011
:105200000012800900000000000000000000000003
:10521000000000000000000000000000000897FAF5
:1052200000100000000002064000201414000000DE
:10523000000000000000000000000000000000006E
:10524000000000000000002A81D0080000020FDEEC
:1052500024680000000000000000000020000000A2
:10526000000000000000000000000000000000003E
:105270000294FD0010000028BD24068000000000FC
:10528000000000000000000000000000000000001E
:10529000000000000000000000000E40D00D0010D3
:1052A000025B5F4000004000000000AA0100000017
:1052B00000000000000000000000000000000000EE
:1052C00000000110D5EA18100000225DE060000027
:1052D000000000001B0000000000000000000000B3
:1052E000000000000000000000000000001C03EDB2
:1052F00000000402C232FC68001000000000000040
:10530000000000000000000000000000000000009D
:1053100000000000000102E9CB800001C02C75E70D
:1053200066C0070000000000000000000000000050
:1053300000020000000000000000000000008000EB
:105340000140C3000000000A034400000000000008
:1053500050A000000000000000000000000000005D
:1053600000000000000000000002BD7D0000000001
:105370000AF368000A0000000008010000000000B5
:10538000000000000000000000000000100000000D
:1053900000200083FFE10F001402A7DF7C2C0050E7
:1053A00002E7CF10B0014000000000000000000044
:1053B0000000000000000000000000000A2D6E81C7
:1053C000908080225F6E00000200149ED81B0008AF
:1053D00000000000000000000400000000000000C9
:1053E000000000000000B0EEDF0F001002C2BBE6BC
:1053F000380000185C2C19B000000000000000000C
:105400000000000000000000000000000000000993
:105410001FCEF80000002C7BFA4240001083DFFD15
:105420000A50000000000000000000000000000022
:1054300000000000000001000083FCD10E0000000D
:10544000050E843C000000081E10A00000000000B3
:1054500000000000000000000000000000000080CC
:1054600004000A2DFA801000000AF3EFE04000105B
:10547000100EA80100000000000000000000040061
:105480000000000000000000000000000D818708FF
:105490000010020F02800000000223EDD0A00000E7
:1054A00000000000000000000000000000000000FC
:1054B000000000000100D5EBF81000082555E000C1
:1054C000000000045CA0000000008000000000005C
:1054D0000000000000000000000000000000003E8E
:1054E00080E01A00000385963C20000002A82000FE
:1054F00000000000000000000000000000000000AC
:1055000000000000000000010060DD189000002E87
:105510005D2E604008002A8EE018000000000000A8
:10552000000000000000000000000010000000006B
:1055300000002A80EF0000108AA402DC3400400B37
:105540003020028001000000000000000000000088
:10555000000000000000000000000002956900004B
:10556000000425E72863C00011B31C019900000066
:10557000000000000000000000000000000000002B
:105580000000000000B085F00A0004008003C2386B
:1055900000900021CF000000400800000000000043
:1055A00000000000000000000000000000000B1DD3
:1055B0006C000001C4040700E6800700002FB00063
:1055C000001C0000000000000000000000000000BF
:1055D00000000000000000002A81B00080000000F0
:1055E0003E000000000ABC2A000004000000000089
:1055F00000000000000000000000000000000000AB
:105600000002957F01800000010D7C00000000A8D1
:105610001CA0000000A800003A500000000000009C
:1056200000000000000000000000000000090B0066
:105630000402C0B2066800100CF01E00A000494031
:105640000102A50200000030000000000000000080
:1056500000000000000000000000802E5B2B428054
:1056600002108D0E800100080040000000000000C4
:10567000000000000020000000000000000000000A
:105680000000000002CB083400000001401C00B004
:105690000000030000000000000000000000000007
:1056A000000000000000000000007000000C2CB79B
:1056B000A0000000001695C00000000E00000000D1
:1056C00000030000000000000000000000000000D7
:1056D000009680BF0000000000930028200000001A
:1056E0000050A4000830000000000004000000008A
:1056F000000000000000000000000A940181800406
:1057000000010BF8600000000000098180002C02FD
:105710000000000000000000000000000000000089
:10572000000000002A80F000000000A00396200086
:10573000001BFC2A10B00000400000000000000028
:10574000000000000000000000000000000295FCC6
:105750000180000000037EC6460011BF47AD8000F7
:105760000000000030F00000000000000000000019
:105770000000000000080083C20D00000002E506E2
:105780000000000000037DD09000000020020F38D0
:105790000000000000000000000000000000000009
:1057A000083C60800000042C03A800000000042DC9
:1057B000C80100000A4000000000000008000000CE
:1057C000000000200000000000002A81B080008856
:1057D00000810FAC0000000B0C2901D00008130859
:1057E00000000000000000000000000002000000B7
:1057F0000000000295E8380014840025766300005C
:1058000010B8C7E009000000000000000000000020
:10581000000000000000000000000B00009680F374
:105820000000040071FF4000001000142A0800006E
:105830004002800000000000007000000000000432
:105840000000000000000A9401800201C00B17B1A3
:1058500040000700028C0180001C00240030F08012
:1058600002C00000000000000000000000008020D6
:105870002A80DF00000000A003804000000000003C
:10588000100000080040020F100604000000000095
:105890000000000000000000000295ED98000000EC
:1058A00005A37C07000000000000000000000000CD
:1058B00000000000000000000007000004000000DD
:1058C00010000000000080000000500C00000012DA
:1058D000091FFA10800040000000000000000030A6
:1058E0000000000000008000000000000000001028
:1058F0000000C00505680000020292B68D01000894
:10590000000000000000000000000000090000008E
:10591000000000000000000000000000020F08006E
:10592000020000091E5D10000000000000000000E1
:105930000000000000003000000000000000000037
:1059400000000000000820F50000171000A154DD41
:1059500098000000000000000000000000000007A8
:10596000090000000000000000000000000000022C
:105970000F080400000000000018A0000000000054
:105980000000000000000000008000000000000097
:1059900000000000000000000820F3820600000064
:1059A00000000900000000000000000000000000EE
:1059B000000000880000000000000000000000005F
:1059C0001C02020F000400000800003F00A00000BD
:1059D000000000000000005000000000581000000F
:1059E00000000000000000000000000020F3820022
:1059F00000004014059500000000000030F0800019
:105A00000000000000000000000000000000000096
:105A10000000000000005004020005000B6A5A005C
:105A20000000000000020F581400000000000000F9
:105A30000000000000000000000000000000000561
:105A400001B140002080B00CE180000000000000A7
:105A5000000000000000AA83D00000000000000049
:105A6000000000000000000082A500140000200AD1
:105A7000A25E00A00000000000000000000000493D
:105A800068DF0000000000000000000000000000CF
:105A900000002A502360002200A814E00000001833
:105AA00000000000000000000283C180000004002C
:105AB0000000000020C3C200000000025A02402083
:105AC00000100A040D080000400000000000000063
:105AD00000706A94CE000001C00000000000083D84
:105AE000E0000181C02A500000400710A0CEF50060
:105AF000001C00000000000000000000AA83C0009D
:105B00000000000000000000000000000000800015
:105B1000BADC0000000369C9D000000000000000EA
:105B200000000000040968CF0380000000000000AE
:105B300000000000000000000101234600000036C4
:105B400055E980000028000030F0802000000000AF
:105B5000000000000C000000000004FC00000E002B
:105B600005120F0B4000001000000098900001404B
:105B700000020F780C0000300000000000008000E0
:105B8000000060000BC160001180806A55E80000D1
:105B900002000000099F000000000030F0000380B8
:105BA00000000000000000000000000000000000F5
:105BB000000E000000000004000000100000009033
:105BC00002000000020F700004000000000000004E
:105BD00000000000000000000000000000000000C5
:105BE00001E600001010000001000000300000007D
:105BF000000000000000000000A000000000000005
:105C00000000000000000000000000000000004054
:105C10000D08000800000000000000000000000067
:105C20000000000000000000000151000000000022
:105C300000000000000000000000130001402C00E4
:105C4000000000000000000000000F000000000045
:105C5000000820000000000000000000000002001A
:105C600000014010000100004000000000000000A2
:105C7000000000000000000000000001000021E022
:105C800000000000000000E0100000141DE0000013
:105C9000000024400000000001000000000010008F
:105CA00000000000000000000000100000028A5BFD
:105CB000C0400000000000D0800000006000000034
:105CC0000001000000000001C00000000000000012
:105CD00000000001C1400024A520638000000000F6
:105CE000000100001E400000000000000000000055
:105CF000000800080000000000000000008800000C
:105D0000000000003800000000000000000B92803E
:105D100000000000000000000000001000C00000B3
:105D200000000000000012100000000000604100B0
:105D3000000000000000000400000000000000005F
:105D4000000000000000040000000000000000004F
:105D5000000006020F164000001003FC1BB0B1400B
:105D600000000000000000000070000000000001C2
:105D7000C00000000080000000000003C028BF3801
:105D8000028007103DC798000000000000000000DE
:105D90000000000BAA80000000000000000080044A
:105DA00083C0B00020000000000028000A3011CF9E
:105DB000000100080000000000000000000AA84ADE
:105DC0000000000000000000000A954E00000000E6
:105DD000000000404000800037F00000000000623A
:105DE000003F7200801100820000010300000000EB
:105DF00000000000000000000000000000000000A3
:105E00000000000000000000000000000000000092
:105E10000000000000000000000000000000000082
:105E20000000000000000000000000000000000072
:1061E000000000000000000000000000000082002D
:1061F000800103000000000000000000000000001B
:10620000000000000000000000000000000000008E
:10621000000000000000000000000000000000007E
:10622000000000000000000000000000000000006E
:10623000000000000000000000000000000000005E
:1065F0000000000000110182000001030000000003
:10660000000000000000000000000000000000008A
:10661000000000000000000000000000000000007A
:10662000000000000000000000000000000000006A
:10663000000000000000000000000000000000005A
:1069F0000000000000000000000000000000820015
:106A00008001030000000000000000000000000002
:106A10000000000000000000000000000000000076
:106A20000000000000000000000000000000000066
:106A30000000000000000000000000000000000056
:106A40000000000000000000000000000000000046
:106E000000000000001102820000010300000000E9
:106E10000000000000000000000000000000000072
:106E20000000000000000000000000000000000062
:106E30000000000000000000000000000000000052
:106E40000000000000000000000000000000000042
:1072000000000000000000000000000000008200FC
:1072100080010300000000000000000000000000EA
:10722000000000000000000000000000000000005E
:10723000000000000000000000000000000000004E
:10724000000000000000000000000000000000003E
:10725000000000000000000000000000000000002E
:1076100000000000001103820000010300000000D0
:10762000000000000000000000000000000000005A
:10763000000000000000000000000000000000004A
:10764000000000000000000000000000000000003A
:10765000000000000000000000000000000000002A
:107A100000000000000000000000000000008200E4
:107A200080010300000000000000000000000000D2
:107A30000000000000000000000000000000000046
:107A40000000000000000000000000000000000036
:107A50000000000000000000000000000000000026
:107A60000000000000000000000000000000000016
:0B7E200000000000002287EB010600BC
:00000001FF
