:100000005555AAAA101400000000000000000000CE
:10001000198200000000000000000000903AC704B0
:100020000009100005080000890200009F0200007E
:10003000B5020000CB020000E10200000000000059
:10004000000000000000000000000000512500003A
:100050005525000000000000F702000057250000B1
:10006000592500007D23000071250000B323000006
:1000700073250000752500008325000087250000FA
:10008000090300008D2500008F250000AD2500002C
:10009000AF250000B1250000B325000000000000DE
:1000A0000000000000000000000000000000000050
:1000B0000000000000000000000000000000000040
:1000C0000000000000000000000000000000000030
:1000D0000000000000000000000000000000000020
:1000E0001014000000F002F800F05AF80AA090E89E
:1000F000000C82448344AAF10107DA4501D100F0E3
:100100004FF8AFF2090EBAE80F0013F0010F18BF55
:10011000FB1A43F00103184774F0000094F000004C
:100120000A444FF0000C10F8013B13F0070408BF1D
:1001300010F8014B1D1108BF10F8015B641E05D0BB
:1001400010F8016B641E01F8016BF9D113F0080F70
:100150001EBF10F8014BAD1C0C1B09D16D1E58BF02
:1001600001F801CBFAD505E014F8016B01F8016B39
:100170006D1EF9D59142D6D37047000000230024AC
:1001800000250026103A28BF78C1FBD8520728BFA7
:1001900030C148BF0B6070471FB51FBD10B510BD03
:1001A000DFF80CD0FFF7F8FF02F02DFB0EF0E4FDB6
:1001B0000009100003B4FFF7F1FF03BC0EF0E4FDEB
:1001C0000A484FF0FF0101704FF0000080F31188E2
:1001D0004FF0000080F3098805484FF002010170DC
:1001E00062B604484FF080510160704722ED00E094
:1001F0000009100004ED00E002484FF0805101605A
:100200007047000004ED00E04FF0200080F31188FB
:10021000EFF3098098B112480068124909688842D2
:1002200017D0EFF309800E49096820E9F00F8860C4
:1002300000B50B48006800F0F2F85DF804EB0848E0
:1002400008490A68026000688168B1E8F00F81F32C
:1002500009884EF0040E4FF0000080F311887047BB
:100260000409100008091000EFF311804FF020017D
:1002700081F31188704700004FF0000080F311886F
:100280007047000062B6704772B6704740BA704758
:10029000C0BA7047401E0028FCDC704700BE7047A3
:1002A00040BA7047C0BA70471EF0040F0CBFEFF39E
:1002B0000880EFF309804FF0010102F0AEB81EF0A4
:1002C000040F0CBFEFF30880EFF309804FF0020139
:1002D00002F0A3B81EF0040F0CBFEFF30880EFF399
:1002E00009804FF0030102F098B81EF0040F0CBF14
:1002F000EFF30880EFF309804FF0040102F08DB8AE
:100300001EF0040F0CBFEFF30880EFF309804FF0ED
:10031000050102F082B84FF0000000B502F04BFF7B
:100320005DF804EBFFF770BF1EF0040F0CBFEFF396
:100330000880EFF309804FF0000102F06EB8000072
:10034000194910B5012008701849002008601849A3
:100350000860184908601849086000F0B9F900F011
:100360004BF900F063F8002010BD10B5114800F003
:100370002AF90F4908600D490968884207D00A48E0
:100380000078022803D1BDE81040FFF735BF10BD4B
:1003900010B5FFF7EAFF044902200870FFF710FFCD
:1003A0004FF0FF3010BD00000009100004091000DC
:1003B000080910000C0910001009100070B50D4656
:1003C0000446C1698068CC220EF0D9FBE169A068BF
:1003D000084440384FF08071C163216A8163002175
:1003E00041630163C1628162C0E908514FF00B3182
:1003F000C1614FF00A3181614FF0093141614FF025
:10040000083101614FF00731C1604FF00631816062
:100410004FF0053141604FF00431016070BD8269D9
:100420008168914201D802F08CBA704710B54FF440
:10043000B4714F480EF0CDFB002010BD70B50546DD
:1004400000EBC5014A4800EB8104FFF70DFF0646AB
:10045000207828B13046FFF70FFF6FF0010070BD24
:100460000320207000206560206204F11C0000F071
:1004700083F83046FFF700FF002070BD2DE9F04102
:100480000F463B49002500EBC00001EB80042E46DF
:10049000FFF7EAFE8046206A3843206204F11C0020
:1004A000074600F090F80CE0216A026C114203D07C
:1004B00000F066F9012600E06D1C2946384600F080
:1004C00078F80028F0D1012E01D1FFF74EFF404609
:1004D000FFF7D2FE0020BDE8F08170B50D4624493B
:1004E00000EBC00001EB8004FFF7BEFE216AA943C8
:1004F0002162FFF7C1FE002070BD70B50C461C499B
:1005000000EBC00001EB800500202060FFF7ACFE8F
:10051000296A2160FFF7B0FE002070BD2DE9F0418F
:100520000D46134900EBC0001E46904601EB8004C7
:10053000FFF79AFE07460F4800680564216A2942C2
:1005400003D104F11C0100F02DF93846FFF794FEA9
:10055000FFF78AFE216A29403160B8F1010F02D10C
:10056000216AA9432162FFF787FE0020B3E700005C
:10057000440B100004091000002101600846704778
:1005800030B50A6812B10B46C46B09E0002208605E
:10059000C0E903210BE000BF02F10C03D26812B1E5
:1005A000D56BA542F8DC1A68C0E903211860002069
:1005B00030BD0068002201E0C068521C8A4201D0B0
:1005C0000028F9D170470068704702690AB11168C4
:1005D00031B96FF00400704701F10C02C96839B1FC
:1005E0008142F9D1C9681160002101610846704754
:1005F0006FF003007047000010B54FF4C871324827
:100600000EF0E7FA002010BD2DE9F04188460546BE
:100610002D4900EB8500174601EBC004FFF724FECF
:100620000646207830B13046FFF726FE6FF0010015
:10063000BDE8F08102202070E7611422414604F1F8
:10064000080065600EF056FA0020206204F12400D4
:10065000FFF792FF3046FFF70FFE0020E8E770B586
:10066000194900EB800001EBC004FFF7FDFD0546D2
:10067000D4E90701814205DB144804F12401006834
:1006800000F090F8206A401C20622846FFF7F4FD35
:10069000002070BD70B50C4900EB800001EBC00478
:1006A000FFF7E2FD0546206A08B1401E206204F112
:1006B0002400FFF788FF10B1606A00F011F82846A7
:1006C000FFF7DAFD002070BDAC0C1000040910002B
:1006D00010B54FF42A7140480EF07BFA002010BD8F
:1006E00010B5044690F8380002280BD02046FFF7DA
:1006F0006CFF022084F8380038492046FFF740FF9D
:10070000FFF733FE002010BD2DE9F05F8B46064653
:10071000314900EB06109046DDE90AA911F82020C6
:100720001D461AB16FF00100BDE8F09F01EB800497
:10073000FFF79AFD074601202070C4E90165C4E96E
:100740000585C4E907A91422594604F124000EF0D6
:10075000D1F9002084F8370084F838006169E0603E
:100760002061C4E90F1020460C99FFF727FEA06016
:100770002046FFF7B5FF3846FFF77EFD0020D3E7A0
:1007800010B5044690F83800022809D02046FFF73B
:100790001CFF022084F8380010492046FFF7F0FEC5
:1007A000002010BD70B5044690F838000D460228B0
:1007B0000BD12046FFF709FF032084F838002946B3
:1007C0002046FFF7DDFEFFF7D0FD002070BD044896
:1007D00000684068704700003C0E10000C091000D3
:1007E00004091000F0B58446002004460C4F14E0C4
:1007F0005CF824600323DD0046FA05F280EA02601B
:100800000825002802DA87EA400000E040006D1E5B
:10081000002DF6DC5B1EEED5641C8C42E8DBF0BDDF
:100820001B0000800D4880470D480047FEE7FEE7AB
:10083000FEE7FEE7FEE7FEE7FEE7FEE7FEE7FEE790
:10084000FEE7FEE7FEE7FEE7FEE7FEE7FEE7FEE780
:10085000FEE7FEE7FEE7FEE7FEE7FEE78D080000A5
:10086000C50000004FF0005292F8210010F00C007B
:100870000BD004280BD008280BD07820411E02F89A
:10088000281F11701349087070470F20F6E71E20CB
:10089000F4E73C20F2E70F49097848436421B0FBB4
:1008A000F1F00D49401E08700870704770470A4902
:1008B0003F20C91F0870D5E707493320C91F0870BA
:1008C000D0E70548C01F00783F2801D000207047BE
:1008D00001207047140910002800002010B50849B5
:1008E000042001240023C1F8FC00064A14601360B0
:1008F000054BA0221A70C1F8FC01C86710BD0000AA
:1009000084E000E0D403002202E400E010B50420FB
:1009100000F0F7F8052000F0F4F8062000F0F1F8F8
:10092000072000F0EEF8082000F0EBF886490020E0
:10093000086085492031086084490880824A121D78
:100940001060814A2432106088807F4A083210602B
:100950007D4A2832106008817B4A0C3210607A4A46
:100960002C3210608881784A10321060764A30321A
:10097000106008827649086048600621042000F073
:10098000D8F80621052000F0D4F80621084600F02A
:10099000D0F80621072000F0CCF80421082000F050
:1009A000C8F8042000F0B9F8052000F0B6F80620D9
:1009B00000F0B3F8072000F0B0F8082000F0ADF820
:1009C000042000F092F8052000F08FF8062000F0D7
:1009D0008CF8072000F089F8BDE81040082000F0EE
:1009E00084B800EB80004FF6FF7101EA40015648E1
:1009F00000220260C206118601210160704752493F
:100A000000200860704700EB80004FF6FF7101EA9C
:100A100040014D480022001D02604FF000529186B7
:100A200001210160704748490020091D0860704796
:100A300000EB80004FF6FF7101EA400142480022BE
:100A4000083002604FF000521187012101607047A9
:100A50003D49002008310860704700EB80004FF6E8
:100A6000FF7101EA4001384800220C3002604FF06B
:100A700000529187012101607047334900200C31F9
:100A8000086070473349097848430A21B0FBF1F107
:100A90003148491E80F86010442181761121C176C9
:100AA000042280F8602048228276C17670472A4866
:100AB000002180F86010482181761121C1767047AD
:100AC00000EB80004FF6FF7101EA40011E48002252
:100AD000103002601D4A0E32118001210160704702
:100AE0001949002010310860704700F01F020121F1
:100AF000914040094FF0E02202EB8000C0F8001165
:100B0000704700F01F020121914040094FF0E022A0
:100B100002EB8000C0F88011704700F01F02012135
:100B2000914040094FF0E02202EB8000C0F88012B3
:100B300070474907090E002803DA00F00F00074A42
:100B400000E0074A8154704724050022320000204B
:100B500084000022850910000010002014ED00E040
:100B600000E400E049480121016000210160704774
:100B700047480121016000210160704710B5002045
:100B800000F06BF8FFF7F4FFFFF7ECFF414900209E
:100B900008604149A0200870002000F06AF8BDE814
:100BA0001040002000F04DB83A4801211C38016087
:100BB00000210160704710B5002000F04EF8334965
:100BC00001200860002000F054F8BDE8104000202B
:100BD00000F037B82D4901201C39086070472F48B4
:100BE00000782E49491C0978401A00F03F007047F0
:100BF0002B4902780A7042784A7082788A70C278EB
:100C0000CA7002790A7142794A7182798A71C0790F
:100C1000C871704723480068417882784FF00050CF
:100C2000437A0374204B1B78437443891B0A8374F3
:100C30004389C37401754275C1798175017AC175A3
:100C4000704700F01F020121914040094FF0E0225F
:100C500002EB8000C0F80011704700F01F02012174
:100C6000914040094FF0E02202EB8000C0F8801173
:100C7000704700F01F020121914040094FF0E0222F
:100C800002EB8000C0F88012704700005C840022F4
:100C9000A00000227C04002200E400E020040020E8
:100CA000000200202C0910007C09100010B509205A
:100CB00000F053F80A2000F050F8092000F059F82D
:100CC0000A2000F056F80521092000F05EF8052101
:100CD0000A2000F05AF832487F214170817001717A
:100CE000002100F848192F490A684FF0010192F8D5
:100CF000C830DC070AD09C0708D590F84A40C3F3F7
:100D0000820301FA03F39C4380F84A4092F81F31B2
:100D1000DC0721D0C3F34203012B03D0224B4FF455
:100D200080641C604830837802F21F121478C4F388
:100D3000420401FA04F4A343837003791478C4F3E2
:100D4000420401FA04F42343037103781278C2F3D6
:100D5000420291400B43037010BD00F01F020121BD
:100D6000914040094FF0E02202EB8000C0F8801172
:100D7000704700F01F020121914040094FF0E0222E
:100D800002EB8000C0F8801270474907090E002866
:100D900003DA00F00F00054A00E0054A815470476D
:100DA000480000202C09100000E100E014ED00E0F4
:100DB00000E400E07047C9484FF48051018000BF53
:100DC00000BF00BF00BF00BF00BF00BF00BF00BF2B
:100DD00000BF4FF4C051018000BF00BF00BF00BF83
:100DE00000BF4FF440610180704710B5BB4C072035
:100DF000A41E60700020207044F2C000608000BF1C
:100E000000BF00BF4CF2C000608000BF00BF00BF49
:100E10004CF2E00060800920FFF73CFA44F2E00069
:100E2000608000BF00BF00BF4FF48040608010BDF5
:100E3000F0B500252E464FF00054E02717E000BF24
:100E4000883401F03F0160702170678000BF00BFEF
:100E500000BFD4F808C043F825C06680883C00BFB6
:100E60006D1C521E491C3F2901D9401CC0B2002AEA
:100E7000E6DCF0BD70B5994C2126268000BF00BF8E
:100E800000BF00BF00BF40F02105258000BF00BFAC
:100E900000BF00BF00BF44F22101084320800420AE
:100EA000FFF7F8F9258000BF00BF00BF00BF00BFFB
:100EB000268000BF00BF00BF00BF00BF0020208011
:100EC00000BF00BF00BF00BF00BF70BD70B50446CB
:100ED000824800250580824E0120306000F0EBF84A
:100EE000FFF783FF00F0D7F85C20FFF7C3FF23462E
:100EF000012202210720FFF79BFF231D012203216E
:100F00000620FFF795FF04F10803012204210520C4
:100F1000FFF78EFF04F10C03012203210720FFF7E6
:100F200087FF04F11003012204210720FFF780FF4F
:100F300000F0B1F8FFF759FFFFF73DFF356070BDD6
:100F400070B50446654800250580654E0120306077
:100F500000F0B1F8FFF749FF00F09DF85C20FFF7C3
:100F600089FF2346012208210020FFF761FF231D8E
:100F7000012209210020FFF75BFF04F10803012291
:100F80000A210020FFF754FF04F10C0301220B217A
:100F90000020FFF74DFF04F1100301220C21002077
:100FA000FFF746FF04F1140301220D210020FFF793
:100FB0003FFF00F070F8FFF718FFFFF7FCFE356009
:100FC00070BD2DE9F0439946079B002603B18026AA
:100FD000434C0023803CC0B21F4665044FF001081B
:100FE0001DE000BF85F8890001F03F0C4CEA060CBB
:100FF00085F888C059F823C0C5F88CC0C4F8B08003
:10100000C4F8B070491CC9B2402902D3401CC0B218
:101010000021D4F8C0C0BCF1000FFAD15B1C934290
:10102000E0DBBDE8F0834FF0005282F88900002336
:1010300019B1802082F8880001E082F888302848C1
:1010400001218038C0F8AC10C0F8AC30D0F8C01026
:101050000029FBD1704738B50C4605460021F82021
:10106000FFF7E1FF0020014600902B462246F820C2
:10107000FFF7A7FF38BD38B50C4605460121002013
:10108000FFF7D1FF0120002100902B4622460846A1
:10109000FFF797FF38BD10B5104C4FF4804020800B
:1010A0000420FFF7F7F80020208000BF00BF00BF3A
:1010B00000BF00BF10BD10B5084C4FF4C0502080D9
:1010C00000BF00BF00BF00BF00BF4FF480502080B2
:1010D0003520FFF7DFF80020208010BD8A000020B7
:1010E00080100022F8B5F84C002635462670A66020
:1010F000E6600120266100F099FD0E2000F096FDCB
:101100000D2000F093FD0C2000F090FD032000F076
:101110008DFD012000F096FD0E2000F093FD0D20C6
:1011200000F090FD0C2000F08DFD032000F08AFD02
:1011300000F047FF6A460221E44801F017F9E4494C
:101140009DF8010008709DF80000432800D0032698
:101150000521012000F082FD05210E2000F07EFD1A
:1011600005210D2000F07AFD05210C2000F076FD10
:101170000621032000F072FD012000F04BFD0E203F
:1011800000F048FD0D2000F045FD032000F042FD79
:10119000A57065703046F8BD70B5CB4BD888C0F3EC
:1011A0008001C0F34016C0F300247140C0F3C02298
:1011B0006140C0F3803551406940400840EAC13089
:1011C000D88070BD08B58DF80000000A8DF80100C8
:1011D000684601F008F908BD38B50D460090144680
:1011E0000421684601F010FCBA498978C90602D585
:1011F000062D00D1401C0099A16484F8460038BD3A
:10120000106570472DE9F047B34D0646B14C28688C
:1012100090F83404C00718D0608840F080006080E7
:10122000FFF7BAFF296800F00700084490F835047A
:1012300084F83500FFF7B0FF2968C0F302100844B6
:1012400090F83504800084F83400002084F83F00D2
:1012500028684FF002084FF0E90990F845176174CB
:101260009E494FF0010AC1F30E07042E06D0032E4B
:101270001FD0022E41D0052E5CD083E0954A314626
:10128000A06AFFF7A9FFE06A2065A4F84070A07883
:1012900080060028286890F8590703DA20F0060035
:1012A00040F0040084F8440084F8458084F84290BB
:1012B00068E0884A3146A06AFFF78EFFE06A206541
:1012C00084480421283001F09FFB844901EB800011
:1012D000C0F30E00A4F84000A0788006002828681B
:1012E00090F8590703DA20F0060040F0040084F873
:1012F000440084F84580ED2019E0764A3146A06A22
:10130000FFF76AFFE06A2065A4F84070A0788006C5
:101310000028286890F8590703DA20F0060040F00A
:10132000040084F84400042084F84500E52084F893
:10133000420027E0A178890624D500F2C93028347C
:101340000178A173C1782174417821758078607526
:1013500084F817A05F4A31462068FFF73DFF5F48D9
:10136000DC30C0F30E002083286890F8590720F085
:10137000060040F00200207784F81D8084F81A905F
:10138000A4F12804286890F80A17C90708D054491E
:10139000C1F800A014F8430F40F00300207008E0EB
:1013A000A17890F86C07890701D520F0030084F834
:1013B000430045484670BDE8F047464800F0D9BEB6
:1013C0002DE9F047434C05464FF0000ADFF808913D
:1013D00084F83FA0E12084F84200D9F800002246BA
:1013E000394E90F84517617490F80A17D77C5FEA78
:1013F000C1783C495288C1F30E0C3B49D3B242F04C
:10140000010201D0012D04D0072D0AD0062D39D0BC
:1014100022E0F77033710A23E3746280A4F840C0BD
:1014200007E0F77033716280304AC2F30E02A4F80D
:10143000402090F85327097802F0F00201F00F01E4
:101440000A43E27690F855076077224A2946012040
:10145000FFF7C2FEE06820656188C80705D094F8F0
:10146000420040F0020084F84200D9F8000090F8F1
:101470000A27D2073CD0062D16D0082D14D0012DF6
:1014800017D03DE0A4F840C090F85327097802F047
:10149000F00201F00F010A43E27690F855076077F9
:1014A0000C4A2946A068D3E714F8430F20F0030044
:1014B00008E00B49C1F800A014F8430F20F0030026
:1014C00000F1020020701BE0180910000410002039
:1014D0007C091000E41010002C091000C0850120C8
:1014E000280A002200800120F60710004083012016
:1014F00090F86C07890701D520F0030084F84300B9
:101500007570BDE8F047F84800F0EBBD06280ED036
:1015100008280CD001280AD0072808D0042805D0B4
:10152000032803D0052801D0022801D16AE647E745
:1015300070472DE9F843ED4D8146012901D1002086
:1015400068716C79EB4F641CE94EA7F128080FE035
:10155000306890F80A07C00702D057F8242001E04D
:1015600058F82420694648469047012805D0641C55
:10157000092CEDD90020BDE8F8836C719DF80000BE
:10158000F9E770B50188002932D001465822D648C3
:1015900001F06FFDD64D286890F80A07C0070AD001
:1015A000D148018811F0760F05D08278920702D4D5
:1015B00041F080010180CD4E7078002818D10121C2
:1015C000C948FFF7B6FF040012D0286890F8181138
:1015D00049070ED590F8430780070AD400F0BAFEF9
:1015E0000220B07000F0BAFE192000F06DFD74709A
:1015F00070BD002030702046BDE8704086E70020B6
:1016000070478268120006D00088C00503D5072005
:10161000087001207047002070478268120006D0D1
:101620000078C00703D00620087001207047002012
:101630007047026A120006D00078000703D5082020
:10164000087001207047002070478268120005D0A2
:101650000078000602D5012008707047002070470E
:10166000826A120008D0C26A32B10078800603D5BF
:10167000022008700120704700207047826A120023
:1016800006D00078C00603D50520087001207047F9
:1016900000207047826A120006D00078800703D5C8
:1016A000042008700120704700207047C26A32B1E0
:1016B0000078400703D50320087001207047002000
:1016C000704700200870012070472DE9F0418648DE
:1016D0000421283001F098F90446834804212C3075
:1016E00001F092F9814F0546DFF8FC817878824E4F
:1016F000042801D002280CD198F80200800602D5F7
:10170000A2007D4902E0620006EB44017B4801F043
:10171000B0FC7878032801D0022811D198F8020093
:10172000800603D5AA0006EB840104E005EB440023
:101730006A0006EB4001BDE8F041714801F099BC38
:10174000BDE8F0811FB56A48674C006800F20A7175
:1017500090F80A07C2070BD06288920508D4634A42
:101760005278012A04D120F00100087007F0F2FA43
:1017700000F0F4FB01208DF80000624801905E4803
:101780000290DC3003906168684688471FBD2DE9F0
:10179000F84FDFF85CA101200090DAF80000002685
:1017A000554C90F800073546C0072BD04E4890F8AE
:1017B0003A7007B901274C48DFF8308190F83900BA
:1017C00090FBF7F00FFA80F998F80100042802D096
:1017D000032802D00AE01E261CE0434834260421D8
:1017E000283001F011F9444901EB800498F8010018
:1017F000052808D004280DD003280BD0022809D0D2
:10180000052807D08EE1DAF800003B4C2C2690F832
:101810000197DC34D8F80880C845F3DCB8F1000F34
:1018200004D14FF4DC7138480DF0D3F92F48002172
:10183000DFF8D8E04078DFF8D0B02DE05BF8213059
:1018400034F911C0042863444BF8213002D0032836
:1018500032D020E0B8F1000F08D12C4B0022683BB9
:1018600023F8112047F6FF722EF81120DFF89CC0F4
:1018700034F91130ACF1680C3CF91120934231DCA1
:101880002CF8112034F911203EF911309A4200DB76
:101890001A462EF81120491CB142CFDB134A08F139
:1018A0000101494591606EDB002391469360042855
:1018B0002ED0032868D01DE1B8F1000F08D1134BDA
:1018C0000022683B23F8112047F6FF722EF8112002
:1018D000DFF838C034F91120ACF1680C3CF9113054
:1018E0009A42CDDC1A46CBE7E4101000180910002C
:1018F0002C0910009CED0000C0850120DE92012023
:101900003A93012000800120F8860120888B012075
:10191000D8490020A1F1D0023EF8108032F810C062
:101920000EEB4003ACEB080C02EB4008DB8BB8F885
:101930001E80A8EB030363441BB221F81030F0B102
:10194000AB4200DA1D46401C0F28E5DB5FF00000CB
:1019500031F81020521B21F81020401C0F28F7DB13
:10196000C54890F83B0028B11E21C44801F012FD83
:10197000C9F80C000020C24AD9F80C303DE0B1F99A
:1019800000500120C8E7C9E03AE000BF3BF8201052
:10199000B94D7943C91A09B224F8101095F83B5093
:1019A000C5B1DAF8008001F1320CB8F95654AC45F3
:1019B00002DD491B32310BE0B8F95A54A1F1320C67
:1019C000AC4504DAA1EB0501A1F1320100E00021F0
:1019D00022F81010DAF8001091F84914890706D59A
:1019E00034F8101032F81050491B24F81010A54993
:1019F0005BF8205041F82050401CB042C6DB79E033
:101A00009C49002073461E319A4A33F81080D03A20
:101A100032F810C002EB4002ACEB080C03EB4008BC
:101A2000928EB8F83480A2EB0802624412B221F818
:101A30001020E8B1AA4200DA1546401C1A28E3DB60
:101A40005FF0000031F81020521B21F81020401CDC
:101A50001A28F7DB884890F83B0068B134218748A2
:101A600001F098FCC9F8100080460020864A3FE04B
:101A7000B1F900500120C7E7D9F81000F4E700BF22
:101A80003BF820107C4B7943A1EB080109B224F804
:101A9000101093F83B30C3B1DAF8003001F1320C8A
:101AA000B3F95854AC4502DD491B32310BE0B3F9B0
:101AB0005C34A1F132059D4204DAA1EB0301A1F1EE
:101AC000320100E0002122F81010DAF8001091F83D
:101AD0004914890706D534F8101032F81030C91AA5
:101AE00024F8101067495BF8203041F82030401C82
:101AF000B042C5DB99F80100052813D100205946F2
:101B0000624A08E031F8203024F8103051F82030D3
:101B100042F82030401CB042F4DB03E0FFF7F6FC53
:101B2000002000900098BDE8F88F2DE9FF41FFF7F5
:101B3000CCFD514DA878400603D4FFF728FE0028BD
:101B400016D0534F534C386890F80A07C00708D096
:101B50006078012805D1E078E8742079688007F082
:101B6000F9F800214448FFF7E4FC18B1FFF7CEFC78
:101B7000BDE8FF8100266670386890F80A17C9072B
:101B800001D045490E60454AA421117390F818010F
:101B9000400702D5A67000F0D9FB207801280CD0B0
:101BA0008DF800603E48019000F5B8600290DC308E
:101BB0000390696868468847DAE702208DF80000DC
:101BC000F0E7334810B501684FF0000291F81801B2
:101BD000430730480AD591F84317890706D481781E
:101BE000012907D002290ED0032912D18270BDE845
:101BF0001040A7E50221817000F0B0FBBDE8104065
:101C0000322000F061BA032181704078BDE81040B5
:101C10007CE410BD00F01F020121914040094FF00B
:101C2000E02202EB8000C0F80011704700F01F02B4
:101C30000121914040094FF0E02202EB8000C0F802
:101C40008011704700F01F020121914040094FF0C0
:101C5000E02202EB8000C0F8801270474907090EAD
:101C6000002803DA00F00F000E4A00E00E4A81540B
:101C700070470000F08B0120E4101000F88601206E
:101C80007A990120B0880120B6990120688A012044
:101C90002C09100018091000280A0022001000204A
:101CA0000080012014ED00E000E400E0FC48016841
:101CB0000029FCD17047F0B527260022F84DF948DD
:101CC0004FF480115C270C465FF0000303EB000E1D
:101CD00011F803C05B1C8EF860C00C2BF6DB2B6880
:101CE000002BFCD18276C77604F10C0103EB000EC9
:101CF00011F803C05B1C8EF860C00C2BF6DB296862
:101D00000029FCD1511C8176C776921C04F12D016B
:101D1000B242D8DBF0BD2DE9F0479246089E5B1E2B
:101D2000C6F108010022DF4C01F0FF0C154600212E
:101D300089469A420BDA00EB0208875C98F801802A
:101D400027FA06F708FA0CF847EA080703E007D174
:101D5000875C27FA06F701EB040888F8607003E057
:101D600001EB040888F8609001F1010102F1010221
:101D70000C29DEDBCA490F68002FFCD10AEB0501F4
:101D8000A1765C21E1766D1C022DD0DBBDE8F087E9
:101D900018B5002411235C222146C3480094FFF7A4
:101DA000BAFFC1481823622200211E300094FFF7B9
:101DB000B2FF18BD2DE9F0470024DFF8E482B949ED
:101DC0008246254626464FF05C0900209C4206DAF2
:101DD00000EB010C1AF804708CF8607002E04718F0
:101DE00087F86060641C401C0C28EFDBD8F800000A
:101DF0000028FBD15019887681F81B906D1C032DAB
:101E0000E3DBC3E7A84800B516235E22002164384F
:101E1000FFF7D0FFA4482023642200213C385DF85E
:101E200004EBC7E770B500239E4C05E0CD5C1E199E
:101E30005B1C86F860505BB29342F7DB98490B68F5
:101E4000002BFCD1A07642F01000E07670BD30B5DA
:101E5000964C07220220216801F24271FFF7E2FF4F
:101E60002168022201F24A710920FFF7DBFF216895
:101E7000012201F24C710B20FFF7D4FF21680622EA
:101E800001F24D710C20FFF7CDFF874920688A31A0
:101E9000874D90F85307097800F0F00001F00F012A
:101EA00008432870012229461220FFF7BBFF216852
:101EB000072201F254711320FFF7B4FF7A48012280
:101EC0008930007800F00F01206890F85B0761F31B
:101ED0001F10287029461A20FFF7A4FF216804224A
:101EE00001F25C711B20FFF79DFF6F4802228D30CD
:101EF0002946007828706C488B30007868701F2065
:101F0000FFF790FF2168062201F262712120FFF79E
:101F100089FF654802228E30294600782870624881
:101F20008C30007868702720FFF77CFF2168022240
:101F300001F26A712920FFF775FF2168072201F27B
:101F40006C713D20FFF76EFF206890F8C01759486C
:101F50000170332141740B21817430BD5648002239
:101F6000026055481C380260544802610121016139
:101F7000826081600260016002604949A0F574706E
:101F80000B68002BFCD147490B7B43F020030B73FC
:101F90000B7B23F040030B730B7B23F080030B734D
:101FA0000B7B23F020030B73C0F8D823C0F8E02389
:101FB0004348027070473A48183001680029FCD144
:101FC000704730B53D480024743004603B48803091
:101FD00004603A48C4600121C160C46004600160CB
:101FE0000460344D2020AD1D287068702E49593D85
:101FF00082310A883AB12D4B1B6883F87027098813
:10200000090A83F8711727490873A4200873244824
:10201000183001680029FCD1FFF7A0FFFFF717FF78
:10202000FFF7F0FEFFF7B4FEFFF745FE254804601A
:10203000244820300460AC8530BD38B50546194CC5
:10204000806C00906073010AA173010CE173000EB3
:102050002074042269462B20FFF7E4FE012205F1DB
:1020600046012F20FFF7DEFE95F84600A074286D8C
:102070000090E074010A2175010C6175000EA075D5
:10208000042269463520FFF7CDFE0098800F84F8C2
:1020900040000749012208703920FFF7C3FE38BD10
:1020A000040B0022001000206C0710002C09100007
:1020B0003C111000530000201C0C0022D003002211
:1020C0001909100020050022C94900220A600A06E9
:1020D0009085012008607047C64801680129FCD13D
:1020E000704770B50446FFF7A8FFC348B4F8401026
:1020F0000180217C00F8011C94F842104173BF4D0F
:10210000A07C85F83600042204F111010520FFF7B8
:1021100089FEBB4E02220920316801F24A71FFF7A5
:1021200081FE022204F116010D20FFF77BFE022240
:1021300004F118010F20FFF775FE3068052204F145
:102140001A0190F8540720771120FFF76BFE012247
:1021500004F143013D20FFF765FEA648016801290F
:10216000FCD194F842002873BDE8704041F28830F9
:10217000AAE77CB50446FFF760FF9F48B4F840101B
:10218000018094F8371000F8011C94F84210417354
:102190009B4D296891F80A07C00767D099480688BF
:1021A000B1F87007A178090603D594F835100844F2
:1021B00080B28DF80400000A8DF80500022201A902
:1021C0004120FFF72FFE300A8DF800608DF80100E6
:1021D000022269460920FFF725FE022204F13001A0
:1021E0001B20FFF71FFE022204F132012320FFF71C
:1021F00019FE012204F136010720FFF713FE012228
:1022000004F13C010820FFF70DFE012204F13D011D
:102210002120FFF707FE012204F13E012920FFF7EC
:1022200001FE012204F144011820FFF7FBFD012209
:1022300004F145011920FFF7F5FD286872490122D4
:1022400090F8540720F0F00008701320FFF7EAFD23
:1022500094F83F00694EC0070CD0286800F2C671A0
:1022600090F8C60786F8360001220AE0022201F241
:102270004A71AFE794F8380086F83600012204F17D
:1022800038010620FFF7CEFD012204F143013D2075
:10229000FFF7C8FD574801680129FCD114F8420F27
:1022A0003073608ABDE87C400EE75549554B0A689B
:1022B0000A3392F84D2702700A68B2F8502742801C
:1022C00009681B7801F2547103F00F0311F8012C17
:1022D00002F0F0021A4302714A89C2804A8A0281DE
:1022E000CA7B8272CA7DC27249780173704710B589
:1022F0000446014601220C20FFF794FD0222A11C96
:102300000F20FFF78FFD0122211D1220FFF78AFD0C
:102310000222A11D1D20FFF785FD022204F1080104
:102320002520FFF77FFD012204F10A012220FFF79B
:1023300079FD012204F10B012A20FFF773FD04F15E
:102340000C010122BDE8104014206BE52B4904204C
:102350000873704729492020087370472749C02017
:1023600008737047224900200860704770B5214CFF
:102370001C342368002BFCD11D4603E0C6185B1CEF
:1023800086F880508B42F9D32368002BFCD102E001
:10239000C45CD4545B1C8B42FAD370BD10B500F002
:1023A00025FF1349002008601848007800280FD046
:1023B0001048001D01680029FCD11048C078400673
:1023C00002D5134901200870BDE81040FFF7ADBBEE
:1023D00010BD10B500F00AFF054900200860BDE8F7
:1023E0001040FFF7EEBB022201463F201AE5000035
:1023F00020050022000B00225400002000100020C5
:102400002C091000EC0710003C11100019091000F5
:1024100018091000FEF764FBFEE70446012006F0F1
:10242000AFFD00210F20226806F0BFFD01210F2023
:10243000626806F0BAFD02210F20A26806F0B5FD21
:1024400003210F20E26806F0B0FD0C210F20226965
:1024500006F0ABFD0E210F20626906F0A6FD0F21EC
:102460000846A26906F0A1FD20210F20E26906F0CE
:102470009CFD3E48026821210F2006F096FD3B4856
:102480001038026822210F2006F08FFD37480C38E3
:10249000026823210F2006F088FD344808380268BE
:1024A00024210F2006F081FD3048001D02682521FF
:1024B0000F2006F07AFD2D483438026826210F20BF
:1024C00006F073FD29481438026827210F2006F012
:1024D0006CFDFEF77CF9024630210F2006F065FD09
:1024E000FEF7FEFAFEE710B5012805D0022805D058
:1024F000032809D0032102E0012100E00221BDE808
:102500001040032006F03CBD0021032006F038FDFA
:10251000FEF7E6FAFEE710B504460146042006F091
:102520002FFD012C02D1FEF7DBFAFEE710BD0146BC
:10253000082006F025BD0146062006F021BD10B595
:1025400004460146072006F01BFD34B1012C07D0DC
:10255000022C08D1FEF7C4FAFEE7FEF7C1FAFEE747
:10256000FEF7BEFAFEE710BD0220E8E738ED00E016
:1025700000F03CBE704770471C4810B5016821F060
:102580000401016000F032FEBDE810400CF004BA16
:102590007047704710B500F029FEBDE8104006F006
:1025A000D0BB00F023BE00F021BE7047704710B5CD
:1025B00000F01CFE0E480078012803D0BDE8104052
:1025C00006F0CDBBBDE8104001F099BB70477047E5
:1025D0007047704770477047704770477047704743
:1025E00000F004BE00F002BE7047704710ED00E03E
:1025F0008409100010B54E2194480CF0C8FA934895
:102600009349944A0180428093498180934BC380CF
:10261000934C0481934C4481934C8481934CC481AA
:10262000934C0482934C4482934C8482934CC48296
:10263000934C0483C387428781879249A0F8401056
:1026400091490968B1F86220A0F84220B1F8C6218A
:10265000A0F84420B1F8A120A0F84620B1F8F0215C
:10266000A0F84820B1F85421A0F84A20B1F852212E
:10267000A0F84C208348B1F84E274280B1F85C277F
:10268000C280B1F86417018110BD8048017880488C
:10269000552901D0132102E07C49491C09780170B9
:1026A0007047F0B585B0FF22142168460CF067FA38
:1026B0006846FEF70BFC039803250127072645F221
:1026C000AA54A04202D00498A0423AD1DDE9000108
:1026D000884206D00299884203D00198884208D1E6
:1026E00000900498A0420FD10098000E012804D059
:1026F00006E00020FFF71FFF0FE00098C0F301374E
:102700000098C0F3032602E00120FFF714FF0398AE
:10271000A04214D1009800F007055E4907F00300BD
:1027200040EA061081F86000012088761120C87602
:102730005948017865F30201017005B0F0BD02202F
:10274000D8E70120FFF7F7FEF9E770B5FEF7AFF81D
:10275000FEF714FA4C4D28680078A52802D0012015
:10276000FFF7D9FE4D48006810B10020FFF7D3FEF7
:102770004FF008500124C0F898432868484A90F860
:10278000281101F00101116090F82811121DC1F308
:102790004001116043490C600A1F1460111F0C6056
:1027A00090F8C830DD070ED09D070CD513F01C0F34
:1027B0004FF0000300D1136090F8C800C0F382000E
:1027C000012800D10B60FEF7F5FAFEF79FF8FEF73F
:1027D00089FC032801D1FFF786FEFEF71BFAFEF7FE
:1027E0007DF8FEF763FA2B48802180F86010042101
:1027F00081761121C176FFF754FFFFF746FF284885
:102800000C38046070BD41F2104010B5410648819B
:10281000FFF79BFFFFF7EEFE23493F2008602349A7
:102820000020086023482249016001F2A460224987
:102830000860224800F09BFAFDF726FD00F040F802
:10284000FDF720FDFDF7A4FD012010BD00000120D3
:1028500000800120FEA00120BEA601204E00012024
:10286000C0850120DA200120082101204C2101200F
:102870007A210120A8220120D62201200E1D01204C
:102880003C1D0120981F10002C091000F2071000B9
:10289000850910000010002020000020C810002230
:1028A00088040022280A002248210120780910000B
:1028B0004C111000580910005C091000941E100003
:1028C0007FB5FDF73DFD204D002400BF05EB441012
:1028D00000F11002017F4CCACDE90261CDE900236D
:1028E0000FC8FDF711FF10B10120FFF728FE641C8F
:1028F000072CEBDB144D002415F1E00504EB44003C
:1029000005EB8001091D55F8200006C9FDF77CFE86
:1029100010B10120FFF713FE641C072CEEDB0B4DFA
:10292000002400BF05EBC400416855F83400FDF7F2
:1029300085FD10B10120FFF702FE641C062CF1DBBF
:102940007FBD4068FFF710BEC4ED0000F8EE000048
:102950002DE9F0479246012547F6F872564299460E
:10296000AC460024089F16E030F8143031F814808B
:10297000A8EB03031BB29A4200DD1A469E4200DA1E
:102980001E46002B02DA4FF0000502E001DD4FF099
:10299000000C04F10104BC42E6DB55EA0C0306D04E
:1029A000012D01D02DB108E0BCF1010F05D10022AD
:1029B00003E0BCF1010F00D1324600252C462B4626
:1029C00011E000BF30F8136031F813C01644ACEBCF
:1029D000060636B24E4505DAC9F1000C664501DD42
:1029E0003544641C5B1CBB42ECDB95FBF4F10A44F0
:1029F000002105E030F8113013442AF81130491C49
:102A0000B942F7DBBDE8F08770B503460020024607
:102A1000FE4C09E09D5C521C05F00F0604EB1515F9
:102A2000A65D2D78304428448A42F3DB70BD88428D
:102A300000D308467047884200D80846704788424D
:102A400000D30846904200D3104670472DE9F04766
:102A5000D0F810C00568046A85FB0C12A1FB0412B3
:102A600042694368914683FB02628269E246A6FBA3
:102A700002677618D0E9021781FB07C8C069ACFB72
:102A800000C81CEB060682FB0A2CA2FB011280FB8D
:102A90000902A0FB0502401884FB0712A1FB0312E8
:102AA0000818301A4FEAE071ACE72DE9F04389B01D
:102AB0000446006800906068019020690290606898
:102AC000039020690490A069059020690690A06990
:102AD0000790E06908900D466846FFF7B7FF80460B
:102AE000A0680190E0680490606907908946684694
:102AF000FFF7ACFF064660680190A068029020696D
:102B00000490E0680590A0690790606908900F46FE
:102B10006846FFF79BFFC5E90401C5E90267C5E9FF
:102B2000008909B0BDE8F0832DE9FF4F4FF0000A9E
:102B300089B09B465746D146D046564655465446E0
:102B4000202168460CF045F80B9810E00999824462
:102B500031F9102000FB00F102FB0166884441437B
:102B600002FB009901FB004417440D44401C5845EA
:102B7000ECDD0B99ABEB0100401CCDE9000ACDE97F
:102B80000654CDE90486CDE9027968460A99FFF733
:102B90008CFF0DB0BDE8F08F9D480068017B427B43
:102BA00041EA0221827BC07B41EA024141EA0060A6
:102BB00040007047964800680179427941EA022155
:102BC0008279C07941EA024141EA0060704700B56C
:102BD000FFF7E2FF4008400000BDF8B50E4604468E
:102BE000FFF7F5FF0090FFF7D7FF05460421684681
:102BF000FFF70AFF04EB4007002400992046234614
:102C00004FF0010C0CFA03F20A4207D02A4204D01A
:102C100037F8102026F81420641C401C5B1C172B6E
:102C2000F0DBF8BDC6E7FCB50E460746FFF7CFFF61
:102C30000190FFF7BFFF0090FFF7BCFF054604219E
:102C400001A8FFF7E1FE044604216846FFF7DCFE19
:102C500000EB440007EB40070020009904460346C0
:102C60004FF0010C0CFA03F20A4207D02A4204D0BA
:102C700037F8142026F81020401C641C5B1C202B05
:102C8000F0DBFCBD00B5FFF787FF40F0010000BDA1
:102C900090E7604A520102EB810101F1085108609E
:102CA0007047C0EB001001EB8000801001EB410188
:102CB0004900182291FBF2F300EB400000F5801070
:102CC00002FB1311006820F07F40C84000F03F0075
:102CD0007047C0EB001001EB8000801010B501EBD5
:102CE00041014900182391FBF3F403FB141300EB9B
:102CF000400000F580103F2401689C40A1439A40A9
:102D00000A430270110A4170110C817010BD8210CB
:102D100002EB4202114400EB40004000182290FBFD
:102D2000F2F301F5801102FB1302086820F07F40E6
:102D3000D04000F03F007047831003EB43031A4478
:102D400010B500EB40004000182390FBF3F403FBA8
:102D5000140302F580123F2410689C40A043994060
:102D600001431170080A5070080C907010BD2DE9D5
:102D7000F14F5C2100980BF02CFFFFF783FF4FEA27
:102D80005008FFF717FF4FF0000C814666464FF0E2
:102D9000010A00BF0AFA06F111EA090F1ED0002449
:102DA000012725460AFA0CFB0AFA05F010EA080F7B
:102DB0000FD031462846FFF774FFA04207D0009994
:102DC000009A51F8271041EA0B0142F827100446F7
:102DD0007F1C6D1C272DE7DB0CF1010C761C202ECF
:102DE000D8DBBDE8F88F2DE9F043002501220A4F1A
:102DF0002B469146032109FA02F400BF57F82160DF
:102E0000264221D001EB810608E0000028EF0000F7
:102E10002C09100048210120941E100006EBC10669
:102E200002EB460630F916C0A1F1010606EB860852
:102E300008EBC60602EB460630F91660BCEB060648
:102E400000D5764235445B1C491C0F29D6DB521C49
:102E5000192ACFDB03B9012395FBF3F062E62DE9D4
:102E6000FF4F83B091464FF0000BFF4ACDF804B0FE
:102E7000CDF800B01168DE46012B91F8774004F0E0
:102E80000F0600D1002691F87A100F27C6F1100A1C
:102E90000F2900D20F4600210122029100252C4665
:102EA000032327E0F14951F823C0012191401CEA96
:102EB000010F03EB830101EBC30102EB410130F988
:102EC00011C0A3F1010101EB810808EBC10102EB84
:102ED000410130F91110ACEB010106D0002900DAF4
:102EE0004942DDF810C0A1EB0C01002900DA49428B
:102EF0000D445B1CBB42D5DB394627E0DB4B53F866
:102F000021C0012393401CEA030F01EB810303EB73
:102F1000C10302EB430330F913C0A1F1010303EB3A
:102F2000830808EBC30302EB430330F91330ACEB27
:102F3000030306D0002B00DA5B42DDF810C0A3EBE0
:102F40000C03002B00DA5B421C44491C0F29D5DB23
:102F5000029901290AD10199491B01D5C1F100014A
:102F60008B440099091B00D549428E44BE49CDE9E6
:102F70000045096891F87B10914218D1D9F80010EA
:102F800071430AFB0B11CB1701EB13710B11C9F83D
:102F90000030D9F808104FF0000B71430AFB0E11F6
:102FA000CB1701EB13710B11DE46C9F80830012174
:102FB000521C0291192AFFF671AFD9F80400704330
:102FC0000AFB0B00C11700EB11700011C9F80400D7
:102FD000D9F80C0070430AFB0E00C11700EB11700A
:102FE0000111C9F80C1007B0D4E52DE9F04F9E4946
:102FF00000231846096801F24941B1F81CB0B1F844
:103000001EA00978C1F3C001C1F11A0727E003220D
:10301000DFF858920125964E05FA01F559F822403D
:103020002C4216D102EB820404EBC20401EB4404EF
:1030300036F914C0A2F1010404EB840808EBC404BF
:1030400001EB440436F91440BCEB040400D564429F
:103050002344521CD2B20F2AE0D3491CC9B28F427A
:10306000D5DC84499B450B6002D2534500D2012038
:1030700090E503E011F8013B00F8013B521EF9D244
:1030800070477CB50D460446FFF7A1FD0090FFF7A1
:1030900091FD019000980421400800906846FFF7D8
:1030A000B3FC0646042101A8FFF7AEFC30448200C1
:1030B00021462846FFF7DDFF7CBD0B4601464FF455
:1030C00050721846D5E770B5044658210BF081FDC3
:1030D0000023654D23806380286890F8C50700F0C1
:1030E000010043EA40106080296891F84517C9093A
:1030F00040EA011060806360FFF7C4FDA060FFF745
:1031000059FD5D4EE0607088E082286800F24670EC
:10311000C27A817A02F03F0241EA0221218341789A
:10312000E17490F87A1021740178A1748178217586
:10313000017BA1765149407B097800F0F00001F055
:103140000F010843E076FFF742FDA062FFF732FD72
:10315000E062F08820866086286800F2C1700178FD
:1031600084F83610817884F83710C17884F83810E4
:1031700010F8BF1C84F83910012184F83A1084F843
:103180003B30417884F83C1010F85F1C84F83D1007
:1031900010F8571C84F83E1010F86B1CA17710F83B
:1031A000550C84F8430084F8353004F8343F41F27C
:1031B0008830208470BD10B50446FDF765F8012CF9
:1031C0000BD12948006890F81801800705D5FDF754
:1031D00078FB38B1FDF770FB04E0FDF772FB08B92E
:1031E000FDF765FBBDE81040FDF74CB8244810B56D
:1031F000006818B941F27070FDF762FCBDE810403C
:103200000020D8E7184B10B51A68947E640704D5DF
:10321000D28A0468A2EB040202601A68947EA407B2
:1032200003D5128B0C68121B0A600268002A00DAB0
:10323000002202601C68E48AA24200DD224602608D
:103240000A68002A00DA00220A601C68248BA24265
:1032500000DD22460A601B689B7EDB0702D0036804
:103260000B60026010BD00002C091000941E1000BD
:10327000428C012064091000981F1000F60710000E
:1032800034050022F0B500252C4608E031F9146021
:1032900030F91470F61B964200DD6D1C641C9C42D4
:1032A000F4DB022D01D90120F0BD0020F0BD2DE995
:1032B000F04F9246DDE909B7012547F6F87256420C
:1032C0009946AC46002416E030F8143031F81480EA
:1032D000A8EB03031BB29A4200DD1A469E4200DAB5
:1032E0001E46002B02DA4FF0000502E001DD4FF030
:1032F000000C04F10104BC42E6DB55EA0C0306D0E5
:10330000012D01D02DB108E0BCF1010F05D1002243
:1033100003E0BCF1010F00D1324600252C462B46BC
:1033200011E000BF30F8136031F813C01644ACEB65
:10333000060636B24E4505DACBF1000C664501DDD6
:103340003544641C5B1CBB42ECDB95FBF4F10A4486
:10335000002105E030F8113013442AF81130491CDF
:10336000B942F7DB16E4F0B50646002004460546F0
:10337000521C059F0AE000BF36F911C09C4504DDD0
:10338000A44502DD64460D460120491C9142F3DB51
:103390003D60F0BD30B50268002513460AE000BF6D
:1033A00050F82540944201DD224602E09C4200DABA
:1033B00023466D1C8D42F3DBD01800EBD07040101B
:1033C00030BD70B54FF4D0745FF01A0332F813506B
:1033D00030F81360AD1B21F813505B1CA342F5DBE2
:1033E00070BD000010B501461022FB48FFF741FEFA
:1033F000BDE810404FF400610120FDF73FB870B503
:1034000098B006460D4614466846FFF75CFE14F079
:10341000050F4FF0010001D0ADF8000014F4F17F6A
:1034200030D0EE490B6893F85011C90706D193F8D4
:10343000041319B993F8B011C90723D093F80A17E8
:1034400014F0050F4FEAC171BDF8001041F00601FC
:10345000ADF8001010D1BDF8001003F2211341F0B7
:103460000101ADF8001059788DF8131019788DF816
:103470001A1099788DF81E10D9490978890601D556
:103480008DF83B00ADF83250ADF81660ADF8305015
:10349000AFF2AF00D04E03244FF4006501906846B0
:1034A000FEF76FF816AB002229460120FDF736F82B
:1034B00029460120FDF711F83078002804D0FFF7E5
:1034C00012F8641E002CEADC18B070BD10B504467A
:1034D000C00709D04FF4B861C2480BF058FB4FF455
:1034E000B851C1480BF053FB14F0420F07D02E2106
:1034F000BE480BF04CFB4021BD480BF048FBA0063A
:103500000AD5B821BB480BF042FBBDE810404FF490
:103510008071B9480BF03BBB10BD2DE9F041074667
:10352000AE48006890F82010490710D590F82100A7
:103530000125C0F3011085400024B04E05E0F1885C
:1035400070883A46FFF75BFF641CAC42F7DBBDE8CE
:10355000F0812DE9FF4F83B08046FFF799FB019082
:10356000FFF790FB009004216846FFF74DFA0446F0
:10357000042101A8FFF748FA44439848012640F681
:103580004851006890F8210000F00707BE409C48B1
:103590000BF01FFB0025DFF86892DFF860A2DFF870
:1035A00038B21CE0BAF8061042460498FFF727FF2D
:1035B00018F0050F12D09349DBF8040004F053FF14
:1035C000904A0020494607E051F8203032F910C0F7
:1035D000634441F82030401CA042F5DB6D1CB5422D
:1035E000E0DB18F0050F0CD00020494607E000BFD3
:1035F00051F82020059B3A4123F81020401CA0429E
:10360000F6DB07B0BDE8F08F2DE9F74F734C84B0BF
:1036100092462068B0F83B100391B0F83D1002913B
:1036200090F85011C90706D190F8041319B990F811
:10363000B001C0077CD0FFF7CAFA0090FFF7F2FA9A
:10364000019004216846FFF7DFF98146042101A8B3
:10365000FFF7DAF9484445002068A046264690F86E
:103660002100012400F00707BC40A90064480BF0CA
:10367000B0FA316891F8F002C20706D0800704D48E
:1036800091F8F102044404F01FFD0026C34630E027
:103690005A48DDE904214088FFF7B1FEDBF800104D
:1036A0004D4891F8C517D0F80880C90704D0C16803
:1036B0004246404604F0AAFDDBF8000090F8F00214
:1036C000C10708D0800706D44F49404604F00DFDDD
:1036D00070B1DFF834810020494907E051F820300B
:1036E00038F910201A4441F82020401CA842F5DB8C
:1036F000761CA642CCDB424C00215A461EE04048D4
:10370000166850F8210096F8F03240FA07F05FEAA8
:10371000C37C08D09B0706D596F8F1325B1C434367
:10372000B6F8F202181AB1EB490F02DA039B01E076
:103730001DE0029B184424F81100491CA942DEDB5D
:10374000106890F85011C90703D190F8B001C00774
:103750000DD0049810F0220F09D02046DAF800109E
:10376000FFF73BFA2046DAF80410FFF75CFA48E767
:103770002DE9F047194C91469A4600221D4ED4F887
:103780000040012339F8125030F81270ED1B2FB2AF
:1037900000250CE0C5EBC50C0CEB051C06EB4C0C36
:1037A0006D1C3CF812802DB2B8442CF8128094F8AD
:1037B00080C303EB9C1CAC45ECDC521C12B20F2AFC
:1037C000E0DB0D4D002000BF3AF8102031F810600A
:1037D000921B16B2002222E0B83710002C0910000C
:1037E0003C0910004E0001200E0601200E1D012094
:1037F0003C1D0120581E01203E1F0120981F100073
:103800004C111000428C01200292012005EB82171E
:10381000521C37F810C012B2B44427F810C094F804
:10382000807303EB97179742F0DC401C00B21A2814
:10383000CADBBDE8F0872DE9F041FF4DFF4E07469A
:1038400000242868002300EB4400B0F8EF10C4EB1C
:10385000C40000EB041006EB80123846FFF779FE37
:10386000641C042CEDDB72E62DE9FE4FF24D82461E
:1038700000F49070296891F88013490737D5002823
:1038800035D000242746DFF8B883DFF8B893012647
:1038900014E000BF00EB4400B0F8B213C4EBC40066
:1038A00000EB041208EB4200009009EB8410CDE914
:1038B00001076A465046FFF7A7FE641C286890F887
:1038C000801306EB9111A142E4DC90F85011C90776
:1038D0000DD090F89101000609D51E22D849DA488A
:1038E000FFF7C7FB3422D749D848FFF7C2FBBDE832
:1038F000FE8FFEB5014610F0820035D0CE4A01F4AD
:103900009076D34912680024012392F88053C98825
:1039100003EB951307E000BF02EB4407B7F8B2735F
:10392000B94202D0641CA342F6DCA3421DDD6B0742
:103930001BD5D6B192F85001C00703D192F8B0015F
:10394000C00711D0C4EBC400BD4900EB041001EB6B
:1039500040012E22BF48FFF78CFBBA48402200EB03
:103960008411BD48FFF785FBFEBD00220292B94AD3
:103970000092B94A01926A46FFF746FEFEBD2DE964
:10398000F04105460020FCF76AFE0320FCF767FEC5
:1039900015F040060AD02E22AE49B048FFF769FB69
:1039A000AE484022AC492E30FFF763FB2846FFF7B4
:1039B0008DFDAB490020401C8842FCD3A94801780A
:1039C000012904D1002101702846FFF7A6FD9A4C79
:1039D00005F00400216891F8D010490703D510B113
:1039E0002846FFF728FF216805F4907091F88013AE
:1039F000490703D510B12846FFF736FF15F0010738
:103A000006D093480023984A41883846FFF7A1FD25
:103A1000F80717D0206890F8200000070AD59248D0
:103A2000FFF7E1F991490123914A086001468E4868
:103A3000FFF715FA206890F84904C00702D028461D
:103A400002F004F915F0820F0AD02846FFF751FF63
:103A5000206890F84904800702D5284602F066F9EC
:103A60005EB1206890F88003400706D57B497A4B09
:103A7000784A2E317948FFF77BFE7E490120087095
:103A80007D49087005F054F90020FCF703FEBDE8FD
:103A9000F0410320FCF7FEBDF0B467490022674CFB
:103AA0000B68B3F8EF10814213D2B3F8F5108142DE
:103AB00001D803220DE0012103EB4105B5F8EF50D9
:103AC000A84201D10A4602E00FD2A1F101028A42C6
:103AD0000FD1C2EBC20000EB021004EB8011F0BC6E
:103AE0004FF4B8626048FFF7C4BA491C0429E3DB0D
:103AF000EFE703EB41035C4D33F8ED2F4FF43876DD
:103B00005B88801A00029A1A90FBF2F3C1EBC102A3
:103B100002EB0111002004EB811100BF01EB400218
:103B2000A2F5B86231F91040B2F90020A41A5C4342
:103B300002EB242225F81020401CB042EEDBF0BC42
:103B400070472DE9F0413C4900253D4A09683D4E4A
:103B5000B1F8B23383421AD291F880339C0901EB59
:103B60004407B7F8B27387420AD9012404EB9313D0
:103B700013E000BF01EB4407B7F8B273B84201D1BC
:103B8000254602E008D2A4F10105A5421ED191F814
:103B90005001C00708D103E0641CA342EADCF6E749
:103BA00091F8B001C00746D0C5EBC50000EB051089
:103BB00002EB40012E222748FFF75BFA06EB851146
:103BC000BDE8F04140222448FFF753BA01EB440519
:103BD000B5F8B033B5F8B253C01A0002EB1A90FB37
:103BE000F3F391F85001C00703D191F8B001C00779
:103BF00021D0C4EBC401174D01EB0411002002EBEE
:103C0000410100BF01EB400231F9107032F92E2C56
:103C1000BF1A5F4302EB272225F81020401C17280B
:103C2000F0DB0D4D002006EB841200BF02EB4001DB
:103C300031F9401C22E02CE02C0910000E06012076
:103C4000581E01203E1F0120101F01203E20012090
:103C5000981F10000E1D01203C1D01204837100048
:103C600020A10700340910004E0001206009100057
:103C7000F01E1000420910007109100032F91040C6
:103C8000641A5C4301EB242125F81010401C202805
:103C9000CCDB5CE470B53448012303703348017F0A
:103CA00041F0040101773249096891F81F214FF072
:103CB0000001D4070CD0C2F34202012A08D12D4AD8
:103CC0001160121F11602C4AC414C2F8FC41D46761
:103CD00080F86010482484761122C27680F8603023
:103CE00044258576C276254D2960FF215607318609
:103CF000042180F860108476C2762B6070BD1B486A
:103D000010B5017F41F0040101771949096891F864
:103D10001F214FF00001D3070BD0C2F34202012A4A
:103D200007D1154BC414FC331C60124B1A601B1FC7
:103D30001A604FF00052538E104C216080F86010D2
:103D4000482484761124C476108E4FF4FA42C01AA7
:103D500080B2B2FBF0F00A4A000910705520521EE2
:103D600010700148017010BD84091000001000207F
:103D70002C091000240A002284E000E0240500221F
:103D8000F307100010B501461022D648FFF771F96D
:103D90008021BDE810400120FCF770BB30B597B022
:103DA00004466846FFF78FF9012C07D10120ADF8D2
:103DB000000000208DF812008DF81000BDF8020000
:103DC000AFF23F0140F4A670C64D0191ADF802007C
:103DD00003246846FDF7D5FB16AB002280210120A5
:103DE000FCF79CFB80210120FCF777FB287800285A
:103DF00004D0FEF778FB641E002CEADC17B030BD5F
:103E00002DE9F04100240120FFF7C8FFB548B64A6C
:103E100043681A20102100FB01F51DE033F9101052
:103E2000002902DC44F0200415E040F6FF76B142A0
:103E300002DB44F010040EE01668B6F83471B6F8F0
:103E4000BE6107EB060C8C4505DABF1B8F4202DD15
:103E50000EB144F04004401C8542DFDC2046BDE842
:103E6000F08102461821012000FA01F3134201D12A
:103E7000491EF9D5491C8840104370472DE9FE4F73
:103E8000FEF700FF0446FEF703FF0746964800686A
:103E900090F84507000603D52046FFF7E2FF0446E9
:103EA0004FEA540B4FF4B86190480AF070FE8D4809
:103EB0004FF02709642110300AF08BFE002001909A
:103EC0000120FFF76BFF87481A25D0F804A00120D6
:103ED000002402905FE0012000FA04F111EA0B0FC8
:103EE00058D00026012000FA06F818EA070F46D03D
:103EF0007C48103050F8240010EA080F3ED13146BB
:103F00002046FEF7CEFE009077483AF9151000687B
:103F1000B0F83401814225DC744B33F91520121AB4
:103F2000A1EB000000D55242002800DA4042824254
:103F300009DC00983146401EC0B20246009020467F
:103F4000FEF7C7FE01E023F815106948009920F834
:103F500015106448103050F8241041EA080140F868
:103F600024100BE000983146401CC2B22046FEF7F8
:103F7000B0FE5E483AF8151020F815106D1C761C3E
:103F8000202EAFDB5748103050F82400B84201D043
:103F900000200290641C4C459DDB029830B9FDF76F
:103FA0008AFE0198401C0190402889DB1A264FF0B8
:103FB000010A00251DE0012000FA05F111EA0B0FAE
:103FC00016D000240120A04038420ED04848214697
:103FD00010F81600804602462846FEF77AFEB8F131
:103FE0003F0F01D34FF0000A761C641C202CE9DB44
:103FF0006D1C4D45DFDBBAF1000F02D10320FEF747
:1040000096FAFDF758FE0120FFF7C8FEBDE8FE4F07
:10401000F6E62DE9F05F344A116891F83001C407E3
:104020003448037803F0F00513D000261A24DFF893
:10403000B4A010210570B046914604FB01F78346F9
:104040000120FFF7ABFE2046DAF80410D9F8002073
:104050000FE091F83E1101F00F0129430170BDE816
:10406000F09F00BF31F91030B2F832C16345F6DB82
:10407000401C8742F6DC0F2E0AD2761CF6B245EAC7
:10408000060008F101088BF80000B8F1100FD7DB2B
:10409000BDE8F05F0220FEF74ABA10B501244FF4E4
:1040A000E16120050AF095FDFDF705FEFFF7B1FF80
:1040B000FFF7E4FE0C4A44EA00640E481268401D13
:1040C000017892F8FB2701F0F00102F00F02114392
:1040D00001700948FEF74BFE2046BDE8104005F090
:1040E00026B80000C83710002C091000FEA00120DF
:1040F000BEA60120F6071000941E100010B5014660
:104100001022FE48FEF7B5FF8021BDE810400120D7
:10411000FCF7B4B92DE9F04FF94A9BB0F94F07CA43
:104120008DE807003868BDF800104FF00008B0F8BF
:104130001157B0F80F972E4601EB090084B203A87F
:10414000FEF7C1FF4FF4FA60ADF860000220ADF851
:104150000C0000208DF844008DF84300BDF80E00DF
:10416000AFF2670140F453700491ADF80E00BB4606
:1041700041E02046FDF726F8DBF8000090F80A073A
:10418000000604D522460021FF2004F00EFFDFF8D0
:104190006CA3022703A8FDF7F4F919AB00228021D4
:1041A0000120FCF7BBF980210120FCF796F99AF871
:1041B0000000C0B14C4514D9B8F1040F09D23DF844
:1041C0001800A4EB000084B208F1010000F0FF0821
:1041D0000DE00CD1BDF80800A4EB000085B2344618
:1041E00005E02546FBE7A7F10107002FD2DC3DF8EB
:1041F0001800204484B2B442BBD3DBF800005C4614
:10420000B0F86E07FCF7DEFF2068B0F80F17A94280
:1042100002D140F6CE7008E0B0F81107A84201D1F3
:10422000B94802E0CE2040EA054004F080FF1BB010
:104230002846BDE8F08F2DE9F041B44C0020206005
:10424000FEF7C5FC6060FEF7EDFCA060606804212D
:1042500040086060201DFEF7D7FB2061042104F1B7
:104260000800FEF7D1FBE060FFF754FF054600EBC6
:1042700085004FEAC00140F26128A24FB1FBF8F679
:104280003868A34A00F20A70C178A6EB01011180D8
:104290004178A6EB01018CB202F102010C8080F89A
:1042A00066404FEA142180F86710007800060ED5AA
:1042B0002A460121FF2004F078FE32460221FF2029
:1042C00004F073FE22460321FF2004F06EFE05EB8E
:1042D00085004FEA4011B1FBF8F1386890F80C27DF
:1042E000A1EB02018AB28B490A8090F80A07000606
:1042F00005D5BDE8F0410421FF2004F056BEBDE81D
:10430000F0812DE9F04781497E4C00204E68D4F8B9
:10431000004005460346012240F6FF7902FA03F702
:1043200037421CD04F6937F91580B8F1000F02DC15
:1043300040F0200012E0C84502DB40F010000DE024
:10434000B4F836C1B4F84171E246BC44C44503DB5D
:10435000AAEB0707474501DD40F040006D1C5B1CE0
:10436000202BDBD30025D1F808702B4602FA03F688
:104370003E421BD08E6936F91560002E02DC40F0FB
:10438000200012E04E4502DB40F010000DE0B4F8D2
:104390003AC1B4F843A10CEB0A08B04503DBACEB1F
:1043A0000A0CB44501DD40F040006D1C5B1C202B65
:1043B000DCD3BDE8F08730B597B06846FEF783FEE2
:1043C0005048006890F80A07C1070620ADF80000C1
:1043D00000208DF838008DF837004C4841684900BE
:1043E0000A9180680B90BDF80200AFF2EF2140F413
:1043F000A670424D0191ADF8020002246846FDF717
:10440000C0F816AB002280210120FCF787F880213C
:104410000120FCF762F82878002804D0FEF763F842
:10442000641E002CEADC17B030BD2DE9F84F384887
:104430001E2180380AF0CDFB35482D2162380AF064
:10444000A6FBFDF704FDFDF7A3FC042003254FF0B8
:1044500000084FF001092D4CDFF8A8A0CDF80000AE
:10446000FFF7A9FFE8072BD04FF0000B5F465E4631
:10447000616809FA06F008421AD040F26C713046C1
:10448000FEF745FC616931F91720DAF80010B1F840
:1044900045118A420BDA3F2809D200994FF0010BEF
:1044A0000844C1B240F26C723046FEF745FC7F1CF6
:1044B000761C202EDCD3BBF1000F01D125F00105C5
:1044C000A8073AD54FF0000B5F465E46A16809FA8F
:1044D00006F0084229D040F28A713046FEF717FCF8
:1044E000A16931F91720DAF80010B1F847118A42B2
:1044F0001ADA3F2818D24FF0010B0DE03C381000BB
:1045000038EF00002C091000CE0F010088091000C0
:10451000EC071000F0071000009940F28A7208447E
:10452000C1B23046FEF708FC7F1C761C202ECDD38E
:10453000BBF1000F01D125F0020545B1FDF787FC65
:10454000FDF726FC08F10108B8F1640F88DB0325AC
:104550004FF00008FFF72FFFE80729D04FF0000BBE
:104560005F465E46616809FA06F0084218D040F2DC
:104570006C713046FEF7CBFB616931F91720DAF830
:104580000010B1F845118A4209DD40B1401EC1B2A8
:104590004FF0010B40F26C723046FEF7CDFB7F1CF2
:1045A000761C202EDED3BBF1000F01D125F00105D2
:1045B000A80729D54FF0000B5F465E46A16809FAAF
:1045C00006F0084218D040F28A713046FEF79FFB91
:1045D000A16931F91720DAF80010B1F847118A42C1
:1045E00009DD40B1401EC1B24FF0010B40F28A72AA
:1045F0003046FEF7A1FB7F1C761C202EDED3BBF1DC
:10460000000F01D125F00205002D08D0FDF71FFC99
:10461000FDF7BEFB08F10108B8F1640F9ADBBDE8B5
:10462000F88F2DE9F041FF4D00201E212870FD4834
:1046300089380AF0CEFAFB482D216B380AF0A7FA28
:10464000FDF7A6FBFDF703FC0027F74EFFF7B3FECF
:10465000D6E904320024204606E000BF32F91010EB
:10466000A14200DD0C46401C9842F7DB0020F368B5
:10467000B26905E032F91010A14200DD0C46401C81
:104680009842F7DB002C09DC28780F2803D8401C5F
:104690002870FDF7DCFB7F1C202FD7DB40F6FE7077
:1046A000844206DD2878401E2870BDE8F041FDF701
:1046B000CEBB24E62DE9F05FDB4C0020D94F6668C5
:1046C000ED3F01460346012202FA03F5354203D0CD
:1046D000FD5C854200D928465B1C202BF4D3D14ECB
:1046E000D4F80870C53E002302FA03F53D4203D01A
:1046F000F55C8D4200D929465B1C202BF4D3DFF8F2
:104700002483CA4D08F1040808F1010988F8000063
:1047100089F800102A68A8F1020AA8F1010B92F8A2
:104720000A37DE077AD09B0778D502F259721479DE
:10473000D37804F03F0403EB04249579537905F012
:104740003F0503EB0525167BD37A06F03F0603EB06
:104750000626977B537B127807F03F0703EB07276A
:1047600052060BD5631900EB43009AF80020F319A9
:1047700010449BF8002001EB43010CE06219520049
:1047800002EB40029AF800001044F219520002EBCA
:1047900041029BF800101144FEF74DF9A149491F51
:1047A0000A88824200D20880A048006890F80A2750
:1047B000520730D590F85907400615D560004042A1
:1047C0006A4200EB420208789AF800100244511A3B
:1047D00088F80010710049427A4201EB420101441D
:1047E0009BF80000081A36E09AF80000621910449D
:1047F0004242088800EB4201C1F3470288F80020DA
:104800009BF80010F2191144494200EB4100C0F33B
:10481000470189F80010BDE8F09FFFE7824D9AF844
:1048200000209BF800302D6802440B44FF2645F021
:1048300080059A4209D2991A0844FF2802D888F8BC
:104840000000E8E788F800600AE09342E3D2D01A5B
:104850000844FF2802D889F80000DCE789F80060E6
:104860002560D8E72DE9F0416E4C0020ED3C6E4B01
:104870006E4A01214FEA00055F6801FA00F63E42E8
:1048800009D01768265C97F84A71BE4202D9F61B18
:10489000265400E02554401C2028EDD3614CC53C33
:1048A0005FF000009F6801FA00F63E4209D01768E9
:1048B000265C97F84A71BE4202D9F61B265400E0E6
:1048C0002554401C2028EDD3FFF7F4FEBDE8F0414D
:1048D000FDF798BA2DE9F84F5248524DED3806468B
:1048E000C53D28210AF075F93C2128460AF071F9E6
:1048F000FFF7E0FEFDF7ABFAFDF784FA042003248E
:1049000000274FF00109DFF820A1DFF820B1009067
:10491000FFF751FDE00728D04FF0000C62466046DB
:104920004FEA0A0309FA00F1D3F8048011EA080FEC
:1049300013D0596931F91280DBF80010B1F8381141
:10494000884509DA315CDDF800804FF0010C414404
:10495000FF2900DDFF213154521C401C2028E1D3E7
:10496000BCF1000F01D124F00104A00727D54FF0BE
:10497000000C62466046534609FA00F1D3F80880FD
:1049800011EA080F13D0996931F91280DBF8001091
:10499000B1F83C11884509DA295CDDF800804FF058
:1049A000010C4144FF2900DDFF212954521C401C09
:1049B0002028E1D3BCF1000F01D124F0020444B15E
:1049C000FFF778FEFDF743FAFDF71CFA7F1C642F12
:1049D0009EDB03245FF00007FFF7EDFCE0072CD01F
:1049E0004FF0000E714670465246DC46D2F8048005
:1049F00009FA00F313EA080F0FD05369DCF80080BE
:104A000033F91130B8F83881434505DD335C1BB10B
:104A10005B1E4FF0010E3354491C401C2028E5D387
:104A200006E00000F5071000880910002C091000AE
:104A3000BEF1000F01D124F00104A00725D54FF0ED
:104A4000000E7146704652464FEA0B0CD2F80880B1
:104A500009FA00F313EA080F0FD09369DCF800801D
:104A600033F91130B8F83C81434505DD2B5C1BB1AF
:104A70005B1E4FF0010E2B54491C401C2028E5D32F
:104A8000BEF1000F01D124F00204002C08D0FFF782
:104A900011FEFDF7DCF9FDF7B5F97F1C642F9BDBF8
:104AA000BDE59B4930B409680020034691F83021E8
:104AB00092070BD5974A91F8494101201578A542F4
:104AC00003D9A5EB0404147000E0137091F83021B1
:104AD00052070CD58F4A91F84911521C40F0020040
:104AE00014788C4202D9611A117000E0137000280A
:104AF00001D030BCDEE530BC70472DE9F047844979
:104B00000024844D0868274690F83021920702D58A
:104B100001242F7002E090F83F212A70894690F816
:104B200030117D4E490703D544F00204377002E08E
:104B300090F840013070002C76D076482821EF386C
:104B40000AF047F873483C21C7380AF042F8714828
:104B50001E21801E07706F488B380AF03AF86D48A6
:104B60002D216D380AF013F86B49FF20891C08705D
:104B7000491E0870FDF746F9FDF70AF9FDF767F9D8
:104B8000DFF898814FF0100A002700BFFFF713FCF1
:104B9000E00723D0D8E9043C0020014606E000BF2E
:104BA0003CF91120824200DD1046491C9942F7DB96
:104BB000D9F80010B1F83621824202DA2878401E76
:104BC00008E0B1F84B11814206DB28785044FF28F9
:104BD00000DDFF20287001E024F00104A00726D5A5
:104BE00000200146D8F80CC0D8F8183006E000BF05
:104BF00033F91120824200DD1046491C6145F7DB84
:104C0000D9F80010B1F83A21824202DA3078401E19
:104C100008E0B1F84B11814207DB30785044FF289F
:104C200000DDFF20307002E00AE024F00204002CD6
:104C300006D0FFF73FFDFDF70AF97F1C202FA5DB0B
:104C4000BDE8F08770B5354C00202060FDF7BFFF50
:104C50006060FDF7E7FFA0606068042140086060C5
:104C6000201DFDF7D1FE2061042104F10800FDF7AD
:104C7000CBFEE060FFF79FFB294E2169B06800EB97
:104C800041026261E26802EB410100EB4100A06178
:104C9000FFF733FFFFF705FF1D4D286890F830013F
:104CA000800603D5FFF716FEFFF7DCFD286890F8B5
:104CB0003001000701D5FFF7B4FC286890F83001F7
:104CC000C00601D5FFF7B1FBFDF7C1F8FFF773FB95
:104CD000B068216900EB41026261E26802EB4101C8
:104CE00000EB4100A061FFF70CFB216801430A487B
:104CF00021602A68C01C037892F8FB2763F3030243
:104D00000270BDE8704041F0020004F010BA0000EB
:104D10002C091000F7071000F80710008809100090
:104D20003C38100010B5014610227D48FEF7A1F96D
:104D30008021BDE810400120FBF7A0BBF0B5794D04
:104D400006460C4628684FF0FF3197B090F8B10046
:104D500000F00F00401C8140CF436846FEF7B3F9D6
:104D60000120ADF80000ADF80240286810F8F91FE6
:104D70008DF8131044F00501ADF802100297ADF85C
:104D80001660AFF25F01019141788DF814108078C0
:104D9000634D8DF81A0003246846FCF7F2FB16AB4E
:104DA000002280210120FBF7B9FB80210120FBF7C5
:104DB00094FB2878002804D0FDF795FB641E002C96
:104DC000EADC17B0F0BD2DE9FF5F4FF6FF764FF03C
:104DD000000A93460F46804634465546DFF8449114
:104DE0001CE000BF38F815005146FFF7A7FF4C48FC
:104DF000406807F0D1F9D9F8001091F8F82012F0C6
:104E00000F0100D1012112094243B2FBF1F080B23F
:104E1000A04202D238F8156004466D1CBD42E1DBA9
:104E2000ABF8006003980480BDE8FF9F2DE9F041D6
:104E30003C4E05468846306888B090F8D12002F094
:104E40000F01C2F30214491C641C0A2900DD0A2167
:104E5000022C00DD0224D23006AB05AAFFF7B3FF17
:104E6000326892F8D00080071BD5BDF8146001218C
:104E7000E632ADF8006000204FF4803C6F4607E05A
:104E800013563344634502D227F81130491C401CA5
:104E9000A042F5DB002904DD06AB05AA3846FFF782
:104EA00092FFBDF814002880BDF81810A8F8001073
:104EB00008B0BDE8F0817CB50020FBF7D0FB1A4CB0
:104EC00001A968466588FFF7B1FF164E3068B0F853
:104ED000E810BDF80400814201D9218000E0208063
:104EE000BDF8000060800020FBF7D4FBBDF8000097
:104EF000854207D0306890F8D000400702D560881E
:104F0000FEF7CAFD094901200870094908700949DE
:104F10000870BDF800202946092004F032F97CBD54
:104F20004C3810002C091000981F10004209100086
:104F3000710910007E091000E148E24A0068B0F8EB
:104F4000AC139180E04990F8B103488070472DE997
:104F5000F0470178DC4C01B1217001461022DB489A
:104F6000FEF787F8D64B186890F8C507C107D748F1
:104F700001D0C26800E082686068D549C0EB0015C6
:104F80004FF000001F6897F8F0625FEAC67C08D017
:104F9000B60706D597F8F17232F810607F1C7E4391
:104FA00001E032F810602F18401C21F817600F281C
:104FB000E8DB60684FF00F0500F10100C0EB001660
:104FC00060604FF0000000BFD3F800C09CF8F072A2
:104FD0005FEAC7780ED0BF070CD52F189CF8F1C236
:104FE00032F817700CF1010C07FB0CF706EB000C04
:104FF00021F81C702F1806EB000C32F81770401CBB
:1050000021F81C700F28DFDB61684FF0010501F10A
:1050100001016160186890F8B12005EB121490F856
:10502000F022D60705D0960703D490F8F1623444F5
:10503000E4B2A1421DDA90F80A27D20713D090F803
:10504000BA0389B200F00F00B1FBF0F200FB1211BD
:105050009E4858380029418802D041F0020101E001
:1050600021F002014180BDE8F04798485838FCF72C
:1050700088BAD1072BD0910729D4B0F8F272002456
:10508000A9461DE09248C4EB041100EB4101002049
:105090001D68012231F9106095F8F1526D1C06E08F
:1050A000C2EB021C8444521C31F91CC06644954278
:1050B000F6DCF21B21F81020401C0F28E8DB641CF2
:1050C000186890F8B11009EB1110A042DADCBDE8C5
:1050D000F04780210120FBF7D1B92DE9FF4FDFF820
:1050E000ECB14FF6FF74002581B08A46A046ABF1C3
:1050F000580BA946744E5DE074485838FDF7E3FF3D
:105100006F4A116891F8C507C00701D0102300E06D
:105110000223ABF80030019830F81530ABF830308E
:10512000BBF8023043F00403ABF80230AFF2E113F6
:1051300001F2C931CBF804300A788BF83620CA78EE
:105140008BF838204A788BF83C2089788BF83D1012
:105150000327C6F8049000BF5C4886F800905838D2
:10516000FCF70FFA6B46002280210120FBF7D6F9ED
:1051700080210120FBF7B1F9307820B1FDF7B3F9B8
:105180007F1E002FE8DC524802F0D8FB4C4909682A
:1051900091F8C82312F00F0100D1012112094243F6
:1051A00090B2B0FBF1F0A04203D20199044631F86D
:1051B00015806D1C55459FDB0399A1F8008004986C
:1051C000048005B0BDE8F08F2DE9F0413C4D064666
:1051D000884628688CB000F2823C00F2963790F83E
:1051E000810300F00F01C0F30214491C641C0A295A
:1051F00000DD0A21022C00DD02240AAB09AA604668
:10520000FFF76BFF286890F8800380071AD5BDF878
:1052100024300121ADF8003000204FF4803C6D4671
:1052200007E03A561A44624502D225F81120491C7B
:10523000401CA042F5DB012904DD0AAB09AA28467F
:10524000FFF74BFFBDF824003080BDF82810A8F808
:1052500000100CB0BDE8F0817CB50020FBF7FFF931
:10526000184C01A96846E588FFF7AEFF14480168AD
:10527000BDF80400B1F8AC23824201D9A28000E05D
:10528000A080BDF80000E0802081854205D091F823
:105290008013490701D5FEF754FC0E490120087020
:1052A0000D4908700D49002008600D490870FBF792
:1052B000F1F9BDF8002029460A2003F062FF7CBD09
:1052C0002C091000981F1000A4091000B438100019
:1052D000BA9301204209100071091000A40A1000BD
:1052E0009F0A10002DE9F041174604460D4600269E
:1052F00009E0E00703D03146384603F076FE761C1D
:105300006D084FEA340454EA0500F2D1BDE8F0819B
:1053100030B5034600204FF0FF32012505FA00F4B6
:105320000C4202D0521C9A4203D0401C2028F5D3D4
:10533000002030BDF0B50E460125074605FA06F2FD
:10534000FE4C0F2FD4E9151065D2DFE807F0644357
:105350004B08106464192129323A54585C003046D5
:10536000FFF7D6FF8540A06A0543A56253E00146DA
:105370003046FFF7CDFF8540206C054325644AE0A9
:105380003046FFF7C5FF8540E06A0543E56242E02D
:105390003046FFF7BDFF8540206B054325633AE0AB
:1053A00001463046FFF7B4FF8540A06C0543A56475
:1053B00031E03046FFF7ACFF8540606B0543656325
:1053C00029E001463046FFF7A3FF8540E06C054326
:1053D000E56420E03046FFF79BFF8540606A0543A7
:1053E000656218E001463046FFF792FF8540E06BAA
:1053F0000543E5630FE0A06B0243A2630BE0206D61
:105400000243226507E001463046FFF781FF8540F1
:10541000606C054365642068401C2060F0BD10B5D9
:1054200001461022C648FDF724FE8021BDE8104049
:105430000120FBF723B8FDF7BDBB10B5FDF7ACFBB2
:105440004008400010BD2DE9F047894605464FF061
:10545000FF34FDF7AFFBB94F00231946D7F80460BE
:105460004FF0010C0CFA01F2024200D0641CAC4275
:1054700006D1B9F1010F0AD020EA02030E4620211D
:10548000491C2029EED318467E60BDE8F0871346FC
:10549000F4E72DE9F047894605464FF0FF34FFF762
:1054A000CCFFA64F024600207B6801464FF0010C5E
:1054B0000CFA01F6164200D0641CAC4206D1B9F1D8
:1054C000010F08D022EA06000B461E21491C1E29A6
:1054D000EED97B60D9E73046F6E7F0B59BB00446DD
:1054E0000F466846FDF7EFFD16A8FCF7DEFEFFF756
:1054F000A4FF924E40087065FDF75CFB914DB065CE
:10550000012C0BD00626022C26D0032C2AD0042CEA
:105510002DD0052C34D0062C52D068E0FDF7B2FB1C
:105520000290FDF7B5FB03900120ADF800000C20C0
:10553000ADF816001F208DF8140040208DF81300E0
:1055400095208DF81A003C20ADF81800029840080C
:1055500070650398B0654AE0FFF76FFF0A90FDF7AA
:1055600029FB14E0FDF726FB01210B9003E0FDF77A
:1055700021FB00210B903846FFF78BFF0A9007E0D4
:10558000FFF75BFF0A9001213846FFF75CFF0B90A5
:10559000ADF80060286800F55A7081788DF83610F3
:1055A000C1788DF83C1001788DF83D1041788DF868
:1055B0003E108188ADF830100089ADF8320016E059
:1055C000FFF73BFF0A90FDF7F5FA0B90ADF800608E
:1055D000286800F2613081788DF83610C1788DF836
:1055E0003C1001788DF83D1040788DF83E00002089
:1055F000BDF802108DF8380021F030018DF8100050
:1056000041F04A018DF837008DF81200ADF8021014
:10561000AFF2F51103260191012C12D0092C23D0F1
:105620000A2C21D08DF862008DF864008DF863009B
:10563000022C10D0032C0ED0042C0CD0052C0AD038
:1056400012E0296891F84D178DF85C0041F00301D4
:105650008DF85810E6E72868B0F86E13ADF85E10C4
:10566000B0F87203ADF8600016A8FCF740FE344CA9
:105670006846FBF786FF1AAB002280210120FAF76B
:105680004DFF80210120FAF728FF2078002804D060
:10569000FCF729FF761E002EEADC1BB0F0BD2DE9D9
:1056A000FC5F00210120FFF718FF25484768FDF740
:1056B000E9FA0190FDF7ECFA0090042101A8FDF74A
:1056C000A3F9064604216846FDF79EF984460020AA
:1056D0000546DFF868B0DFF86CA000905BE000BF23
:1056E0004FF00008C1465C462846DBF85810FFF72B
:1056F0000FFE014601208840A16C08424AD10124D6
:1057000039E000BF04FB0C51DAF8000037F9112032
:1057100090F86703B2EB001F2CDA08F10108B9F129
:10572000000F00D1A146721E944223D1B8F1010F9F
:1057300020D1ACF1010295420BD105E0AC0910007B
:10574000C43810002C091000611E0120FFF7F2FD83
:105750000EE007EB4101B1F90220B2EB001F05DBBF
:1057600035B131F9021CB1EB001F01DA002000E075
:1057700002208046641CB442C4DBA6EB090141450B
:1057800008D829460220FFF7D5FD01200099A8403E
:10579000084300906D1C6545A2DB01253BE000BF7E
:1057A0004FF0000844462CE0DBF84030DBF848209E
:1057B00000201A4311D0D9462046DBF85810FFF7D5
:1057C000A7FD014601208840D9F84810084203D1BE
:1057D000D9F84010084000D0012005FB0C4137F9F2
:1057E0001120DAF8001091F86713B2EB011F07DA05
:1057F00030B901200099A040084201D108F1010808
:10580000641C6445D0DBB8F1000F03D0691E012091
:10581000FFF790FD6D1CB542C2DBBDE8FC9F2DE992
:10582000F041E04C00200546DF4FDFF88083A061A7
:105830001EE029460520FFF750FE21690120BE68C1
:1058400000EB410C36F91C10D8F8000090F87703F3
:10585000B1EB001F03D929460E20FFF76BFD36F987
:105860001C00A169884202DD36F91C00A0616D1C94
:1058700060698542DDD349E52DE9F041002106202C
:10588000FFF72BFEC8480025C84EC64C87680EE0BF
:10589000E0683168284437F9100091F86513B0EBDF
:1058A000011F03DD29460A20FFF744FD6D1C206916
:1058B0008542EDDB00250EE0A0683168284437F909
:1058C000100091F86613B0EB011F03DD29460B2091
:1058D000FFF730FD6D1C60698542EDDB16E52DE9B3
:1058E000F041B04C00200646206237E031460420EB
:1058F000FFF7F3FDAC48002587682BE0FDF75AF968
:1059000001462846FFF704FD014601208840216C2E
:1059100008421ED1A549A0682844096807EB400049
:1059200030F9040C91F87813B0EB011F07D9314618
:105930000820FFF7FFFC29460920FFF7FBFCA068C1
:10594000216A284407EB400030F9040C884200DD4E
:1059500020626D1C60698542D0D3761C2069864226
:10596000C4D3D3E42DE9F0418E4C002005468E4F80
:10597000DFF83882E0611AE029460320FFF7ADFD29
:10598000BE68B6F90210D8F8000090F87603B1EBC3
:10599000001F03D929460720FFF7CCFCB6F9020007
:1059A000E169884202DDB6F90200E0616D1C206900
:1059B0008542E1D3AAE42DE9F04100210220FFF75E
:1059C0008CFD7948794D774C8768286890F860039A
:1059D000000713D500260EE0E0682968304437F947
:1059E000100091F87413B0EB011F03D93146032066
:1059F000FFF7A0FC761C20698642EDDB286890F852
:105A00006003C00613D500260EE0A0682968304464
:105A100037F9100091F87513B0EB011F03D9314627
:105A20000420FFF787FC761C60698642EDDB6DE49D
:105A30002DE9FC410020FAF712FE4FF480104112CC
:105A400009F0A5F8FCF703FAFCF7DCF9FCF733F9E9
:105A5000544C00202060FFF7F0FC0090FDF7AAF8FE
:105A6000019004216846FCF7CFFF0546042101A8F8
:105A7000FCF7CAFF014600EB4500C4E90205C4E992
:105A800004514A4D286890F86003010701D4C0060C
:105A900001D5FFF790FF286890F86003800601D5D4
:105AA000FFF760FF286890F86003000601D5FFF754
:105AB00016FF286890F86003C00701D0FFF7DCFEEE
:105AC000286890F86003400601D5FFF7A8FE286813
:105AD00090F86003800701D5FFF7E1FD20680028FA
:105AE0005BD0D4E90A359D43E562606AD4E90F17BB
:105AF0009843A8436062666CB943B143E163A16B0C
:105B0000226D9943A943256BBA43A943A163A16CB4
:105B1000B2438A43AB43A362226501220021FFF70F
:105B2000E1FB02220021E06BFFF7DCFB03220021F6
:105B3000A06AFFF7D7FB04220021206CFFF7D2FBFD
:105B400007220021E06AFFF7CDFB08220021206B2D
:105B5000FFF7C8FB09220021A06CFFF7C3FB0A2254
:105B60000021606BFFF7BEFB0B220021E06CFFF70A
:105B7000B9FB0C220021A06BFFF7B4FB0D22002122
:105B8000206DFFF7AFFB0E220021606CFFF7AAFB30
:105B90000020FAF77FFDBDE8FC810021084603F0F4
:105BA00024FAF5E7AC091000C43810002C091000E5
:105BB0002DE9F04778480023784E04684FF4C37C01
:105BC0001D46B4F84C74B4F84A941946184640F689
:105BD000FF7A00BF36F91020BA4201DD5B1C02E0FB
:105BE0004A4500DA6D1C524500D00AB9491C89B2F9
:105BF000401C6045EEDB94F8640488420AD3AB4253
:105C00000ADD94F84904400704D5FDF7EEF9C0B267
:105C1000BDE8F0870120FBE70020F9E710B5FFF7AA
:105C2000C7FF044601280FD15D48016841F0050116
:105C300001605C48016841F0200101605A4901207F
:105C400008708102FAF71AFC204610BD2DE9F041D8
:105C50008046544800252E460078800623D500242F
:105C6000524F0AE0012808D1FEF717FA012579887A
:105C700000234F4A4046FDF76CFCFFF799FF48B1FF
:105C8000641C032CEEDB012E04D0BDE8F0410020A3
:105C9000FCF74DBCC12003F04AFA012D03D1BDE849
:105CA000F04108F015BEBDE8F081F0B53A48DFF8E4
:105CB00004C140F6FF75026800200146B2F8527434
:105CC000B2F84E64044600BF3CF91430AB4200D039
:105CD0000BB9491C89B2BB4201DBB34203DDB342BD
:105CE00001DD012002E0641C0F2CEDD3B2F85464F6
:105CF000314F002337F91340AC4200D00CB9491C96
:105D000089B2B44203DBB2F850C4644501DD01201E
:105D10001A235B1C1A2BEDD392F85E248A4201D21F
:105D20000120F0BD0128FCD00020F0BD2DE9F0419C
:105D3000804622480026374600788006B3D50025E5
:105D400004E0012C02D14046FDF7D3FDFFF7ADFF83
:105D50000446012806D1FEF775FF01266D1C032DB0
:105D6000EFDB17B1012E0ED00FE00120FCF7DFFBB7
:105D70003C21134808F00BFFBDE8F04110486821B2
:105D80003C3008F004BF08F0A3FDBDE8F041C2209C
:105D900003F0CDB987E700002C091000768C0120B4
:105DA000300910003809100034091000981F100045
:105DB0004E000120DE9201203A9301203C091000A0
:105DC0007A99012008B55D4D5D4E5E4F002428781C
:105DD00080B10128FBD16B46002242F27D71FAF7B7
:105DE0009DFB0098C1071ED001210846FAF775FBFC
:105DF0002C70ECE701210020FCF74BFF6B460022E2
:105E000002210120FAF78AFB01210846FCF741FF35
:105E100000988007DBD542F27F710120FAF75DFB25
:105E200001202870D3E701070CD508210120FAF7DB
:105E300054FB0020FAF713FC0620FAF710FCFEF7DB
:105E40002CF915E041071AD504210120FAF745FB8A
:105E50000020FAF704FC0620FAF701FC3A48006833
:105E600090F80A07C00701D0FEF7E5F9FEF7EAFE51
:105E70000620FAF70FFC0020FAF70CFCA7E7C10692
:105E800006D510210120FAF728FBFFF714F89EE74A
:105E9000810606D520210120FAF71FFBFFF7DCF968
:105EA00095E7C10502D54FF4807103E0810505D562
:105EB0004FF400710120FAF710FB88E7410606D580
:105EC00040210120FAF709FBFFF7B2FD7FE741050A
:105ED0002AD54FF480610120FAF7FFFA1B480460CD
:105EE0001B48D0F8008004604046FDF748FD5FEA9B
:105EF000887001D500F075FBA8F54071B73901D164
:105F000005200CE05FEAC87003D0306840F015004F
:105F100005E018F0420F04D0386840F0060003F0A6
:105F200006F934603C6052E78004A7D54FF4005175
:105F30000120FAF7D2FAFDF7ADFE48E7080A100093
:105F4000380910003C0910002C091000AC0A1000A0
:105F500030091000F7490020FB4A0870F649087024
:105F6000F6490870F6490870F64908700121117069
:105F7000F64A1170F6490861486188800870C86166
:105F80004870FF20C880F3480068B0F852218A8129
:105F9000B0F85401488100F01FBF30B500242346FB
:105FA00006E000BF30F913508D4200DD641C5B1C1D
:105FB0009342F7DBE748006890F86101A04201D204
:105FC000012030BD002030BDF0B50646002004465B
:105FD000059F0CE036F91450D3F800C0AC4501DA47
:105FE0001D603C7010B9954200DD0120641C8C429C
:105FF000F0DBF0BD30B585B0D64D01A80090286823
:10600000002403ABB0F952211A21D348FFF7DCFF7B
:1060100070B128689DF8041090F88A0100F00F0212
:106020008A4203D8C2F11A028A421AD2040918E03D
:1060300002A80090286804AB0F21B0F95421C7488A
:10604000FFF7C2FF68B1286890F88A219DF8080020
:1060500002F00F01814203D8C1F10F01814200D249
:10606000140905B0204630BDFEB5BA4801AB502238
:10607000006800F285100179B0F90270B0F90050A3
:1060800002A801F00F060C0900901A21B248FFF790
:106090009BFF0198B84201DD3046FEBDA84201DAFF
:1060A0002046FEBD401B311B4843791B90FBF1F09D
:1060B0002044FEBD30B5AA48A64D0478286890F863
:1060C0005101800703D5FFF7CFFFA4EB0004286838
:1060D00090F85101400702D5FFF78CFF0444002CD3
:1060E00001DA002402E00F2C00DD0F24204630BD31
:1060F00030B564290CD00023642407E030F9135034
:106100004D4395FBF4F520F813505B1C9342F5DBEF
:1061100030BD70B5002364250AE0CC5C642C06D049
:1061200030F91360664396FBF5F420F813405B1CCE
:106130009342F2DB70BD2DE9F047002589462946E0
:106140002F462E46A8462B460DE000BF30F913C05F
:1061500039F913400CFB0C660CFB047704FB048834
:10616000654421445B1C9342F0DB87FB020485FB02
:10617000013CC71A86FB020385FB056564EB0C0432
:10618000B0EB060C63EB050688FB020381FB0121E3
:10619000851A63EB01086421A7FB010304FB0131AD
:1061A000002207FB02113346624608F07FFC0246DC
:1061B000A2FB070301FB073102FB04112A464346F9
:1061C00008F074FC002C00DA4042BDE8F08730B5DE
:1061D00047F6F873002405E030F91450AB4200DDB7
:1061E0002B46641C9442F7DB002405E030F8145081
:1061F000ED1A21F81450641C9442F7DB30BD70B5E1
:1062000003460020024601EBD17408E003EB42068E
:1062100033F91250B6F90260AD1B2844521CB2EBA0
:10622000640FF3DB621008E003EB420533F9124020
:1062300035F9025C641B2044521C8A42F4DB70BDB9
:10624000F0B586B007461E468C4603A8154600905A
:10625000002404AB32B21A216046FFF7B5FE0128D4
:106260003BD102A8009005AB2AB20F213846FFF7B8
:10627000ABFE012831D1DDE9041081424FF0640208
:1062800003DD504390FBF1F102E0514391FBF0F14B
:106290003048006890F892218A421EDD9DF808106F
:1062A00011B10E2905D008E090F89111C90713D05B
:1062B00003E090F8911189070ED59DF80C1011B1EB
:1062C000192904D009E090F89101400702E090F804
:1062D00091010007002800DB012406B02046F0BD34
:1062E000F0B585B006460120019002901F468C460D
:1062F00004A815460090002401AB3AB21A2160466A
:10630000FFF762FE074603A8009002AB2AB20F21F6
:106310003046FFF759FE012F01D001282CD1DDE9CD
:10632000011081424FF064021CDD504390FBF1F0FC
:106330001BE000004E0910006F09100070091000EA
:106340004F09100050091000710910007309100066
:106350000C0A10002C091000D6220120A8220120CE
:1063600074091000514391FBF0F0FE49096891F85F
:106370009211814200DD012405B02046F0BDF0B449
:106380000446F8480B46802100680D4690F86801E5
:1063900010B10146C0F58075F3480089032805D285
:1063A0002146F0BC52001846FCF763BE00200EE008
:1063B00033F9106034F910704E4307FB0566F71788
:1063C00006EB176646F30F2623F81060401C904238
:1063D000EEDBF0BC7047F0B50024E24D0FE030F882
:1063E000146031F81470012B0CD0F61B2F6897F84D
:1063F0006D717F4206EBC70620F81460641C94425E
:10640000EDDBF0BD3E442F6897F86D71F2E72DE9A2
:10641000FC41D54C80460026208990B92E22D349D4
:10642000D348FCF726FE4022D249D348FCF721FE90
:106430002E21D24808F0ABFBD04840212E3008F086
:10644000A6FB20890127C74D032802D2CC4807703C
:1064500012E011D92968B1F86B1181420CD90F23D0
:10646000C34AC649C14801F02CFDC4491A23C24A97
:106470002E31C04801F025FD28684FF00F0290F83A
:10648000501109070FD590F88D11CDE9001290F841
:106490008B31BC4AB5494046FCF709FFB7490F228A
:1064A000EE39B84802E0B5494046EE39FFF767FFDC
:1064B0002868AE4AB44990F850014FF00F03000726
:1064C00001D5B04800E0404601F0FBFCAB480F238B
:1064D000A64AAD49EE3801F0F4FC286890F8501156
:1064E000C90610D590F896120F22A748FFF700FEB4
:1064F000296891F85001C00605D50F2201F51C71DD
:10650000A148FFF706FE2868B0F85411B0F86931C9
:10651000B0F87F0119440AB22189884201D2981843
:1065200002B20020994DDFF860C203463CF91080AA
:10653000904514DD761C022E12D9A078401C40B282
:10654000A070002803DD92482F70A370077047F6F3
:10655000FF70814201D2491C2181BDE8FC810026E7
:10656000401C00B20F28E1DBA3702B70EFE703465D
:1065700010B50020024603E033F91240521C2044BB
:106580008A42F9DB10BD70B50E4600250F21FFF7DA
:10659000EEFF04461A213046FFF7E9FF0146002CC2
:1065A00000DA64426F48002302686F48D2F89C62A8
:1065B000B44206D8002900DA4942B14201D8036248
:1065C0000DE0016A491C016292F89B228A4206DCB6
:1065D000704901250A6842F400520A6003622846A5
:1065E00070BD6048006890F8901189060DD55E492D
:1065F00001220A704A78012A90F895214FEA121276
:1066000002D14FF47A735A43CA6190F8F002C0077E
:1066100001D001F059BD70471CB5534900200989CC
:1066200001B901201021CDE900100F231A465A4963
:106630005A4801F0F0FB4B480F2357490068B0F966
:10664000AE215648FCF71EFE012800D000201CBDDC
:106650002DE9F34F002085B0814607468046029021
:106660004F4C401E0390207800250126DFF820B112
:1066700001281CD0DFF8ECA0DAF8000090F8201018
:10668000C9061AD590F8251046480288914214D2BE
:1066900005804548016841F022010160B1020120F6
:1066A000F9F7ECFE8BF8006007B0BDE8F08F8BF8CF
:1066B000006000F091FB2570F6E70320F9F7CFFFAB
:1066C0003A48294C007801284BD02089012812D95A
:1066D00001230F2229492548FFF77DFE2749012381
:1066E0001A222E312348FFF776FEDAF800003049EF
:1066F00090F8FD02087000202081FFF7DBFC244D9C
:1067000001901E49287800900F22EE39019B0598D0
:1067100001F05EFB2878194900901A22C039019BCC
:10672000069801F055FB234D28780A287DD00F28C4
:1067300002D200F101002870DAF8000090F8501140
:10674000090746D50F2290F88D11CDE900120B4AAA
:1067500090F88B31EE3A05491046FCF7A8FD1A2255
:106760002AE050E02C0910000C0A10000E1D012038
:10677000EA1D01203C1D0120181E01203A220120A3
:10678000940A100004391000A822012050091000BA
:10679000710910003C091000AC2001207E2001206E
:1067A000730910004009100030091000430910005F
:1067B000450A100072091000DAF8000090F88E11F6
:1067C000CDE90012FE4A90F88C31FE491046FCF7E4
:1067D0006EFDFB480F23FC4AFC492E3801F071FB8B
:1067E0001A23F84AFA49F64801F06BFBDAF8000080
:1067F00090F89101000628D5F549F448FFF7C3FE4B
:10680000012820D021E06570E561DAF8000090F8F9
:106810005101C00605D5FFF7FFFEEE4901280870BB
:1068200004D00598FFF7F3FD03E006E0A5708BF8B0
:1068300000600320F9F72EFF36E70D2002F077FC09
:106840001421297078E7012002900320F9F722FF34
:10685000DAF80000D346DFF880A390F89001000733
:1068600044D5D7490F229231D848FFF7B0FCD4491C
:10687000DBF800000F22923100F57470FFF75BFC2B
:106880006061CF480F219230FFF7B9FCA0616369C6
:10689000322B15DDCA49DBF800209231B1F90050E6
:1068A000B2F85421954203DDB1F91CC0944506DCD1
:1068B0005242954204DAB1F91C10914200DA0127E4
:1068C000DBF8001091F894219A420FDAB1F8AC216C
:1068D00082420BDA91F89001400601D54FF0010891
:1068E000DAF8001041F48071CAF80010DBF80000FB
:1068F0005D4690F85011C9061AD590F896120F22ED
:10690000B248FFF7F5FB28681A2290F8DC12B0486D
:10691000FFF7EEFB28680F2290F89712AF48FFF7B9
:10692000E7FB28681A2290F8DD12AD48FFF7E0FB7C
:10693000286890F89011890710D5B0F85231B0F856
:106940005421A349A148FFF77BFC012806D1DAF8BE
:106950000010804641F40071CAF80010286890F8D1
:106960009111890610D5B0F85231B0F854219849E8
:106970009648FFF7B5FC012806D1DAF800108046EA
:1069800041F48061CAF80010286890F89111490616
:106990001DD5B0F954210F218C4801F0AFFA02281F
:1069A0000BD8A0B10F21894801F0BCFA02460F2193
:1069B000864801F0A3FA022809D96670DAF80010B7
:1069C0004FF0010841F400614746CAF800102968F9
:1069D00091F89001820705D4000703D491F8910142
:1069E00080060DD5B8F1010F0AD1B4F904000028D2
:1069F0000BDB401E00B2A080002806DC4FF001092E
:106A000091F8950100F00F00A08091F85001C006A8
:106A10001AD50F2201F51C716C48FFF77AFB296823
:106A20001A2201F528716A48FFF773FB29680F22C3
:106A300001F521716948FFF76CFB29681A2201F200
:106A4000BE216748FFF765FB286890F850010006F3
:106A50000ED50F23634A64495C48009601F008FA9A
:106A60001A23604A61495A48009601F001FA09E088
:106A70001E2256495C48FCF7FCFA342254495B4814
:106A8000FCF7F7FA286890F89111C90622D503A9F6
:106A90000091B0F8AC310E2200214C48FCF763FCA9
:106AA000012811D10398401E0D280DD3E08801273D
:106AB000401E00B2E08000280CDADAF80010B94677
:106AC00041F48071CAF80010286890F8950100F030
:106AD0000F00E080286890F85111C9070CD0B0F978
:106AE0005E210F21404801F0FAF928681A21B0F917
:106AF0005E213E4801F0F3F92868A84690F850015D
:106B0000400710D5374A0F230A3A394936480096CC
:106B100001F0AEF9334A1A230A3A3649334800964F
:106B200001F0A6F909E01E222F493148FCF7A1FA2D
:106B300034222E492F48FCF79CFA2F4D20490B2375
:106B4000287800900F224031244801F041F928783C
:106B50001B4900900B231A225E31214801F038F9BD
:106B6000D8F8002023784546B2F85211B2F8540103
:106B7000012B04D0214B1B78012B09D010E0B2F877
:106B8000983103B11946B2F89A314BB1184607E073
:106B900092F85731C91A92F8563189B2C01A80B2A8
:106BA000174B1B783BB192F8A33192F8A4211844FB
:106BB000114480B289B209B200918B46A18121E0D3
:106BC0007A2101203C1D01200E1D012004391000F6
:106BD000323910004F0910003C091000F08B0120E1
:106BE0000E8C01203A0A100072391000A0391000F2
:106BF000A8220120D6220120710910006C09100082
:106C0000520910000FFA80FCA4F80AC00F22614656
:106C10006748FFF7C2F980461A2259466548FFF7D0
:106C2000BCF9654983460F2281F8008063490870EA
:106C300061466348FFF7B1F901280DD128680027A4
:106C40001E2290F895015E4900F00F00A080584880
:106C5000FCF70FFA4FF0010859481A221E3000992C
:106C6000FFF79BF901280ED128685549002790F8B5
:106C70009501342200F00F00A0801E314D48FCF732
:106C8000F8F94FF0010B4046DFF83881012802D1B6
:106C9000BBF1010F0BD04C49002088F800000870B0
:106CA000206900281ADD401E20610BD016E04748FD
:106CB00088F800600078012810D1286890F89701C2
:106CC00020610BE0286890F89001C00606D5DAF83C
:106CD000001041F08001CAF8001002E0029801287B
:106CE0000BD13B48016841F0220101604FF4806103
:106CF0000120F9F7C3FB37480670B9F1010F0BD13A
:106D00003348016841F0420101604FF48061012085
:106D1000F9F7B4FB2F480670286890F8901189069F
:106D200002D52178012906D00020207098F80000B3
:106D3000012829D039E0E1690029F7DDB0F95411C3
:106D40000F221B48FFF729F9064628681A22B0F9D6
:106D500052111848FFF721F906B100B947B1607820
:106D60000128286890F895014FEA101007D009E033
:106D7000E069401EE061D9D120706070D6E74FF421
:106D80007A714843E061D1E72868B4F9041090F8BB
:106D9000950100F00F00884207D1002F7FF48CACE2
:106DA0000449034800F0B4FC7EE400F078FA7BE488
:106DB000A8220120D62201206F09100070091000BE
:106DC000BA2101204E091000500910006C09100072
:106DD0003009100071091000F9490020FA4A0870C2
:106DE000F849C86008618880C88008701070F74A48
:106DF00048701070887008814881704730B5F44A37
:106E000000241268937EDD0792F882310BD0834212
:106E100017DC158BEB1A834213DB92F8830188424F
:106E20000FDCD28A0AE083420BDCD58AEB1A83425C
:106E300007DB92F88301884203DC128B101A884228
:106E400000DA0124204630BD2DE9FE4314460D46EC
:106E50000646072B09D0DB48092BB0F9041006D0F1
:106E60003180C188298000781070BDE8FE833288A7
:106E7000ADF802202A88ADF800202778ADF806107A
:106E80008146C088ADF8040001AA694602A806F050
:106E900097FE02A806F08CFEDFF834830346D8F88C
:106EA00000C09CF87401BCF8762100F00F01BCF81A
:106EB00078C1000952430CFB0CFC93420BDD634587
:106EC00001DB084607E09B1A411A4B43ACEB020179
:106ED00093FBF1F1401ABDF90230C0F11001B9F98C
:106EE00004C04B4300FB0C3343F30F133380BDF955
:106EF00000304B43B9F9061000FB013040F30F108E
:106F00002880D8F80000102199F8002090F8750129
:106F1000A1EB10117943000900FB0210C0F3071028
:106F20002070A2E75FF0000200EB82035B6840F88C
:106F30002230521C052AF7DB416170472DE9F04FE2
:106F4000002793B080463E463D46FFF7EBFF002109
:106F500058F821000744484300FB0155491C0644EA
:106F60000629F5DB974C09971C3460680A90A068E5
:106F7000CDE90B0620690D906069CDE90E05E06949
:106F80001090206A119009A8FBF760FD83460391D9
:106F90002068CDE90907A0680B90E068CDE90C06F0
:106FA00060690E90A069CDE90F05206A119009A8CB
:106FB000FBF74CFD8146206809906068CDE90A071F
:106FC000E0680C902069CDE90D06A0690F90E0699A
:106FD000CDE910058A4609A8FBF738FD0326A9FB71
:106FE00006570A460AFB06710926A0FB063700244D
:106FF00009FB041402FB0672002100FB0120EA18C1
:107000004441039912EB0B0061414FF47562002378
:1070100007F04CFDC8F80C0013B0BDE8F08F30B598
:107020006B4A01241268937EDD0792F87A310BD007
:10703000834217DC158BEB1A834213DB92F87B013A
:1070400088420FDCD28A0AE083420BDCD58AEB1A35
:10705000834207DB92F87B01884203DC128B101A13
:10706000884200DA0024204630BD2DE9F047DFF8E1
:1070700060910546534CD9F800008AB00E4690F84E
:1070800070019A4617464FF00008C00728D0082D17
:1070900026D094F90200062819DB11463046FFF786
:1070A000BEFF00284B48314609D0FFF747FF06B224
:1070B000484839461830FFF741FF07B210E0FFF7A4
:1070C00031FF444839461830FFF72CFF08E0401CD8
:1070D000404940B2A07041F82060183141F820705A
:1070E000ADF80060ADF804708DF814A02B4605AA29
:1070F00001A96846FFF7A8FE072D2DD0092D2BD139
:10710000D9F8001091F87001400725D5B4F9042092
:10711000BDF90000101A00D5404291F87C31984228
:107120000EDAB4F90630BDF90400181A00D5404251
:1071300091F87D61B04203DAADF80020ADF804307B
:1071400022789DF81400101A00D5404291F87E1163
:10715000884201DA8DF81420D9F800004E464FF02D
:10716000000790F8700100060FD5082D0DD0BDF96D
:107170000410BDF90000FFF741FE8046012804D14C
:10718000306890F87111C9070DD0BDF90010A180C9
:10719000BDF90420E2809DF814C084F800C0B8F165
:1071A000010F2FD066E0072D18D00B49097831B3B5
:1071B00090F8A601401CE06000200AB0BDE8F0870E
:1071C0006C091000440A10004E091000500910000C
:1071D0002C091000D438100052091000FB490F7020
:1071E00090F89001C007E7D0F948016841F022010A
:1071F00001604FF480610120F9F740F9DCE790F875
:107200007301D7E7306890F87131DB0732D0837EA5
:10721000DB0790F8823113D08B4201DDADF80030EE
:10722000018BC91ABDF90030994201DAADF800109E
:1072300090F88311914201DDADF80410C08A12E08C
:107240008B4201DDADF80030C18AC91ABDF90030AA
:10725000994201DAADF8001090F88311914201DDF6
:10726000ADF80410008B401ABDF90410884201DA11
:10727000ADF804000397BDF800000297ADF80E00CA
:107280008DF80850BDF80400ADF80C008DF80AC068
:107290008DF80B7002A801F0D9FD01208DE7CD48D3
:1072A00010B50178CC48006849B190F9A611C748DB
:1072B0000278CA48012A05D0002101610DE090F949
:1072C0007311F4E7C268521CC2608A4208D30023DB
:1072D0001A4619460820FFF7C8FEBDE810407BE5B6
:1072E00010BDF0B50746DDF814E037F912404FF055
:1072F000FF30744501DA002400E01046012517E054
:10730000561B07D437F916C0F44503DDA44501DD4B
:10731000304664465619A1F1010C664507DC37F981
:1073200016C0F44503DDA44501DD304664466D1CFE
:107330009D42E5DDF0BDA8490A68B2F864118142BA
:107340000DDAB2F86621824201DC7F207047401AD4
:10735000521AC0EBC01090FBF2F00028F6DC0120BE
:107360007047F0B500240125A1F101060BE0571B81
:1073700002D430F917703C445719B74202DC30F997
:1073800017703C446D1C9D42F1DD012A02DB891E11
:107390008A4200DD640030F912002044F0BD70B56F
:1073A00001250C46012B07D02168091A00D5494256
:1073B000914201D9002500E02060218840EA014285
:1073C0001946284601F0F1FD284670BD2DE9F04729
:1073D000814D14469A462E6830F91420814602FBEE
:1073E00004F00123A1F1010196F862C117E0E51A4A
:1073F00008D439F91570B6F85E81474502DB07FB02
:1074000005003A44E5188D4208DC39F91570B6F8E4
:107410005E81474502DB07FB05003A445B1CB3EB8A
:107420001C1FE4DD4A4380FB0A01D31707F03EFB33
:1074300000B2C3E62DE9F05F8B46D0E90015914616
:10744000002280689A4613464FF48034814202DD60
:1074500002460B4602E001DA0A460346A0EB0101B0
:107460004FF4803CA1FB0C084FEAE17707FB0C8747
:107470004FF000062B44C2F1000201FB067103EB42
:1074800042024FEAE27307F011FB4FF48036A9FB8A
:10749000063C4FEAE97505FB06C51B18A3FB0A0667
:1074A000002709FB07524A4102FB0A614FEAEA75CD
:1074B00003FB051122463B4607F0F8FA5A464FEA0D
:1074C000EB7307F0F3FA00B2BDE8F09F2DE9F04F3F
:1074D00093B00C46824617469946002518210CA801
:1074E0001C9E07F076FB00200290039004902EB9BA
:1074F0003948006890F8620100F00F06BA1B07EBEC
:10750000060300D50022661EB34200DD631E0CA9EF
:107510005046FBF709FB4FB1B7422FD12E48006808
:1075200090F85101800613D54D4675E02A48006851
:1075300090F8510180066FD4BAF904000290BAF9AC
:1075400000000390BAF902004B46012204900DE0BE
:107550000AEB44007F1C30F9061D0291B0F90410BB
:107560000391B0F902004B463AB20490611E02A8A2
:10757000FFF760FF99FBF6F1451A4DE0DDE910B128
:10758000B1F100084ADADDE90C2352EA030045D0E4
:10759000DDE90E010591089000293FDB0E480568E2
:1075A00095F8500140061BD55846414607F07EFA33
:1075B000002800DA404295F86311884210DA4B4601
:1075C0003A4621465046FFF701FF24E06C091000BF
:1075D00030091000520910002C091000440A100054
:1075E0001BEB0B01A1FB062448EB080000FB064047
:1075F000F31701FB0303089805994542A5FB09070A
:10760000002464EB010404FB09714FEAE97605FBF1
:10761000061107F04BFA054628B2FDE4B8F1000F59
:10762000CDDADDE90C010843C9D00F980028C6DB8C
:10763000F2E738B5BB4D049C2D6895F85051AD0666
:1076400003D50094FFF742FF01E0FFF7BFFE00B251
:1076500038BD2DE9F04700249A46CE1E81462346C8
:10766000A44627462546022A03DBB24201DC104627
:10767000A4E50020491E07E039F91080B8F1000F99
:1076800001DDC4447F1C401C8842F5DB9CFBF7F7FE
:10769000022A12DA10460DE039F91060BE4203DA10
:1076A0003CB90446002304E01CB19E4201DD334690
:1076B0000546401C8842EFDB14E0B24212DD104662
:1076C0000EE000BF39F91010B94203DA3CB90446A4
:1076D000002304E01CB1994201DD0B460546401E23
:1076E0000228EFDC534500DA1546284666E530B53A
:1076F000044630F911300020491C06E034F91150DD
:107700009D4201DD2B460846491C9142F6DB30BD07
:107710002DE9F34F834C0F2685B0226892F884310F
:1077200003F00F0255421B0906EB450505F0FF0B60
:1077300000EB42005D421A2606EB45050590EDB2CE
:1077400001EB430002952A4600210690FFF7CFFF88
:1077500080465A4600210598FFF7C9FF0646206873
:10776000714F90F87001800607D5B7F90030424696
:1077700002990698FFF76DFF80462068DFF8ACA1FC
:1077800090F87001C00607D5BAF900303246594664
:107790000598FFF75EFF0646654DDFF8989128785B
:1077A000012828D1206890F86001010723D0010941
:1077B00021D0B7F90010009100F00F03B9F90820AB
:1077C00002990698FFF78DFD0746BAF90000009070
:1077D0002068B9F90A20594690F860010309059814
:1077E000FFF77FFD002F01DB002802DAFFF757FDCE
:1077F00001E0B84606460FFA88F732B2A9F80870D9
:10780000A9F80A200026009620685946B0F91830D9
:107810000598FFF70EFFCDE9006020683A4602990F
:10782000B0F916300698FFF704FF0390216891F82D
:107830007021120715D52A78F2B30023B1F8392444
:107840003C491431FFF7ABFDB8B32878B0B300233F
:1078500020683849B0F83B2418310198FFF79FFDA4
:1078600058B3206890F87001800704D5032201A95D
:1078700003A803F065FC01A903A8FBF7C3FC0123DF
:10788000424602990698FFF76CFDFFF754FDC3B21C
:1078900029480078002820681CD090F9A51199F893
:1078A00001204846521E52B289F80120002A14DBFA
:1078B000226892F8FC2202E004E007E004E01144B0
:1078C00049B20CE00123B9E70123C1E7002007B06A
:1078D000BDE8F08F90F97211E1E7FF2242702A783B
:1078E00004690AB9641C04618C4219D340F2FF1187
:1078F0000161C9F80C604AB1019802B2039801B263
:107900005FF00900FFF7B1FB40B109E001202870EA
:10791000019802B2039801B20720F3E7FFF7BFFC1A
:107920000120D4E72C091000180A1000160A1000D4
:107930006C091000440A1000520910002DE9F047AC
:107940009AB0814602AE5C21304607F042F93548D4
:1079500001230F24016891F8B12091F8A01103EBE5
:107960001217890715D50025A24680460FE000BFF3
:10797000D8F8001005FB04F009EB400091F88B31BA
:10798000CDE9003A49460246FBF791FC6D1CBD4229
:10799000EEDB002011E000BF00FB04F25FF000010D
:1079A00002EB010C56F8215039F91C302B4446F8F3
:1079B0002130491CA142F3DB401CB842ECDB002023
:1079C00056F8201091FBF7F146F82010401CA04219
:1079D000F6DB00200121A4F1010C00BF4FF00005EF
:1079E0002B460BE003FB041839F9182056F82180C8
:1079F000B2EB080200D5524215445B1CBB42F1DBDE
:107A000095FBF7F2824200DD1046491C6145E5DB3B
:107A1000B0F5803F04DB4FF6FF701AB0BDE8F08789
:107A200080B2FAE72C091000D0490020C8608860B5
:107A30004860CF490870704710B500230BE000BFC5
:107A400030F91340002C00DA64428C4201DD012041
:107A500010BD5B1C1BB29342F2DB002010BD70B561
:107A60000F23C44AC449C54800F02BFA1A23C44A5C
:107A7000C449C54800F025FAC44C0F222068B0F96B
:107A80009812BD48FFF7D8FF054620681A22B0F9C2
:107A90009812BC48FFF7D0FF0022B449012803D058
:107AA000012D01D04A6070BD4868401C48602368C1
:107AB00093F89A328342F6DCB548036843F4805366
:107AC0000360B4484A60016841F022010160BDE8EA
:107AD00070404FF480610120F8F7D0BC70B50546C6
:107AE000002003460CE000BF35F9134031F9136064
:107AF000A41B00D5644224B2A04200DA20465B1CDD
:107B00009342F1DB70BD2DE9FF4F01281ED0A24D3D
:107B1000A24C1A26DFF888A2DFF850E2DFF86C9258
:107B200000214FF0010B00BF35F8112034F911701E
:107B30009AF800C0D21B13B20022BCF1010F09D089
:107B4000002B0CDADEF80C3033B11AE0954D964C70
:107B50000F26DFE71A4614E0029A52420DE0DEF8E3
:107B600008C0BCF1000F0CD1019ADDF80CC012B2B4
:107B7000634506DD0D9A934201DD12B201E00FFA72
:107B80008CF207EB020324F81130D9F8007097F853
:107B900080335B0729D501284FF000030ED01EE08B
:107BA000C3EBC30C0CEB0318DFF8D0C15B1C0CEB70
:107BB000480C3CF8118090442CF8118097F8808391
:107BC0000BEB981C9C45EBDC0FE0DFF8BCC10CEB29
:107BD000831C5B1C3CF8118090442CF8118097F8B2
:107BE00080830BEB981C9C45EFDC491CB1429BDB6E
:107BF000BDE8FF8F2DE9F84F6C4E5C4C00253078C6
:107C0000012800D12580DFF884810F22D8F80010E8
:107C100091F82310009001F00F073B46614964483A
:107C200000F0D6F8307800903B461A225A49614855
:107C300000F0CEF860480078400779D55F480078BA
:107C400048B3A560E560D8F800002D3010F8011C9D
:107C5000B0F80290C7880C0901F00F060F225249B4
:107C60005748FFF73BFF84461A224C495548FFF717
:107C700035FFD8F80020C2463D4BB2F8548101468A
:107C8000BCEB580F04DCB2F85201B1EB500F32DDFF
:107C90000120187030E0A168491CA160D8F80000EC
:107CA00090F82A20B1EB121F00DDA560E16802F018
:107CB0000F02491CE1608A4200DAE56090F8242056
:107CC00011090FD090F8383021888B420AD9491C0D
:107CD000218090F82B3011091C094C4303F00F064A
:107CE0004E4304E090F82B100C0901F00F0630F819
:107CF0002D9F8788B2E71D704B46324621460120F2
:107D00000097FFF700FF4B463246214600200097C0
:107D1000FFF7F9FEDAF8000090F89111090607D58F
:107D200090F88003400703D5BDE8F84F97E6FFE7DA
:107D3000BDE8F88F154810B5006890F82000C1071D
:107D400012D02149097800290ED12049097809B1BA
:107D5000800609D50320F8F782FCFFF74BFFBDE84A
:107D600010400320F8F796BC10BD0000840A1000F4
:107D70007D091000101F012004391000581E012039
:107D80003E200120323910003E1F01202C09100036
:107D90003C09100030091000AA1D01203C1D0120E3
:107DA000940A10007C1D01200E1D01207109100095
:107DB000DA20012008210120980A10004309100050
:107DC0004C2101207A210120490910004E091000A0
:107DD000F0B40C4601460498C3F11006012801D006
:107DE000002014E02046F0BC5200FBF742B900BF6F
:107DF00034F9105031F910705D4307FB0655EF1749
:107E000005EB177545F30F1524F81050401C9042F0
:107E1000EEDBF0BC7047F0B40C460146DDE90460CF
:107E2000F51A012801D0002010E02046F0BC5200D5
:107E3000FBF71FB934F9107031F910C05F430CFB28
:107E4000057797FBF6F724F81070401C9042F1DBA1
:107E5000DFE770B5002408E033B930F8146031F87A
:107E60001450354420F81450641C9442F4DB70BD67
:107E70002DE9F04391460022DDF81CC018E00025F2
:107E80002E462C4602EB0407BF1E08D49F4206DA9A
:107E900030F9178039F9147008FB07553E44641C0B
:107EA000052CEFDBBCF1010F06D021F81250521C5B
:107EB0009A42E4DBBDE8F08395FBF6F421F812402A
:107EC000F5E770B5002407E032F8145030F814607C
:107ED000AD1B21F81450641C9C42F5DB70BD30B51D
:107EE00000231C4607E000BF30F91350954201DA29
:107EF00020F813405B1C8B42F6DB30BD70B50546A5
:107F00000020044603460AE035F91360964204DD7A
:107F10000CB9401CC0B2641C00E000245B1C8B4206
:107F2000F2DB70BD10B50022134603E030F91340B8
:107F30005B1C22448B42F9DB09B192FBF1F210B2D7
:107F400010BD00005448554A00685168414004D0B3
:107F50005060480701D5FDF7FDBF704710B50446D6
:107F6000480709D54E492046FAF737FE2046BDE8B6
:107F700010404C49FAF757BE10BD70B547484A4DFE
:107F80000026067049492C680C422ED040680440F7
:107F900047480078002828D10620F8F760FB2146E2
:107FA0004448FFF7DBFF44484449006890F85C010F
:107FB00000F00F0008700620F8F76CFB600709D589
:107FC0000420F8F74CFB37493548FEF741FB042005
:107FD000F8F760FB3A480078022802D128680028A8
:107FE00001DAFFF7A7FE3748067070BD2B4910B5C0
:107FF00000204860FFF718FDFDF7ACFFBDE810401A
:10800000FCF79ABF254C08B500256570FFF7EEFF19
:108010004FF6FF76607820B30128FBD16B46002233
:1080200015210420F8F77AFA0098C00706D03146E7
:108030000420F8F752FAFFF7D9FF6570009840075F
:1080400005D504210846F8F748FAFFF796FF00988F
:10805000C006DFD510210420F8F73FFAFFF772FFC2
:10806000D8E704210020FAF714FE6B460022022113
:108070000420F8F753FA04210120FAF70AFE0098C9
:108080008007C7D531460420F8F727FAFFF7AEFF7F
:1080900001206070BEE70000380B1000940A100049
:1080A000DA20012008210120680910001402008054
:1080B00049091000029201202C09100074091000D7
:1080C0007509100071091000F94800218160C17024
:1080D0007047F74901208870F6E7F54800214160B4
:1080E0004170012181707047EEE72DE9FC47894618
:1080F0000746FAF76CFD0090FAF794FD0190042111
:108100006846FAF781FC0446042101A8FAF77CFCD2
:108110002044E74C4600E749A068E74D704301EB77
:10812000400029687200B1F8F2823946FAF7A1FFDF
:108130002868A16890F8F102884202D10120E0701D
:1081400002E0E07801281AD1DA4F002015E000BFE4
:108150002A68012137F9103092F8F122521C05E00B
:1081600006FB010C491C37F91CC063448A42F7DC4A
:10817000A3EB080229F81020401CB042E8DB286875
:1081800090F8F112A068814201D3401C00E0002069
:10819000A060E078BDE8FC872DE9FC4115460E465D
:1081A0000746FAF714FD0090FAF73CFD019000989D
:1081B0000421400800906846FAF726FC0446042192
:1081C00001A8FAF721FC00EB440C07EB440207EB93
:1081D0004C03014606EB440706EB4C06002006E084
:1081E00032F810C00CFB05FC27F810C0401CA04260
:1081F000F6DB002006E000BF33F810206A4326F8C3
:108200001020401C8842F7DBBDE8FC812DE9FC47CB
:10821000154689460646FAF7DAFC0090FAF702FDA1
:10822000019004216846FAF7EFFB0446042101A8F7
:10823000FAF7EAFB0146304606EB440305EB440738
:10824000002207E030F802CB33F8028B521CC44402
:1082500027F802CBA242F5DB01EB440206EB8400D7
:1082600006EB420305EB4206002207E030F8027BF2
:1082700033F802CB521C674426F8027B8A42F5DBB6
:1082800048462946002204E030F8023B21F8023B30
:10829000521CA242F8DB09EB440005EB84020021EA
:1082A00005E000BF30F8023B22F8023B491CA14226
:1082B000F8DB6FE72DE9FC417F4F0126386890F825
:1082C0001801000719D57A4C10200F23A1781A46FF
:1082D000CDE9000179497A48FFF79DFD0025A57099
:1082E00038680F237549B0F9AE217548FAF7CAFF0F
:1082F00074490978062902D02070304684E70026A8
:10830000012802D065602570F7E720780028F4D1B5
:108310006068401C60600128EFD901206070207007
:1083200000F018FC01210220F8F7A8F8E5E770B585
:10833000654D0024288810F4CA7F40D01E2263496E
:108340005F48FAF796FEFFF7B5FF0446012836D1DD
:10835000594E306890F8C507C1075D4809D02968B3
:10836000490006D40830534A03C8DC3AFFF74EFFF1
:1083700004E050498068DC39FAF783FE287800066B
:1083800008D530684B4990F8C427DC39521C0846A0
:10839000FFF702FF30684F4990F8F002C0074548E8
:1083A000A0F1DC0002D0FFF7A0FE01E0FAF769FEC1
:1083B000306890F8F002C00701D03D48C4782046EC
:1083C00070BD70B53C4D01244FF4C3732868424919
:1083D000B0F9E0224148FAF755FF3A490A783449A2
:1083E000062A09D12A6892F81821120704D5002418
:1083F000012804D0002048600870204670BD08782D
:108400000028FAD14868401C48600128F5D90120AD
:108410004870087000F09EFB01210220F8F72EF84A
:10842000EBE72DE9F043894610241A235FF00101A0
:108430004A1C01FB03F65A4300EB460500EB4207DA
:1084400009EB46065FF0000235F812C037F81280DB
:10845000C44426F812C0521C9A42F5DB491CA142C2
:10846000E6DBBDE8F08370B5134C06460D46206888
:1084700090F84507000609D5342231462846FAF718
:10848000F8FD29463046FFF7CCFF02E03046FAF708
:1084900014FE206890F86000C00607D531462846D3
:1084A000BDE870404FF45D72FAF7E3BD70BD0000A7
:1084B0009C0A1000BC3A10002C091000AC200120CE
:1084C0007E20012075091000B80A1000DE920120FC
:1084D000083F10000292012082000120768C0120CA
:1084E000404910B509780020C90707D03E483F49E8
:1084F0004068FFF7B8FFBDE8104062E710BD704765
:108500003C4930B409683A4891F8C8100278CB0762
:1085100018D08B0716D5384B1B78C1F38204012184
:1085200001FA04F4234209D00170C8B2824209D092
:10853000012805D0CD2030BC00F0F9BD0021F3E7C3
:10854000CC20F8E730BC70472DE9F041FFF7D8FFA9
:108550002548244E007828B1F9F7C5FF0020306087
:10856000BDE8F0812348006890F81801800701D524
:10857000F9F7ECFE214C20780128EFD00620F8F71F
:108580006EF8FFF7ADFF0746FFF7D1FE0546062060
:10859000F8F780F81A493068012F086013D1207865
:1085A000022809D117480078012808D100F0D2FA32
:1085B00001210220F7F762FF207807280AD0042162
:1085C0000320F7F75BFF012DC8D104210846F7F718
:1085D00055FFC3E74FF40071F2E700207047002019
:1085E00070470000B80A1000083F1000428C0120BC
:1085F000530910002C0910004B00002075091000D1
:10860000680910009C0A100010B501461022F848B5
:10861000FAF72FFD0221BDE810400846F7F72EBFFC
:1086200070B596B004466846FAF74DFDF149F24838
:10863000F24B0C6102881A80F14AF24D5288028096
:10864000F148E20728D0BDF8002042F00103ADF860
:108650000030026892F86060F60603D543F4807338
:10866000ADF8003092F82031DB0715D0E74B1B78CE
:1086700093B92B78042B0FD0002C0DDB02F22112C2
:1086800053788DF8133013788DF81A3092788DF86E
:108690001E2044F480620A6114F4457F4FF0000606
:1086A0002AD0036893F8A021D20706D093F8C527F3
:1086B000D20702D02A78032A07D02A78022A26D0A5
:1086C000072A24D0062A22D005E0BDF8002042F077
:1086D0001002ADF80020BDF8002042F00602ADF80F
:1086E000002000BF93F80A27D20705D0BDF800206C
:1086F00042F00602ADF80020E2054AD5C44A1278DD
:10870000012A31D0C34A1278012A2DD041E0002C31
:1087100001DA022A08D0BDF80050062A45F0020509
:10872000ADF8005007D010E0BDF8002042F006027E
:10873000ADF8002009E0BDF8022022F02002ADF8DB
:1087400002200A6942F080420A6193F80027D207AA
:1087500003D093F803278DF83A208DF838600A6922
:1087600042F080020A61BDE7006890F8B02112076C
:108770000FD58DF8386090F8C507C00705D0BDF853
:10878000000020F01000ADF80000086940F0800003
:108790000861AFF28B1001906846F8F7F2FE16B050
:1087A00070BD00EB80004FF6FF7101EA4000F8F762
:1087B0002AB9944810B5027893488E49022A006875
:1087C00089780BD0062A13D0072A14D0012915D096
:1087D000022916D090F81A41B4B116E090F81E4163
:1087E0000229F9D190F81C01A042F5DD0446F3E717
:1087F00090F82641F0E790F82741EDE790F81B410B
:10880000EAE790F81C41E7E71424F8F7E8F90028B4
:1088100001DD04EB8404204610BDF0B57A4905461D
:1088200000200C6894F82070F90732D075490B7855
:108830007049022B1BD0072B19D0062B17D094F8A8
:108840003920754E36781EB194F84944E40721D09A
:10885000724C24780CB1BC061CD54C68641C4C606E
:10886000944216DD0020486001204EB10EE00E78E3
:1088700094F83A20032EE4D2761C0E704A60E0E7AA
:10888000072B03D0062B01D040F21510284040F0F2
:108890000040F0BD52424A60F0BD10B5554B024653
:1088A0000020584C9B680146062A02D0072A0BD0AC
:1088B0000DE05B480278012A05D006202070580799
:1088C00004D5042003E00170072020700120554AE0
:1088D00018401170544A117010BD2DE9F04F00245A
:1088E000DFF810910346A046D9F8085020462646E6
:1088F0002746E907224613D04549DFF830C10978F9
:1089000001290AD04449097839B99CF80010012995
:1089100003D047490978012902D18CF800200126AB
:1089200049465FEA457C0ED5DFF8F0C09CF800C0F0
:10893000BCF1010F06D0DFF8FCC09CF800C0BCF110
:10894000010F00D10127DFF8F0A0DFF8DCB0DFF87D
:10895000B490012E08D02C4E042B366806D0032B81
:108960000ED0022B31D032E04A613CE08A61486986
:10897000401C486196F85D61864234DA4A612DE018
:108980002E4F3F78012F1ED02D4F3F78012F1AD048
:108990009AF80070012F16D096F81871FF0716D0BC
:1089A000D1F818C00CF1010CC1F818C096F8196183
:1089B00006EBC60707EB0616BCEB860F07D38A61EA
:1089C0008BF800203EE08A6101E0012F04D0032BE8
:1089D00004D0022B36D040E04A618A61032689F830
:1089E0000060172039E0042689F80060032034E095
:1089F000083F1000A80A100082091000800910002A
:108A0000981F1000750910002C091000860910002D
:108A10004B0910004A091000490910004E091000C6
:108A20009D0A100043091000440910004F0910006E
:108A30009C0A1000500910007D0910006F091000F9
:108A400070091000022489F800400124680703D54A
:108A500016204FF0010800E0132099F800609E42B4
:108A600001D08AF80020BE4B2840002C1C708BF8E7
:108A7000008000D10A70BDE8F08F10B5B94C00201D
:108A8000E060B9480078042808D0032806D00228FE
:108A900004D0062805D0072803D007E0FFF71DFF04
:108AA00001E0FFF7FAFEE1680843E060A068FFF725
:108AB000B4FEE1680843E06010BD38B5FFF7DDFFA4
:108AC000AA490868002809DDA94A127832B9401E6F
:108AD000086003D102210520F7F7D0FCFFF769FEFB
:108AE000FFF75FFE9F4C40F21731E068084214D058
:108AF0000020F7F7B4FDE068FFF792FD02216B4616
:108B000000220846F7F70AFD02210846F7F7E5FCC0
:108B1000FFF71AFD0020F7F7BDFD38BD10B50121A4
:108B20000220F7F7DAFCBDE81040C6E710B5402197
:108B30000220F7F7D2FC8C480178012909D00621E0
:108B40000170FFF7CAFA87490020486188618449AB
:108B5000087010BDF7F767BF82490020854AC860DA
:108B6000086110604861886148607D4908708249E9
:108B700008708249087070472DE9F04100270421F0
:108B80000220F7F7AAFC7E48764E0568B06890EAA6
:108B9000050420D02C404FF6FF7807D030B90127CC
:108BA00041460220F7F799FCFFF7D6FF600701D591
:108BB000FFF79AFA6C4CB5607DB10421012F16D0F5
:108BC0002078022807D10020654AB06170611070DA
:108BD000694A10702170BDE8F081F7F724FF012089
:108BE00020704146BDE8F0410220F7F776BCE80767
:108BF00001D0217001E003202070BDE8F0415CE766
:108C000070B50446574D000705D508210220F7F737
:108C100064FC0020A870E00605D510210220F7F7BB
:108C20005CFC0120A870E00406D54FF480510220BE
:108C3000F7F753FC0220A87070BD10B5F7F7F3FEEC
:108C4000494901200870474900204870BDE810409C
:108C50004FF6FF710220F7F740BC08B56B460022C3
:108C600041F25D110220F7F759FC0098C00501D5CB
:108C7000FFF7E3FF009841F21801084201D0FFF727
:108C8000BFFF0098400701D5FFF776FF0098400628
:108C900001D5FFF74BFF0098C00701D0FFF73EFF5B
:108CA00008BD3149012008702E4900208860887075
:108CB000C8600861486188613249087032490870AB
:108CC000324833494088088032490880FFF701BAAA
:108CD00008B502210020F9F7DCFF6B4600224FF4B3
:108CE00000710220F7F71AFC02210120F9F7D1FFE9
:108CF0000098800509D5FFF7D4FF4FF6FF710220D9
:108D0000F7F7EBFB17490120487008BD1549002013
:108D100048707047134C0020607006E0607820B106
:108D20000128FBD1FFF799FFF8E7FFF7D1FFF5E73F
:108D30000C49002048618861094908700E49087093
:108D4000704710B5F7F76FFE0121BDE81040022013
:108D5000F7F794BB1048006890F81D0121E57047B3
:108D600043091000A80A100075091000340B100008
:108D70004909100068091000440910009C0A1000FD
:108D8000380B1000720910007E091000981F1000A7
:108D900080091000820910002C09100010B504464B
:108DA0000220F7F75CFC2046F7F722FFBDE81040F1
:108DB0000220F7F76FBCF7F71BBF1CB5002100912D
:108DC000019102789DF8001062F303018DF8001004
:108DD000427862F307118DF800104289BDF8011046
:108DE00062F30B01ADF801100289BDF8021062F3C5
:108DF0000F11ADF8021081798DF80410C1798DF84A
:108E000005100179CA099DF8061062F3C7118DF8A3
:108E10000610027962F306018DF8061080788DF84D
:108E200007006846FFF7BAFF1CBD1CB50020009084
:108E3000019002208DF80000E0480068C007400E55
:108E40008DF807006846FFF7A9FF1CBD1CB500217F
:108E50000091019101788DF8001041788DF8011092
:108E6000C188C1F307118DF802108188C1F3071181
:108E70008DF80310017901F00F018DF8041082794B
:108E800041EA02118DF8041081788DF80510C07840
:108E900000F00F008DF80600C8480068C007400EBB
:108EA0008DF807006846FFF779FF1CBD1CB5002050
:108EB00000900190C24800684178827810208DF8B7
:108EC00000004006437A8DF80130BE4B1B788DF8C8
:108ED000023043891B0A8DF8033040898DF8040065
:108EE000B6488DF805108DF806200068C007400EC2
:108EF0008DF807006846FFF751FF1CBD1CB5002028
:108F00000090019011208DF80000AC480068C00767
:108F1000400E8DF807006846FFF740FF1CBD2DE9A5
:108F2000FC410646002000900190122015460C4698
:108F30008DF800004FF008571EE0200A8DF8010060
:108F4000C4F30B008DF80240315C30448DF80310FF
:108F500041788DF8041081788DF80510C0788DF86F
:108F60000600D7F8E001C007400E8DF807006846FC
:108F7000FFF714FF241D2D1F002DDEDCBDE8FC8152
:108F80001CB50022019200920F228DF800208DF86E
:108F900001008DF80610402088498DF80700012057
:108FA00008606846F7F724FE1CBD1CB5002300933B
:108FB0000193DB238DF800308DF801008DF802104D
:108FC000100E8DF80300100C8DF80400100A8DF8B7
:108FD00005007A488DF806200068C007400E8DF81D
:108FE00007006846FFF7DAFE1CBD1CB500220092A0
:108FF00001920F228DF8002005228DF801208DF8B6
:1090000002006E488DF803100068C007400E8DF80E
:1090100007006846FFF7C2FE1CBD2DE9FC4104466F
:109020000025009519208DF8000040070195417A30
:109030008DF80110634909788DF802104189090AF9
:109040008DF8031040895E4F8DF804005B4E386840
:1090500041788DF8051080788DF806003068C007DB
:10906000400E8DF807006846FFF798FE00951A201D
:1090700001958DF80000386800F5FC6001788DF8E6
:10908000011041788DF8021081788DF80310C078B6
:109090008DF804003068C007400E8DF80700684660
:1090A000FFF77CFE00951B2001958DF8000060689D
:1090B000000E8DF801006068000C8DF80200A08899
:1090C000000A8DF8030020798DF8040020788DF8CF
:1090D0000500207B8DF806003068C007400E8DF833
:1090E00007006846FFF75AFE00951C2001958DF891
:1090F0000000A068000E8DF80100A068000C8DF83B
:1091000002002089000A8DF80300207A8DF80400FF
:10911000207C8DF80500207D8DF806003068C007A2
:10912000400E8DF807006846FFF738FE26E71CB5AD
:109130002349096891F82911490607D400F00F0165
:109140000C2903D0012901D0022919D10021009155
:10915000019116218DF800108DF80100010A8DF89B
:109160000210010C000E8DF8040014488DF8031055
:109170000068C007400E8DF807006846FFF70EFE36
:109180001CBD1CB500230093019316238DF80030FD
:109190008DF80100080A8DF80200100A8DF804000D
:1091A00006488DF803108DF805200068C007400EB2
:1091B0008DF807006846FFF7F1FD1CBDE0010022B5
:1091C0002C0910007C0910002DE9F0410520F7F76B
:1091D00046FA0025DFF828814A4F012606FA05F0F5
:1091E0003968014242D005EB850202EBC502D41971
:1091F000A279032A03D0042A01D0052A36D181435B
:109200003960B988014205D00421A171B988814330
:10921000B9801AE0A179032902D0042906D01CE004
:10922000D8F804200243C8F8042016E0364909683B
:1092300091F82911C90708D00521A171B988014306
:10924000B98039680143396007E0D8F804208243C7
:10925000C8F80420E07904F085FA29480421001DAB
:10926000F9F7D2FBC1B2A01DFFF7A7FD6D1C0A2DB7
:10927000B4D3BDE8F0410520F7F70CBA204900202F
:10928000486088211F4805F0A4BC1D4C08B5002586
:10929000257001261BE02078C8B10128FBD10022EF
:1092A0006B4606211046F7F739F90098400704D5B8
:1092B00004210020F7F711F9257000988007EAD5FE
:1092C00002210020F7F709F9FFF77EFFE3E700210D
:1092D0000846F9F7DEFC00226B4608211046F7F736
:1092E0001DF900210120F9F7D4FC00980007D2D520
:1092F000FFF7C4FF0E210020F7F7EFF82670CAE74A
:10930000C40A1000101F10002C0910002DE9F05F96
:109310003A481021DFF8E88002683A4B4FF4D076E3
:1093200092F823004FEA1019A1EB10171A2000BF82
:1093300033F91010B2F9265038F910400D44A54207
:1093400028DBB2F928504D1BA54223DC01FB09F5AF
:1093500004FB07544FEAE47504EB157444F30F1B48
:1093600092F8D040640713D5ABEB01010DB2DFF8E2
:1093700098A00021C1EBC10404EB011C0AEB8C1482
:10938000491C34F810C00429AC4424F810C0F1DBA7
:1093900023F810B0401CB042CADB92F8200000074E
:1093A0000CD51848F9F71FFD18490023184A086022
:1093B000BDE8F05F01461348F9F751BDBDE8F09FE5
:1093C00070B50E4C0546206890F84904C00703D0DC
:1093D000FCF724FC012810D0206890F82000C0077A
:1093E0000BD0002D09D10320F7F739F9FFF78EFFD5
:1093F000BDE870400320F7F74DB970BD2C0910008F
:10940000428C01204E0001200E0601206009100050
:10941000F01E1000FE4900200870704700E0104662
:109420000A5C8242FBD1704770B500250E460346A8
:109430002C4606E019462046FFF7F0FF1855641C3D
:10944000E4B2B442F6D300220AE0985C904203D121
:109450009D546D1CEDB201E0185C9854521CD2B2C0
:10946000B242F2D3284670BD38B1884202D20B46D0
:1094700001461846884200D01154084670472DE92D
:10948000FF4F99B00120069018689A4640B19AF8AB
:1094900002109AF8009050461A2907D2491C06E09B
:1094A0004FF000091A264D460F270AE01A21457889
:1094B0009AF80300CEB20F2801D2401C00E00F2022
:1094C000C7B200200AA90854401C2D28FAD31998C5
:1094D00005EB051100EB410C681C65E0199908EBE0
:1094E0000810CDF820C001EB400C09F1010457E051
:1094F0000CEB040BDBF8000008B31CF80400F8B117
:109500001BF8010C002300B103460898015D21B14E
:109510000AAA1846FFF7A8FF03461A9800280898D9
:1095200020440ED010F8011C834621B10AAA184627
:10953000FFF79AFF03469BF80110D1B91EE0E41C27
:109540002DE0189010F8011C51B1089A1BF8010C7D
:10955000125D104304D00AAA1846FFF785FF0346A0
:109560001898417851B1089A9BF80100125D104398
:1095700004D00AAA1846FFF777FF034613B10CF888
:1095800004300CE006982D2806D20CF8040006984A
:10959000401CC0B2069002E0401E0CF80400641C9F
:1095A000B442A5D908F101008046B84296D90AA86C
:1095B0000699FFF739FF804641001B9805F0E7FA4E
:1095C00000204FF6FF7202E04AF82020401C404580
:1095D000FAD33BE0199805EB051100EB410022306E
:1095E0004C4603902FE00398011901204058A8B37E
:1095F000487838B30AAA105C48701B991B9A0AEB8A
:10960000800B31F81010491C22F810109BF8001044
:109610002046F9F70CFA8BF800009BF80110284659
:10962000F9F705FA8BF801009BF802102046F9F7CC
:1096300002FA8BF802009BF803102846F9F7FBF9B1
:109640008BF80300641CB442CDD36D1CBD42C1D362
:10965000A8F101001DB0C0B2BDE8F08FFFE7E41C27
:10966000F0E72DE9F043994655784FF0010C1BE0E7
:1096700005EB051300EB4306223600231478977898
:109680000CE000BF06EB040898F90180884503D17F
:109690000CFA04F848EA0303641CE4B2A742F1D2CE
:1096A00049F825306D1CEDB2D378AB42E0D2BDE86D
:1096B000F083F0B5564B002599B01C78012C0CD1E5
:1096C0001D700B78002B4DD04B78002B4AD08B7837
:1096D000192B47D0CB780E2B44D000244FEA0D0332
:1096E00043F82450641C192CFAD34C78CF781AE034
:1096F00050F82460B6B1750845EA4605354353F87D
:1097000024602E4343F8246003EB8406D6F804C09B
:109710004CEA050CC6F804C0D6F808C04CEA050CA3
:10972000C6F808C0641CA742E2D2002403EB8405FB
:109730006D6840F82450641C172CF7D3012A11D10E
:10974000087808B1401E0870487808B1401E48707B
:109750008878192801D2401C8870C8780E2801D258
:10976000401CC87019B0F0BDF0B50025059E2C4610
:109770008F1E00EB410006D430F9045CCF1E02D4EA
:1097800030F9067C3D448F1C974207DAB0F904405B
:10979000C91C914202DAB0F906000444281B00D526
:1097A00040424FF435714843C11700EB915080128D
:1097B000A54203DD316808443060F0BD19680844F3
:1097C0001860F0BD2DE9FF4FDFF848B007460E46A0
:1097D000DBF80000002585B090F8A0002C46C106FB
:1097E0000D484FF4803900EB460A2FD5002105E0E3
:1097F00037F8112000EB4103491C5A80B142F7D3DE
:109800004188018030F81620AAF80220002113E0D8
:10981000CC0A10002C0910005C3F10004A1C00EB21
:10982000420330F8122033F802CC5B88634403EB28
:10983000420227F81120491CB142EFD307A80023A8
:109840000090324619463846F9F78DFD07994FF0DA
:10985000000800291CDCDBF8000090F8A000C0061E
:1098600004D5F748B0F90000019001E0CDF804807C
:10987000701E37F911C00390814224DBDBF8000031
:1098800090F8A000C00608D5BAF90200029006E0E0
:1098900007EB410030F9020CE6E7CDF80880DBF871
:1098A000000090F8A000000706D502A8009001ABC8
:1098B000721E3846FFF758FFDDE90110814207DDCF
:1098C00005460C4607E007EB4100B0F90200DDE772
:1098D00001DA0D460446A0EB0102A2FB09064FEA9D
:1098E000E27303FB096102FB08110CEB0402C5F1F2
:1098F000000302EB43024FEAE27305F0D7F8079C3E
:10990000A4FB0936E51705FB096204FB08221B18B6
:109910004A410899A3FB0105CC1702FB015103FB47
:1099200004114A46002305F0C1F8039AD31705F045
:10993000BDF800B209B08FE62DE9FF5F0446C148CB
:109940004FF0000B0F9D00685E465F4690F8A00048
:10995000000711D5207808B1401E2070607808B14A
:10996000401E6070A078192801D2401CA070E078D9
:109970000E2801D2401CE070B1484421443805F063
:1099800006F900239A469946607827E0227821E07C
:10999000411C01EB810C0CEBC101D5F8288002EBD6
:1099A000410C08EB4C01B1F90010594502DD761C61
:1099B000B6B20F44994202DD0B4692468146297E9B
:1099C000012906D1A04911F80C8048F0800801F85F
:1099D0000C80521CA1789142DADA401CE178814275
:1099E000D4DADFF85C826078A8F144080DE0411C0D
:1099F00001EB810303EBC103AA6A0AEB430102EB0B
:109A000041010A8828F81020401CE1788142EEDAF2
:109A10008B484A460F214438029BFFF7D3FE0E992C
:109A2000086087484421443805F0B1F809F1010184
:109A300001EB81032078424603EBC10109E000BF3E
:109A4000AB6A00EB410C03EB4C031B8822F810308F
:109A5000401CA3788342F3DA794852461A214438ED
:109A6000019BFFF7AFFE03990860EF602E81BDE810
:109A7000FF9FF0B5734C059F2668D6F8105296F8F4
:109A80001842BD4202D304F00F040FE0D6F814626E
:109A9000BE4201D8240909E004F00F0CCCEB1414E9
:109AA0007F1B7C43751BB4FBF5F464441668C4F15A
:109AB0001005604306FB050000091060186861434B
:109AC00000FB051000091860F0BD2DE9F74FDFF825
:109AD00074E114464FF00009DEF800000E46217EC6
:109AE000B0F868A086B04F464A464D4609B9B0F86E
:109AF000C8A170780290544836E0069B53F821B014
:109B000031782AE001238B4013EA0B0F24D0D4F8DC
:109B100028C0029B00935B1C03EB830808EBC30384
:109B200001EB43080CEB4803B3F90030534508DD63
:109B3000DDF800C001FB03220CFB03551F4409F1B3
:109B40000109237E012B61D0002B10F8083062D070
:109B500043F0200C00F808C0491C0391B3788B42F5
:109B6000D0DA0299491C0291F37802998B42C4DA47
:109B700007EBC70000EB071A324800234FEAE27CEC
:109B800000684FEAEA7BC18AA1FB020803FB02825C
:109B900001FB0C2152465B4604F088FF0390C7EBA3
:109BA000C7004FEA400827480022EB1700684FEA39
:109BB000E87A018BA1FB050C02FB05C201FB032126
:109BC0004246534604F072FF02900398002800DAE0
:109BD00000201C4D03902968C98A814200DA08469A
:109BE00003900298002800DA002002902968098B6F
:109BF000814200DA08460290E760A4F80890207ECF
:109C000002280BD0012810D000B356E010F808301D
:109C100043F0800C9EE743F0400C9BE7286890F8E7
:109C20008000C00649D5002216E0286890F8801010
:109C3000C90618D590F8A0004007F4D401220BE023
:109C40005C3F10002C0910001E9A0120286890F833
:109C50008000800631D5022202A903A801F070FA23
:109C6000207E012829D1286890F8A010490724D522
:109C700005A9CDE90014B0F91820B0F9161004AB0D
:109C80003046FFF759FE286890F88000C00604D5DA
:109C9000012205A904A801F053FAE0680090DDE96B
:109CA000021005AB04AAFFF7E4FE05A904A8F9F722
:109CB000A9FA0498E0800598A08002A903A8F9F702
:109CC000A1FA039801B26180029800B220802A684C
:109CD00092F8A020520701D4E180A0802AE62DE965
:109CE000F04F8346002448784FF0010ACE781BE0FD
:109CF000451C05EB850707EBC5095BF820C00B7811
:109D00008F780EE00AFA03F515EA0C0F08D0D2F8A6
:109D1000288003EB490508EB4505B5F900502C44B4
:109D20005B1C9F42EEDA401C8642E1DA146193E448
:109D30002DE9F0410746107EF84D14460E460228E4
:109D400007D12968608991F86610884201D90320FB
:109D500020760422314604F11400F9F78AF92246EC
:109D600031463846FFF7BBFF012231463846FFF740
:109D7000A0FC286890F8B00180070BD5207E02284F
:109D800001D0012806D131463846226902F084F814
:109D9000012809D0224631463846FFF796FE204674
:109DA000BDE8F04103F069BCBDE8F08130B599B081
:109DB0001C4615466B46FFF754FC2246294668466A
:109DC000FFF7B6FF19B030BD2DE9F04F9E46834630
:109DD0008A4600204FF6FF755378D77829E000BFF8
:109DE00003EB03140BEB440101F12209147896787C
:109DF0001BE000BF09EB040191F801C0D44512D16A
:109E00000A99D1F82CC0591C01EB810808EBC1015B
:109E100004EB41010CEB41010988884200D208465D
:109E20008D4200D90D46641C24B2A642E2DA5B1CC6
:109E30001BB29F42D4DAAEF8000009990D800BE402
:109E40002DE9F04F9A4681465378DDF824B028E09A
:109E5000B34D03EB031009EB4004AD68223405EB6E
:109E6000400522351078012716E0261876788E42B4
:109E700010D15E1C06EB860808EBC606DBF82CC08A
:109E800000EB46060CEB4606B6F90060564501DDD0
:109E90002E187770401C00B296788642E5DA5B1C7B
:109EA0001BB2D0789842D3DA41E72DE9F0479B4FB7
:109EB0008146C8B038681D46884690F8706047A84B
:109EC000CDE90005144646AB4846FFF77DFF287EE6
:109ED00030B994480078012838682AD090F8CE61CB
:109EE000BDF81811BDF81C016422091A7143B1FBB9
:109EF000F2F18B4F0E1840F25231B86804F047FE71
:109F0000B3B22246414648460095FFF799FF2068C4
:109F1000029002AB2FAA0121B868FFF7B0FA0646FB
:109F2000012820D901240DF1BC0A0DF10809B84619
:109F300014E090F8EC66D3E73AF81400688109EB76
:109F400084072946384601F062F92B463A462146F5
:109F5000D8F80800FFF72AFF641CE4B2B442EBD93A
:109F600048B0BDE8F0872B46224641464846FFF7F9
:109F70001DFFF5E72DE9F84F6B4DDDE90A8795F8F0
:109F800000C0664D147896782D68BCF1010F1DD085
:109F900095F87150DFF888C1A94603EB031500EB73
:109FA0004500DCF808C022300CEB4505D8F82CC081
:109FB00003EB830808EBC3034FF0340808EB83037B
:109FC000223563444FF001081CB10CE095F8C950EC
:109FD000E0E744788C4205D1B3F90040BC4201DD92
:109FE00085F80180012492F802C0BCF1190F5DD1FF
:109FF000461C1CF806608E4206D1B3F93260BE42A0
:10A0000002DD6E1C0CF806809278521ED6B24DE02E
:10A01000021952788A4247D133F91420BA4243DDFB
:10A0200003EB440B02EB090A3BF902CC4FF0000EA4
:10A03000CDF800C0E24503DABBF902C0E24533DBEC
:10A04000012C17D0182C20D0DDF800C0E24505DA2D
:10A05000BBF904C0E24501DA4FF0010E3BF904CC34
:10A06000E24503DABBF902C0E2451DDBBEF1000F99
:10A0700017D019E0B3F902C00CEB0902B3F900C024
:10A0800062450EDAB3F906C009E0B3F930C00CEB53
:10A090000902B3F92CC0624503DAB3F932C0624554
:10A0A00002DB2A1982F80180641CE4B2B442AFD901
:10A0B000BDE8F88F2DE9FF4F97B092F80180D7786F
:10A0C0000020ADF83C00ADF8480015901648134D3F
:10A0D0001E46017828681446012929D010F1710024
:10A0E0000FAB90F8009090F801A012A8CDE90006FF
:10A0F000DDE91701FFF768FE28680C4990F8760043
:10A10000C0B1BDF83C20BDF848300988D21A42439E
:10A110006420B2FBF0F0084405B20DE02C091000F9
:10A12000CC0A10008609100053091000140B10000F
:10A13000C930D5E7B1F90050607848B9CDE900657C
:10A14000DDE917014FF0010800232246FFF712FF57
:10A15000E0780E2808D1CDE90065DDE917010D276B
:10A160000E232246FFF706FF4146F9E0179A01EB5E
:10A17000011002EB4003FF4A22336FF0330C926868
:10A1800002EB40002230079001EB810000EBC100A0
:10A19000F26A0CEB800C9444CDF820C002EB800CEA
:10A1A000CDF808C04FF0340C0CEB800C02EB0C0B1C
:10A1B0004FF0680C0CEB800C02EB0C0E4FF09C0C7B
:10A1C0000CEB8000104409902078C3E01A1892F834
:10A1D00001C0189A94457DD13BF910C0AC4579DD9A
:10A1E0000022DDF8088014920CEB090238F9108087
:10A1F000CDF82C80424507DA3EF91080424503DA5B
:10A200004FF00108CDF85080E8B319283BD00BEB94
:10A210004008CDF80C8038F9028CCDF840804245DA
:10A2200009DADDF80C80B8F90280424503DA4FF014
:10A230000108CDF850800CEB0A08CDF83080DDF82D
:10A2400008C00CEB400CCDF84CC03CF902CCE0450A
:10A250000ADAC4460EEB4008B8F90280C44503DAB6
:10A260004FF0010CCDF850C0DDF84C80DDF830C067
:10A27000B8F90280C44505DA0EEB400838F9028CC3
:10A28000C44565DB00E044E0DDF850C0BCF1000FE0
:10A290005ED10D290FD0DDF82CC0624509DADDF85A
:10A2A00024C03CF910C0624503DA4FF0010CCDF830
:10A2B00050C001290DD0DDF820C03CF910C0624526
:10A2C00007DA3EF910C0624503DA4FF0010CCDF811
:10A2D00050C000E01FE001281ED0182827D0DDF86C
:10A2E00040C0624509DADDF80CC0BCF904C0624523
:10A2F00003DA4FF0010CCDF850C0DDF80CC03CF98A
:10A3000004CC624505DADDF80CC0BCF902C0624538
:10A310001EDB149AB2B11BE0BBF902C00CEB0902C0
:10A32000BBF900C06245F4DABBF906C0EFE7BBF940
:10A3300030C00CEB0902BBF92CC06245E9DABBF96D
:10A3400032C0E4E7079A4FF0010C024482F801C0E2
:10A35000401CC0B2A2788242BFF438AF491CC9B2D7
:10A36000B9427FF603AF15981BB0E0E42DE9FF4F2B
:10A37000804DC5B0002740F25231A86804F007FCB8
:10A3800045AC0FCCFFF796FE479909680091D0BB0A
:10A390006B462DAA0021A868FFF771F80646012830
:10A3A00031D903F0CDF90124DFF8CC810DF1B409E6
:10A3B000EA46A3461AE000BFD8F8001039F81400A6
:10A3C00091F87510884210D985F800B04899012796
:10A3D00048810AEB84004490489900F018FFE1B2EC
:10A3E000489B449AA868FFF7E1FC641CB442E3DD93
:10A3F000D8F8000090F84004800702D4002003F051
:10A40000A4F9002F03D145AC0FCCFFF7CFFC49B026
:10A410008DE42DE9F04700269946824634463346BE
:10A4200009EB0300401E0F2819D200EB800505EB55
:10A43000C0050AEB8507343703EB4305002001EB29
:10A44000450815186D1E1A2D06D238F910C037F9B7
:10A450001550644405FB0C66401C0328F1DB5B1CB3
:10A46000032BDDDB04B9012496FBF4F079E52DE93B
:10A47000FF4F81B00C464178DDF838B001B1491E7C
:10A4800001F0FF0AC1780E2901D2491C00E00E211B
:10A49000CEB2017801B1491E807801F0FF09192878
:10A4A00001D2401C00E01920C5B2B4F912000AF133
:10A4B0000102009064E000BF02EB820000EBC200EA
:10A4C00004990BEB8003343301EB800E09F1010199
:10A4D000521C4DE002EB820000EBC20001EB400792
:10A4E000049800EB4700039FB0F90200B8423BDD3F
:10A4F0000EEB4100B4F90080B0F900C000270CFB5E
:10A500000877B0F902C0B4F902800CFB0877B0F903
:10A5100004C0B4F904800CFB0877B0F934C0B4F976
:10A5200006800CFB0877B0F936C0B4F908800CFB44
:10A530000877B0F938C0B4F90A800CFB0877B0F995
:10A5400068C0B4F90C800CFB0877B0F96AC0B4F9A4
:10A550000E80B0F96C000CFB0877B4F910C000FB5A
:10A560000C70009F90FBF7F023F81100491C09B212
:10A57000A94203E0CC0A10002C091000AADB12B299
:10A58000B24299DB574619E007EB870000EBC701A1
:10A590000BEB810101F134083B464A462146049801
:10A5A000FFF737FF28F819003B462A462146049852
:10A5B000FFF72FFF7F1C28F815003FB2B742E3DDFD
:10A5C00006EB860000EBC6010BEB810034300AEB92
:10A5D0008A0101EBCA0100900BEB810000F1340805
:10A5E0004F4612E053463A4621460498FFF711FFC2
:10A5F00028F8170033463A4621460498FFF709FF2A
:10A60000009921F817007F1C3FB2AF42EADD05B088
:10A6100015E4F8B5FF491046069A09781D46022947
:10A6200014D2FD4CFD492E7E236809687EB191F855
:10A630004060B6060AD5012A08D10093B1F9582026
:10A64000F74BF849FFF713FF2068E862F8BD91F86F
:10A65000C061F706FAD5B60609D50093B1F9C42151
:10A66000EF4BF149FFF703FF2068A862F8BD012A0C
:10A67000FCD10093B1F9C421E2E7F0B4E54C2678AF
:10A68000E64C256816B1B5F8024101E0B5F8004185
:10A690001E7E64431EB195F86050EE0701D0F0BCF9
:10A6A00003E4AD0705D5E14D2D68A54201DAF0BC04
:10A6B0005CE6F0BCFFF77ABB2DE9F04700258A463F
:10A6C0001A260F27814629465FF0010401EB01138A
:10A6D00009EB43032233284652F8218004FA00FC98
:10A6E00018EA0C0F08D003EB000C9CF80180B8F1BD
:10A6F000000F01D18CF801A0401CC0B2B042EBD3D6
:10A70000491CC9B2B942E1D32BE4C24A10B5127850
:10A7100001243AB9C14A126892F86020120718D58C
:10A72000012916D181780278891A01D5C1F1000179
:10A7300001F10101CAB2C1784078081A00D540423F
:10A74000401CC1B21046F8F772F9C0B2012800D11E
:10A750000024204610BD2DE9F04F9E46AF4B8A469F
:10A76000834601205178D678D3F8009026E000BFC8
:10A7700001EB01140BEB440422341378957819E0B3
:10A78000E71897F801C0D44512D14F1C07EB870892
:10A7900008EBC707DEF828C003EB47070CEB4707B9
:10A7A000B9F8D2C1B7F90070BC4501DA002003E066
:10A7B0005B1C1BB29D42E3DA491C09B28E42D7DA18
:10A7C000BDE8F08F30B5954C994A2468B2F9003055
:10A7D000984A34F9A85FB2F90020B4F9024029B9C7
:10A7E0009549B1F900309549B1F90020A04201DD49
:10A7F000104630BDA84201DA184630BD201AD11AE1
:10A800004843611B90FBF1F0101A00B230BD2DE9F6
:10A81000FF4F824E1D464FF0000B13785478D6F848
:10A8200000C082B0584659465FEA030E03D16CB1AE
:10A83000D3780E2B0AD09378192B03D134B1D67864
:10A840000E2E03D092F80390AE6A2CE0BCF8AA005A
:10A85000801CA5F82300FCE004EB840202EBC40793
:10A86000342202EB870232440192029A04EB04176D
:10A8700002EB470202F1220A27B2724600970FE06C
:10A880000AEB020797F80180039FB84507D1019FA3
:10A8900037F912705F4502DD0099BB4610B2521CB9
:10A8A0009342EDDA641CA145D6DA01EB810202EB9A
:10A8B000C10E4FF0340303EB8E0232444FF0FF33EE
:10A8C00032F910801C46461E03D402EB400434F9D2
:10A8D000024C461C1A2E03DA02EB4002B2F9023097
:10A8E000621C00D11C465A1C00D123461A19C2EB27
:10A8F000480217B29CF8F127DFF824A19146022AFA
:10A9000007D1AAF80040AAF80280AAF80430AAF8F1
:10A91000067001F1010C0CEB8C0303EBCC03AA6A6B
:10A9200000EB430302EB4303B1F10108B3F900B0BC
:10A930004FF0FF331C4605D400EB4E0302EB4303FC
:10A94000B3F90030BCF10F0F0ADA8C1C04EB840859
:10A9500008EBC40400EB440402EB4402B2F90040EB
:10A960005A1C00D12346621C00D11C4604EB03088C
:10A97000C8EB4B02DFF8A4E012B2B9F1020F08D124
:10A980009846AAF80880AAF80AB0AAF80C40AAF8D3
:10A990000E2038B1192805D019B10E2901D09742DF
:10A9A00000DC3A46F346B9F1020F01D1AAF81020B3
:10A9B0000024491E4FF0340E15E00F2912D201EB8E
:10A9C000810303EBC108AF6A0EEB88031F44431EEB
:10A9D00006E01A2B03D237F81380444424B25B1CE0
:10A9E000B342F6DD491C6145E7DDFA20424392FBA4
:10A9F000F4F004B25E46B9F1020F01D1AAF8124098
:10AA0000A5F8234001212046FFF7DCFE316891F8CC
:10AA1000F11715E0510910005C0910002C09100015
:10AA2000BEA6012056EF000042EF00001C0B1000F4
:10AA3000140B1000160B10000C0B10000E0B100066
:10AA4000022901D1AAF81400FE490C80298C814208
:10AA500002DD012006B0B3E60020FBE72DE9F04F50
:10AA60008146DDE909A5002028809B4654782BE02B
:10AA700004EB041609EB460C04EB840606EBC40653
:10AA80003427DAF8283007EB86061E440CF1220C36
:10AA9000137814E00CEB03077F788F420DD12F88D9
:10AAA00036F8138047442F8036F91370874204DD4F
:10AAB000ABF802303846ABF800405B1CDBB297784D
:10AAC0009F42E7D2641CE4B2D378A342D0D277E6A7
:10AAD0002DE9FF4F81B018780E9C92461E46A0705B
:10AAE000987820705878E070D87860704FF000083F
:10AAF0005F784CE0019907EB071001EB400101F191
:10AB000022090299342201EB400000F1220B109837
:10AB100007EB870101EBC701806A02EB8101084462
:10AB2000009035782EE000BF09EB050041785145D3
:10AB300026D1009830F915100F9881421CDD08F1DC
:10AB400001001FFA80F821782846F7F770FF20707F
:10AB500061783846F7F76BFF6070A1782846F7F701
:10AB60006AFFA070E1783846F7F765FFE0700BEBFD
:10AB7000050080F801A003E00BEB05000021417007
:10AB80006D1C2DB2B078A842CEDA7F1C3FB2F078AF
:10AB9000B842AFDA0FFA88F039E5017811B181785F
:10ABA000192904D1417821B1C0780E2801D00020A4
:10ABB00070470120704730B59AB0054600228DF8E5
:10ABC000642019208DF866008DF865200E208DF820
:10ABD00067000C466B4619AA2846FEF742FD002284
:10ABE00019A96846FEF765FD6A4621462846FFF723
:10ABF00063FD1AB030BD2DE9F14FE4B00026924854
:10AC0000924CADF8646100686060914D00F2523082
:10AC1000A0602968B246B046B1F90E125B91B14608
:10AC200040F2523103F0B3FF286890F86010CA0771
:10AC300001D1890701D54FF0010A86490978012918
:10AC400025D090F8C001C0F3C00083467F4C00209F
:10AC5000119011AB3FAA01216068FEF710FC794901
:10AC60007D4E054608731A2163680122012002EB1C
:10AC7000021400BF00EB4407401CDF5D7754491C01
:10AC80001A28F7DD521C0F2AF0DD0124F3E190F8B9
:10AC9000E006C0F34000D8E770480F901090E1B292
:10ACA0003FA88DF8361030F81400ADF81E0059AAF0
:10ACB00005A8CDE9000211A800EB840263480392C5
:10ACC0005FAB4068FFF7CAFE0746ADF834005F4946
:10ACD0000020ADF837000870BDF97E0178B1BDF9EC
:10ACE0007C1161B119280AD00E2908D000205849DA
:10ACF0005A90086890F8F127042A02D008E0012051
:10AD0000F5E7564A04231380BDF8643122F8143065
:10AD100090F8A010C90773D04E49097800296FD167
:10AD20004F4A90F8A730128893424E4A127801D2C7
:10AD300012B165E0022A63D2BDF964315B9A934295
:10AD40005EDA01228DF82C2090F8A4103E9145493E
:10AD50000978012905D190F8BC203E99114489B2A7
:10AD60003E915A99012933D090F8A5003E49589058
:10AD700005A8B1F9002057A90091CDE90120334879
:10AD8000E2B2001D039B03C8FFF7A2FE80B2ADF83C
:10AD90001E0030553E99884232D9589988422FD8A2
:10ADA0003149B1F900108F422ADD012813D027D98B
:10ADB0002748006890F8A000800711D52348E1B229
:10ADC00005AB57AA8068FFF722FD012808D017E0DD
:10ADD00090F8A600CAE72548B0F9000087420FDDC9
:10ADE0000220ADF82E00ADF8300000208DF82D00C7
:10ADF00016484FF00108E1B205AB57AA406830E1B0
:10AE00005A990398FFF781FC01287DD11848B0F9C1
:10AE10000000874279DD3FAF37F81410569115498D
:10AE2000B1F9001081422EDA57AACDE90020074877
:10AE300005A902914168E2B2039B0846FFF748FE6C
:10AE4000014619E0A21F100058091000CC0A10009A
:10AE50002C091000860910001E9A0120BEA60120B0
:10AE6000DA0A100051091000160B1000180B100020
:10AE7000140B10000A0B100027F814000398579ABF
:10AE80000260ADF81E108448006890F86520834881
:10AE9000007850B10398FFF780FE01287E480068D3
:10AEA0003AD090F8BD00104482B23FA830F81400A8
:10AEB000904229D905A87A4F00904FF00108C14669
:10AEC000E3B2039A0F98796800F0BDF93FA830F813
:10AED00014107148006890F8672091421FD2022137
:10AEE000704B8DF82C10BDF832109982B0F86E00BE
:10AEF0005246814200D200225698032812D3002ADB
:10AF000010D0E1B205AB01E091E00CE00092039AB1
:10AF10007868FFF77EFBA0E090F8C300C3E7042049
:10AF20008DF82C00A0E05C49086890F8C021D20799
:10AF30007DD05D4A1268002A79D05C4A1278002AD6
:10AF400075D18DF82C2090F8C001400705D55448E4
:10AF5000E1B211AA4068FFF72EFE47F6FF70589045
:10AF60005348007801280FD05A980128514800789A
:10AF70000FD001284848006815D090F8CB71474899
:10AF80000078012812D017E04348006890F8E17675
:10AF9000F5E701284048006802D090F8CD71EEE74F
:10AFA00090F8CC71EBE790F8CA71E8E73A4800688E
:10AFB00090F8D901384487B23F48B0F900103F48B3
:10AFC000B0F90000814213DA57AACDE900203448D5
:10AFD00005A902914168E2B2039B0846FFF778FD9C
:10AFE0003FA921F814000399579A0A60ADF81E0092
:10AFF0003FA830F81400B8423CD95899884239D853
:10B0000064990220264F087005A80090E3B2039AC5
:10B010000F98796800F017F9CDF800B0E1B205ABF0
:10B02000039A7868FFF7F5FA1B48006800E021E012
:10B0300090F8C00180070DD51E480078012809D17D
:10B04000E1B205AB039A7868FFF785FB012801D1CF
:10B050001B490870BBF1000F06D0E1B205AB039AA3
:10B060007868FFF70AFB05E0E1B205AB039A786860
:10B07000FEF79CFE641CAC427FF60EAE114981F8CF
:10B080000080114981F8009065B020E50548002155
:10B0900001730180704700002C0910005109100055
:10B0A000CC0A1000A21F10009C01002245091000CC
:10B0B000860910004D0910000A0B10001A0B100031
:10B0C000080B10004B0910004C091000F0B5B2F944
:10B0D00000400568AC4202DDB3F900102EE002EB3F
:10B0E000410434F9026CAE4204DA03EB410131F958
:10B0F000021C23E00024491E0BE000BF32F914704B
:10B10000AF4205DC02EB4406B6F90270AF4202DA48
:10B11000641C8C42F2DB32F9146003EB440133F916
:10B120001430B1F9021002EB4402AD1BC91AB2F996
:10B1300002206943921B91FBF2F119440160F0BDBA
:10B14000F0B50E462549096801F275432AB3012A74
:10B150002CD0022A33D0032A3ED191F811C601F235
:10B16000126291F8104602EB4C0303EB4C0707EB1D
:10B17000440500BF0CEB04013E292DDCBCF1010F9E
:10B1800002DD6146FFF7A2FF012C25DD2B463A4682
:10B1900021463046BDE8F04098E791F870C491F838
:10B1A000714403EB4C0591F8721410E091F870C4EF
:10B1B00091F8714403EB4C0591F8731407E091F892
:10B1C00070C491F8714491F8741403EB4C0503EBCF
:10B1D000410202EB4C07CDE7F0BD00002C09100046
:10B1E00010B58C1A00D56442002800DA404204EB06
:10B1F000400011440A18081A521040104FF47A7196
:10B20000484390FBF2F0C0F57A70D88310BD30B59A
:10B21000827803784D89D21AC3784078521C1B1A61
:10B220005B1C05FB02F0D4185D4340006A00B0FBD4
:10B23000F4F0B2FBF4F2904202D948838A8330BD25
:10B240004A83888330BD2DE9FF4F0027164683B01F
:10B250003A463C46BC46BB46BA46707896F80390E0
:10B2600026E000BF049900EB001301EB43012231FB
:10B2700001913178009196F8028016E0019B0B4411
:10B280005D78069B9D420FD1A9EB000303F1010EEF
:10B29000009B0EFB0EAACD1A6D1C05FB05BB05FB22
:10B2A0000ECC7F1C2A447444491C8845E6DA401CB5
:10B2B0008145D7DA4FF47A70504390FBF7F04FF4A2
:10B2C0007A71614391FBF7F700FB04F14FF47A7355
:10B2D000504391FBF3F1ACEB0105674390FBF3F1B5
:10B2E00097FBF3F2109B0298ABEB01015876AAEBA7
:10B2F00002022846109BFFF773FF109907B03046F3
:10B30000BDE8F04F83E70000FD4900200870FD49CB
:10B310000870FD4908707047FC4930B40020FC4AB1
:10B32000087001211170FB4A1070FB4A1070FB4A33
:10B330001070FB4A1070FB4A1070FB4A1170FB49F9
:10B34000FE4A0870FA490870FA4908708860C860B7
:10B350000861F9490968B1F862301380B1F8A12099
:10B36000F74CF84D2280B1F80C422C80F64DB1F824
:10B37000C6112980F54D2B80F54B1A80F54A1480B3
:10B38000F54A1180F549088030BCBDE72DE9FF4F33
:10B39000814681B010201A228E460123CDF800008C
:10B3A000002447F6F870414201252746AB46264661
:10B3B00003FB026C39F81CA03EF81CC0ACEB0A0C75
:10B3C0000FFA8CFC604500DD6046614500DA61469D
:10B3D000BCF1000F02DA4FF0000502E001DD4FF092
:10B3E000000B06F101069642E2DB55EA0B0606D099
:10B3F000012D01D035B109E0BBF1010F00D10020D2
:10B40000002117E0BBF1010F00D108465FF00001F9
:10B4100003FB021539F815603EF815500644AD1BC4
:10B42000049E2DB2B54204DA7642B54201DD2C44C9
:10B430007F1C491C9142EBDB002F01DD94FBF7F4EC
:10B440002118002009E000BF03FB0204039E39F825
:10B450001450401C0D4426F814509042F4DB009820
:10B460005B1C83429CDB05B0BDE8F08F2DE9F00347
:10B47000C2F11007CAB1012B17D0B94B1B78012BB1
:10B4800017D000234FF4D07531F9134030F9136011
:10B49000544306FB074444F30F1421F813405B1C8C
:10B4A000AB42F1DBBDE8F0037047BDE8F003F7F70E
:10B4B00004BEA14B002505EB8506002406EBC5095B
:10B4C0000FE000BF04EB4906641C31F916C030F9E7
:10B4D00016800CFB02FC08FB07CC4CF30F1C21F878
:10B4E00016C01E6896F8E066B4EBD60FEADD6D1C58
:10B4F000102DE0DD9B4E00224FF0010C186802EB8E
:10B50000820404EBC20590F8E0060CEBD00006E0E4
:10B5100000EB4504401C36F8147021F814701A280A
:10B52000F6DB521C102AE9DDBCE72DE9FC5F0C4676
:10B53000074693461E4600254FF00108342239463F
:10B5400004F16800F7F795FD342207F5507104F116
:10B550009C00F7F78EFD00274FF01A094FF0300AD4
:10B560001A2107FB01F0CDE900A904EB40003023CC
:10B5700002462146F7F79BFE7F1C042FF0DB0021DB
:10B5800004EB410234F91100B2F96830C01A002806
:10B5900001DB034601E0C0F10003A2F8D03001DA7C
:10B5A000C0F10000B04200DD6D1C491C1A29E7DB28
:10B5B0005FF0000104EB410234F91100B2F99C3054
:10B5C000C01A002801DB034601E0C0F10003A2F825
:10B5D000043101DAC0F10000B04200DD6D1C491CED
:10B5E0001A29E7DB04F59C7445F2AA502080658097
:10B5F000A6805D4501DD4FF000084046BDE8FC9F98
:10B600002DE9F043564A0026354613784A4A012B65
:10B61000146821D0B4F8F6321A224FF4D07900BF62
:10B6200031F9127030F912C007EB0308C44505DD8B
:10B63000BCEB070700D57F423E446D1C521C4A45B7
:10B64000EEDB3C487EB194F83610A9420BD2C168BB
:10B6500029B10120BDE8F083B4F8F136DCE701211F
:10B66000C1600020F6E70021FAE72DE9FF5F8B4675
:10B670003B48314916460025027801240868A8464F
:10B68000A946012A79D090F8372000BF02F00F02B6
:10B6900090F8200002EB82024FEA42078A46000738
:10B6A00023D53248304A01680098F7F7D8FB304874
:10B6B0002D4902680B68D1F804C0D21A4368A3EB85
:10B6C0000C031A448368D1F808C0C068C968A3EBAA
:10B6D0000C03401ADAF800101A441044B1F878103C
:10B6E000814202DA00244FF00108DAF8000090F8F5
:10B6F000200080074CD51F48007800B148E03FE0AB
:10B700004D091000080B10004509100049091000F0
:10B71000420910004A0910004B0910004C091000A2
:10B7200047091000480910006D0910006E0910004B
:10B730007F091000D80A10002C0910000C0B100013
:10B740000E0B1000100B1000120B1000140B100049
:10B75000160B1000180B10001A0B10000A0B10002B
:10B76000860910004E000120001F10006009100023
:10B77000F01E100051091000FFE790F8F32685E74E
:10B7800059460098FFF73CFF10B100244FF0010923
:10B79000FE4800210278AAB131708268521C826092
:10B7A000DAF8003093F837301B0903EB8303B2EB70
:10B7B000430F28DD816001700125F548B8F1010FC4
:10B7C00016D019E014B1816034701CE08268531CFB
:10B7D0008360BA42F8DD012202708160DAF800204D
:10B7E00092F837201209EFD1017001253170E4E79A
:10B7F000016841F480710160B9F1010F03D1016862
:10B8000041F40071016004B02846BDE8F09F2DE9C5
:10B81000F05FE048E04900680978B0F9A140B0F96C
:10B820000C32B0F9622001290AD0B0F9C611DB4D03
:10B830002E78D84D012E2D6895F8C0E103D012E086
:10B84000B0F9E216F3E7D64D2D6865B1B0F9AD4019
:10B85000B0F96C205FEA8E7505D5D24D2D78012D9B
:10B8600001D1B0F96A20D04D2D78012D33D0022DB1
:10B8700007D3B0F8BE1009B1B0F9BE201446234674
:10B880001946CA4D2C80CA4D2B80CA4D2A80CA4DFC
:10B89000298090F86450551B2EB290F8A350671B76
:10B8A0005D1B0FFA85FC90F8C3513FB24D1B0FFA98
:10B8B00085F8C24DBB46E2462F80C14FC146A7F86E
:10B8C00000C0C04F3E80C04FA7F80080BF4F3F78F8
:10B8D000012F0FD04EE090F8BA502C442B4490F832
:10B8E000BB5024B22A4490F8DA511BB2294412B258
:10B8F00009B2C6E790F8CC704FF0640C07FB02F871
:10B90000B8FBFCF84244DFF8AC82A8F8002007FB43
:10B9100004F8B8FBFCF8A54A4444148007FB03F480
:10B92000B4FBFCF4A24A2344138007FB01F3B3FBEE
:10B93000FCF3A14A1944118007FB06F2B2FBFCF2AA
:10B94000A04932440A8007FB0BF1B1FBFCF202EB89
:10B950000B0107FB0AF2B2FBFCF303EB0A0229809E
:10B9600007FB09F79649B7FBFCF30A80964903EBFE
:10B9700009020A8090F8A000C0070AD18D488B49BF
:10B980008B4A008808808F490988298010808C485C
:10B9900001805FEACE7002D08148006830B98348E8
:10B9A0000188854801808848298801808648B0F947
:10B9B00000208448B0F90010B5F90000F7F73FF80F
:10B9C0008349088021E710B54FF4D0735FF01A0265
:10B9D00030F912408C4201DD012010BD521C9A4208
:10B9E000F6DB002010BD2DE9F047824679488946F4
:10B9F000154600680024064640F2A46103F0C7F82B
:10BA000000201A2201210F46C5F8000001EB0110A9
:10BA100006EB400C5FF0010039F91230521C53451F
:10BA200007DD0CF80070D5F80080641C4344A4B214
:10BA30002B60401C1A28EFDD491C0F29E6DD20464B
:10BA4000BDE8F087F0B500244FF4D0751A232646E0
:10BA500030F91370974202DA21F8136000E0641C99
:10BA60005B1CAB42F4DB4B480068B0F89A00A04284
:10BA700001DD0020F0BD0120F0BD70B500230022E3
:10BA80005FF0010505EB850404EBC50403EB4404FA
:10BA900030F91440002C17DD0AB1944200DA224636
:10BAA0006D1C0F2DEEDD002A0EDD012404EB840554
:10BAB00005EBC40503EB4505641C30F81560B61AA8
:10BAC00021F815600F2CF1DD5B1C1A2BD7DB70BD44
:10BAD0002DE9F04310271A25DFF8B890002200BFA7
:10BAE000D9F8003093F85C30642B06D9643B03FB33
:10BAF00002F494FBF5F41C1B04E0C3F1640353430C
:10BB000093FBF5F4643401234FF0640803EB8306E0
:10BB100006EBC30602EB460C30F91C60002E04DD78
:10BB2000664396FBF8F621F81C605B1CBB42EDDB1C
:10BB3000521CAA42D4DB8DE52DE9F04F894610272F
:10BB40001A24DFF850B001214FF00F0ADBF8002073
:10BB500092F85D20642A06D9643A4B1E534393FB46
:10BB6000FAF3D31A05E0C2F164024B1E5A4392FB6A
:10BB7000FAF301EB810202EBC102643300EB8205B0
:10BB800009EB820600224FF0640C31E0D80A100065
:10BB9000380910002C091000860910004D0910000A
:10BBA0009C010022080B1000510910000E0B100020
:10BBB000100B10000C0B1000120B1000160B1000D5
:10BBC000180B1000140B10001A0B10005309100072
:10BBD0000A0B10005809100035F91280B8F1000F57
:10BBE00005DD08FB03F898FBFCF826F81280521CD0
:10BBF000A242F1DB491CB942A8DB35E42DE9FE4F36
:10BC000005468D484FF00008007810B18B4901209F
:10BC100008708B49002603200C780E70F4F71FFD86
:10BC2000FFF7F5FD87482346874902682846FFF756
:10BC30001DFC234602AA85498348FFF716FD0446EA
:10BC40009DF80800DFF808924FF4806AF0B3814C49
:10BC5000206890F84000800710D57F48B0F9002098
:10BC60007E48B0F900107E48B0F90000F6F7E7FE14
:10BC7000754A03B275491046FFF788FB794D734A40
:10BC800071482968F7F79DFB0320F4F703FD20684E
:10BC900090F84000400703D529680846FFF7EDFEFD
:10BCA000206890F84000000703D529680846FFF790
:10BCB00043FF206890F84000C00603D52968084675
:10BCC000FFF706FF216891F8B00100E002E0C2072B
:10BCD00016D10FE00320F4F7DDFC012C09D1D9F8CF
:10BCE0000010012041F00501C9F800105146F4F799
:10BCF000C5FB79E0800703D491F84004800703D5A1
:10BD000059492868F7F7D9F92068584F90F860101A
:10BD1000490708D52968B0F968200846FFF792FE60
:10BD200001281BD03E6152480078022835D028688F
:10BD300050493430F7F7C1F9DFF83CB14D48BBF951
:10BD400000103438FFF73FFE4C4DDFF834A1DFF828
:10BD500034912978D9B301285AD03BE03869401C86
:10BD60003861216891F8F42602F00F028242DADA93
:10BD70003E6191F860008006D5D5D9F800104248A0
:10BD800041F00501C9F80010016841F480610160CB
:10BD900051460120F4F772FBC5E7206890F8401087
:10BDA0004906C9D58DF804608DF8056019218DF814
:10BDB00006100E218DF807102E4934390091B0F984
:10BDC0005A20324901A82B68FEF751FBB4E7FFE780
:10BDD00001280CD02E482E702E4906708AF800607B
:10BDE000087808B1401E08704046BDE8FE8F1B4829
:10BDF000B0F900101F483438FFF7E5FD2870A9F8A6
:10BE00000060206890F82901000701D5FDF70DF8C2
:10BE10004FF00108154A17498AF80080121D34397D
:10BE2000BBF90000FFF7DFFD7880B9F800208242FF
:10BE3000DAD2A9F80000D7E7860910004D091000F2
:10BE400042091000F40A1000FEA001204E0001205B
:10BE5000300910002C091000120B10000C0B100000
:10BE60000E0B10005809100016230120D80A1000EC
:10BE700051091000F2A601200A0B10004B09100016
:10BE80004A091000400910003809100042EF000074
:10BE90004C091000450910002DE9F74F9146234A3F
:10BEA00000200446156895F8B02192073CD5204A39
:10BEB0001278002A38D14B78DFF878E04FF0010B88
:10BEC00091F803C01CE0009A8F7852F8238003EBAE
:10BED000830202EBC3060EEB860202F1340A0A78F3
:10BEE0000BE000BF0BFA02F616EA080F04D03AF98D
:10BEF0001260002E00DA3444521C9742F2DA5B1CC6
:10BF00009C45E0DA0CB94FF0FF34642209FB02F1E2
:10BF1000624291FBF2F1B5F8BC218A4204DDB5F82A
:10BF2000BA214A4500DD0120BDE8FE8F2C09100032
:10BF30005109100016230120FA48FB4A006830F826
:10BF4000E81F1180F9498079C8807047F7480021BF
:10BF5000F44A41808180C160126892F8432012093E
:10BF6000826001610170F248017070472DE9F04173
:10BF7000EC4DED4A2E6896F8D010B6F8E830C907B7
:10BF800044D096F8ED4004B90124118896F8ECC02D
:10BF9000CF1A07FB0CF797FBF4F4B6F8EA700F44DE
:10BFA0002744E24CB84211DD002610210120E66052
:10BFB000F4F764FA286890F86010490602D5DD4A63
:10BFC00001211170A68090F8EE0006E0814202D9AE
:10BFD000D74D2D7825B196F8EE00E080BDE8F081D0
:10BFE000D54D2D78002DF9D1B4F90650002D01DD85
:10BFF0006D1EE580E488002CF0D1891E814200DAB4
:10C0000001468B4200DD19461180E7E71380E5E722
:10C01000F0B5C449C54D096891F84020D20753D006
:10C02000C34A1778C54A1278AFB1012A09D091F8EE
:10C030004330B1F84A6003F00F021C09B1F84830F0
:10C0400015E091F84D30B1F8546003F00F021C096F
:10C05000B1F852300BE0012A1AD011F8423F03F038
:10C060000F024FEA13144B888E88A1F1420191F818
:10C0700020C15FEACC7C16D0DFF8C4C2BCF800C097
:10C080005FEA4C5C0FD591F8251157B10A090AE017
:10C0900011F84C3F03F00F021C094B888E884C3975
:10C0A000E5E701F00F02984201DCAA60F0BDB04262
:10C0B00001DBAC60F0BDC01AA11A4843F11A90FB35
:10C0C000F1F01044A860F0BD0020FBE7954A10B5E0
:10C0D00012680021B2F8B830834205D292F8B0302D
:10C0E0001B0701D5032112E0B2F8B630834205D216
:10C0F00092F8B0305B0701D5022108E0B2F8B43005
:10C10000834204D292F8B000800700D5012187480D
:10C11000874C0378994211D1217899420AD0864AF6
:10C120001278134307D00169491E0161002901DC1F
:10C130000078207010BD01700169F7E759B102293C
:10C1400001D1012B07D092F8B22002610170002AC0
:10C15000F0DC217010BD92F8B320F6E77149096850
:10C1600091F8B010CA0671490DD58A88831A002B40
:10C1700009DC714B1B784BB1C2EB0212520002EB8F
:10C180004000C0F34F10888080B27047C2EB82122B
:10C190001044C0F38F10F6E72DE9F041614D0646DB
:10C1A000A2B02F68802197F8B10000F00F04641C42
:10C1B00002A802F00EFD97F85F04C00716D0002712
:10C1C0004FF01A0810E01A2107FB01F0296806EB6E
:10C1D00040000246B1F96234CDE90038B1F960346B
:10C1E0003146F7F764F87F1CA742ECDB002202A976
:10C1F00011E01A2002FB00F35FF0000003EB000CDB
:10C2000051F8207036F91CC0674441F82070401C7A
:10C210001A28F3DB521CA242EBDB002051F820204D
:10C2200092FBF4F241F82020401C1A28F6DB002093
:10C23000024600273B4610E003EB830C0CEBC30CDB
:10C2400002EB4C0C51F8228036F91CC0BCEB080CF8
:10C2500001D5CCF1000C67445B1CA342ECDB97FBDF
:10C26000F4F32F6897F820C15FEACC7C10D0DFF898
:10C27000D0C0BCF800C05FEA4C5C09D597F82471C7
:10C280004FEA171C0CFB03FC07F00F039CFBF3F3B6
:10C29000834200DD1846521C1A2ACADBB0F5803FE3
:10C2A00003DB4FF6FF7022B098E680B2FBE710B5D3
:10C2B000FFF772FFFFF752FF1C4C4FF00051020ACC
:10C2C00060804A738873FFF701FF6088FFF7A0FE64
:10C2D0006088BDE8104049E6124930B40968134A45
:10C2E00091F8B11001F00F03D1685B1C91FBF3F4DE
:10C2F00003FB141101EB810404EBC101114C04EBAD
:10C300008104002130F8115024F81150491C1A29D9
:10C31000F8DBD068401CD060984215DB30BC09487F
:10C32000C5E700002C091000981F1000EC0A10004F
:10C33000510910007F0910004B0910004D09100031
:10C3400068091000FE9C012030BC704731B568467A
:10C35000FEF751FCBD4C2078022805D19DF8000065
:10C36000012801D101F0E9F99DF80000207001F0E9
:10C370006DF938BD10B5FEF789FEBDE8104001F03B
:10C3800055B910B5FEF7C8FFFDF744F801F036F9CE
:10C39000BDE81040FFF7DABDAC4900204860F0E787
:10C3A00010B50024FFF72AFC012801D098B101E064
:10C3B000FFF7CCFFA6480124007850B1A549012021
:10C3C0000870A548006890F8F002C00701D0FBF79C
:10C3D0007BFE204610BDFFF7CDFFFAE79E4910B562
:10C3E0000C6804F2622414F8013C2178A288648865
:10C3F000A04201D9184610BD904201D2084610BD96
:10C40000801A5B1A5843A21AB0FBF2F0084410BD20
:10C410002DE9FC47914F9249386808427ED09148F7
:10C420000068FFF7DBFF824688483C7800790440CB
:10C430000620F4F714F9DFF81892E00750D0864C84
:10C44000894E4FF00005206890F86000C00603D5C3
:10C4500086480078042801D0357048E0DFF8108263
:10C4600020201F2398F800101A22CDE900018149ED
:10C470008148FBF7D0FC98F80000012801D188F82A
:10C4800000507E48DFF8F8810078012808D1206844
:10C490005346784990F860227748FFF746F860B134
:10C4A00099F80000C0B198F80010A9B1491E11F028
:10C4B000FF0188F800100DD00EE02068714990F857
:10C4C00063023070012008706F490870642188F899
:10C4D000001001E06D480570307840B1401E3070AA
:10C4E000386800282BDA99F8000028B327E0684E56
:10C4F000307801280AD1206890F86000400605D500
:10C500006448654940880988884200D135702068B0
:10C5100090F8B000C00707D0307800E014E00028A1
:10C52000DED15548FFF7D8FE30780028D8D15B49D6
:10C530005148FFF735FFD3E70020FCF741FFBDE886
:10C54000FC470620F4F7A6B8BDE8FC8710B55448B0
:10C550003E4900684C6844400AD04860E00701D07A
:10C56000FFF70FFF600603D5BDE81040FEF7CCBE15
:10C5700010BD3A4810B504783448007904400620CC
:10C58000F4F76DF8E00707D001F0BEFE012803D1F3
:10C5900040210220F3F772FFBDE810400620F4F7B7
:10C5A00079B82A4C08B500256570FFF7C5FC60789E
:10C5B00078B30128FBD16B46002240F2852103208D
:10C5C000F3F7ACFF0098C00706D001210320F3F772
:10C5D00084FF6570FFF7E0FE0098400705D5042151
:10C5E0000320F3F77AFFFFF713FF0098800506D5C5
:10C5F0004FF400710320F3F770FFFFF7BAFF0098C4
:10C600000006D4D580210320F3F767FFFFF79EFFD4
:10C61000CDE7FFE703210020F6F73BFB6B46002246
:10C6200002210320F3F77AFF03210120F6F731FB03
:10C6300000988007BBD5FFF7AFFE40F287210320AB
:10C64000F3F74BFF01206070B1E70000000B100012
:10C6500049091000730910002C0910006809100026
:10C6600003000080DC0A1000470910007509100063
:10C670006D0910007EAC0120428C0120530910008E
:10C680006E091000420910007E09100048091000D0
:10C690007F091000981F10008009100002920120ED
:10C6A000380B1000E748002101704160704710B559
:10C6B00090F8202090F82210531A9B1C042B07D9C5
:10C6C00090F8213090F823401B1B5B1C022B0CD9E7
:10C6D000DD4B1B785BB10AB1192908D110F8211F75
:10C6E0008078081A401C022801D8012010BD0020C3
:10C6F00010BD2DE9F05F436806461804DFF84CA32F
:10C70000000C4FF0000B12D000220A271046012423
:10C7100004FA00F10B4216D000EBC00106EB011148
:10C72000103191F82450012D05D00A270EE08AF827
:10C7300000B0BDE8F09F0D69898995FBF1F1914248
:10C7400001DD0A460746401C0A28E1DBDFF8F882D3
:10C75000DFF8F0924FF0000C706804FA0CF1084218
:10C760000AD00CEBCC0006EB0015103595F8240030
:10C77000012802D006285BD076E0022085F824004C
:10C78000287948B198F80000C0B3B14867450068FF
:10C7900090F8C0001FD115E0AE480078012808D0FD
:10C7A000AD4800780128AA48006816D090F8CF015B
:10C7B00015E098F8000040B1A5486745006890F87A
:10C7C000D80108D100F00F0009E0A14867450068D2
:10C7D00090F8D001F6D0000901E090F8D401E8709B
:10C7E0002846FFF764FF012810D06878D9F80420A4
:10C7F00004FA00F18A43C9F8042035E0FFE79448C1
:10C800006745006890F88200E5D1DBE79048E97859
:10C81000006890F8830000F00F000844E870697821
:10C82000D9F8042004FA01F01043C9F804001BE011
:10C83000072085F8240098F8000000288448006844
:10C8400032D090F8C10000BF00F00F00E8708048BF
:10C85000A96A006890F88500B1EB101F04DDE97843
:10C8600000F00F000844E8700CF1010CBCF10A0F55
:10C87000FFF672AF5FF00007716804FA07F001423B
:10C8800035D007EBC70006EB00151035A0466978D8
:10C89000CC4604FA01F0D9F8041008421DD028460D
:10C8A000FFF705FF18B118E090F88400CCE768485E
:10C8B000E978006890F8830000F00F00081A00285B
:10C8C00001DDE87001E085F803B06878DCF8041059
:10C8D00008FA00F08143CCF80410E878D0BB95F852
:10C8E0002400022804D0072836D0287998B36DE0B8
:10C8F000032085F82400287948B95648007818B9EB
:10C900004FF48670FCF713FC524880F800805348BF
:10C910000078012813D1DFF83C8103208AF8000059
:10C9200098F80000012802D10C20FCF700FC4C49CB
:10C93000052008704B4988F800B081F800B04A48DB
:10C94000007801283DD19AF8001041F002018AF8E0
:10C95000001036E037E015E0082085F824003F4855
:10C96000007828B99AF8001021F001018AF8001027
:10C970003D48007850BB9AF8001021F002018AF877
:10C98000001023E03248E97A006890F8CF01814234
:10C990001CD902202871DFF8BC8085F80BB0032079
:10C9A0008AF8000098F80000012802D10C20FCF75A
:10C9B000BEFB2B49052008702A4988F800B081F891
:10C9C00000B0E87810B1C0B2401EE8707F1C0A2F9A
:10C9D000FFF652AFADE6F0B500211D4B012500BFBB
:10C9E000426805FA01F422421FD001EBC10200EBBC
:10C9F0000212103292F82440022C16D1154ED4782F
:10CA00003678012E15D0144E3678012E1E6816D0B9
:10CA100096F8CF7196F8826006F00F06BE1BA41B35
:10CA200024B2002C00DC0024D470491C0A29D7DB76
:10CA3000F0BD1E6896F8D07107F00F07EAE796F888
:10CA4000D471E7E7200B10005109100049091000CC
:10CA50002C0910004D091000460910004B09100068
:10CA600045091000080B10004A091000FE4900207B
:10CA700008607047FD490A68B2F82B11814201D362
:10CA800000207047B2F82D21824201D8FF20704764
:10CA9000521A401AC0EB0020B0FBF2F0C0B270474F
:10CAA00030B5F249096891F81D22920725D58A7E92
:10CAB000D20702D00B8BCA8A01E0CB8A0A8B91F88D
:10CAC00019420514A54201DC64F31F4091F81A5283
:10CAD00004145B1B9C4201DB63F31F4091F81B3283
:10CAE00004B29C4201DC63F30F0091F81C1203B204
:10CAF000511A8B4201DB61F30F0030BDF8B500F134
:10CB000050020C460546111D684601F059F868466A
:10CB100001F04EF8BDF90200D449F8B1BDF900208A
:10CB20008AB34FF47A735A4392FBF0F2B5F852305D
:10CB3000184400B26080B5F85030BDF8006033444E
:10CB400023800B684FF47A761F8B283FB8422EDD86
:10CB5000B3F9183098422FDD18462DE0503568881B
:10CB600060802888BDF80020104400B22080002892
:10CB700000DA002020800968B1F91610884200DD33
:10CB800008462080F8BDFFE750356A88104400B29F
:10CB900060802A882280002800DA002060800968EE
:10CBA000B1F91810884200DD08466080EAE72828BD
:10CBB0000DDA002800DA00206080B5F95230C01A82
:10CBC000504390FBF6F0B5F85030184420800968C7
:10CBD000B4F90000CB8A283B984205DDB1F9161064
:10CBE000884206DD084604E02828CBDA002800DA6F
:10CBF0000020208035F9501F401A4FF47A714843C5
:10CC000090FBF2F069880844CFE738B50B46B2F9DB
:10CC10000240B2F9001004B961B1644301FB014460
:10CC200001461A46684600F0CBFF684600F0C0FF98
:10CC3000A04201D9002038BD012038BDF8B58B4E87
:10CC40000D46044690F824100127306803290ED0C1
:10CC5000B4F93E10002913DD10F8981FADF802104A
:10CC60004078ADF80000E08F401EE0870FE088308C
:10CC70004178E187007860872868C4F8360074E05E
:10CC800010F8861FADF80210407CADF800006A462F
:10CC900004F1440104F13600FFF7B7FF002160B151
:10CCA000A4F83C1094F82420052A17D0042A15D0A3
:10CCB000072A56D0082A54D057E0A28F521C12B22D
:10CCC000A287336893F87FC0624505DD618793F8DA
:10CCD0007F20521CA287E5E70120E3E7F0B1B4F919
:10CCE0003A0040F6FF71884201DA401C60873168E3
:10CCF000B4F93A0091F88820904202D12A68C4F829
:10CD0000362091F8881088422FDD206D2860306829
:10CD100090F88000800728D4002726E02868C4F80F
:10CD200036003268B4F93A0092F8882090420DDB60
:10CD3000B5F90200B4F93820104440106880B5F904
:10CD40000000B4F936201044401028806187B5F9FE
:10CD5000020000022063B5F900000002E062E187F2
:10CD600003E0012801D1206D286038460AE7F8B5B4
:10CD7000044690F824000D4603281CD005283DD118
:10CD800004F14802111F684600F01AFF684600F0DF
:10CD90000FFF01463548026812F8870F00F00F06B2
:10CDA0000309D07D127E40435243814211DD9142FE
:10CDB00008DB33460DE08034B5F902006060B1F95C
:10CDC00000001AE0091A9E1B7143101A91FBF0F043
:10CDD0001B1A8034B5F902206068C3F11001584372
:10CDE00002FB01000009688060602068B5F900203E
:10CDF000584302FB0100000928802060C2E630B5DC
:10CE000090F82420032A01D10A888286174A0D88C7
:10CE1000126892F88B2002F00F03828EC3F1100487
:10CE20005A4305FB042212090A80828630BDF0B500
:10CE30000F4B90F82420D0F807601C780B4B052A84
:10CE40001B681CD093F82951AD0601D4072A16D0CF
:10CE500093F8A050AF0601D5022A10D0082A0AD0B4
:10CE6000AD0668D5072A05E01C0B10002C09100040
:10CE7000510910005FD1ECB3B3F8C4205EE044B1B7
:10CE800013F8C22F02F00F045D8812096D439B88CE
:10CE90000DE0027992B1012A13D093F88A2000BFE5
:10CEA00033F88C5F02F00F0412095B886D435B431B
:10CEB000AE4210DD9E4207DB22460CE093F8D12102
:10CEC000EEE793F8AC20EBE7761B141B66435B1B85
:10CED00096FBF3F3D21A0578FF4BC2F110042DB97B
:10CEE0001D7962F307151D7145691D610578012DD6
:10CEF00005D100E020E05D7962F303055D71B1F9D1
:10CF00000250036B2D02534305FB04331B0903F14D
:10CF10007F0545F30F254D800363B1F90050C36AC7
:10CF20002D02534305FB0432120902F17F0343F340
:10CF30000F230B80C262F0BDB3F88C20524396429F
:10CF4000F9DC026B7F3242F30F224A80C06A7F30E5
:10CF500040F30F200880F0BD2DE9F04F8A4690F88D
:10CF600088108FB08146042941D099F8240002220C
:10CF7000032801D0022800D1F9B107283AD00428AB
:10CF800038D0052836D0082837D0012918D00229F2
:10CF90002DD100BFD9F80700C82832D34FF4BB50B9
:10CFA0000A900021CD48069042F6C1650E460491D4
:10CFB0004FF0FF3B45F6011030E0012189F8881061
:10CFC00089F88820BAF8020001040020C9E9181085
:10CFD000BAF800100904C9E91C10BAF802100904D3
:10CFE000C9E91A10BAF800100904C9E91E100FB0F7
:10CFF000BDE8F08F89F88820CCE7042189F88810F3
:10D00000F5E7002040F222714D000A910646049097
:10D01000B3494FF0FF3B49F2406006910021CDE952
:10D020000001D9E91821069C0E92A2FB0407099180
:10D0300001FB047102FB0B114FF48032002301F05D
:10D0400035FDB9F94630B9F94E20049C9F180A9A6B
:10D050004FEAE77CA7FB02380CFB028207FB0424A3
:10D06000B9F94A20A2FB05C8D71707FB058702FBC1
:10D07000067213EB0C0354411F1A64EB0104DDE943
:10D080000012D9E91A3CA3FB01080CFB018103FB48
:10D0900002114FF48032002301F008FD3A1A64EBCC
:10D0A0000104CDE90224D9E91C12069C0792A1FBD8
:10D0B000040702FB04720C9101FB0B214FF4803238
:10D0C000002301F0F3FCB9F94430B9F94C209F1862
:10D0D0000A9A4FEAE77CA7FB02480CFB0282049BFA
:10D0E00007FB0327B9F94820A2FB05C8D31703FBA8
:10D0F000058302FB063214EB0C0357411C1A67EB45
:10D100000107DDE90021D9E91E35A3FB020605FB75
:10D11000026203FB01214FF48032002301F0C6FCC0
:10D12000261A67EB010709990E9AC9E91A21079A8D
:10D130000C99C9E91E12DDE902244FF400401018D1
:10D1400044F100014FF48032002301F0AFFC0546AA
:10D15000C9F830004FF40040301847F100014FF497
:10D160008032002301F0A2FCC9F82C00DDE9022482
:10D17000C9E91C675B49C9E9182409688A7ED20796
:10D18000002A03D00A8B03D1098B02E0CA8AFAE78E
:10D19000C98A954201DD154602E0002D00DA00251E
:10D1A000C9F83050884204DC002801DA002100E090
:10D1B0000146C9F82C10AAF80250B9F82C00AAF8B8
:10D1C000000014E738B500F148020446111F684614
:10D1D00000F0F6FC684600F0EBFC434A116881421F
:10D1E00000DA0146116094F82410032900D10020D0
:10D1F000C4F8070038BD2DE9FC5F04463A48002119
:10D20000DFF8E0C001606768DCF8005008460123E1
:10D2100003FA00F2174218D000EBC00204EB02162A
:10D22000103696F82420032A0CD0052A0AD0042AA6
:10D2300008D095F880805FEA086801D5072A01D0F8
:10D24000082A02D1B289114489B2401C0A28DFDBC6
:10D25000B5F80C21E2468A4201D87F200DE0B5F8EE
:10D260000E01884201D3002007E0091AC1EBC11169
:10D27000101AB1FBF0F000F07F00804600269B46BC
:10D2800061680BFA06F95F4611EA090F7ED006EBDA
:10D29000C60004EB0015103595F8240003280DD0C6
:10D2A00005280BD0042809D0DAF8001091F8801076
:10D2B000090601D5072801D0082867D1686C0090BD
:10D2C000288BADF804002846FFF77CFF95F8240072
:10D2D000032815D10AE00000A21F10008104FFFFFF
:10D2E0004786FEFF2C0910001C0B1000BDF9020040
:10D2F0004FEA00202863BDF900004FEA0020E862F1
:10D30000DAF8000090F8A010890604D5694628468E
:10D31000FFF722FE07E090F88000000703D569467A
:10D320002846FFF784FD01A92846FFF768FDDAF8D3
:10D33000000090F88000400704D501AA69462846FD
:10D34000FFF715FDDAF8000090F88000C00706D05E
:10D3500001AA69462846FFF771FC002816D095F807
:10D360002400072801D0082809D1DAF8000090F835
:10D370008100C00703D069462846FFF7BFFB95F838
:10D380002400032809D1DAF8000000E0C8E090F892
:10D390002901400701D5286C00908A488A4BBB467A
:10D3A000016841EA090101602A791B781A4306D114
:10D3B00095F82420082A02D021EA0901016006EB31
:10D3C000860101EBC6010F1895F82400BF1D032844
:10D3D00015D005281AD0042818D0072816D04FF0E9
:10D3E000040C28790328387913D020F0800000F04D
:10D3F0007F01387141450FD068F3060012E02946DD
:10D40000204600F087F94FF0030CEAE74FF0050CD7
:10D41000E7E740F08000EAE7410608D0A8F1010103
:10D4200061F306003871BCF1040F04D024E020F051
:10D430007F00401CF6E7DAF80000D5F80720B0F8C6
:10D440000A11494391420FD8B5F952100B290BDB51
:10D45000028B0B3A914207DCB5F950100B2903DB24
:10D46000C08A0B38814203DD387B20F0010002E0E6
:10D47000387B40F0010038730098FFF711FBB8606B
:10D48000BCF1030F26D0286D6865B868286587F859
:10D4900000C02878787028797871DAF80000AA89B5
:10D4A000534690F82F010109514300F00F00B1FBE2
:10D4B000F0F0B870688BFFF7DDFAB871287FF8716B
:10D4C0001A68BDF80400B2F89010814204D387F8BE
:10D4D00003B013E06865D8E7B2F89220824201D821
:10D4E0003F200AE0521A401AC0EB801090FBF2F085
:10D4F00010F0FF00F87000D10120F87095F82400BA
:10D50000082803D12946204600F0F9F82F48007872
:10D51000012805D195F82400072801D1D020B87042
:10D52000761C0A2EFFF6ACAEBDE8FC9F10B5044693
:10D530000520F3F794F82046FFF75DFE0520F3F78A
:10D54000A9F82048006818B102210020F2F796FFE0
:10D550001F48006890F8F007000632D51D481F4BA1
:10D5600002781D481B788178534062F382011C4A7F
:10D5700063F341011278C2701A4A127862F3000113
:10D58000114A127862F3C30121F0700181701649CB
:10D590000978417315490279097861F30302144946
:10D5A00002710988418113494A88C2800988018132
:10D5B00011490A78417962F307114171C189491C07
:10D5C000C18110BD101F10004D091000540910003A
:10D5D0002C0910004C091000A21F10004B0910006C
:10D5E000490910004A09100058451000F40A1000BB
:10D5F000EE0A1000981F10005109100010B54FF4EA
:10D60000B6615C4801F0E5FA4FF435715A4801F013
:10D61000E0FA5A490020087000F0B6F8FFF742F827
:10D6200000F03EFABDE81040FFF720BA10B500F058
:10D6300027FA504800F035FA4E48FFF75AF84D489F
:10D64000FFF774FF4C490020087010BD10B54A4C1C
:10D65000207878B12146474800F043FD454800F066
:10D6600094F84448FFF745F84248FFF75FFF002071
:10D67000207010BDBDE81040D8E770B53E4C227850
:10D680000F2A26D23E490978012915D13D49B0F922
:10D6900002300968B1F8E456AB421ADBB1F8E6563D
:10D6A000AB4216DCB0F90030B1F8E856AB4210DB03
:10D6B000B1F8EA168B420CDC02EB420104EB0113D9
:10D6C0001B1D014630221846F5F7D3FC2078401C7C
:10D6D000207070BD10B503460020D3F8041001225D
:10D6E00002FA00F4214206D0401C40B20A28F7DBBF
:10D6F0004FF0FF3010BD82401143596010BD10B58E
:10D700004C7801234268A3409A434260002081F88C
:10D71000240010BD30B500220368012404FA02F58C
:10D720002B4205D0521C0A2AF8DBFF20087030BDBE
:10D730009440234303600A7030BD0E48FFF74BB995
:10D740000D480E490078087070470E49096891F835
:10D750006110C90705D0024608480178064800F064
:10D76000E7B870470349012383400A689A430A6077
:10D7700070470000A83F100058451000280B10000B
:10D78000860910002C09100070472DE9F041002592
:10D7900006460127706807FA05F1084248D005EBF4
:10D7A000C50006EB0014103494F82400012801D0C1
:10D7B00002283DD12079012802D002281AD02AE07F
:10D7C000B048A189B0F90000022903D2AE48B0F9EF
:10D7D00000000AE0AD49096891F8A010890704D556
:10D7E000B4F91E000021FCF7EDFFB4F805108142EA
:10D7F0000DDB10E0A649B4F80500B1F9001088422D
:10D8000016DAA448006810B10020207105E0214616
:10D810003046FFF774FF207950B99F49B4F80500EE
:10D82000B1F90010884203DA21463046FFF767FF5E
:10D830006D1C2DB20A2DADDBBDE8F0812DE9F05F46
:10D840000546914272D007D901EB0200A0EB02011C
:10D85000CAB2A0EB0200C1B201EB410005EB00111E
:10D8600002EB420005EB001BC889BBF80E300BF140
:10D8700004091844C8818889BBF80C301844888191
:10D880004869DBF81430184448610869DBF8107007
:10D89000D1F80480D9F800A000EB070604464FEA4F
:10D8A000284C00FB0CF04FEA2A4C07FB0C0090FBC5
:10D8B000F6F08B68D9F8049060F31F484FEA234CC8
:10D8C00004FB0CF04FEA294C07FB0C0090FBF6F030
:10D8D00060F31F430FFA88FC04FB0CF00FFA8AFC7C
:10D8E00007FB0C0090FBF6F060F30F0818B204FB86
:10D8F00000F40FFA89F007FB004090FBF6F060F3AC
:10D900000F030E61C1E901832878A0F10101914262
:10D9100009D000EB400005EB00112C390BF104009D
:10D920003022F5F7A6FB2878401E2870BDE8F09F4E
:10D930002DE9FC5F074659480C46002501785348FD
:10D940000129006807D090F8730000BF00FB00FABF
:10D950004FF001098EE090F8CB00F7E709FA04F0E8
:10D960002646009062E000BF009909FA06F00842DE
:10D970005BD006EB460007EB00104168204649E00B
:10D98000B04246D000EB400207EB021252684FEA69
:10D99000224CACEB214C0FFA8CFC6CF31F45E64695
:10D9A000DFF8E8C0A2EB010212B2DCF800B062F3CB
:10D9B0000F059BF861C0CDF804C05FEA8C7C0AD5E6
:10D9C0009BF874C002FB0CF84FF0640C98FBFCFC55
:10D9D000624462F30F05019A52070BD59BF874C09D
:10D9E0000EFB0CF24FF0640C92FBFCFC0CEB0E02F5
:10D9F00062F31F452A1452430FFA85FC0CFB0C22DC
:10DA0000524506D2DDF800C009FA00F242EA0C02E3
:10DA10000092401C8342B3DC04216846F4F7F4FF13
:10DA2000012802D1009840000090761C3B78B34258
:10DA30009ADC04216846F4F7E7FF01281ED0DDF8E0
:10DA40000010484600FA04F20A4203D03E78C84665
:10DA5000761E0CE0641CF5E7009908FA06F008420F
:10DA600004D0F2B2E1B23846FFF7E8FE761EA642D5
:10DA7000F2DC641C3878A0423FF770AFBDE8FC9F31
:10DA8000704700000E0B1000100B10002C09100046
:10DA90000C0B10009C010022120B10005309100007
:10DAA00070472DE9F0410024012605465FF0060786
:10DAB000686806FA04F1084215D004EBC40005EBCF
:10DAC0000011103191F82400032806D0042804D056
:10DAD000052802D0022803D005E081F8247002E076
:10DAE0002846FFF70CFE641C0A2CE1D3BDE8F08148
:10DAF00010B5022200EB8203521E1C6C5C6412F013
:10DB0000FF02F7D1416410BD5FF0000200EB820319
:10DB1000521CD2B25964032AF8D3704770B50D462F
:10DB20000446097E0079012901D169682960627083
:10DB3000297E217129692161E96861616989A18171
:10DB40002989E181697EA17069692162698B61839C
:10DB5000A98BA183298CA4F80510B5F82310E183C3
:10DB6000298A00262183012B01D070B118E0012001
:10DB700084F8240020462968FFF7C6FFA662E672F3
:10DB80002868206484F8886070BD287E022807D148
:10DB9000FE480078012803D12671E07A401CE0722B
:10DBA00020462968FFF7A4FFA06A401CA06270BD50
:10DBB000B0F90010B0F90200494300FB00107047B3
:10DBC00010B553884C881B1B438012880988511A52
:10DBD000018010BD2DE9FF4F4FF0040889465268BF
:10DBE00008EBC004411E4FF0060C1D460CEBC000B4
:10DBF000DDE90D3A14441044B4F90040B0F9007066
:10DC000000E0491E08EBC1001044B0F90000A0423A
:10DC100001D00029F5DA08EBC1001044B0F900008A
:10DC2000A04277D10CEBC1001044B0F90060491E4E
:10DC30000CEBC1001044B0F90000B04201D0002943
:10DC4000F5DA0CEBC1001044B0F90000B04274D119
:10DC500008EBC1001044B0F900C004EBC40003EBB2
:10DC600000100CEBCC0103EB011107EB47030AEBAF
:10DC70000312406D496D526806EB460300920AEBB1
:10DC800003124FEA204B526801920BEB21420FFA2C
:10DC900080FA09B20AEB010053104210BDF90200EC
:10DCA000BDF90610BDF904800844BDF90010C3EBAE
:10DCB00060004144C2EB61015844ADF80E000AEB2C
:10DCC0000100ADF80C006A4603A902A8FFF778FF2F
:10DCD00002A8FFF76DFF804601AA03A902A8FFF77B
:10DCE0006FFF02A8FFF764FF804526D9002000E0FF
:10DCF000401C05EBC001B1F90410A14201D0484518
:10DD0000F6D305EBC001B1F90420A24215D1CE80B3
:10DD1000002101E011E0491C05EBC102B2F9042029
:10DD2000624501D04945F6D305EBC101B1F90420A4
:10DD3000624504D005EBC000C780BDE8FF8FCF80EF
:10DD4000FBE7F0B5002118E04A1C12E0436803EB42
:10DD5000C10603EBC204356823689D4208DD67688D
:10DD6000256075686560446804EBC10423606760E2
:10DD7000521C03689342E9DC491C02688A42E3DCD6
:10DD8000F0BD70B5D0E90045062606EBC406354463
:10DD90002A800425426805EBC4052A4411804168A5
:10DDA00001EBC401641C0B60046070BDF0B5B1F9F7
:10DDB0000240B2F9025004FB05F6002E2ADDB1F94B
:10DDC0000060B2F900707E43002E23DD64435D43A2
:10DDD00094FBF5F424B24480B2F90020B1F90010AC
:10DDE0005A43494391FBF2F10AB278230280782C1E
:10DDF00000DD4380B0F902406FF077018C4200DA19
:10DE00004180782A00DD0380B0F900208A4200DAE0
:10DE10000180F0BD00214180FAE72DE9FF4FADF50B
:10DE2000B06D81464FF6FF70CDF820050020CDF88B
:10DE300070050DF5A560CDF818053C300F46CDF8FE
:10DE400078050DF5A562002002A903C250490DF521
:10DE5000AC6B0DF26C5A0A7804468046012A02D156
:10DE6000CDF87025087000260120D9F80410B040C4
:10DE700001427DD0474806EBC60109EB0115016858
:10DE8000DDF870251035B1F89400012A03D1B1F8FE
:10DE90009C2002B110464043CDF8080591F896C089
:10DEA00005F14402111D0DF5AC60CDF81425CDF837
:10DEB0002415FFF785FE0DF5AC60FFF779FE0CFB2E
:10DEC0000CFC0CFB00FCDDF80805844502DDCDF8F8
:10DED0000CC501E0CDF80C052F480178CA0706D023
:10DEE0006FF0004221F00101CDF80C2501704FF0D8
:10DEF000000C5EE00CEB4C0007EB0010001D0190E5
:10DF00000DF26450DDF81425DDF82415FFF758FEF6
:10DF100005F14C010DF5AD60DDF82425FFF750FE4D
:10DF2000DDF87805B0F902006430C82806D8DDF8BD
:10DF30007805B0F900006430C82801D9012300E059
:10DF400003230DF5AD62111F081FFFF72FFFB5F872
:10DF50004600BBF802100844AAF80200B5F84410C5
:10DF6000BBF800000844AAF800000DF26C5100E074
:10DF700022E00DF5AC60019AFFF722FE0DF5AC60D2
:10DF8000FFF716FE0346DDF80C0507E04D0910000B
:10DF90007E0910002C09100048091000834206DA9F
:10DFA0000FFA8CF231B2DDF81805FFF7EAFE0CF13A
:10DFB000010C387860459DDC761C0A2EFFF654AFC4
:10DFC000DDF8280500287DD0DDF81805FFF7B9FE3B
:10DFD00000200DF2345E0DF5976B4FF0040A3AE025
:10DFE000DDF82C150AEBC0020A44B2F90030062213
:10DFF00002EBC0021144B1F900C0DDF888150D68CC
:10E00000012101FA03F215421FD1DDF88C6501FAF6
:10E010000CF136680E4218D1DDF88865154335607D
:10E02000DDF88C552D680D43DDF88C150D600BEB7C
:10E03000C401641C8B80A1F806C0DDF820150A42DB
:10E0400003D14EF8280008F10108DDF820159143AE
:10E05000401CCDF82015DDF828158142C0DC75463E
:10E06000B8F1000F37D0CDE90097A8F101080DF500
:10E07000976355F828002146DDF81825FFF7AAFD1B
:10E08000EEE7641E0BEBC4000023B0F90410B0F9F6
:10E09000060001EBC10209EB021500EB4000103550
:10E0A00007EB0011091D95F901202846FFF736FD01
:10E0B00095F82400032808D0042809D0072807D0A1
:10E0C000052800E009E006D102E085F824A002E07E
:10E0D000052085F82400002CD3D10DF5B26DBDE8E4
:10E0E000F08F2DE9FC41064640680F4650B10020F4
:10E0F0000190009001AB6A463046FFF78EFE002586
:10E1000001243AE0002413E004EBC40006EB001500
:10E1100010353046FFF7DEFA021E08DB02EB420044
:10E1200007EB0011091D01232846FFF7F7FC641CCB
:10E130003878A042E8DCBDE8FC8100BF019904FA10
:10E1400005F0084218D13046FFF7C4FAB0F1000CD0
:10E1500012DB05EB450007EB00110CEBCC0006EBE6
:10E160000010091D103001236246FFF7D7FC00990B
:10E1700004FA0CF0084300906D1C3878A842DDDCEE
:10E1800000250627716804FA05F0014218D00099AD
:10E19000084215D105EBC50006EB0011103191F8CE
:10E1A0002400032806D0042804D0052802D0022821
:10E1B00003D005E081F8247002E03046FFF79FFAB3
:10E1C0006D1C0A2DDEDBB6E763480021416001705B
:10E1D00070472DE9F04F6148D7B04FF0000A07684B
:10E1E000554601AB2EAA01213846CDF804A0FBF715
:10E1F00046F91A225A4E80460121012001EB0113F3
:10E2000000EB4304401C3C5DB454521C1A28F7DD5B
:10E21000491C0F29F1DD01240DF5A67B30E02EA865
:10E2200030F814000A282AD945A8E3B2435547A874
:10E23000009001A800EB840189460A463946494806
:10E24000FDF701F89DF8352101A80BF8042010F81E
:10E25000241004EB44006D1C06F8101006EB40007F
:10E2600099F80210417099F80110817099F8031023
:10E27000C1702EA9EDB211F8141001714271641C25
:10E280004445CCDD012D1BD99DF814019DF81521C5
:10E290001BF900001BF902106FF03B04A0F11E02F5
:10E2A00063101E2A03D8A14201DB994206DD1E3904
:10E2B0001E2905D8A04203DB984201DC4FF0010A79
:10E2C00057B05046BDE8F08F38B5002403200094C5
:10E2D000F2F7C5F9244A23492448F5F772F80320D8
:10E2E000F2F7D8F922486A461E490068B0F9620080
:10E2F000FDF779FB20B1FFF76CFF012802D0012464
:10E30000204638BD0224FBE770B50025FFF7DCFF8F
:10E31000114C002620B1012802D002280FD019E0AC
:10E320006068401C6060322807DD01254FF0AD3287
:10E330000221AC206660FAF738FE26700AE06660BB
:10E34000207838B9012020704FF0AC320221AD2086
:10E35000FAF72BFE284670BD2C0B10005809100050
:10E360001E9A0120BEA601204E000120428C0120F1
:10E370002C0910001248016841F0040211490B6891
:10E38000002B06D10260096821B1016821F0040167
:10E390000160704730BF70470B4C4FF00855206844
:10E3A000401C2060F2F79CFBD5F8840120B10120CD
:10E3B000F4F701FF30BFF2E7FFF7DCFFEFE7000003
:10E3C00010ED00E04821012078091000F7480021F5
:10E3D000416081600160704710B54FF00854D4F877
:10E3E0008401002806D040210220F2F747F80020DF
:10E3F000C4F8880110BD10B54FF00854D4F884015A
:10E4000000282ED105210120F4F743FCE749002024
:10E41000486088600860E64908604FF40071022097
:10E42000F2F72CF802210120F2F728F8022103204C
:10E43000F2F724F808210020F2F720F80221042046
:10E44000F2F71CF8FAF75AFDDA48006890F88003F2
:10E45000000703D520210120F2F710F80120C4F8AD
:10E46000840110BD70B54FF00855D5F8840100281F
:10E470002DD0CF480024012104600846F1F7FEFFAB
:10E48000CA48042144600220F1F7F8FF102104205B
:10E49000F1F7F4FF80210320F1F7F0FF4FF48071D2
:10E4A0000220F1F7EBFF01210320F1F7E7FF042140
:10E4B0000020F1F7E3FF01210420F1F7DFFFC5F8A9
:10E4C0008441BDE8704005210020F4F7E2BB70BD37
:10E4D00070B5B64C6268D0072AD1B548B64B016812
:10E4E00041F0050101601D6845F020051D60B14B3C
:10E4F0001B6893F8B031DB0705D012F4017F02D11D
:10E5000041F042010160AD480125A902057028468D
:10E51000F1F7B4FF6068042140F001006060022060
:10E52000F1F7ACFF80210320F1F7A8FFA4480560B4
:10E5300070BD9E480079C00700D1C9E770479B496C
:10E5400010B54868C2070DD020F0010048600421D2
:10E550000220F1F793FF80210320F1F78FFF984904
:10E560000020086010BD934810B5006890F8C00105
:10E57000C00711D08D49486842060DD5914B002245
:10E5800020F040001A70486004210220F1F776FF65
:10E5900080210320F1F772FF8949002010310860C3
:10E5A00010BD844810B5006890F8E006C00718D088
:10E5B000854C2078012814D1FFF7D5FF002020706A
:10E5C0007B48016841F0050101607B48016841F426
:10E5D00000610160BDE810404FF480610120F1F757
:10E5E0004DBF10BD734810B5006890F8C001C0075A
:10E5F00015D07449002008706C49486842060ED452
:10E6000040F04000486004210220F1F737FF8021EC
:10E610000320F1F733FF6A4901201031086010BD73
:10E62000644810B5006890F8E006C00707D0664C53
:10E630002078002803D1FFF7D5FF0120207010BDFE
:10E6400010B54FF00854D4F88401002806D00821F2
:10E650000220F1F713FF0120C4F8880110BD10B5A6
:10E660004FF00854D4F88401002806D0102102206D
:10E67000F1F704FF0020C4F8880110BD10B54FF079
:10E680000854D4F88401002807D04FF480510220A8
:10E69000F1F7F4FE0020C4F8880110BDF2F784BA47
:10E6A000444810B5006890F85001C0070ED03F49AB
:10E6B000486842070AD520F004004860042102207F
:10E6C000F1F7DCFE10210420F1F7D8FE3C490020D0
:10E6D000091D086010BD70B53648006890F85001FB
:10E6E000C0070DD0314C2079400709D43748017854
:10E6F0002046806829B140F00400A0600520206019
:10E7000070BD334A002120F0040011703149012509
:10E710000A6842F020020A60A0602548016841F0C2
:10E72000220101602548A90205702846F1F7A6FEDE
:10E730006068042140F0040060600220F1F79EFE52
:10E7400010210420F1F79AFE1D48001D056070BDE0
:10E7500070477047174810B5006890F8C001C007AF
:10E7600015D01849012008701049486842060ED497
:10E7700040F04000486004210220F1F77FFE802134
:10E780000320F1F77BFE0E4901201031086010BD17
:10E79000F2F7EEB9064840F2B73201681143016062
:10E7A0000649012008708102F1F768BE340B1000A1
:10E7B000300910002C09100038091000340910002D
:10E7C0008C0100224609100086091000490910003A
:10E7D000720910003C0910006748016841F01001FF
:10E7E00001606649012008706548016841F4D171F3
:10E7F00001604FF480610120F1F740BE4FF40051F9
:10E800000120F1F73BBE10B508210120F1F736FEDB
:10E81000BDE81040BEE704210120F1F72FBE70478C
:10E8200010210120F1F72ABE20210120F1F726BE98
:10E8300040210120F1F722BE5248006890F8C8003C
:10E84000C00705D0504901200870CC20FAF76FBCF2
:10E8500070474D4900200870CD20FAF768BC70471A
:10E860000A46B0F5805F014602DA4648006801E0DA
:10E870004FF48010FAF753BBF0B54FF40064B0F5D5
:10E88000805F02D23F4B1D6803E0A0F580504FF43B
:10E890008015002303E0D65C1F185B1CEE558B42ED
:10E8A00001DAA342F7DBF0BD10B5364C40F2FF11A0
:10E8B0002068F1F797FF22684FF40071C2F8FC0757
:10E8C0001046F2F7C8FBBDE810400320FAF72FBC52
:10E8D00010B54FF4801440F2FF112046F1F782FF8B
:10E8E0002A490860C9122046F2F7C5FBBDE810406E
:10E8F0000420FAF71CBC00B587B0FF221821684637
:10E9000000F03DF96846F2F71BFB6846FAF785FB15
:10E9100007B000BD704770471D48007A400700D51A
:10E92000D9E67047022809DB0878411E092905D875
:10E93000184901EB800050F8040C0047704702288A
:10E940000ADB0878411E092906D81249283101EB53
:10E95000800050F8040C0047704702280ADB087852
:10E96000411E092906D80B49503101EB800050F8AF
:10E97000040C0047704770473C0910003409100030
:10E98000300910002C09100053091000FC0710007A
:10E99000340B10006CEF000001210520F1F76EBD73
:10E9A000032804DD0888897840BAFFF759BF70470B
:10E9B000032806DDC31E08888A1C40BA1946FFF7E3
:10E9C0005BBF704770B52021224800F0E0F8224874
:10E9D0000178224E204A00201E4D521C316002E078
:10E9E000835C2B54401C8842FADB2C78F2F7F2F857
:10E9F000A4F190001F2805D8194951F82000BDE85E
:10EA000070400047A4F1C0000F2808D81449803195
:10EA100051F82020691C3068BDE870401047B02CC8
:10EA200009D0B22C0CD0FB2C0FD0FC2C11D1BDE89E
:10EA30007040FFF74DBF691C3068BDE87040B7E714
:10EA4000691C3068BDE87040AAE7BDE87040FFF778
:10EA50002BBF70BD2C48100000040020400B10009C
:10EA6000E4EF000008B5FFF7B1FCF2F7A4F8FAF7FD
:10EA70001DFA05210020F4F70CF903216B46002252
:10EA80000520F1F74BFD0098C00705D001210520B6
:10EA9000F1F723FDFFF796FF00988007EDD50221DF
:10EAA0000520F1F71AFDFFF737FFE6E710B54C1028
:10EAB00084EA530404D54042C1F1000138BF491E25
:10EAC0001B4204D55242C3F1000338BF5B1E00F065
:10EAD000AAF814F0804F04D04042C1F1000138BFC1
:10EAE000491E14F0004F04D05242C3F1000338BF56
:10EAF0005B1E10BD032A40F2308010F0030C00F0C2
:10EB0000158011F8013BBCF1020F624498BF11F867
:10EB100001CB00F8013B38BF11F8013BA2F1040220
:10EB200098BF00F801CB38BF00F8013B11F0030398
:10EB300000F0F080083AC0F0088051F8043B083A31
:10EB400051F804CBA0E80810F5E7121D5CBF51F89E
:10EB5000043B40F8043BAFF30080D20724BF11F818
:10EB6000013B11F801CB48BF11F8012B24BF00F87D
:10EB7000013B00F801CB48BF00F8012B704702F0C1
:10EB8000FF0343EA032242EA024200F002B84FF0D8
:10EB900000020429C0F0128010F0030C00F01B806A
:10EBA000CCF1040CBCF1020F18BF00F8012BA8BF78
:10EBB00020F8022BA1EB0C0100F00DB85FEAC17C3C
:10EBC00024BF00F8012B00F8012B48BF00F8012BEF
:10EBD00070474FF0000200B5134694469646203920
:10EBE00022BFA0E80C50A0E80C50B1F12001BFF406
:10EBF000F7AF090728BFA0E80C5048BF0CC05DF86C
:10EC000004EB890028BF40F8042B08BF704748BFB9
:10EC100020F8022B11F0804F18BF00F8012B70472D
:10EC200070477047704753EA020C00F069802DE985
:10EC3000F04B4FF00006002B1FBFB3FA83F503FA29
:10EC400005F424FA05F65E4012BF1643B2FA82F5C7
:10EC500002FA05F4C5F120051EBF22FA05FC44EABC
:10EC60000C04203556EA044C4FEA144418BF641CC7
:10EC70004FF000084FF00009904271EB030C39D3BC
:10EC8000002919BFB1FA81F701FA07F6B0FA80F747
:10EC900000FA07F6C7F120071EBF20FA07FC46EA74
:10ECA0000C062037B6FBF4FCA7EB0507103F07F076
:10ECB0001F0BCBF120060CFA0BFB2CFA06F644BF17
:10ECC000B3460026202FA4BF5E464FF0000B5BEA40
:10ECD000060C08BF4FF0010B19EB0B09ABFB027CD4
:10ECE00048EB0608C01B06FB02CC0BFB03CC71EB08
:10ECF0000C01C1E70B46024641464846BDE8F08B91
:10ED000013B54FF000004FF00001AFF30080BDE8F5
:10ED10001C40704710B5203AC0F00B80B1E8185085
:10ED2000203AA0E81850B1E81850A0E81850BFF4F5
:10ED3000F5AF5FEA027C24BFB1E81850A0E8185094
:10ED400044BF18C918C0BDE810405FEA827C24BFE8
:10ED500051F8043B40F8043B08BF7047D20728BF76
:10ED600031F8023B48BF11F8012B28BF20F8023BC5
:10ED700048BF00F8012B70470446AFF300802046DF
:10ED8000F1F718FA7047000001491820ABBEFEE702
:10ED900026000200DF150000FB150000E31500004F
:10EDA00013160000411600005D16000075160000E5
:10EDB0008D160000A316000000000000DF15000003
:10EDC0002B16000041160000751600008D1600007D
:10EDD0005D160000FB150000E3150000131600008F
:10EDE000A316000006000000CCF0000001000000A7
:10EDF000C83610008000000079E300000000000029
:10EE00000200000005000000BCF00000020000004D
:10EE1000C83510000001000045EA000000000000B5
:10EE20000200000004000000A4F000000300000045
:10EE3000F8321000D0020000E57F00000000000062
:10EE4000020000000300000053F100000400000075
:10EE5000F82A10000008000083C500000000000030
:10EE60000200000002000000EDF0000005000000BC
:10EE7000B824100040060000F58C000000000000DF
:10EE8000020000000100000043F100000600000045
:10EE9000B820100000040000A55D00000000000084
:10EEA000020000000000000062F100000700000006
:10EEB000B81F1000000100006B920000000000006D
:10EEC000020000000600000024F100000100000024
:10EED0000500000011F10000010000000400000026
:10EEE00004F100000100000003000000D5F0000064
:10EEF0000100000002000000F6F000000100000028
:10EF00000100000032F100000100000000000000DC
:10EF1000C4F000000100000005000000B4F0000093
:10EF2000040000003CF10000030000004CF1000070
:10EF300002000000E4F0000001000000ABF000005F
:10EF4000000000005AF1000000010102010202036A
:10EF500001020203020303046001750027000D0093
:10EF60000100010002000100020004000200010093
:10EF7000020001001000FFFFFFFFFFFFFFFF140072
:10EF8000FFFFFFFFFFFFFFFF0C0000003FE8000056
:10EF90003FE800003FE800003FE8000001E6000015
:10EFA0003FE800003FE800003FE800003FE80000C5
:10EFB0003FE800003FE800003FE800003FE80000B5
:10EFC0003FE8000083E500003FE800003FE8000064
:10EFD0003FE800003FE800003FE8000021E60000B5
:10EFE0003FE600005DE600003FE800003FE800006B
:10EFF0003FE800003FE800003FE800003FE8000075
:10F000003FE8000045E40000D7E300001FE50000F2
:10F01000B1E4000081E60000B7E600003FE8000030
:10F02000DDE7000021E600003FE6000031E70000D8
:10F0300033E7000013E5000035E7000047E5000076
:10F04000C5E500007DE6000071E7000075E70000FF
:10F05000E7E70000F7E7000001E8000009E800002A
:10F0600011E8000019E80000B9E70000D7E8000047
:10F0700033E800003FE80000B9E30000F5E80000D5
:10F08000F7E8000057E9000005E900001FE900006B
:10F090003BE9000057E9000057E9000057E900008C
:10F0A00057E9000057E9000057E9000057E9000060
:10F0B00057E9000057E9000057E9000057E9000050
:10F0C00057E9000054736B5F535300456C665F5300
:10F0D00073766300456C665F436D640054736B5FC9
:10F0E000436D640053656D5F4166650054736B5FEB
:10F0F00049646C650053656D5F43616C696246727B
:10F10000616D6500456C665F5363616E0054736B9F
:10F110005F5363616E0053656D5F4576656E74463F
:10F1200069666F0053656D5F53534275666665721D
:10F130000053656D5F527074546F756368427566F5
:10F140006665720053656D5F5261774275666665EC
:10F15000720053656D5F566970657200456C665F3D
:10F1600053730054736B5F5353797300456C665F40
:10F170004D740054736B5F4D7400456C665F527044
:10F18000740054736B5F5270740000008CF10000C7
:10F19000000910004402000000010000B8F1000066
:10F1A000440B1000083D00005C010000011492783F
:10F1B000D305FA0214F802ED0116FFFFFEFF0A2D37
:10F1C000FEFFFFFFFA0A1F02FE3206320F9A3708CF
:10F1D0009AE10803C2D30300000000000000000011
:10F1E000000000000000000000000000000000001F
:10F1F000000000000000000000000000000000000F
:10F2000000000000000000000000000000000000FE
:10F2100000000000000000000000000000000000EE
:10F81000000000000000000000000000010C742344
:10F82000A5222C00FFFFFF0300000000FF7F000067
:10F83000000000001A0FFF04CF02010000000000CA
:10F840002F1100FD45409000320018215580001016
:10F8500000400010000D1403300A0A0000000000F0
:10F860005700A0C60800200008002000A4EA0500F8
:10F87000180005001800000030003000306400005F
:10F88000160380017000307010005E012002C0027B
:10F890003C3030800901000AD000070C0000000352
:10F8A0009901310A01F103C03000720810004000D4
:10F8B0000000000880000A03000000008001020A26
:10F8C00037F000200007080420005000A2000100CB
:10F8D000138F0130180020010000003000002003C9
:10F8E0003302B40008003000032030700A0000002A
:10F8F00001040C000D000E000F00100000000000BD
:10F90000000000000000FF010500090003014000A5
:10F910000000000000000000412617270000000042
:10F9200090004000150000000000070040000000AB
:10F93000403218020F05200007040B0F210E1000A3
:10F940000117240C5A66101000410007009800FAB5
:10F950003E00AC0DB80B00080008000800080200CB
:10F9600000F0003200C009C00900000001000000E2
:10F97000FB16C000C000101010003000CC101000AA
:10F980004401230000000012F030000008000000D5
:10F9900097000805A6C01800F000108001010100C2
:10F9A0000000202000B00100040A2228306060001E
:10F9B000687010683C370030D000D000FF7FFF7FB8
:10F9C000022500101005068810003000800000019C
:10F9D000026400640064000000B400102001000F05
:10F9E00021000010080050000A00000400031E045B
:10F9F00011D24000010000008402100000203220DB
:10FA0000FFFFFFFF000200220000000000000000D6
:10FA100000020002000200000000000008000000D8
:10FA20000018013FFF01A000000000009001FF7FCF
:10FA30000000000000000000F00D0B0D0B020000A4
:10FA400040000001000100002000C8000202000088
:10FA5000030303020200F000803E55002000000175
:10FA6000B4080000000020000001000000000000B9
:10FA70000000000000000000000000000000000086
:10FA800000801501002000040000000000000000BC
:10FA90003050575B5D60626462605D5B574A28640A
:10FAA000646464642030575B5D60626462605D5BC7
:10FAB000573020646464D0F00004020200B00100FA
:10FAC0004E5B5E616464646464646464646464641E
:10FAD000646464646464615E5B4E6464646464640E
:10FAE00064606060555555505030303030252525C4
:10FAF000252020202020206464646464AB6400001E
:10FB000000010000000000000000000000000000F4
:10FB10000101000000006001FFFFFFFF0100000085
:10FB20000000022200000010111213141590009022
:10FB300000900090009000900008900000000000ED
:10FB400000000000000000000000000000000000B5
:10FB500000000000000000000000000000000000A5
:10FB6000FF0F5000320032000000000000000000D3
:10FB70000000000000000000000000000000000085
:10FB8000FAB2B2401F2828E0A2A2401F3C003C006D
:10FB90003C003C002020202020B2B2401F2807005B
:10FBA00080020001080110010000000000000000B8
:10FBB0000000000000000000000000000000000045
:10FBC0000000000000000000000006000300030128
:10FBD00000FFF800080118011801000000000000F3
:10FBE00000000000000000002108170500000000D0
:10FBF0003307E901BF00570028000A000A000A0085
:10FC00000A000A0028005700BF00E901330700007E
:10FC1000000000000000FD000701CE005000310090
:10FC2000EC00E001D701F20044002900A5005301D7
:10FC3000300167000000000000000000000000002C
:10FC400000000000000000000000008000800004B0
:10FC500000000000010001020364002C010000000C
:10FC60000017D00008000000000FC409100E740E29
:10FC7000740EE803E803EE02EE0212FD12FD20010D
:10FC800000050005080000204E00000000000000F4
:10FC90000C0C2C58870D0014001900230030004A6A
:10FCA00000B504CF04E204E704EF04F4040D0014EB
:10FCB0000019001E0030004A0085029F02B202B700
:10FCC00002BC02C2020000000000000000000000B0
:10FCD0000000000000000000000000000000000024
:10FCE0000000000000000000000000000000000F05
:10FCF000001200160023003400CB04DC04E904EDFC
:10FD000004F004FF0400000F001200160023003965
:10FD1000009602AC02B902BD02C002CF0200000090
:10FD200000000000000000000000000000000000D3
:10FD300000000000000000000000000000000000C3
:10FD400000000000000000060009000D0016002D54
:10FD500000D204E904F204F604F904FF04000006EA
:10FD60000009000B0014002F009102BB02C402C660
:10FD700002C902CF020000000000000000000000E5
:10FD80000000000000000000000000000000000073
:10FD90000000000000000000000000000000000063
:10FDA00000000000000A00180020002E003700C8E4
:10FDB00004D104DF04E704F504FF0400000A00187E
:10FDC0000020002E0037009802A102AF02B702C542
:10FDD00002CF020000000000000000000000000050
:10FDE0000000000000000000000000000000000013
:10FDF0000000000000000000000000000000000003
:10FE000000000000000000000000000000000000F2
:10FE100000000000000000000000000000000000E2
:10FE200000000000000000000000000000000000D2
:10FE30000C020000FF040000F00400001E002D0072
:10FE4000460069008C00430266028902A202B102E8
:10FE5000CF0200000A001E003C0064008C00430238
:10FE60006B029302B102C502CF0200000000000045
:10FE70000000000000000000000000000000000082
:10FE80000000000000000000000000000000000072
:10FE90000000000000000000000000000000000062
:10FEA0000000000000000000000000000000000052
:10FEB0000000000000000000000000000000000042
:10FEC0000000000000000000000000000000000032
:10FED0000000000000000000000000000000000022
:10FEE0000000000000000000000000000000000012
:10FEF000000090004000B000B000000000000000D2
:10FF0000630140000000CF020000800232000000C8
:10FF1000226001010000000000000000000000005D
:10FF200001020606000000000000070B04AD0040BF
:10FF3000100013000000000000000000000000009E
:10FF400000000000000000000000000000000000B1
:10FF500000000000000000000000000000000000A1
:10FF60000000D2109000A09012FF6000005A0F0015
:10FF700015009784200200045A8104040801A0009F
:10FF8000000016340801A000000016340000E00153
:10FF9000960000000000000000000008071F06187F
:10FFA000222212001EC5440A3731711041890040D7
:10FFB000000000000000000F000F000F000F000005
:10FFC0000000000000000000000105FA0000000031
:10FFD0000000000000000000000000000000000021
:10FFE00000061800000100000000000000000000F2
:10FFF0000000000000000000000000000000000001
:020000021000EC
:100000001982000000000000000000000000000055
:100010008000000000000000000000112A31DDC156
:00000001FF
