:100000005555AAAA80010000000000000000000071
:100010001502000000000000000000008384FF4A79
:1000200000091000E5070000690200007F020000DF
:1000300095020000AB020000C102000000000000B9
:10004000000000000000000000000000211F000070
:10005000251F000000000000D7020000271F00003D
:10006000291F00002D1D0000411F0000A51D0000DC
:10007000431F0000451F0000531F0000611F0000C8
:10008000E90200007D1F00007F1F0000811F0000AB
:10009000831F0000851F0000871F00000000000074
:1000A0000000000000000000000000000000000050
:1000B0000000000000000000000000000000000040
:1000C0000000000000000000000000000000000030
:1000D0000000000000000000000000000000000020
:1000E0008001000000F002F800F04AF80AA090E851
:1000F000000C82448344AAF10107DA4501D100F0E3
:100100003FF8AFF2090EBAE80F0013F0010F18BF65
:10011000FB1A43F001031847E0BB000000BC0000DD
:100120000A4410F8014B14F00F0508BF10F8015BEA
:10013000240908BF10F8014B6D1E05D010F8013BD3
:100140006D1E01F8013BF9D1641E03D0641E01F855
:10015000015BFBD19142E4D37047000000230024EF
:1001600000250026103A28BF78C1FBD8520728BFC7
:1001700030C148BF0B6070471FB51FBD10B510BD23
:10018000DFF80CD0FFF7F8FF02F004F80BF001FCE9
:100190000009100003B4FFF7F1FF03BC0BF000FCF3
:1001A0000A484FF0FF0101704FF0000080F3118802
:1001B0004FF0000080F3098805484FF002010170FC
:1001C00062B604484FF080510160704722ED00E0B4
:1001D0000009100004ED00E002484FF0805101607A
:1001E0007047000004ED00E04FF0200080F311881C
:1001F000EFF3098098B112480068124909688842F3
:1002000017D0EFF309800E49096820E9F00F8860E4
:1002100000B50B48006800F0F2F85DF804EB084800
:1002200008490A68026000688168B1E8F00F81F34C
:1002300009884EF0040E4FF0000080F311887047DB
:100240000409100008091000EFF311804FF020019D
:1002500081F31188704700004FF0000080F311888F
:100260007047000062B6704772B6704740BA704778
:10027000C0BA7047401E0028FCDC704700BE7047C3
:1002800040BA7047C0BA70471EF0040F0CBFEFF3BE
:100290000880EFF309804FF0010101F0B2BD1EF0BC
:1002A000040F0CBFEFF30880EFF309804FF0020159
:1002B00001F0A7BD1EF0040F0CBFEFF30880EFF3B1
:1002C00009804FF0030101F09CBD1EF0040F0CBF2C
:1002D000EFF30880EFF309804FF0040101F091BDC6
:1002E0001EF0040F0CBFEFF30880EFF309804FF00E
:1002F000050101F086BD4FF0000000B502F053FC8F
:100300005DF804EBFFF770BF1EF0040F0CBFEFF3B6
:100310000880EFF309804FF0000101F072BD00008A
:10032000194910B5012008701849002008601849C3
:100330000860184908601849086000F0B9F900F031
:100340004BF900F063F8002010BD10B5114800F023
:100350002AF90F4908600D490968884207D00A4800
:100360000078022803D1BDE81040FFF735BF10BD6B
:1003700010B5FFF7EAFF044902200870FFF710FFED
:100380004FF0FF3010BD00000009100004091000FC
:10039000080910000C0910001009100070B50D4676
:1003A0000446C1698068CC220BF028FAE169A06894
:1003B000084440384FF08071C163216A8163002195
:1003C00041630163C1628162C0E908514FF00B31A2
:1003D000C1614FF00A3181614FF0093141614FF045
:1003E000083101614FF00731C1604FF00631816083
:1003F0004FF0053141604FF00431016070BD8269FA
:100400008168914201D801F05EBF704710B54FF48A
:10041000B4714F480BF01CFA002010BD70B50546B2
:1004200000EBC5014A4800EB8104FFF70DFF0646CB
:10043000207828B13046FFF70FFF6FF0010070BD44
:100440000320207000206560206204F11C0000F091
:1004500083F83046FFF700FF002070BD2DE9F04122
:100460000F463B49002500EBC00001EB80042E46FF
:10047000FFF7EAFE8046206A3843206204F11C0040
:10048000074600F090F80CE0216A026C114203D09C
:1004900000F066F9012600E06D1C2946384600F0A0
:1004A00078F80028F0D1012E01D1FFF74EFF404629
:1004B000FFF7D2FE0020BDE8F08170B50D4624495B
:1004C00000EBC00001EB8004FFF7BEFE216AA943E8
:1004D0002162FFF7C1FE002070BD70B50C461C49BB
:1004E00000EBC00001EB800500202060FFF7ACFEB0
:1004F000296A2160FFF7B0FE002070BD2DE9F041B0
:100500000D46134900EBC0001E46904601EB8004E7
:10051000FFF79AFE07460F4800680564216A2942E2
:1005200003D104F11C0100F02DF93846FFF794FEC9
:10053000FFF78AFE216A29403160B8F1010F02D12C
:10054000216AA9432162FFF787FE0020B3E700007C
:10055000F00A1000040910000021016008467047ED
:1005600030B50A6812B10B46C46B09E0002208607E
:10057000C0E903210BE000BF02F10C03D26812B105
:10058000D56BA542F8DC1A68C0E903211860002089
:1005900030BD0068002201E0C068521C8A4201D0D0
:1005A0000028F9D170470068704702690AB11168E4
:1005B00031B96FF00400704701F10C02C96839B11C
:1005C0008142F9D1C9681160002101610846704774
:1005D0006FF003007047000010B54FF4C871324847
:1005E0000BF036F9002010BD2DE9F0418846054694
:1005F0002D4900EB8500174601EBC004FFF724FEF0
:100600000646207830B13046FFF726FE6FF0010035
:10061000BDE8F08102202070E7611422414604F118
:10062000080065600BF073F80020206204F12400DC
:10063000FFF792FF3046FFF70FFE0020E8E770B5A6
:10064000194900EB800001EBC004FFF7FDFD0546F2
:10065000D4E90701814205DB144804F12401006854
:1006600000F090F8206A401C20622846FFF7F4FD55
:10067000002070BD70B50C4900EB800001EBC00498
:10068000FFF7E2FD0546206A08B1401E206204F132
:100690002400FFF788FF10B1606A00F011F82846C7
:1006A000FFF7DAFD002070BD580C1000040910009F
:1006B00010B54FF42A7140480BF0CAF8002010BD65
:1006C00010B5044690F8380002280BD02046FFF7FA
:1006D0006CFF022084F8380038492046FFF740FFBD
:1006E000FFF733FE002010BD2DE9F05F8B46064674
:1006F000314900EB06109046DDE90AA911F82020E7
:100700001D461AB16FF00100BDE8F09F01EB8004B7
:10071000FFF79AFD074601202070C4E90165C4E98E
:100720000585C4E907A91422594604F124000AF0FA
:10073000EEFF002084F8370084F838006169E0603B
:100740002061C4E90F1020460C99FFF727FEA06036
:100750002046FFF7B5FF3846FFF77EFD0020D3E7C0
:1007600010B5044690F83800022809D02046FFF75B
:100770001CFF022084F8380010492046FFF7F0FEE5
:10078000002010BD70B5044690F838000D460228D0
:100790000BD12046FFF709FF032084F838002946D3
:1007A0002046FFF7DDFEFFF7D0FD002070BD0448B6
:1007B0000068406870470000E80D10000C09100048
:1007C00004091000F0B58446002004460C4F14E0E4
:1007D0005CF824600323DD0046FA05F280EA02603B
:1007E0000825002802DA87EA400000E040006D1E7C
:1007F000002DF6DC5B1EEED5641C8C42E8DBF0BD00
:100800001B0000800D4880470D480047FEE7FEE7CB
:10081000FEE7FEE7FEE7FEE7FEE7FEE7FEE7FEE7B0
:10082000FEE7FEE7FEE7FEE7FEE7FEE7FEE7FEE7A0
:10083000FEE7FEE7FEE7FEE7FEE7FEE753080000FF
:10084000C50000004FF0005191F8210010F00C009D
:1008500009D0042809D0082809D07820401E01F8C2
:10086000280F087070470F20F8E71E20F6E73C209D
:10087000F4E7704707493F200870E3E70549332054
:100880000870DFE7034800783F2801D00020704758
:10089000012070472100002010B5084904200124E0
:1008A0000023C1F8FC00064A14601360054BA02227
:1008B0001A70C1F8FC01C86710BD000084E000E0B8
:1008C000D403002202E400E010B5042000F0D6F8C2
:1008D000052000F0D3F8062000F0D0F8072000F043
:1008E000CDF8082000F0CAF8764900200860754964
:1008F0002031086074490880724A121D1060714AE4
:100900002432106088806F4A083210606D4A2832A5
:10091000106008816B4A0C3210606A4A2C321060F9
:100920008881684A10321060664A3032106008824E
:100930000621042000F0BAF80621052000F0B6F8E0
:100940000621084600F0B2F80621072000F0AEF8B4
:100950000421082000F0AAF8042000F09BF80520EC
:1009600000F098F8062000F095F8072000F092F8C3
:10097000082000F08FF8042000F074F8052000F043
:1009800071F8062000F06EF8072000F06BF8BDE863
:100990001040082000F066B800EB80004FF6FF71B1
:1009A00001EA4001474800220260C2061186012187
:1009B00001607047434900200860704700EB8000E9
:1009C0004FF6FF7101EA40013E480022001D02601F
:1009D0004FF0005291860121016070473949002093
:1009E000091D0860704700EB80004FF6FF7101EAB7
:1009F000400134480022083002604FF00052118755
:100A00000121016070472F490020083108607047BC
:100A100000EB80004FF6FF7101EA400129480022F7
:100A20000C3002604FF00052918701210160704745
:100A3000244900200C310860704700EB80004FF61D
:100A4000FF7101EA40011F480022103002601E4A77
:100A50000E3211800121016070471A4900201031C7
:100A60000860704700F01F020121914040094FF0DB
:100A7000E02202EB8000C0F80011704700F01F0276
:100A80000121914040094FF0E02202EB8000C0F8C4
:100A90008011704700F01F020121914040094FF082
:100AA000E02202EB8000C0F8801270474907090E6F
:100AB000002803DA00F00F00044A00E0044A8154E1
:100AC00070470000240500223200002014ED00E0F1
:100AD00000E400E0594801210160002101607047F5
:100AE00057480121016000210160704710B50020C6
:100AF00000F08BF8534800220260FFF7F1FFFFF788
:100B0000E9FF514802605149A0200870002000F020
:100B100088F8BDE81040002000F06BB84A48012179
:100B20001C38016000210160704710B504460020A8
:100B300000F06BF843484149046001200860002040
:100B400000F06FF8BDE81040002000F052B830B55A
:100B50003C4889B00468002C11D0202168460AF076
:100B600077FE3B4800783A4B00216A465B1C02E066
:100B7000CD5C5554491C8142FADB1146A04709B0AF
:100B800030BD2E4901201C390860704730482030A4
:100B900000782F4921310978401A00F03F00704752
:100BA0002C4902780A7042784A7082788A70C2783A
:100BB000CA7002790A7142794A7182798A71C07960
:100BC000C871704724480068417882784FF000501F
:100BD000437A0374214B1B78437443891B0A837443
:100BE0004389C37401754275C1798175017AC175F4
:100BF000704700F01F020121914040094FF0E022B0
:100C000002EB8000C0F80011704700F01F020121C4
:100C1000914040094FF0E02202EB8000C0F88011C3
:100C2000704700F01F020121914040094FF0E0227F
:100C300002EB8000C0F88012704700005C84002244
:100C4000A0000022140910007C04002200E400E04F
:100C50000004002000020020200910007409100088
:100C600010B5092000F02AF80A2000F027F8092022
:100C700000F030F80A2000F02DF80521092000F0DE
:100C800035F805210A2000F031F81E487F21417017
:100C900081700171002100F848191B49096891F819
:100CA000C810CA0709D08A0707D510F84A2FC1F320
:100CB0008203012199408A43027010BD00F01F0297
:100CC0000121914040094FF0E02202EB8000C0F882
:100CD0008011704700F01F020121914040094FF040
:100CE000E02202EB8000C0F8801270474907090E2D
:100CF000002803DA00F00F00044A00E0044A81549F
:100D000070470000480000202009100014ED00E0AA
:100D100000E400E07047C9484FF48051018000BFF3
:100D200000BF00BF00BF00BF00BF00BF00BF00BFCB
:100D300000BF4FF4C051018000BF00BF00BF00BF23
:100D400000BF4FF440610180704710B5BB4C0720D5
:100D5000A41E60700020207044F2C000608000BFBC
:100D600000BF00BF4CF2C000608000BF00BF00BFEA
:100D70004CF2E00060800920FFF77CFA44F2E000CA
:100D8000608000BF00BF00BF4FF48040608010BD96
:100D9000F0B500252E464FF00054E02717E000BFC5
:100DA000883401F03F0160702170678000BF00BF90
:100DB00000BFD4F808C043F825C06680883C00BF57
:100DC0006D1C521E491C3F2901D9401CC0B2002A8B
:100DD000E6DCF0BD70B5994C2126268000BF00BF2F
:100DE00000BF00BF00BF40F02105258000BF00BF4D
:100DF00000BF00BF00BF44F221010843208004204F
:100E0000FFF738FA258000BF00BF00BF00BF00BF5A
:100E1000268000BF00BF00BF00BF00BF00202080B1
:100E200000BF00BF00BF00BF00BF70BD70B504466B
:100E3000824800250580824E0120306000F0EBF8EA
:100E4000FFF783FF00F0D7F85C20FFF7C3FF2346CE
:100E5000012202210720FFF79BFF231D012203210E
:100E60000620FFF795FF04F1080301220421052065
:100E7000FFF78EFF04F10C03012203210720FFF787
:100E800087FF04F11003012204210720FFF780FFF0
:100E900000F0B1F8FFF759FFFFF73DFF356070BD77
:100EA00070B50446654800250580654E0120306018
:100EB00000F0B1F8FFF749FF00F09DF85C20FFF764
:100EC00089FF2346012208210020FFF761FF231D2F
:100ED000012209210020FFF75BFF04F10803012232
:100EE0000A210020FFF754FF04F10C0301220B211B
:100EF0000020FFF74DFF04F1100301220C21002018
:100F0000FFF746FF04F1140301220D210020FFF733
:100F10003FFF00F070F8FFF718FFFFF7FCFE3560A9
:100F200070BD2DE9F0439946079B002603B180264A
:100F3000434C0023803CC0B21F4665044FF00108BB
:100F40001DE000BF85F8890001F03F0C4CEA060C5B
:100F500085F888C059F823C0C5F88CC0C4F8B080A3
:100F6000C4F8B070491CC9B2402902D3401CC0B2B9
:100F70000021D4F8C0C0BCF1000FFAD15B1C934231
:100F8000E0DBBDE8F0834FF0005282F889000023D7
:100F900019B1802082F8880001E082F88830284862
:100FA00001218038C0F8AC10C0F8AC30D0F8C010C7
:100FB0000029FBD1704738B50C4605460021F820C2
:100FC000FFF7E1FF0020014600902B462246F82063
:100FD000FFF7A7FF38BD38B50C46054601210020B4
:100FE000FFF7D1FF0120002100902B462246084642
:100FF000FFF797FF38BD10B5104C4FF480402080AC
:101000000420FFF737F90020208000BF00BF00BF99
:1010100000BF00BF10BD10B5084C4FF4C050208079
:1010200000BF00BF00BF00BF00BF4FF48050208052
:101030003520FFF71FF90020208010BD8A00002016
:10104000801000222DE9F843FF4D002634462E7013
:101050006E70012000F093FB0E2000F090FB0D203D
:1010600000F08DFB0C2000F08AFB032000F087FBD2
:10107000012000F090FB0E2000F08DFB0D2000F011
:101080008AFB0C2000F087FB032000F084FB00F0BB
:10109000A4FCDFF8B88300236A460221404600F032
:1010A00037FEEB4F9DF8010038709DF80000402896
:1010B00000D0032601236A460221404600F028FEA4
:1010C0009DF80100397841EA001038709DF8000061
:1010D000402800D003260521012000F068FB0521EF
:1010E0000E2000F064FB05210D2000F060FB0521BF
:1010F0000C2000F05CFB0621032000F058FB0120CF
:1011000000F031FB0E2000F02EFB0D2000F02BFB39
:10111000032000F028FBEC70AC702C713046BDE869
:10112000F883F8B50901840F44EA91041E4620F0C3
:1011300040450094032A01D0042A08D13DB934B1B6
:1011400025460421684601F021F9BF49087100983D
:10115000C6E91A50F8BD7FB582B0144602981E4603
:10116000C0F31201012A19D0032C17D00398C0062E
:10117000820B029842EAD0404200022C10D0042C8C
:101180000ED0052C18D141EAC07145080091042108
:10119000684601F0FBF8052C05D008E0009100E05E
:1011A00000920025F3E7082102A801F0EFF886F885
:1011B0005A000098C6E9180506B070BD70B506461D
:1011C000A44C0020A44D84F8520021462868052E26
:1011D00090F8880784F85700D1E90E0102D0062E56
:1011E00015D031E09B4B3246FFF7B5FF4034994BA9
:1011F000D4E900013246FFF794FF9848C0F30E008F
:10120000A082286890F88B076076E9201AE0914B5D
:101210003246FFF7A0FF40348E4BD4E9000132463E
:10122000FFF77FFF8B480821383001F0AFF88B497A
:1012300001EB8000C0F30E00A082286890F88B07B5
:101240006076ED20A075403CA078800700282868D3
:1012500090F8BA0701DA20F0030084F8580014F877
:10126000570F20F00200207077488670BDE870406C
:10127000784800F067BC78487649006890F800220A
:1012800081F8222090F801220A774A88D20504D4F6
:1012900090F8022202F00F028A7700F203201A313E
:1012A000027802F03F024A71B0F801200A80C27849
:1012B0008A716B4A0079127800F0F00040EA12104F
:1012C000C87170472DE9FC4705460020614CCDE907
:1012D00000005234064620705F4FE12020713968CB
:1012E000DFF87C9191F888076071523C012D06D09F
:1012F000032D2ED0022D42D0042D7DD0D8E0A06841
:10130000C0F31200CDE9000646083146002000F087
:10131000B6FC3146012000F0B2FC94F8570020F0F2
:10132000080084F857004F48C0F30E00A4F854009A
:10133000386899F8002090F8AD1702F00F0201F01C
:10134000F001114384F8211090F8B40784F82200CA
:1013500058E0A06AC0F31200CDE900064608314605
:10136000002000F08CFC3146012000F088FC94F84D
:10137000570020F0080084F857003B4886E0227BA5
:10138000A06802F01F02C00C40EA4230D20CCDE946
:101390000002804691F8B40784F8220041460220FA
:1013A00000F06DFC4146032000F069FC94F8570002
:1013B000082140F0080084F857002648103000F05B
:1013C000E5FF8046A0680821C0F31200CDE90006C1
:1013D000684600F0DBFF234900FB08F001EB40000A
:1013E000C0F30E00A4F85400386899F8001090F883
:1013F000AD0700F0F00000E00FE001F00F0108433E
:1014000084F82100D4E90201124B2A46FFF7A3FE1B
:10141000D4E904010F4B2A4648E094F82C10A06A46
:1014200001F01F01C00C40EA4130C90CCDE90001B8
:1014300080464146022000F022FC4146032000F095
:101440001EFC94F8570011E0180910000410002049
:10145000740910009010100020091000B88B0120B2
:10146000F607100000800120008D012040F00800E8
:1014700084F85700A06A0821C0F31200CDE90006E5
:10148000684600F083FFCF4901EB4000C0F30E0037
:10149000A4F85400FFF7EFFED4E90A01CA4B2A462C
:1014A000FFF759FED4E90C01C74B2A46FFF739FE76
:1014B0006088410794F8571002D521F0020105E039
:1014C0003A6892F8882702F00202114384F8571014
:1014D000C10705D094F8561041F0020184F8561067
:1014E000800710D4022D0ED0042D0CD0386890F84F
:1014F000BA0700BF84F85800B4488570B24800F0BD
:10150000D9FABDE8FC87386890F8BA0720F00300E4
:10151000F0E701280AD0022808D0032806D00428C2
:1015200004D0052801D0062801D147E6CAE6704755
:10153000F8B5A64D0746012901D1002068716C79E4
:10154000A34E641C08E000BF56F8242069463846C4
:101550009047012804D0641C072CF5D90020F8BD61
:101560006C719DF80000F8BD70B5017800291FD09E
:101570000146702294480AF00FF9944CA078002894
:1015800016D101219048FFF7D3FF050010D00020AD
:10159000207060708F48006890F81801400708D5E7
:1015A00000F0A8FB0120E0700A2000F075FAA57099
:1015B00070BD2846BDE87040ABE7002070478268E8
:1015C000520305D00078C00702D001200870704790
:1015D00000207047826A520306D00078000703D5C6
:1015E000032008700120704700207047037B826849
:1015F00003F01F036FF312021A4306D00078C007EE
:1016000003D002200870012070470020704790F836
:101610002C30826A03F01F036FF312021A4306D0C4
:101620000078000703D504200870012070470020CF
:10163000704790F83C30826B03F01F031A4306D0CA
:101640000078800703D5052008700120704700202E
:101650007047D0E9102323F070431A4306D0007876
:10166000400703D50620087001207047002070470E
:1016700000200870012070471FB500F07BF90120A1
:101680008DF800005448019000F6B83002904F48A1
:101690004C49027901EB42010391002101714A4852
:1016A0004168684688471FBD7FB500214648FFF75F
:1016B0003FFF10B1FFF72DFF7FBD444C0025474988
:1016C000A570A420087343483F4E006890F81801A5
:1016D000400705D5B078000702D5E57000F0FBFAA9
:1016E0002078012813D06078012812D08DF800509E
:1016F0003948019000F6B83002903248217900EB69
:101700004100039025717168684688477FBD0220BB
:1017100001E0657004208DF80000E9E72D4810B560
:1017200000684FF0000290F818014107274806D5DD
:10173000C178012907D002290ED0032912D1C27025
:10174000BDE8104098E70221C17000F0D8FABDE86A
:101750001040322000F0A0B90321C1708078BDE8AC
:101760001040D6E610BD00F01F0201219140400953
:101770004FF0E02202EB8000C0F80011704700F04B
:101780001F020121914040094FF0E02202EB80004E
:10179000C0F88011704700F01F02012191404009FC
:1017A0004FF0E02202EB8000C0F88012704749073A
:1017B000090E002803DA00F00F00094A00E0094A88
:1017C00081547047008D01209010100018091000FE
:1017D0008CB90000200910000080012000100020BA
:1017E00014ED00E000E400E02DE9F0430024FE4E9B
:1017F00081462546274600209C4206DA00EB060873
:1018000019F804C088F860C003E000EB060C8CF8FF
:101810006070641C401C0F28EEDB501900F01F00A4
:10182000084340F0800086F835006D1C022DE2DB95
:10183000BDE8F08300B512231C220021EB48FFF71E
:10184000D3FFEA481E231A4600212430FFF7CCFFBD
:10185000E64812231C2240211230FFF7C5FF1E2349
:10186000E24840211A4642305DF804EBBCE7E0480C
:101870000168DD4801F2877118300A7800F8112CF0
:101880004A7800F8102C8A7800F80F2CCA7800F8F3
:101890000E2C0A7900F80D2C8A7C4270CA7C82706A
:1018A0000A7DC2704A7D02718A7D4271CA7D827151
:1018B0000A7EC2714A7E02728A7E4272CA7E827239
:1018C0000A7FC272CB4A127802738A7F4273CA7F40
:1018D000827391F82020C27391F821200274C54AC6
:1018E000521C127842745522827400F8132F11F89A
:1018F000252F4270BF4B4A78DB1E02F0F0021B78A6
:1019000003F00F031A4382708A78C270CA7802719A
:101910000A7942714A798271B64A921E1278C2716E
:10192000B44A521E127802720A7A42728A7AC272DB
:10193000CA7A02730A7B42734A7B82738A7BC273C0
:10194000CA7B02740A7C42744A7C82748A7CC274A8
:10195000CA7C02750A7FA8490A701E2200F8132C5F
:10196000332048740B2088747047A448016800290C
:10197000FCD17047A24800220260A1481C380260D6
:10198000A048026101210161826081600260016002
:1019900002609A49A0F574700B68002BFCD1924943
:1019A0000B7B43F020030B730B7B23F040030B7383
:1019B0000B7B23F080030B730B7B23F020030B7353
:1019C000C0F8D823C0F8E0238F48027070478B48D6
:1019D000183001680029FCD1704710B589480024EF
:1019E000743004608748803004608648C4600121F8
:1019F000C160C4600460016004607B4801720172D0
:101A000020210173A42101737C481830016800294A
:101A1000FCD1FFF7AFFFFFF72AFFFFF70BFF7B4873
:101A200004607A48203004604FF00050848510BD77
:101A30006D49026E4A73130A8B73130CCB73130E2A
:101A40000B7492FAA2F2B2FA82F24A74426E81F8F0
:101A50004420130A81F84530120C81F8462090F892
:101A60005A208A74826ECA74130A0B75130C4B7554
:101A7000130E8B7592FAA2F2B2FA82F2CA75C06E98
:101A800081F84000020A81F84120020C81F84220CE
:101A9000000E81F8430070475C4900220A600A0684
:101AA00090850120086070475448001F0168012993
:101AB000FCD1704710B50446FFF7BAFF4E48183402
:101AC000401CA18F0180484994F84020193181F8C9
:101AD0002120474A126802F2997253784B7093782A
:101AE0008B702378CB7023881B0A0B71A3784B7102
:101AF00063881B0A8B7123798B77A3794B77637982
:101B000000F8013CE379CB77237ACB74637A0B75C9
:101B100012780A7094F83E20427394F83F205438AB
:101B200001F8112CA27ACA76344A1939121F1368A7
:101B3000012BFCD190F861000873BDE8104041F220
:101B40008830A9E710B50446FFF772FF2A494834E8
:101B5000491CA08908802448E27B0272244A12684A
:101B600092F89A378376193092F89B3783702378EE
:101B7000C37123881B0A0372A378037363881B0A4B
:101B8000437323798377637901F8013CE379C37761
:101B9000237A4375637AC375A37B4B73637C543993
:101BA00000F80E3C92F8993723F0070300F8193932
:101BB000A37A483CDB0702D092F8CE2701E094F8E4
:101BC0004E2080F836200D4A121F1368012BFCD1DD
:101BD00094F8582080F83A2091F861100173BDE81C
:101BE000104041F2883057E7001000203804100000
:101BF00020091000F907100053000020040B0022F8
:101C00001C0C0022D00300221A091000200500221B
:101C10007149724B0A6892F8892702700A681B782A
:101C200092F8AD2703F00F0302F0F0021A4342705E
:101C30000A68B2F8A2274280096801F2A7710A88EF
:101C400082800A7A82718A7AC271497B01727047F6
:101C50006349027801F80C2C42780A7682784A733C
:101C60004288120A8A7302798A748288120ACA74B4
:101C700082798A76C2790A77007AC8777047F0B598
:101C8000122628B1012806D002280AD0554803E0C0
:101C90004FF4801007E05448C024514D0023153DF7
:101CA00003E050480F388024F7E7CA070DD0002220
:101CB00002EB050C875C8CF86070521C0F2AF7DB76
:101CC00003F01F02224385F835201E3049085B1CB3
:101CD000B342EADBF0BD42481538017B21F04001F8
:101CE0000173017B21F080010173017B21F0200150
:101CF000017370473A4920201539087370473849F5
:101D0000C0201539087370473849002008607047B3
:101D100070B5374C2568002DFCD1354E1C361BB1F3
:101D200001233360002305E03560FBE7C6185B1C28
:101D300086F880508B42F9D32368002BFCD102E057
:101D4000C45CD4545B1C8B42FAD370BDF8B500F070
:101D50004AFF26490020086026480078002830D035
:101D60002348183801680029FCD11D4C153CE07847
:101D70004FF00105400601D51F480570E0780023AB
:101D80006A460121FFF7C4FF9DF800001B4E0007C3
:101D900005D500220121AE2003F056FF3570E07812
:101DA00001236A461946FFF7B3FF9DF800000007BC
:101DB00005D500220221AE2003F046FF3570FFF763
:101DC00073FCF8BD10B500F00EFF08490020086054
:101DD000BDE81040FFF7A2BC20091000F607100074
:101DE000151000202B0210000F001000200500220B
:101DF0001C0B00221A091000180910001909100004
:101E0000FEE70446012003F00AFF00210F202268AC
:101E100003F01AFF01210F20626803F015FF022171
:101E20000F20A26803F010FF03210F20E26803F0E7
:101E30000BFF0C210F20226903F006FF0E210F205B
:101E4000626903F001FF0F210846A26903F0FCFE5E
:101E500020210F20E26903F0F7FE384802682121B3
:101E60000F2003F0F1FE35481038026822210F20C0
:101E700003F0EAFE31480C38026823210F2003F0FA
:101E8000E3FE2E480838026824210F2003F0DCFE10
:101E90002A48001D026825210F2003F0D5FE27489F
:101EA0003438026826210F2003F0CEFE2348143870
:101EB000026827210F2003F0C7FEFEF778FC0246D8
:101EC00030210F2003F0C0FEFEE710B5012805D039
:101ED000022805D0032809D0032102E0012100E0F7
:101EE0000221BDE81040032003F099BE0021032029
:101EF00003F095FEFEE710B504460146042003F00A
:101F00008EFE012C00D1FEE710BD0146082003F033
:101F100086BE0146062003F082BE10B50446014687
:101F2000072003F07CFE24B1012C03D0022C02D147
:101F3000FEE7FEE7FEE710BD0220EEE738ED00E029
:101F400000F051BE704770471D4810B5016821F080
:101F50000401016000F047FEBDE81040FEF7F7BD48
:101F60007047704710B500F03EFEBDE8104003F02A
:101F700061BD10B500F037FEBDE8104004F0A4B814
:101F800010B500F030FE0F48006890F82901800776
:101F900003D5BDE8104003F05BBD10BD704770472E
:101FA0007047704770477047704770477047704779
:101FB0007047704770477047704770477047000020
:101FC00010ED00E02009100010B54221834809F00F
:101FD0001DFC82488249834A018042808249818077
:101FE000824BC380824C0481824C8481824C048267
:101FF000824C4486824C8486824CC486824C048700
:10200000C387428781878149A0F8401080480068D3
:10201000B0F89C274A80B0F8A027CA80B0F8A5077E
:10202000088110BDF0B585B0FF221421684609F083
:10203000E5FB6846FEF7FAFE03980325012707260D
:1020400045F2AA54A04202D00498A0423AD1DDE958
:102050000001884206D00299884203D00198884244
:1020600008D100900498A04210D10098000E0128D9
:1020700005D007E05FF00000FFF74BFF0FE000988E
:10208000C0F301370098C0F3032602E00120FFF7F8
:1020900040FF0398A04213D1009800F007055D4966
:1020A000887920F0F30207F0030040EA061010439D
:1020B00088715948017865F30201017005B0F0BDDF
:1020C0000220D9E70120FFF724FFF9E770B5FEF7FA
:1020D000D1FBFEF70BFD4E4D28680078A52802D0F5
:1020E0000120FFF708FF4D48006810B10020FFF7FE
:1020F00002FF28684FF000064FF0010490F8291104
:102100008A074FF0085104D5C1F89863C1F880439D
:1021100001E0C1F8984390F82811414A01F001010B
:10212000116090F82811121DC1F3400111603D4962
:102130000C60091F0C60091F0C6090F8C800C107F3
:102140000BD0810709D5C0F38200012805D13248A0
:102150003130017821F007010170FEF7DBFDFEF759
:10216000B3FBFEF76FFF032801D1FFF7AEFEFEF7CA
:1021700029FDFEF791FBFEF773FDFFF753FF28687B
:1021800090F829018107284801D5046000E0066025
:10219000046070BD10B54FF000514FF4C07048811D
:1021A000FFF794FFFFF710FF20493F200860204908
:1021B0000020086020481F49016001F550601F4958
:1021C00008601F4800F00FFBFEF74EF800F03AF8E9
:1021D000FEF748F8FEF7CCF8012010BD0000012002
:1021E00000800120688E0120209A012042000120F9
:1021F000B88B0120D60C01203A0D0120CC0C012017
:10220000548E01205E8E0120FA0B0120443810000C
:10221000200910000010002020000020C81000221B
:1022200088040022280A00227C040022A00D01203C
:1022300070091000B81C10004C0910005009100063
:10224000B83610007FB5FEF76BF8204D002400BFB4
:1022500005EB441000F11002017F4CCACDE9026188
:10226000CDE900230FC8FEF73FFA10B10120FFF7B8
:1022700054FE641C072CEBDB144D002415F1E00523
:1022800004EB440005EB8001091D55F8200006C948
:10229000FEF7AAF910B10120FFF73FFE641C072CDE
:1022A000EEDB0B4D002400BF05EBC400416855F880
:1022B0003400FEF7B3F810B10120FFF72EFE641CC6
:1022C000062CF1DB7FBD4068FFF736BEACB90000DD
:1022D000E0BA00002DE9F0479246012547F6F87272
:1022E00056429946AC460024089F16E030F8143058
:1022F00031F81480A8EB03031BB29A4200DD1A46A2
:102300009E4200DA1E46002B02DA4FF0000502E082
:1023100001DD4FF0000C04F10104BC42E6DB55EA9C
:102320000C0306D0012D01D02DB108E0BCF1010F46
:1023300005D1002203E0BCF1010F00D13246002597
:102340002C462B4611E000BF30F8136031F813C063
:102350001644ACEB060636B24E4505DAC9F1000C60
:10236000664501DD3544641C5B1CBB42ECDB95FB20
:10237000F4F10A44002105E030F8113013442AF842
:102380001130491CB942F7DBBDE8F08770B5034650
:1023900000200246F84C09E09D5C521C05F00F0637
:1023A00004EB1515A65D2D78304428448A42F3DBF2
:1023B00070BD884200D308467047884200D808465E
:1023C0007047884200D30846904200D310467047B9
:1023D0002DE9F047D0F810C00568046A85FB0C129F
:1023E000A1FB041242694368914683FB0262826941
:1023F000E246A6FB02677618D0E9021781FB07C800
:10240000C069ACFB00C81CEB060682FB0A2CA2FBD1
:10241000011280FB0902A0FB0502401884FB071291
:10242000A1FB03120818301A4FEAE071ACE72DE95E
:10243000F04389B00446006800906068019020690C
:1024400002906068039020690490A069059020695B
:102450000690A0690790E06908900D466846FFF76E
:10246000B7FF8046A0680190E0680490606907901B
:1024700089466846FFF7ACFF064660680190A06891
:10248000029020690490E0680590A0690790606957
:1024900008900F466846FFF79BFFC5E90401C5E9B0
:1024A0000267C5E9008909B0BDE8F0832DE9FF4F57
:1024B0004FF0000A89B09B465746D146D046564653
:1024C000554654462021684609F0C2F90B9810E0A1
:1024D0000999824431F9102000FB00F102FB0166EA
:1024E0008844414302FB009901FB004417440D441A
:1024F000401C5845ECDD0B99ABEB0100401CCDE9CD
:10250000000ACDE90654CDE90486CDE90279684692
:102510000A99FFF78CFF0DB0BDE8F08F974801686E
:10252000087B4A7B40EA02208A7B40EA0240CA7B61
:10253000097C40EA02600018494170478F480168F1
:1025400008794A794B7A40EA02208A7940EA0240C7
:10255000CA7940EA02600A7A42EA03228B7AC97A8F
:1025600042EA034242EA0161704700B5FFF7D6FF35
:1025700049084FEA30000018494100BD2DE9F34FEA
:1025800083B00446FFF7F1FFCDE90001FFF7C6FF76
:1025900081468A4608216846FFF7F8FE4FF000089A
:1025A000DDE9006704EB400B454644462246012026
:1025B000002109F075F803460A46304039400843C7
:1025C0000DD003EA090302EA0A02134306D0049875
:1025D0003BF8152020F8182008F101086D1C641C38
:1025E0001E2CE3DB05B097E7A8E72DE9F34F85B094
:1025F0000446FFF7BAFFCDE90201FFF7F5FFCDE989
:102600000001FFF79BFF81468A46082102A8FFF7D9
:10261000BDFE054608216846FFF7B8FE00EB450001
:102620004FF00008DDE9006704EB400B45464446E7
:1026300022460120002109F033F802460B463040C3
:10264000394008430DD002EA090203EA0A031A439B
:1026500006D006983BF8152020F8182008F101084C
:102660006D1C641C322CE3DB07B055E77FB50D46CB
:102670000446082102A8FFF789FE4149420008707C
:1026800004EB4001284609F042F87FBD2DE9F047F0
:102690003A4800252C46006800F5F57890F8E87176
:1026A000AFB190F8E611C90715D000264FF0010927
:1026B00009FA06F0074207D018F806200120002189
:1026C00008F0EEFF05430C43761C052EF0DB68197D
:1026D00044EB040158E690F8E9210120002108F0BC
:1026E000DFFF05460C46F2E72DE9F04723480024BA
:1026F0002546006800F5F57890F8E871FFB190F88C
:10270000E611C90708D090F8E9210120002108F05E
:10271000C7FF04460D4612E000264FF0010900BF36
:1027200009FA06F0074207D018F806200120002118
:1027300008F0B6FF04430D43761C052EF0DB20465F
:10274000294621E670B500220C4C012303FA02F65B
:10275000256895F8E851354203D030F8125021F839
:102760001250521C052AF1DB70BD00B5FFF7D6FEF2
:1027700040F0010000BD000010BB00002009100067
:1027800068091000DAE6FE4A520102EB810101F10C
:10279000085108607047CA0700D00422C0EB00103F
:1027A00001EB800000EBD0704FF4801101EB600072
:1027B0000078D04000F00F00704710B5CB0700D074
:1027C0000423C0EB001001EB800000EBD0704FF44D
:1027D000801101EB60010F2408789C40A0439A40CF
:1027E0001043087010BD2DE9F14F82B0F02102981E
:1027F00009F02EF8FFF7B9FF5FEA51094FEA3008F8
:10280000FFF7C0FF4FF0000A8B46554600902A465E
:102810000120002108F044FF009A01EA0B0110405A
:10282000084323D0002601273446224601200021F8
:1028300008F036FF00EA080001EA0901084310D059
:1028400029462046FFF7A7FFB04208D0029901238E
:1028500001EBC70603FA0AF332681A4332600646F0
:102860007F1C641C242CE0DB0AF1010A6D1C3C2D4A
:10287000CDDBBDE8FE8F2DE9F0478246C14800263A
:102880000121D0F80090324699F814305C1E1FE008
:10289000032099F8158018E0BB4D012707FA01F7CE
:1028A00055F830503D402D000ED0A0F1010500FB41
:1028B000031705FB031C3AF917703AF91C507D1BEE
:1028C00000D56D422E44521C401C8045E4DC491C5E
:1028D0008C42DDDC02B9012296FBF2F054E52DE9D1
:1028E000FF4F85B00021A74C039102910191009107
:1028F0002168012B91F8775005F00F0700D10027D0
:102900004E7D91F87A10C7F1100BB14200D20E46FD
:1029100000210123049186E04FF00009C8460324FA
:1029200022E099494FF0010C0CFA03FC51F83410E5
:1029300001EA0C01090004FB053130F911C0A4F1D2
:10294000010101FB053130F91110ACEB010106D09A
:10295000002900DA4942DDF818C0A1EB0C0100297A
:1029600000DA49428944641CB442DADB31469EF8FD
:1029700015A022E0844C4FF0010C0CFA03FC54F833
:10298000314004EA0C04240001FB053430F914C082
:10299000A1F1010404FB053430F91440ACEB04044C
:1029A00006D0002C00DA6442DDF818C0A4EB0C0459
:1029B000002C00DA6442A044491C8A45DADC049900
:1029C000012910D10199B1EB090101D5C1F1000133
:1029D000039C214403910099B1EB080100D54942C1
:1029E000029C21440291CDE900899EF87B10994216
:1029F00016D11168039D79430BFB0511CC1701EB30
:102A00001471091111609168029D79430BFB051146
:102A1000CC1701EB1471091191600021039102910F
:102A200001215B1C04915749D1F800E09EF8145035
:102A3000691E99423FF770AF5068039B78430BFBC8
:102A40000300C11700EB117000115060D068029BA9
:102A500078430BFB0300C11700EB11700011D0602D
:102A600009B059E57FB50E460446FFF77EFDCDE976
:102A70000001FFF7B9FDCDE90201DDE900014908D8
:102A80004FEA3000CDE900014FF008016846FFF73A
:102A90007DFC0546082102A8FFF778FC2844820047
:102AA0002146304608F033FE7FBD0B4635490968A4
:102AB0004A7D097D521C4A4301465200184608F0DF
:102AC00026BE03E011F8013B00F8013B521EF9D28B
:102AD000704770B50446702108F0BAFE00202070DF
:102AE00060806060FFF741FEC4E90201FFF74AFE23
:102AF000264DC4E90401234E68882083306800F223
:102B00009E7001886183417E217790F82A10617759
:102B1000017EA177817EE177817B84F820101C49BA
:102B2000C07B097800F0F00001F00F01084384F841
:102B30002100FFF7ABFDC4E90A01FFF7D5FDC4E9A9
:102B40000C01FFF712FDC4E90E01FFF74DFDC4E9CA
:102B50001001E888A4F84800A4F84A00306800F2A0
:102B6000AE70C17E84F84C10417F84F84D10817F97
:102B700084F84E10017F84F84F1001780AE00000BD
:102B8000A00D012020091000B836100044381000B4
:102B9000F607100084F85010817884F85110007BFB
:102BA00084F8580070BD10B50446FDF75DFB012C9C
:102BB00009D16C48006890F81801800703D56A486D
:102BC0000078052803D0FDF75DFE30B107E0FDF782
:102BD00059FE20B1FDF752FE01E0FDF74BFEBDE8C6
:102BE0001040FDF73FBB0020DDE75E4B10B51A68D3
:102BF000947E640704D5D28A0468A2EB04020260C2
:102C00001A68947EA40703D5128B0C68121B0A6005
:102C10000268002A00DA002202601C68E48AA242EC
:102C200000DD224602600A68002A00DA00220A60FB
:102C30001C68248BA24200DD22460A601B689B7E32
:102C4000DB0702D003680B60026010BDF0B5002501
:102C50002C46059E0AE000BF31F9147030F914C00B
:102C6000A7EB0C07974200DD6D1C641C9C42F3DB54
:102C7000B54201D90120F0BD0020F0BD2DE9F04F93
:102C80009246DDE909B7012547F6F87256429946A2
:102C9000AC46002417E000BF30F8143031F814803F
:102CA000A8EB03031BB29A4200DD1A469E4200DAEB
:102CB0001E46002B02DA4FF0000502E001DD4FF066
:102CC000000C04F10104BC42E6DB55EA0C0306D01B
:102CD000012D01D02DB108E0BCF1010F05D100227A
:102CE00003E0BCF1010F00D1324600252C462B46F3
:102CF00011E000BF30F8136031F813C01644ACEB9C
:102D0000060636B24E4505DACBF1000C664501DD0C
:102D10003544641C5B1CBB42ECDB95FBF4F10A44BC
:102D2000002105E030F8113013442AF81130491C15
:102D3000B942F7DBBDE8F08FF0B506460020044647
:102D40000546521C059F09E036F911C09C4504DD7B
:102D5000A44502DD64460D460120491C9142F3DB87
:102D60003D60F0BD200910005E09100030B490E80D
:102D70001C00EA49C068C1E90240C1E9002330BC37
:102D80004FF400610120FDF769BB70B59EB00646A7
:102D90000D4614466846FFF79CFE14F0050F02D05E
:102DA00001208DF80000DE49E00609D5086890F89A
:102DB000E80128B19DF8000040F008008DF80000FF
:102DC00014F4F17F11D0086890F85011C90706D1AA
:102DD00090F8041319B990F8B001C00705D09DF818
:102DE000000040F006008DF80000ADF84A50ADF844
:102DF0001860ADF84850AFF28B00C84D03244FF473
:102E0000006601906846FEF7AFFB1CAB002231461E
:102E10000120FDF773FB31460120FDF74EFB2878BA
:102E2000002804D0FFF751F8641E002CEADC1EB025
:102E300070BD10B5C00709D040F6B831B94808F0E8
:102E4000E5FCB948002101604160018110BD2DE918
:102E5000F0410746B248006890F82010490710D5A5
:102E600090F821000125C0F3011085400024AF4EE9
:102E700005E0F18870883A46FFF787FF641CAC4292
:102E8000F7DBBDE8F0812DE9FF4F8BB00446FFF77B
:102E900079FCCDE90801FFF768FCCDE906010821BE
:102EA00006A8FFF773FA0546082108A8FFF76EFA8F
:102EB000DFF86CB245434FF0010ADBF800004FF435
:102EC000D05190F8210000F007070AFA07F9984856
:102ED00008F0BEFC1421684608F0BAFC002639E070
:102EE00092482246C1880C98FFF74FFF14F0050F57
:102EF00012D08A488F49406802F082F98D4A00203A
:102F00008B4907E051F8203032F910C0634441F892
:102F10002030401CA842F5DBE0061AD57F488649E0
:102F2000C068FFF70FFCDBF80010834B002091F81E
:102F3000E82169460AFA00FC12EA0C0F06D051F8A3
:102F400020C033F91080C44441F820C0401C05283B
:102F5000F0DB761C4E45C3DB14F0050F0BD00020D0
:102F6000734A06E052F820100D9B394123F81010E7
:102F7000401CA842F6DBE00613D500205A46514615
:102F80006C46136893F8E85101FA00F31D4205D02E
:102F900054F820300E9D3B4125F81030401C052888
:102FA000EFDB0FB0BDE8F08F2DE9F74F5C4D8346A6
:102FB00084B0286890F85011C90706D190F804131E
:102FC00019B990F8B001C0074CD0FFF7CEFACDE99F
:102FD0000001FFF709FBCDE9020108216846FFF770
:102FE000D5F90446082102A8FFF7D0F9204444008F
:102FF0002868012690F8210000F00707BE40A100D4
:103000004B4808F025FC0025DFF82481DFF81C91EF
:10301000DFF808A117E000BFB9F802005A46059989
:10302000FFF7B3FE00204146DAF8082008E000BFB1
:1030300051F8203032F910C0634441F82030401C70
:10304000A042F5DB6D1CB542E6DB394A0020434661
:1030500006E000BF53F82010394122F81010401C40
:10306000A042F7DB07B09DE70EB510F0820008D054
:1030700000210091019102912C496A46C988FFF70D
:1030800093FF0EBD70B505460020FDF7D8FA03206A
:10309000FDF7D5FA2846FFF7CCFE2848017801292C
:1030A00004D1002101702846FFF7D1FE15F011046C
:1030B00006D01E481C4B1B4A41882046FFF7E3FE02
:1030C000E00718D0164C206890F8200000070AD5B9
:1030D0001448FFF7D0FB1A4901231A4A0860014639
:1030E0001048FFF7FCFB206890F84904C00702D0A5
:1030F000284601F0D5FD15F0820F02D02846FFF7D3
:10310000B3FF11490120087002F084FC0020FDF794
:10311000B1FABDE870400320FDF7ACBAF44F1000DF
:103120002009100042000120FA0B01204438100051
:10313000B81C100000111000CC0C01202809100050
:1031400054091000A83710003609100030B490E878
:103150001C00FD49C068C1E90240C1E9002380218B
:1031600030BC0120FDF77AB930B59DB00446684601
:10317000FFF7AFFC0021012C04D0032C04D0022C5B
:103180000AD01BE0012000E008208DF81E108DF809
:1031900000008DF81D1011E006208DF80000EB48AE
:1031A0008DF84E108DF84D10D0E906219218494146
:1031B000CDE90E21D0E90810CDE91010AFF273006F
:1031C0000190BDF80200E04D40F48270ADF80200BD
:1031D00003246846FEF7C8F91CAB002280210120B9
:1031E000FDF78CF980210120FDF767F92878002888
:1031F00004D0FEF76AFE641E002CEADC1DB030BD70
:103200002DE9FC5F00200090FFF740FA04460D46D0
:10321000FFF76AFA8846CE4907464FF0000008607B
:1032200048600881CB495FEA550B4FEA340A0860D1
:10323000486008814FEA00094FF00300FFF794FF50
:10324000C14800242646C068019032460120002172
:1032500008F026FA00EA0A0001EA0B0108433CD014
:1032600000252A460120002108F01AFA384001EA18
:10327000080108432ED0B848006890F8E8110120F2
:10328000A040014226D029463046FFF784FAB249D1
:10329000DFF8BCC209683CF91430B1F83421991A3E
:1032A000019B33F91430A3EB020200D54942002AF6
:1032B00000DA5242914204DBA6492CF8143021F87E
:1032C00014000F2805D2401CC2B229463046FFF731
:1032D00074FA641C6D1C3C2DC3DB761C242EB4DBFD
:1032E00009F10109B9F1100FA6DB4FF00109032024
:1032F000FFF73AFF002635462A460120002108F054
:10330000CFF900EA0A0001EA0B01084324D00024A7
:1033100022460120002108F0C3F9384001EA0801E3
:10332000084316D08C48006890F8E8110120B0409E
:1033300001420ED08748214610F81600019002463F
:103340002846FFF73AFA01980F2801D34FF00009F9
:10335000761C641C3C2CDBDB6D1C242DCCDBB9F112
:10336000000F02D10520FEF7D0FD0320FFF7FCFE81
:1033700075487A49C068FFF7E5F977490020774B2F
:103380000968012240F6FF7591F8E81102FA00F48D
:10339000214209D033F91040002C01DDAC4203DB9F
:1033A00001200090BDE8FC9F401C0528EEDB009842
:1033B000F8E72DE9F05F68490A6892F830010506E0
:1033C0006748037803F00F0407D492F83E1121F008
:1033D0000F0121430170BDE8F09F0025DFF868A1CF
:1033E000834604702E46012789460320FFF7BCFE62
:1033F0005A49DAF80C00FFF7A5F9D9F80020574B25
:10340000002092F8E81100BF07FA00FC11EA0C0F47
:1034100005D033F910C0B2F84D81C445DBDB401C48
:103420000528F1DB0F2D08D26D1CEDB244EA051022
:10343000761C8BF80000102ED7DBBDE8F05F04206F
:10344000FEF763BD2DE9FC5FFFF78FF904460D46DB
:10345000FFF798F9074688465FEA550B4FEA340AAA
:1034600040F6B8313F4808F0D1F900204FF0240968
:1034700000900120FFF778FE334800264068019055
:1034800035480068057D40E032460120002108F003
:1034900007F900EA0A0001EA0B01084334D00024CE
:1034A00022460120002108F0FBF8384001EA08011B
:1034B000084326D021463046FFF76DF92649DFF84C
:1034C000A4C009683CF91530B1F83421991A019B60
:1034D00033F91530A3EB020200D54942002A00DA85
:1034E0005242914204DB20492CF8153021F8150096
:1034F0000F2805D2401CC2B221463046FFF75DF9C5
:103500006D1C641C3C2CCBDB761C4E45BCDB009850
:10351000401C00901028ACDB01200090FFF724FE37
:103520000D4800250068067D2A460120002108F08C
:10353000B7F800EA0A0001EA0B0108432FD0002483
:1035400001202246002111E00450100080091000E3
:10355000548E01205E8E012020091000CC0C012029
:10356000F6071000688E0120209A012008F098F8D4
:10357000384001EA080108430ED0FE48214610F801
:103580001600019002462846FFF717F901980F2808
:1035900001D300200090761C641C3C2CD0DB6D1CF9
:1035A0004D45C1DB009810B90320FEF7AEFCBDE825
:1035B000FC5F0120D8E52DE9F05FEF4A116891F832
:1035C0003001C407ED48037803F0F00514D005700E
:1035D00000264B7D0C7DDFF8A8A35B1CB04691460E
:1035E00004FB03F783460120FFF7BEFD2046DAF80F
:1035F0000420D9F800100EE091F83E1101F00F01FF
:1036000029430170E7E600BF32F91030B1F832C14A
:103610006345F7DB401C8742F6DC0F2E0AD2761C8E
:10362000F6B245EA060108F101088BF80010B8F17E
:10363000100FD8DBBDE8F05F0220FEF766BC10B5C6
:103640004FF487614FF4801008F002F9FFF7B3FFE1
:10365000FFF7F8FEC84C206890F8E80118B1FFF7B2
:10366000A8FEFFF7CDFDC5482268401D017892F8FD
:10367000FB2701F0F00102F00F0211430170C14875
:10368000FFF7B1F8BDE81040012002F09FBB2DE923
:10369000F047FEF7FBFF81468846FFF725F8064610
:1036A0000F4600252A460120002107F0F9FF00EA15
:1036B000090001EA0801084311D000242246012034
:1036C000002107F0EDFF30403940084304D00022CC
:1036D00021462846FFF771F8641C3C2CEEDB6D1C7C
:1036E000242DDFDBBDE8F08710B5D124FFF7CFFF35
:1036F000A148006890F8E80128B1FFF75AFEFFF7EB
:103700007FFD44EA00442046BDE8104002F05EBB65
:103710002DE9F05FDFF8708297480025D8F80CA0FB
:10372000D8E90667D0F800902C4640F6FF7B224689
:103730000120002107F0B4FF3040394043460843E0
:103740001CD03AF9150028B1584507D1186840F047
:10375000100011E0186840F020000DE0B9F83621A3
:10376000B9F8411102EB010C844502DB511A814288
:1037700003DD186840F0400018606D1C641C402C8C
:10378000D5D300251E6AD8F810A0D8F824702C468E
:1037900022460120002107F083FF30403940424695
:1037A00008431DD03AF9150028B1584507D11068D3
:1037B00040F0100011E0106840F020000DE0B9F872
:1037C0003A11B9F8433101EB030C844502DBC91A05
:1037D000814204DD106840F04000C8F800006D1C14
:1037E000641C402CD4D3F6E52DE9F047DFF898911E
:1037F0000024DFF898A1D9E9067825462646324606
:103800000120002107F04CFF384001EA08014A4638
:10381000084304D01AF80600A04200D90446761CDA
:10382000402EECD3DFF864A1D2F82080D9F82470C0
:103830000AF1240A002632460120002107F030FF59
:1038400000EA08003940084304D01AF80600A842EC
:1038500000D90546761C402EEDD3484E4A4BF61C47
:10386000721C3470D01E157000781B680119901EF0
:10387000FF27007843F080032844814207D2401A92
:103880002044FF2801D830702CE7377008E08842C8
:10389000FAD2081A2844FF2801D8107022E71770BE
:1038A000C9F800301EE72DE9F84F3848DFF8DC9002
:1038B000804609F12409602107F0CAFFFFF794FF51
:1038C000FDF7D5FFFDF7B6FF04200324DFF8B8B0FD
:1038D000002600900220FFF747FCE0072DD04FF0B4
:1038E000000A574655462A460120002107F0D8FE17
:1038F000DBE9063C184001EA0C01084315D0DBF86F
:103900000C0030F917101C480068B0F838018142EB
:103910000ADA18F8050000994FF0010A0844FF2858
:1039200000DDFF2008F805007F1C6D1C402DDAD358
:10393000BAF1000F01D124F00104A0073CD54FF0EB
:10394000000A574655462A460120002107F0A8FEE6
:10395000DBE9083C184001EA0C01084324D0DBF8FD
:10396000100030F9171004480068B0F83C0181429B
:1039700019DA0DE0209A012020091000F607100046
:1039800004501000B83610008009100038041000F0
:1039900019F8050000994FF0010A0844FF2800DDDE
:1039A000FF2009F805007F1C6D1C402DCBD3BAF118
:1039B000000F01D124F0020444B1FFF715FFFDF719
:1039C00056FFFDF737FF761C642E83DB03240026A9
:1039D0000220FFF7C9FBE0072AD04FF0000A574644
:1039E00055462A460120002107F05AFEDBE9063C35
:1039F000184001EA0C01084312D0DBF80C0030F942
:103A0000171098480068B0F83801814207DD18F8AF
:103A1000050020B1401E4FF0010A08F805007F1C88
:103A20006D1C402DDDD3BAF1000F01D124F001044B
:103A3000A0072AD54FF0000A574655462A460120CE
:103A4000002107F02DFEDBE9083C184001EA0C01DB
:103A5000084312D0DBF8100030F9171081480068D5
:103A6000B0F83C01814207DD19F8050020B1401E85
:103A70004FF0010A09F805007F1C6D1C402DDDD3B5
:103A8000BAF1000F01D124F00204002C08D0FFF796
:103A9000ABFEFDF7ECFEFDF7CDFE761C642E97DB4A
:103AA000BDE8F88F2DE9F0476E4A00246E4D10688E
:103AB00090F830118B07214602D50124297002E0CD
:103AC00090F83F312B70914690F83021674E5207A5
:103AD00003D544F00204317002E090F840013070E8
:103AE000002C6CD06021624807F0B2FE5F49FF20D5
:103AF000891C0870491E0870FDF79CFEFDF7B7FE93
:103B0000DFF870814FF0100A00270220FFF72CFB2E
:103B1000E00723D0D8E902C30020014606E000BF39
:103B200033F91120824200DD1046491C6145F7DB64
:103B3000D9F80010B1F83621824202DA2878401E06
:103B400008E0B1F84B11814206DB28785044FF2889
:103B500000DDFF20287001E024F00104A00725D536
:103B600000200146D8F804C0D8F8103006E000BFA5
:103B700033F91120824200DD1046491C6145F7DB14
:103B8000D9F80010B1F83A21824202DA3078401EAA
:103B900008E0B1F84B11814206DB30785044FF2831
:103BA00000DDFF20307001E024F00204002C06D07C
:103BB000FFF71AFEFDF75BFE7F1C202FA5DB91E5CA
:103BC00070B52C4C00202060FEF7CFFCC4E9060144
:103BD000FEF70AFDC4E90801FEF758FDD4E9062303
:103BE0001943104349084FEA3000C4E906014FF079
:103BF000080104F11800FEF7C9FBA060082104F1D8
:103C00002000FEF7C3FB60600220FFF7ADFA1A4800
:103C1000A168806800EB4102E260626802EB41014A
:103C200000EB41002061FFF73DFF0E4D286890F842
:103C30003001800601D5FFF736FEFFF769FDFDF77D
:103C400016FE0A482968C01C027891F8FB1762F337
:103C5000030101702068BDE8704040F0020002F0EE
:103C6000B5B8000020091000F7071000F807100091
:103C700038041000800910000450100030B490E89F
:103C80001C009149C068C1E90240C1E900238021BC
:103C900030BC0120FCF7E2BB2DE9F0418B4D8046A2
:103CA0000C4628689EB090F8B10000F00F024FF06B
:103CB000FF30521C014607F0F3FCC643CF43684671
:103CC000FEF707FF01208DF80000ADF802402868DC
:103CD00000F5867001788DF81C1044F00101ADF8F4
:103CE0000210CDE90267ADF81880AFF26F010191C3
:103CF00041788DF81F108078734D8DF820000324D3
:103D00006846FDF731FC1CAB002280210120FCF746
:103D1000F5FB80210120FCF7D0FB2878002804D097
:103D2000FEF7D3F8641E002CEADC1EB0BDE8F0817B
:103D30002DE9F047654D4FF00009DFF88C812868C8
:103D400000F570700478467887781AE04946204676
:103D5000FFF7A2FFD8F8040005F09CFC0146286894
:103D600090F80B2112F00F0000D1012012094A43F4
:103D7000B2FBF0F082B22146302002F06AF8E0197E
:103D800084B2B442E2DDBDE8F0872DE9FF5F4FF673
:103D9000FF764FF0000A93460F468046344655465C
:103DA000DFF828911CE000BF38F815005146FFF7F6
:103DB00073FF4548406805F06DFCD9F8001091F894
:103DC0000B2112F00F0100D1012112094243B2FB75
:103DD000F1F080B2A04202D238F8156004466D1CA2
:103DE000BD42E1DBABF8006003980480BDE8FF9FB3
:103DF0002DE9F041354E05468846306888B090F888
:103E0000D12002F00F01C2F30214491C641C0A29DC
:103E100000DD0A21022C00DD0224D23006AB05AA07
:103E2000FFF7B3FF326892F8D00080071BD5BDF8CA
:103E300014600121E632ADF8006000204FF4803CB0
:103E40006F4607E013563344634502D227F811301A
:103E5000491C401CA042F5DB002904DD06AB05AA85
:103E60003846FFF792FFBDF814002880BDF81810FF
:103E7000A8F8001008B059E77CB50020FCF7DFFB7C
:103E8000134C01A968466588FFF7B2FF0F48006828
:103E9000B0F8FA10BDF80400814201D9218000E099
:103EA0002080BDF8000060800020FCF7E3FB09499A
:103EB0000120087008490870BDF800202946092033
:103EC00001F0AAFF7CBD0000145010002009100072
:103ED0004438100036091000760910002DE9F04131
:103EE000174604460D46002609E0E00703D0314698
:103EF000384601F0C9FE761C6D084FEA340454EAD6
:103F00000500F2D1BDE8F0812DE9F04116461F46CB
:103F100080464FF0FF35002422460120002107F0A3
:103F2000BFFB30403940084304D06D1C454501D1EA
:103F30002046E7E7641C402CEED30020E2E72DE9A1
:103F4000F0410F4606460A46F44D0120002107F0D5
:103F5000A7FBA5F180040F2E19D2DFE806F0BF7F82
:103F6000900819BFBF2A3B4C5D6EA1A8AF00D5E9F0
:103F700002233846FFF7C8FF02460120002107F060
:103F80008FFBD4E90C2310431943C4E90C01A5E0CD
:103F9000D5E904233846FFF7B7FF02460120002188
:103FA00007F07EFBD4E9182310431943C4E9180134
:103FB00094E0D5E902233846FFF7A6FF0246012028
:103FC000002107F06DFBD4E90E2310431943C4E927
:103FD0000E0183E0D5E902233846FFF795FF02463C
:103FE0000120002107F05CFBD4E9102310431943A2
:103FF000C4E9100172E0D5E904233846FFF784FFD5
:1040000002460120002107F04BFBD4E91C2310439A
:104010001943C4E91C0161E0D5E902233846FFF7E2
:1040200073FF02460120002107F03AFBD4E9122376
:1040300010431943C4E9120150E0D5E9042338467E
:10404000FFF762FF02460120002107F029FBD4E9B7
:104050001E2310431943C4E91E013FE0D5E90223A2
:104060003846FFF751FF02460120002107F018FBF8
:10407000D4E90A2310431943C4E90A012EE0D5E923
:1040800004233846FFF740FF02460120002107F0D5
:1040900007FBD4E9162310431943C4E916011DE0B8
:1040A000D4E9142310431943C4E9140116E0D5E9F7
:1040B000002310431943C5E900010FE0D5E90423AB
:1040C0003846FFF721FF02460120002107F0E8FAF9
:1040D000D4E91A2310431943C4E91A012068401C8B
:1040E00020600FE730B490E81C008D49C068C1E93A
:1040F0000240C1E90023802130BC0120FCF7AEB9A9
:1041000070B5FEF71BFA04460D46FEF7EDFA2043A4
:10411000294370BD70B5FEF701FA4D084FEA30042F
:10412000FEF7B4FA49084FEA300040EA040041EAD9
:1041300005010018494170BD2DE9F35F83464FF03A
:10414000FF37FFF7E7FF8146744800248038884630
:10415000D0F804A02546264632460120002107F06B
:104160009FFA02460B4600EA090001EA08010843EB
:1041700000D07F1C5F4514D1019801281CD029EA8A
:10418000020428EA0305122E09D9A6F11202012021
:10419000002107F085FA29EA000428EA0105B24661
:1041A0001E26761C1E2ED7D35C4829468038C0F8C0
:1041B00004A02046BDE8FC9F14461D46122EEED9F1
:1041C000A6F112020120002107F06AFA04430D4310
:1041D000E5E72DE9F34FA1B004466846FEF779FC08
:1041E0001CA8FDF715FDFFF795FF4C4E49084FEA57
:1041F0003000C6E90201FFF783FF4A4D4FF00C087B
:104200004FF020094FF0400A4FF0910B012CC6E906
:1042100004010DD00627022C2AD0032C31D0042C07
:1042200035D00A2C55D0062C5ED0082C7DD08FE0DE
:10423000FEF79BFACDE90201FEF7A4FA0122CDE9CF
:1042400004018DF80020ADF818808DF81F903C22F5
:104250008DF81CA08DF820B0ADF81A20DDE90223FE
:104260005B084FEA3202C6E90401C6E902236FE0A7
:10427000FFF750FFCDE90E01FFF742FFCDE9100136
:104280000FE0FFF73DFFCDE91001012104E0FFF74A
:1042900037FFCDE9100100212298FFF74DFFCDE94E
:1042A0000E018DF80070286800F55A7081788DF83D
:1042B0004C10C1788DF84F1001788DF8501041786E
:1042C0008DF851108188ADF848100089ADF84A008A
:1042D0003EE0FFF71FFFCDE90E01FFF711FFCDE92B
:1042E00010018DF8007033E0FFF714FFCDE90E01E7
:1042F000FFF706FFCDE910018DF80070286800F285
:10430000613081788DF84C10C1788DF84F100178AC
:104310008DF8501040788DF8510019E0280A1000EF
:104320002450100020091000FFE708208DF800003D
:10433000ADF81880DDE90A018DF81F908DF81CA0FA
:104340008DF820B0C6E90201DDE90C01C6E90401DF
:1043500000208DF84E008DF81D008DF84D008DF871
:104360001E00AFF27F2103260191012C13D0092CEE
:1043700024D00A2C22D000BF8DF876008DF878006A
:104380008DF87700022C10D0032C0ED0042C0CD00A
:10439000052C0AD012E0296891F8891741F0030131
:1043A0008DF870108DF87100E6E72868B0F86E138C
:1043B000ADF87210B0F87203ADF874001CA8FDF7E8
:1043C00047FCFE4C6846FDF7CFF81FAB002280216A
:1043D0000120FCF793F880210120FCF76EF820788B
:1043E000002804D0FDF771FD761E002EEADC23B014
:1043F000BDE8F08F2DE9FF5F00210120FFF7E9FE06
:10440000EE48D0F80490FEF7B0F9CDE90201FEF7CE
:10441000B9F9CDE90001082102A8FDF7B7FF074669
:1044200008216846FDF7B2FF06460020CDE90000EE
:104430000546DFF88CB358E0E2484FF00008C2466A
:10444000D0E904232846FFF75FFD02460120002142
:1044500007F026F9DB4A803AD2E91C3218401140B5
:10446000084341D1012430E004FB0651DBF8000091
:1044700039F9112090F86703B2EB001F24DA08F134
:104480000108BAF1000F00D1A2467A1E94421BD156
:10449000B8F1010F18D1721E954204D1611E01209E
:1044A000FFF74DFD0EE009EB4101B1F90220B2EB3F
:1044B000001F05DB35B131F9021CB1EB001F01DA39
:1044C000002000E002208046641CBC42CCDBA7EB4D
:1044D0000A01414508D829460220FFF730FD012096
:1044E000009AA840104300906D1CB542A4DB012542
:1044F00051E000BF4FF0000A544642E0DFF8C482AA
:104500000021A8F18008D8E91C02D8E918C340EAC4
:104510000C001A4310431FD0AA48D0E904232046B8
:10452000FFF7F2FC02460120002107F0B9F84346EC
:104530000246D3E91C8C8E4600EA080001EA0C0111
:10454000084306D1D3E9181C0A400EEA0C000243C6
:1045500001D0012100E0002105FB0642DBF800004C
:1045600039F9122090F86703B2EB001F08DA39B965
:104570000120009AA0401040000001D10AF1010A78
:10458000641CB442BADBBAF1000F03D0691E0120EB
:10459000FFF7D5FC6D1CBD42ACDBBDE8FF9F2DE9EC
:1045A000F04781468748DFF820824FF0FF35D0E999
:1045B0000467002422460120002107F071F83040F2
:1045C0003940084307D06D1C4D4504D118F804004C
:1045D000103008F80400641C402CEBD3BDE8F04711
:1045E000FDF728B92DE9F04781467648DFF8D881F4
:1045F0004FF0FF35D0E90467002422460120002156
:1046000007F04EF830403940084307D06D1C4D4547
:1046100004D118F80400103808F80400641C402C79
:10462000EBD3BDE8F047FDF705B92DE9F041654C46
:104630000020803CA061FFF76DFD644DC5E90001DD
:10464000FFF75EFD624AC2E90001D5E900014908B1
:104650004FEA3000C5E900014FF008012846FDF798
:1046600095FE5C4D082128605948FDF78FFE5A4E93
:1046700030600220FEF778FD5848594A2968806862
:1046800000EB410313603368564A03EB410100EB32
:1046900041001060FFF706FAFFF705F9FDF7E7F8AC
:1046A000022001F093FB50480178EF2902D9002144
:1046B000102016E010310170FDF7D9F800210A2012
:1046C000FFF787FD3D4F00204FF47A68BA68A36872
:1046D00061690BE01D1832F91550454505DD0021D3
:1046E0000F20BDE8F04101F0CFBA401C8842F1DB59
:1046F00000253BE02846FFF752FF002D02DD681E33
:10470000FFF770FF00210A20FFF763FD0026B8685D
:1047100028E0AE4225D0A168314430F9111041455E
:104720001FDD2846FFF75EFF3046FFF738FF002108
:104730000A20FFF74EFDA168B868294430F911003E
:10474000404503DD31460E20FFF7F9FB3046FFF709
:1047500049FF2846FFF723FF00210A20FFF739FD14
:10476000B868761C61698E42D3DB6D1C8D42C1DB5B
:10477000B7E42DE9F04700252E4629460820FFF72B
:1047800028FD0E480E4C0021C76820684FF0010834
:1047900000F5F57990F8E82108FA01F31A4208D0FB
:1047A00037F9113090F87DC3B3EB0C1F00DA6D1CA4
:1047B000761C491C0529EFDBB54217E02450100098
:1047C00020091000280A10005C041000980910004D
:1047D000A00910008809100084091000045010007E
:1047E0008C09100090091000FA0710000CD190F805
:1047F000E611C90790F8E91101D00D2000E00C2066
:10480000BDE8F047FFF79BBB002D1CD000252068BA
:1048100008FA05F290F8E811114211D037F9151095
:1048200090F87D23B1EB021F0ADA90F8E60119F83F
:104830000510C00701D00C2000E00D20FFF77FFB22
:104840006D1C052DE3DBBDE8F0872DE9F04100216B
:104850000620FFF7BEFCF1480025F14EF14C8768B9
:104860000EE0E0683168284437F9100091F86513CC
:10487000B0EB011F03DD29460A20FFF760FB6D1C2A
:1048800020698542EDDB00250EE0A06831682844F0
:1048900037F9100091F86613B0EB011F03DD2946CC
:1048A0000B20FFF74CFB6D1C60698542EDDB18E4C3
:1048B0002DE9F041DB4D0020064628623EE03146FE
:1048C0000420FFF786FCD5480024876832E000BF4B
:1048D000FFF716FC02460B462046FFF715FB024683
:1048E0000120002106F0DCFED5E918231040194014
:1048F00008431ED1CA49A8682044096807EB400054
:1049000030F9040C91F87813B0EB011F07D9314648
:104910000820FFF714FB21460920FFF710FBA868C9
:10492000296A204407EB400030F9040C884200DD7E
:104930002862641C68698442CAD3761C286986424E
:10494000BDD315E72DE9F047B64C00200546DFF84A
:10495000CC82DFF8CC92E06121E029460320FFF70A
:1049600038FC6068D8F80870122801D9032600E0E6
:10497000012637F91610D9F8000090F87603B1EB4C
:10498000001F03D929460720FFF7D9FA37F9160087
:10499000E169884202DD37F91600E0616D1C20698B
:1049A0008542DAD34FE72DE9F04100210220FFF7DD
:1049B00010FC9A489A4D9B4C8768286890F86003D1
:1049C000000713D500260EE0E0682968304437F967
:1049D000100091F87413B0EB011F03D93146032086
:1049E000FFF7ADFA761C20698642EDDB286890F867
:1049F0006003C00613D500260EE0A0682968304485
:104A000037F9100091F87513B0EB011F03D9314647
:104A10000420FFF794FA761C60698642EDDBA7E676
:104A20002DE9F04F89B00020FBF709FE4FF480100C
:104A3000411206F0EBFEFCF71AFFFCF7FBFE794C87
:104A400000202060FFF766FBCDE90401FFF758FB6B
:104A5000CDE90601082104A8FDF798FC05460821C8
:104A600006A8FDF793FC014600EB4500C4E90205EA
:104A7000C4E904516A4D286890F86003010701D425
:104A8000C00601D5FFF78FFF286890F86003800605
:104A900001D5FFF757FF286890F86003000601D59D
:104AA000FFF706FF286890F86003C00701D0FFF702
:104AB000CCFE286890F86013490704D590F8E80107
:104AC00008B1FFF756FE286890F86003400601D54C
:104AD000FFF7ABFD286890F86003800701D5FFF76A
:104AE00089FC206800287DD004F1300393E8C810C9
:104AF0009F432CEA060CC4E90E7CD4E90A0121EAA2
:104B00000609D4E91821D4E9168598438E468D43C9
:104B1000B84329EA0C01C4E90A01CDE90201D4E94C
:104B20001AA928EA020828EA0A0825EA0905C4E9B8
:104B300016859346D4E914129943B243CDE9001285
:104B4000DDE90012374DB943803522EA0C02D5E980
:104B50000008D4E910C721EA0C01BA43C4E91412D1
:104B6000D4E91C2120EA0B0028EA0E0820EA0A00FA
:104B700028EA0908904328EA0108C5E9000823EA61
:104B80000C03BE43C4E90C36DDE902010122FFF744
:104B9000A5F9D4E916010222FFF7A0F9D4E90C0126
:104BA0000322FFF79BF9D4E918010422FFF796F9D5
:104BB000D4E90E010722FFF791F9D4E91001082288
:104BC000FFF78CF9D4E91C010922FFF787F9D4E932
:104BD00012010A22FFF782F9D4E91E010B22FFF726
:104BE0007DF900E014E0D4E914010C22FFF776F916
:104BF000D5E900010D22FFF771F9D4E91A010E225F
:104C0000FFF76CF90020FBF735FD09B0BDE8F08F28
:104C10000021084601F038F8F4E7000024501000A5
:104C200020091000A8091000F0B535480068437D40
:104C3000017DB0F84C44B0F84A6432484B4300EB75
:104C4000410500210A4608460AE000BF35F9107008
:104C5000A74201DD491C02E0B74200DA521C401CA9
:104C60009842F3DB914201DD0120F0BD0020F0BD50
:104C700010B5FFF7D9FF044601280FD1224801687B
:104C800041F0050101602148016841F02001016007
:104C90001F49012008708102FBF7E0FB204610BD90
:104CA0002DE9F0418046194800252E4600788006FF
:104CB00023D50024174F0AE0012808D1FEF7BFFCD6
:104CC0000125798800230F4A4046FEF7DCF8FFF7FC
:104CD000ABFF48B1641C032CEEDB012E04D0BDE811
:104CE000F0410020FDF711B9C12001F06FF8012D4E
:104CF00003D1BDE8F04106F021BCBDE8F081000021
:104D00002009100042000120240910002C09100085
:104D1000280910004438100008B5584D584E00249A
:104D2000287880B10128FBD16B46002241F27D71C9
:104D3000FBF7E4FB0098C1071ED001210846FBF7F2
:104D4000BCFB2C70ECE701210020FDF71CFD6B463D
:104D5000002202210120FBF7D1FB01210846FDF7CB
:104D600012FD00988007DBD541F27F710120FBF72F
:104D7000A4FB01202870D3E701070CD508210120EE
:104D8000FBF79BFB0020FBF75AFC0620FBF757FCC8
:104D9000FEF755FC1DE041070CD504210120FBF76F
:104DA0008CFB0020FBF74BFC0620FBF748FCFEF7D2
:104DB00007FF0EE0C10413D54FF480510120FBF72B
:104DC0007CFB0020FBF73BFC0620FBF738FCFEF7E2
:104DD0008BFC0620FBF74EFC0020FBF74BFC9FE70B
:104DE000C10606D510210120FBF767FBFFF744F849
:104DF00096E7810601D520210DE0C10507D54FF4C6
:104E000080710120FBF759FBFEF792FF88E78105CF
:104E100005D54FF400710120FBF74FFB80E74106F9
:104E200006D540210120FBF748FBFFF7F9FD77E7A6
:104E3000400587D54FF480610120FBF73EFB114808
:104E400004601148076804603846FEF71BF9A7F5AF
:104E50004070B73801D1052009E0F80701D01520CE
:104E600005E017F0420F04D0306840F0060000F073
:104E7000ADFF06480460346052E70000400A1000AD
:104E8000300910005C0A1000240910002C091000E1
:104E90000E490020486008600D49087070470D48B1
:104EA00010B5006890F82000C0070DD00A480B49E3
:104EB00000780978084307D10320FBF7C0FBBDE861
:104EC00010400320FBF7D6BB10BD0000440A1000C1
:104ED00075091000200910003D0910004309100059
:104EE000F0B40C460146DDE90460F51A012801D052
:104EF000002011E02046F0BC520006F008BC00BFC4
:104F000034F9107031F910C05F430CFB057797FB43
:104F1000F6F724F81070401C9042F1DBF0BC7047AB
:104F20007CB52648264D0022017802702868254C61
:104F300090F86322CDE9002190F86232227822496C
:104F40002248FFF7CDFF207820494200204806F094
:104F5000DEFB20781C4942001E4806F0D8FB28687A
:104F600090F864120091B0F960222378164917482E
:104F7000FDF76CFE012800D000207CBD38B5164935
:104F8000D1E900231149FDF771FBFFF7C9FF134C6D
:104F90000028207011D1009009480A4A0B4D016881
:104FA0001278487D131AB1F96022074901EB4001DC
:104FB00005EB4000FDF74AFE207038BD45091000A2
:104FC0002009100068091000680C0120040C012061
:104FD000D60C01203A0D0120600910004209100092
:104FE0003A483B4A00685168414000D050607047E1
:104FF000704710B536480021364C0170364920689C
:10500000084214D035480078002810D10620FBF75C
:1050100016FB0620FBF72EFB31480078052802D14D
:105020002068002803DABDE81040FFF738BF10BD44
:10503000274900204860FFF72BBF254C08B5002505
:105040006570FFF7F5FF4FF6FF76607820B3012813
:10505000FBD16B46002215210420FBF74FFA009884
:10506000C00706D031460420FBF727FAFFF7E0FF20
:1050700065700098400705D504210846FBF71DFA26
:10508000FFF7B7FF0098C006DFD510210420FBF71B
:1050900014FAFFF7A5FFD8E704210020FDF773FB02
:1050A0006B46002202210420FBF728FA042101208C
:1050B000FDF769FB00988007C7D531460420FBF750
:1050C000FCF9FFF7B5FF01206070BEE7E40A1000AD
:1050D0004C0A100058091000140200803D0910000D
:1050E0005E091000FF4910B500204861FE4B886141
:1050F0000122C8611A70FD4BC86008611870FC4B32
:10510000FE4C1870FB4B08701870FB4B5B882380BB
:10511000FB4C2380FB4BFC4C1A700022C4E900229C
:10512000FA4A1070FA4A10708870C87010BD08B53D
:1051300002210020FDF727FB6B4600224FF480710F
:105140000220FBF7DBF902210120FDF71CFB009890
:10515000C00509D5FFF7C6FF4FF6FF710220FBF728
:10516000ACF9E0490120087108BD00EB80004FF662
:10517000FF7101EA4000FBF721BCFBF72FBC2DE9D2
:10518000FF4115460E460746FDF7EFF9CDE9000150
:10519000FDF72AFACDE90201DDE9000149084FEAED
:1051A0003000CDE900014FF008016846FDF7EEF848
:1051B0000446082102A8FDF7E9F800EB440C07EBD0
:1051C000440207EB4C03014606EB440706EB4C0692
:1051D000002006E032F810C00CFB05FC27F810C0D8
:1051E000401CA042F6DB002006E000BF33F8102090
:1051F0006A4326F81020401C8842F7DBBDE8FF8197
:10520000FDF753BCC348006890F829010106C24865
:1052100002D50188491C01E0B249C9880180704764
:105220002DE9F84FBB4DBD48002629680278374666
:1052300091F8C8104FF00109CB07B24618D08B0780
:1052400016D5B74B1B78C1F3820409FA04F449461A
:10525000234202D080F8009002E0514680F800A07E
:10526000C8B2824204D0012812D0CD2000F0AEFD99
:10527000DFF8B0829B4C98F8000058B1042878D031
:10528000022876D0FCF721FEC4F818A0BDE8F88FFC
:10529000CC20EBE7FFF7B6FF934800780128F3D066
:1052A0000620FBF7CCF9207EC0071BD0954981F87A
:1052B00000909D49D8F80400FFF7A2FF022000905B
:1052C0002868012690F814C0417DB0F96E219748F6
:1052D0000CFB01F300EB4C01934800EB4C00FDF795
:1052E000B5FC2070286890F8E80140B1207E800766
:1052F00005D58F49D8F80C00FDF724FA0126208B3C
:1053000010F4CA7F1ED08749D8F808001031FDF785
:10531000A9FB207E000608D52868824990F8CC2792
:105320001031521C0846FFF72AFF7E488149103091
:10533000FDF798FB7F48FFF721FE7F4800780128A2
:1053400000D101270620FBF795F97C49A069012EC1
:10535000086003D104210320FBF780F8012F93D1CB
:10536000FBF73CFB01210220FBF778F8012014E059
:10537000FFE701460022AD2000F066FCFBF72EFBA4
:1053800001210220FBF76AF82968012091F8F0104A
:1053900001B108465D4A82F80090FFF7E6FE73E728
:1053A00030B490E81C005F49C068C1E90240C1E91F
:1053B0000023022130BC0846FBF750B870B59CB002
:1053C00004466846FDF785FB46484D494B4B8461D2
:1053D0000A881A80484A52880A804E49E2071BD040
:1053E0009DF8002042F001028DF800200A6892F832
:1053F0002031DB0710D03C4B1B78032B0CD0002C4A
:105400000ADB92F822318DF81C3092F821218DF8B8
:10541000202044F480628261A20709D50A6892F8CC
:10542000E8212AB19DF8002042F008028DF8002002
:1054300014F48A7F18D0002C16DB9DF8002042F06F
:1054400002028DF80020DDE90E32DDE90A562B4319
:1054500032432D4DCDE90E32C5E90032BDF80220B0
:1054600042F00802ADF80220E2051DD5344A127858
:10547000012A03D0334A1278012A15D1096891F81C
:10548000B021120710D500228DF84E2091F8CD17CB
:10549000C90705D09DF8001021F010018DF800100B
:1054A000816941F080018161AFF20B100190684683
:1054B000FCF75AF81CB070BD70B50B48027815485F
:1054C000052A016843D0204891F81A410022037848
:1054D0000448DBB30E4D2B78012B3ED08078012899
:1054E00044D045E0540A10005E091000370910004E
:1054F00038091000760910004438100078091000AF
:105500007A091000450910006009100046091000D2
:1055100047091000200910006A091000480910000E
:105520004B000020345010000011100042000120F8
:10553000CC0C0120148D01204209100058091000E4
:105540003F0910003E0910003D09100002E091F8EB
:105550001D410DE00A21C17003E0C3781BB15B1E41
:10556000C370827004E0012383702A7091F81B419C
:1055700004B91424FBF70AFB002801DD04EB8404C2
:10558000204670BD30B5FF49054600200B6893F8F2
:105590002010C90712D0FC490A78FC49052A0ED010
:1055A00093F83920FA4C24781CB193F84944E40765
:1055B00002D0F84C24785CB152428A6030BD4C78FD
:1055C00093F83A20032CEDD2641C4C708A60E9E712
:1055D0008C68641C8C609442F0DD0020886093F835
:1055E000E811012001B10320284040F0004030BD07
:1055F0002DE9F05FE849DFF89493E34F0A78E44936
:1056000000264C46D9F814303D78097894F800A06B
:1056100030465FEAC37C34460FD0DFF88083012A2E
:1056200008D039B998F800C0BCF1010F02D0BAF126
:10563000010F02D188F8004001205FEA837C07D582
:10564000DFF850C39CF800C0BCF1010F00D101206D
:10565000CB46DFF84C83DFF84C935B0600D559B995
:10566000012809D0C7498BF8024058460968032D24
:105670000BD0022D19D040E0052D03D15146AB20AF
:1056800000F0E2FA032558464EE0C46089F8004075
:1056900088F800400269521C026191F85D11914244
:1056A0002BDA0225CBF810402AE0BF4A1278012AF3
:1056B0003AD0BE4A1278012A36D0BD4A1278012A61
:1056C00032D091F81821D20717D00461C268521C59
:1056D000C26091F8191101EBC10303EB0111B2EBA8
:1056E000810F0AD30120CBF80C4089F8000000227A
:1056F00005251146AA2000F0A7FA3878854201D086
:10570000AB480470032D17D0022D17D0052D19D0EA
:1057100001203870DBF814005D460640CBF81C60B1
:1057200099F80010E9B11DE00461CBF80C4089F84C
:10573000004088F80040E0E7032000E002203870D5
:105740000326E7E7052038709BF81400400704D5CE
:105750000426012088F80000DCE7172688F80040BE
:10576000D8E76C70FFF70EFFE9690843E861BDE810
:10577000F09F08B50020FAF762FFFFF739FF8D4967
:105780000868002809DD824A127832B9401E086094
:1057900003D102210520FAF761FEFFF78DFEFFF726
:1057A000E4FC7A48C069FFF709FE02216B4600223B
:1057B0000846FAF7A3FE02210846FAF77EFEFFF735
:1057C0002FFD0020FAF756FF08BD10B50121022079
:1057D000FAF773FEBDE81040CBE72DE9F05F002734
:1057E00004210220FAF769FE7348DFF8A0810668F9
:1057F000D8F8141091EA0605B9D0DFF8A8A1DFF8AF
:10580000A09135424FF6FF7B3C4623D011BB6B483D
:105810000127594604600220FAF74FFEC8F81840E5
:10582000C8F81C40C8F80C40C8F81040C8F8084038
:105830008AF80040534989F8004088F80040096818
:1058400091F82911890705D55D48A8F8064004801C
:105850005C480480042D01D189F800404A4D40463F
:10586000C8F8146076B10221012F15D02A78052AD4
:1058700007D1C460C8F810408AF8004089F8004099
:10588000297074E7FBF7AAF8012028705946BDE893
:10589000F05F0220FAF711BEF00702D00320287053
:1058A00000E02970BDE8F05F63E710B51021022029
:1058B000FAF703FE3448017801290AD00521017066
:1058C00032490020374A0861C8600121117034490B
:1058D000087010BD10B508210220FAF7EEFD2A4825
:1058E0000178052910D1294A00212E4B1161D16080
:1058F00019702B4B19705169CA0701D0032102E0BE
:105900004A0702D50221017010BD8905FCD504218A
:10591000F9E708B56B4600229D210220FAF7EEFD5B
:105920000098010702D5FFF7D5FF0DE0C10602D5AB
:10593000FFF7BBFF08E0410702D5FFF74EFF03E08A
:10594000C00701D0FFF741FF0098000607D50F49B7
:10595000002008714FF6FF710220FAF7AEFD08BD76
:1059600008B502210020FCF70EFF6B4600228421BF
:105970000220FAF7C3FD02210120FCF704FF009882
:10598000400721E0200910005E091000540A1000B1
:105990003D091000430910004009100042091000A1
:1059A00038091000370910005C0910005D0910006B
:1059B00075091000E00A1000E40A100058091000F0
:1059C0006A0910006C09100001D5FFF706FF009866
:1059D000000607D52449002008714FF6FF71022008
:1059E000FAF76BFD08BD204D0020204C28710BE01C
:1059F000287948B10128FBD12078012807D0052853
:105A0000F6D8FFF786FFF3E7FFF791FBF0E7FFF724
:105A1000A7FFEDE7144900200861C8601449087029
:105A200014490870704710B5FBF7A4FF0E49002019
:105A3000886110BD10B5FAF7D1FF0121BDE8104013
:105A40000220FAF70BBD80B2FAF7E2BFFAF7F0BF17
:105A500010B5FAF7EDFF0448C188491CC180BDE8C4
:105A600010400120EFE70000540A10005E0910000A
:105A7000370910003809100010B504460220FAF763
:105A8000DEFD2046FBF78CF8BDE810400220FAF757
:105A9000F1BDFBF785B81CB500210091019102789A
:105AA0009DF8001062F303018DF80010427862F354
:105AB00007118DF800104289BDF8011062F30B0147
:105AC000ADF801100289BDF8021062F30F11ADF8B4
:105AD000021081798DF80410C1798DF805100179D3
:105AE0008DF80610E849096891F8F017490601D5C4
:105AF000C07800E080788DF807006846FFF7BCFFAB
:105B00001CBD1CB500200090019002208DF8000003
:105B1000DE480068C007400E8DF807006846FFF7B2
:105B2000ABFF1CBD1CB50021009101910E218DF829
:105B300000108DF80200D5480068C007400E8DF8AF
:105B400007006846FFF798FF1CBD1CB500200090B9
:105B50000190CD4800684178827810208DF80000CF
:105B60004006437A8DF80130C94B1B788DF802301E
:105B700043891B0A8DF8033040898DF80400C3481F
:105B80008DF805108DF806200068C007400E8DF8CE
:105B900007006846FFF770FF1CBD1CB50020009091
:105BA000019011208DF80000B8480068C007400E31
:105BB0008DF807006846FFF75FFF1CBD2DE9FC412B
:105BC0000646002000900190122015460C468DF8E4
:105BD00000004FF008571EE0200A8DF80100C4F3C2
:105BE0000B008DF80240315C30448DF80310417891
:105BF0008DF8041081788DF80510C0788DF80600B6
:105C0000D7F8E001C007400E8DF807006846FFF79F
:105C100033FF241D2D1F002DDEDCBDE8FC811CB5EB
:105C20000022019200920F228DF800208DF80100D1
:105C30008DF80610402095498DF807000120086076
:105C40006846FAF7ADFF1CBD1CB500230093019315
:105C5000DB238DF800308DF801008DF80210100E56
:105C60008DF80300100C8DF80400100A8DF8050063
:105C700086488DF806200068C007400E8DF80700A2
:105C80006846FFF7F9FE1CBD1CB500220092019288
:105C90000F228DF8002005228DF801208DF80200DA
:105CA0007A488DF803100068C007400E8DF8070091
:105CB0006846FFF7E1FE1CBD2DE9FC4104460025C6
:105CC000009519208DF8000040070195417A8DF864
:105CD00001106F4909788DF802104189090A8DF881
:105CE00003104089684F8DF80400684E3868417889
:105CF0008DF8051080788DF806003068C007400EDA
:105D00008DF807006846FFF7B7FE00951A20019549
:105D10008DF80000386800F5FC6001788DF80110FE
:105D200041788DF8021081788DF80310C0788DF8D5
:105D300004003068C007400E8DF807006846FFF782
:105D40009BFE00951B2001958DF800006068000EF9
:105D50008DF801006068000C8DF80200A088000A30
:105D60008DF8030020798DF8040020788DF8050067
:105D7000207B8DF806003068C007400E8DF80700C4
:105D80006846FFF779FE00951C2001958DF800000C
:105D9000A068000E8DF80100A068000C8DF80200CC
:105DA0002089000A8DF80300207A8DF80400207CF9
:105DB0008DF80500207D8DF806003068C007400E84
:105DC0008DF807006846FFF757FE26E71CB52E49F9
:105DD000096891F82911490603D400F00F010C2934
:105DE00019D100210091019116218DF800108DF834
:105DF0000100010A8DF80210010C000E8DF804005C
:105E000022488DF803100068C007400E8DF8070087
:105E10006846FFF731FE1CBD1CB5002300930193BB
:105E200016238DF800308DF80100080A8DF8020065
:105E3000100A8DF8040015488DF803108DF8052020
:105E40000068C007400E8DF807006846FFF714FE93
:105E50001CBD1CB5002300938DF80000080A8DF8C6
:105E600002000193100A8DF8050008488DF8031010
:105E70008DF806200068C007400E8DF807006846C0
:105E8000FFF7FAFD1CBD000020091000E001002210
:105E9000740910009148006890F82A0100F007008A
:105EA000801C00EB8000C000FAF79DBD2DE9F04199
:105EB0008B4D286818B30520FAF7C1FB0024012791
:105EC000286807FA04F6304213D004EB440005EBCF
:105ED000800898F8040005280BD104218148FCF7BC
:105EE00055FAC1B208F10400FFF7D5FD2868B043A8
:105EF0002860641C0A2CE3D30520FAF7BBFB794821
:105F0000001F4068002802D0BDE8F041C2E7BDE8AC
:105F1000F081FAF778BD2DE9F05F724D05202D1F55
:105F2000D5F80480FAF78BFBDFF8B0914FF0005AF8
:105F3000D9F8000090F82901800702D500218AF8DD
:105F40000510DFF89CB100270126DBF80010BE40E9
:105F5000584631423AD007EB470200EB82042279DF
:105F6000032A09D0042A07D0052A2FD1D9F8002006
:105F700092F82921D20629D4B143CBF80010207918
:105F8000032802D0042804D018E0686806436E6035
:105F900014E0D9F8000090F82901C0070BD00520C3
:105FA000207104214F48FCF7F1F9C1B2201DFFF721
:105FB00072FD042020716868B0436860042149487C
:105FC000FCF7E4F9C1B2201DFFF765FD7F1C0A2F25
:105FD000BAD3D9F800004C4690F82901800702D5C1
:105FE00080218AF805100520FAF744FB206890F814
:105FF0002901C0060ED56868B8F1000F05D0002849
:1060000008D1BDE8F05FFAF7FEBC002802D0BDE879
:10601000F05F3FE7BDE8F09F32490020091F48606C
:106020007C212F4805F014BC2E4C08B5241F0025F8
:106030002570FAF7E8FC207850B30128FBD1002244
:106040006B4607211046FAF759FA0098400706D523
:1060500004210020FAF731FAFAF7D5FC25700098F0
:10606000800705D502210020FAF727FAFFF753FF32
:106070000098C007DFD001210020FAF71EFA174868
:10608000006890F82901C006D5D5FFF70FFFD2E7C9
:1060900000210846FCF777FB00226B4608211046DA
:1060A000FAF72CFA00210120FCF76DFB009800079D
:1060B000C1D5FFF7B1FFFAF7A6FC0F210020FAF7D0
:1060C000FCF901202070B6E710B5FAF79CFC01211D
:1060D000BDE810400020FAF7C1B900002009100007
:1060E000C8371000780A1000CF490020012208703C
:1060F000CE490A704870886008718870C8700C3189
:1061000008600871CA49086048600881C1F80A003F
:10611000C1F80E0048827047F0B5C64B0446002017
:106120001D6802465FF0010795F8E86107FA02F37F
:106130001E421ED0DFF800C39CF800C0BCF1010F66
:106140000FD195F8E6C15FEA1C1E0AD031F912E0C2
:106150004FEA1C1C9EFBFCFC34F912E0F44506DB04
:1061600007E034F912C031F912E0F44501DD0343D0
:10617000D8B2521C052AD9DBF0BDF0B5AD4CAB4FFF
:106180000123226892F8F92102F00F053A78C5F14F
:106190001006012A4FF0000211D1256803FA02F619
:1061A00095F8E851354203D030F8125021F81250DA
:1061B000521C12B2052AF0DB00203870F0BD2768AF
:1061C00003FA02FC97F8E87117EA0C0F0AD030F9CD
:1061D000127031F912C06F430CFB067747F30F17AB
:1061E00021F81270521C12B2052AE8DBF0BDF0B59E
:1061F0000023904D012404FA03F72E6896F8E86115
:106200003E4206D032F8136030F81370F61B21F8C6
:1062100013605B1C1BB2052BEDDBF0BDF0B5DFF8A6
:106220000CC2034600229CF803000CF10C0583EA23
:10623000000680480124076804FA02F030420BD0BF
:10624000184297F8E70102D004EB101002E000F0CA
:106250000F00401CA85411E015F802E0BEF1000F39
:106260000CD0AEF1010E1EF0FF0E05F802E005D1D4
:10627000184202D00843C1B200E08143521C052AF3
:10628000DADB8CF803300846F0BDF1B59DF800006C
:10629000002823D001216846FCF778F8C0B2012815
:1062A0001DD0624A9078002818D1624C0021604DC0
:1062B00024680123084694F8E8610A3503FA00F4DB
:1062C000264205D035F910408C4201DD214610717F
:1062D000401C0528F2DB10798340D8B2F8BD9DF848
:1062E0000000F8BDF0B5534B00252C461B682A462C
:1062F000012793F8E86100BF07FA02F31E4211D0AC
:1063000030F91230002B01DB9C4601E0C3F1000C98
:106310008C4507DD002B01DD1D4403E001DAC3F1EC
:1063200000031C4402F10102052AE5DBA54201D26B
:106330000120F0BD0020F0BD2DE9F0473C49FFF7FA
:106340001CFF0320FAF77BF939493C4A0A313848E7
:10635000FFF74DFF0320FAF78DF9364E324F334CDD
:1063600030684FF001094FF0000590F8E611490739
:106370002ED56178DFF8C8804FF4806A61B1A168DA
:10638000491CA16090F8FC01000900EB8000B1EB12
:10639000400F1DDDA5602DE0B0F8FA1124480A3049
:1063A000FFF7A0FF012801D0A56011E0A068411C03
:1063B000A160316891F8FC1101F00F0202EB82023A
:1063C000B0EB420F04DD84F80190A560080911D0FC
:1063D0003168174801F2EF110A30FFF79DFEA8B1AE
:1063E00087F80090316891F8E61189070FD5FFF71B
:1063F0004CFF0CE06570D8F80010012041F010014E
:10640000C8F800105146FAF729F809E03D70A17864
:10641000FFF704FFA178884202D0A070FFF782FB4B
:106420003878BDE8F0870000430910007C0A1000AE
:10643000548E01202009100041091000FA0B0120A0
:10644000240910002DE9F0414848494D01684A7D72
:10645000087D521C91F8233042431F091024A4EBFD
:1064600013161AE0434B35F91040B1F926C033F941
:106470001030A4449C450FDBB1F928C0A4EB0C0CF0
:106480009C4509DC7C4303FB0643DC1703EB1473D8
:1064900043F30F1325F81030401C9042E2DB91F8D3
:1064A000200000070CD53248FCF7E5F9324A0146D6
:1064B00000231060BDE8F041304A2D48FCF70FBAC8
:1064C000BDE8F081F0B52948016891F8E80100289D
:1064D0002BD091F824002A4A00F00F040020C4F1C8
:1064E0001007012691F8E83106FA00F52B4219D081
:1064F000244B32F91050B1F944C333F91030AC4495
:106500009C450FDBB1F946C3A5EB0C0C9C4509DC9F
:10651000654303FB0753DD1703EB157343F30F13B9
:1065200022F81030401C0528DCDBF0BD70B50F4CA4
:106530000546206890F84904C00703D0FEF798FB91
:10654000012812D0206890F82000C0070DD0002D3F
:106550000BD10320FAF773F8FFF774FFFFF7B2FFD0
:10656000BDE870400320FAF785B870BD200910001F
:10657000420001200011100054091000A83710003B
:10658000FA0B0120CC0C0120F74900200870F749D4
:106590000870F7490870704700E010460A5C8242B4
:1065A000FBD1704770B500250E4603462C4606E029
:1065B00019462046FFF7F0FF1855641CE4B2B442B8
:1065C000F6D300220AE0985C904203D19D546D1CE2
:1065D000EDB201E0185C9854521CD2B2B242F2D330
:1065E000284670BD38B1884202D20B460146184693
:1065F000884200D01154084670472DE9FF4F99B0EA
:1066000001200490DB4819689A460068067D477DA2
:1066100079B19AF802109AF800905046B14200D22F
:106620004E1C45789AF80300F6B2B84205D2401CD9
:1066300004E04FF000094D4601E03846C7B20020A3
:1066400007A90854401C2D28FAD305EB850000EB60
:10665000C501199800EB810C681C69E000EB800112
:1066600001EBC8001999E34601EB800C09F1010424
:106670005AE000BF0CEB04001590006810B31CF842
:10668000040000B31598002310F8010C00B1034674
:106690001BF8041021B107AA1846FFF7A3FF034611
:1066A0001A9800280BEB04000ED0159010F8011C6E
:1066B00021B107AA1846FFF795FF034615984178C0
:1066C000D9B91FE0E41C2EE0189010F8011C59B154
:1066D00015981BF8042010F8010C104304D007AAE9
:1066E0001846FFF77FFF03461898417851B1159877
:1066F0001BF804204078104304D007AA1846FFF77F
:1067000071FF034613B10CF804300CE004982D28F7
:1067100006D20CF804000498401CC0B2049002E0B9
:10672000401E0CF80400641CB442A3D908F1010017
:106730008046B84292D907A80499FFF733FF8046F4
:1067400041001B9805F062F800204FF6FF7202E04E
:106750004AF82020401C4045FAD33DE005EB850077
:10676000199900EBC50001EB800034304C460590D0
:106770002FE00598011901204058A8B3487838B394
:1067800007AA105C48701B991B9A0AEB800B31F822
:106790001010491C22F810109BF800102046FBF73F
:1067A00008FE8BF800009BF801102846FBF701FE5D
:1067B0008BF801009BF802102046FBF7FEFD8BF8DA
:1067C00002009BF803102846FBF7F7FD8BF8030047
:1067D000641CB442CDD36D1CBD42BFD3A8F10100EF
:1067E0001DB0C0B2BDE8F08FFFE7E41CF0E72DE973
:1067F000FF5F16468B4655782AE000BF05EB850003
:1068000000EBC5010098347800EB8100002100F115
:10681000340A88468946B77811E000BF0AEB0400C5
:1068200090F90110594508D122460120002104F0B9
:1068300037FF40EA080841EA0909641CE4B2A742AC
:10684000ECD2039A02EBC5026D1CC2E90089EDB2DD
:10685000F078A842D2D2BDE8FF9F2DE9F04F9346D1
:10686000414ADFF810A1C1B01378012B13D10023E6
:1068700013700A78002A75D04A78002A72D0DAF8A4
:1068800000208C78137D5B1E9C426BD0527DCB78B0
:10689000521E934266D000226D4605EBC2040023CF
:1068A000C4E90033521C202AF7D34B7891F80380B7
:1068B0002DE000BF00EBC302D2E9006291463243F3
:1068C00024D05FEA59044FEA360216EB060C42EA7E
:1068D0000C0249EB090732433C4305EBC30644EA8B
:1068E0000904D6E9007C17434CEA040CC6E9007C95
:1068F000D6E9027C17434CEA040CC6E9027CD6E9CF
:10690000047C17434CEA040CC6E9047C5B1C9845E4
:10691000D0D2002205EBC20400EBC206D4E9023457
:10692000C6E90034521C1E2AF4D3BBF1010F19D161
:10693000087808B1401E0870487808B1401E4870B9
:10694000DAF8003088781B7D5B1E984201DA401C23
:106950008870DAF80020C878527D521E904201DA21
:10696000401CC87041B03DE7900A1000BD0A1000FD
:10697000BE0A100020091000F0B50025059E2C4627
:106980008F1E00EB410006D430F9045CCF1E02D408
:1069900030F9067C3D448F1C974207DAB0F9044079
:1069A000C91C914202DAB0F906000444281B00D544
:1069B00040424FF435714843C11700EB91508012AB
:1069C000A54203DD316808443060F0BD1968084411
:1069D0001860F0BD2DE9FF4FDFF814B4074600251D
:1069E000DBF8000083B00E4690F8A0002C464FF470
:1069F0008039C0062BD50021FE4805E037F811206C
:106A000000EB4103491C5A80B142F7D34188018011
:106A100000EB460230F81610518000210DE04A1CB0
:106A200000EB420330F8122033F802CC5B88634459
:106A300003EB420227F81120491CB142EFD305A80D
:106A400000230090324619463846FCF775F905993F
:106A50004FF00008002902DCCDF8048004E007EBC9
:106A6000410030F9020C019037F911C0A6F1010A7A
:106A7000514502DBCDF8088004E007EB4100B0F996
:106A800002000290DBF8000090F8A000000706D595
:106A900002A8009001AB721E3846FFF76DFFDDE9DA
:106AA0000110814202DD05460C4602E001DA0D4686
:106AB0000446A0EB0102A2FB09064FEAE27303FBC6
:106AC000096102FB08110CEB0402C5F1000302EBA3
:106AD00043024FEAE27304F0F6FD059CA4FB09367D
:106AE000E51705FB096204FB08221B184A410699B9
:106AF000A3FB0105CC1702FB015103FB04114A461D
:106B0000002304F0E0FD52464FEAEA7304F0DBFD97
:106B100000B207B066E62DE9FF4F0446002085B0BD
:106B2000B34F0646814602903868139D90F8A00046
:106B3000000717D5207808B1401E2070607808B192
:106B4000401E60703968A078097D491E884201DACC
:106B5000401CA0703968E078497D491E884201DAFE
:106B6000401CE070A3486821683804F04FFE4FF0E5
:106B7000000ACDF804A0CDF800A060789C490390ED
:106B800094F803B00B681FE0217800F1010EA7789C
:106B900017E000BF93F81480D5F824C00EFB08124C
:106BA0000CEB4202DDF808C0B2F90020624502DDBC
:106BB000761CB6B29144524502DD9246CDE9000101
:106BC000491C8F42E6DA401C8345DDDADFF824A257
:106BD000874FAAF1680A03980EE000BF93F814C02B
:106BE000019900F101086A6A08FB0C1102EB4101EE
:106BF0000A882AF81020401CE1788142EEDA7D48AC
:106C0000597D6838079B009AFFF7E4FE12990860E7
:106C100078486821683804F0F9FD009A20785146D8
:106C2000521C3B680BE000BF93F814C06F6A02FB74
:106C30000C0C07EB4C073F8821F81070401CA7781C
:106C40008742F1DA6B48197D6838069B019AFFF795
:106C5000C1FE08990860C5F80890AE8009B0C1E58A
:106C6000F0B5634C059F2668D6F8105296F8184286
:106C7000BD4202D304F00F0410E0D6F814C2BC45A4
:106C800001D824090AE004F00F067F1BC6EB141498
:106C90007C43ACEB0505B4FBF5F434440668C4F161
:106CA0001005664302FB0562120902600868604332
:106CB00003FB050000090860F0BD2DE9FF4F4C48BB
:106CC000964684B00D7891F80190CA780068002447
:106CD00089780290007D2346A0465FEA050B29D102
:106CE000CC4625E00CF101060196DEF824604FF059
:106CF000000A0125009609E0DDE9006707FB00575F
:106D000006EB47066D1CB6F90070BA44A942F3DAE7
:106D1000DDE90065454306EB4505B5F900506D43D7
:106D200095FBFAF505FB0C33641BA8440CF1010C30
:106D30006245D7DA451EA9422FD1CC462BE000BFD1
:106D40000CF1010601964E1E0396DEF824604FF00A
:106D5000000A5D46009609E0DDE9006707FB005781
:106D600006EB47066D1CB6F90070BA44039EAE42AE
:106D7000F2DA019D05FB0016009D05EB4605B5F90D
:106D800000506D4395FBFAF505FB0C3305FB004401
:106D9000A8440CF1010C6245D2DAB9F1000F25D1FB
:106DA0005D4621E0DEF824704FF0000A01260097CE
:106DB0000AE0771C07FB0057DDF800C0761C0CEBDF
:106DC0004707B7F900C0E244B242F2DA009E471921
:106DD00006EB4706B6F90060764396FBFAF606FB2B
:106DE00005449B1BB0446D1CA942DBDA029D03E005
:106DF00020091000EC5110006D7D01956D1EAA4216
:106E00002CD15D4628E000BFDEF824704FF0000A68
:106E10004E46A2F1010B00970AE0771C07FB0057D2
:106E2000DDF800C0761C0CEB4707B7F900C0E24460
:106E3000B345F2DA561C06FB0057009E06EB4706E8
:106E4000019FB6F90060764396FBFAF606FB05440F
:106E500006FB0733B0446D1CA942D5DA07980460DD
:106E6000079843600798C0F8088008B0BAE42DE995
:106E7000F74F4FF0000A8AB014460F465646D046E8
:106E8000D146CDF818A0CDF81CA0FE48CDF820A022
:106E9000117D0068B0F868B009B9B0F8C8B1787869
:106EA00031E00A9901EBC001D1E90001CDE900010F
:106EB0003878039021E02A460120002104F0F0FBFD
:106EC000DDE9002310401940084314D0ED48029931
:106ED000626A0068037D481C00FB035002EB40001F
:106EE000B0F90000584506DD05FB008801FB00995C
:106EF00006440AF1010A6D1C0395B878039DA84267
:106F0000D9DA0298401C0290F9788142C9DADD4D45
:106F1000286890F8600000060BD506AB224639467B
:106F20000A98FFF7CAFE069908988844079906440C
:106F30008944D44841464FEAE87C00680025027D38
:106F4000C38A521EA3FB010805FB0181724303FBA8
:106F50000C114FEAE27B5B4604F0B5FB0390C94895
:106F60004FEAE97C0068427D038B521EA3FB0908AF
:106F700005FB0981724303FB0C114FEAE27B5B4680
:106F800004F0A1FB02900398002800DA0020BD4D18
:106F900003902968C98A814200DA08460390029862
:106FA000002800DA002002902968098B814200DA6B
:106FB00008460290A660A4F804A0207D012817D1FD
:106FC000286890F8A010490720D505A9CDE900143C
:106FD000B0F91820B0F9161004AB3846FFF79BFD46
:106FE000A0680090DDE9042302A903A8FFF738FE9A
:106FF000207D022803D0012808D070B117E028684E
:1070000090F88000C00612D500220CE0286890F8A5
:107010008000C0060BD5012205E0286890F88000AA
:10702000800604D5022202A903A801F0BDFB02A933
:1070300003A8FBF7DAFD03986080029820800DB06A
:10704000BDE8F08F2DE9F74F8E4882B04C7800688C
:1070500001900E464FF0000891F8039025E0029849
:10706000357800EBC400D0E900A08346601C009096
:10707000B77817E02A460120002104F011FB00EA4E
:107080000A0001EA0B0108430BD00498416A0198F9
:10709000027D009800FB025001EB4000B0F90010A7
:1070A00088446D1CAF42E5DA641CA145D7DA049927
:1070B000C1F80C8005B0C3E72DE9F0410746107D0B
:1070C000704D14460E46022807D12968E08891F8D1
:1070D0006610884201D9032020753068206122465D
:1070E00031463846FFF7AEFF012231463846FFF7FA
:1070F000B4FB286890F8B00180070BD5207D0228EA
:1071000001D0012806D122463146384602F04CF91A
:10711000012809D0224631463846FFF7A8FE20460E
:10712000BDE8F04103F01BBABDE8F08130B5C1B055
:107130001C4615466B46FFF75AFB22462946684611
:10714000FFF7BAFF41B030BD2DE9FF4F86468B46B1
:1071500000204FF6FF755378D7782AE003EB8301C0
:1071600001EBC3040EEB840101F1340945491478A5
:107170009678D1F800A018E009EB040191F801C05D
:10718000DC4510D10E999AF81480D1F828C0591C0A
:1071900001FB08410CEB41010988884200D20846F6
:1071A0008D4200D90D46641C24B2A642E4DA5B1C71
:1071B0001BB29F42D2DA039908800D990D8004B06A
:1071C0003EE72DE9F04F9B4682465378DDF824E0F8
:1071D0002EE000BF2C4D03EB830000EBC300AD6835
:1071E0000AEB800405EB8005343434351078254FE4
:1071F0004FF0010917E0261876788E4211D13E68CB
:10720000DEF828C096F814805E1C06FB08060CEB1E
:107210004606B6F900605E4503DD05EB000C8CF810
:107220000190401C00B296788642E4DA5B1C1BB2E7
:10723000D0789842CEDA03E72DE9F047114F814626
:10724000C8B038681D46884690F8706047A8CDE9F8
:107250000005144646AB4846FFF776FF287D10B977
:10726000386890F8CE61BDF81811BDF81C01642291
:10727000091A7143B1FBF2F1034F0E184FF4D061BC
:10728000B86803E020091000900A100004F0BEFA6C
:10729000B3B22246414648460095FFF792FF206868
:1072A000029002AB2FAA0121B868FFF7A6F90646A3
:1072B00001281ED901240DF1BC0A0DF10809B846B8
:1072C00012E000BF3AF81400E88009EB8407294671
:1072D000384601F017FB2B463A462146D8F80800FD
:1072E000FFF724FF641CE4B2B442EBD948B0BDE818
:1072F000F0872B46224641464846FFF717FFF5E741
:107300002DE9F04F1478DDE9099A9278FE4DFF4E91
:107310002D783768012D03D097F871501CB103E028
:1073200097F8C950FAE7012497F814809446A8F119
:107330000107BA4202D1ACF10102D2B203EB8307DA
:1073400007EBC30C00EB8C07F14834375B1C8068FB
:1073500008FB03F800EB8C0CD9F828000CF1340C76
:1073600000EB48034BE038194078884245D133F9A7
:107370001400504541DD03EB4409284439F902EC7F
:107380004FF0000B704503DAB9F90280404534DB59
:10739000012C10D0D6F8008098F81480A8F10208CB
:1073A000A04512D139F9048C404521DAB9F902809F
:1073B000404522DB1CE0B3F90200B3F90080284409
:1073C000404515DAB3F90680F2E7704505DAB9F9F8
:1073D0000480404501DA4FF0010B39F9048C404537
:1073E00003DAB9F90280404507DBBBF1000F04D195
:1073F0000CEB0408012088F80100641CE4B29442FC
:10740000B1D91DE62DE9FF4F9DB092F80180D778E4
:107410000020ADF84800ADF84C001790BA48BB4EBC
:107420001D4601783068144601291ED010F1710004
:1074300012AB90F8009090F801A013A8CDE90005D8
:10744000DDE91D01FFF780FE3268BDF84810BDF888
:107450004C0092F87620091A51436422B1FBF2F1F4
:10746000084406B2607810B10BE0C930E0E7CDE91E
:107470000056DDE91D014FF0010800232246FFF709
:107480003FFFA248E1780068407D401E814209D15B
:10749000CDE90056491ECFB2C3B2DDE91D01224637
:1074A000FFF72EFF40462BE100EB80011D9A01EB18
:1074B000C00102EB8103964A3433A0F1010C9268BB
:1074C00002EB8101343108919049AA6A0968097D6B
:1074D00001FB0CFC02EB4C0CCDF814C001FB00FCD2
:1074E00002EB4C0E00F1010CCDF860C001FB0CFC6E
:1074F00002EB4C0800F1020C01FB0CFC02EB4C0C03
:10750000CDF80CC000F1030C01FB0CF102EB4101C2
:107510000B912178EEE05A1892F801C01E9A94451A
:107520007ED14FF0000BCDF868B0CDF864B038F9DB
:10753000112010924A4401923EF911C0CDF834C096
:10754000624509DADDF80CC03CF911C0624503DA86
:107550004FF0010BCDF868B000297CD06B4A12685F
:107560001C92127D1B92521E8A4274D008EB41027B
:107570000C92DDF804C032F9022C0E9294450ADA1E
:107580006246DDF830C0BCF902C0624503DA4FF054
:10759000010BCDF864B0109A0EEB410C5244CDF8BB
:1075A00054C002923CF902CC624509DADDF80CC005
:1075B0000CEB410CBCF902C0624501DA4FF0010B43
:1075C000DDF854C0029ABCF902C0624507DADDF862
:1075D0000CC00CEB410C3CF902CC624576DBBBF1F4
:1075E000000F73D11C9A527D921E82420ED0DDF89C
:1075F00034C0019A624509DADDF82CC03CF911C0AB
:10760000624503DA4FF0010BCDF868B0012812D0C3
:10761000DDF814C0019A3CF911C062450BDA00E0B4
:1076200066E0DDF80CC03CF911C0624503DA4FF0AA
:10763000010BCDF868B0012913D01B9A921E8A4223
:10764000019A19D1DDF830C03CF904CC624530DA3A
:10765000DDF830C000E02CE0BCF902C0624525DB5B
:1076600027E0B8F902C00CEB0902B8F900C0624586
:107670001FDAB8F906C0F1E7DDF838C0624509DA6B
:1076800094460C9AB2F90420944503DA4FF0010BAA
:10769000CDF864B00C9ADDF804C032F9042C94459E
:1076A00007DA0C9AB2F90220944502DA0122199203
:1076B0000CE0BBF1000F09D1109AB24206DDDDF8F3
:1076C00020C001228C448CF8012011E00F4A12687E
:1076D00092F84024D2070BD01A9A012A08D1199A9D
:1076E000012A05D1DDF820C08C448CF801201792C6
:1076F000491CC9B2A2788A42BFF40DAF1898C0B233
:10770000B8427FF6D1AE05E048091000200910000C
:10771000900A1000179821B092E42DE9FF4F0E4611
:10772000C5B0154607464FF4D061FE4CA06804F082
:107730006DF82A4631463846489BFFF763FE2968B4
:107740004FF001080091A0B1F7496B462DAA81F8CE
:1077500000800121A068FEF750FF06466F46012811
:1077600032D902F04FFF0125DFF8C0930DF1B40AC2
:107770001DE06B462DAA0021ECE700BFD9F80010F0
:107780003AF8150091F8751088420FD984F80080F6
:107790004899C88007EB85008346489901F0B2F804
:1077A000E9B25A46489BA068FFF7C0FC6D1CB54281
:1077B000E4DDD9F8000090F84004800702D40020EE
:1077C00002F025FF49B03BE43A1D0121489BA06827
:1077D000FFF7ACFCF6E72DE9F04F8A46D3490025C8
:1077E00099468646D1F8006028462B4609EB0301EE
:1077F000491E1FD4747D8C421CDD377D01F10101CF
:1078000007FB01F10EEB410803EB430C4FF00001C5
:107810000AEB4C0B02EB0104641E08D4A74206DD00
:107820003BF911C038F91440604404FB0C55491C65
:107830000329EFDB5B1C032BD8DB00B9012095FB90
:10784000F0F0F8E42DE9FF4F82B00C464178DDF806
:107850003CB001B1491EB54A01F0FF09C178166874
:10786000737D5D1EA94201DA491C00E02946CDB2B4
:10787000017801B1491E01F0FF0A8178307D431E75
:10788000994201DA481C00E0401EC6B2B4F9120069
:1078900009F10101019064E0A44B4A1C1868007DC5
:1078A00000FB02F7484305990BEB470E01EB400044
:1078B00000900AF1010051E09C4909680B7D05998F
:1078C00002FB030701EB4701049FB1F90210B94223
:1078D00040DD0099B4F9008001EB40010027B1F9C7
:1078E00000C00CFB0877B1F902C0B4F902800CFBB0
:1078F0000877B1F904C0B4F9048001EB43010CFB33
:107900000877B1F900C0B4F9068001EB43030CFB22
:107910000877B1F902C0B4F908800CFB0877B1F917
:1079200004C0B4F90A80B3F900100CFB0877B4F96D
:107930000CC001FB0C71B3F90270B4F90EC0B3F9BD
:10794000043007FB0C11B4F9107003FB0711019B05
:1079500091FBF3F12EF81010401C00B2B042ABDBEB
:1079600011B2A94298DB4F4617E0017D781C4143D4
:107970000BEB410800903B46524621460598FFF725
:107980002AFF28F81A003B46324621460598FFF7A1
:1079900022FF28F81600009807B26448AF4200683A
:1079A000E3DD007D691C41430BEB4101009109F1CE
:1079B000010148430BEB4008574612E04B463A465C
:1079C00021460598FFF707FF28F817002B463A468F
:1079D00021460598FFF7FFFE009921F817007F1C4C
:1079E0003FB2B742EADD06B025E4F8B5504910468B
:1079F000069A09781D46022914D24E4C4B492E7D19
:107A0000236809687EB191F84060B6060AD5012A5C
:107A100008D10093B1F95820474B4849FFF712FFAE
:107A20002068A862F8BD91F8C061F706FAD5B606DD
:107A300009D50093B1F9C4213F4B4149FFF702FF3B
:107A400020686862F8BD012AFCD10093B1F9C42115
:107A5000E2E730B41C7D2CB1344C246894F86040CB
:107A6000E50702D030BCFFF7E7BBA40701D530BC67
:107A700053E630BCFFF75ABB2DE9F74F2B484FF0C8
:107A8000000A5546006890F8148090F8159024E09C
:107A900005EB850000EBC5010098544600EB810022
:107AA00000F1340B15E00298224600EBC5000021DE
:107AB000D0E90067012003F0F3FD06400F403E438C
:107AC00005D00BEB0400417809B901994170641CA1
:107AD000E4B24445E7D36D1CEDB24D45D8D3BDE8C3
:107AE000FE8F134A10B5127801243AB90F4A126872
:107AF00092F86020120729D5012927D181780278D0
:107B0000891A01D5C1F1000101F10101CAB2C178A0
:107B10004078081A00D54042401CC1B21046FAF71E
:107B200048FC0FE0900A1000BD0A10002009100068
:107B30004409100050091000209A01207ABB00006F
:107B400066BB0000C0B2012800D10024204610BD51
:107B50002DE9F04F834650789E468A464FF0010942
:107B6000FE49D6780C6826E000EB800101EBC003EB
:107B70000BEB830334331178957818E05F1897F88E
:107B800001C0D44511D194F81480471C07FB081795
:107B9000DEF824C00CEB4707B4F8D2C1B7F9007087
:107BA000BC4502DA4FF0000903E0491C09B28D42DE
:107BB000E4DA401C00B28642D6DA484621E430B509
:107BC000E64CE74A2468B2F90030E64A34F9A85F87
:107BD000B2F90020B4F9024029B9E349B1F9003003
:107BE000E249B1F90020A04201DD104630BDA842B3
:107BF00001DA184630BD201AD11A4843611B90FBA8
:107C0000F1F0101A00B230BD2DE9FF4F83B0994654
:107C1000D24C13784FF0000E0193266871467046DF
:107C200033B9537893B1737DD4785B1E9C420DD0E9
:107C3000337D97785C1EA74201D1557835B1A742B4
:107C40000AD1747DD578641EA54205D1B6F8AA0084
:107C5000801CA9F81F00AEE0547892F803A0D9F870
:107C6000245028E0621C5A4305EB4202029204EBC6
:107C7000840202EBC40C039A02EB8C0202F1340B77
:107C80000FFA84FC019ACDF800C011E00BEB020C56
:107C90009CF80180DDF810C0E04508D1DDF808C08F
:107CA0003CF912C0F44502DD0098E64611B2521CC0
:107CB0009742EBDA641CA245D4DA00F1010703FB1A
:107CC00007F205EB420C4FF0FF3E3CF911A0724663
:107CD0007446B1F1010803D40CEB410434F9024CB1
:107CE00001F10108434503DD0CEB4102B2F902202A
:107CF00014F1010C00D1144612F1010C00D12246FE
:107D00001444C4EB4A020FFA82FB07FB031205EB93
:107D100042027446B2F900A07246B0F1010C05D4DB
:107D200000FB031405EB4404B4F9004096F815E099
:107D3000BE4506DD821C02FB031205EB4202B2F9CE
:107D40000020661C00D11446561C00D12246144463
:107D5000C4EB4A0404EB0B0200240FFA82FA401E23
:107D600015E0002812DB864510DD421C5A4305EB66
:107D700042064A1E08E0002A05DB934203DD36F87E
:107D800012C0644424B2521C4245F4DD401CB84287
:107D9000E7DDFA210AFB01F090FBF4F004B2A9F848
:107DA0001F4001212046FFF70AFF71490C80B9F8F6
:107DB0001C10814202DD012007B042E50020FBE7F4
:107DC0002DE9F0479A46804600205378DDF8209050
:107DD00025E000BF03EB830404EBC30408EB840637
:107DE0005E4C3436D9F8247024685D1C247D6C43C5
:107DF00007EB440C14780EE037197F788F4208D1D6
:107E00003CF91470874204DDAAF802403846AAF80B
:107E10000030641CE4B29778A742EDD2EBB2D4787C
:107E20009C42D7D2BDE8F0872DE9FF4F83B0187888
:107E3000109C93461E46A070987820705878E07089
:107E4000D87860704FF000085F784EE007EB87004D
:107E5000039900EBC70001EB800101F1340A04999A
:107E600001EB800000F134091298426A3B48006837
:107E7000017D781C4143019002EB41000090357870
:107E80002EE000BF0AEB05004178594522D1009849
:107E900030F91510119881421CDD08F101001FFA1C
:107EA00080F821782846FAF784FA207061783846FD
:107EB000FAF77FFA6070A1782846FAF77EFAA07088
:107EC000E1783846FAF779FA09EB0501E07081F8B4
:107ED00001B003E009EB0500002141706D1C2DB2DB
:107EE000B078A842CEDA019807B2F078B842ADDA9D
:107EF0000FFA88F060E7F0B58E6A18490546012050
:107F000009686B782C780A7D591C514306EB4107B0
:107F100002FB03F106EB410C07EB440131F9023C93
:107F20000F49B1F900108B4203DB3CF914308B424E
:107F300000DA0020AB7807EB4307B7F902708F42F5
:107F400003DB3CF913708F4200DA0020ED786F1CE0
:107F50005743AD1C06EB47076A430BE020091000AE
:107F6000CE0A1000D00A1000C80A1000CA0A100079
:107F70004E38100007EB440506EB420235F9025C6F
:107F80008D4203DB32F914408C4200DA002007EB0B
:107F90004304B4F902408C4203DB32F913208A42D5
:107FA00000DA0020F0BD2DE9F04704468A468078CB
:107FB0002178FA4D411A491C286898B090F8440479
:107FC000814263DCE1786278891A491C81425DDC78
:107FD000F34E4FF4D061B06803F018FC20680090B5
:107FE00061782AE001EB8100B26800EBC10002EB8E
:107FF000800228683432DAF82830007D491C484372
:1080000003EB40032078DFF89C934FF0010810E069
:10801000D5F800C033F91070BCF868C0674506DDBC
:10802000B9F900C0674502DA171887F80180401CCB
:1080300000B2A7788742EBDA09B2E0788842D1DA59
:108040006B460FAA0021B068FEF7D7FA0746012554
:108050006E4619E016F825002178884212D906EB01
:108060008500A278817891420CD241786278914261
:1080700008D9C178E278914204D25146FFF73BFF1C
:10808000012804D06D1C2DB2BD42E3DD002018B0E4
:10809000C8E62DE9F34F824683B01E21C24803F0A3
:1080A000B5FB012059E0049800EB890609F10100B5
:1080B00004B201944EE0049800EB840530782978EE
:1080C000FAF777F9C0B2009069787078FAF771F929
:1080D00000F0FF08A978B078FAF76FF9C7B2E9782D
:1080E000F078FAF76AF9AD4900F0FF0C00252A464E
:1080F0004046DFF8B8E2D1F800B014E0401C009927
:108100000EE000BF9BF8143000FB03183EF9183056
:10811000002B02DA5B421A4400E01D44491C09B2FC
:10812000B942EFDD00B26045E8DD02B9012205EB9E
:1081300085004000B0FBF2F09BF84114814207D962
:1081400099480122A24030F81910114320F8191063
:10815000641C24B25445AEDD019881465045A2DB33
:1081600005B02BE58D490278096822B10A7D837834
:10817000521E934208D1427822B1C278487D401EF7
:10818000824201D1012070470020704730B505467A
:10819000C1B0824800238DF8003102680C46107D82
:1081A000401E8DF802018DF80131507D6B46401E56
:1081B0008DF8030140AA2846FEF719FB002240A9CA
:1081C0006846FEF74AFB6A4621462846FFF754FCFC
:1081D00041B030BD2DE9F14F0020E2B08246834628
:1081E0005E9073486E4CDFF8B481006800F5D06192
:1081F000C4E90101D8F8001091F86010CA0701D154
:10820000890701D501215E9100251AAB03AA01213E
:108210001A95FEF7F2F967490746087361486649FF
:10822000B0F900006090D8F800000978B0F9316327
:10823000012907D190F8CC0070436421B0FBF1F024
:10824000304406B2012F01D95C48057001242AE2AE
:108250001AA800EB840910F8240099F80210091AF2
:108260004E48491C006890F84404814207DC99F8A4
:10827000032099F80110511A491C814201DD4F4831
:1082800005704F4852905390E1B203A88DF8421107
:1082900030F81400ADF82A0149A8009040485DABC1
:1082A0004A464068FFF78CFD8046ADF840013C48E7
:1082B000ADF843510570BDF9761161B1BDF9740196
:1082C00048B1364A1268137D5B1E994203D0517D36
:1082D000491E884201D1012000E000205B902F4818
:1082E000006890F8A010C9074DD0364A90F8A73022
:1082F00012889342344A127801D212B143E0022A22
:1083000041D201228DF8382190F8A41057912E49BE
:108310000978012905D190F8BC205799114489B2F8
:1083200057915B99012935D090F8A50027495890BD
:1083300049A8B1F9002055A90091CDE901201848BC
:10834000E2B2001D4B4603C8FFF76EFD80B257999D
:10835000ADF82A01884216D95899884213D81B488B
:10836000B0F9000080450EDD0C48006890F8A000D0
:1083700080072DD50A48E1B249AB55AA8068FFF7BE
:1083800043FC012824D048465B99FFF7AAFB01284B
:1083900031D084E190F8A600C8E700002009100061
:1083A000900A1000CE0A100058521000E413012069
:1083B0004C0910004E38100048091000BD0A10008A
:1083C000209A01209E0A100044091000D00A1000D3
:1083D0000220ADF83A01ADF83C01C6488DF839519C
:1083E0004FF0010AE1B249AB55AA8068FEF79EFE44
:1083F000C148057053E1C149B1F90000804578DDFD
:10840000B0450EDDBE4A126892F82F33DB0708D064
:1084100092F83023331A5343642293FBF2F2104450
:1084200008800DF10C0838F814005490B548B0F9E4
:108430000020B1F90000824212DA55A949AA009140
:10844000CDE90102AB48E2B24B4641680846FFF76E
:10845000EBFC28F81400559AC9F80020ADF82A0161
:10846000A748006890F865C0A748007858B148460A
:10847000FFF778FE0128A24800683BD090F8BD00C5
:1084800060441FFA80FC38F814006045B2D949A84E
:10849000984900904FF0010AD346E3B24A465298F9
:1084A000496800F04BFA964838F81410006890F8C4
:1084B000672091423ED20221944A8DF83811BDF8CE
:1084C0003E11DDF878819182B0F86E20914201D2A0
:1084D0004FF0000890F84004C00713D049A948465F
:1084E000FFF761FD012808D089480078012804D0F1
:1084F00008E023E090F8C300C2E7854901204FF06F
:1085000000080870549803280ED3B8F1000F0BD060
:10851000CDF80080DFF8DC81E1B249AB4A46D8F8FB
:108520000400FFF762FAABE07248E1B249AB4A4699
:108530004068B2E004208DF83801F5E77048016822
:1085400091F8C021D2077DD0724A1268002A79D0F2
:10855000714A1278002A75D18DF8385191F8C0010E
:10856000400705D56348E1B21AAA4068FFF70EFE3E
:1085700047F6FF7058905B980128684800780BD048
:1085800001285F48006811D090F8CB0180465E4812
:10859000007801280DD014E001285948006802D065
:1085A00090F8CD01F2E790F8CC01EFE790F8CA011E
:1085B000ECE75348006890F8D91101EB08001FFA66
:1085C00080F85048B0F900105548B0F900008142D9
:1085D00013DA55AACDE90020464849A9029141681D
:1085E000E2B24B460846FFF71FFC03A921F814002E
:1085F000559AC9F80020ADF82A0103A830F81400F4
:1086000040454CD95899884249D862990220DFF8F0
:10861000E480087049A80090E3B24A465298D8F81E
:10862000041000F08BF93648E1B249AB00684A46C5
:1086300090F8C001C0F3C0000090D8F80400FFF724
:10864000D4F900E02BE02C4805702D48006890F824
:10865000C00180070ED53148007801280AD1E1B267
:1086600049AB4A46D8F80400FFF772FA012801D155
:108670002C4908702248006890F8C001000707D50F
:10868000E1B249AB4A46D8F80400FFF7E2F906E048
:10869000E1B249AB4A46D8F80400FEF747FD174956
:1086A0006098641C0880BC427FF6D2AD1E4880F8FA
:1086B00000A01E4880F800B01148006890F84004FF
:1086C00080070ED59DF83801022801D0012808D175
:1086D00017481AA905703846FFF7DBFC012001F0A6
:1086E00096FF63B0BDE8F08F084800210173018058
:1086F00070470000900A1000BE0A1000CE0A100059
:1087000020091000C60A1000440910004E3810005D
:10871000BD0A10009C010022390910004109100017
:10872000D20A1000C40A10003F09100040091000CE
:10873000DC0A1000F0B5B2F900400568AC4202DD79
:10874000B3F900102EE002EB410434F9026CAE42A2
:1087500004DA03EB410131F9021C23E00024491E35
:108760000BE000BF32F91470AF4205DC02EB4406A7
:10877000B6F90270AF4202DA641C8C42F2DB32F9C5
:10878000146003EB440133F91430B1F9021002EB29
:108790004402AD1BC91AB2F902206943921B91FB36
:1087A000F2F119440160F0BDF0B50E461D490968AB
:1087B00001F275431AB3012A2AD0022A31D191F865
:1087C00070C491F8714491F8741403EB4C0500BF28
:1087D00003EB41020CEB040102EB4C073E2920DCC9
:1087E000BCF1010F02DD6146FFF7A4FF012C18DD8B
:1087F0002B463A4621463046BDE8F0409AE791F8CC
:1088000070C491F8714403EB4C0591F87214DFE7E2
:1088100091F870C491F8714403EB4C0591F873140E
:10882000D6E7F0BD200910004FF47A72504390FB58
:10883000F1F17E4810B5814201DAC01110BD42F657
:10884000A640814201DD5A2010BD794A002000BFB8
:1088500032F910308B4205DC02EB4003B3F90230F1
:108860008B4202DA401C4528F2D332F9104000EB6B
:10887000800302EB4000091BB0F90200553B001BCE
:1088800001EB810191FBF0F0184410BD30B50D46AD
:108890000446FFF7C9FF00EBD0704010002D02D056
:1088A0000DDD34B130BD002C03D005DD4FF02D00BF
:1088B00030BD4FF0000030BD4FF05A0030BD002CED
:1088C00003D005DD00F15A0030BD6FF0590030BD16
:1088D000A0F15A0030BD10B58C1A00D564420028B2
:1088E00000DA404204EB400011440A18081A521002
:1088F00040104FF47A71484390FBF2F0C0F57A7063
:10890000588310BD30B582780378CD88D21AC378E9
:108910004078521C1B1A5B1C05FB02F0D4185D4307
:1089200040006A00B0FBF4F0B2FBF4F2904202D9CE
:10893000C8820A8330BDCA82088330BD2DE9FF4F4B
:108940001646002284B01046154696469346924637
:10895000747896F8039038E004EB840101EBC403CB
:10896000059901EB8301343103913378029396F832
:1089700002C027E0039919444F7807998F4220D10C
:108980002C49671C0968097D07FB0137049901EB35
:108990004701A9EB0407B1F902107F1CCDE90017CC
:1089A00002995F1A00997F1C0A44794301FB07BBB7
:1089B000019F084401FB07EE0099794301FB07AAD8
:1089C0000D445B1C9C45D5DA641CA145C4DA4FF408
:1089D0007A7141434FF47A7391FBF2F16B4393FB4D
:1089E000F2F301FB05F44FF47A7294FBF2F7414382
:1089F00091FBF2F1AEEB0704ABEB01076B4393FB8A
:108A0000F2F1AAEB01056000791BFFF73FFF119916
:108A10002A46487539462046119BFFF75CFF11999D
:108A200008B03046BDE8F04F6CE700005AD3FFFFB6
:108A300020BB000020091000FA4900200870FA4904
:108A40000870FA4908707047F94910B40020F94AD3
:108A5000087001211170F849FF4B0870F749087040
:108A6000F7490870F7490870F7490870F749087026
:108A7000F749087048608860F6490968B1F86220D3
:108A80001A80B1F8A130F54C2380F54CB1F8C6112D
:108A90002180F44C2280F44A1380F44A1180F44976
:108AA000088010BCC8E72DE9FF4F81B0E94A4FF0BC
:108AB0000109CDF8009012689B464D4692F815C00A
:108AC000137D0CF1010C62E04FF0000A47F6F872DA
:108AD0005442D646564619E005FB036730F8178026
:108AE00031F81770A7EB08073FB2BA4200DD3A46EB
:108AF000BC4200DA3C46002F02DA4FF0000903E0E6
:108B000002DD4FF00007009706F101069E42E3DB0D
:108B1000009F59EA070608D0B9F1010F03D0B9F157
:108B2000000F04D006E0012F04D1002202E0012F43
:108B300000D12246002412E005FB034630F81670EF
:108B400031F816601744F61B36B25E4506DACBF1F3
:108B50000007BE4202DDB2440EF1010E641C9C42CD
:108B6000EADBBEF1000F01DD9AFBFEFA0AEB02041C
:108B7000002209E005FB0326DDF80C8030F81670B2
:108B8000521C274428F816709A42F3DB6D1C654589
:108B90009ADB05B0BDE8F08FF0B4C2F1100422B149
:108BA000012B02D00023AB4F0EE0F0BCF9F77DBFE4
:108BB00031F9135030F91360554306FB045545F362
:108BC0000F1521F813505B1C3E68757D367D6D1CBA
:108BD00075439D42ECDCF0BC7047F0B59D4D00271D
:108BE00084462D6801203C466E7D2D7D06F10106F0
:108BF00006FB05F60CE000BF3CF9145031F914E017
:108C0000B5EB0E0500D56D429D4200DD7F1C641C56
:108C1000A642F1DC974200DD0020F0BDF0B58D4AA0
:108C200000273E4615686B7D2A7D5B1C534310E090
:108C300031F912C0B5F8F6420CEB040E30F91240CF
:108C4000A64505DAB4EB0C0400D564422744761C33
:108C5000521C9342ECDC7E485FB195F83610B1426D
:108C600007D2816809B10120F0BD01218160002097
:108C7000F0BD0021FAE72DE9F047764C8146002649
:108C800020680125174690F820008846000720D567
:108C90007948784A01684846F9F721FE77497548CE
:108CA0000A680368D0F804C0D21A4B68A3EB0C031F
:108CB0001A448B68D0F808C0C968C068A3EB0C03DD
:108CC000081A21681A441044B1F87810814200DA79
:108CD0000025206890F8200080070BD568480078B0
:108CE00040B95348007828B941464846FFF796FFF7
:108CF00000B1002556480021027892B139704268CF
:108D0000521C4260236893F837301B0903EB83033E
:108D1000B2EB430F02DD4160017001263046BDE831
:108D2000F08715B141603D70F8E74268531C43601D
:108D3000236893F8373003F00F0404EB8404B2EB9C
:108D4000440FF0DD0122027041601A09EBD101707D
:108D50000126E8E770B53F4B1B685C7D1B7D641CFA
:108D60005C43002308E000BF32F8135030F8136072
:108D7000AD1B21F813505B1CA342F5DB70BD2DE940
:108D8000F05F3448274C01682578B1F9A120B1F98A
:108D90006200B1F9C63191F8C0A1012D0FD1394C53
:108DA000246864B1B1F9AD20B1F96C005FEA8A744E
:108DB00005D51D4C2478012C01D1B1F96A00304C45
:108DC0002478012C62D0022C06D3B1F8BE200AB15F
:108DD000B1F9BE0002461346DFF880E01E4C05469E
:108DE000AEF8002020801E4CDFF878C0DFF87CB0A1
:108DF000238091F864601C46801B06B291F8A300A2
:108E0000101A07B291F8C301181A174B00B2814625
:108E10001F80ACF80060ABF800001B480078012808
:108E200041D070E041091000C40A10003909100057
:108E30003D091000360910003E0910003F091000DE
:108E4000400910003B0910003C0910007709100090
:108E50009C0A100020091000C80A1000CA0A10005D
:108E6000CC0A1000CE0A1000D00A1000D20A10005E
:108E7000C60A1000B837100054091000A8371000B7
:108E8000440910009C0100224809100091F8BA40E2
:108E9000224491F8BB4012B2204491F8DA4100B26A
:108EA00023441BB298E791F8CC004FF0640C00FB10
:108EB00005F8B8FBFCF84544DFF80884A8F8005032
:108EC00000FB02F8B8FBFCF800FB04F5B5FBFCF571
:108ED0004244AEF80020FC4A2C44148000FB06F407
:108EE000B4FBFCF4F94A3444148000FB07F2B2FBF3
:108EF000FCF200FB09F0B0FBFCF43A441A8004EBEE
:108F00000900ABF8000091F8A000C00706D1ED48B9
:108F10000188EE48AEF80010008818805FEACA7039
:108F200002D0EB48006830B9E748BEF80010018075
:108F30001988ABF80010E548BBF90020B0F9001023
:108F4000B3F90000F9F73DFAE2490880BDE8F09F67
:108F5000E14A10B51268537D127D5B1C534306E055
:108F600030F912408C4201DD012010BD521C9A42A2
:108F7000F6DB002010BD2DE9F0478046D748894632
:108F8000002400684FF45061054602F03FFCD24ACD
:108F90001068037D0120064618E000BF00EB800149
:108FA00001EBC00105EB8107012108E039F913C08D
:108FB0005B1CC44502DD641C7E54A4B2491CD2F87B
:108FC00000C09CF814C08C45F0DA401C1168497D43
:108FD0008142E3DA2046A2E6F0B5BF4E33685D7DFC
:108FE0001B7D6D1C5D430024274608E030F913C04B
:108FF000944502DA21F8137000E0641C5B1CAB425C
:10900000F4DB3068B0F89A00A04201DD0020F0BD2A
:109010000120F0BDF0B50025AF4C26E00022012371
:10902000767D0EE003FB075C30F91CC0BCF1000F3D
:1090300004DD0AB1944503DA624601E00022731CA4
:109040005B1C9E42EEDA002A0EDD012308E0367D2D
:1090500003FB065630F81670BF1A21F816705B1C19
:109060002668777D9F42F2DA6D1C2668377DAF4215
:10907000D4DCF0BD2DE9F043974B81461868467D5E
:10908000057D761C002028E01A6892F85C20642A8E
:1090900006D9643A02FB00F494FBF5F4141B04E0D7
:1090A000C2F16402424392FBF5F4643401224FF0B2
:1090B00064080FE01F683F7D02FB070739F917C0FE
:1090C000BCF1000F05DD0CFB04FC9CFBF8FC21F857
:1090D00017C0521CB242EDDB401CA842D4DBBDE8F5
:1090E000F0832DE9F0477C4B81468A461868447D21
:1090F000057D641C01202EE01E6896F85D10642931
:1091000007D96439421E777D4A4392FBF7F28A1AE7
:1091100006E0C1F16401421E5143727D91FBF2F2FF
:10912000317D6432414309EB41060AEB41070021DE
:109130004FF064080CE000BF36F911C0BCF1000F1D
:1091400005DD0CFB02FC9CFBF8FC27F811C0491C58
:10915000A942F1DB401CA042CEDBE0E52DE9FE4355
:1091600005465F4800273E46047807700320F7F75E
:1091700066FAFFF704FE5B4823465B49026828460F
:10918000FFF70AFD234602AA58495748FFF773FD27
:1091900004469DF80800DFF858814FF48069E0B379
:1091A0004D4C206890F84000800710D54648B0F933
:1091B00000204448B0F900104E48B0F90000F9F71B
:1091C00000F9494A03B249491046FFF76CFC434D88
:1091D000464A45482968FFF7BDFD0320F7F74AFADC
:1091E000206890F84000400703D529680846FFF73B
:1091F00011FF206890F84000000703D52968084651
:10920000FFF76FFF206890F84000C00603D529687B
:109210000846FFF72FFF216800E004E091F8B00155
:10922000C20716D10FE00320F7F724FA012C09D169
:10923000D8F80010012041F00501C8F80010494697
:10924000F7F70CF98CE0800703D491F8400480070D
:1092500003D529492868F9F728FC206890F86010A0
:10926000490716D52968B0F968200846FFF7B4FE0B
:1092700001280ED1206890F86000800609D5D8F842
:109280000010012041F00501C8F800104946F7F729
:10929000E5F81A48007802283AD019492868F9F701
:1092A00004FCDFF830801648B8F90010FFF750FED4
:1092B0001449DFF85490154D0A7812B101285AD09C
:1092C00043E040E0C80A1000CC0A1000CE0A1000AB
:1092D0009C010022C60A1000200910004C09100051
:1092E00036091000B00A1000688E012042000120EB
:1092F00024091000CA0A1000E413012044091000D8
:10930000209A01203F0910003E0910003409100086
:10931000206890F840104906C3D58DF804608DF898
:109320000560017D491E8DF80610417D491E8DF8AE
:10933000071018490091B0F95A20174901A82B6865
:10934000FEF780FAADE701280DD014480E701449DD
:10935000067089F80060087810B1A0F1010008706B
:109360003846BDE8FE832E80206890F8290100076A
:1093700001D5FCF7C6FB012789F800700549B8F94B
:109380000000FFF7F8FD0749488029888142E7D2AD
:109390002880E5E7209A012066BB00004009100004
:1093A000390910009C0A10002DE9F0471E4D0020DD
:1093B00004462E68034696F8B051AD0732D51B4DD2
:1093C0002D78002D2ED1928BB6F8BA51AA4229D20F
:1093D0004A78DFF85CA091F8038014E0357D571CD3
:1093E0007D430AEB45090D7891F802C008E000BF03
:1093F00039F91570002F01DB3C4400E03B446D1C43
:10940000AC45F5DA521C9045E8DA0BB94FF0FF3362
:1094100064214C43594294FBF1F1B6F8BC218A42D5
:1094200000DD0120BDE8F08720091000440910008C
:10943000E4130120F948FA4A006830F8FA1F118055
:10944000F849C079C8807047F6480021F34A418046
:109450008180C160126892F8432012098260016124
:109460000170F148017070472DE9F041EB4DEC4A75
:109470002E6896F8D010B6F8FA30C90744D096F89E
:10948000FF4004B90124118896F8FEC0CF1A07FBEB
:109490000CF797FBF4F4B6F8FC700F442744E14C4A
:1094A000B84211DD002610210120E660F6F7D6FF54
:1094B000286890F86010490602D5DC4A0121117035
:1094C000A68090F8010106E0814202D9D64D2D78A0
:1094D00025B196F80101E080BDE8F081D44D2D78EA
:1094E000002DF9D1B4F90650002D01DD6D1EE58087
:1094F000E488002CF0D1891E814200DA01468B42BB
:1095000000DD19461180E7E71380E5E7F0B5C349B0
:10951000C44D096891F84020D20753D0C24A177849
:10952000C44A1278AFB1012A09D091F84330B1F89A
:109530004A6003F00F021C09B1F8483015E091F8B9
:109540004D30B1F8546003F00F021C09B1F85230ED
:109550000BE0012A1AD011F8423F03F00F024FEA44
:1095600013144B888E88A1F1420191F820C15FEA63
:10957000CC7C16D0DFF8C0C2BCF800C05FEA4C5CFF
:109580000FD591F8251157B10A090AE011F84C3F9F
:1095900003F00F021C094B888E884C39E5E701F077
:1095A0000F02984201DCAA60F0BDB04201DBAC6062
:1095B000F0BDC01AA11A4843F11A90FBF1F0104413
:1095C000A860F0BD0020FBE7944A10B512680021A6
:1095D000B2F8B830834205D292F8B0301B0701D5FB
:1095E000032112E0B2F8B630834205D292F8B030CF
:1095F0005B0701D5022108E0B2F8B430834204D2FF
:1096000092F8B000800700D501218648864C037887
:10961000994211D1217899420AD0854A1278134390
:1096200007D00169491E0161002901DC0078207022
:1096300010BD01700169F7E759B1022901D1012B71
:1096400007D092F8B22002610170002AF0DC21708C
:1096500010BD92F8B320F6E77049096891F8B01090
:10966000CA0670490DD58A88831A002B09DC704B15
:109670001B784BB1C2EB0212520002EB4000C0F368
:109680004F10888080B27047C2EB82121044C0F342
:109690008F10F6E72DE9F043604E0546B5B0376808
:1096A000C82197F8B10000F00F04641C02A802F072
:1096B000CFF897F85F04C00714D0002710E0316896
:1096C000087DB1F96234CDE9003000FB07F2B1F951
:1096D000603405EB420002462946F9F7CFFA7F1CB9
:1096E000A742ECDB30680023814602A9007D10E030
:1096F00000FB03F6002209E006EB020C51F8227091
:1097000035F91CC0674441F82270521C9042F3DCCA
:109710005B1CA342ECDB002207E000BF51F82230C3
:1097200093FBF4F341F82230521C9042F6DC002205
:1097300013462AE000273E460DE000BF06FB003C32
:1097400051F8238035F91CC0BCEB080C01D5CCF1D5
:10975000000C6744761CA642F0DB97FBF4F699F800
:109760002071FF070DD0344F3F887F0509D599F848
:1097700024714FEA171C0CFB06FC07F00F069CFB3C
:10978000F6F6964200DD32465B1C9842D2DCB2F51A
:10979000803F04DB4FF6FF7035B0BDE8F08390B238
:1097A000FAE710B5FFF776FFFFF756FF1D4C4FF0B5
:1097B0000051020A60804A738873FFF705FF6088D2
:1097C000FFF7A4FE6088BDE810404DE6F0B4134AF0
:1097D000116891F8B130097D03F00F04114B641C3E
:1097E000DD6895FBF4F604FB16556943134D05EB54
:1097F0004105002105E000BF30F8116025F8116037
:10980000491C1668367D8E42F6DCD868401CD8604C
:10981000A04215DBF0BC0948C3E700002009100096
:1098200044381000A80A10004409100077091000FD
:109830003F0910004109100058091000A40D012033
:10984000F0BC704731B56846FEF7C4FC9D4C2078EB
:10985000022805D19DF80000012801D100F0CFFEBB
:109860009DF80000207000F063FE38BD954810B5EB
:10987000002141708170FEF737FFBDE8104000F015
:1098800047BE10B5FFF7E0F8FCF77EFE00F028FEBB
:10989000BDE81040FFF7D8BD8A4910B500204860E8
:1098A000FFF7EFFF8848006890F8E801002803D030
:1098B000BDE81040FCF718BC10BD10B50024FFF740
:1098C0004DFC012801D028B101E0FFF7BBFF0124C6
:1098D000204610BDFFF7CAFFFAE72DE9F0477B48A5
:1098E0007B49002605680D427DD0774C216891F8B0
:1098F0002911890703D57749774A0988118082465B
:109900007048406805400620F6F799FEA80703D581
:109910007248FCF711FD0646714FE80730D0206809
:10992000704D4FF0000890F86010C9062FD5DFF891
:10993000B89199F80010D9B96C490978C1B1B0F85B
:109940007D3090F87C206A496A48FFF746F978B97B
:1099500000221146AC20FCF777F92068012190F82D
:109960007F002870387840F00100387089F80010C6
:10997000287870B1401E28705D495E48F9F795F867
:10998000DAF80000002837DA387868B334E085F870
:109990000080594D297801290AD1216891F8601079
:1099A000490605D55549564A49881288914201D140
:1099B00085F80080206890F8B000C00704D02878AF
:1099C00010B94C48FFF702FF4E48007828B1012833
:1099D000D2D14D4800780028CED128780028CBD1AC
:1099E0004A49444801E00CE003E0FFF766FF064304
:1099F000C2E73046FCF79AFDBDE8F0470620F6F7CF
:109A000039BEBDE8F08710B541482E4900684C6862
:109A100044400ED04860A00701D5FCF765FBE00785
:109A200001D0FFF72EFF600603D5BDE81040FFF719
:109A300003B810BD234C08B50025E570FFF7FAFC0C
:109A4000E07820B30128FBD16B460022852103205A
:109A5000F6F754FD0098C00706D001210320F6F761
:109A60002CFDE570FFF718FF0098400705D504218D
:109A70000320F6F722FDFFF730FF00980006DFD540
:109A800080210320F6F719FDFFF7BDFFD8E703217A
:109A90000020F8F778FE6B46002202210320F6F73B
:109AA0002DFD03210120F8F76EFE00988007C7D531
:109AB000FFF7F2FE87210320F6F7FFFC0120E0709C
:109AC000BEE70000BC0A1000200910005809100071
:109AD000030000806A0910006C091000CC0C012002
:109AE0003C0910003B091000360910004409100021
:109AF000D8A501200011100077091000443810008B
:109B0000780910003709100038091000148D012061
:109B1000E40A1000D648002101704160704710B57A
:109B2000027F817F531A9B1C042B05D9437FC47F7E
:109B30001B1B5B1C022B0FD9CE4B1B7873B12AB1B8
:109B4000CD4A1268127D521E914207D1417FC07FDB
:109B5000081A401C022801D8012010BD002010BDA9
:109B60002DE9F05F436806461804DFF810A3000CE7
:109B700013D000220A2710465FF0010404FA00F116
:109B80000B4217D000EBC00106EBC1010C3191F87C
:109B90002050012D06D00A270FE000208AF800008F
:109BA000BDE8F09FCD68098995FBF1F1914201DD97
:109BB0000A460746401C0A28E0DBDFF8B882DFF8D7
:109BC000B8B2DFF8AC924FF0000C00BF706804FA36
:109BD0000CF108420AD00CEBCC0006EBC0050C35AA
:109BE00095F82000012802D006285BD076E00220FC
:109BF00085F82000287948B198F80000C0B3DBF858
:109C00000000674590F8C0001FD115E09C4800781F
:109C1000012808D09B4800780128DBF8000016D006
:109C200090F8CF0115E098F8000040B1DBF8000093
:109C3000674590F8D80108D100F00F0009E0DBF883
:109C40000000674590F8D001F6D0000901E090F8D7
:109C5000D401E8702846FFF762FF012810D0687829
:109C6000D9F8042004FA00F18A43C9F8042035E049
:109C7000FFE7DBF80000674590F88200E5D1DBE7FD
:109C8000DBF80000E97890F8830000F00F0008444A
:109C9000E8706978D9F8042004FA01F01043C9F893
:109CA00004001BE0072085F8200098F80000002839
:109CB000DBF8000032D090F8C10000BF00F00F00C8
:109CC000E870DBF80000696A90F88500B1EB101FBE
:109CD00004DDE97800F00F000844E8700CF1010C95
:109CE000BCF10A0FFFF672AF5FF00007706804FA6C
:109CF00007F108426BD007EBC70006EBC0050C3537
:109D0000A0466978CC4604FA01F0D9F8041008425C
:109D10001BD02846FFF703FF18B116E090F8840027
:109D2000CCE7DBF80000E97890F8830000F00F0042
:109D3000081A002800DC0020E870687808FA00F1B2
:109D4000DCF804008843CCF80400E878E0BB95F820
:109D50002000022802D007283DD038E0032085F8F3
:109D60002000287948B94648007818B94FF4867021
:109D7000FCF72CF8424880F800804348007801281E
:109D800016D103208AF800002879022810D1DFF8C4
:109D9000F08098F80000012802D10C20FCF716F89A
:109DA0003A49052008703A49002088F800000870F8
:109DB00038480078012805D19AF8001041F00201D6
:109DC0008AF80010E87810B1C0B2401EE8707F1C1D
:109DD0000A2F8BDBE4E6082085F820002A4800786B
:109DE00028B99AF8001021F001018AF800102948DA
:109DF00000780028EBD19AF8001021F002018AF8CF
:109E00000010E4E7F0B500211B4B0125426805FA7C
:109E100001F422421FD001EBC10200EBC2020C325E
:109E200092F82040022C16D1154ED4783678012EA7
:109E300015D0144E3678012E1E6816D096F8CF71C4
:109E400096F8826006F00F06BE1BA41B24B2002CFD
:109E500000DC0024D470491C0A29D7DBF0BD1E6841
:109E600096F8D07107F00F07EAE796F8D471E7E7A4
:109E7000D40A100044091000200910003D09100008
:109E8000410910003A0910003F091000390910007B
:109E9000C40A10003E0910007047FE490A68B2F873
:109EA0002B11814201D300207047B2F82D2182424C
:109EB00001D8FF207047521A401AC0EB0020B0FBB7
:109EC000F2F0C0B2704738B5B2F90230B2F90020F2
:109ED0005B4302FB02340A460146684600F0DEFDA1
:109EE000684600F0D3FDA04201D9002038BD012012
:109EF00038BDF0B5E74C0022236893F887502B0754
:109F000001D12B091DD0B0F93060B1F90230F31A3C
:109F100000D55B4205F00F07BB4200D90122B0F922
:109F20002E70B1F90030FB1A00D55B42B3EB151F60
:109F300001D942F0020232B1012A09D0022A09D025
:109F400009E00020F0BDD0F82E0008600120F0BD2F
:109F50000F8000E04E80D30715D0B1F90230B0F980
:109F60003050AB4207DD256895F8875005F00F05A6
:109F7000A3EB050306E006DA256895F8875005F09F
:109F80000F052B444B80920712D5B1F90020B0F990
:109F90002E309A4205DD236893F88730A2EB131226
:109FA00005E005DA236893F8873002EB13120A8084
:109FB0000968C0F82E10C4E72DE9F843B54E0D46E8
:109FC000044690F82010012730684FF0000903295B
:109FD0000DD0B4F93480002104F13A0C04F12E03C1
:109FE000B8F1000F1EDD90F8982032B10AE090F829
:109FF0008900A086A4F8329068E090F89980B8F1C2
:10A00000000F0BD0ADF8022090F89900ADF80000D9
:10A010006A4661461846FFF756FF0146A08E401E6D
:10A02000A08626E0B4F93220002A0EDD90F88000E8
:10A0300040071ED529462046FFF75BFF0146012851
:10A0400017D1608E401E608613E090F8862022B9FA
:10A0500090F89780B8F1000F0BD0ADF8022090F87F
:10A060009700ADF800006A4661461846FFF72BFFDF
:10A07000014694F82000052806D0042804D00728BB
:10A080002AD0082828D029E041B1306890F8800013
:10A0900080071FD5D4F82E0028601FE0608E78B9A5
:10A0A000B5F90200B4F93010084440106880B5F9E1
:10A0B0000000B4F92E100844401028802868A062DF
:10A0C000A4F83490306890F8880060862868C4F856
:10A0D0002E0003E0002701E00129DBD03846BDE86F
:10A0E000F8832DE9F843044690F8200016460F4601
:10A0F00003281AD004F13E02111FDFF89C81654D40
:10A10000052814D0072812D008287DD1684600F011
:10A11000C5FC684600F0BAFC014698F8000000282B
:10A12000286876D0B0F8C40075E008686AE0684630
:10A1300000F0B4FC684600F0A9FC034698F8000063
:10A1400060B1D5F800C09CF8C200BCF8C42000F093
:10A150000F0100095243BCF8C6C011E02079B8B124
:10A160000128286818D090F88A0000BFD5F800C0F0
:10A1700000F00F010009BCF88C20BCF88EC05243DF
:10A180000CFB0CFC934212DD634508DB08460EE035
:10A19000286890F8D101E9E790F8AC00E6E79B1A4F
:10A1A000411A4B43ACEB020193FBF1F1401A2378C7
:10A1B0003A49C0F110022BB90B7960F307130B7108
:10A1C00023690B612378012B03D14B7960F30303DF
:10A1D0004B71A16A3B68414303FB02106FF0F02111
:10A1E00001EA101038602868328890F88B0000F07F
:10A1F0000F03A08DC3F11001584302FB01000009B9
:10A2000030803868A06201E002E002E03088A0857A
:10A2100065E7B0F88C0040438142F9DCA06A386001
:10A22000A08D30805BE72DE9FC5FDFF874B0DFF8CC
:10A2300064A0074600264FF00109796809FA06F87C
:10A240004D4611EA080F7CD006EBC60007EBC004B0
:10A250000C3494F82000032805D0052803D00428E6
:10A2600001D008286DD1D4F83A000090A08AADF84A
:10A270000400DAF8000090F88000000704D501AA75
:10A2800069462046FFF72DFFDAF8000090F88000BD
:10A29000C00707E020091000440910004E381000E4
:10A2A000C837100006D001AA69462046FFF784FE91
:10A2B000002846D094F82000032808D1DAF80000DE
:10A2C00090F82901400702D5D4F836000090DBF859
:10A2D0000010754B41EA0801CBF8001022791B7879
:10A2E0005846A9461A4306D194F82020082A02D0DD
:10A2F00021EA0801016006EB46010BEB810594F8A9
:10A3000020002D1D03284FD0052853D0042851D0FC
:10A310005FF00400B5F90A20BDF902108A4216D197
:10A32000B5F90810BDF90020914210D1DAF80010FB
:10A3300091F8801089070AD5297901F07F02A17868
:10A3400000E057E0B2EB510F01D1891CA170A17858
:10A35000490829712279032A02D341F08001297129
:10A360000099A96028702078687020796871DAF8FF
:10A3700000002289534690F82F010109514300F053
:10A380000F00B1FBF0F0A870E08AFFF786FDA8711E
:10A39000207EE8711A68BDF80400B2F8901081427E
:10A3A0000AD385F8039019E02146384600F00AF9EF
:10A3B0000320AFE70520ADE7B2F89220824201D832
:10A3C000FF200AE0521A401AC0EB002090FBF2F086
:10A3D00010F0FF00E87000D10120E87094F8200030
:10A3E000082807D12146384600F0E1F821463846D2
:10A3F00000F0FBF8761C0A2EFFF61FAFBDE8FC9FAD
:10A4000010B504460520F6F71AF92046FFF70BFFB2
:10A410000520F6F72FF92548006818B10221002021
:10A42000F6F71CF82248006890F8F007000639D5C6
:10A430002048224B027820481B788178534062F3F1
:10A4400082011F4A63F341011278C2701D4A1278DB
:10A4500062F30001144A127862F3C30121F0700123
:10A46000817019490978417318490279097861F3B3
:10A470000302174902710988418116494A88C2803E
:10A480000988018114490A78417962F30711417101
:10A49000C189491CC1810146BDE8104016220F4800
:10A4A00001F035B910BD000041091000C837100097
:10A4B00020091000400910004E3810003F0910001C
:10A4C0003D0910003E09100054551000B00A10005C
:10A4D000AA0A10004438100044091000209A0120F4
:10A4E00010B54FF43771504801F0B2F94FF42671AE
:10A4F0004E4801F0ADF94E490020087000F09CF87C
:10A50000FFF708FB00F04CFABDE81040FFF7C4BCB1
:10A5100010B500F036FA444800F043FA4248FFF71D
:10A520001FFB4148FFF76CFF40490020087010BD39
:10A5300010B53E4C207878B121463B4800F04BFDE9
:10A54000394800F07AF83848FFF70AFB3648FFF739
:10A5500057FF0020207010BDBDE81040D8E710B5AF
:10A56000324C014620780F280CD200EB400202EB5F
:10A57000C00004EB8000001D2C2201F00DF92078B2
:10A58000401C207010BD10B5034600205968012200
:10A5900002FA00F4214206D0401C40B20A28F7DB40
:10A5A0004FF0FF3010BD82401143596010BD10B50F
:10A5B0004C7801234268A3409A434260002081F80E
:10A5C000200010BD30B500220368012404FA02F512
:10A5D0002B4205D0521C0A2AF8DBFF20087030BD40
:10A5E0009440234303600A7030BD10B50C780123FA
:10A5F0000268A3409A430260FF20087010BD0A4819
:10A60000FFF700BC09480A490078087070470949FB
:10A61000096891F86110C90705D00246044801781D
:10A62000024800F0EEB87047785210005455100000
:10A63000DC0A10002009100070472DE9F0410025C8
:10A6400006460127706807FA05F1084233D005EB8A
:10A65000C50006EBC0040C3494F82000012801D09A
:10A66000022828D12079022803D0012805D0B8B1CA
:10A6700021E0B4F80500C34915E0C449C24809689F
:10A68000B0F9000091F8A010890704D5B4F91A00B8
:10A690000021FDF794FAB4F80510814207DB0AE0C7
:10A6A000B4F80500BA49B1F90010884203DA21462E
:10A6B0003046FFF77CFF6D1C2DB20A2DC2DBBDE8D2
:10A6C000F08170B5054601EB410302EB420403EB58
:10A6D000C10304EBC20201EB410605EB820206EB6B
:10A6E000C10105EB810192F82240AA4A91F822109B
:10A6F00005EB8303002093F8223032F8115001213A
:10A70000A34213D10DB1012070BDA34C2478012CBC
:10A7100009D070BD32F8145001FA03F6354200D06A
:10A720000120641CE4B29C42F4D370BD01FA04F62B
:10A730003542E8D132F8142099400A42E3D170BD85
:10A740002DE9F0470446914259D007D901EB0200A8
:10A75000A0EB0201CAB2A0EB0200C1B201EB4100C2
:10A7600000EBC10004EB800102EB420000EBC200F1
:10A7700004EB80094B89B9F80A5009F104002B4415
:10A780004B810B89B9F808502B440B810B69D9F820
:10A7900010502B440B61CE684B680068D9F80C70E0
:10A7A0004FEA234C4FEA204806FB0CFC06EB07055A
:10A7B00007FB08CC9CFBF5FC6CF31F430FFA83FCF2
:10A7C00006FB0CF600B207FB006090FBF5F060F3AF
:10A7D0000F03CD604B602078A0F1010191420BD0B6
:10A7E00000EB400101EBC00004EB8001283909F1C6
:10A7F00004002C2200F0D0FF2078401E2070BDE81D
:10A80000F0872DE9F74F07466448604A0025037832
:10A81000106882B0012B0BD090F87330B0F842046E
:10A8200003FB03FA40430C464FF0010B0190A1E0FB
:10A8300090F8CB30F2E700BF0BFA04F02646009008
:10A8400074E000BF00990BFA06F008426DD006EBE9
:10A85000460000EBC60007EB8000A446D0F8049049
:10A860004FE0B4454BD00CEB4C0000EBCC0007EBB9
:10A87000800041684FEA2142A2EB2940434A00B2DE
:10A88000A1EB0901126860F31F4509B292F861302B
:10A8900061F30F059E469B0709D592F874304FF07F
:10A8A00064084B4393FBF8F3194461F30F055FEA27
:10A8B0004E7108D592F874104143642291FBF2F175
:10A8C000084460F31F452914494328B200FB0018CF
:10A8D000049801280BD10CF0FF02F1B23846FFF7C3
:10A8E000F0FE012817D02C480078012813D05046DC
:10A8F000804504D200990BFA0CF0084300900CF14B
:10A90000010C38786045ACDC04216846F7F73EFD61
:10A91000012807D009E001988045E9D21E4A82F853
:10A9200000B0E5E7009840000090761C3878B0420F
:10A9300088DC04216846F7F729FD01281ED0DDF8E0
:10A940000020584600FA04F1114203D03E78D84660
:10A95000761E0CE0641CF5E7009908FA06F0084240
:10A9600004D0F2B2E1B23846FFF7EAFE761EA64204
:10A97000F2DC641C3878A0423FF75EAF05B0BDE85A
:10A98000F08F7047C80A1000CA0A10002009100092
:10A99000CC0A100058521000BE0A100048091000DE
:10A9A00070472DE9F0410024012605465FF00607B7
:10A9B000686806FA04F1084215D004EBC40005EB00
:10A9C000C0010C3191F82000032806D0042804D0DF
:10A9D000052802D0022803D005E081F8207002E0AB
:10A9E0002846FFF7E4FD641C0A2CE1D3BDE8F081A2
:10A9F00010B5022200EB8203521E53F8364F12F0BC
:10AA0000FF025C60F6D1C0F83A1010BD5FF00002A2
:10AA100000EB8203521CD2B2C3F83A10032AF7D3D8
:10AA2000704730B504464270087D2071C868E06008
:10AA300088682061C888208188886081487DA070EE
:10AA40000D460869E061E88AE082288B2083A88BA4
:10AA5000A4F80500B5F81F006083A889A082012B27
:10AA600007D020462968FFF7C3FF606A401C606278
:10AA700030BD012084F8200020462968FFF7C6FF7A
:10AA8000002060622868C4F8360030BDB0F90010BC
:10AA9000B0F90200494300FB0010704710B553881D
:10AAA0004C881B1B438012880988511A018010BDF5
:10AAB0002DE9FF4F4FF004088946526808EBC004A7
:10AAC000411E4FF0060C1D460CEBC000DDE90D3AAF
:10AAD00014441044B4F90040B0F9007000E0491E7D
:10AAE00008EBC1001044B0F90000A04201D00029D9
:10AAF000F5DA08EBC1001044B0F90000A0427BD1A8
:10AB00000CEBC1001044B0F90060491E0CEBC10011
:10AB10001044B0F90000B04201D00029F5DA0CEB86
:10AB2000C1001044B0F90000B04278D108EBC10078
:10AB3000104407EB4702B0F900C004EBC40003EB7C
:10AB4000C0000CEBCC0103EBC10102EBC7030AEB25
:10AB50008302D0F84600D1F846105268009206EB06
:10AB6000460202EBC6030AEB83024FEA204B0FFAC0
:10AB700080FA08B25268019250440BEB2142431014
:10AB8000BDF90200BDF90610BDF90480084441106A
:10AB9000BDF90000A1EB620140445944C3EB6000E1
:10ABA000ADF80E105044ADF80C006A4603A902A897
:10ABB000FFF774FF02A8FFF769FF804601AA03A907
:10ABC00002A8FFF76BFF02A8FFF760FF804526D9B8
:10ABD000002000E0401C05EBC001B1F90410A142C7
:10ABE00001D04845F6D305EBC001B1F90420A242DB
:10ABF00015D1CE80002101E011E0491C05EBC10216
:10AC0000B2F90420624501D04945F6D305EBC101F4
:10AC1000B1F90420624504D005EBC000C780BDE84F
:10AC2000FF8FCF80FBE7F0B5002118E04A1C12E04F
:10AC3000436803EBC10603EBC204356823689D42F9
:10AC400008DD6768256075686560446804EBC104C9
:10AC500023606760521C03689342E9DC491C026868
:10AC60008A42E3DCF0BD70B5D0E90045062606EB6C
:10AC7000C40635442A800425426805EBC4052A44ED
:10AC80001180416801EBC401641C0B60046070BD5D
:10AC9000F0B5B1F90240B2F9025004FB05F6002EFE
:10ACA0002ADDB1F90060B2F900707E43002E23DD89
:10ACB00064435D4394FBF5F424B24480B2F9002070
:10ACC000B1F900105A43494391FBF2F10AB27823DB
:10ACD0000280782C00DD4380B0F902406FF07701EC
:10ACE0008C4200DA4180782A00DD0380B0F9002030
:10ACF0008A4200DA0180F0BD00214180FAE72DE9A7
:10AD0000FF4FADF5B06D81464FF6FF70CDF83C05B5
:10AD10000020CDF86C05CDF870050DF5AA60CDF8D2
:10AD20000C051030CDF878050F460020CDF8500501
:10AD3000E44902A8CDF85405002408780DF25C5BC4
:10AD40000DF5AD6AA046012803D1CDF86C050020B1
:10AD50000870DD480178012903D1CDF87015002174
:10AD6000017000260121D9F80400B14008427DD0CD
:10AD7000D64806EBC60109EBC1050168DDF86C2574
:10AD80000C35B1F89400012A03D1B1F89C2002B12E
:10AD90001046DDF87025012A03D1B1F8F12002B187
:10ADA00010464043009091F896C005F13A020DF527
:10ADB000A963111D06C30DF25C50FFF76FFE0DF283
:10ADC0005C50FFF763FE0CFB0CFC0CFB00FC0098D6
:10ADD000844502DDCDF840C501E0CDF84005BC4812
:10ADE0000178012905D16FF00041CDF8401500210F
:10ADF00001704FF0000C53E00CEB4C0000EBCC006A
:10AE000007EB8000001D00900DF5A96006C810300A
:10AE1000FFF744FE05F142010DF26450DDF84825CC
:10AE2000FFF73CFEDDF87805B0F902006430C82871
:10AE300006D8DDF87805B0F900006430C82801D9DB
:10AE4000012300E003230DF26452111F081FFFF7D6
:10AE50001FFFA98FBBF802000844AAF80200698FFF
:10AE6000BBF800000144AAF8001000E01BE00DF55B
:10AE7000AD610DF25C50009AFFF710FE0DF25C50D0
:10AE8000FFF704FE0346DDF84005834206DA0FFAB9
:10AE90008CF231B2DDF80C05FFF7E5FE0CF1010C88
:10AEA00038786045A8DC761C0A2EFFF65BAFDDF82B
:10AEB000500500287ED0DDF80C05FFF7B4FE002019
:10AEC0000DF2145E0DF5976B4FF0040A3BE000BFE6
:10AED000DDF854250AEBC0011144B1F90030062118
:10AEE00001EBC0011144B1F900C0DDF888150D680F
:10AEF000012101FA03F215421FD1DDF88C6501FA38
:10AF00000CF136680E4218D1DDF8886515433560BE
:10AF1000DDF88C552D680D43DDF88C150D600BEBBD
:10AF2000C401641C8B80A1F806C0DDF83C150A4200
:10AF300003D14EF8280008F10108DDF83C159143D3
:10AF4000401CCDF83C15DDF850158142C0DC75463B
:10AF5000B8F1000F39D0CDE90097A8F101080DF53F
:10AF6000976355F828002146DDF80C25FFF7A0FD72
:10AF7000EEE7641E0BEBC4000023B0F90410B0F937
:10AF8000060001EBC10200EB400109EBC20501EB39
:10AF9000C0000C3507EB8001091D95F901202846FA
:10AFA000FFF73FFD95F82000032808D0042809D0BA
:10AFB000072800E00BE005D0052806D102E085F85F
:10AFC00020A002E0052085F82000002CD1D10DF54D
:10AFD000B26DBDE8F08F2DE9FC41064640680F4692
:10AFE00050B100200190009001AB6A463046FFF757
:10AFF00086FE002501243EE0002415E004EBC40099
:10B0000006EBC0050C353046FFF7BDFA021E0ADB21
:10B0100002EB420000EBC20007EB8001091D012397
:10B020002846FFF7FEFC641C3878A042E6DCBDE849
:10B03000FC8100BF019904FA05F008421AD130469C
:10B04000FFF7A1FAB0F1000C14DB05EB450000EBB3
:10B05000C50007EB80010CEBCC0006EBC000091D1E
:10B060000C3001236246FFF7DCFC009904FA0CF077
:10B07000084300906D1C3878A842DBDC00250627C9
:10B08000716804FA05F0014218D00099084215D100
:10B0900005EBC50006EBC0010C3191F82000032838
:10B0A00006D0042804D0052802D0022803D005E0E9
:10B0B00081F8207002E03046FFF779FA6D1C0A2D06
:10B0C000DEDBB4E776091000460910002009100005
:10B0D0003C09100013490868134A106800280CD175
:10B0E0004FF4FA7300BF401C9842FBD3086010680D
:10B0F00020B1086820F004000860704730BF704736
:10B100000A4C4FF008552068401C2060D5F8840197
:10B1100020B10120F7F747FD30BFF4E7FFF7DAFF72
:10B12000F1E7000010ED00E0A00D01207009100013
:10B13000F9480021416081600160704770B54FF0AF
:10B140000854D4F88401002836D105210120F7F7EE
:10B150001AFBF1490020486088600860EF490860E8
:10B160004FF480710220F5F779F902210120F5F7FB
:10B1700075F902210320F5F771F908210020F5F790
:10B180006DF902210420F5F769F9E54D286890F87A
:10B190002901800702D50120FAF755FCFAF7FDFCDA
:10B1A000286890F88003000703D520210120F5F7D7
:10B1B00055F90120C4F8840170BD70B54FF00855F1
:10B1C000D5F88401002834D0D548006890F82901CA
:10B1D000800701D5FAF73AFCD04800240121046029
:10B1E0000846F5F73BF9CC48042144600220F5F706
:10B1F00035F910210420F5F731F980210320F5F706
:10B200002DF980210220F5F729F901210320F5F716
:10B2100025F904210020F5F721F901210420F5F793
:10B220001DF9C5F88441BDE8704005210020F7F7FD
:10B23000AABA70BD70B5B84C6168C80732D1B748BA
:10B24000B84B026842F0050202601D6845F0200517
:10B250001D60B34D2B6893F8B031DB0705D011F4B6
:10B26000017F02D142F042010160AF490120087024
:10B270008102F5F7F3F8606840F00100606029682A
:10B2800091F81811C90702D040F004006060042151
:10B290000220F5F7E3F880210320F5F7DFF8A34952
:10B2A0000120086070BD9C4910B54868C2070DD0E8
:10B2B00020F00100486004210220F5F7CFF880213A
:10B2C0000320F5F7CBF899490020086010BD10B5B0
:10B2D0004FF00854D4F88401002806D00821022039
:10B2E000F5F7BCF80120C4F8880110BD10B54FF087
:10B2F0000854D4F88401002806D010210220F5F764
:10B30000ADF80020C4F8880110BDF5F707BC704700
:10B310007047834810B5006890F8E801002812D003
:10B320007D49486882070ED520F00200486004215C
:10B330000220F5F793F880210320F5F78FF87B4979
:10B3400000200C31086010BD754810B5006890F8F9
:10B35000E80100281DD0704C2079800719D46F486F
:10B36000016841F0100101604FF480610120F5F7A0
:10B3700075F86068042140F0020060600220F5F773
:10B380006DF880210320F5F769F8684901200C3138
:10B39000086010BD624810B5006890F8C001C00791
:10B3A00011D05D49486842060DD5614B002220F05E
:10B3B00040001A70486004210220F5F74FF8802100
:10B3C0000320F5F74BF8594900201031086010BDF3
:10B3D000534810B5006890F8C001C00715D0544913
:10B3E000002008704C49486842060ED440F04000E6
:10B3F000486004210220F5F731F880210320F5F799
:10B400002DF84A4901201031086010BDF5F768BBDE
:10B41000424840F2B73201681143016042490120BD
:10B4200008708102F5F71AB84248016841F010012E
:10B4300001603D49012008703848016841F4D1712C
:10B4400001604FF480610120F5F708B870470821CA
:10B450000120F5F703B804210120F4F7FFBF4FF4F2
:10B4600080510120F4F7FABF10210120F4F7F6BF54
:10B4700020210120F4F7F2BF40210120F4F7EEBFB4
:10B480002748006890F8C800C00705D02A49012065
:10B490000870CC20FAF79ABC704727490020087042
:10B4A000CD20FAF793BC70470A46B0F5805F01469D
:10B4B00002DA1B48006801E04FF48010FAF77EBB07
:10B4C000F0B54FF40064B0F5805F02D2144B1D68F4
:10B4D00003E0A0F580504FF48015002303E0D65C14
:10B4E0001F185B1CEE558B4201DAA342F7DBF0BD5F
:10B4F00010B50B4C40F2FF112068F5F763F9226894
:10B500004FF40071C2F8FC071046F5F754FDBDE892
:10B5100010400320FAF75ABCE00A1000240910007A
:10B52000200910002C091000280910008C010022AD
:10B530003A091000300910004809100010B54FF406
:10B54000801440F2FF112046F5F73CF914490860D9
:10B55000C9122046F5F73FFDBDE810400420FAF778
:10B5600035BC00B587B0FF221821684600F046F9C7
:10B570006846F5F795FC6846FAF79EFB07B000BDF4
:10B580004FF480710120F4F769BF4FF4007101207E
:10B59000F4F764BF7047034901200870704700004A
:10B5A000FC0710004709100070B5044624480D46FA
:10B5B000202C02DD2021016000E0046020212148D0
:10B5C00000F024F900221F4802E0A95C8154521CBB
:10B5D000A242FADBBDE8704001210520F4F73EBF2E
:10B5E000032804DD0888897840BAFFF75DBF7047FB
:10B5F000032806DDC31E08888A1C40BA1946FFF7D7
:10B600005FBF70470F490E480B780068A3F19002A6
:10B610001F2A03D80C4850F822000047B02B07D04F
:10B62000B22B07D0FB2B07D0FC2B07D1FFF786BF2F
:10B63000491CDDE7491CD3E7FFF75ABF70470000FC
:10B64000EC0A1000EC57100090BB000008B5FFF7A3
:10B650006FFD1248F5F769FAFAF777FA052100202D
:10B66000F7F791F803216B4600220520F4F746FF17
:10B670000098C00707D001210520F4F71EFFFFF74F
:10B68000C1FFF5F77EFA00988007EBD5022105206F
:10B69000F4F713FFFFF77EFFE4E7000089B5000031
:10B6A000B2F120030AD5C2F1200301FA02F120FA17
:10B6B00003F300FA02F041EA0301704700FA03F1D4
:10B6C0004FF00000704710B54C1084EA530404D5C5
:10B6D0004042C1F1000138BF491E1B4204D552420D
:10B6E000C3F1000338BF5B1E00F0DCF814F0804F9C
:10B6F00004D04042C1F1000138BF491E14F0004F90
:10B7000004D05242C3F1000338BF5B1E10BD032AB0
:10B7100040F2308010F0030C00F0158011F8013B6E
:10B72000BCF1020F624498BF11F801CB00F8013B55
:10B7300038BF11F8013BA2F1040298BF00F801CB19
:10B7400038BF00F8013B11F0030300F02580083AF0
:10B75000C0F0088051F8043B083A51F804CBA0E847
:10B760000810F5E7121D5CBF51F8043B40F8043B9C
:10B77000AFF30080D20724BF11F8013B11F801CBD1
:10B7800048BF11F8012B24BF00F8013B00F801CBA2
:10B7900048BF00F8012B704710B5203AC0F00B806D
:10B7A000B1E81850203AA0E81850B1E81850A0E8C5
:10B7B0001850BFF4F5AF5FEA027C24BFB1E818501F
:10B7C000A0E8185044BF18C918C0BDE810405FEA8F
:10B7D000827C24BF51F8043B40F8043B08BF70470B
:10B7E000D20728BF31F8023B48BF11F8012B28BF10
:10B7F00020F8023B48BF00F8012B704702F0FF031E
:10B8000043EA032242EA024200F002B84FF000028B
:10B810000429C0F0128010F0030C00F01B80CCF162
:10B82000040CBCF1020F18BF00F8012BA8BF20F8D0
:10B83000022BA1EB0C0100F00DB85FEAC17C24BF24
:10B8400000F8012B00F8012B48BF00F8012B7047CE
:10B850004FF0000200B5134694469646203922BFA9
:10B86000A0E80C50A0E80C50B1F12001BFF4F7AFF4
:10B87000090728BFA0E80C5048BF0CC05DF804EBD6
:10B88000890028BF40F8042B08BF704748BF20F844
:10B89000022B11F0804F18BF00F8012B7047704742
:10B8A0007047704753EA020C00F069802DE9F04BB5
:10B8B0004FF00006002B1FBFB3FA83F503FA05F41F
:10B8C00024FA05F65E4012BF1643B2FA82F502FA78
:10B8D00005F4C5F120051EBF22FA05FC44EA0C045C
:10B8E000203556EA044C4FEA144418BF641C4FF04C
:10B8F00000084FF00009904271EB030C39D3002986
:10B9000019BFB1FA81F701FA07F6B0FA80F700FA29
:10B9100007F6C7F120071EBF20FA07FC46EA0C060F
:10B920002037B6FBF4FCA7EB0507103F07F01F0B11
:10B93000CBF120060CFA0BFB2CFA06F644BFB346FB
:10B940000026202FA4BF5E464FF0000B5BEA060CDA
:10B9500008BF4FF0010B19EB0B09ABFB027C48EB66
:10B960000608C01B06FB02CC0BFB03CC71EB0C01E1
:10B97000C1E70B46024641464846BDE8F08B13B589
:10B980004FF000004FF00001AFF30080BDE81C4015
:10B9900070470446AFF300802046F4F7FBFB704786
:10B9A00001491820ABBEFEE7260002009B150000EF
:10B9B0009F150000CD150000B5150000EF15000023
:10B9C0001316000033160000511600000600000098
:10B9D00038BC000001000000744F1000800000001F
:10B9E000E1B00000000000000200000005000000BF
:10B9F00028BC000002000000744E1000000100008E
:10BA00002DB600000000000002000000040000004D
:10BA100010BC000003000000A44B1000D002000086
:10BA20001B500000000000000200000003000000A6
:10BA3000BFBC000004000000A44310000008000088
:10BA4000159A000000000000020000000200000043
:10BA500059BC000005000000643D100040060000D5
:10BA6000C7590000000000000200000001000000B3
:10BA7000AFBC0000060000006439100000040000A4
:10BA8000F94C00000000000002000000000000006F
:10BA9000CEBC000007000000643810000001000068
:10BAA0000960000000000000020000000600000025
:10BAB00090BC000001000000050000007DBC0000FB
:10BAC000010000000400000070BC00000100000044
:10BAD0000300000041BC0000010000000200000063
:10BAE00062BC000001000000010000009EBC0000DC
:10BAF000010000000000000030BC00000100000058
:10BB00000500000020BC000004000000A8BC0000EC
:10BB100003000000B8BC00000200000050BC0000A0
:10BB20000100000017BC000000000000C6BC0000BF
:10BB300000010102010202030102020302030304E5
:10BB40005AD3D9E96CF145F59FF73CF96CFA58FBEB
:10BB500018FCB9FC44FDBFFD2EFE94FEF4FE50FF20
:10BB6000A9FF00005700B0000C016C01D201410296
:10BB7000BC024703E803A8049405C4066108BB0A95
:10BB8000940E2716A62C01000200010002000400FA
:10BB900002000100020001001000FFFFFFFFFFFF95
:10BBA000FFFF1400FFFFFFFFFFFFFFFF0C0000007F
:10BBB0009BB100001DB1000087B2000015B200006B
:10BBC000EFB20000F1B200003FB4000077B5000012
:10BBD000AFB20000CDB20000F3B2000029B3000004
:10BBE00087B4000087B4000075B30000B1B3000053
:10BBF000EBB20000EDB30000F1B300002FB4000081
:10BC000037B4000049B4000051B4000059B400003A
:10BC100061B4000009B4000043B500007BB400002B
:10BC200087B4000087B4000061B500006BB5000068
:10BC300054736B5F535300456C665F5373766300B8
:10BC4000456C665F436D640054736B5F436D6400C5
:10BC500053656D5F4166650054736B5F49646C6545
:10BC60000053656D5F43616C69624672616D65008A
:10BC7000456C665F5363616E0054736B5F53636121
:10BC80006E0053656D5F4576656E744669666F003C
:10BC900053656D5F53534275666665720053656DFB
:10BCA0005F527074546F75636842756666657200A2
:10BCB00053656D5F526177427566666572005365C4
:10BCC0006D5F566970657200456C665F5373005412
:10BCD000736B5F5353797300456C665F4D7400540A
:10BCE000736B5F4D7400456C665F527074005473E3
:10BCF0006B5F527074000000F8BC00000009100077
:10BD0000F00100000001000008BD0000F00A100072
:10BD10001C4D00003C01000001220215F802FF0149
:10BD20000148027401000000000000000000000053
:10BD30000000000000000000000000000000000003
:10BD400000000000000000000000000000000000F3
:10BD500000000000000000000000000000000000E3
:10BD600000000000000000000000000000000000D3
:10F810000000000000000000000000008F389A6621
:10F82000A50A2800FFFFFFFFFF1F0000FFFFFF0FDB
:10F83000000000002D1CFF041F030000000000005A
:10F840000B0200A50500F800C80000000000000041
:10F8500000000000000D0A01000A0A00000000007C
:10F860005F004064050040002000F00084B61000F6
:10F870005000100050000000000020005A710000ED
:10F8800012050001300024401000BC02900100026B
:10F89000502028474001000000020E160A500202C4
:10F8A0001D00310F01F105220505C40810004000BC
:10F8B0000000FFFF400004050505000000010000F6
:10F8C00001900030000604058200D200C4A00000B0
:10F8D00013FF000A2000F0000000101000000000DC
:10F8E0006202D800100040000120204710000000F4
:10F8F00001030F00180012001A001C003100320032
:10F90000330034001800FF01000000000000000078
:10F9100022000500000000000000050010000201A8
:10F92000006400000000000000000011182C94008A
:10F93000003218020F051000070A0A180021000003
:10F9400001A2330A5A84101000000000008000AAAF
:10F95000BD00800C8C0A800C800C800C800C000098
:10F9600000F000F000800C800C00000000800C0013
:10F970000010B400B4000000000000008810C800AF
:10F9800055006400F000803EA06002F000006002BC
:10F9900004000202B4002000000100000303030081
:10F9A00000000000000000000000000204204000F1
:10F9B0000000C80100000000B400B400B400B400AE
:10F9C000000000000002028800000000500000005B
:10F9D000026400640064000000B400022001000022
:10F9E00000000010000000000A00000000000002FB
:10F9F00022B4800004000000220000000020322019
:10FA0000FFFFFFFF000200220F1C2D2E2F300000F1
:10FA100001000100010001000008000000000000DA
:10FA2000033300283800A20000000000000000009E
:10FA300000000000000000000000000000000000C6
:10FA400056000001000110102000100002023232A6
:10FA50000A0A03020200F0000100880020000001F1
:10FA6000E8080000005A1000000101050000000035
:10FA70000000000000000020648000000000000082
:10FA800040000F1000000000000000000000000017
:10FA90006464646464646464646464646464646426
:10FAA0006464646464646464646464646464646416
:10FAB0006464646464646400000402020000000082
:10FAC00064646464646464646464646464646464F6
:10FAD00064646464646464646464646464646464E6
:10FAE00064646464646464646464646464646464D6
:10FAF00064646464646464646464646464000000F2
:10FB000000000000000000000000000000000000F5
:10FB10000000000000008000204020401050000045
:10FB2000000000220F000F2D2E2F300000000000DB
:10FB300000000000000000000008000000000000BD
:10FB400000000000000000000000000000000000B5
:10FB5000285003000000000000000000000000002A
:10FB6000FF0F5000FF0F0002000000000000000027
:10FB70000000000000000000000000000000000085
:10FB8000FFB2B240202828FAA2A240203C003C004C
:10FB90003C003C000707070707B2B24020280700D7
:10FBA000C000000000000000000000000000000095
:10FBB0000000000000000000000000000000000045
:10FBC0000000000000000000000000000000000035
:10FBD0000000000000000000000000000000000025
:10FBE0000C2801000000000000000092000000004E
:10FBF0000000000000000000000000000000000005
:10FC000000000000000000000000000000000000F4
:10FC100000000000000000000000000000000000E4
:10FC200000000000000000000000000000000000D4
:10FC300000000000000000000000000000000000C4
:10FC400000000000000000000000008000800004B0
:10FC5000000000000000010203000000000000009E
:10FC60000117A001080000000001D007AC0D000042
:10FC70000000000000000000000000000000000084
:10FC80000000000000000000000000000000000074
:10FC9000000000000000000A001E0019042D0437B7
:10FCA00004040005001E001904320433040000148B
:10FCB000006400BB020B031F03050007006400BBC8
:10FCC0000218031A030000000000000000000000FA
:10FCD0000000000000000000000000000000000024
:10FCE0000000000000000000000000000000000014
:10FCF0000000000000000000000000000000000004
:10FD000000000000000000000000000000000000F3
:10FF90000000000000000000000000000140000020
:10FFA00000000000000000000153530900000000A1
:10FFB000000000000000000000723C001A00380041
:10FFC000000100010000010001000032A200A303B3
:10FFD000A30300000300003328000000000000001D
:10FFE00000000000000000000010280000000000D9
:10FFF0000000000000000000000000000000000001
:020000021000EC
:1000000015020000000000000000000000000000D9
:10001000C000000000000000000000004079F6CBA6
:00000001FF
