:1000000000200020950C0308DDA80208F1A80208D2
:1000100005A9020819A902082DA90208000000007C
:1000200000000000000000000000000041A90208DC
:1000300055A90208000000000948000873A2000842
:10004000610F0308650F0308690F0308FBAE020880
:10005000710F030857B00208ADAB02083DAD0208AE
:10006000C9AD0208850F0308890F03088D0F030827
:10007000910F0308950F0308990F03089D0F0308BC
:10008000A10F0308A50F0308A90F0308AD0F03086C
:10009000B10F0308B50F0308B90F0308BD0F03081C
:1000A000C10F0308C50F0308C90F0308CD0F0308CC
:1000B000D10F0308D50F0308D90F0308DD0F03087C
:1000C000E10F0308E50F0308E90F03086DA9020813
:1000D000F10F0308F50F0308F90F0308FD0F0308DC
:1000E00067AE0208BBAF0208091003080D10030831
:1000F0001110030815100308191003081D10030838
:100100002110030825100308291003082D100308E7
:100110003110030835100308391003083D10030897
:100120004110030845100308491003084D10030847
:100130005110030855100308591003085D100308F7
:100140006110030865100308691003086D100308A7
:100150007110030875100308791003087D10030857
:100160008110030885100308891003088D10030807
:100170009110030895100308991003089D100308B7
:10018000A1100308A510030838B5DFF8CC4C0020F7
:10019000E06120626062A062E062A081DFF8BC0CD6
:1001A000E063DFF8BC0C206460643220E0824FF42E
:1001B00096702083DFF8AC5C4FF42072002105F1CB
:1001C000400002F04BF84FF42072002105F530702A
:1001D00002F044F89022002105F5B86002F03EF8E4
:1001E00040220021284602F039F840220021DFF8A1
:1001F0003C0D02F033F840220021DFF8340D02F00C
:100200002DF840220021DFF82C0D02F027F84022C3
:10021000002105F5A86002F021F84022002105F533
:10022000B06002F01BF840220021DFF80C0D02F054
:1002300015F840220021DFF8040D02F00FF8052226
:100240000021204602F00AF805220021DFF8F00C18
:1002500002F004F805220021DFF8D40D01F0FEFFC2
:100260000020A0822063A0632061A0606063E0643E
:100270000220A07331BD80B50FF2100002F092F899
:10028000DFF8D40B0021017301BD00004C54205352
:10029000746F70007047DFF8C01B4FF47A725043E0
:1002A000C86301460FF2040002F07CB84C5420539E
:1002B0005044202564000000DFF89C2B4FF47A7135
:1002C00048431064014651640FF2040002F06AB81A
:1002D0004C5420575044202564000000DFF8781B60
:1002E000C88201460FF2040002F05CB84C5420535F
:1002F0005220256400000000DFF85C1B08830146E3
:100300000FF2040002F04EB84C5420534152202505
:10031000640000000EB410B587B0DFF8184DBDF8CA
:100320006E0000281ED1DFF8100DD0E90023CDE9C2
:100330000223D4E90001CDE90001DDE9022300F048
:1003400088FFDFF8141BC96B4FF47A724243914265
:1003500006D201460FF2280002F024F801200AE03C
:10036000002008E004A802F0BAFA204604A90522F9
:1003700002F05EFB002007B010BC5DF810FB00002F
:100380004C542053544F5020436865636B696E672B
:1003900020256400DFF8C00A01210162C16100214B
:1003A0008162C1627047DFF8B00A01214162C16118
:1003B0007047DFF8A40AC0697047DFF89C0A002183
:1003C000C1610FF2080001F0EDBF00004C54205253
:1003D000455345545F434D4452440000DFF8780ACA
:1003E000002101620FF2040001F0DCBF4C542052E6
:1003F000455345545F504F5352455100DFF8580A5A
:10040000002141620FF2040001F0CCBF4C54205295
:10041000455345545F504F4941434B00DFF8380A7C
:10042000012181620021C16201727047DFF8280A50
:100430000121C16270472DE9FC4106460F469046F6
:10044000DFF8E84ADFF81C5A20462946402202F02D
:10045000FFFA85ED000B85ED021B85ED042B85F879
:10046000296085F82A7085F82B80D4E904230020C0
:10047000014602F029FB0ED1D4E9002302F024FB4F
:1004800009D1D4E9022302F01FFB04D120462946FA
:10049000402202F0DDFA95ED020B8DED000BD5E95F
:1004A00000230FF20C0001F07DFFBDE8F381000096
:1004B0004C54205550504F5320256620256600008F
:1004C00030B583B0DFF89049A06A012815D1DFF874
:1004D000605A2846DFF88C19402202F0B9FA95EDEF
:1004E000020B8DED000BD5E900230FF2140001F093
:1004F00059FF0020A06201203EBD00203EBD00004B
:100500004C54203173742025662C20256600000091
:1005100030B583B0DFF84049A06A012815D1DFF873
:10052000145A2846DFF83C19402202F091FA95ED62
:10053000020B8DED000BD5E900230FF2140001F042
:1005400031FF0020A06201203EBD0020A0623EBD20
:100550004C5420326E642025662C20256600000055
:100560000020DFF8F418CA6A012A01D1C86201200C
:1005700070470FB400B59DB0DDE92E2302F0B4FA48
:10058000CDE90C01DDE92001DDE9302302F0ACFA10
:10059000CDE90E010CA984B06846402202F058FA59
:1005A0000FBC00F05DFD53EC102B0020DFF81C1E8B
:1005B00002F05AFB41EC100B1DB05DF814FB00007B
:1005C0000FB470B52DED048B9CB0DFF88C58687AB1
:1005D000002801D1002043E00A2801DB0A2600E0C0
:1005E000AE7A9FED998B002422E0DFF8781801EBBA
:1005F000801000F530710CA8402202F029FA24A9DD
:1006000084B06846402202F023FA0FBCFFF7B1FF26
:10061000B0EE409AF0EE609A51EC190B53EC182BA7
:1006200002F000FC03D2B0EE498AF0EE698A641C45
:10063000E4B22046B042D8DB288B02F019FC024617
:100640000B4651EC180B02F0EDFB01D2002007E045
:1006500053EC182B0FF2140001F0A4FE0120E86403
:100660001CB0BDEC048B70BC5DF814FB4C542053E3
:1006700041204F55542025660000000030B585B05C
:10068000DFF8E04794F969058DF8000004F269503D
:1006900090F901108DF8011090F902008DF8020018
:1006A000B4F86C05ADF80300DFF88C59D5E900010A
:1006B000CDE90201DDE90223DDE9000100F0C9FD19
:1006C000C4F87805DFF89007D5E90023C0E90023D6
:1006D00005B030BD0FB42DE9F0412DED088B84B08D
:1006E000DFF87447DFF87C57A07A05EB80109DEDAA
:1006F000120B80EDA00B00F520709DED140B80ED2A
:10070000020B9DED160B80ED040B2099816394F88C
:100710000980B8F10A0F01DB4FF00A089FEDBF8B8B
:10072000B0EE489AF0EE689AB0EE48AAF0EE68AAE9
:1007300000261DE005EB861753EC182BD7E9B00116
:1007400002F0A4FB41EC180B07F5307753EC192BA2
:10075000D7E9020102F09AFB41EC190B51EC1A0B9C
:10076000D7E9042302F092FB41EC1A0B761CF6B297
:100770004645DFDB404602F07BFB41EC1B0B51ECB6
:10078000180B53EC1B2B02F0F5FB05F5A862C2E930
:10079000000105F2405651EC190B53EC1B2B02F0F3
:1007A000E9FBC6E9020151EC1A0B53EC1B2B02F0DA
:1007B000E1FBC6E9040195F969058DF8000005F231
:1007C000695797F901008DF8010097F902008DF83B
:1007D0000200B5F86C05ADF80300DFF85C88D8E9D5
:1007E0000001CDE90201DDE90223DDE9000100F0AD
:1007F00030FD0246C5F87825D8E90001C4E90001BA
:100800000192B87800907B7895F86925617A0FF2AB
:10081000142001F0C7FD96ED020B8DED000B05F5E0
:10082000A860D0E900230FF2606001F0BBFD032057
:10083000A0730FF2044001F0B5FD04B0BDEC088BCD
:10084000BDE8F0015DF814FB00000000006AF8400C
:100850000FB42DE9F0472DED088B86B0DFF8D047B7
:10086000DFF8D4A7DAE90001CDE90401D4E90001F9
:10087000CDE90201DDE9042300F0EBFCDFF8D855F7
:10088000A97ADFF8E06506EB81129DED160B82ED8B
:10089000B00B02F530739DED188B83ED028B9DED4F
:1008A0001A9B83ED049B237882F8E93202F2E92354
:1008B00067785F70A7789F7000B2C2F8F802481C92
:1008C000A872C0B20A2801D10020A872687A00F18B
:1008D000010885F809805FFA88F8A8F1010002F0A4
:1008E000BDFA41EC1A0B06F2405953EC1A2BD9E928
:1008F000020102F0B9F953EC182B02F0C7FA41ECEF
:10090000180B53EC1A2BD9E9040102F0ADF953ECA2
:10091000192B02F0BBFA41EC190B404602F0A8FA81
:1009200041EC1B0B53EC1A2B06F5A86041680068DC
:1009300002F09AF9DDE9162302F0A8FA53EC1B2B1A
:1009400002F018FB06F5A862C2E9000151EC180B91
:1009500053EC1B2B02F00EFBC9E9020151EC190B01
:1009600053EC1B2B02F006FBC9E9040106F26957A0
:10097000B8F1010F0AD1207886F86905607878709F
:10098000A078B870B4F80300A6F86C0596F969056C
:100990008DF8000097F901008DF8010097F9020029
:1009A0008DF80200B6F86C05ADF80300DAE9000135
:1009B000CDE90201DDE90223DDE9000100F049FC97
:1009C0000246C6F87825DAE90001C5E9000101927E
:1009D000B87800907B7896F86925697A0FF2440020
:1009E00001F0E0FC99ED020B8DED000B06F5A8601F
:1009F000D0E900230FF2904001F0D4FC687A01287E
:100A000005D10120A8730FF28C4001F0CBFC06B099
:100A1000BDEC088BBDE8F0075DF814FB000000009A
:100A2000000000004C542025642053502025643AD7
:100A300025643A25642C2025640000000FB42DE9BC
:100A4000F0472DED0A8B86B0DFF8ECA5DAE900015E
:100A5000CDE90401DFF8E804D0E90023CDE9022361
:100A6000DDE90423DDE9020100F0F3FB8046DFF855
:100A7000E843A07A461E36B2002E01D50A3636B2B9
:100A8000607A02F0F5F941EC180BF64D05EB86168D
:100A900053EC182B05F5A8604168006802F0E4F8F3
:100AA000D6E9B02302F020F841EC190B06F53077B7
:100AB00005F2405953EC182BD9E9020102F0D4F8A1
:100AC000D7E9022302F010F841EC1A0B53EC182B73
:100AD000D9E9040102F0C8F8D7E9042302F004F8C8
:100AE00041EC1B0B9FEDE0CBD6E9B023DDE918010B
:100AF00002F0CCF953EC1C2B02F0B6F8C6E9B001B9
:100B0000D7E90223DDE91A0102F0C0F953EC1C2BEE
:100B100002F0AAF8C7E90201D7E90423DDE91C01C4
:100B200002F0B4F953EC1C2B02F09EF8C7E9040163
:100B3000C7F8388053EC1A2BD7E9020102F0A6F966
:100B400041EC1A0B51EC1B0BD7E9042302F09EF980
:100B500041EC1B0B51EC190BD6E9B02302F096F9CE
:100B600053EC182B02F006FA05F5A862C2E9000161
:100B700051EC1A0B53EC182B02F0FCF9C9E90201F5
:100B800051EC1B0B53EC182B02F0F4F9C9E90401EA
:100B900095F969058DF8000005F2695696F901008E
:100BA0008DF8010096F902008DF80200B5F86C0589
:100BB000ADF80300DAE90001CDE90201DDE9022325
:100BC000DDE9000100F045FB0246C5F87825DAE9C9
:100BD0000001C4E900010192B0780090737895F8A3
:100BE0006925617A0FF2380001F0DCFB99ED020B08
:100BF0008DED000B05F5A860D0E900230FF28820E9
:100C000001F0D0FB0320A0730FF22C0001F0CAFB0F
:100C100006B0BDEC0A8BBDE8F0075DF814FB0000E0
:100C20004C5420256420552D53502025643A2564CA
:100C30003A25642C202564004C5420415245412023
:100C400053544159000000000FB42DE9F0472DED39
:100C50000A8B86B09FED848BDDE91823DDE928013E
:100C600002F014F953EC182B01F0FEFF41EC190BC4
:100C7000DDE91A23DDE92A0102F008F953EC182B0B
:100C800001F0F2FF41EC1A0BDDE91C23DDE92C0138
:100C900002F0FCF853EC182B01F0E6FF41EC180BC6
:100CA000A74CDFF894A3DAE90001CDE90401D4E907
:100CB0000001CDE90201DDE9042300F0CAFA664D26
:100CC000A97ADFF8AC6C06EB811282EDB09B02F5DD
:100CD000307383ED02AB83ED048B237882F8E93225
:100CE00002F2E92367785F70A7789F70B4F8033049
:100CF000A2F8EC32C2F8F802481CA872C0B20A2866
:100D000001D10020A872687A00F1010885F80980F5
:100D10005FFA88F8A8F1010002F0A0F841EC1B0B83
:100D200006F2405953EC1B2BD9E9020101F09CFF5C
:100D300053EC1A2B02F0AAF841EC1A0B53EC1B2BC4
:100D4000D9E9040101F090FF53EC182B02F09EF852
:100D500041EC180B404602F08BF841EC1C0B53ECB5
:100D60001B2B06F5A8604168006801F07DFF53EC7D
:100D7000192B02F08BF853EC1C2B02F0FBF806F554
:100D8000A862C2E9000151EC1A0B53EC1C2B02F0D3
:100D9000F1F8C9E9020151EC180B53EC1C2B02F0DD
:100DA000E9F8C9E9040106F26957B8F1010F0AD15F
:100DB000207886F8690560787870A078B870B4F803
:100DC0000300A6F86C0596F969058DF8000097F9FF
:100DD00001008DF8010097F902008DF80200B6F8C5
:100DE0006C05ADF80300DAE90001CDE90201DDE9A7
:100DF0000223DDE9000100F02CFA0246C6F878254E
:100E0000DAE90001C5E900010192B87800907B7829
:100E100096F86925697A0FF2580001F0C3FA99ED46
:100E2000020B8DED000B06F5A860D0E900230FF250
:100E3000580001F0B7FA687A012805D10120A8739B
:100E40000FF2500001F0AEFA06B0BDEC0A8BBDE81F
:100E5000F0075DF814FB000010260120E093040069
:100E600060E3160028C50020000000000000E03FFD
:100E70004C5420256420532D53502025643A25647A
:100E80003A25642C202564004C54202566202566D4
:100E9000000000004C54204152454120494E0000C2
:100EA0000FB410B584B0DFF8CC0A016B01EBC102BE
:100EB000DFF8BC3A03EBC20202F5B8639DED060B06
:100EC00083ED000B9DED080B83ED020B08AC94ED58
:100ED000021B83ED041B9DF8413082F8E93502F2D4
:100EE000E9530DF1410464785C700DF14104A4787C
:100EF0009C70BDF84430A2F8EC3502F2EC5211AB14
:100F0000DB685361C48A1483048B5483002901D1A4
:100F10000121016302938DED000BDDE906230FF241
:100F2000240001F03FFA1FBC5DF814FB6827012084
:100F3000A8270120E827012028280120682801206F
:100F4000182E01204C54205553412025662025663B
:100F5000202564000FB4F0B585B0DFF8184A4825A5
:100F6000DFF80C6A206B05FB006000F5B8619DEDB1
:100F70000A0B81ED000B9DED0C0B81ED020B0CAA11
:100F800092ED020B81ED040B9DF8511080F8E915EC
:100F900000F2E9520DF151035B7853700DF15107E6
:100FA000BF789770BDF95420A0F8EC258DF8041097
:100FB0008DF805308DF80670ADF8072094F9000023
:100FC0008DF80C0060788DF80D00A0788DF80E007B
:100FD000B4F80300ADF80F00DDE90323DDE90101FA
:100FE00000F037F9074600979DF906309DF9052076
:100FF0009DF904100FF2440001F0D4F9206B05FBB9
:101000000061C1F8007601F20061E28A8A80228BD9
:10101000CA80022801D2401C20630220A0730FF274
:10102000340001F0BFF905B0F0BC5DF814FB00001E
:10103000202E0120282E0120102E01204C54205358
:101040005341312025643A25643A25642C202564D7
:10105000000000004C542041524541204F5554009F
:101060000FB438B52DED048B8CB006AA08A90AA8D8
:101070009DED140B00F06EF8DDE90A230020DFF887
:10108000F81801F0F1FD04460D46DDE90823DFF80C
:10109000EC08DFF8EC1801F0E7FD22462B4601F0E2
:1010A000F5FE04460D46DDE90623DFF8D808DFF833
:1010B000D81801F0D9FD22462B4601F0E7FE41EC9D
:1010C000180B00AA02A904A89DED160B00F042F827
:1010D000DDE904234FF03330DFF8B01801F0C4FD30
:1010E00004460D46DDE90223DFF8A408DFF8A41862
:1010F00001F0BAFD22462B4601F0C8FE04460D461B
:10110000DDE90023DFF87408DFF88C1801F0ACFD8E
:1011100022462B4601F0BAFE41EC190B53EC182B7A
:1011200051EC180B01F0A0FD04460D4653EC192BB1
:1011300051EC190B01F098FD22462B4601F0A6FE5A
:1011400041EC100B02F03AF80CB0BDEC048B31BC52
:101150005DF814FB70B52DED048BB0EE408AF0EE17
:10116000608A04460D46164651EC180B53EC182BBA
:1011700001F0BAFC41EC190B53EC192B0020DFF8FD
:101180001C1801F071FD41EC100B84ED008B85ED16
:10119000000B0022DFF8043801F0ECFE02460B469B
:1011A00051EC190B01F0A0FC0022DFF8F43701F03C
:1011B0005BFDC6E90001BDEC048B70BDDFF8B40730
:1011C000006A7047DFF8AC07406A704780B540227C
:1011D0000021DFF8D00701F041F840220021DFF8BC
:1011E000C80701F03BF8DFF8D40D0021417281728D
:1011F000016181820FF20C00BDE8024001F0D2B81B
:10120000000000004C542052455345545F41535058
:1012100000000000DFF8A40D006B704780B5DFF818
:10122000501701F5B06001F5A861402201F010FCF3
:10123000DFF8880D0021016301BDC9B201EBC102D5
:10124000DFF82C1701EBC20101F5B861482201F06B
:10125000FFBB3FB581B04FF47A704EF66022DFF8E5
:10126000603D9DF904109DF90540544303FB014185
:101270009DF9064014FB0011BDF9074001FA84F105
:101280009DF90C409DF90D506A4303FB04229DF922
:101290000E3013FB0020BDF90F2000FA82F0441A33
:1012A00042F20F721319934205D200240FF23C0050
:1012B00001F078F807E0DFF80C2D944203DADFF84C
:1012C000082D1018441ADFF8040D844200DB044690
:1012D000204601F0C3FDDFF8F82CDFF8F83C01F000
:1012E000C3FC05B0BDE8304001F0E8BF41542D4CCF
:1012F0005420646966662054696D65205265736583
:10130000740000002DE9F64383B08146BDF90F401B
:101310004EF66025DFF8A86C9DF90C009DF90D10C4
:10132000694306FB00109DF90E104FF47A7211FB11
:10133000020000FA84F10C98412808D15F18DFF808
:10134000980C87420BD3DFF8940CC71907E0994239
:1013500004D2DFF8740C4018C71A00E0CF1A3846E0
:1013600001F086FD0022DFF8783C01F003FE01F079
:10137000A5FF80465FFA88F806FB1876304601F034
:1013800077FD0022DFF85C3C01F0F4FD01F096FFF0
:10139000C0B28DF8008001468DF8011005FB106089
:1013A00001F066FDDFF8282CDFF8283C01F05CFC3A
:1013B00001F084FF8DF80200ADF80340484600A913
:1013C000052201F035FB05B0BDE8F08300408F40F9
:1013D00010B50024DFF89C05C16C012907D1012458
:1013E0000021C1640FF2540000F0DCFF23E0DFF8BD
:1013F0008005D0F87815D0F8B825914216D190F82C
:10140000691590F8A925914210D100F2A95100F276
:10141000695042784B789A4208D18078897888421E
:1014200004D10FF6EC3000F0BDFF04E001240FF60C
:10143000E83000F0B7FF204610BD00004C542046B5
:101440005500000000B58DB0DFF82805407A00286F
:101450000AD0DFF8941B84B06846402201F0F8FA05
:101460000FBCFFF71DFD06E00FF6B4300DB05DF8C0
:1014700004EB00F097BF0DB000BD00001CB5DFF815
:10148000F444217B61732073401E05284DD8DFE8AA
:1014900000F0034C16222C4100A801F020FADFF8DE
:1014A0004C0B00A9052201F0C3FA616C21640020F5
:1014B000E0720FF67830BDE81C4000F073BF00A862
:1014C00001F00DFADFF8240B00A9052201F0B0FAB3
:1014D000A06BA06413BD00A801F001FADFF80C0BAB
:1014E00000A9052201F0A4FA13BD00202061A0820A
:1014F00040220146DFF8B00400F0B0FE00A801F081
:10150000EEF9DFF8E80A00A9052201F091FAA06BD4
:10151000A06413BD00A801F0E2F9DFF8D00A00A929
:10152000052201F085FAA06BA06413BD0CB400B5D0
:1015300083B09DF939108DF800100DF1390191F942
:1015400001108DF801100DF1390191F902108DF89B
:1015500002100021ADF8031000A9052201F068FA7D
:101560000EBC5DF80CFB00002DE9F84F2DED0A8B49
:101570009CB082469FED558BDFF8F883B8F81000D9
:10158000B8F81290814502D25FFA89F901E0C0B241
:101590008146B8F91400461E00D50A36DFF8D0B3EC
:1015A0000BEB861797ED109B97ED12AB97ED14BBE5
:1015B00001243CE0301A00D50A300BEB801505F110
:1015C00040010CA8402201F043FA07F1400184B029
:1015D0006846402201F03CFA0FBCFEF7CAFFB0EEAD
:1015E00040CAF0EE60CA51EC180B53EC1C2B01F012
:1015F00019FC03D2B0EE4C8AF0EE6C8A53EC1B2B34
:10160000D5E9140101F042FC41EC1B0B53EC192B02
:10161000D5E9100101F03AFC41EC190B51EC1A0B21
:10162000D5E9122301F032FC41EC1A0B641CE4B240
:1016300020464845BEDB484601F01AFC41EC1C0B35
:1016400051EC1B0B53EC1C2B01F094FCCAE9040178
:1016500051EC190B53EC1C2B01F08CFCCAE9000176
:1016600051EC1A0B53EC1C2B01F084FCCAE902016B
:10167000B8F81000B8F8121088421ED207F14001E5
:101680000CA8402201F0E4F9DFF8641984B0684640
:10169000402201F0DDF90FBCFEF76BFFB0EE40CA4F
:1016A000F0EE60CA51EC180B53EC1C2B01F0BAFBA6
:1016B00003D2B0EE4C8AF0EE6C8AB0EE480AF0EE3F
:1016C000680A1CB0BDEC0A8BBDE8F18F0000000079
:1016D000000000000FB42DE9F0412DED068BA0B005
:1016E0002CA984B06846402201F0B2F90FBCFEF785
:1016F00067FFA04D68639E4E012812D100206863E9
:1017000006F5A86184B06846402201F0A1F90FBC3B
:10171000FFF720FCFFF75AFD0FF6201000F042FE05
:1017200019E1B5F9144006EB841040302CA9402291
:1017300001F08EF9601CA88200B20A2801D10020B5
:10174000A882288A0A2801DA401C2882688A401C5C
:101750006882314682B06846402201F079F90CBCBB
:101760000EA8FFF7E3FE288A0A2801DA002700E026
:101770002F7D8D4CD4E900010022134601F0A4F91D
:101780002FD1D4E9020101F09FF92AD1D4E9040153
:1017900001F09AF925D106EB8716DFF8588896F9FB
:1017A000690088F8000006F2690090F9011088F8D5
:1017B000011090F9020088F80200B6F86C00A8F851
:1017C0000300DFF82C0806F14001402201F040F947
:1017D000204606F14001402201F03AF90020A063C2
:1017E000B9E010A8FFF7C0FEB0EE408AF0EE608AC4
:1017F000DFF80088288B400801F03AFB53EC182BE7
:1018000001F010FB28D206EB871696F9690088F8DC
:10181000000006F2690090F9011088F8011090F9B3
:10182000020088F80200B6F86C00A8F80300DFF8A0
:10183000C00706F14001402201F00AF9204606F1F6
:101840004001402201F004F90020A06368820FF2F9
:10185000FC7000F0A7FD7EE0D8E90001CDE90001B1
:10186000DDE90E23FFF7F5FC064631460FF2EC707A
:1018700000F098FD286C4FF47A71714388426AD267
:101880006F8A3846042866DBA16B002916D19DEDCE
:10189000100B84ED000B9DED120B84ED020B9DED02
:1018A000140B84ED040BA663214684B068464022E5
:1018B00001F0CEF80FBCFEF7CBFF43E0401E01F075
:1018C000CDFA41EC190B384601F0D2FA41EC1A0B73
:1018D00051EC190BD4E9002301F0C6F9DDE92C2302
:1018E00001F0D4FA53EC1A2B01F044FBC4E90001D7
:1018F00051EC190BD4E9022301F0B6F9DDE92E23EE
:1019000001F0C4FA53EC1A2B01F034FBC4E90201D4
:1019100051EC190BD4E9042301F0A6F9DDE93023D9
:1019200001F0B4FA53EC1A2B01F024FBC4E90401D2
:10193000A663214684B06846402201F089F80FBCB6
:10194000FEF7C8FEA06B009053EC182B698A0FF2CB
:101950001C7000F027FD20B0BDEC068BBDE8F00147
:101960005DF814FB7047DFF85406807B7047000079
:1019700028C500201026012000C05B409A99999943
:101980009999FD3F5839B4C876BE9F3F33335640CE
:10199000AE47E17A14AEF73F9999993F00004E4067
:1019A0000020AC4068CA0020282801200EB478B579
:1019B0002DED028B9EB00646DFF80046A06B08189E
:1019C000A06300A800F08BFFDFF82C56284600A982
:1019D000052201F02DF8207B062800F2E782DFE8DF
:1019E00010F0070012007400C1006A011402C00266
:1019F000FFF7ECFB0120FFF741FD217B0FF2846034
:101A000000F0D0FCD2E225A983B06846582201F04C
:101A10001FF80EBC304680B2FEF77CFC002843D095
:101A2000D5E90001CDE903014D200090E36BDDE92C
:101A300003010A46014601A8FFF764FCDFF8BC0574
:101A400001A9052200F0F4FFDFF8B41582B0684662
:101A5000402200F0FDFF0CBC1CA8FFF767FDD5E994
:101A60000001CDE90001DDE90023DDE91C01FFF7FC
:101A7000F0FB05463D2D07DB29460FF2186000F00C
:101A800091FCFEF787FC06E00120A06229460FF2D8
:101A9000146000F087FC0220FFF7F0FC217B0FF2BE
:101AA000146000F07FFC81E2A06A012840F07E8291
:101AB0000020A062DFF8481584B06846402200F09C
:101AC000C7FF0FBCFFF706FE70E2FEF7F9FC002827
:101AD00034D00320FFF7D2FC0FF2E85000F062FC94
:101AE000607A00281FD0DFF81C55294684B068466C
:101AF000402200F0ADFF0FBCFEF762FD60630128DD
:101B000011D100206063DFF8E01484B06846402201
:101B100000F09EFF0FBCFFF71DFAFFF757FB0FF217
:101B2000B85000F03FFCDFF8D81484B0684640227B
:101B300000F08EFF0FBCFFF7CDFD37E2FEF710FD82
:101B4000002800F03382207A401C2072C0B20328A3
:101B500080F243810120FFF791FC0FF2985000F0D2
:101B600021FC23E2A06A012851D10020A062DFF805
:101B70009064607A00281DD0314684B068464022C7
:101B800000F066FF0FBCFEF71BFD6063012811D15A
:101B90000020606306F5A86184B06846402200F02A
:101BA00057FF0FBCFFF7D6F9FFF710FB0FF25C50A1
:101BB00000F0F8FB314684B06846402200F048FF50
:101BC0000FBCFFF787FD31460CA8402200F040FF14
:101BD000DFF8301484B06846402200F039FF0FBCB3
:101BE000FEF7C7FCB0EE408AF0EE608AE08A01F0B2
:101BF0003FF953EC182B01F015F908D20120FFF73B
:101C00003DFC53EC182B0FF2105000F0CBFBD5E944
:101C10000001CDE90201DFF8D403D0E90023CDE9CA
:101C20000023DDE90223DDE90001FFF712FBA16BD0
:101C3000A26C8E1A332E08D30120FFF71FFC314609
:101C40000FF2EC4000F0AEFBB0E1216C4FF47A7281
:101C50005043814280F0AA81DFF8A41382B0684625
:101C6000402200F0F5FE0CBC1CA8FFF75FFCD5E994
:101C70000001CDE90001DDE90023DDE91C01FFF7EA
:101C8000E8FA05463D2D07DBFEF784FB29460FF2F7
:101C9000B84000F087FB06E00120A06229460FF261
:101CA000044000F07FFB0420FFF7E8FB0FF2A840A0
:101CB00000F078FB7AE1FEF72BFC002800F0828030
:101CC000D14E314684B06846402200F0C1FE0FBCC0
:101CD000FEF776FC6063012818D100206063C249DA
:101CE00084B06846402200F0B3FE0FBCFFF732F923
:101CF000FFF76CFA0FF2704000F054FB607B052890
:101D000040F054810120FFF7B9FB4FE1BD4D314652
:101D10000CA8402200F09CFE294684B06846402270
:101D200000F096FE0FBCFEF724FCB0EE408AF0EE09
:101D3000608AE08A01F09CF802460B4651EC180BD1
:101D400001F070F82BD2607B052831460CD184B0AD
:101D50006846402200F07CFE0FBCFEF76FFE0FF2DB
:101D6000144000F01FFB10E00CA8402200F070FEB1
:101D7000294684B06846402200F06AFE0FBCFEF798
:101D800063FF0FF2FC3000F00DFBFEF70CFB0520AB
:101D9000FFF774FB0FF2F03000F004FB06E10120C6
:101DA000FFF76CFB53EC182B0FF2F03000F0FAFA4F
:101DB000934984B06846402200F04AFE0FBCFFF70A
:101DC00089FCF3E0FEF7CCFB002800F0EF80207ADE
:101DD000401C2072C0B2032807DB0620FFF74EFB31
:101DE0000FF2003000F0DEFAE0E0884820640320C3
:101DF000FFF744FB217A0FF2B83000F0D3FA216CE0
:101E00000FF2282000F0CEFAD0E0A06A012846D1D7
:101E10000020A0627A4E607A00281DD0314684B03E
:101E20006846402200F014FE0FBCFEF7C9FB606359
:101E3000012811D10020606306F5A86184B06846CE
:101E4000402200F005FE0FBCFFF784F8FFF7BEF953
:101E50000FF2743000F0A6FA31460CA8402200F0D0
:101E6000F7FD684984B06846402200F0F1FD0FBCE0
:101E7000FEF77FFBB0EE408AF0EE608AE08A00F069
:101E8000F7FF53EC182B00F0CDFF08D20120FFF72D
:101E9000F5FA53EC182B0FF23C3000F083FAD5E939
:101EA0000001CDE902015148D0E90023CDE900232A
:101EB000DDE90223DDE90001FFF7CBF9A16BA26C9C
:101EC0008E1A332E08D30120FFF7D8FA31460FF2CD
:101ED0001C3000F067FA69E0216C4FF47A725043CD
:101EE00081423BD2464E96F929008DF8700006F2E9
:101EF000290090F901108DF8711090F902008DF809
:101F00007200D5E90001CDE90001DDE90023DDE93A
:101F10001C01FFF79EF905463D2D07DBFEF73AFA57
:101F200029460FF2E02000F03DFA06E00120A06211
:101F300029460FF2E02000F035FA0420FFF79EFA60
:101F4000E07A401CE072C0B203282FDB606C4100D5
:101F500021640FF2D80000F025FA27E0FEF78EFB8F
:101F600024E0A06BA16C401A33280BD30120FFF7AB
:101F700085FA0FF2B42000F015FA0FF2C02000F03D
:101F800011FA13E0A06A01280BD10120FFF776FABD
:101F90000FF2B42000F006FA0FF2A02000F002FACF
:101FA00004E0607B042801D1FEF768FB207B1EB0B3
:101FB000BDEC028B72BC5DF810FB00001026012006
:101FC00080EE3600F1D8FFFF005C2605C0E40A056C
:101FD000FCA9F1D24D62503F015C260500A4D9FA5C
:101FE00040774B41004CED4068CA0020282E01206C
:101FF00068280120202E0120102E0120182E0120FB
:1020000028C50020A8270120E8270120E09304002C
:102010004C542053410000004C542044490000001F
:102020004C54204E6F20504F530000004C542D57FD
:1020300050204348414E4745202564004C542053CE
:10204000617665205341554D000000004C542052EC
:10205000455345545F474150000000004C54204711
:1020600041204D546D202564000000004C54205345
:102070005020534741522025642C2025662C2025D2
:10208000640000004C542D434B5F53544F502025A7
:10209000640000004C5420524551504F532D4620AF
:1020A000256400004C54204E2D524551504F532072
:1020B000256400004C542D4745545F315F504F5309
:1020C000202564004C542D434B5F555345525F4DC2
:1020D0004F564554000000004C54205353412D46A8
:1020E000500000004C542D53535F50415553455FF1
:1020F000535300004C542053535F475053204E4FCE
:1021000054204F4B20317374000000004C54205376
:1021100053412D554D0000004C542D434B5F5354FB
:102120004F502D554D2D64697374202566000000B5
:102130004C542D434B5F53544F502D554D2D7374BC
:1021400065702025640000004C5420524551504FCA
:10215000532D5320256400004C542D4745545F32C5
:102160005F504F53000000004C54205353412D53F7
:10217000500000004C54205544542053500000009F
:102180004C542053535000004C542D434B5F555337
:1021900045525F4C454156494E4700004C542D4333
:1021A0004845434B5F53544F502D535020256600F4
:1021B0004C542D475053204E4F54204F4B20326EDD
:1021C00064202564000000004C54205353412D55D9
:1021D0004C0000004C542D434B5F53544F502D5531
:1021E0004C20646973742025660000004C542D4314
:1021F0004B5F53544F5020554C207374657020250D
:10220000640000004C5420524551504F532D554C02
:10221000202564004C54204E2D524551504F532DD3
:10222000554C2025640000004C5420535320414756
:1022300041494E2042592053544550004C542D439F
:102240004B5F53544F5000004C5420535320414790
:1022500041494E20425920504F53000010B50446CA
:1022600010460A460146204601F054F8204610BDAB
:10227000BFF34F8FDFF81C07016801F4E061DFF85E
:10228000442711430160BFF34F8FFEE710B5DFF81D
:1022900038474FF48E7200212046FFF7DFFF2046BB
:1022A00010BDDFF82407704710B5FFF7EFFF0446B5
:1022B00000231A461146084600F06EFAC046C04692
:1022C00001F05CF8204600F018F801F0AEFA204664
:1022D00000F0CFF9204600F014F8204600F01EF878
:1022E00000F092F900206072A072E0722073012069
:1022F00060730020E075012010BD0021C1710172E2
:1023000031E010B50446DFF8900601F0E3F8DFF89D
:10231000BC0601F0DFF80120607110BD10B5044665
:1023200001F043F90120A07110BD38B50446012524
:1023300001F0EEF9012804D12846E0700020A070D9
:102340000AE0022804D10020E0702846A07003E0D3
:102350000020E070A0700546284632BD80B501F02F
:1023600051FB012002BD10B50446E07901F078FC74
:102370000121217010BD70B504460025E679E17198
:10238000FFF7F1FF002807D02046FFF7BAFF2046ED
:10239000FFF7C4FF012503E0E6712046FFF7E3FFE6
:1023A000284670BD0EB470B5C1B0054600A84FF404
:1023B000807102F0D9F9FFF774FF044645AB2A4655
:1023C0004FF4807100A802F0D3F900A802F0EEF9F2
:1023D000451C00A82818002100F8011CDFF8F06552
:1023E0003078401C30707078F021084202D099207B
:1023F00002F0F8F902F063FA7078401C7070207EE9
:102400002818FF2810DA207E002803D0207E00192B
:102410000A2101762A4600A9207E0019193002F00F
:1024200065FA207E2818207600A802F0B7FC7078A4
:10243000F021084202D0992002F0D4F97078401EB1
:102440007070C0B2002801D102F033FA03F091F8A5
:1024500041B070BC5DF810FB0428DFF8400503D8DC
:10246000DFF8341501607047DFF8601501607047D0
:10247000DFF82C1551F82000007F002807D0DFF886
:10248000540501784A1C0270032900DBF0E670470E
:102490002DE9F84305460E4617464FF00208DFF8CF
:1024A00030456078F021084202D0992002F09AF974
:1024B00002F005FA6078401C60709DF80000401E34
:1024C0008DF8000017F8019B2846FFF7C5FF00AB09
:1024D0004A463946304601F0DBFC002810D06078CF
:1024E000F021084202D0992002F07CF96078401E69
:1024F0006070C0B2002801D102F0DBF901201FE0BA
:102500005FFA88F8424629460FF2D440FFF74AFFA7
:102510004046A0F101080028D9D16078F021084296
:1025200002D0992002F05EF96078401E6070C0B25F
:10253000002801D102F0BDF92846FFF799FF0020DD
:10254000BDE8F2832DE9F04704460D4616461F46C6
:10255000DFF85084089888F80000DFF8749499F840
:102560000100F021084202D0992002F03BF902F06C
:10257000A6F999F80100401C89F801002046FFF7F0
:102580006BFF4FF0020A434632463946284601F0B7
:102590002FFD002813D099F80100F021084202D045
:1025A000992002F01FF999F80100401E89F80100F6
:1025B000C0B2002801D102F07CF9012022E05FFACC
:1025C0008AFA524621460FF22440FFF7EBFE5046AE
:1025D000A0F1010A0028D6D199F80100F0210842A3
:1025E00002D0992002F0FEF899F80100401E89F807
:1025F0000100C0B2002801D102F05BF92046FFF7CC
:1026000037FF0020BDE8F08703F0FDBCF8B50446B5
:1026100002270025DFF888630DE039464F1EC9B256
:1026200000290AD1002804D120690121A94088434A
:10263000206102276D1C162D10DA56F82500006E59
:10264000006880470128E8D121690122AA4011438E
:10265000216156F8251001220A77E3E72069032853
:1026600003D0022801D0012802D140F4805020611B
:10267000F1BD01F001BE01F05CBE81B00022ADF8F9
:102680000220ADF80020C079042808D0062809D01F
:1026900008280AD009280BD00A280CD00EE04FF4E5
:1026A000C8600DE04FF448600AE04FF4C85007E0FE
:1026B0004FF4FA5004E042F2107001E041F2707001
:1026C000ADF802200DE0BDF80020521CADF800204E
:1026D000BDF800208242F6DBBDF80220521CADF8A6
:1026E0000220BDF802208A4203D20022ADF8002069
:1026F000EEE701B07047417230B589B003F046FD96
:102700000446FFF7CEFD054600A8242102F02CF870
:102710000020ADF8220001900A208DF8080000206A
:102720008DF809008DF80A00687A00280DD0002C79
:1027300018D000208DF80000052001900B208DF8A6
:10274000080000A805F054FB0CE0002C0AD0012082
:102750008DF80000052001900B208DF8080000A8DE
:1027600005F046FB09B030BD01F0FFBD01F007BE2A
:1027700001210846F8E701210846F7E70221012078
:10278000F2E702210120F1E701F004BE10B5044692
:10279000FFF787FD447510BD2DE9F04782B00C4668
:1027A00015462F46264680464FF47A714FF03C0C72
:1027B0004FF4616918FB09F216FB0C22BA1801FBF1
:1027C0000232DFF8E4E19EF900A01AFB09F99EF954
:1027D00001A01AFB0C9C9EF902904CFA89FCBEF9F0
:1027E000039001FB0C919EF808C0BCF1000F22D1B0
:1027F00044EA00012943194302D001218EF8081050
:102800008EF80000B8F1000F04D59EF800001830D3
:102810008EF800008EF801408EF80250AEF80330BA
:1028200000933B4632469EF900100FF2F010FFF77E
:10283000B9FDBDE8F38791420DD3A1EB020CACF2D8
:10284000D17CDFF89491CC45DAD30FF2AC1002B012
:10285000BDE8F047A6E5D3D2A2EB010CACF2D179EA
:10286000DFF874A1D145CBD363460FF29C1002B0C0
:10287000BDE8F04796E510B504002FD003F03BFD0E
:102880004949CA68002A00D0841AB1F80320A21866
:10289000A1F8032012B2B2F57A7F06DBA2F57A72B4
:1028A000A1F803208A78521C8A7091F902203C2AF0
:1028B00004DB3C3A8A704A78521C4A7091F9012034
:1028C0003C2A04DB3C3A4A700A78521C0A7091F99F
:1028D0000020182A01DB00220A70C86010BD3249AE
:1028E000052200F0A5B800000FB410B52DED028B45
:1028F0002E4C104600F0BCFA2D4A2E4B00F0B4F9D5
:10290000206161619FED2C8B049800F0B1FA53ECCB
:10291000182B00F0A9F920606160059800F0A8FA72
:1029200053EC182B00F0A0F9A060E1609DF81C00AA
:10293000207604F118009DF81D1041709DF81E10BE
:1029400081709DF81F10C1709DF820100171BDF8B5
:10295000210000EE100AB8EE400A10EE100A05F051
:102960006FFB174A1D4B00F07FF905F091FBC4F88F
:102970001D00BDF82300A4F821009DF8250084F86F
:102980002300BDEC028B10BC5DF814FB0749242228
:1029900000F04EB80CED00E000540040CC7C00206C
:1029A00008400020B42E0120382C0120302A0120BC
:1029B000FCA9F1D24D62503F8DEDB5A0F7C6B03EF7
:1029C0003BDF4F8D0400FA05D40901200058004078
:1029D000087C0020B32E01205F4C2605976EA23F95
:1029E00049574520256420256400000049524520B0
:1029F000256420256400000041542D536574545310
:102A0000312025642025640041542D5365745453AE
:102A100032202564202564202564000041542D5374
:102A20006574542025643A25643A25642E25640093
:102A300062B38B0708D0521E11F8013B00F8013B2E
:102A400000F024808B07F6D1830740F0208000BF80
:102A5000103A07D330B4B1E83810103AA0E8381073
:102A6000F9D230BC530724BFB1E80810A0E8081021
:102A700044BF51F8043B40F8043BD20724BF31F86F
:102A8000022B20F8022B44BF0B7803707047083AE2
:102A900007D3B1E80810083A40F8043B40F804CBEB
:102AA000F7D25307E4E750F8041B61B150F8042B48
:102AB000D30744BFA9F101039A18002342F8043B4D
:102AC000091FFAD1EFE7704790420CD141EA030C9D
:102AD00050EA4C0C07D0994205D14FF4001C1CEB76
:102AE000410F38BF8942704770B44FF0004591EAFA
:102AF000030F44BF6B4000F0D3B900BF841A71EBE1
:102B0000030604D26E40001BB141121973414FF409
:102B1000001C1CEB410F34BF7CEB430684E00C0D22
:102B2000A4EB1356362E7DDC012E43DC45EAC3238D
:102B300043EA525312BFD20292025B08240545EACF
:102B4000C12141EA5051D2EBC020994125D407D18F
:102B5000B0FA80F610FA06F164D00020203608E0C2
:102B6000B1FA81F6B140C6F1200220FA02F2114317
:102B7000B0404FEAF474B4EB465434F001064FEA27
:102B800074040AD8D6F50016760D04F00044F0401F
:102B900061FA06F25040F1404840C00A40EA415014
:102BA00021F0004128BF5FEA500550F1000044EBDE
:102BB000D12137E045EAC323DB0A45EAC121C90A2E
:102BC000B6F120050EDD42EA0242120CC5F12006E4
:102BD00003FA06F6EB4042EA06056D42984161F1C0
:102BE00000010DE062FA06F5F240554063FA06FC7A
:102BF00082EA0C02F3405A406D42904161EB0301BE
:102C000011F4801F05D1641E620502D06D004041A1
:102C1000494121F48011430875F1004350F100004F
:102C200041EB045170BC70471CEB410F15D223F0EF
:102C3000004352EA43060BD04FEA4C0CBCEB410F69
:102C400004D80C0D661E342EB7DDEBE7801A9941CF
:102C500050EA410608BF0021E4E708BF1CEB430F20
:102C600028BF6FF00001DDE7B0B581EA030C0CF07E
:102C7000004C40F2FF7515EA11541DBF15EA1357B9
:102C8000AC42AF4239E0E41923EA455343F48013E0
:102C9000C90241F0004141EA505EC7021100A7FBA2
:102CA000020200284FF00000EEFB01204FF000016F
:102CB000E3FB072118BF42F00102401800214941FF
:102CC000E3FB0E01A4F580640F0302D252004041E1
:102CD000494154F101046CDD470872F1004250F1A2
:102CE000000051EB0451A1F580115CBF41EA0C01D9
:102CF000B0BD4CEA05510020B0BD05EA1357AC4207
:102D000014BFAF4241E050EA410E1CBF52EA430EED
:102D100002E061460020B0BD24423C441BD15FEA82
:102D2000070EF6D0090302BF01460020AEF1140ED3
:102D3000B1FA81F7AEEB070401FA07FE0C37C7F1D1
:102D4000200100FA07F7C8404EEA000E23EA455377
:102D500043F48013A2E733F00043B3FA83F704BFD0
:102D6000B2FA82FE77440B3FE41BB7F1200E2FBF6F
:102D700002FA0EF3BB40C7F1200E22FA0EFE38BF56
:102D800043EA0E03BA40641C82E750EA410E14BFC6
:102D900052EA430E6FF000014FF4001717EB430F98
:102DA0008ABF194617EB410FB5E74CEA05510020E1
:102DB000B0BDD4F10104B4F120070FDAC4F120074B
:102DC000520828BF42F0010210FA07F501FA07F78E
:102DD000E1BF2A43E0403843E1400FE0352C98DC66
:102DE000C7F1200452EA400220FA07F218BF42F06D
:102DF000010231FA07F0A1400A43002172F10042BA
:102E000050F1000051EB0C01B0BD8268521C826091
:102E1000426832B10268531C036011704168491E58
:102E2000416070474FF4001C1CEB410F94BF1CEB3A
:102E3000430F09E041EA030C50EA4C0C52EA0C0C37
:102E400003D2994208BF9042704714BF8B4282421E
:102E500070470268531C036011707047010040F115
:102E60000980F446404200F005F851F00041604707
:102E7000010000BF09D0B0FA80F18840C91CC1F53B
:102E80008461090501EBD0214005704770B44FF013
:102E9000004591EA030C44BF6B40FFF72FBE00BF13
:102EA000841A71EB030603D2001BB141121973415E
:102EB0004FF4001C1CEB410F34BF7CEB430443E098
:102EC0000C0DA4EB1356352E50DC45EAC323DB0A68
:102ED00045EAC121C912B6F120050DDD63FA05F6F8
:102EE000EB4086EA0305124218BF45F00105C01801
:102EF00051F100010CD213E062FA06F5F2405540A0
:102F0000F3415A40B340F3405A408018594107D327
:102F100049085FEA30005FEA350528BF45F0010542
:102F200001F58011420875F1004250F1000041EBBB
:102F3000045170BC4FF4001C1CEB410F38BF7047AC
:102F40000020090D090570471CEB410F10D252EA11
:102F500043060BD0BCEB410F05D80C0DAB43661EEE
:102F6000342EB5DD02E0AB438018594170BC704788
:102F700070BC7047F0B540F2FF7581EA030C0CF0AD
:102F8000004C15EA11541DBF15EA1357AC42AF426D
:102F9000E5E0BC41C1F31301C3F31303801A994167
:102FA00043F4801304D2641E400049418018594103
:102FB000C90241EA5051B1FBF3F603FB1611A2FB23
:102FC0000675D7EBC020A94102D2761E8018594160
:102FD000C90241EA5051B1FBF3FE03FB1E11A2FBF3
:102FE0000E75D7EBC020A94103D2AEF1010E8018B7
:102FF0005941890241EA9051760546EA8E2EB1FB8D
:10300000F3F603FB1611A2FB0675D7EB8020A9414E
:1030100002D2761E80185941C90241EA50514EEA47
:10302000060EB1FBF3F603FB1611A2FB0675D7EBF8
:10303000C020A94102D2761E80185941C90241EA36
:103040005051B1FBF3F703FB1711A2FB0735D3EB8C
:10305000C020A94167F100070CBF004247F00107FB
:1030600066F3D5274FEA1E31B80814F5806412DDE7
:10307000BD0775F1004250EB0E5051EB045111F5B4
:10308000801F5CBF41EA0C01F0BD4CF07F6141F054
:10309000E0410020F0BDBD076D0840EA0E5041F44C
:1030A0008011D4F10104B4F120060ADAC4F120063B
:1030B0000200E04001FA06F3E1401843B240154334
:1030C0000EE0342C13DCC6F1200445EA40056D08FF
:1030D00020FA06F2154321FA06F0A1400D43002123
:1030E00075F1004250F1000051EB0C01F0BD0020E1
:1030F0005FEA0C01F0BDCFB992185B41B3FA83F7D8
:1031000004BFB2FA82F6BF190B3FB7F120062FBFFA
:1031100002FA06F3BB40C7F1200622FA06F638BFD2
:103120003343BA401CB1E419641E33E77F4231F0E7
:103130000041B1FA81F404BFB0FA80F6A4190B3C47
:10314000B4F120062FBF00FA06F1A140C4F1200619
:1031500020FA06F638BF3143A0403C1B1AE7AC42C8
:103160001ABF05EA1357AF4212E050EA41061CBFEE
:1031700052EA4306BFE750EA4107304661461CBFAA
:1031800041EA0551F0BD52EA430C08BFC143F0BD0E
:1031900000204FF4001616EB410F98BF16EB430FBB
:1031A00008BF16EB410F24BFC14305E016EB430FE8
:1031B0000CBF61464CEA0551F0BD000051EC100B0C
:1031C00000B500F003F841EC100B00BD40F2FF7CAD
:1031D0000B0D4DD0634566D230B421EA035141F462
:1031E000801103F2FD3C5FEA5C0C01D300184941F9
:1031F000890041EA907180004FF440140023E202FC
:10320000D50AB1F5100107D46D081DD2091B641948
:1032100000184941491BF7D56D080AD20919641BEA
:1032200000184941491BEFD56D08F7D301E052085A
:1032300017D0C01861419B1AAC4100184941801A4F
:10324000A941F4D452080AD0C01AA1419B186C417C
:1032500000184941801AA941E9D45208F4D15B1CF5
:103260006C4161084FEA330001EB0C5130BC7047F0
:1032700050EA0103FBD030B4B1FA81F311B9B0FACE
:1032800080F41B190B3BB3F120042FBF00FA04F1AB
:103290009940C3F1200420FA04F438BF2143984038
:1032A000D3F101039DE76345E1D011F5801FDED81E
:1032B00050EA4101DBD0D94304F032BFF446400D5F
:1032C00040EAC120490006D200F014F8004248BF8D
:1032D0006FF00040604700F00DF84FF00041884269
:1032E0008CBF084640426047400D40EAC12049007B
:1032F00080F00D8040F00040490DA1F58061491C2F
:1033000005D4D1F11F0154BFC840C01770474FF01A
:103310000000704762F30F2262F31F42401810F062
:10332000030308D0C91A1FD3DB0748BF00F8012DDB
:1033300028BF20F8022D130030B41446154610396A
:1033400028BF20E93C00FAD8490728BF20E90C0033
:1033500048BF40F8042D890028BF20F8022D48BF3F
:1033600000F8012D30BC7047C91818BF00F8012DB6
:10337000CB0728BF00F8012D7047000030B583B09F
:103380000121032004F037FFDFF8584C204604F0F9
:10339000CBFFDFF8545C284604F0C6FF01208DF80F
:1033A000040000208DF8050001208DF806000020A3
:1033B0008DF80700012128460183C04601200090B6
:1033C00000A9284605F00CF8022128460183C046D2
:1033D0000220009000A9284605F002F801208DF88F
:1033E000040000208DF80500ADF806004FF4807051
:1033F000009000A9284604F0F3FF4FF4807128469E
:103400004183C04601208DF8040000208DF805009E
:1034100001208DF8060000208DF807004FF4805041
:10342000009000A9204604F0DBFF4FF480512046B5
:103430004183C04604220621284605F01FF80422D5
:103440000721284605F01AF802208DF80400012013
:103450008DF805008DF8060000208DF8070040204B
:10346000009000A9284604F0BBFF8020009000A92E
:10347000284604F0B5FF04220A21284604F0FEFF86
:1034800009220321284604F0F9FF02208DF80400E8
:1034900001208DF805008DF8060000208DF807004A
:1034A0004FF48060009000A9284604F099FF08209E
:1034B000009000A9284604F093FF286820F030000F
:1034C00040F010002860206820F0300040F010002C
:1034D000206037BD1FB5DFF8144BA04230D1012169
:1034E0004FF4001004F092FE0121022004F083FE4C
:1034F00001214FF4001004F0AAFE00214FF4001047
:1035000004F0A5FE0020ADF804004BF6FF70ADF806
:1035100006004FF48060ADF80A004FF48040ADF82B
:103520000C000A20ADF80800DFF8A40C009000A9F8
:10353000204604F0E6FF0121204605F045F81FBDB6
:10354000DFF8904CA0422FD101214FF4800004F00D
:103550005DFE0121022004F04EFE01214FF48000A7
:1035600004F075FE00214FF4800004F070FE00208E
:10357000ADF804004BF6FF70ADF806004FF4806024
:10358000ADF80A004FF48040ADF80C000A20ADF809
:103590000800DFF83C0C009000A9204604F0B1FFC1
:1035A0000121204605F010F81FBD2DE9F04192B031
:1035B00001214FF4805004F034FE0121084604F04C
:1035C0001AFE01214FF4800004F015FEDFF8144AC2
:1035D00005221146204604F051FF0522072120460E
:1035E00004F04CFF05220621204604F047FF052287
:1035F0000421204604F042FF02208DF8040001203F
:103600008DF805000020ADF806002020009000A9EC
:10361000204604F0E5FE8020009000A9204604F03A
:10362000DFFE4020009000A9204604F0D9FE1020C3
:10363000009000A9204604F0D3FEDFF89C4B204602
:1036400005F024F8DFF8945B0020288068600120F2
:10365000288100206881E860072028820020688097
:10366000DFF87C6B304605F081F8DFF8787B384670
:1036700005F07CF84FF48060069000210D91032145
:103680000E9100210F910A910890DFF8140C03901D
:1036900008461090099007904FF400300C900846AF
:1036A0000B904FF0C068CDF8088040200590084688
:1036B000049002A9304605F0DDF800200B90CDF80B
:1036C0000880059005F11400049002A9384605F021
:1036D000D1F8002068802946204605F006F801222E
:1036E0000221204605F030F801221146204605F05F
:1036F0002BF80121204605F01BF80021304605F08B
:10370000E0F80021384605F0DCF812B0BDE8F081A1
:1037100030B589B001214FF0805004F077FD0120D1
:1037200005F038F901214FF4802004F064FD0F20EA
:1037300005F0E0FA0446102005F0DCFA0546012009
:1037400004F056FD002004F053FD21460F2005F043
:10375000C4FA2946102005F0C0FA00214FF4802059
:1037600004F049FD012004F0E1FC412004F090FD4B
:103770000028FAD04FF4807004F024FD012004F0FA
:1037800034FD05F05AF93F20069040F2FF100790F3
:103790000020059005A805F007F90020029002A975
:1037A00005F06CF900208DF8070001208DF8040069
:1037B0008DF805008DF8060001A9002005F0D7F965
:1037C0004FF4800005F076FB4FF48000039000205A
:1037D0008DF8100008208DF8110001208DF81200DE
:1037E00003A805F025FB03208DF800000D208DF8BF
:1037F000010000208DF8020001208DF8030000A8D0
:1038000005F065FB032005F026FA4FF4804005F033
:10381000DCFA4FF4800005F04DFB01214FF48040AD
:1038200005F099FA012009B030BD10B586B001212C
:10383000084604F0E0FC01214FF4804004F0F1FC64
:1038400000208DF810008DF8130001200390DFF8A0
:10385000944703A9204604F0C3FD0420039003A964
:10386000204604F0BDFD0021084605F069FB022159
:10387000002005F065FB00208DF8080001208DF880
:103880000A0001900C208DF8090001A805F0D0FA7B
:10389000042001900C208DF8090001A805F0C8FA59
:1038A000042005F007FB28208DF800000F208DF87C
:1038B000010000208DF8020001208DF8030000A80F
:1038C00005F005FB06B010BD10B586B00121084615
:1038D00004F091FC01214FF4804004F0A2FC002090
:1038E0008DF810008DF813004FF40064039403A9C1
:1038F000DFF8F00604F074FD0B21002005F020FB3A
:1039000000208DF8080001208DF80A0001940C2099
:103910008DF8090001A805F08BFA204605F0CAFAD7
:1039200028208DF800000F208DF8010000208DF870
:10393000020001208DF8030000A805F0C8FA06B0C7
:1039400010BD30B58DB0044601214FF4807004F0F5
:1039500068FC00A804F07EFD0A20009003208DF88A
:10396000040000208DF8070000A9DFF8780604F0B5
:1039700037FD05F0F9FA02A805F03BFB4FF4803063
:10398000039002A805F027FB06A805F01AFBDFF854
:10399000645B06A9284605F0F4FA072301222146B4
:1039A000284605F037FB0121284605F076FB01216A
:1039B000284605F024FB0DB030BD38B5DFF8344B98
:1039C000204605F065FB4FF47A750221204605F08C
:1039D0007BFB002803D12846451E0128F5DA204646
:1039E000BDE8324005F064BB80B50021DFF8040B70
:1039F00005F005FB00214FF48070BDE8044004F0A1
:103A000010BC000038B5040039D0012004F0C2FF1A
:103A1000002005F03AF94FF40055042005F0B6F9FE
:103A2000012804D12846451E80B20028F5D100EEB9
:103A3000104AB8EE400ADFED780A80EE800AF0EE18
:103A4000000A20EE200ADFED750A80EE800ABDEE46
:103A5000C00A10EE100A401E80B205F00CF94FF4B7
:103A6000804005F0B2F94FF4800005F023FA012000
:103A700005F00BF9DFF8740B0121416031BD012025
:103A800004F088FF0020BDE8324005F0FEB80000D9
:103A900030B4014601200023DFF85C2A1C46946004
:103AA000946814F00C0FFBD10C460B2C55D8DFE8B2
:103AB00004F02054545406192031383F464D946880
:103AC00044F080049460DFF8344A4FF4C065256008
:103AD000146824F080741460DFF8A44ADFF8205AD8
:103AE00025603BE00346DFF8984ADFF8985A2560E6
:103AF00034E094689460DFF8044A4FF4C0652560B0
:103B0000146824F080741460DFF8744ADFF8785A7F
:103B1000256023E00223DFF8684ADFF8705A256049
:103B20001CE00323DFF8584ADFF8645A256015E0EB
:103B30000423DFF84C4ADFF8B85A25600EE005236D
:103B4000DFF83C4ADFF8AC5A256007E00623DFF8CF
:103B5000304ADFF8A45A256000E01846002B4AD00E
:103B600003EBC3030FF2B8041B1994689460146844
:103B700024F080741460146824F0806414609C78CD
:103B80001D8844EA8514DD786D086D1E44EA0544FD
:103B90001D7944EA05645460DC881D7A2D0745EAE6
:103BA0008414DFF8B05A2C60146844F080741460F8
:103BB0001468A401FCD55B7943F4C063DFF83C4989
:103BC00023609368936093689360052904D191689A
:103BD00041F09001916005E00A2903D1916841F418
:103BE00080519160916841F002019160916801F00B
:103BF0000C010829FAD1DFF888190968DFF8582A7A
:103C0000914207D2DFF8E41A0A6822F4404242F4F3
:103C100080420A6030BC704700007A4400000047D0
:103C2000200110040F03020103F00010060F01022F
:103C30000103C00010080F01020103C00010060FAD
:103C400001020103F00010060F01020103C8001079
:103C5000040F02020103A80010020F030201030077
:103C600016E7002800E0401EFDD170477CB507260E
:103C7000DE4988426BD101208DF804008DF80500E3
:103C80008DF8060000208DF8070040200090DFF836
:103C90007C5A00A9284604F0A3FB8020009000A9CC
:103CA000284604F09DFB402128464183C0460F2052
:103CB000FFF7D7FF402128460183C0460F20FFF7BA
:103CC000D0FF3046461E80B20028ECD18020009004
:103CD00000A9284604F084FB402128464183C046C1
:103CE0000520FFF7BEFF802128460183C04605203E
:103CF000FFF7B7FF402128460183C0460A20FFF79F
:103D0000B0FF402128464183C0460520FFF7A9FFA8
:103D1000802128464183C0460520FFF7A2FF0220EC
:103D20008DF8040001208DF805008DF806000020B4
:103D30008DF807004020009000A9284604F050FBB1
:103D40008020009000A9284604F04AFB73BDDFF8EC
:103D5000841488426AD101208DF804008DF8050092
:103D60008DF8060000208DF807004FF48064009461
:103D7000DFF8985900A9284604F032FB082000908B
:103D800000A9284604F02CFB214628464183C04662
:103D90000A20FFF766FF214628460183C0460A2015
:103DA000FFF75FFF3046461E80B20028ECD10820A6
:103DB000009000A9284604F013FB214628464183C1
:103DC000C0460520FFF74DFF082128460183C04665
:103DD0000520FFF746FF214628460183C0460A20FA
:103DE000FFF73FFF214628464183C0460520FFF7E5
:103DF00038FF082128464183C0460520FFF731FFE0
:103E000002208DF8040001208DF805008DF80600D1
:103E100000208DF80700009400A9284604F0E0FA7D
:103E20000820009000A9284604F0DAFA73BD10B506
:103E3000DFF8DC480121206804F0FFFB206804F073
:103E400031FB2068FFF746FB05E02068FFF70EFF17
:103E50002068FFF73FFB4FF40031206804F0F8FBC7
:103E60000028F2D110BD30B40022838A008BDFF825
:103E7000A048656843EA00400840000255EA102067
:103E800060600840884200D10122104630BC704773
:103E90002DE9F84F04460D4616464FF420491F7889
:103EA000DFF86C884FF40031D8F8000004F0D0FB44
:103EB000002808D04846A0F101090028F2D1FFF7F8
:103EC000B6FF00208CE0D8F8000001884FF6FF52C2
:103ED000114001800121D8F8000004F081FB4FF46B
:103EE000805AD1460020C8F80400D8F800B0DFF8A6
:103EF00024185846FFF7B7FF002805D14846A0F11F
:103F000001090028F1D163E0D1460022214658463C
:103F100004F07EFB0020C8F80400D8F80040DFF869
:103F2000F8172046FFF79FFF002805D14846A0F16B
:103F300001090028F1D14BE03146C9B22046018287
:103F4000C046D1460020C8F80400D8F80040DFF889
:103F5000CC172046FFF787FF002805D14846A0F17F
:103F600001090028F1D133E0012F15D1297820462D
:103F70000182C046D1460020C8F80400DFF8A0172F
:103F8000D8F80000FFF76FFF002823D14846A0F1C2
:103F900001090028F2D11BE03846471EC0B20028B4
:103FA00018D015F8011BD8F800000182C046D14690
:103FB0000020C8F80400DFF86817D8F80000FFF701
:103FC00052FF0028E8D14846A0F101090028F2D1AB
:103FD000002005E00121D8F8000004F00DFB0120CD
:103FE000BDE8F28F0000024000040240005400408F
:103FF0002DE9F54F81B00D461E464FF42048377825
:10400000DFF80C474FF40031206804F021FB002852
:1040100008D04046A0F101080028F3D1FFF707FFC0
:104020000020D3E0206801884FF6FF521140018044
:104030000121206804F0D4FA4FF48059C8460020CA
:104040006060DFF8D0A6D4F800B051465846FFF7BC
:104050000AFF002805D14046A0F101080028F2D14E
:1040600091E000229DF80410584604F0D1FAC846A9
:1040700000206060D4F800B0DFF89C165846FFF7C7
:10408000F2FE002805D14046A0F101080028F1D138
:1040900079E0BDF80810C9B258460182C046C8464A
:1040A000DFF88016206804F0D3FA002805D14046D6
:1040B000A0F101080028F3D165E00121206804F097
:1040C0008FFAC84600206060D4F800B051465846C8
:1040D000FFF7C9FE002805D14046A0F101080028DD
:1040E000F2D150E001229DF80410584604F090FAF5
:1040F000022FC84639DADFF83016206804F0A8FA33
:10410000002805D14046A0F101080028F3D13AE08B
:104110000021206804F085FA2068018B012104F059
:104120006BFAC846DFF80416206804F091FA0028FC
:1041300005D14046A0F101080028F3D123E0206812
:10414000008AC0B228703078401E3070C84620689F
:104150000188890505D54046A0F101080028F6D15F
:1041600011E0012104F05DFA2BE000206060DFF82F
:10417000C0152068FFF777FE002806D14046A0F161
:1041800001080028F3D1002020E0012616E0012FCD
:104190000CD1012E0AD100263146206804F041FAE4
:1041A0002068818A018B012104F026FA2068818A27
:1041B000490603D5008A05F8010B7F1EFFB2002FC8
:1041C000E5D10121206804F02CFA0120BDE8FE8F22
:1041D000801A060000580040003001400C2A0120DF
:1041E0008864024010640240DFF84805016808292D
:1041F00033D1DFF804130A6842F080720A60426823
:10420000B2F1806F03D10A6842F080620A600A68E6
:104210009201FCD58A6842F002028A608A6802F044
:104220000C02082AFAD14268B2F1806F02D10A6802
:104230001201FCD5DFF848130968DFF81C2491420D
:1042400007D2DFF8A8140A6822F4404242F4804200
:104250000A6000210160416070474168B1F1806FE0
:1042600009D1A5490A6842F080620A600A68120111
:10427000FCD5002141607047DFF8BC04016841F0C3
:1042800080510160DFF8640401688908890041F009
:1042900001010160DFF8A4040FF209010160704719
:1042A0000C30014038B5DFF89844208840F0040015
:1042B0002080FDF7F6FF807A012803D1012004F069
:1042C0006CFB02E0002004F068FBDFF878548021EA
:1042D000DFF8740404F042FA002818D172B6864858
:1042E000DFF85014826802F00C020A60006800F0E7
:1042F00080604860286840F00400286030BF62B6E3
:10430000286820F004002860FFF76EFF0CE060884A
:1043100040F004006080286820F00400286030BF6E
:10432000286840F004002860608840F00400608045
:1043300031BDDFF8080400680047DFF810140128D9
:1043400006D010D3032809D005D3042809D00AE0E9
:10435000DFF8B81307E0DFF8F81304E0DFF8F41330
:1043600001E0DFF8F4130846704710B50C46FFF77C
:10437000E4FF214689B2BDE8104004F07BB810B5D7
:104380000C46FFF7DAFF214689B2BDE8104004F081
:1043900073B80000E0B500238DF8083001238DF8D4
:1043A0000A30002A03D10C228DF8092002E00822ED
:1043B0008DF8092004283CD8DFE800F00315212AF5
:1043C0002A004FF40060019028208DF800000F2093
:1043D0008DF8010000208DF80200012921D1184636
:1043E0008DF803001FE01846019010208DF8090099
:1043F00006208DF800000E208DF80100EAE702206B
:10440000019007208DF800000F208DF80100E1E7F2
:104410000420019008208DF800000F208DF8010085
:10442000D8E78DF8030001A804F002FD00A804F00D
:104430004EFD07BD10B5044601214FF4802003F066
:10444000DAFE2146102004F048FC00214FF48020C1
:10445000BDE8104003F0CFBE10B501214FF480201D
:1044600003F0C9FE102004F045FC044600214FF47F
:10447000802003F0C0FE7B2003F00AFF002802D05A
:104480009BA0FDF78FFF7A2003F002FF002802D0E7
:1044900098A0FDF787FF792003F0FAFE002802D0EC
:1044A00095A0FDF77FFF7C2003F0F2FE002802D0EC
:1044B00092A0FDF777FF7D2003F0EAFE002802D0EE
:1044C0008FA0FDF76FFF7E2003F0E2FE002802D0F0
:1044D0008CA0FDF767FF7F2003F0DAFE002802D0F2
:1044E00089A0FDF75FFF03F0E5FE2046C0B210BDD6
:1044F000000000000020014000380240003C024063
:1045000000127A003EB50C4615460422014602A868
:1045100000F0ECF90422214601A800F0E7F904229A
:10452000294600A800F0E2F902A9002004F0A6FA4A
:1045300001A9002004F01BFB04F014FB0446874A89
:10454000002300981946101A63EB0101490241EA61
:10455000D051400204F0E2FD0090844205D2011BDC
:104560004FF0004004F0D3FB37BDA04207D2C4F5A2
:104570000070009909184FF0004004F0C8FB37BDE7
:10458000907C0020809698000024F40000366E0194
:104590000048E8012DE9704384B004460D461646F4
:1045A00002A9002004F0B9FA01A9002004F02FFBB1
:1045B00004F0D8FA0090694AA2FB00894FEA582813
:1045C00048EAC958A2EB08000090042202A920463C
:1045D00000F08CF9042201A9284600F087F9042292
:1045E00000A9304600F082F9BDE87F83A42D0120A8
:1045F000005A620280F0FA0200BD010570B48C1E00
:10460000012C01DA0C34401E3C216425B0FBF5F589
:10461000C5EB90054FF4C876B0FBF6F6751940F27D
:104620006F1674430C26B4FBF6F46419121940F2A9
:104630006D1404FB00204A4A101800EB400203EB03
:10464000C200039A01FB0020049A01FB002070BC09
:104650007047000084380240018793031CB50C4664
:1046600001680191416800918368C2680169491C31
:10467000406900F26C70FFF7C1FF2060002016BD9A
:1046800010B58EB037480068C405E40D01A90020BC
:1046900004F043FA00A9002004F0B9FA9DF80400E0
:1046A00006909DF8050005909DF8060004909DF881
:1046B0000100401E08909DF8020007909DF803003D
:1046C0006430099002A904A8FFF7C8FF4FF47A707C
:1046D00010FB04F0400AC0F57A700390029A4FF480
:1046E0007A73C117E3FB02010EB010BD00700040E9
:1046F000504F520050494E00424F52005346540012
:1047000049574400575744004C505700000402409A
:10471000CC7C00200100030082000700800007001D
:104720008400070004000010020000104000001088
:1047300002000300AC2D012040380240A42D0120CE
:104740001800024010ED00E000300140000002407F
:1047500000080240000C02400010024000CA9A3BD0
:104760007505F5FF28280040002204F04FBD000029
:1047700008B584B00023029311B90093019302E0BD
:104780000090481E019004AB00A9074878441830F7
:1047900004F056FD009909B100220A70002858BFA4
:1047A000029805B000BD00BF63E6FFFF00F1010302
:1047B000810704D010F8011B89B18107FAD1026882
:1047C000B2F10131914311F0803F04BF50F8042F42
:1047D000F6E710F8011B11B110F8011BFBE7C01A36
:1047E0007047000000B585B002460FF2140100A822
:1047F00005F0F2FB00A800F099FB05B000BD000039
:104800004F4525640000000030488168002904BF3E
:1048100008B008E0EFF30982A2F12802036882E8F9
:10482000F84F83685A6000F04BFD816859B14A68BF
:1048300092E8F84F036002F1280282F3098813F42A
:104840007F4F36D07047224822490968401A80F3CA
:1048500008884FF08071C1611F4981617FF0060EA9
:10486000704701BC2046DFF874E000BDFEE71C483D
:10487000006818490968401A203820F0070080F3C2
:1048800008884FF0000181F3118862B600F00DF83E
:10489000FEE74FF0000181F311881249124A0A60C5
:1048A0004FF0800181F3118870470E490E4A0A606B
:1048B00070474FF0000181F31188704700BF4FF03F
:1048C000800181F31188704700BF0000087C002040
:1048D000E01F0020380F030821A300086D480008DE
:1048E0000000000804ED00E00000001010B50446D0
:1048F000FEF79EF8204610BDEFF303807047BFF32C
:104900004F8FDFF86C06016801F4E061DFF8642680
:1049100011430160BFF34F8FFEE770B582B00646CA
:104920000C462046FFF742FF0546202D05D1042204
:10493000314600A8FFF7DAFF06E0102D16D102225B
:10494000314600A8FFF7D2FF002000E0401CA8423B
:104950000EDA015D7829F9D0009A2B465B1E1B1AEE
:10496000DA4002F0010230398A42EFD0002076BDF1
:10497000012076BDDFF80016016006207047A0F127
:104980000060B0F53E3F01D801207047002070471D
:10499000F8B504460D46002000902068FFF7EFFFB1
:1049A00000281AD000A8FFF7E5FF0646002700E020
:1049B0007F1CB74211D2009850F8371000EBC700A7
:1049C000406840422268520810EB4200FFF7A5FF02
:1049D0000028EDD02F600120F2BD0020F2BDF8B517
:1049E0000C46DFF898150A6D4B6D002559082E46C8
:1049F0005F1B062F11D3482707FB01273F6C874217
:104A000000D20D46B84200D20B46E9184908374695
:104A10007E1C1F2FECD300E06D1C9D4211D2482755
:104A200007FB05210E6CB042F6D34E6C8642F3D3E1
:104A30004022204605F0EAFA002084F840000120D8
:104A4000F2BD40220FF20061204605F0DFFA00209F
:104A5000F2BDF0B591B0044600250EE032590FF2D8
:104A6000F45100A805F0B8FA00A8FFF79FFE02462F
:104A700000A9381D05F0CAFA6D1C05EBC500C6007B
:104A8000305900280BD0371900A9FFF7A8FF0028DC
:104A9000E4D0402200A9381D05F0B8FAECE711B0C7
:104AA000F0BDF8B507460C46154600263046009086
:104AB000002F1ED0002C09D1F2BD06EBC600C000AD
:104AC00057F8041B490849004151761C0C2E0FD29F
:104AD00000A93846FFF75CFF002807D13868FFF7C8
:104AE0004EFF002802D13F1DBC42F1D2BC42E4D2AD
:104AF0003046F2BD70B5DFF888140A460B68D21A4A
:104B00001368DFF88044A34201D0002070BDDFF8B5
:104B10006C44121D22650968091F4822B1FBF2F19D
:104B2000616510F1030F02D010F1130F0AD1DFF805
:104B30005854A86805F0A0FA0646A86805F0A8FA37
:104B4000811905E005F0B2FA054605F0B1FA411900
:104B5000DFF83854A069286005F14802A06AFFF721
:104B6000A0FF2846FFF775FF012070BD0EB430B5D9
:104B7000CCB0044600A84FF49671FFF7F5FD002570
:104B80004FAB22464FF4967100A8FFF7F1FD00A845
:104B9000FFF70CFE044609E0DFF8E013C86D421C85
:104BA000CA6500A9695C05F0EBFA6D1CA542F3D358
:104BB0004CB030BC5DF810FB38B50024DFF8BC53B6
:104BC000E8650FF29840FFF7D1FFDFF8C4030168F2
:104BD0000FF2AC40FFF7CAFFA86C0090AB6B6A6B9A
:104BE000296B0FF2B440FFF7C1FFE96C0FF2E04010
:104BF000FFF7BCFF6A69A9690FF2E840FFF7B6FF4B
:104C00000FF2F840FFF7B2FF06E01018021D0FF296
:104C10000450FFF7ABFF641C04EBC400C200DB4888
:104C200011580029F1D10FF2F840FFF79FFFA86D4E
:104C3000441E002505E00918BBA0FFF797FF641E7E
:104C40006D1C3C2D09D2002C00D53B24322000FBEA
:104C500004F1D0480A5C002AEDD131BDCE48CF49DD
:104C60000A6802604A6842608A688260CA68C260F4
:104C70000A6902614A6942610A7E8261097F816133
:104C8000C7490A7882614A6842628A688262CA6851
:104C9000C2620A6902634A6942638A698263CA69B5
:104CA000C2638A6EC0F88820BE4A9369C0F8983003
:104CB000D368C0F88C301369C0F890305369C0F8DD
:104CC00094300B6FC0F89C304B6FC0F8A0308B6FE6
:104CD000C0F8A430C96FC0F8A810B3490968C0F87B
:104CE000AC10B2490B68C0F8CC304B68C0F8D0307B
:104CF0008B68C0F8D430CB68C0F8D8300969C0F8E8
:104D0000DC105168C0F8E8101168C0F8E410704772
:104D100070B506460C46994D6FF01E01401A14D02E
:104D2000083812D0001F05D0001F0ED008380CD054
:104D3000001F10D104F120002862EFF3148040F02E
:104D40000200E862286AA86205E004F120002862F7
:104D5000EFF31480E862EFF308806862EFF30580F8
:104D60002863EFF300806863FFF7C6FDA863EFF3E5
:104D70001080E863EFF311802864EFF31380686418
:104D8000F1EE100AA864EE64002004E054F820104C
:104D900045F82010401C0828F8D370BD70B5774C3A
:104DA000A16D3C2901D30021A165A56D3221794A6D
:104DB00001FB05260A4601463046FFF797FD002015
:104DC00086F83100681CA06570BD70B50146744658
:104DD0002046FFF79DFFFFF741FF2046FFF78AFEC1
:104DE00000F09AF8002832D100F034F805F068F9A4
:104DF000F32005F0DFF96E484FF00054002505E080
:104E00002178641C05F0BCF930466D1C461CB5F5D4
:104E1000C03FF5D3532105F0B3F95221304605F0D8
:104E2000AFF9741C4121204605F0AAF9641C4D21FC
:104E3000204605F0A5F95F48C046C04604F10D00C4
:104E4000FFF7BAFE05F045F95B4800F01FF8BDE832
:104E5000704054E510B505F033F9F32005F0AAF9D8
:104E6000564C3820206002E020680830206020681E
:104E7000402807D2002105F032F90928F4D0FFF7C5
:104E80003EFDFCE7BDE8104005F023B938B5044607
:104E900005F016F9F32005F08DF93D48016820462C
:104EA00005F052F9241DFF21204605F069F9641C24
:104EB000404D6979204605F063F9641CE978204685
:104EC00005F05EF9641C2979204605F059F9641C47
:104ED0002978204605F054F9641C6978204605F0CD
:104EE0004FF9641CA978204605F04AF9F521601CA9
:104EF00005F046F9BDE8314005F0EBB880B505F0A6
:104F0000DFF8F32005F056F9AA212D4805F038F90D
:104F1000BDE8014005F0DDB8002029490978F529F0
:104F200000D101207047000025730A0010B5044627
:104F3000FFF73CFCC0B2142800DB132002462146D8
:104F40002048FFF7D3FC4FF0AC30007810BD80B59F
:104F500000F049F8BDE80140D1E480B5FFF7CEFF8D
:104F60004FF4C83212490020BDE8084001F0B0BF3C
:104F70000CED00E00400FA05D87B0020C81C0120DD
:104F8000FC4F0508FECAFECA087C002094EA0020F7
:104F9000E47C002090B20020EC0B012000ED00E04A
:104FA00020ED00E004E000E0A0ED00E034EF00E0E0
:104FB000000006089C2D0120F4FF0708442E012064
:104FC000FFFF0708B02B012010B500F01BF80FF20F
:104FD00070142046FFF7EAFB024621460020BDE898
:104FE000104001F075BF80B501214FF4802003F01F
:104FF00002F9012003F0CEFC94210F20BDE804400B
:1050000003F06BBE80B501214FF4802003F0F3F86C
:10501000012003F0BFFC00210F20BDE8044003F095
:105020005CBE10B5002401214FF4802003F0E3F8AA
:10503000012003F0AFFC0F2003F05CFE942800D1A8
:105040000124204610BD00004E6F2053796D626F21
:105050006C00000030782530387800000A0A0A0A0F
:105060003D3D2043726173682044756D7020496E28
:10507000666F726D6174696F6E203D3D0A000000BD
:105080004669726D776172652056657273696F6EDD
:10509000203A2025640A00000A49505352203D203E
:1050A000307825782C2041505352203D20307825EF
:1050B000782C2078505352203D20307825782C20B1
:1050C0005046534352203D20307825780A00000096
:1050D0000A6661756C74206D6F6465203D203078C0
:1050E000257800000A5043203D20307825782C2078
:1050F0004C52203D20307825780A00000A3C43724B
:105100006173682043616C6C20537461636B3E0A69
:105110000000000030782578202025730A00000068
:105120000A0A3D3D20526563656E74204C6F67200E
:105130004D65737361676573203D3D0A0000000093
:10514000534E414D590000000000000038B5FFF7F4
:10515000B6FBDFF830068468DFF82806002101710D
:10516000FFF7A7FB002C2CD02068002829D0607CFA
:105170002168497CC0B2814223D1256800E00D003E
:105180002968002903D04A7CC0B28242F7D0FFF7D9
:1051900096FBDFF8F0050069A04203D1DFF8E405D3
:1051A00021680161E06921680160C861E5612968E1
:1051B0002160002900D0CC612C6095F8410085F871
:1051C0004000FFF776FB31BD10B5FFF778FBDFF845
:1051D000B8050468DFF8AC05006A201A012832DA45
:1051E000DFF8A005046A04E0DFF898050462FFF721
:1051F00060FBDFF898050078C00722D5FFF75FFB5A
:10520000DFF8880500788007EED5DFF880050078A4
:1052100010F0FD00DFF874150870FFF74AFBDFF8A7
:105220006405006A8442FAD0DFF858050462DFF8AA
:1052300058050068401CDFF850150860DFF8441579
:105240004862FFF73CFB10BD38B504000020A07198
:10525000206A10F57A606062E069002802D02000C0
:10526000E1698847FFF725FBE56809E0E868616ABE
:10527000401A002801D5E8686062FFF71AFB2D6824
:10528000002D1AD0FFF71BFB2069002804D0687C92
:105290002169497C884212D3287C4007EDD5E86813
:1052A000216A401A0128E1DA280000F09EF9FFF790
:1052B00006FB287C0028D9D101E0FFF700FB31BDB7
:1052C00070B50400002060700120207004F0EEFE34
:1052D0000078C0B2CD2802D07D20FFF783FAA06805
:1052E00000280CD0A068406C002808D0A068406C52
:1052F00001680800002802D0A0684068884794F838
:10530000290000280BD0A06894F8281080F84010DD
:10531000DFF870040079002801D0FFF717FFDFF8ED
:1053200070040078002823D0DFF868040068DFF8F4
:105330005414096A401A002804D5DFF854040021E7
:10534000017015E0FFF7BBFA04F0F8FF0500FFF766
:10535000B0FAA068002808D0A068406B2818DFF8D1
:1053600038140968401AA1684863DFF82C04056006
:10537000A068002808D0A068007C002804D1A0689C
:10538000006B401CA1680863206900282BD003E053
:1053900030682061FFF78DFAFFF791FA2669002E39
:1053A00027D0357CEDB2002D23D0680710D5F068EA
:1053B000216A411A012906DA300000F016F9307C22
:1053C000002805D10FE0616A411A002900D560620A
:1053D000EDB215F0FB001028DAD1B06880684068A3
:1053E000007C0028D4D1FFF76AFA02E02000FFF722
:1053F0002BFFA0790028F9D1DFF890030078C007CF
:1054000001D5FFF7E1FE002060712069002839D046
:105410002069007C002805D0206980688068406889
:10542000A06001E02069A060A06890F84C006428AA
:1054300002D08020FFF7D6F9A068806A0078CD28D6
:1054400002D07820FFF7CEF9A068406C002808D081
:10545000A068406C41680800002802D0A06840683D
:105460008847A06890F8400084F8280084F8290054
:10547000DFF810038068C06A401CDFF808138968F1
:10548000C8620BE0002084F82900002084F828007E
:105490000020A06000202070FFF70BFA200070BDF4
:1054A00080B504F079FFDFF8F4120978002806D0FF
:1054B000022810D009D3042815D010D314E00029F5
:1054C00002D0A320FFF78EF911E0002902D1A42019
:1054D000FFF788F90BE0A620FFF784F907E0A72083
:1054E000FFF780F903E002E0A820FFF77BF901BD98
:1054F00010B504F051FF0400DFF8A0020078002886
:1055000002D0A020FFF76EF9002C05D0022C08D0A5
:1055100003D3032C09D00CE00EE0A420FFF762F9BE
:105520000AE0A620FFF75EF906E0A720FFF75AF988
:1055300002E0A820FFF756F910BD80B504F02CFF5B
:10554000002805D0022808D006D3032809D00CE093
:10555000A320FFF747F90BE00AE0A620FFF742F986
:1055600006E0A720FFF73EF902E0A820FFF73AF98E
:1055700001BD80B5DFF80C020078002802D1972029
:10558000FFF730F9DFF8FC010078401EDFF8F41176
:105590000870C0B2002827D1DFF8E8014068002871
:1055A00022D0FFF78CF9DFF8DC01406800280BD02F
:1055B000DFF8D00101210170DFF8C801FFF769F9B8
:1055C000DFF8C00100210170DFF8B8014078F02158
:1055D000084202D09920FFF705F9DFF8A8014078CA
:1055E000002801D1FFF765F901BD10B581680029D8
:1055F0000CD0DFF89011096AC16081680A684968B7
:10560000002A00D051600A6000218160017C11F005
:1056100003010174C9B2002945D1DFF86811096995
:10562000002929D1DFF85C110861DFF85801007802
:1056300000280CD1DFF84C0101210170DFF8440192
:10564000FFF727F9DFF83C010021017003E0DFF8E4
:10565000340101214171DFF82C014078F02108422A
:1056600002D09920FFF7BEF8DFF818014078002833
:1056700001D1FFF71EF916E0427C4B7CD2B2934277
:10568000D0D38142D1D04B7CD2B29A420BD103000D
:10569000FFE71B68002BDED05C7CD2B2A242DAD1DD
:1056A0008B42F6D1BEE710BD10B50400627C3548D0
:1056B0000078401C33490870394800E00800016850
:1056C000002903D04B7CD2B29A42F7D32160E0612B
:1056D000046000290AD0CC61487CD2B2904202D149
:1056E00094F8410000E0002084F84000207C00286D
:1056F00012D1FFF7E4F82000FFF777FF2148407848
:10570000F021084202D09920FFF76CF81D4840783C
:10571000002801D1FFF7CDF8FFF72BFF10BD10B522
:105720001848047817480078401C16490870154836
:10573000FFF7AFF81348047012484078F021084290
:1057400002D09920FFF74EF80E484078002801D18A
:10575000FFF7AFF810BD10B504F024FE0948012191
:10576000017004F0A3FC04006846C046021B203A06
:10577000012A03DBCD212000FCF770FD094801213F
:10578000017010BD087C0020842E0120D82E01203D
:10579000D92E01209C2E0120882E0120DA2E0120F6
:1057A000147C0020DC2E0120506002604160086003
:1057B00070470A68F8E74860016070470168406810
:1057C000F9E7F8B50600DFF89C5802D505F1580056
:1057D000F2BD05F158040020296F00E0096805F1C9
:1057E0007002914204D00C46A2689642F6D1012084
:1057F000002840D1A86FD0F88070182004F0F6FD82
:105800000446A660002F05D0B74203D2B6FBF7F0DE
:10581000784300E03046E060002F02D0B74200D26B
:105820003E46266100202075DFF83C683078401C39
:1058300030707078F021084202D09920FEF7D2FF34
:10584000FFF73DF87078401C707005F1700120463C
:10585000FFF7AFFF7078F021084202D09920FEF7E1
:10586000C1FF7078401E7070C0B2002801D1FFF7F0
:1058700020F8FFF77EFE2046F2BD38B5044694F9C5
:105880001400002829D1DFF8E0572878401C287040
:105890006878F021084202D09920FEF7A3FFFFF7B5
:1058A0000EF86878401C68702046FFF787FF204696
:1058B00004F0B4FD6878F021084202D09920FEF788
:1058C00091FF6878401E6870C0B2002801D1FEF7D1
:1058D000F0FFBDE83140FFF74CBE31BDF8B50446DE
:1058E00008466FF00045FFF76CFF064694F9050087
:1058F00094F90410814214D1C01C800004F076FD9C
:10590000074694F90500012807DB82002168384624
:10591000FEF7ECFF206804F081FD27606079C01C71
:10592000607194F90400411C2171216841F82060E4
:10593000DFF83807864202D0307D401C30750020E9
:1059400008E0216851F820108A68954201DB15466D
:10595000A160401C94F904108842F2DBF1BDF8B557
:1059600004466FF00046DFF8FC2602F1580502F10C
:1059700058004FF0FF33002704E0664501DB664620
:1059800075467F1C94F904C067450DDAD4F800C051
:105990005CF827E0DEF808C0002BEED58C45ECD192
:1059A00070463B465BB2ECE7002B11D4BCF1010F13
:1059B0000EDB06E0216801EB8306766841F8236080
:1059C0005B1C94F904104E1EB342F3DB491E217197
:1059D00002F15801884204D0017D491E0175FFF78C
:1059E0004CFFA560F1BD10B4C26A836B406C9C682B
:1059F000002C02D56FF0004300E01B698468002C86
:105A000002D56FF0004000E00069984200DD1846C2
:105A1000D2685143884201DB012000E0002010BC25
:105A2000704738B5DFF83C168A6FD36E012490F9C1
:105A30000850AC402343D36601F66C11FFF7B9FE62
:105A4000012032BD10B5DFF81C16896FCA6E012324
:105A500090F90840A3409A43CA66FFF7AFFE0120C1
:105A600010BD01207047F8B5044615461E4604F1E6
:105A70002400FFF733FF06EB460004EB80072946BE
:105A800007F13000FFF72AFF97F934000090334602
:105A9000627A94F908100FF2D850FCF783FCF1BD3C
:105AA000F8B5044615461E4604F12400FFF757FFDB
:105AB00006EB460004EB8007294607F13000FFF7AC
:105AC0004EFF97F9340000903346627A94F908103B
:105AD0000FF2AC50FCF766FCF1BDC16A8A68012A7E
:105AE00009DB0969012906DA006D002801D50020CB
:105AF0007047022070470020704701EB410200EB25
:105B00008201896B8A68012A09DB0969012906DAA1
:105B1000006D002801D5002070470220704700204A
:105B20007047002900D5D8E7E7E7012900DA01210D
:105B300013460A4697E7012900DA012113460A466F
:105B4000AEE7DFF82005C06A417A481E8041C00FE9
:105B5000704713464FF0FF32114684E713464FF06B
:105B6000FF3211469CE780B5DFF8F8040068417AFF
:105B7000002902D1006E40688047012002BD80B537
:105B8000FFF760FFDFF8DC040068417A002902D1EA
:105B9000006E80688047012002BDB1F57A7F01DC8C
:105BA0004FF47A7113460A464FF4FA715BE7B1F588
:105BB0007A7F01DC4FF47A7113460A464FF4FA718A
:105BC0006EE710B50446002922D5E06A81680129F4
:105BD0001CDB0069012819DA02212046FFF703FFC8
:105BE000002813D194F9540010F1010F04D10020C2
:105BF00084F85400012010BD002807D101206077EF
:105C00004FF0FF3084F85400022010BD002010BD7A
:105C1000BDE8104071E74FF0FF3280F8542000E7F4
:105C2000C92900DAC82113460A4642211BE7C929BF
:105C300000DAC82113460A46422131E710B504466E
:105C4000002927D5E06A8168012921DB0069012844
:105C50001EDA03212046FFF7C6FE002818D194F96A
:105C60005400014611F1010F04D1002084F85400C2
:105C7000012010BD002803D1012084F8540010BD7C
:105C8000012905D14FF0FF3084F85400022010BDE7
:105C9000002010BDBDE810402FE74FF0FF3280F824
:105CA0005420DFF8C023926FD2F88020C8325242CD
:105CB0000265B6E6DFF8AC23926FD2F88020C832D6
:105CC00052420265ADE613464FF0FF321146CAE676
:105CD00013464FF0FF321146E2E680B5FFF7A1FE12
:105CE000FCF7DFFA00210175012002BD80B5FFF746
:105CF000A9FEFCF7D6FA00210175012002BD38B5D6
:105D0000D848C469856A687A002802D1607A002878
:105D100002D0206E40688047687A002804D1617AFA
:105D2000481E8041C00F32BD002032BD000000007F
:105D30002DE9F0410C46CB4D55F82060307206F14C
:105D400054070FF24C313961152800F22281DFE847
:105D500010F01600260032004A003E005600660091
:105D60007600A50085009500B500C500D300E000D1
:105D7000ED00FB000801150115011501150106F1E3
:105D80000800062141760A21817605F674114160EA
:105D900040F2DC5181600FF214303861F9E006F115
:105DA0000800062141760A21817605F6507141608E
:105DB00064218160EDE006F108000C21417610219C
:105DC000817605F6C871416010218160E1E006F13D
:105DD0000800072141760B21817605F6BC714160F0
:105DE0000B218160D5E006F10800062141760A21E9
:105DF000817605F6D87141600A218160C9E006F11B
:105E00000800062141760A21817605F6E471416099
:105E10004FF4FA7181600FF2E8203861B9E006F1C1
:105E20000800262141762A21817605F58851D8314E
:105E300041602A2181600FF238303861A9E006F113
:105E40000800032141760721817605F591514160D3
:105E5000072181600FF2E02038619AE006F1080026
:105E60000C2141761021817605F590511031416069
:105E7000102181600FF2A42038618AE006F1080049
:105E8000022141760621817605F590512831416045
:105E9000062181600FF2BC2038617AE006F108002B
:105EA000052141760921817605F59051091D416052
:105EB000092181600FF22C2038616AE006F10800A8
:105EC000062141760A21817605F5905130314160F5
:105ED0000A2181600FF2F01038615AE006F10800E3
:105EE000012141760521817605F590513C314160D3
:105EF00040F2866181604CE006F1080001214176A4
:105F00000521817605F5C051CC31416005218160C4
:105F10003FE006F108000C2141761021817605F55D
:105F2000C051D43141601021816032E006F1080097
:105F3000112141761521817605F5C051E43141608A
:105F400041F66631816024E006F1080011214176B6
:105F50001521817605F550514C3141601521816044
:105F600017E006F10800042141760821817605F545
:105F7000C051C4314160082181600AE006F1080087
:105F8000012141760521817605F6B4714160052134
:105F9000816006F108000021017541758175017667
:105FA000C1600161417006F128080846C8F8280060
:105FB0004FF0FF3086F854007880062206F1580032
:105FC000FCF74CF9002010E000EB400106EB8101EA
:105FD000002281F8342034314A7005F158024A60B9
:105FE00006EB800100228A64401C0228ECDB0020C2
:105FF00086F8280088F8010005F15800C8F8040068
:10600000FC60BDE8F08110B5164C04F017FAA067EB
:10601000002006E0682111FB00417C3144F820108B
:10602000401C1628F6DB4FF0FF302066606600202B
:10603000A06605F089FC06F085FA06F010FF07F06F
:10604000D3FB08F033FB07F096FE08F04FF908F099
:1060500097FB08F0C2FE08F098FBBDE8104008F07E
:10606000A5BB000008400020087C00206040002004
:1060700041442025642025642025642025640000F7
:10608000524D2025642025642025642025640000CD
:10609000635A0008235A0008635A0008455A00084A
:1060A0002B5B0008375B0008235B0008435B00089C
:1060B000235A0008435B0008455A00082B5B000880
:1060C000375B0008235B0008675B0008235A000861
:1060D000635A00087F5B0008535B00085D5B0008A3
:1060E000235B0008635A0008175C0008635A000825
:1060F000455A00089B5B0008AF5B0008C35B0008C3
:10610000635A00089B5C0008635A0008455A00085F
:10611000215C00082F5C00083D5C0008635A000801
:10612000B55C0008635A0008455A00082B5B00085C
:10613000375B0008235B0008635A0008DB5C00083B
:10614000635A0008ED5C0008C75C0008D15C0008D9
:10615000235B0008635A0008235A0008635A0008AA
:10616000455A00082B5B0008375B0008235B0008DA
:10617000635A0008235A0008FF5C0008455A0008CB
:106180002B5B0008375B0008235B0008DFF8140E68
:10619000007870472DE9F0418AB004F04FF90446C9
:1061A000DFF8045E2E6842E096F9080007283DD02B
:1061B0000B283BDA062839D006F10807B86C00280E
:1061C00003D5D4F880100818B8644FF0FF3130467A
:1061D000FA6D926990478046B8F1010F04D197F8A3
:1061E0004C00B96D09698847B8F1020F0BD1797E6F
:1061F00038697A688018BA6D52699047002802D0D1
:10620000304608F009FF00213046FA6D9269904748
:10621000022801D10120B87501213046FA6D92693A
:106220009047022802D1304608F0A2FF3668AE42FD
:10623000BAD1D4E91C01002901D100280CD00A20D0
:106240008DF8080002208DF80000D4F88000ADF829
:10625000220000A801F0CCFD01200AB0BDE8F081C9
:1062600030B585B004460D46CA208DF80000288858
:10627000ADF801000220ADF80300BDF80100001DDB
:1062800004F0B4F8CDF8090002220DF10301FEF785
:106290002DFB02222946DDF80900801CFEF726FBB3
:1062A0002A882146DDF80900001DFEF71FFB0020AB
:1062B000288000A9DFF8F40C09F04CFA05B030BDD5
:1062C000C0F54060322801DA012070470020704795
:1062D00080B5FBF7E6FF407B002804D008F022FEE3
:1062E000DFF8CC1C086001BD80B508F01BFEDFF8AC
:1062F000C41C086001BDDFF8BC0C0068704718B40E
:1063000000F10C030422DFF8AC1C5C7DDB68C06884
:106310001818201818BCFEF7E9BA30B41488651CA8
:106320001580052565541488651C158063541388F1
:106330005C1C1480007A585430BC7047F8B50E4687
:1063400014461D4629884A1C2A8037220A55298866
:106350004A1C2A80027A0A5500F108077A7E78687A
:10636000311828880019FEF7C1FA2888797E40186C
:106370002880787E796871184058DFF8341C0968E5
:10638000401A0090042200A928880019FEF7AEFAEE
:106390002888001D288080B2FFF792FF002803D0D4
:1063A00029462046FFF75CFFF1BD2DE9F041044688
:1063B0000D4616461F46DDF8188008E043463A466B
:1063C00029462046FFF7BAFF94F822002D18B5425F
:1063D000F4DBBDE8F081F8B5044615461E46069F7D
:1063E00000972269FFF7E1FF2069854206DA0097EE
:1063F00033462A4600212046FFF7D7FFF1BD00F1C2
:1064000010018A688B7CD2188A600069824201D1AF
:106410000020886000208873704770B582B000F15A
:10642000140674684569002D07D500920B46224674
:10643000B17B6118FFF7CFFF73BDAC4200920B46F2
:106440002246294602DAFFF7C6FF73BDFFF7ADFF0C
:1064500073BD70B504460D461646FFF7DEFF0123F7
:10646000324629462046FFF758FFA069606170BD9B
:106470002DE9F84304460D46164603F0DFFF80463B
:10648000FBF70FFF81462046FFF739FF04F10807AD
:10649000386C012849DB99F80A00002821D0B87D22
:1064A000002866D000207864B87E3A69F9688B1AB3
:1064B000834205D0002910D1BB689B1A83420CD1BE
:1064C0003B7E002B06D000962B4682182046FFF715
:1064D00082FF02E04FF0FF30F8602046BDE8F24353
:1064E0008DE7786CD8F88010401A7864012815DAA6
:1064F000386C7864324629462046FFF78EFFB87D17
:10650000002808D033462A4639692046FFF716FF8F
:106510002046FFF774FF3869F8602AE0B87D00284C
:1065200027D02046BDE8F24369E7B87D002820D097
:1065300099F80A00002811D094F90800072813D10F
:1065400033462A4639692046FFF7F8FE7A7894F9EF
:1065500008100FF22400FBF725FF05E033462A461A
:1065600039692046FFF7EAFE2046FFF748FF386901
:10657000F860BDE8F1830000415020537573202579
:1065800064202564000000002DE9F04104460D461A
:10659000DFF8146A37681BE097F90800062811D164
:1065A00007F1080898F81910D8F81000D8F8042056
:1065B0008018D8F8582052699047002802D001204E
:1065C00088F816002A4621463846FFF751FF3F68F3
:1065D000B742E1D1BDE8F081F8B504460D46DFF8D9
:1065E000240CC6690FF23400FBF7DCFE06F10C0741
:1065F000797DF868F26880187A6D526990470028B2
:1066000009D00120B874707A002804D02A462146A7
:106610003046FFF72DFF0120F2BD00003D3E5055F2
:10662000500000000288D21C02800A80704780B5AA
:106630000B889B1AADF80030BDF80030002B09D054
:106640001018012100F8031C022200A9801EFEF789
:106650004DF901BD0888C01E088001BD2DE9F04F2D
:10666000ADF64C1D04460D4603F0E8FE0746FBF769
:1066700018FE804610A840F60811FEF775F80020B5
:106680008DF8020006A82821FEF76EF801A8142153
:10669000FEF76AF80020ADF800000646D7E91C01B5
:1066A000002902D1002800F0748398F9090009F04C
:1066B0002BFD002800F06D8300A92846FFF7B2FFEC
:1066C000B0461CE0D7E91C01424609F02FFF00F05C
:1066D000010011F0000101D100280ED008EB880064
:1066E000DFF8241B01EBC00292F90900012804D154
:1066F0000DF1020110A8126A904708F10108B8F1E3
:106700002C0FDFDB37461AE02888411C298099F8D6
:10671000021001552888FFF7D3FD00280DD0BDF8E1
:10672000002029462046FFF782FF29462046FFF732
:1067300097FD00A92846FFF775FF7F1C7FB29DF8E3
:106740000200874280F21D832988481C288040F27D
:10675000211010FB07F010AA825C0A5529884A1CF8
:106760002A8010AA00EB020898F801000855288832
:10677000411C298008F1010999F80110015599F887
:10678000010003281ED0092800F049810C2800F0E0
:1067900023811A2800F042821B2800F056811C2811
:1067A00000F070821D2800F063811E2800F05A82DC
:1067B000252800F09982262800F0D382282800F0AE
:1067C000AE82A1E798F80100032805D12888411C72
:1067D000298099F8021001552888411C298099F8D0
:1067E0000310015599F80300C0280DD1B8F83020E6
:1067F000D8F8321028880019FEF778F82888B8F8F9
:1068000030100818288085E7711C00064ED401A8B6
:1068100008F1040252783254C9B298F806200A549A
:10682000491CC9B200220A544A1C08F20601D2B21D
:106830004B781354521CB8F80E30D2B21E0A1654BC
:10684000521CD2B21354521C08F20E03D2B29E78DC
:106850001654521CD2B2DB781354521CD2B298F8A0
:1068600012301354521CD2B298F813301354521CE5
:10687000D2B28B781354521CD2B2C9781154511C25
:10688000C9B298F80A200A54491CC9B298F80B20DA
:106890000A544E1CF6B2324601A928880019FEF7A8
:1068A00025F8288850FA86F0288033E7D8F80520A4
:1068B00006A8130C3354C9B2130A0B54491CC9B2AD
:1068C0000A54491CD8F80920C9B2130C0B54491CAE
:1068D000C9B2130A0B54491CC9B20A54491CD8F84E
:1068E0000D20C9B2130C0B54491CC9B2130A0B5426
:1068F000491CC9B20A54491CD8F81120C9B2130C5A
:106900000B54491CC9B2130A0B54491CC9B20A548E
:10691000491CD8F82720C9B2130C0B54491CC9B222
:10692000130A0B54491CC9B20A544A1C08F2270125
:10693000D2B20B791354521CD2B24B791354521C5D
:10694000CB88D2B21E0A1654521CD2B21354521C17
:10695000D2B2097A1154511CD8F81520C9B2130CBF
:106960000B54491CC9B2130A0B54491CC9B20A542E
:10697000491CD8F81920C9B2130C0B54491CC9B2D0
:10698000130A0B54491CC9B20A54491CD8F81D20DB
:10699000C9B2130C0B54491CC9B2130A0B54491C3D
:1069A000C9B20A54491CD8F82120C9B2130C0B549F
:1069B000491CC9B2130A0B54491CC9B20A544E1CD3
:1069C000F6B2324606A928880019FDF78FFF2888FD
:1069D00050FA86F028809DE608F10301B1F9030022
:1069E000C0F3072242EA0020A1F80300B1F9070032
:1069F000C0F3072242EA0020A1F80700B1F9050020
:106A0000C0F3072242EA0020A1F8050009222888E5
:106A10000019FDF76BFF2888093028807AE628885E
:106A2000034698F80110032909D1022208F1030155
:106A30001819FDF75BFF2888801C28806AE6401C37
:106A4000288099F80200185564E62888411C29809E
:106A500099F80210015598F8010005287FF45AAE04
:106A60002888411C298008F104014978015551E624
:106A700008F1030998F80100012840F0BF80288838
:106A8000411C298099F8041001554FF0000A9CE040
:106A90001B2010FB0A9BDBF80C20DBF808100FF220
:106AA000FC20FBF77FFCDBF81800010221F0FF114E
:106AB000000A00F0FF100843CBF818004FEA3040FE
:106AC000CBF8180004220BF1180128880019FDF7F3
:106AD0000DFF2888001D2880DBF80800010221F046
:106AE000FF11000A00F0FF100843CBF808004FEA3E
:106AF0003040CBF8080004220BF108012888001967
:106B0000FDF7F4FE2888001D2880DBF80C00010248
:106B100021F0FF11000A00F0FF100843CBF80C0031
:106B20004FEA3040CBF80C0004220BF10C0128880E
:106B30000019FDF7DBFE2888001D2880DBF8100017
:106B4000010221F0FF11000A00F0FF100843CBF80A
:106B500010004FEA3040CBF8100004220BF1100176
:106B600028880019FDF7C2FE2888001D2880DBF860
:106B70001C00010221F0FF11000A00F0FF10084381
:106B8000CBF81C004FEA3040CBF81C0004220BF17C
:106B90001C0128880019FDF7A9FE2888001D2880FF
:106BA000BBF81600010A41EA0020ABF816000222E9
:106BB0000BF1160128880019FDF798FE2888801C23
:106BC00028800AF1010A5FFA8AFA99F804008245DE
:106BD000FFF65EAFB8F81B21D8F81D112888001900
:106BE000FDF784FE2888B8F81B1108182880B8F82B
:106BF0001B110FF2B810FBF7D5FB8BE505287FF4CE
:106C000089AD2888411C298099F8021001552888EF
:106C1000411C298099F8031001557BE508F1030117
:106C200098F80100032805D12888421C2A8098F88A
:106C30000A200255D1F80100020222F0FF12000AD8
:106C400000F0FF101043C1F801004FEA3040C1F8D6
:106C50000100072228880019FDF748FE2888C01D7A
:106C6000288057E508F103010888020A42EA00205B
:106C70000880022228880019FDF738FE2888801C29
:106C8000288047E508F1030098F8011001297FF4F6
:106C900041AD99F80210012918D129884A1C2A808F
:106CA00000780855B8F80420D8F80610288800198C
:106CB000FDF71CFE2888B8F8041008182880B8F8DA
:106CC00004100FF2FC00FBF76DFB23E502297FF4B3
:106CD00021AD29884A1C2A8002780A5529884A1C35
:106CE0002A80C079085515E52888411C2980B9F803
:106CF000021001552888411C2980B9F90210091297
:106D00000155B9F90220D8F8051028880019FDF7B7
:106D1000EDFD2888B9F9021008182880FAE42888BF
:106D2000411C2980B9F8021001552888411C29808E
:106D3000B9F90210091201552888411C298008F16F
:106D4000040149780155B9F90220D8F806102888BD
:106D50000019FDF7CBFD2888B9F902100818288022
:106D6000D8E408F103010888020A42EA00200880FA
:106D7000022228880019FDF7B9FD2888801C288088
:106D8000C8E4BDF8002029462046FFF750FC09F072
:106D9000E9F90DF64C1DBDE8F08F00004C54204E73
:106DA0004D47202564202564000000004F4A483AE2
:106DB00020415442442073697A653A2025640000DA
:106DC0004F4A483A20415044522073697A653A202C
:106DD000256400002DE9F04105460E46FBF761FAF7
:106DE0000746DFF8944D2078401C20706078F02131
:106DF000084202D09920FDF7F5FCFDF760FD6078B0
:106E0000401C607097F81880B8F1000F26D03088C9
:106E1000404480B2FFF754FA002803D03146284698
:106E2000FFF71EFA3088411C31800321415530881C
:106E3000411C318000F80580424607F11901308875
:106E40004019FDF753FD308840443080FF22002177
:106E500007F11900FBF702FA002038766078F0217C
:106E6000084202D09920FDF7BDFC6078401E60709A
:106E7000C0B2002801D1FDF71CFDBDE8F041FEF7CE
:106E800078BB38B504460D46FBF70BFA817A00292A
:106E900009D1417B002906D129884A1C2A80062273
:106EA0000A550121417331BD38B504460D46288885
:106EB00000280CD02046FFF78DFF29462046FFF71B
:106EC000E0FF29462046BDE83440FFF7C9B931BD8F
:106ED00014B585B0049101A90022134614461CC1C3
:106EE0000A21ADF8001004218DF804108DF805007A
:106EF0000A4605A90DF10600FDF7F8FC042204A9D5
:106F00000DF10A00FDF7F2FC00A901A8FFF7A8F9AE
:106F100006B010BD80B5FBF7C4F94FF49671FBF7CE
:106F2000ACFB07208DF802000120ADF8000000A99D
:106F30000DF10200FFF794F901BD2DE9F041DFF8F2
:106F40003C4C6068002828D0218888421FD003F07C
:106F50004DFA054666682788A6EB07081FFA88F8E9
:106F60004246381900F108012846FDF7BFFC3A46B1
:106F700004F1080108EB0500FDF7B8FC324629468C
:106F800004F10800FDF7B2FC284603F047FA6268F6
:106F900004F108010520FFF79BFF002060602080BE
:106FA000BDE8F081D42E01207449002074A6002091
:106FB000742E0120782E012080B503F03FFA0621BF
:106FC00080F884108430417007218170C170017194
:106FD00001BD2DE9FC4105460F469046FBF761F9DE
:106FE0000026D5F809100C1D2A78114601295BD01E
:106FF0000F2932D0352936D0802900F081808129AF
:1070000000F08880822900F08580852900F0828048
:10701000862900F07F8088297CD08A2900F0828030
:107020008B2900F09B808C2900F0A7808D2900F02F
:10703000AF80DD2900F0B980DF2900F0CF80F02992
:1070400014D0F4291DD0F62923D0F82941D0F929EC
:107050002FD0FF2900F0A18059E0807D2070FFF73C
:10706000ABFF012054E00120207051E00422DFF842
:10707000101B2046FDF73AFC0120FDF7DBF901204B
:1070800046E0042200F110012046FDF72FFC01200C
:107090003EE0032221463046DFF8E83A9B681B6E4B
:1070A0001B6A9847012033E0204609F06DFA012061
:1070B0002EE0B5F80120B5F80300C010C0EB0011B8
:1070C000D5F8050000EB81112046FDF70FFC0120EB
:1070D0001EE03046ADF8040001206979012900D195
:1070E0000320FCF72EFCFCF768FCADF80400FCF76D
:1070F0007BFC022201A92046FDF7F8FB012007E0F6
:10710000D5F8050020702146304608F0DEF83046FC
:10711000BDE8F68130462070214602F07F0008F07D
:10712000D4F8F4E701202070DFF8580A45683746A4
:10713000287F002801D13046EAE7687A002803D189
:10714000286E4068804707462046296EC9698847EF
:10715000002FDCD0286E80688047D8E70120B5F882
:107160000310C1F3C101091D884040F002002070E6
:107170002146012008F0A9F8C9E701782170C178FB
:1071800061704179A1708079E07001202071BFE7C2
:10719000204609F00DFA0646B9E704F10802211D60
:1071A0002046FDF7F7F90120B2E76879DFF8D41936
:1071B00051F82050687A00280CD0424639462846BB
:1071C000FFF747F9DFF8C019082009F0B3FA0120EA
:1071D000207001E030462070012099E76879DFF8DF
:1071E000A41951F82050286995F8221090FBF1F06D
:1071F000401E0090042200A92046FDF777FB0120E5
:1072000086E700000840002048BE0020F0B593B09B
:107210000646FBF746F8054603F010F9D6F80910C4
:107220000C1D3178002208924FF0FF320992174668
:107230000A46A12A00F04281A22A00F06181A42A14
:1072400000F06C81B12A00F0E182B22A00F0528491
:10725000B82A00F07E81C12A00F0A681CD2A00F074
:107260007F80CE2A00F09480D02A38D0D12A2ED028
:10727000D22A39D0D32A40D0D42A42D0D62A4DD0CF
:10728000D72A4BD0D82A51D0D92A4FD0DB2A00F0A8
:107290000081DC2A00F00481F12A4FD0F22A00F0AC
:1072A0008F80F32A00F0D380F52A00F0AB80F72A14
:1072B00000F0BE80FA2A00F05484FB2A00F04484D7
:1072C000FD2A00F0AA80FE2A00F04D8497E00021FC
:1072D0002846FBF710FAFFF730FE012090E000206F
:1072E000FDF7A8F801208BE001212846FBF703FAFF
:1072F000012009F06FFA012082E00020A87201202D
:107300007EE00120A87200206873E87A002840F02F
:107310002884012009F05EFA00F023BCD62901D1AF
:10732000012000E00020E872012069E0D92901D1A4
:10733000012000E000202873012061E000210329E2
:1073400080F20F840A180B5D82F88430022905D17F
:107350000A5D80F887200A5D80F88820491CEEE7E6
:107360000025032D80F2FD83DFF81808466806EB40
:107370004506022204EB450106F15800FDF7B6FA76
:10738000B6F95810DFF80408FBF70CF86D1CE8E7B5
:107390000025032D80F2E583DFF8E807066806EB99
:1073A0004506022204EB450106F15800FDF79EFA5E
:1073B000B6F95810DFF8D807FAF7F4FF6D1CE8E7C4
:1073C000297C090640F1CD832178090201F4E061AE
:1073D00062788918A0F88A10A178090201F4E061A6
:1073E000E2788918A0F88C1004212046DFF8942751
:1073F000D269126E92699047002840F0B283002053
:1074000013B0F0BD032221460120DFF878379B68D6
:107410001B6E1B6A98470120F2E71B2221460720BA
:10742000DFF860379B681B6E1B6A98470120E7E70F
:10743000DFF850078669306E806880470028DED00C
:10744000012221460520336E1B6A9847D7E7217831
:1074500080F88E1090F88E00002806D04FF48051EE
:107460000020FBF781F90120CAE7DFF81807C1699E
:10747000497A826A527A51188069407A4018C0B2BB
:10748000002840F06E834FF480510020FBF76EF926
:1074900067E3D6F80510DFF8FC06FAF783FFAEE7DE
:1074A000FDF73AFD002802D0FDF757FDA7E7FDF7ED
:1074B000B8FD0028A3D0FDF787FDA0E794F90050A0
:1074C0000422611C08A8FDF711FAB6F8010006288D
:1074D00006DB0422611D09A8FDF708FA94F909707A
:1074E000042D04D1DFF89C060069A17A817200970F
:1074F000099B00220899284607F043FF20707EE789
:1075000094F900500422611C08A8FDF7EFF900234C
:107510001A460899284607F0BDFF71E794F9005014
:107520000422611C08A8FDF7E1F9B6F8010006285D
:1075300006DB0422611D09A8FDF7D8F994F909704A
:107540000097099B00220899284608F002F820704D
:1075500055E720780146032906D01A2911D025299C
:1075600013D0282915D018E060788DF80A0001287A
:1075700040F0F782A0788DF80B00204600F0EEFB7B
:10758000EFE2204600F0EAFBEBE2204600F0E6FBEB
:10759000E7E2204600F0E2FBE3E294F9011040B29A
:1075A00008F082FEC0B22BE7207801460E3908D0E1
:1075B000091F03291CD9091F37D0491E00F09B80E1
:1075C0000EE10E208DF8080060788DF80A00A17891
:1075D0008DF80B10E2788DF80C200023ADF80D30FB
:1075E00052B249B240B2FBF7D7F800F0AEFBF7E079
:1075F0008DF80800122802D161788DF80A1013283E
:1076000002D161788DF80B10142802D161788DF8C1
:107610000C10152802D160788DF80A006278217864
:10762000DFF87405FAF7BEFEDAE06078A1780904A5
:1076300001EB0060E17800EB012021794018CDF8E2
:107640000A006079A179090401EB0060E17900EB9F
:107650000120217A4018CDF80E00607AA17A090441
:1076600001EB0060E17A00EB0120217B4018CDF8AE
:107670001200607B8DF81600A07B8DF81700E07B70
:107680008DF81800207C8DF81900607C8DF81A00A8
:10769000A07CE17C11EB002000B20146ADF81B108C
:1076A000217D00EB0120617D4018ADF81D00A07D1B
:1076B0008DF81F00DDF80A00002807D1DDF80E0064
:1076C000002803D1DDF81200002809D00DF10A01CD
:1076D00084B068461622FBF7ABF90FBCFBF704F940
:1076E0000DF10A0184B068461622FBF7A1F90FBC20
:1076F00000F058FB74E060788DF809001D283ED139
:10770000A0788DF81300A07801280ED1E0782179B7
:1077100011EB0021ADF80A1089B20A469DF8091054
:107720000FF27C40FAF73EFE5AE002280BD1E078D7
:10773000217911EB0021ADF80C1089B20FF27040E5
:10774000FAF730FE4CE003280BD1E078217911EBF9
:107750000021ADF8141089B20FF26040FAF722FE52
:107760003EE004283CD1E078217911EB0021ADF80E
:10777000161089B20FF25040FAF714FE30E02628B6
:1077800009D1A0788DF80E00A078012828D1E078E2
:107790008DF80D0024E01C2822D1A0788DF80D0072
:1077A000A078012807D1E1788DF80A100FF2244063
:1077B000FAF7F8FD14E0022807D1E1788DF80B10F4
:1077C0000FF22440FAF7EEFD0AE0032808D005285E
:1077D00006D1E1788DF80C100FF22040FAF7E2FDA7
:1077E00006208DF8280020780B900DF1310002A9B9
:1077F0001822FBF71DF90B208DF830000020ADF8A2
:107800004A000AA800F0F4FAC0B2F9E594F90000C1
:1078100007F0EBFF012840F03F8120780146032963
:1078200024D0062961D0092927D00C2941D00D295F
:107830004DD019297DD01A2964D01B2900F08E80E3
:107840001C2900F0C9801D2900F0A1801E2900F02C
:10785000D080252900F0E980262900F0D88027294A
:1078600000F0EA80282900F00E8110E10322611C5B
:107870000DF10A00FDF73AF80EE10722611C0DF147
:107880000A00FDF733F8BDF80A00010A41EA0020BA
:10789000ADF80A00BDF80C00010A41EA0020ADF87D
:1078A0000C00BDF80E00010A41EA0020ADF80E0000
:1078B000F2E00322611C0DF10A00FDF717F8BDF894
:1078C0000B00010A41EA0020ADF80B00E4E00322BE
:1078D000611C0DF10A00FDF709F8BDF80B00010A63
:1078E00041EA0020ADF80B00D6E00122611C0DF149
:1078F0000A00FCF7FBFF9DF80A100FF21430FAF7AC
:1079000051FDC9E00822611C0DF10A00FCF7EEFFF1
:10791000BDF80D00010A41EA0020ADF80D0000237A
:107920009DF911209DF910109DF90F00FAF734FF11
:10793000B2E00622611C0DF10A00FCF7D7FFBDF88A
:107940000A00010A41EA0020ADF80A00BDF80E0065
:10795000010A41EA0020ADF80E009DE00422611CFE
:107960000DF10A00FCF7C2FFBDF80A00010A41EA66
:107970000020ADF80A00BDF80C00010A41EA002021
:10798000ADF80C000FF29420FAF70CFD84E0092208
:10799000611C0DF10A00FCF7A9FFBDF80A00010AFD
:1079A00041EA0020ADF80A00BDF80C00010A41EAE6
:1079B0000020ADF80C00BDF80E00010A41EA0020DD
:1079C000ADF80E0000239DF912209DF911109DF9CC
:1079D0001000FAF7E1FE5FE060788DF80A00A07809
:1079E0008DF80B00A27861780FF23C20FAF7DAFCF0
:1079F00052E00322611C0DF10A00FCF777FFBDF88D
:107A00000B00010A41EA0020ADF80B0044E005221A
:107A1000611C0DF10A00FCF769FFBDF80B00010ABB
:107A200041EA0020ADF80B0036E00922611C0DF19F
:107A30000A00FCF75BFF2FE00A22611C0DF10A002F
:107A4000FCF754FFBDF90A00C0F3072141EA00200A
:107A5000ADF80A00BDF90C00C0F3072141EA00208F
:107A6000ADF80C00BDF90E00C0F3072141EA00207B
:107A7000ADF80E00BDF91000C0F3072141EA002067
:107A8000ADF8100008E060788DF80A0004E08DF889
:107A9000080060788DF8090020780146052906D194
:107AA0003E4801210170687A00280DD159E018295B
:107AB0000AD18DF8080060788DF80900A0788DF85B
:107AC0000A00E0788DF80B0000208DF8280020785F
:107AD0000B900DF1310002A91822FAF7A9FF0B2033
:107AE0008DF830000020ADF84A000AA800F080F9B7
:107AF000C0B285E42078052804D12848002101700F
:107B000001207DE41A280CD10522611C0DF10A0028
:107B1000FCF7ECFEBDF80D00010A41EA0020ADF8CB
:107B20000D0001208DF8280020780B900DF1310018
:107B300002A91822FAF77CFF0B208DF830000AA862
:107B400000F056F9C0B25BE42078002802D0052886
:107B500005D006E00FF2E000FDF7E8F901E0FFF7DD
:107B6000ECF901204CE404F10802211D2046FCF749
:107B7000C9FC012044E40000087C002024F100201E
:107B8000E47C002008400020E892002024BE020887
:107B900030BE02083CBE020848BE0208D42E0120B6
:107BA0004C542053502025642C20256400000000F4
:107BB0004C54205750202564000000004C542053A2
:107BC00052202564000000004C54205341522025CF
:107BD000640000005B415044525D204E545F535797
:107BE000554E2025640000005B415044525D204EFC
:107BF000545F545755532025640000005B415044A6
:107C0000525D204E545F4241544348202564000099
:107C100050443A2053432025640000004C54205324
:107C20005320414444000000415044522041444408
:107C3000202564202564000041505F524551554580
:107C40005354000069487047F8B50C4616460125A4
:107C500000282BD106EB8600644901EBC007F868C9
:107C6000E040C00708D52346FA6831460FF2FC20F1
:107C7000FAF798FB0220F2BD4FF0FF300090034668
:107C80002A467968204607F07CFB00280CD0234662
:107C9000FA6831460FF2E420FAF784FBF8682946C7
:107CA000A1400843F8602CE00220F2BD012828D151
:107CB00006EB86004D4901EBC007F868E040C007BD
:107CC00008D42346FA6831460FF2C020FAF76AFB5F
:107CD000032516E04FF0FF332A467968204607F067
:107CE000D9FB002807D02346FA6831460FF2AC20B2
:107CF000FAF758FB00E00325F8680121A14088430A
:107D0000F8602846F2BD08F0DBBA02B58AB000215F
:107D1000ADF8221001910A218DF8081000218DF88C
:107D200009108DF80A1005218DF800100190042229
:107D30000AA90DF10900FCF7D9FD0020ADF82200D9
:107D400000A800F055F80BB000BD80B509F0CCFAE2
:107D50000FF25820BDE80240FAF724BB38B544784A
:107D600085780078032810D01A281AD1012C18D150
:107D700001200AF0ACFE012322461A210FF238201E
:107D800001B0BDE83040FAF70DBB012C09D12846FF
:107D900009F0B5FA29460FF23020BDE83440FAF771
:107DA00001BB31BD0FB480B5002805D108460028BD
:107DB00002D11046002804D00BF047FCC046C04654
:107DC00001E00BF02BFC01BC5DF814FB00222C2819
:107DD00009D200EB8003054800EBC300C068C8402F
:107DE000C00700D5012210467047000048BE0020A1
:107DF00030B585B00446012594F90000062800F24C
:107E0000A180DFE800F00428445F76979B0004F12E
:107E1000090182B068461822FAF70AFE0CBC94F9F0
:107E20000810606840B207F084FE02280AD160683A
:107E300000B208F063F8002561680FF29810FAF7B5
:107E4000B1FA85E0032840F0838061680FF28C105E
:107E5000FAF7A8FA7CE060681A280AD104F1090050
:107E600008F0DDFA637B227BE17A0FF27810FAF7F3
:107E700099FA94F90810606840B207F05AFF032895
:107E800066D161680FF27410FAF78CFA60E0618CC9
:107E900000A808F04DF89DF9040002280AD10098C6
:107EA00000B208F02BF8002500990FF25810FAF7ED
:107EB00079FA4DE003284BD100990FF25010FAF7F0
:107EC00071FA45E00BF0DEFC02280AD1606800B2CE
:107ED00008F014F8002561680FF23810FAF762FA1A
:107EE00036E0032834D161680FF23010FAF75AFAFD
:107EF0002EE0606805280CD128460BF09CFD022876
:107F00000DD0032824D161680FF22010FAF74AFA45
:107F10001EE002281CD10BF07FFE0228F1D1606820
:107F200000B207F0EBFF002561680FF2F800FAF7E6
:107F300039FA0DE0204608F060F809E0204608F024
:107F40000DFA05E061680FF2EC00FAF72BFA002554
:107F5000284605B030BD012070470FB4022004B0A0
:107F6000704701207047002070477047534D4143D0
:107F7000202564202564202564000000534D412005
:107F8000256420256420256400000000534D5243E1
:107F9000202564202564202564000000534D5220D4
:107FA00025642025642025640000000050442053EF
:107FB000657453540000000041542052492D25643B
:107FC000202564202564000050442055542D25644C
:107FD00000000000414C4F4620256400414C4346C0
:107FE000202564004F4A4820454C203078257820D1
:107FF000307825782030782578000000524C4346B0
:1080000020256400504C4F4620256400504C4346C8
:108010002025640050414F462025640050414346CE
:108020002025640050504F462025640050504346A0
:10803000202564004558204C4D454C202564000007
:108040005FF0FF0C1CEAD05114BF614506E0C1107F
:10805000400721F0E04101F16051704779B900F02B
:10806000004100020AD0B0FA80FC00FA0CF001F1E5
:108070006051A1EB0C5101EBD0214005704741024A
:108080000CBF40F4E0016FF00001002070470000D9
:108090004FEAF17CBCF1E04C2CBFBCF5001F11E0B5
:1080A0005FEA4C0C34BFBCF17F5F2EE05FEA9C0CB2
:1080B0004FEA0C1C4FEA3C0CC10071F100414CEB43
:1080C00050707047C90241EA5051C00218BF41F0D8
:1080D000010141F000414FEA6C50C0F10900212834
:1080E00010D240EACC7CCCF1200C11FA0CF070F1EB
:1080F0000040CCF1200C21FA0CF00CF0004C40EBCD
:108100000C0070474FEACC707047490011F5001F12
:1081100004D84FEACC10FF30C0057047C81770472D
:108120001FB50BF0D9FD212101601FBDDFF8AC1197
:1081300000220A700A70012802D0042803D0704778
:108140000120087070470520087070476449086076
:10815000704710B463494A6802F00C02082A13D130
:108160000A680B6803F03F03604CB4FBF3F30A6842
:10817000C2F388125A430B68C3F301435B1C5B00D4
:10818000B2FBF3F2026001E0584A02604A6802F072
:10819000F003574A1B099B5C046824FA03F343600D
:1081A0004C6804F4E054A40AA45CE340836049688A
:1081B00001F46041490B895C426822FA01F1C16017
:1081C00010BC7047484900F44072B2F5407F06D1B8
:1081D0000A6822F4F812474B03401A430A608A6E79
:1081E000000552EA1050886670474349086070479E
:1081F000424908607047424A0029116802D008438A
:108200001060704721EA0000106070473D4A002965
:10821000116802D008431060704721EA0000106026
:108220007047394A0029116802D00843106070472E
:1082300021EA000010607047344A0029116802D01A
:1082400008431060704721EA000010607047304A10
:108250000029116802D008431060704721EA00002D
:10826000106070472B4A0029116802D00843106043
:10827000704721EA000010607047274A00291178F2
:1082800002D008431070704721EA00001070704758
:108290004109114A012901D1116804E0022901D1E3
:1082A000116F00E0516F00F01F0021FA00F000F0A4
:1082B000010070471948016841F080710160704702
:1082C0000021174A1268024200D001210846704777
:1082D00014490870704700000038024070380240AE
:1082E000800E474204380240083802400024F4005F
:1082F000947C0020FFFCFF0F3C0E4742400E47429B
:1083000030380240403802404438024010380240C1
:1083100020380240243802400D38024074380240B0
:108320000C3802400E38024080B52749884209D1F6
:1083300001210846FFF780FF00210120BDE804402D
:10834000FFF77ABF2149884209D101210220FFF7B6
:1083500073FF00210220BDE80440FFF76DBF1C49F8
:10836000884209D101210420FFF766FF0021042083
:10837000BDE80440FFF760BF1649884209D10121DA
:108380000820FFF759FF00210820BDE80440FFF74F
:1083900053BF1149884209D101211020FFF74CFF3A
:1083A00000211020BDE80440FFF746BF0B4988427A
:1083B00009D101218020FFF73FFF00218020BDE887
:1083C0000440FFF739BF01BD000002400004024035
:1083D00000080240000C024000100240001C024055
:1083E000F0B4002232E0012393400C681C409C4210
:1083F0002BD154000325A540ED4306682E400660AE
:1084000006680F79A7403E4306600E79012E01D021
:10841000022E11D186682E40866086684F79A7406B
:108420003E438660466826EA0303436043688E79CC
:108430009640B6B233434360C3682B40C360C36801
:10844000CD7905FA04F42343C360521C102ACAD321
:10845000F0BC70474FF6FF7101600021017141715E
:108460008171C171704700220069084200D0012269
:1084700010467047018370474183704710B4CB109A
:1084800000EB830001F007018900036A0F248C4090
:10849000A3430362036A02FA01F11943016210BCAB
:1084A0007047000080B5434988420BD101214FF449
:1084B0000010FFF7CCFE00214FF40010BDE804408F
:1084C000FFF7C5BE3C4988420BD101214FF4800023
:1084D000FFF7BDFE00214FF48000BDE80440FFF728
:1084E000B6BE364988420BD101214FF40000FFF798
:1084F000AEFE00214FF40000BDE80440FFF7A7BE28
:1085000001BD7FB504460D46A68800A8FFF721FEF1
:1085100002992B48B1FBF0F04FF6C0723240024393
:10852000A28022884FF6FE731A4022802A68254BCB
:108530009A420AD25200B1FBF2F10A4692B2042AE0
:1085400000DA0421401C208421E0EB884BF6FF7602
:10855000B34204D102EB4202B1FBF2F106E019236F
:108560005A43B1FBF2F141F4804189B20A0502D1CC
:1085700041F0010189B241F4004180B24FF496729A
:1085800050434FF47A7290FBF2F0401C2084A18398
:10859000208840F00100208020884FF6F531084007
:1085A000A9880843698908432080A8892989084344
:1085B00020817FBD0054004000580040005C004016
:1085C00040420F00A18601000029018803D041F03C
:1085D0000101018070474FF6FE7211400180704723
:1085E0000029018803D041F48071018070474FF663
:1085F000FF621140018070470029018803D041F4D7
:108600000071018070474FF6FF52114001807047A2
:10861000002A02D041F0010101E001F0FE010182D7
:1086200070470029018803D041F4806101807047C0
:108630004FF6FF321140018070470029018803D0B6
:1086400041F40041018070474904490C01807047A2
:1086500082B00246002003460193009300920A0F65
:1086600001920902090A019A002A03D0009A1432E1
:10867000009203E0090C009A18320092009A1268E6
:108680000A4200D0012002B07047000080B52549A1
:1086900088420BD101214FF48050FFF7E3FD002108
:1086A0004FF48050BDE80440FFF7DCBD1E4988420E
:1086B0000BD101214FF48040FFF7C9FD00214FF499
:1086C0008040BDE80440FFF7C2BD184988420BD185
:1086D00001214FF40040FFF7BAFD00214FF40040A4
:1086E000BDE80440FFF7B3BD01BD028802F441526A
:1086F0000B881A434B881A438B881A43CB881A433A
:108700000B891A434B891A438B891A43CB891A4325
:108710000280828B4FF2FF731A408283098A0182A2
:10872000704700000030014000380040003C00402D
:108730000029018803D041F04001018070474FF6C5
:10874000BF72114001807047002A828802D0114315
:108750008180704722EA01018180704700220089F0
:10876000084200D001221046704700000168490805
:10877000490001600021016041608160C1600161C8
:10878000212141616A49884203D16A483D21016043
:1087900070476949884204D166484FF474610160AA
:1087A00070476649884204D162484FF474110160F1
:1087B00070476349884204D15E484FF0746101609C
:1087C00070476049884203D15A485F494160704709
:1087D0005E49884203D157485D49416070475D4911
:1087E000884203D153485C49416070475B498842E5
:1087F00004D150484FF03D5141607047584988427C
:1088000003D158483D21016070475749884204D13F
:1088100054484FF47461016070475449884204D150
:1088200050484FF47411016070475149884204D197
:108830004C484FF07461016070474E49884203D143
:1088400048484149416070474B49884203D14548F7
:108850003F49416070474949884203D141483E49F8
:10886000416070474649884203D13E484FF03D5130
:10887000416070470268434B1A400B681A43CB684B
:108880001A434B691A438B691A43CB691A430B6A23
:108890001A434B6A1A438B6A1A434B6B1A438B6B0E
:1088A0001A4302604269D208CB6A53EAC2020B6BD8
:1088B0001A4342610A6942604A6882608968C160FD
:1088C00070470029016803D041F001010160704741
:1088D0004908490001607047002A01D001617047D2
:1088E000C1607047006800F00100704700221C4B17
:1088F000984201D2244800E024488B0001D540680A
:1089000000E0006808402249084200D001221046D9
:108910007047134A904201D21B4800E01B481C4A92
:108920000A40890001D5C26070478260704700002C
:10893000106002400860024028600240406002402F
:1089400058600240706002403D0000208860024094
:10895000400F0020A060024000003D20B8600240AF
:1089600010640240086402402864024040640240EF
:10897000586402407064024088640240A06402406F
:10898000B86402403F801CF0006002400064024076
:108990007D0F7D0F024908607047024908607047EB
:1089A00020000E4224000E4270B504460026DFF877
:1089B0003854CA20E8615320E86100F018F8002814
:1089C00011D0286820F040002860286821680843FA
:1089D0002860A068A860A868616840EA0140A860B3
:1089E00000F024F80126FF20E861304670BD81B018
:1089F00000200090DFF8F4030168490613D44FF01B
:108A0000FF310160016801F04001009A521C0092A0
:108A1000009AB2F5803F01D00029F3D000688009A8
:108A200000F0010000E0012001B07047DFF8BC0356
:108A3000016821F080010160704781B00020009042
:108A4000DFF8A813CA20886153208861086820F0E5
:108A5000A0000860086800F02000009A521C0092F4
:108A6000009AB2F5003F01D00028F3D00868400911
:108A700000F00100FF228A6101B07047F8B5074697
:108A80000E460024DFF85C53002FA86804D140068E
:108A90000AD42046F07007E0400603D5307800F095
:108AA000BEF901E02046F0703078002F09D07178CF
:108AB000090241EA0040B1780843F17840EA0146F2
:108AC0000FE000F0A1F90746707800F09DF9000270
:108AD00040EA0747B07800F097F93843F17840EA68
:108AE0000146CA20686253206862FFF780FF0028B1
:108AF0000FD0DFF8FC0230402860FFF797FFA8682E
:108B0000800605D4FFF799FF002802D0012400E079
:108B10000124FF2068622046F2BD10B50C46DFF844
:108B2000C4120968DFF8C82211400A0C02F03F03A2
:108B300023700B0A03F07F03637001F07F01A170C3
:108B400002F04001E17000280BD1207800F067F9B5
:108B50002070607800F063F96070A07800F05FF931
:108B6000A07010BDDFF88C12486A0968704770B5B4
:108B700006460D460024002E06D16878C10603D5AE
:108B800000F0EF000A306870002E05D0687800F021
:108B900046F9A87800F043F9E878002E09D0697802
:108BA000090241EA0040A9780843297840EA4136A1
:108BB0000FE000F029F90646687800F025F9000278
:108BC00040EA0646A87800F01FF93043297840EAC9
:108BD0004136DFF82052CA20286253202862FFF76E
:108BE00006FF00280FD0DFF8100230402860FFF7A2
:108BF0001DFF6868800605D4FFF71FFF002802D01C
:108C0000012400E00124FF202862204670BD10B539
:108C10000C46DFF8E0110968DFF8DC2111400A0C8E
:108C2000E2700A0A02F01F02627001F03F02A270B5
:108C3000490B01F00701217000280BD1E07800F00A
:108C4000EEF8E070607800F0EAF86070A07800F06C
:108C5000E6F8A07010BDDFF89011CA22CA61532255
:108C6000CA610A68D208D2000A600A681043086024
:108C7000FF20C8617047DFF88411CA220A615322BD
:108C80000A610860FF200861704781B000210091EF
:108C9000DFF85411CA22CA615322CA610028086849
:108CA00004D040F480600860012012E020F480606D
:108CB0000860486800F00400009A521C0092009A74
:108CC000B2F5803F01D00028F3D04868800800F05A
:108CD0000100FF22CA6101B0704781B000220092FA
:108CE000474A0092009A02EB8000009000980160D1
:108CF00001B0704781B00021009141490091009975
:108D000001EB800000900098006801B0704738B512
:108D100000242246344DCA23EB615323EB616B6878
:108D20001B0701D406E0521C6B681B0702D5B2F585
:108D3000805FF8D16A68120709D42A68D20606D47F
:108D400008436862FFF779FE002800D00124FF2065
:108D5000E861204632BD244ACA23D3615323D3613C
:108D600000F0040320F004000029116805D0084336
:108D70001060906B1843906305E021EA00001060DA
:108D8000906B98439063FF20D06170470021174A91
:108D900012681C4B1A40024200D00121084670475D
:108DA00010B40021104A936B03F0040314680440CC
:108DB00003EAD0332343526802EA101002D00004C1
:108DC00000D00121084610BC704708490003000C80
:108DD00040F080000A6802F0800262EA0000086049
:108DE0007047000000280040082800400C28004080
:108DF0007F7F7F00042800403FFFFF0014280040D1
:108E0000502800407F3F0100002101E0491C0A3842
:108E1000C0B20A28FADA40EA0110C0B2704701096C
:108E200001EB810200F00F0000EB4200C0B270477E
:108E300030B40168CB4321498279002A27D00A4601
:108E400014682340136053680468A3435360037994
:108E5000CC18236805682B43236093680468A343F8
:108E60009360D3680468A343D36043790568102BEB
:108E700007D1916829439160D16800680843D060A8
:108E80000AE051FA83F420682843206004E0007966
:108E90000C1820681840206030BC70470021074A39
:108EA000136803405269024202D0002B00D0012116
:108EB000084670470249086070470000003C0140C6
:108EC000143C01401949084319490860704770B4BF
:108ED00003781A460121C478002C1DD0144B1B685E
:108EE00003F4E063C3F5E0631B0A4478C3F10405AF
:108EF000AC4085780F2646FA03F32B4023431B0131
:108F00000C4C1355007842110B4B00F01F0001FA76
:108F100000F043F8220006E05011084A03F01F0356
:108F2000994042F8201070BC704700000000FA051C
:108F30000CED00E000E400E000E100E080E100E092
:108F400030B401F00302920021F00301054BCC582C
:108F50000F259540AC43CC50CC5890402043C8508E
:108F600030BC70470838014080B501214FF4807053
:108F7000FFF778F900214FF48070BDE80440FFF757
:108F800071B942684C4B1A400B7942EA03220B68D4
:108F90001A4342608268494B1A400B691A43CB68F6
:108FA0001A438B681A434B7942EA43028260C26AD1
:108FB00022F47002097D491EC9B242EA0151C16220
:108FC000704700210160017141718160C1600161E0
:108FD0000121017570473A490A683A4B1A40036803
:108FE0001A4343681A4383681A43C06810430860F1
:108FF00070470021016041608160C16070470029B5
:10900000816803D041F0010181607047490849003F
:109010008160704770B407240A290BDBC568A1F191
:109020000A0606EB4606B44025EA0404B34023438F
:10903000C36008E0056901EB4106B44025EA040479
:10904000B3402343036113461F24072B09DA436B04
:10905000521E02EB82029440A343914019434163A4
:1090600014E00D2B09DA036BD21F02EB820294404D
:10907000A34391401943016308E0C36A0D3A02EB30
:1090800082029440A34391401943C16270BC70476F
:10909000816841F08041816070470029816803D078
:1090A00041F480618160704721F480618160704784
:1090B000C06C80B270470000FFFEFFFCFDF7FFC0F0
:1090C00004230140E030FCFF00220068084200D089
:1090D000012210467047000013F0004C03D55B429C
:1090E000524263F100039CEA210C00F0178010B596
:1090F000644603D34942404261F1000100F00EF89A
:10910000640004D34942404261F10001244203D586
:109110005B42524263F1000310BD00001B4213D1B9
:10912000094236D12AB18446B0FBF2F002FB10C2EC
:1091300070470AF0D7BDFCD30022002370470B0014
:109140000200002100207047904271EB030CF6D31F
:1091500070B5B1FA81F4B3FA83F52C1BA340C4F1C6
:10916000200532FA05F63343A2405FF00046E640A0
:1091700002E05B085FEA3202841A71EB030524BF48
:10918000204629467641F4D302000B00300000212E
:1091900070BD012ACFD970B5140C20D0B1FA81F47A
:1091A000B2FA82F5C4F120046419B4F12006D6D3D2
:1091B000B2405FF00044F440002502E052085FEA4C
:1091C0003303C61A71EB020E24BF30467146644168
:1091D0006D41F3D302000B002000290070BD0C4646
:1091E000B1FBF2F102FB11452D0445EA1045B5FB38
:1091F000F2F402FB145580B240EA0545B5FBF2F0EB
:1092000002FB105240EA044070BD000000B500BFF0
:10921000130096469446103928BFA0E80C50FAD89F
:109220005FEA417C28BF0CC048BF40F8042BC90747
:1092300028BF20F8022B48BF00F8012B00BD00001A
:109240002DE9F04FA1B0824602AE002017461D4620
:10925000029170620DF144080AE017F8011B0298B0
:10926000D0470290002800F0DA82706A401C7062D9
:10927000387808B9706AD4E22528EED10020F06071
:1092800030617061B061F061306201E040F0010076
:1092900017F8011F2029F9D023290DD02B2904D03C
:1092A0002D2906D030290AD00CE040F0020080B20F
:1092B000EEE740F00400FAE740F00800F7E740F07E
:1092C0001000F4E72A290DD129680A1D2A600968CF
:1092D000F162002904D5494240F00400F16280B2F5
:1092E0007F1C13E00021F1620BE0F16A6FF0004394
:1092F000994205D001EB810302EB43013039F16261
:109300007F1C3A78A2F130010A29EED339782E2950
:1093100003D04FF0FF31B1621EE017F8011F2A2978
:1093200006D129680A1D2A607F1C0968B16213E012
:109330000021B1620BE0B16A6FF00043994205D0A1
:1093400001EB810302EB43013039B1627F1C3A78B3
:10935000A2F130010A29EED330860FF66040397849
:109360000AF0C2FC08B117F8010B8DF83A009DF81D
:109370003A00682802BF39786829622005D06C2835
:1093800004BF38786C2803D171208DF83A007F1C17
:1093900011A8B0603978B1F1250029D01C3800F04F
:1093A000C080001F022840F2BC80133800F0E48027
:1093B000093800F0B680801E00F07781401E00F072
:1093C0002081401E022840F2AC80001F00F019816D
:1093D000401F7BD0401E00F0CF80401E22D0C01E18
:1093E0000BD0801E00F0C880C01E00F0C58064E174
:1093F000F068411CF160252169E12868011D2960A0
:109400000068B26A7060002A02D5FBF7CFF907E066
:1094100000210AF075FC00281ABF7168401AB06A72
:10942000306156E12868011D296000210068CDE9FE
:1094300000014FF03C0E11A87060DDE9000111B988
:1094400008B9B26ACAB10206120FA0EB021230329A
:10945000AEF10103D2B29E463A2AA8BF27320009D4
:1094600003F8082040EA0170090908BF002804D069
:10947000726811AB73449A42E5D311A971447160CB
:10948000CEF13C00B16A3061884207DA081AB06157
:109490004FF6EF71308E084030861AE1002940F116
:1094A000188196F8301001F01401102940F0118154
:1094B000F16AF268891AB269891AA1EB000EBEF14D
:1094C000010FC0F20681C6F818E002E19DF83A00EB
:1094D000622818D0682806D06A280BD06C2819D0CA
:1094E000712807D016E02868011D29600068716A9C
:1094F0000180EEE02A68101D28601268706AC117AA
:10950000C2E90001E5E02868011D29600068716A70
:109510000170DEE02868011D29600068716A016041
:10952000D7E02868C01D20F00700286000F108027D
:109530002A60D0E90023CDE90023002B04D5F06890
:10954000421CF2602D220DE0308E820704D5F068B7
:10955000421CF2602B2205E0C00705D5F068421CD2
:10956000F260202200F80820F06811AA80187060CC
:1095700000A800F0E3F9ACE09DF83A006C2808BFC1
:109580002A6811D0712808BF2A6802D02A686A2880
:109590000AD1D21D22F007022A60144604F1080203
:1095A0002A60D4E9002303E0131D2B600023126816
:1095B000CDE90023682808BF92B207D0622808BF0F
:1095C000D2B203D0742818BF7A2802D10023CDE983
:1095D000002396F8300000075FD5DDE90023002B5B
:1095E00008BF002A59D041F02000782855D1F068F2
:1095F000302200F80820401C421CF26000F80810DD
:109600004BE09DF83A0062280CD0682810D06A28F8
:109610001AD06C2823D0712816D074281FD07A282D
:109620000CD01CE02868021D2A6090F900201AE086
:109630002868021D2A60B0F9002014E02868021D85
:109640002A60002302680FE02868C01D20F0070090
:10965000286000F108022A60D0E9002304E02868AD
:10966000021D2A600268D317CDE90023002B04DA1B
:10967000F068421CF2602D220DE0308E820704D586
:10968000F068421CF2602B2205E0C00705D5F068A7
:10969000421CF260202200F80820F06811AA80180D
:1096A000706000A800F0C0F813E0F068411CF160A1
:1096B00029680A1D2A60096809E0F068421CF26006
:1096C000252200F8082021B1F068421CF26000F861
:1096D0000810F06AF168401AB169401A3169401AFD
:1096E000F169401A7169401A316AA0EB010996F8D4
:1096F00030007F1C400710D420208DF8400000244B
:1097000009E0012310AA00A9504600F040FC0028FF
:1097100040F08580641C4C45F3DBF4680DF1440B8C
:109720000AE01BF8011B0298D0470290002876D06F
:10973000706A401C7062641E002CF2D130208DF8DB
:1097400040004FF0000BB46909E0012310AA00A902
:10975000504600F01CFC002861D10BF1010BA34521
:10976000F3DB3469D6F804B00AE01BF8011B029859
:10977000D0470290002852D0706A401C7062641E6C
:10978000002CF2D130208DF840004FF0000BF4692E
:1097900009E0012310AA00A9504600F0F8FB0028B8
:1097A0003DD10BF1010BA345F3DB3069716874699E
:1097B00000EB010B09E01BF8011B0298D047029057
:1097C00068B3706A401C7062641E002CF3D13020B4
:1097D0008DF840004FF0000B346A08E0012310AA16
:1097E00000A9504600F0D3FBC8B90BF1010BA3450B
:1097F000F4DB96F8300040077FF53AAD20208DF875
:109800004000002400E0641C4C45BFF631AD01234C
:1098100010AA00A9504600F0BAFB0028F3D04FF080
:10982000FF3021B0BDE8F08F2DE9FA47064682B03F
:1098300035690A466F2A08BF082705D041F0200085
:10984000782814BF0A271027D6E900013C24804657
:109850008946642A18BF692A05D1002903DAD8F19C
:10986000000869EB4909B9F1000F08BFB8F1000F12
:109870000CD1306B50B9082F3BD196F83800000757
:1098800037D530203B2485F83B0032E0CDE9008914
:10989000FB17404649463A46FFF740FCB846A8FB4E
:1098A0000023DDE90089A8EB02023032A4F1010AAD
:1098B000D2B254463A2A03DB9DF80830513B9A183D
:1098C0000AF8052080465FEA010908BFB8F1000FD9
:1098D00003D0F06861198842D8D3082F09D196F8CF
:1098E0003800000705D5605D302802D0641E3020A6
:1098F0006055C4F13C00B0616119F160316B884280
:1099000007DA081A30624FF6EF71308F084030875F
:1099100010E000290ED596F8381001F01401102936
:1099200008D1716B7269891A326A891A081A01287A
:10993000A8BF306204B0BDE8F08700002DE9F24F07
:1099400004468EB0D4E90001CDE9020104AE9DF8D1
:10995000380040F02000009061280AD0206B0028D9
:1099600048BF062004D404BF0098672801D1012015
:1099700020636168C1F30A5040F2FF7290421CD12B
:10998000080304BF2068002809D10320A0619DF8C6
:10999000380061381A2836D30FF2346108E003200A
:1099A000A0619DF8380061381A2829D30FF2186198
:1099B000E0680322F9F73CF8B5E1012816DA204601
:1099C0000AF0CAF9012811DB00270020009961295B
:1099D00020D1E168302201F8012B4A1CE2609DF899
:1099E0003820612A0CBF782258220FE0626840F2CA
:1099F000FE3161F31E52471A62604FF0FF30E5E717
:109A00000FF2C051D4E70FF2C451D1E70A70616977
:109A1000891C616110B9002500277BE1009861284D
:109A200040F09680206B00284CBF2125451CDDE9C5
:109A300002012DB26E1CD4E9008900220023F9F73F
:109A4000F1F93ABF89F00040CDE90280CDE9028901
:109A50003F1F8DF810200DF1110801E000F20708FA
:109A6000012E32DBDDE90201002200230AF096F923
:109A70002BD21C2102A80AF0A9F9DDE90201F9F7AD
:109A80001DFCF61F8146012E09DBF9F7E7F90246B6
:109A90000B46DDE90201F9F727F8CDE9020108F2EA
:109AA0000700072105E009F00F0200F8012D4FEA39
:109AB0002919B9F1010F01DB491EF4D5491E5CBF1C
:109AC000002200F8012DF9D5C8E70DF11100A8EB2F
:109AD00000010DF11106A942B8BF0D462DB22800B4
:109AE0002FD4884206DA04A9411849780829A8BF6A
:109AF0000F2100DA002104AA821800E06D1E12F87E
:109B00000139401E8B42F9D00F2904D104A9411814
:109B10004A78521C4A70002802D504AE6D1C3F1DC5
:109B20002DB2681E0DD481190A783032D2B23A2A89
:109B300003DB9DF838303A3B9A1801F80129401EA2
:109B4000F2D5206B002840F1E580681E2063E1E03B
:109B5000DDE9020100220023F9F764F93CBF81F03E
:109B60000041CDE902013FB247F29750784348499E
:109B7000DFF820B190FBF1F73FB2C7F1070692463C
:109B8000012E19DBDDE90289F00707D552465B4655
:109B900040464946F9F768F88046894676105046AF
:109BA000594652465B46F9F75FF882468B46002ECF
:109BB000EAD1CDE9028921E076429046DFF8D890DB
:109BC00012E0F00707D552465B4640464946F9F792
:109BD0004BF88046894676105046594652465B46B9
:109BE000F9F742F882468B46002EEAD1DDE9020100
:109BF00042464B46F9F7BEF9CDE9020100986628C6
:109C00000CBF07F10A000620216B4518142DA8BFD0
:109C1000132530208DF810000DF11106DFF87C902F
:109C2000012D3DDBDDE90201F9F75EFB06F10801DC
:109C300004220A23B0FBF3F303EB8306A0EB4600F8
:109C4000303001F8010D0A20B3FBF0F000EB800684
:109C5000A3EB4603303301F8013D521EE9D1083D24
:109C600001F10806012DDBDBDDE90201F9F73CFB20
:109C7000F9F7FEF802460B46DDE90201F8F734FF7A
:109C800000224B46F8F7F0FFCDE90201CAE700BF1A
:109C9000A0860100000024400000F03F84D79741D7
:109CA0000DF11100301A0DF1110602E0401E7F1E69
:109CB000761C31783029F9D00099662902D13FB25B
:109CC000791C03E065290CBF01210021226B8D184E
:109CD0002DB2A842B8BF05462DB229001AD4814240
:109CE00004DA885D3528A8BF392000DA30208A19C7
:109CF000521E00E06D1E12F80139491E8342F9D050
:109D0000392802D1885D401C8855002902D5761E6D
:109D10006D1C7F1C3FB29DF8381000972BB2324665
:109D2000204600F003F80FB0BDE8F08F2DE9F043B6
:109D3000054685B01E46D5F8308089461746012E67
:109D400002DA01260FF28C2749F02000BDF93040DD
:109D5000662808BF641C17D0672840F0818014F182
:109D6000040FC0F28380444580F2808095F838006B
:109D7000641C000702D44645B8BFB04624B2B8EB15
:109D8000040848BF4FF00008E868A96924B2012C14
:109D900025DA30234A1C0B54B8F1010F03DA95F889
:109DA0003810090702D52E211154521CAA6118EB54
:109DB000040FB8BFC8F1000424B26142A044696234
:109DC000B045B8BF464636B2EE613246AB69394659
:109DD0001818F8F72DFEA8EB0600A862C0E00818D6
:109DE000A64218DA32463946F8F722FEA9697118F8
:109DF000A961A01B6862B8F1010F03DA95F8380079
:109E0000000705D5E8682E220A54E869401CE8617D
:109E1000C5F82880A4E022463946F8F709FEA8696B
:109E20002018361BB8F1010F03DA95F8381009072E
:109E300003D5E9682E224254401C36B2A861B045D1
:109E4000B8BF4646EB6836B23246E119C018F8F79B
:109E5000EFFDA8693018A861A8EB060068627FE0F2
:109E6000B9F1610F16D14FF0700918E0464504DAD8
:109E700095F83810090758BFB046B8F1010848BF37
:109E80004FF00008B9F1670F14BF4FF045094FF0CC
:109E9000650904E0B9F1410F08BF4FF05009A96905
:109EA000E86817F8013B0B544A1CB8F1010F05DABA
:109EB00095F83810090758BFAA6117D52E211154FB
:109EC000531CAB61B8F1010F10DB761E36B2B04502
:109ED000B8BF464636B2324639461818F8F7A8FDDC
:109EE000A8693018A861A8EB06006862A869E9684B
:109EF0004718200007F8019B03D42B2007F8010B1B
:109F000003E02D2107F8011B644200260DF108082B
:109F100008E00A2200A809F0E3FF019808F8010B05
:109F2000761C009C21B20129F3DA022E06DA49F0F0
:109F30002000652804BF302007F8010B4EB93020FF
:109F400007F8010B07E0761E02A8305C303007F8F6
:109F5000010B012EF7DAA869E9684018381AE861A0
:109F600095F8380000F0140010280DD16869A9692F
:109F70000818696A0818E9690818A96A0818696B55
:109F80008842BCBF081A286205B0BDE8F083F8B566
:109F900004460D4616461F46002004E0E86A401CB1
:109FA000E8627F1E002047B116F8011BA868A04791
:109FB000A8600028F2D14FF0FF30F2BD686A6C74DF
:109FC0007A4C00006E616E004E414E00696E660074
:109FD000494E4600300000000CB41CB5044604A8ED
:109FE00001900A46009401AB00A907487844183054
:109FF000FFF726F9009900220A7000285CBF00983C
:10A00000001B16BC5DF80CFB4B8EFFFF01B58B07E8
:10A0100018D1121F21D351F8043BA3F1013C2CEAC3
:10A02000030C1CF0803C04BF40F8043BF1E79CFAB1
:10A030008CFCBCFA8CF1C1F118018B40CB4040F88C
:10A04000043B13E0042A09D311F8013B521E00F827
:10A05000013B5BB18B07F7D1DBE7121D5AB111F859
:10A06000013B521E00F8013B03B1F8D111001CBFA7
:10A070000022F9F753F901BD002801D10A48806890
:10A0800090F84C10642901D0002000E0806A7047ED
:10A09000002801D10448806890F84C10642901D050
:10A0A000002000E0406A7047087C002002487047AA
:10A0B00002480149401A704700000020002000209B
:10A0C0004C48C168002903D54B4901604B490160E8
:10A0D00070474B48016841F000410160704770B51E
:10A0E0000446002600290BD0012902D14FF48076C6
:10A0F00006E0022902D14FF4007601E04FF44076E9
:10A1000000F082F809281ED13D4D286820F44070E7
:10A110002860286830432860286820F0F80028600C
:10A12000286844F0020108432860286840F4803021
:10A13000286000F069F8296821F002012960296887
:10A1400021F0F801296070BD70B504460D4600F09D
:10A150005BF8092813D12A4E306820F44070306033
:10A16000306840F400703060306840F001003060CA
:10A17000256000F049F8316849084900316070BD38
:10A1800070B505460E4600F03FF8092811D11C4C69
:10A19000206820F44070206020682060206840F033
:10A1A000010020602E7000F02FF821684908490056
:10A1B000216070BD134908607047092011490A6881
:10A1C000D20301D5012070470A68D20601D50620C6
:10A1D00070470A68D20501D5022070470A6812F05C
:10A1E000EF0F01D0072070470968890700D50820C4
:10A1F00070470000043C024023016745AB89EFCD66
:10A20000103C02400C3C024080B509208DF8000053
:10A21000FFF7D3FF8DF8000003E0FFF7CEFF8DF8C6
:10A2200000009DF800000128F7D09DF8000002BD55
:10A230000901002806D500F00F004C4A801800F8EC
:10A24000041C70474A4A8154704710B5401EB0F153
:10A25000807F01D3012010BD464C60600F214FF07C
:10A26000FF30FFF7E5FF0020A060072020600020FE
:10A2700010BD38B5404D2878401C28703F4C2078E0
:10A28000401C2070FBF759F909F032FE2878411E76
:10A290002970002802D19820FAF7A4FA2078012822
:10A2A00004D16068002801D0FAF7FFFA2078401E38
:10A2B000207031BD10B5314C6078F021084202D0D9
:10A2C0009920FAF78FFAFAF7FAFA6078401C607072
:10A2D00009F068FE2A4800684FF47A71B0FBF1F08B
:10A2E000FFF7B3FF002800D0FEE7264826490160AB
:10A2F0000E214FF0FF30FFF79BFF6078F0210842FE
:10A3000002D09920FAF76EFA6078401E6070C0B2F1
:10A31000002803D1BDE81040FAF7CBBA10BD000009
:10A3200010B51A4C4FF4005120464183C04630BF4F
:10A330004FF400512046FEF79DF8F3E710B40F48A4
:10A34000006A0F4909684FF47A72B1FBF2F1104AC2
:10A350001368CB1A0F4C2468640102D512688B1A5B
:10A36000401C00FB013010BC7047000018ED00E0FD
:10A3700000E400E010E000E0DA2E0120087C00207C
:10A38000907C002008ED00E0000000080010024072
:10A3900018E000E004ED00E0EFF30580002849F04C
:10A3A0006186704780B5EFF3108072B60B4909687B
:10A3B00051F47F01094A116080F310880848006851
:10A3C00010F4700F02D1A720FAF70CFA05485FF0DD
:10A3D0000071016004480021016001BD20ED00E032
:10A3E00088ED00E03CEF00E034EF00E010B5040041
:10A3F00010480078002805D10F4809F072FE0D487A
:10A40000012101700C4809F0A2FE20000AF072FD43
:10A410000400094809F0CFFE200010BD10B504006B
:10A42000054809F094FE20000AF0BEFE024809F03B
:10A43000C2FE10BDDD2E0120142C01200048704703
:10A4400050140120BFF34F8FDFF8B40C006810F4F4
:10A45000E060DFF8B01C0843DFF8A41C0860BFF31D
:10A460004F8FFEE700B583B00020ADF80400002058
:10A470008DF8060000208DF80700012000900DF1F6
:10A4800006037622D0210020F8F75CF8002801D1DD
:10A49000002044E076208DF804009DF8060050F07E
:10A4A00020008DF80500022301AAD0210020F7F733
:10A4B000EFFF002801D1002031E0012000900DF1D4
:10A4C00007034922D0210020F8F73CF8002801D1E9
:10A4D000002024E049208DF804009DF8070050F08A
:10A4E00001008DF80500022301AAD0210020F7F712
:10A4F000CFFF002801D1002011E076208DF8040064
:10A500009DF806008DF80500022301AAD021002045
:10A51000F7F7BEFF002801D1002000E001200EBDAA
:10A5200038B50400F7F7BDFE0500DFF8040D00782C
:10A53000401CDFF8FC1C0870DFF8F40C4078F021B8
:10A54000084202D09920FAF74DF9FAF7B8F9DFF886
:10A55000E00C4078401CDFF8D81C4870210089B21C
:10A560002800F8F78AF8DFF8C80C4078F021084294
:10A5700002D09920FAF736F9DFF8B40C4078401E83
:10A58000DFF8AC1C4870C0B2002801D1FAF791F98D
:10A59000FAF7EFFF31BD10B582B00020ADF8000032
:10A5A000F7F77FFE04006B208DF8000080208DF807
:10A5B0000100022300AAD0210020F7F769FF00283C
:10A5C00001D1002094E064212000F8F756F8FFF74D
:10A5D00049FF002801D100208AE06B208DF800009F
:10A5E00000208DF80100022300AAD0210020F7F7F7
:10A5F0004FFF002801D100207AE028212000F8F741
:10A600003CF819208DF8000004208DF80100022389
:10A6100000AAD0210020F7F73BFF002801D100203D
:10A6200066E01A208DF8000003208DF80100022357
:10A6300000AAD0210020F7F72BFF002801D100202D
:10A6400056E01B208DF8000008208DF80100022341
:10A6500000AAD0210020F7F71BFF002801D100201D
:10A6600046E01D208DF8000003208DF80100022334
:10A6700000AAD0210020F7F70BFF002801D100200D
:10A6800036E06A208DF8000000208DF801000223DA
:10A6900000AAD0210020F7F7FBFE002801D10020FE
:10A6A00026E06C208DF800003F208DF801009DF819
:10A6B0000110DFF8500DF7F775FE022300AAD02134
:10A6C0000020F7F7E5FE002801D1002010E06B2004
:10A6D0008DF8000040208DF80100022300AAD0214F
:10A6E0000020F7F7D5FE002801D1002000E001206E
:10A6F00016BD0178407850EA012000B2704780B55D
:10A7000002200090DFF8003D6B22D0210020F7F7F7
:10A7100019FF002801D100205BE001200090DFF844
:10A72000EC3C1A22D0210020F7F70CFF002801D1C1
:10A7300000204EE001200090DFF8D43C1B22D02105
:10A740000020F7F7FFFE002801D1002041E00120A2
:10A750000090DFF8C03C1C22D0210020F7F7F2FE69
:10A76000002801D1002034E001200090DFF8A83C4F
:10A770001D22D0210020F7F7E5FE002801D100209E
:10A7800027E001200090DFF8943C6A22D0210020CD
:10A79000F7F7D8FE002801D100201AE00120009030
:10A7A000DFF87C3C3822D0210020F7F7CBFE0028D0
:10A7B00001D100200DE001200090DFF8683C192253
:10A7C000D0210020F7F7BEFE002801D1002000E0D4
:10A7D000012002BD80B50020ADF800001A208DF8E0
:10A7E0000000DFF8240C00798DF80100022300AA94
:10A7F000D0210020F7F74CFE002801D1002090E086
:10A800001B208DF80000DFF8000C40798DF8010066
:10A81000022300AAD0210020F7F73AFE002801D138
:10A8200000207EE01C208DF80000DFF8DC0B807932
:10A830008DF80100022300AAD0210020F7F728FE9E
:10A84000002801D100206CE01D208DF80000DFF809
:10A85000B80BC0798DF80100022300AAD021002096
:10A86000F7F716FE002801D100205AE06A208DF883
:10A870000000DFF8940BC0788DF80100022300AAD5
:10A88000D0210020F7F704FE002801D1002048E085
:10A8900019208DF80000DFF8700B80788DF801002A
:10A8A000022300AAD0210020F7F7F2FD002801D1F1
:10A8B000002036E038208DF80000DFF84C0B007ADD
:10A8C0008DF80100022300AAD0210020F7F7E0FD57
:10A8D000002801D1002024E06B208DF80000DFF873
:10A8E000280B00788DF80100022300AAD021002057
:10A8F000F7F7CEFD002801D1002012E06C208DF882
:10A900000000DFF8040B40788DF80100022300AA54
:10A91000D0210020F7F7BCFD002801D1002000E085
:10A92000012002BD10B582B00020ADF80000DFF8B4
:10A93000D80A0078400612D56B208DF80000002060
:10A940008DF80100022300AAD0210020F7F7A0FD16
:10A95000002801D10020C9E03220FFF7E1FD6C2082
:10A960008DF80000DFF8A00A407810F0F8008DF8AC
:10A970000100022300AAD0210020F7F789FD00285A
:10A9800001D10020B2E06A208DF8000000208DF88F
:10A990000100022300AAD0210020F7F779FD00284A
:10A9A00001D10020A2E0002400E0641C062C10DA93
:10A9B00014F113008DF8000000208DF8010002232F
:10A9C00000AAD0210020F7F763FD0028EDD1002078
:10A9D0008CE019208DF8000000208DF80100022382
:10A9E00000AAD0210020F7F753FD002801D1002054
:10A9F0007CE01A208DF8000003208DF801004FF450
:10AA0000FA642000FA281DD0B0F5FA7F13D0B0F513
:10AA10007A7F09D0B0F5FA6F19D19DF8010050F096
:10AA200018008DF8010016E09DF8010050F01000AC
:10AA30008DF801000FE09DF8010050F008008DF83E
:10AA4000010008E09DF801008DF8010003E09DF889
:10AA500001008DF80100022300AAD0210020F7F7A1
:10AA600017FD002801D1002040E0FA2C14D0B4F5E5
:10AA7000FA7F0DD0B4F57A7F06D0B4F5FA6F0FD116
:10AA800003208DF801000EE002208DF801000AE09D
:10AA900001208DF8010006E000208DF8010002E0A1
:10AAA00000208DF801001B208DF800009DF80100AA
:10AAB000C0008DF80100022300AAD0210020F7F782
:10AAC000E7FC002801D1002010E038208DF80000BC
:10AAD00000208DF80100022300AAD0210020F7F702
:10AAE000D7FC002801D1002000E0012016BD00B5F0
:10AAF00083B00020ADF8060000208DF804006B2024
:10AB00008DF8060001208DF8070002230DF10602E2
:10AB1000D0210120F7F7BCFC002801D1002023E060
:10AB20002820FFF7FDFC0120009001AB6C22D02112
:10AB30000120F7F707FD002801D1002014E06C2068
:10AB40008DF806009DF8040010F0C0008DF8070095
:10AB500002230DF10602D0210120F7F799FC00280D
:10AB600001D1002000E001200EBD2DE9F04F85B09D
:10AB700004000D0016001F000020ADF8040002A81C
:10AB80000021002206C0083806208DF80600382073
:10AB90008DF8040000208DF80500022301AAD021C1
:10ABA0000120F7F775FC002802D15FF0FF3070E15B
:10ABB00023208DF8040000208DF80500022301AA4F
:10ABC000D0210120F7F764FC002802D15FF0FF30AC
:10ABD0005FE16A208DF8040000208DF80500022353
:10ABE00001AAD0210120F7F753FC002802D15FF021
:10ABF000FF304EE16A208DF8040004208DF8050036
:10AC0000022301AAD0210120F7F742FC002802D13B
:10AC10005FF0FF303DE11A208DF8040001208DF82F
:10AC20000500022301AAD0210120F7F731FC0028FA
:10AC300002D15FF0FF302CE119208DF804000020D4
:10AC40008DF80500022301AAD0210120F7F720FC8E
:10AC5000002802D15FF0FF301BE11B208DF80400BB
:10AC60008DF80540022301AAD0210120F7F710FC3E
:10AC7000002802D15FF0FF300BE1FFB2002F0FD0B0
:10AC80001C208DF804008DF80540022301AAD02174
:10AC90000120F7F7FDFB002802D15FF0FF30F8E05C
:10ACA00064B2002C02D0C820FFF73AFC6A208DF86D
:10ACB000040044208DF80500022301AAD0210120C0
:10ACC000F7F7E6FB002802D15FF0FF30E1E0232038
:10ACD0008DF80400FFB2002F03D008208DF8050086
:10ACE00002E070208DF80500022301AAD021012086
:10ACF000F7F7CEFB002802D15FF0FF30C9E00A2051
:10AD0000FFF70EFC002408E0E4B2002045F8240020
:10AD1000E4B2002046F82400641CE4B2032CF3DB08
:10AD20005FF00009B9F1320F6EDA0A20FFF7F8FB85
:10AD30000220009002AB7222D0210120F7F702FC22
:10AD4000002802D15FF0FF30A3E002A8FFF7D1FC9A
:10AD50009DF8061090FBF1F8B8F1070F02DA7FF0CA
:10AD6000010096E000241AE05FFA8AFA55F82AB04A
:10AD70005FFA8AFA02A810EB4A00FFF7BAFC0BFA56
:10AD800080F05FFA8AFA45F82A001AF1010A5FFAA0
:10AD90008AFABAF1030FE7DB19F10109641CE4B286
:10ADA0004445BFDAB9F1320FBCDA9DF806000090D5
:10ADB00002AB7422D0210120F7F7C4FB002802D196
:10ADC0005FF0FF3065E0FFB2002F1AD05FF0000A9D
:10ADD0005FFA8AFABAF1030FDEDA5FFA8AFA56F8F6
:10ADE0002AB05FFA8AFA02A810EB4A00FFF781FC4A
:10ADF0000BFA80F05FFA8AFA46F82A001AF1010A83
:10AE0000E6E75FF0000AC2E723208DF80400002087
:10AE10008DF80500022301AAD0210120F7F738FBA5
:10AE2000002802D15FF0FF3033E05FF0000A0FE04E
:10AE30005FFA8AFA55F82A004FF47A7148433221B2
:10AE400090FBF1F05FFA8AFA45F82A001AF1010A3C
:10AE50005FFA8AFABAF1030FEADBFFB2002F17D0CC
:10AE60005FF0000A0FE05FFA8AFA56F82A004FF402
:10AE70007A714843322190FBF1F05FFA8AFA46F882
:10AE80002A001AF1010A5FFA8AFABAF1030FEADB23
:10AE9000012005B0BDE8F08F2DE9F04389B0040032
:10AEA0000D00160000275FF0010801A800210160D5
:10AEB0005FF000090320009001AB0D22D02101209A
:10AEC000F7F740FB002801D15FF0FF385FF0000981
:10AED00005E005A8002140F8291019F10109B9F190
:10AEE000030F11DA01A819F800000028F1D001A819
:10AEF00019F80000DFF8641A11EB400030F8020C7A
:10AF000005A941F82900E8E75FF000091FE002A861
:10AF100050F82900DFF8481A884207DADFF8440AB7
:10AF2000F7F740FA012010FA09F0074302A850F899
:10AF30002900DFF8341A884207DBDFF8300AF7F718
:10AF400031FA012010FA09F0074319F10109B9F1AA
:10AF5000030F2ADA55F8290056F82910401A0AF08A
:10AF6000B1FB02A941F8290005A850F829000028E2
:10AF7000CDD002A850F8290005A951F8291090FB5E
:10AF8000F1F0B0F57A700AF09DFB24F8190034F95D
:10AF90001900B0F5FA7FD8DDDFF8D409F7F702FA27
:10AFA000012010FA09F00743CFE7B4F9040000903C
:10AFB000B4F90230B4F900203900DFF8B809F7F726
:10AFC000F1F9002F05D0DFF8B009F7F7EBF97FF0C2
:10AFD0000208404640B209B0BDE8F08338B505002C
:10AFE0000020ADF800000020ADF80200F7F759F995
:10AFF000040038208DF8000000208DF801000223A5
:10B0000000AAD0210020F7F743FA002801D1002040
:10B0100074E000F01BFB002801D100206EE01F202F
:10B020008DF800004B208DF80100022300AAD021EA
:10B030000020F7F72DFA002801D100205EE01E2045
:10B040008DF8000006208DF80100022300AAD0210F
:10B050000020F7F71DFA002801D100204EE06920FA
:10B060008DF80000C0208DF80100022300AAD02135
:10B070000020F7F70DFA002801D100203EE0012260
:10B0800001210320F7F780FB0020F7F77FFB382032
:10B090008DF8000040208DF80100022300AAD02185
:10B0A0000020F7F7F5F9002801D1002026E0012063
:10B0B00028702000407DC046012810D001212000CA
:10B0C000F7F7DBFABDF80200401CADF80200BDF84E
:10B0D00002003228EDDBDFF8A408F7F763F901225C
:10B0E00000210320F7F750FB0020F7F74FFB00F09B
:10B0F000A3FB002801D1002000E0012032BD0000A8
:10B100000CED00E00400FA0570B58EB0040000A854
:10B110000021002206C00838012500260BA80021C6
:10B12000002200230EC00C3808A8002100220023B2
:10B130000EC00C3805A80021002200230EC00C38D8
:10B1400002A80021002200230EC00C38FFF7D7FA16
:10B15000002801D1002056E0FFF7E4FB002806D0CC
:10B160000126FFF7C4FC002803D100204BE000209B
:10B1700049E0012302AA08A90020FFF7F6FC050018
:10B180006DB2012D04D0DFF8F007F7F70BF91CE0E2
:10B19000012305AA0BA97FF01F00FFF7E6FC0500BD
:10B1A0006DB2012D04D0DFF8C807F7F7FBF80CE00B
:10B1B00005AA02A900A8FFF76FFE05006DB2012DD8
:10B1C00003D0DFF8A007F7F7EDF82670BDF8000010
:10B1D0006070BDF900000012A070BDF80200E070C0
:10B1E000BDF9020000122071BDF804006071BDF9C4
:10B1F00004000012A071E571FFF7ECFA002801D1FC
:10B20000002000E001200EB070BD80B5DFF87007AF
:10B210000078002809D1FFF7BEF9002801D10020ED
:10B2200004E0DFF85C0701210170012002BD00008D
:10B23000087C00201CB500208DF806000020ADF829
:10B240000400F7F72EF80400012000900DF106032A
:10B250006B22D0210020F7F775F9002801D10020DA
:10B2600088E09DF806006021084216D06B208DF81A
:10B2700004009DF8060010F09F008DF805000223E1
:10B2800001AAD0210020F7F703F9002801D10020FE
:10B2900070E014212000F7F7F0F9012000900DF183
:10B2A00006036C22D0210020F7F74CF9002801D1C9
:10B2B00000205FE06C208DF804009DF8060010F07F
:10B2C000C7008DF80500022301AAD0210020F7F75E
:10B2D000DFF8002801D100204CE00A212000F7F718
:10B2E000CCF91D208DF8040043208DF805000223C1
:10B2F00001AAD0210020F7F7CBF8002801D10020C7
:10B3000038E01C208DF8040000208DF80500022391
:10B3100001AAD0210020F7F7BBF8002801D10020B6
:10B3200028E020208DF8040080208DF805000223FD
:10B3300001AAD0210020F7F7ABF8002801D10020A6
:10B3400018E01F208DF8040080208DF805000223EE
:10B3500001AAD0210020F7F79BF8002801D1002096
:10B3600008E0DFF82006007850F00100DFF814163E
:10B370000870012016BD00B583B000208DF80600CE
:10B380000020ADF80400012000900DF106036C22AE
:10B39000D0210020F7F7D6F8002801D1002030E0B6
:10B3A0006C208DF804009DF8060050F038008DF8F0
:10B3B0000500022301AAD0210020F7F769F8002830
:10B3C00001D100201DE0DFF8BC05007880070FD414
:10B3D0006B208DF8040040208DF80500022301AA9F
:10B3E000D0210020F7F754F8002801D1002008E010
:10B3F000DFF89005007810F0FE00DFF8881508707F
:10B4000001200EBD480E0308782C01207C2C012061
:10B410007D2C01207E2C01207F2C01207B2C012003
:10B42000802C01207A2C012000B583B000208DF8FB
:10B4300004000020ADF806000120009001AB6C2252
:10B44000D0210020F7F77EF8002801D1002014E079
:10B450006C208DF806009DF8040050F038008DF83F
:10B46000070002230DF10602D0210020F7F710F8A3
:10B47000002801D1002000E001200EBDF0B585B00C
:10B4800004000E0002A80021002206C00838002097
:10B49000ADF804000125F6F704FF0700DFF8E80423
:10B4A0000068401CDFF8E01408600120009002AB47
:10B4B0006B22D0210020F7F745F8002801D10020A9
:10B4C000C2E09DF8080040061AD56B208DF80400F4
:10B4D0009DF8080010F0BF008DF80500022301AAB6
:10B4E000D0210020F6F7D4FF002801D10020ABE0E6
:10B4F00014213800F7F7C1F8DFF89004F6F752FF8F
:10B500000120009002AB6C22D0210020F7F71AF83E
:10B51000002801D1002097E09DF80800382108425A
:10B520001ED06C208DF804009DF8080010F0C700B4
:10B530008DF80500022301AAD0210020F6F7A8FF0C
:10B54000002801D100207FE005213800F7F795F8A9
:10B55000DFF83C04F6F726FFDFF83804012101602C
:10B56000F6B2009602AB3B22D0210020F6F7EAFFAC
:10B57000002805D1DFF82004F6F714FF002063E06F
:10B580009DF8090020709DF8080060709DF80B0080
:10B59000A0709DF80A00E0709DF80D0020719DF8E4
:10B5A0000C006071002000E0401C062806D2015DFE
:10B5B000DFF8E823825C9142F6D00025EDB2012D40
:10B5C00018D1DFF8DC030068401CDFF8D4130860F2
:10B5D000DFF8CC030068132804D1DFF8C803F6F7BE
:10B5E000E1FE0BE0DFF8B8030068142806D1FEF78F
:10B5F00029FF03E0DFF8A8030021016006222100F3
:10B60000DFF89803F9F772F9DFF87C030068C821C6
:10B6100090FBF1F201FB1200002814D1B4F90400F0
:10B620000090B4F90230B4F90020DA480168DFF87C
:10B630007803F6F7B7FED4480068DC49884202DB9D
:10B64000D14800210160012005B0F0BD30B583B0C4
:10B6500001240020ADF8060000208DF80400F6F764
:10B6600020FE05000120009001AB6B22D0210020BC
:10B67000F6F768FF002801D100208BE09DF8040058
:10B6800040061AD56B208DF806009DF8040010F0D6
:10B69000BF008DF8070002230DF10602D021002023
:10B6A000F6F7F6FE002801D1002073E014212800EF
:10B6B000F6F7E3FFBE48F6F775FE1D208DF806008D
:10B6C00008208DF8070002230DF10602D02100208A
:10B6D000F6F7DEFE002801D100205BE0012000909B
:10B6E00001AB6C22D0210020F6F72CFF002801D1FD
:10B6F00000204FE06C208DF806009DF8040050F00B
:10B7000080008DF804009DF8040050F007008DF8CB
:10B7100004009DF8040010F0C7008DF804009DF8A7
:10B7200004008DF8070002230DF10602D02100204D
:10B73000F6F7AEFE002801D100202BE0012000909A
:10B7400001AB6B22D0210020F6F7FCFE002801D1CE
:10B7500000201FE06B208DF806009DF8040010F01B
:10B76000BF008DF804009DF8040050F020008DF813
:10B7700004009DF804008DF8070002230DF1060275
:10B78000D0210020F6F784FE002801D1002001E03E
:10B790002000C0B23EBD80B50020ADF80000FFF72C
:10B7A00055FF002801D1002045E01F208DF8000042
:10B7B0004B208DF80100022300AAD0210020F6F7CB
:10B7C00067FE002801D1002035E01E208DF8000022
:10B7D00006208DF80100022300AAD0210020F6F7F0
:10B7E00057FE002801D1002025E069208DF80000D7
:10B7F000C0208DF80100022300AAD0210020F6F716
:10B8000047FE002801D1002015E00122012103207C
:10B81000F6F7BAFF38208DF8000040208DF80100BF
:10B82000022300AAD0210020F6F732FE002801D121
:10B83000002000E0012002BD80B50020ADF800002E
:10B84000012200210320F6F79FFF38208DF8000029
:10B8500000208DF80100022300AAD0210020F6F775
:10B8600017FE002801D1002058E06B208DF8000061
:10B8700000208DF80100022300AAD0210020F6F755
:10B8800007FE002801D1002048E01D208DF80000AF
:10B8900000208DF80100022300AAD0210020F6F735
:10B8A000F7FD002801D1002038E06C208DF8000061
:10B8B00034480078032803D100208DF8010012E0FD
:10B8C00030480078022803D138208DF801000AE0C2
:10B8D0002C480078012803D107208DF8010002E0F0
:10B8E0003F208DF80100022300AAD0210020F6F7A6
:10B8F000CFFD002801D1002010E069208DF8000064
:10B9000000208DF80100022300AAD0210020F6F7C4
:10B91000BFFD002801D1002000E0012002BD80B55C
:10B920000178012905D1FFF759FB00280AD1002031
:10B9300009E00178022905D1FFF7E6FB002801D1D3
:10B94000002000E0012002BD80B51A490020FAF76E
:10B95000EFF919490B20FAF7EBF901BD8CF4020855
:10B96000003E4900A00E030801EFE700A80E0308FF
:10B97000980E0308E00D0308B00E0308B80E030884
:10B98000B02E0120B12E0120BC2D0120C00E0308D5
:10B99000C80E0308302E0120D00E0308942D01207C
:10B9A000342E0120600E0308700E0308A1860100EA
:10B9B000D80E03082C0D0308500D030810B5002401
:10B9C000DFF88C0B007800280AD1FEF7E4FD002890
:10B9D00001D1002007E0DFF8780B0121017000E0C1
:10B9E00001242000C0B210BD1CB500208DF8060057
:10B9F0000020ADF80400F6F754FC0400012000908C
:10BA00000DF106036B22D0210120F6F79BFD0028E3
:10BA100001D1002068E09DF806006021084216D0A0
:10BA20006B208DF804009DF8060010F09F008DF843
:10BA30000500022301AAD0210120F6F729FD0028E4
:10BA400001D1002050E032212000F6F716FE01203F
:10BA500000900DF106036C22D0210120F6F772FD53
:10BA6000002801D100203FE06C208DF804009DF8F3
:10BA7000060010F0F8008DF80500022301AAD0217D
:10BA80000120F6F705FD002801D100202CE00A2155
:10BA90002000F6F7F2FD1B208DF8040008208DF839
:10BAA0000500022301AAD0210120F6F7F1FC0028AD
:10BAB00001D1002018E01A208DF8040003208DF831
:10BAC0000500022301AAD0210120F6F7E1FC00289D
:10BAD00001D1002008E0DFF87C0A007850F0020075
:10BAE000DFF8701A0870012016BD00B583B0002081
:10BAF0008DF806000020ADF80400012000900DF143
:10BB000006036C22D0210120F6F71CFD002801D18C
:10BB1000002030E06C208DF804009DF8060050F005
:10BB200007008DF80500022301AAD0210120F6F7B5
:10BB3000AFFC002801D100201DE0DFF8180A0078D2
:10BB4000C0070FD46B208DF8040040208DF805004D
:10BB5000022301AAD0210120F6F79AFC002801D186
:10BB6000002008E0DFF8EC09007810F0FD00DFF8B5
:10BB7000E419087001200EBD00B583B000208DF8D7
:10BB800004000020ADF806000120009001AB6C22FB
:10BB9000D0210120F6F7D6FC002801D1002014E0C6
:10BBA0006C208DF806009DF8040050F007008DF819
:10BBB000070002230DF10602D0210120F6F768FCF0
:10BBC000002801D1002000E001200EBD7FB5040057
:10BBD00002A80021002206C0083800260020ADF887
:10BBE0000400F6F75EFB05000120009002AB6B221B
:10BBF000D0210120F6F7A6FC002801D1002083E027
:10BC00009DF80800400625D56B208DF804009DF8AE
:10BC1000080010F0BF008DF80500022301AAD02112
:10BC20000120F6F735FC002801D100206CE032211C
:10BC30002800F6F722FDDFF82009F6F7B3FB00260F
:10BC400003E0F6B200203055761CF6B2062EF8DB83
:10BC5000012059E00120009002AB6C22D02101208C
:10BC6000F6F770FC002801D100204DE09DF8080097
:10BC70000721084225D06C208DF804009DF80800AB
:10BC800010F0F8008DF80500022301AAD021012050
:10BC9000F6F7FEFB002801D1002035E00A2128003C
:10BCA000F6F7EBFCDFF8B408F6F77CFB002603E0C0
:10BCB000F6B200203055761CF6B2062EF8DB0120D5
:10BCC00022E00620009002AB4322D0210120F6F7AB
:10BCD00039FC002805D1DFF88808F6F763FB00205F
:10BCE00012E09DF8090020709DF8080060709DF832
:10BCF0000B00A0709DF80A00E0709DF80D00207107
:10BD00009DF80C006071012004B070BD2DE9F64F64
:10BD1000ADF63C6D05000020ADF8080003A8142125
:10BD2000F8F722FD002608A80021002200230EC0FB
:10BD30000C385FF0000940F68C1068444FF49661AF
:10BD4000F8F712FDFFA8E0304FF49661F8F70CFD0C
:10BD50000BA84FF49661F8F707FD5FF00008002785
:10BD600000240020070000E07F1C032F80F2BA802F
:10BD70006B208DF80800781C8DF80900022302AAB8
:10BD8000D0210120F6F784FB002801D1002099E1A1
:10BD90003220FEF7C5FB6A208DF8080044208DF89C
:10BDA0000900022302AAD0210120F6F771FB002826
:10BDB00001D1002086E1012409E019EB060608A85C
:10BDC00050F8270019EB000008A941F827002000CF
:10BDD000441E012875DB23208DF8080070208DF8A3
:10BDE0000900022302AAD0210120F6F751FB002806
:10BDF00001D1002066E14B20FEF792FB23208DF855
:10BE0000080000208DF80900022302AAD021012099
:10BE1000F6F73EFB002801D1002053E102200090FC
:10BE200003AB7222D0210120F6F78CFB002801D150
:10BE3000002047E103A8FEF75CFC00EE100AB8EE14
:10BE4000C00A10EE100AFCF7FBF8DFF81827DFF83D
:10BE50001837F6F709FFF7F731FA8146B9F14800CC
:10BE60000128B4DB5FF000081DE003A8FEF741FCE9
:10BE700018EB060140F68C126A4422F811000DF10D
:10BE80000E00FEF736FC18EB0601FFAAE03222F89E
:10BE9000110004A8FEF72DFC18EB06010BAA22F8EE
:10BEA000110018F10108C84587DA0620009003AB9D
:10BEB0007422D0210120F6F745FB0028D5D10020BF
:10BEC00000E123208DF8080000208DF809000223EE
:10BED00002AAD0210120F6F7DBFA00287FF444AF54
:10BEE0000020EFE0002E01D0340000E001245FF0DC
:10BEF000000800200021C5E9000100200021C5E95B
:10BF0000020100200021C5E9040122E0D5E9000179
:10BF100040F68C126A4432F91820D3178018594120
:10BF2000C5E90001D5E90201FFAAE03232F9182083
:10BF3000D31780185941C5E90201D5E904010BAABC
:10BF400032F91820D31780185941C5E9040118F1B6
:10BF50000108B045DADBD5E900012200E317FDF75F
:10BF6000BBF8C5E90001D5E902012200E317FDF79E
:10BF7000B3F8C5E90201D5E904012200E317FDF792
:10BF8000ABF8C5E904015FF00008DDF83C0E0022C3
:10BF90000023C0E90023DDF83C0E00220023C0E9A5
:10BFA0000223DDF83C0E00220023C0E9042382E0D6
:10BFB000DDF83C2ED2E90001CDE9000140F68C10FD
:10BFC000684430F91800C117D5E90023801A994157
:10BFD00040F68C126A4432F918A05FEAEA7BD5E990
:10BFE0000023BAEB02027BEB0303A2FB00AB02FBD4
:10BFF00001BB03FB00BBDDE9000110EB0A0051EBC4
:10C000000B01DDF83C2EC2E90001DDF83C2ED2E93F
:10C010000201CDE90001FFA8E03030F91800C11796
:10C02000D5E90223801A9941FFAAE03232F918A01B
:10C030005FEAEA7BD5E90223BAEB02027BEB03035A
:10C04000A2FB00AB02FB01BB03FB00BBDDE900016F
:10C0500010EB0A0051EB0B01DDF83C2EC2E90201A6
:10C06000DDF83C2ED2E90401CDE900010BA830F93E
:10C070001800C117D5E90423801A99410BAA32F997
:10C0800018A05FEAEA7BD5E90423BAEB02027BEB56
:10C090000303A2FB00AB02FB01BB03FB00BBDDE91A
:10C0A000000110EB0A0051EB0B01DDF83C2EC2E958
:10C0B000040118F10108B045FFF67AAFDDF8400E33
:10C0C000066001200DF6446DBDE8F08F2DE9F043C8
:10C0D00089B004000D00160001275FF0000801A8D8
:10C0E000002101600320009001AB0022D02101203B
:10C0F000F6F728FA002801D15FF0FF375FF000095A
:10C1000007E04FFA89F905A8002140F8291019F134
:10C1100001094FFA89F9B9F1030F17DA4FFA89F9D2
:10C1200001A819F800000028EBD04FFA89F901A8FE
:10C1300019F80000DFF8341411EB400030F8020C5D
:10C140004FFA89F905A941F82900E0E75FF00009F5
:10C1500025E04FFA89F902A850F82900DFF81014F9
:10C16000884208DADFF80C04F6F71CF9012010FA0F
:10C1700009F050EA08084FFA89F902A850F8290096
:10C18000DFF8F413884208DBDFF8F003F6F70AF96A
:10C19000012010FA09F050EA080819F101094FFAD4
:10C1A00089F9B9F1030F3ADA4FFA89F955F82900FC
:10C1B0004FFA89F956F82910401A09F083FA4FFA14
:10C1C00089F902A941F829004FFA89F905A850F820
:10C1D00029000028BDD04FFA89F902A850F829009B
:10C1E0004FFA89F905A951F8291090FBF1F0B0F543
:10C1F0007A7009F067FA4FFA89F924F819004FFAB2
:10C2000089F934F91900B0F5FA7FC6DDDC48F6F794
:10C21000C9F8012010FA09F050EA0808BDE74FFA02
:10C2200088F8B8F1000F04D0D648F6F7BBF87FF0D5
:10C230000207380040B209B0BDE8F0832DE9F043B1
:10C240009DB00400012501260CA81821F8F78CFAEE
:10C2500006A81821F8F788FA02A80021016000A8B2
:10C260000021002206C00838002718A8002100225B
:10C2700000230EC00C3815A80021002200230EC098
:10C280000C3812A80021002200230EC00C3803A88D
:10C290000021002200230EC00C38BB48D0F80480D7
:10C2A000FEF72DFA002801D10020EDE0FEF73AFB61
:10C2B0000500EDB2012D09D1012702AA06A90CA89B
:10C2C000FFF724FD002803D10020DDE00020DBE0A3
:10C2D000FEF70DFC002801D10020D5E0002303AAC1
:10C2E00015A90020FEF741FC060076B2012E02D00F
:10C2F000A648F6F757F8002312AA18A97FF01F00E6
:10C30000FEF733FC060076B2012E02D0A048F6F705
:10C3100049F818AA15A900A8FFF7D8FE060076B2BA
:10C32000012E02D09B48F6F73DF85FF0000918E0B7
:10C330005FFA89F918EB49025FFA89F90CA810EB4A
:10C34000C903D3E900018000A2F858005FFA89F917
:10C3500018EB4900B0F958108F48F6F723F819F197
:10C3600001095FFA89F9B9F1030FE1DB2770BDF824
:10C3700000006070BDF900000012A070BDF802005E
:10C38000E070BDF9020000122071BDF80400607178
:10C39000BDF904000012A071E671029820720298A3
:10C3A0000012607202980014A07202980016E072E7
:10C3B000DDE90C012073DDE90C0100B200126073AD
:10C3C000DDE90C010014A073DDE90C010016E07337
:10C3D000DDE90E012074DDE90E0100B20012607487
:10C3E000DDE90E010014A074DDE90E010016E07411
:10C3F000DDE910012075DDE9100100B20012607561
:10C40000DDE910010014A075DDE910010016E075EA
:10C41000DDE906012076DDE9060100B20012607652
:10C42000DDE906010014A076DDE906010016E076DC
:10C43000DDE908012077DDE9080100B2001260772C
:10C44000DDE908010014A077DDE908010016E077B6
:10C45000DDE90A0184F82000DDE90A0100B20012DA
:10C4600084F82100DDE90A01001484F82200DDE9E6
:10C470000A01001684F82300FEF7ACF9002801D168
:10C48000002001E02800C0B21DB0BDE8F08330B547
:10C4900083B004000020ADF8040000203A494D6844
:10C4A000697A002907D1286E40688047F5F7F9FEC0
:10C4B0000A21F6F7E2F80220009001AB4122D021D8
:10C4C0000120F6F73FF8002801D1002017E09DF881
:10C4D00005009DF8041050EA0120032110FB01F033
:10C4E0004FF47A7190FBF1F01530207000206070ED
:10C4F000687A002802D1286E8068804701203EBDFE
:10C5000080B50178002905D1FFF798FE00280AD1EF
:10C51000002009E00178012905D1FFF7B8FF0028C4
:10C5200001D1002000E0012002BD80B5C0B2062884
:10C5300006D10800FFF7ABFF002801D1002000E082
:10C54000012002BD80B515490120F9F7F1FB01BDBD
:10C55000B02E0120B12E0120E00E0308E80E0308E2
:10C56000F00E03082D211FF46C56C53F8CF602080F
:10C5700030FD1300000F030879E2D100080F030813
:10C58000F80E0308100F030808400020180F0308D6
:10C59000200F0308280F0308800E0308740D0308FA
:10C5A000DFF88005704730B583B00020ADF8060095
:10C5B0008DF804000120009001AB00221821022018
:10C5C000F5F7C0FF04469DF8040048281FD131202C
:10C5D0008DF806000DF106050120687002230DF1AB
:10C5E000060218211846F5F753FF00280DD0312018
:10C5F0008DF806000020687002230DF10602182154
:10C600001846F5F745FF002802D100203EBD002462
:10C6100018220021DFF80C05F5F720FE20463EBD6C
:10C6200070B582B00020ADF8000009F054F804465F
:10C63000DFF8F4048168497AC268527A51180069B7
:10C64000407A0818012801DB012076BDDFF8DC54B0
:10C65000687801281CD032208DF8000000AE01203F
:10C660007070022300AA18211846F5F711FF002860
:10C670000CD031208DF8000001207070022300AA38
:10C6800018211846F5F704FF002803D1002076BDD5
:10C6900001202870281D61698847012076BD38B5C2
:10C6A0000020ADF8000009F016F80446DFF8780421
:10C6B0008168497AC268527A51180069407A08182C
:10C6C000022801DB012032BDDFF860542878012800
:10C6D00012D031208DF8000000208DF801000223D7
:10C6E00000AA18211846F5F7D3FE002801D1002032
:10C6F00032BD0020687001E000202870281D2169EB
:10C700008847012032BD80B50020ADF800003120FF
:10C710008DF8000000208DF80100022300AA1821E6
:10C720001846F5F7B5FE002801D1002002BD012012
:10C7300002BD7CB504460020ADF806008DF804006B
:10C740000120009001AB002218210220F5F7FAFE2B
:10C7500005469DF80400482829D131208DF80600AF
:10C760000DF106061F20707002230DF1060218213C
:10C770001846F5F78DFE002817D0032000902346B9
:10C78000602218210220F5F7DDFE00280DD03120AF
:10C790008DF806000020707002230DF106021821AA
:10C7A0001846F5F775FE002802D1002076BD002559
:10C7B000284676BD0021DE4A02E00B5C8B54491C02
:10C7C0001B29FADBDB48C0F8D423012070472DE990
:10C7D000F04387B004460D4616461F464FF000084A
:10C7E0004046ADF8040002A841460A460B460EC07A
:10C7F0004FF0050906C00120009002AB102218215D
:10C800000220F5F79FFE9DF80810C9070ED50128F4
:10C810000CD1082000900DF10903112218210220EB
:10C82000F5F790FE002807D140467BE04846A0F18E
:10C83000010980B20028DED1BF489DF808100170C0
:10C8400002A90A7A4270CA7982704A78C2708A78DC
:10C850000271CA7842710A7982714A79C271897902
:10C8600001720AE002A800EB48008178407810EBE2
:10C87000012024F8180008F10108B8F1030FF1DBDA
:10C88000A948D0F80C8008F10C0999F81520214628
:10C89000D9F80C00D8F80C30C018F8F727F8404643
:10C8A00002F0BAFB99F81520D9F80C00D8F80C1052
:10C8B00041182046F8F71AF8DFF8788205AA2146D1
:10C8C000404609F05DF998F9F4023860B8F8EE00D6
:10C8D000288008F2EE00418869808188A9808189DA
:10C8E0002180C1896180008AA08020882988401A1F
:10C8F000308060886988401A7080A088A988401AB2
:10C90000B08031208DF8040001208DF8050002234D
:10C9100001AA18211846F5F7BBFD002801D1002017
:10C9200000E0012007B0BDE8F08330B585B00446D3
:10C930000020ADF8040002A800210A460B460EC0F4
:10C9400005250120009002AB102218210220F5F7E6
:10C95000F9FD9DF80810C9070ED501280CD1082053
:10C9600000900DF10903112218210220F5F7EAFDCC
:10C97000002806D1002029E02846451E80B2002864
:10C98000DFD16D489DF80810017002A90A7A427043
:10C990004878207088786070C878A0700879E07056
:10C9A000487920719DF80E00607131208DF80400E7
:10C9B00001208DF80500022301AA18211846F5F779
:10C9C00067FD002801D1002000E0012005B030BD46
:10C9D0002DE9F04104460025FDF730FD0746FFF73D
:10C9E000DFFD06465048D0F81080F86E40070BD4A3
:10C9F00006F1140306F10C02B11D3046FFF7E7FE05
:10CA0000002801D1284651E098F80A00012848D1B1
:10CA100049480178217041786170C178A17001792D
:10CA2000E1704179217181796171C179A171007AD7
:10CA3000E0714048818D2172B0F92C1009126172A9
:10CA400000F12C014A88A272B1F902201212E2729E
:10CA50008A882273B1F9041009126173B0F8F410D6
:10CA6000A173B0F9F4100912E173F4304188217414
:10CA7000B0F90210091261748188A174B0F9040040
:10CA80000012E074284620750FE006EB4500C188CF
:10CA900004F8151004EB4501B0F9060000124870C7
:10CAA0006D1C032DF1DB7069A0710120BDE8F081E0
:10CAB000F8B504460025FDF7C1FC0746FFF770FDF9
:10CAC0000646F86E000705D52046FFF72EFF002822
:10CAD00026D109E006F1140306F10C02B11D30461F
:10CAE000FFF775FE002814D12846F2BD36F8150070
:10CAF00004F8150004EB450036F9151009124170D1
:10CB000006EB45018A898271B1F90C100912C171D5
:10CB10006D1C032DEADB182231460248F7F7E6FECA
:10CB20000120F2BD082B012008400020C42B012069
:10CB3000B42A0120E0D500209C2C01207CB50446BD
:10CB40000020ADF806008DF80400F5F7AAFB0546B5
:10CB50000120009001AB002218210220F5F7F2FC21
:10CB60009DF80410482932D131208DF806000DF1CE
:10CB700006061F20707002230DF1060218211846C8
:10CB8000F5F786FC00281BD031208DF80600002028
:10CB9000707002230DF1060218211846F5F778FC93
:10CBA00000280DD001212846F5F767FD01200090EF
:10CBB00001AB312218210220F5F7C4FC002801D175
:10CBC000002076BD9DF804002070012076BDFF2175
:10CBD000217076BD2DE9F04387B0044604A80021FA
:10CBE0000A460B460EC00846ADF80C004FF005098A
:10CBF000F5F757FB05460220009004AB00221821F0
:10CC0000F5F7A0FC06469DF81000482840F00B817F
:10CC10009DF81000207004AF7878607031208DF896
:10CC20000C000DF10C081F2088F80100022303AA54
:10CC300018211846F5F72CFC002800F0F580032099
:10CC4000009004AB602218210220F5F77BFC00283D
:10CC500000F0EA809DF81000A0707878E070B87855
:10CC6000207131208DF80C00002088F8010002238B
:10CC700003AA18211846F5F70BFC002800F0D48011
:10CC80000120009004AB312218210220F5F75AFC54
:10CC9000002800F0C9809DF81000607531208DF8E3
:10CCA0000C00012088F80100022303AA182118466D
:10CCB000F5F7EEFB002800F0B7801E212846F5F7B7
:10CCC000DCFC0120009004AB102218210220F5F7B3
:10CCD00039FC06469DF81000C0070DD5012E0BD17A
:10CCE000082000900DF11103112218210220F5F700
:10CCF00029FC002806D160E04846A0F1010980B275
:10CD00000028DED1B87902907879019038790090C6
:10CD1000FB78BA7879780FF26C10F5F743FBB878A6
:10CD2000797811EB00203979FA7812EB0121BA7980
:10CD30007B7913EB022203461BB21B126371A071B5
:10CD4000084600B20012E0712172104600B20012D3
:10CD50006072A2729DF81000E072387A2073312060
:10CD60008DF80C00102088F80100022303AA182176
:10CD70001846F5F78DFB002856D01E212846F5F7FA
:10CD80007CFC4FF005090120009004AB1022182113
:10CD90000220F5F7D7FB06469DF81000C0070ED518
:10CDA000012E0CD1082000900DF111031122182141
:10CDB0000220F5F7C7FB002807D1002035E04846E0
:10CDC000A0F1010980B20028DDD1B879029078790C
:10CDD000019038790090FB78BA7879780FF2C0002A
:10CDE000F5F7E0FAB878797811EB00203979FA781C
:10CDF00012EB0121BA797B7913EB022203461BB2B5
:10CE00001B126373A073084600B20012E073217412
:10CE1000104600B200126074A2749DF81000E07415
:10CE2000387A207500E00026304607B0BDE8F08370
:10CE300018B404460B4611460020032C04D0042CE1
:10CE400005D0072C06D008E0184614BC71E418463B
:10CE500012BC73E6184612BCACE412BC704710B5A5
:10CE60000FF2580421460220F8F762FF0FF270011A
:10CE70000420F8F75DFF21460320BDE81040F8F7D5
:10CE800057BF0000474D53312D25642C2025642CBD
:10CE90002025642C2025642C2025642C202564006A
:10CEA000474D53322D25642C2025642C2025642CDD
:10CEB0002025642C2025642C20256400A7C50008AB
:10CEC00021C600089FC6000807C700080000000030
:10CED000B1CA000800000000D5CB000831CE000820
:10CEE000A7C5000821C600089FC6000807C700089C
:10CEF00000000000D1C9000800000000D5CB0008E8
:10CF000031CE00082DE9F84304460D4616461F466B
:10CF1000DFF8600DD0F81880D8F80C90169A12B28D
:10CF20000021484609F07EF80D9A12B202214846C7
:10CF300009F078F80E9A12B20421484609F072F806
:10CF40000F9A12B20621484609F06CF8109A12B2F4
:10CF50000821484609F066F8119A12B20A2148469B
:10CF600009F060F8129A12B20C21484609F05AF8FA
:10CF7000139A12B20E21484609F054F8149A12B2CC
:10CF80001021484609F04EF8159A12B2122148466F
:10CF900009F048F8224612B21421484609F042F836
:10CFA0002A4612B21621484609F03CF8324612B21F
:10CFB0001821484609F036F83A4612B21A21484676
:10CFC00009F030F8089A12B21C21484609F02AF8F4
:10CFD000099A12B21E21484609F024F80A9A12B2A0
:10CFE0002021484609F01EF80B9A12B22221484629
:10CFF00009F018F80C9A12B22421484609F012F8E8
:10D00000012088F81D00BDE8F18300B583B0002041
:10D01000ADF806008DF804000120009001AB02225B
:10D020009A210620F5F78EFA002829D09DF80400F1
:10D0300000F00700022801D000280AD1FDF7FEF910
:10D0400090F88E00002804D14FF480510020F5F7AD
:10D050008DFB9DF804000721084213D102208DF8B2
:10D0600006009DF8040040F080008DF807000223C0
:10D070000DF106029A210620F5F70AFA002801D1DF
:10D0800000200EBD01200EBD00B583B00020ADF81C
:10D0900006008DF804000120009001AB02229A21C5
:10D0A0000620F5F74FFA002801D100200EBD9DF8AB
:10D0B000040000F007009DF80410072211422CD054
:10D0C000052801D0042814D101208DF806009220F3
:10D0D0008DF807000FF27800F5F764F902230DF1DF
:10D0E00006029A210620F5F7D3F9002801D1002085
:10D0F0000EBD02208DF806009DF8040000F07F00B0
:10D100008DF8070002230DF106029A210620F5F79B
:10D11000BFF9002801D100200EBD0120009001AB15
:10D1200000229A210620F5F70DFA002801D10020EF
:10D130000EBD0120009001AB44229A210620F5F794
:10D1400001FA002801D100200EBD01200EBD000013
:10D150003D3E53494E5445393200000030B583B04E
:10D1600004460020ADF806008DF804000546002CAA
:10D1700007D1DFF8EC0C416B491C41630121C1630D
:10D1800006E0012C04D1DFF8D80C816B491C8163C7
:10D190000120009001AB02229A210620F5F7D2F976
:10D1A000002862D09DF8040000F0070007285CD832
:10D1B000DFE800F00D5B085B0A04060C012506E0C1
:10D1C000022504E0042502E0052500E0062545FAD5
:10D1D00004F0C0074BD4680704D5002C10D0012CF4
:10D1E00006D042E0A80705D5002C11D0022C3CD176
:10D1F000072412E0E80705D5012C0BD0022C34D10E
:10D2000004240AE0002C03D0022C05D002D32CE029
:10D21000052402E0062400E0022401208DF8060027
:10D220000DF10605102068709DF8040000F0DF0085
:10D230008DF8040002230DF106029A210620F5F76D
:10D2400027F9002811D002208DF806009DF804006F
:10D2500000F0F8002043687002230DF106029A21C5
:10D260000620F5F715F9002801D100203EBD012068
:10D270003EBD00007CB505460020ADF806008DF8E7
:10D28000040006460446002D0BD1DFF8D40B416B99
:10D29000491E416301D521464163406B012880F25C
:10D2A0007980012D0AD1DFF8B80B816B491E8163AB
:10D2B00001D521468163806B01286BDA0120009043
:10D2C00001AB02229A210620F5F73CF900285FD035
:10D2D0009DF8040000F00700072859D8DFE800F0A7
:10D2E0000D5808580A04060C012606E0022604E040
:10D2F000042602E0052600E0062646FA05F0C007EF
:10D3000048D570070DD5002D02D0022D02D03FD296
:10D31000022406E0F00701D5052402E0B00700D59D
:10D3200006242046052801D0042809D112208DF8B2
:10D3300007009DF8040040F020008DF8040008E08C
:10D3400010208DF807009DF8040000F0DF008DF834
:10D35000040001208DF8060002230DF106029A2137
:10D360000620F5F795F8002812D002208DF8060067
:10D370009DF8040000F0F80020438DF80700022318
:10D380000DF106029A210620F5F782F8002801D156
:10D39000002076BD012076BD7CB50FF29400F5F734
:10D3A00001F80020ADF806008DF804000646FDF7F0
:10D3B00045F80446DFF8A85A0120686300E0761CAF
:10D3C0000F2E13DA7019007C8DF80600701990F892
:10D3D00020008DF8070002230DF106029A21072094
:10D3E000F5F756F80028EAD1002076BD0020FFF7B7
:10D3F00041FF002801D1002076BDFFF706FE00287E
:10D4000001D1002076BD0120009001AB00229A21BD
:10D410000720F5F797F8002801D1002076BD782085
:10D42000A4F88A005020A4F88C00012076BD0000EA
:10D430003D3E50525000000010B582B00FF21C105B
:10D44000F4F7B0FF0020ADF800004FF48051F5F77D
:10D450008BF9DFF80C0A816B012906DB416B491C53
:10D46000416301210164084616BD0020FFF776FEE6
:10D47000002801D1002016BD03208DF8000000AC6B
:10D48000A0206070022300AA9A210720F5F700F877
:10D49000002801D1002016BD04208DF800005C207A
:10D4A0006070022300AA9A210720F4F7F1FF0028F8
:10D4B00001D1002016BD63208DF800007F20607030
:10D4C000022300AA9A210720F4F7E2FF002801D1E5
:10D4D000002016BD64208DF800000B206070022330
:10D4E00000AA9A210720F4F7D3FF002801D10020D9
:10D4F00016BD67208DF800003C206070022300AA52
:10D500009A210720F4F7C4FF002801D1002016BD9E
:10D5100068208DF8000000206070022300AA9A2184
:10D520000720F4F7B5FF002801D1002016BD6920BF
:10D530008DF8000014206070022300AA9A210720B1
:10D54000F4F7A6FF002801D1002016BDFFF79CFDCF
:10D55000002801D1002016BD012016BD3D3E5052CD
:10D560004F00000080B50FF69050F4F71BFF00202D
:10D57000FFF780FE002801D1002002BDFFF745FD26
:10D58000002801D1002002BD012002BD80B500208D
:10D59000FFF770FE002801D1002002BDFFF735FD26
:10D5A000002801D1002002BD012002BD30B583B0AA
:10D5B00004460020ADF80400DFF8D85CA86B002812
:10D5C00039D10120009001AB54229A210720F4F7B1
:10D5D000B9FF00281DD09DF80400C0F30210C01D43
:10D5E0000221009101AB9DF80410C1F30211C91D85
:10D5F000821000EB5270C010A1EBC000C0B240001E
:10D6000000F14402D2B29A210720F4F79BFF0028D0
:10D6100001D100203EBD9DF80400000200F4E0604E
:10D620009DF80510084340F2FF31401A00B200286F
:10D6300000D500202886B5F93000207000126070F7
:10D6400001203EBDF0B583B004460F46FCF7F6FE60
:10D650000646F4F726FE054600200190B6F88C2019
:10D66000B6F88A100FF69840F4F79CFE3946601C15
:10D67000FFF79CFFDFF81C0C406C44F620618842E9
:10D6800002DB00206070A070B6F88A00A178627892
:10D6900042EA0121884201DA012000E000202070E6
:10D6A00020782875287D0028A078617841EA00213B
:10D6B00004D00FF65C40F4F775FE03E00FF6584017
:10D6C000F4F770FE0120009001AB02469A2106207B
:10D6D000F4F738FF002819D09DF80400000617D58C
:10D6E0000FF63C40F4F75EFE01208DF806009DF831
:10D6F000040000F07F008DF8070002230DF1060200
:10D700009A210620F4F7C4FE002801D10020FEBDB6
:10D710000120FEBD70B582B00020ADF80000FCF71E
:10D720008DFE044604F28A06B4F88A00002802D06E
:10D730007088002808D10FF6F430F4F733FE782013
:10D74000A4F88A0050207080B4F88A0000F2FF35F7
:10D75000ADB2708800F2FF34A4B25A208DF80000F8
:10D7600000AE2846000A7070022300AA9A21072002
:10D77000F4F78EFE002801D1002076BD5B208DF8E5
:10D7800000007570022300AA9A210720F4F780FE9A
:10D79000002801D1002076BD5C208DF800002046D5
:10D7A000000A7070022300AA9A210720F4F770FE85
:10D7B000002801D1002076BD5D208DF80000747036
:10D7C000022300AA9A210720F4F762FE002801D163
:10D7D000002076BDDFF8BC0AB0F930100FF65430E7
:10D7E000F4F7E0FD012076BD80B50FF6C4310720C7
:10D7F000F8F79EFA0FF6DC310A20BDE80440F8F78E
:10D8000097BA1CB50020ADF806008DF804000FF69D
:10D810003830F4F7C7FD002400E0641C0A2C14DA49
:10D82000DFF86C0A205C8DF80600DFF8680A205CDF
:10D830008DF8070002230DF106029A210620F4F765
:10D8400027FE0028E9D1002016BDF6F73DF801209B
:10D85000FFF710FD002801D1002016BDFFF7D5FB12
:10D86000002801D1002016BD0120009001AB00224C
:10D870009A210620F4F766FE002801D1002016BD8B
:10D88000012016BD38B50020ADF800000FF6C0200D
:10D89000F4F788FD4FF480510020F4F765FF012074
:10D8A000FFF75CFC002801D1002032BD03208DF879
:10D8B0000000DFF8E04900ADA0786870022300AAFC
:10D8C0009A210620F4F7E4FD002801D1002032BDA2
:10D8D00004208DF800003C206870022300AA9A21E1
:10D8E0000620F4F7D5FD002801D1002032BD6320C9
:10D8F0008DF8000064206870022300AA9A21062097
:10D90000F4F7C6FD002801D1002032BD64208DF857
:10D91000000009206870022300AA9A210620F4F76B
:10D92000B7FD002801D1002032BD67208DF800002E
:10D9300024206870022300AA9A210620F4F7A8FD8B
:10D94000002801D1002032BD68208DF800000020A1
:10D950006870022300AA9A210720F4F799FD002895
:10D9600001D1002032BD69208DF8000000206870D0
:10D97000022300AA9A210720F4F78AFD002801D18A
:10D98000002032BDFFF780FB002801D1002032BD0E
:10D990000120A07332BD10B50FF6BC10F4F702FDE4
:10D9A0000120FFF767FC002803D0FFF72EFB0028BB
:10D9B00001D1002010BDDFF8DC48606B012807DBD7
:10D9C000A06B002804D1FFF737FD606B401E606339
:10D9D000012010BD80B50120FFF74CFC002801D1CB
:10D9E000002002BDFFF711FB002801D1002002BD7D
:10D9F000012002BD2DE9F0478CB000200290FCF719
:10DA00001DFD05460120009002AB54229A210620FC
:10DA1000F4F798FD002800F08F809DF8080000F0D2
:10DA20000F06032E00DB0226C0F302100830801B15
:10DA30009DF80810C1F302110831891B821000EB18
:10DA40005270C010A1EBC007FFB24FF000080DF1FB
:10DA5000080A0EE09DF80800000200F4E0609AF861
:10DA600001100843A0F2FF3003A941F8280008F193
:10DA70000108B04562DA08EB0704A01004EB50700F
:10DA8000C010A4EBC0004FEA40090220009002AB96
:10DA900009F11402D2B29A210620F4F753FD0028AE
:10DAA0004AD09DF80800000200F4E0609AF80110E6
:10DAB0000843A0F2FF3009A941F828000220009095
:10DAC00002AB09F12402D2B29A210620F4F73AFD02
:10DAD000002831D09DF80800000200F4E0609AF8B8
:10DAE00001100843A0F2FF3007A941F828000220E6
:10DAF000009002AB09F13402D2B29A210620F4F769
:10DB000021FD002818D09DF80800000200F4E06014
:10DB10009AF801100843A0F2FF3005A941F8280047
:10DB20000220009002AB09F14402D2B29A210620F1
:10DB3000F4F708FD00288DD1002056E0002E4FD0CC
:10DB400003A8019005A8009007AB09AA31460DF182
:10DB50000A0000F04DF8C24CBDF80A002086606B48
:10DB6000012826DBE06B012823D1206C002820D17E
:10DB7000F4F797FB007D01280BD1B4F93000B5F81C
:10DB80008C10884205DADFF81017202002F0D2FD51
:10DB90000FE0F4F786FB007D00280AD1B5F88A0073
:10DBA000B4F93010884204DADFF8EC16202002F0D5
:10DBB000C1FD00202064A07B00280AD007980090B7
:10DBC000099B059A0399DFF8D40608F0B9FB0020F9
:10DBD000A073009607AB09AA05A903A808F031FCB9
:10DBE00024488169487F00224A770CB0BDE8F0875D
:10DBF0002DE9F04105460C460026DDF8188014E0BA
:10DC000058F8260000EE100AB8EEC00A10EE100A0E
:10DC1000FAF716FA0022DFF8C836F5F725F8F5F717
:10DC20004DFB1938C0192880761CB5F90070A64242
:10DC3000E6DB002F01D500202880B5F9000090FB1D
:10DC4000F4F028800120BDE8F08180B5052802D1DC
:10DC5000084600F002F8012002BD80B50278DFF826
:10DC600034168A7001780FF2F860F4F79BFB0120FC
:10DC700002BD0000084000207CB504460020ADF83D
:10DC80000400FFF7FFFDF4F70CFB0A21F4F7F5FCA5
:10DC90000120009001AB54229A210620F4F752FC97
:10DCA000002801D1002076BD9DF80400C0F30210C9
:10DCB000C01D9DF80410C1F30211C91D821000EBB4
:10DCC0005270C010A1EBC000C0B24500022000900D
:10DCD00001AB05F11402D2B29A210620F4F732FC0E
:10DCE000002801D1002076BD9DF80400207001AE0F
:10DCF000707860700220009001AB05F12402D2B26E
:10DD00009A210620F4F71EFC002801D1002076BDE0
:10DD10009DF80400A0707078E0700220009001ABC4
:10DD200005F13402D2B29A210620F4F70BFC002848
:10DD300001D1002076BD9DF80400207170786071DB
:10DD40000220009001AB05F14402D2B29A210620D4
:10DD5000F4F7F8FB002801D1002076BD9DF80400FF
:10DD6000A0717078E0710FF20860F4F71BFBFFF709
:10DD700012FE012076BD0FF280610620F7F7D8BFB2
:10DD80001CB50020ADF806008DF804000FF2EC5031
:10DD9000F4F708FB002400E0641CDFF84805032CBE
:10DDA00012DA211809798DF806102018007A8DF8FA
:10DDB000070002230DF106029A210920F4F768FBFF
:10DDC0000028E9D1002016BD012101700220FFF7D3
:10DDD00051FA002801D1002016BDFFF716F90028DE
:10DDE00001D1002016BD0120009001AB00229A2134
:10DDF0000920F4F7A7FB002801D1002016BD01205F
:10DE000016BD80B50FF27C50F4F7CCFA0220FFF774
:10DE1000A5F9002801D1002002BDFFF735F900283F
:10DE200001D1002002BD012002BD80B50FF260507B
:10DE3000F4F7B8FADFF85C04406B012801DB01203D
:10DE400002BD0220FFF716FA002801D1002002BD12
:10DE5000FFF7DBF8002801D1002002BD012002BD40
:10DE6000907B002080B50220FFF704FA002801D142
:10DE7000002002BDFFF7C9F8002801D1002002BD33
:10DE8000012002BD2DE9F04F8BB0044606A8002109
:10DE90000A460B460EC00846ADF8100009900A204D
:10DEA000009006AB08229A210920F4F74BFB0028CA
:10DEB00000F0468106A8C179DFF8D853002902D1C5
:10DEC0008279002A04D08279FF2906D13F2A04D121
:10DED000297BC171697B817101E029736A73417883
:10DEE00021709DF818106170C178A1708178E1707F
:10DEF0004179217101796171C179A1718179E171F2
:10DF0000417A2172007A60720120009006AB0522EE
:10DF10009A210920F4F716FB002800F011819DF8E2
:10DF2000180000F00300A0720020E0726078000288
:10DF300000F47C50217841EA0006E078000200F409
:10DF40007C50A17841EA000A6079000200F47C501C
:10DF5000217941EA0007E079000200F47C50A179C0
:10DF60000843ADF81200607A000200F47C50217A78
:10DF700041EA0008E07A000200F47C50A17A51EAFC
:10DF80000009D34618D10A209AFBF0F0AAEB000A48
:10DF90001FFA8AFABBF1790F65DB05208DF81000B6
:10DFA00061208DF81100022304AA9A210620F4F7BB
:10DFB0006FFA002857D1C3E0B9F1010F3AD143F607
:10DFC0009A10864203DA834501DA87420EDB052088
:10DFD0008DF8100062208DF81100022304AA9A2106
:10DFE0000620F4F755FA002812D1A9E0BBF1140F6E
:10DFF0000EDA05208DF8100060208DF81100022344
:10E0000004AA9A210620F4F743FA002800F0988029
:10E01000ABF11400062804D20AF1020A1FFA8AFAA8
:10E0200021E0ABF11A0005281DD20AF1010A1FFAFE
:10E030008AFA18E0B9F1020F15D140F63330864262
:10E0400011DA83450FDA87420DDA05208DF81000CA
:10E0500061208DF81100022304AA9A210620F4F70A
:10E0600017FA00286CD05046000AE07084F802A02D
:10E0700009A8039005A80290CDF80490CDF800807F
:10E08000BDF812303A465146304600F05BF805982C
:10E090006864014644F6206081422BDBEA6B012A6A
:10E0A00028D10FF2F420F4F77DF90020E863012075
:10E0B000009006AB02469A210620F4F743FA0028A6
:10E0C0003ED001208DF810009DF8180000F0FD00F2
:10E0D0008DF81100022304AA9A210620F4F7D8F93A
:10E0E00000282DD06C49202002F024FB01200BB029
:10E0F000BDE8F08F8142F9DAE86B0028F6D10FF223
:10E10000A420F4F74FF90120E863A86B0028EDD1B3
:10E110000120009006AB44229A210620F4F712FA5F
:10E1200000280DD001208DF8100092208DF81100EC
:10E13000022304AA9A210620F4F7AAF90028D5D1CF
:10E140000020D4E72DE9F0412DED048B06468846EA
:10E1500017469FED538BB0EE489AF0EE689A002474
:10E160000B9DADB2042D49DA9FED4F8B08E053ECC7
:10E17000182B00204E49F4F777FD41EC180B641C76
:10E18000AC42F4DB032D08D153EC182B00204FF0E8
:10E190008041F4F769FD41EC180B3046F4F768FE56
:10E1A00053EC182BF4F760FD424A434BF4F75CFD47
:10E1B00004460D464046F4F75BFE53EC182BF4F78B
:10E1C00053FD3E4A3E4BF4F74FFD22462B46F4F7F3
:10E1D0005DFE04460D463846F4F74AFE53EC182B14
:10E1E000F4F742FD374A384BF4F73EFD02460B4642
:10E1F00020462946F4F778FC41EC180B18FA86F60D
:10E20000002E0FD03846F4F733FE04460D46304654
:10E21000F4F724FE02460B4620462946F4F7AAFEF0
:10E2200041EC190B53EC192B00202849F4F71CFD85
:10E230000022274BF4F72AFE0122264B05F0AEFD03
:10E2400002D841F6583009E00022234BF4F7EAFDEA
:10E2500002D240F6FC0001E0F5F730F80D990860B5
:10E2600051EC180B01221D4B05F098FD01D81E48FA
:10E2700008E000221346F4F7D5FD01D2104601E074
:10E28000F5F71CF80C990860BDEC048BBDE8F08133
:10E29000B47C0020907B0020E892002005CF00088D
:10E2A0000000000000000000000000000000F03F3F
:10E2B000000010401361C3D32B6589BF5C2041F17E
:10E2C00063CCDD3F24B9FC87F4DBA73F8089CC40D9
:10E2D0000094A1400058BB4000F8A14065CDCD415D
:10E2E0000000D03FC07C002000CA9A3B0FF22C11E6
:10E2F0000920F7F71DBD00003D3E505243000000CD
:10E300003D3E55703D25642C4C6F3D25640000005A
:10E310003D3E5031202564003D3E503220256400B2
:10E320003D3E494E54453132000000003D3E5054C0
:10E33000483D30003D3E73796E5F50726F784461A6
:10E3400074613D25640000003D3E474550000000DB
:10E350003D3E47454F0000003D3E4745430000001D
:10E360003D3E474520435520257820257800000074
:10E370003D3E47452053454C460000003D3E4C493C
:10E38000475000003D3E4C49476F70656E000000ED
:10E390003D3E4C49474300003D3E4C75783E3D258F
:10E3A000640000003D3E4C75783C3D256400000053
:10E3B00099D3000839D4000865D500088DD5000828
:10E3C0000000000045D6000815D700080000000036
:10E3D0000000000099D3000839D4000865D5000872
:10E3E0008DD5000800000000ADD5000815D7000845
:10E3F000000000000000000003D8000885D80008D5
:10E4000097D90008D5D9000800000000F5D9000808
:10E410000000000079DC00084BDC000881DD00080A
:10E4200003DE00082BDE000865DE000800000000A7
:10E4300085DE000800000000000000000000000071
:10E440007CB500242046ADF80400F3F72AFF05460A
:10E4500020208DF8040001AE20467070022301AA2E
:10E46000BA210520F4F714F8002801D1204676BD22
:10E4700001212846F4F701F9641C0120009001AB4A
:10E480002122BA210520F4F75DF8002801D10020EF
:10E4900076BDA4B2B4F5FA7F05DD0FF21C20F3F7C8
:10E4A00081FF002076BD9DF804000006E0D4202006
:10E4B0008DF8040002207070034601AABA210520DD
:10E4C000F3F7E6FF002801D1002076BD012076BDDC
:10E4D0001CB504460020ADF804000120009001ABFB
:10E4E0000F22BA210520F4F72DF8002801D10020D1
:10E4F00016BD9DF80400BD2834D100F035F8002881
:10E5000001D1002016BD032001E0401E40B20028CA
:10E5100007D40FF2BC1151F830108C4201D2002800
:10E52000F3D120208DF8040001ACA42060700223F8
:10E5300001AABA210520F3F7ABFF002801D1002082
:10E5400016BD10208DF804007F206070022301AA00
:10E55000BA210520F3F79CFF002801D1002016BD49
:10E56000012016BD002016BD80B50020ADF80000CA
:10E5700020208DF8000000208DF80100022300AA61
:10E58000BA210520F3F784FF002805D10FF23010DF
:10E59000F3F708FF002002BD012002BD80B58F20E7
:10E5A000FFF796FF002801D1002002BD012002BD27
:10E5B00080B5FFF745FF002805D10FF20C10F3F7E7
:10E5C000F1FE002002BD012002BD80B5FFF7E6FF8D
:10E5D000002801D1002002BD012002BD80B5FFF757
:10E5E000C3FF002801D1002002BD012002BD01208F
:10E5F0007047012070471FB5044601A800210A4654
:10E600000B460EC00120009001AB0F22BA2105205D
:10E61000F3F798FF002821D09DF80400BD281DD1F4
:10E620000520009001ABA822BA21F3F78BFF002848
:10E6300001D1002013E09DF80400207001A841786A
:10E6400061708178A1700021E170C1782171007939
:10E650006071E01C00F006F8012000E0002004B02A
:10E6600010BD00004178007840EA01204FF4F071BD
:10E6700090FBF1F000EE100AB8EEC00ADFED070AD9
:10E6800030EE200ABDEEC00A10EE100A80B2044936
:10E690000870000A487001207047000000002A42FC
:10E6A000AC2E012001207047012070470FF240017D
:10E6B0000520F7F73DBB000042522D5246000000F6
:10E6C00042522D434600000042522D5046000000A9
:10E6D00028000000700000005000000060000000F2
:10E6E0008F00000050000000E80300001000000050
:10E6F000B1E50008CBE50008DDE50008EFE500081E
:10E70000F3E50008F7E5000800000000A5E60008B2
:10E71000A9E60008002070470120704701207047DB
:10E7200038B504460D46F3F7BCFD0521F3F7A5FF08
:10E730000020104904E00A680255521C0A60401C7F
:10E74000A842F8DB012032BD01207047012070474C
:10E75000094802680A704A70511C01600120704724
:10E7600006490A6802704270501C08600120704718
:10E7700000000000DC7C00203C2E0120402E012007
:10E780000FF234010820F7F7D3BA10B50FF22804BE
:10E7900021461220F7F7CCFA21461320F7F7C8FAE2
:10E7A00021461420BDE81040F7F7C2BA0FF2080165
:10E7B0001520F7F7BDBA000015E7000819E70008B3
:10E7C0001DE700081DE700084DE7000821E70008E5
:10E7D00049E7000861E7000851E7000810B5002488
:10E7E000F3F75FFD007CC00700D50124204610BD73
:10E7F00000B589B000A82421F5F7B6FF0020ADF8D8
:10E8000022000A208DF8080000208DF809008DF8FC
:10E810000A008DF800001F20019000A8F9F7E8FA1F
:10E82000012009B000BD00B589B000A82421F5F78A
:10E830009BFF0020ADF822000A208DF80800002080
:10E840008DF809008DF80A0001208DF800001F20C6
:10E85000019000A8F9F7CCFA012009B000BD00B57D
:10E8600089B000A82421F5F77FFF0020ADF8220031
:10E870000A208DF8080000208DF809008DF80A00A4
:10E8800001208DF800001F20019000A8F9F7B0FAD0
:10E89000012009B000BD0120704710B50024F3F736
:10E8A00000FD007CC00700D50124204610BD00B546
:10E8B00089B000A82421F5F757FF0020ADF8220009
:10E8C0000A208DF8080000208DF809008DF80A0054
:10E8D0008DF800002020019000A8F9F789FA0120A6
:10E8E00009B000BD00B589B000A82421F5F73CFFB0
:10E8F0000020ADF822000A208DF8080000208DF8D5
:10E9000009008DF80A0001208DF8000020200190F8
:10E9100000A8F9F76DFA012009B000BD00B589B073
:10E9200000A82421F5F720FF0020ADF822000A20DE
:10E930008DF8080000208DF809008DF80A000120EC
:10E940008DF800002020019000A8F9F751FA01206D
:10E9500009B000BD0120704710B50024F3F7A1FCF9
:10E96000007C800700D50124204610BD00B589B089
:10E9700000A82421F5F7F8FE0020ADF822000A20B7
:10E980008DF8080000208DF809008DF80A008DF838
:10E9900000002120019000A8F9F72AFA012009B00F
:10E9A00000BD00B589B000A82421F5F7DDFE0020E8
:10E9B000ADF822000A208DF8080000208DF809002B
:10E9C0008DF80A0001208DF800002120019000A898
:10E9D000F9F70EFA012009B000BD00B589B000A812
:10E9E0002421F5F7C1FE0020ADF822000A208DF8A1
:10E9F000080000208DF809008DF80A0001208DF82C
:10EA000000002120019000A8F9F7F2F9012009B0D7
:10EA100000BD0120704710B50024F3F742FC007CD4
:10EA200000F00300032800D10124204610BD00B5EA
:10EA300089B000A82421F5F797FEDFF824030178B8
:10EA400041F0020101700020ADF822000A208DF88B
:10EA5000080001208DF809008DF80A1000208DF8BB
:10EA600000002220019000A8F9F7C2F9012009B0A6
:10EA700000BD00B589B000A82421F5F775FEDFF8C8
:10EA8000E012087810F0FD00087014D10020ADF8F5
:10EA900022000A208DF8080001208DF809000020CE
:10EAA0008DF80A0001208DF800002220019000A8B6
:10EAB000F9F79EF902E040B208F0E2F9012009B04E
:10EAC00000BD012070470120704710B50024F3F706
:10EAD000E8FB007C00F00700072800D10124204655
:10EAE00010BD00B589B000A82421F5F73DFE9C4972
:10EAF000087840F001000870032805D140B208F002
:10EB0000BFF908F0D9F912E00021ADF822100A216E
:10EB10008DF8081000218DF809108DF80A000846BC
:10EB20008DF800002220019000A8F9F761F901207A
:10EB300009B000BD00B589B000A82421F5F714FE86
:10EB40008749087810F0FE00087013D10020ADF856
:10EB500022000A208DF8080000208DF809008DF8A9
:10EB60000A0001208DF800002220019000A8F9F78A
:10EB70003FF904E040B208F083F908F0A2F901205F
:10EB800009B000BD012070470120704710B5002476
:10EB9000F3F787FB007CC00700D50124204610BD99
:10EBA00000B589B000A82421F5F7DEFD0020ADF8FE
:10EBB00022000A208DF8080000208DF809008DF849
:10EBC0000A008DF800002320019000A8F9F710F941
:10EBD000012009B000BD00B589B000A82421F5F7D7
:10EBE000C3FD0020ADF822000A208DF808000020A7
:10EBF0008DF809008DF80A0001208DF8000023200F
:10EC0000019000A8F9F7F4F8012009B000BD00B5A3
:10EC100089B000A82421F5F7A7FD0020ADF8220057
:10EC20000A208DF8080000208DF809008DF80A00F0
:10EC300001208DF800002320019000A8F9F7D8F8F2
:10EC4000012009B000BD01207047000070B58AB0F6
:10EC500006460D46F8F7F6FF044600200090042211
:10EC6000314600A8F5F742FE01A82421F5F77CFD06
:10EC7000009A29460FF2A410F3F794FB28460C38AB
:10EC8000092840D8DFE800F0050F1419300B3F3F8A
:10EC90003F3B1420C4F8DC0401200AB070BD1420EE
:10ECA000C4F87C05F8E704F2DC4042218162F3E716
:10ECB00004F2DC4000990165EEE729480078C107BD
:10ECC00012D50021ADF826100A218DF80C10002174
:10ECD0008DF80D108DF80E0001208DF80400222013
:10ECE000029001A8F9F784F80099284640B200F094
:10ECF00010F8009004F2DC4000998167CCE7142002
:10ED0000C4F8BC06C8E70FF22410F3F74BFB002051
:10ED1000C3E710B4134AD36B126C114C2478002C47
:10ED20001AD00F2802D010280BD015E0507A0028F6
:10ED300012D0906B806800280ED488420DDD084602
:10ED40000BE0587A002807D0986B8068002803D41D
:10ED5000884202DD084600E0084610BC704700000B
:10ED6000B22E01200840002012B589B001460C39AE
:10ED700009292CD8DFE801F0051F2123231D2B2BA7
:10ED80002B291F240020ADF8220001900A208DF8C5
:10ED9000080005208DF800000194042209A90DF156
:10EDA0000900F5F7A3FD00A8F9F722F801200AB041
:10EDB00010BD2324E6E72024E4E72124E2E722240F
:10EDC0000999FFF7A6FF0990DCE72B24DAE70FF299
:10EDD0006400F3F7E7FA0020E9E780B50FF25C0181
:10EDE0000C20F6F7A5FF0FF278011120F6F7A0FF2F
:10EDF0000FF290010D20F6F79BFF0FF2AC010E20F1
:10EE0000F6F796FF0FF2C4010F20F6F791FF0FF20D
:10EE1000E0011020BDE80440F6F78ABF4D523220D1
:10EE200044523D25642C2564000000004D523220E0
:10EE3000534446004D52322052434600DDE700085D
:10EE4000F1E7000827E800085FE80008000000007C
:10EE500097E800084DEC00080000000000000000EA
:10EE60008DEB0008A1EB0008D7EB00080FEC0008C1
:10EE70000000000047EC00084DEC00080000000016
:10EE8000000000009BE80008AFE80008E5E8000883
:10EE90001DE900080000000055E900084DEC0008DD
:10EEA000000000000000000059E900086DE90008BA
:10EEB000A3E90008DBE900080000000013EA0008ED
:10EEC0004DEC0008000000000000000017EA0008F8
:10EED0002FEA000873EA0008C3EA000800000000F7
:10EEE000C7EA00084DEC0008000000000000000028
:10EEF000CBEA0008E3EA000835EB000885EB0008E0
:10EF00000000000089EB00084DEC00080000000044
:10EF10000000000080B5FBF791FADFF8E817086001
:10EF2000012002BD80B5F5F7ABFBDFF8DC17D1E9B6
:10EF30000023801A02BDF8B50446A069E1684518AF
:10EF4000B5F90000B5F90270B5F90460B4F85810CD
:10EF5000411A2980B4F85A10791A6980B4F85C1003
:10EF6000711AA980B5F90010C913B1EBE03F13D0B5
:10EF7000B4F95810C913B1EBE03F0DD00FF2A470F3
:10EF8000F3F710FAB5F90000012802DBDFF87C077F
:10EF900001E047F6FF702880B5F90210C913B1EB04
:10EFA000E73F13D0B4F95A10C913B1EBE73F0DD0C6
:10EFB0000FF27C70F3F7F6F9B5F90200012802DBD5
:10EFC000DFF8480701E047F6FF706880B5F90410E4
:10EFD000C913B1EBE63F13D0B4F95C10C913B1EB20
:10EFE000E63F0DD00FF25470F3F7DCF9B5F90400E9
:10EFF000012802DBDFF8140701E047F6FF70A88064
:10F0000094F90800002804D1002000E0401C0328E7
:10F01000FCDBF1BD00000000FEB5044600A80021A5
:10F020000A460B460EC0A069E1684518174694F9D8
:10F030000860052E80F09A80012E02D12046FFF74D
:10F040007AFF3046012802D9C01E40F08A80002E87
:10F0500001D14FF6FF77DFF8AC060068301890F862
:10F060008400401E06285ED8DFE800F004101D2949
:10F0700036424F00B5F90200009000A8B5F9001023
:10F08000791A4160B5F90410816056E0B5F90000C5
:10F09000381A009000A8B5F90210791A4160B5F944
:10F0A0000410816049E0B5F90200381A009000A808
:10F0B000B5F900104160B5F9041081603DE0B5F983
:10F0C0000000381A009000A8B5F902104160B5F9A7
:10F0D0000410791A816030E0B5F90200009000A8B0
:10F0E000B5F900104160B5F90410791A816024E087
:10F0F000B5F90000009000A8B5F90210791A416036
:10F10000B5F90410791A816017E0B5F90200381AD0
:10F11000009000A8B5F90010791A4160B5F9041003
:10F12000791A816009E0B5F90000009000A8B5F9EE
:10F1300002104160B5F904108160012E0AD100214E
:10F1400006E050F8212002F30F0240F82120491C6C
:10F150000329F6DB0098288000A841686980806850
:10F16000A880002E02D12046FFF7E5FE0120FEBD5B
:10F1700070B52DED028B82B08169C2688A1890F952
:10F18000081008460A2800F29780DFE800F0062BF6
:10F1900073959565959595808E00B2F90240B2F908
:10F1A0000450DFF8600500689FEDB70AB2F900105F
:10F1B00000EE901AF8EEE00A60EE800AC0ED000A58
:10F1C00000EE904AF8EEE00A60EE800AC0ED010A17
:10F1D00000EE905AF8EEE00A20EE800A001D80ED65
:10F1E000010A6DE0B2F90240B2F90450DFF81405EB
:10F1F0000068061D9FEDA58BB2F9000000EE100A15
:10F20000B8EEC00A10EE100AF8F71AFF53EC182BEC
:10F21000F3F72AFDF8F73CFFB06000EE104AB8EEB5
:10F22000C00A10EE100AF8F70BFF53EC182BF3F797
:10F230001BFDF8F72DFFF06000EE105AB8EEC00A83
:10F2400010EE100AF8F7FCFE53EC182BF3F70CFD48
:10F25000F8F71EFF306133E0002000901068009046
:10F260009DED000ABAEECA0ADFF89804006880ED46
:10F270000C0A25E0DFF88C0400681188A0F85A1009
:10F2800000F25A00518841809188818018E0DFF8AF
:10F290007404006800F25A001188C180518801810D
:10F2A00091884181D18881810AE0DFF858040068A3
:10F2B000118880F8681003E00FF28C40F3F772F8C1
:10F2C000012002B0BDEC028B70BD70B50D46DFF8B9
:10F2D000401451F820400026207F002801D13046FC
:10F2E00070BD607A002803D0206E80688047064693
:10F2F0002846216EC96988470546002E02D0206E37
:10F3000040688047284670BD9B0701D542F21072C5
:10F3100092FBF1F190F8222051430069814201DA19
:10F320000120704700207047002901D48164C16426
:10F33000002A03D4910701D580F8202070470029C6
:10F3400003D400218164416181617047042817D191
:10F3500001F10C008A7A012A09D0072242750B229A
:10F360008275DFF8B023CA600B2141607047152217
:10F37000427519228275DFF8A023CA601921416005
:10F3800070472DE9F2438AB005461446194600201D
:10F39000ADF8220001900A208DF8080000208DF8B9
:10F3A00009008DF80A00A946B9F1160F44D22E467D
:10F3B000D74850F826704FF00208387F00283BD01D
:10F3C0009DF94820002A08D4D00706D513460A46DE
:10F3D0000A993846FFF798FF52E03846FFF7A4FF36
:10F3E000A9F10C0006280BD22946C9B20AA83A6E28
:10F3F000926990470C2E01D0112E01D114200A9051
:10F4000039462846FFF7A2FF787A00281CD121460A
:10F4100049B238467A6E1268904700280ED0386E8E
:10F4200040688047002805D14146A1F10108C9B2D2
:10F430000029F4D1002801D1002021E0214649B261
:10F4400038467A6E52689047787A401C7872224625
:10F4500052B20A9938467B6E1B69984700F0C6F88D
:10F46000072E0CD1002C0AD100208DF800001120AD
:10F4700001900A208DF8080000A8F8F7B9FC0120D7
:10F480000BB0BDE8F083000060F61C3A89AD84FA49
:10F490000A74313F2DE9F0418AB006460C46154604
:10F4A00019460020ADF8220001900A208DF80800CE
:10F4B00000208DF809008DF80A00162E07D2944816
:10F4C00050F826704FF00208387F002801D1002044
:10F4D0003CE03846FFF733FF787A012818D12946F7
:10F4E00049B238467A6E9268904700280AD0386E42
:10F4F00080688047002805D14046A0F10108C0B2CD
:10F500000028F4D1294649B238467A6ED26890472D
:10F51000787A002801D0401E78722A4652B22146DD
:10F5200038467B6E5B69984700F060F8072E0CD177
:10F53000002D0AD101208DF80000112001900A2031
:10F540008DF8080000A8F8F753FC01200AB0BDE8C8
:10F55000F0812DE9F84304460D4616461946274624
:10F56000162F1DD26A4850F8248098F81C000028F5
:10F5700016D09DF92020002A09D4D00707D51346BC
:10F580000A462946404601B0BDE8F043BCE606EB1A
:10F59000460008EB8009D9F838008068002801D5BA
:10F5A000002021E04046FFF7BFFE324652B2D9F8B4
:10F5B000380081684046D8F864305B699847324625
:10F5C00052B229464046D8F864301B699847A7F1E3
:10F5D0000C00062805D229462046FFF7C5FB01206E
:10F5E00002E000F003F80120BDE8F28370B56FF08F
:10F5F00000452C464948016804E08A68A24200DAC6
:10F60000144609688142F8D1454E3078401C30706C
:10F610007078F021084202D09920F5F7E3F8F5F769
:10F620004EF97078401C7070AC4200D1002435480F
:10F630000168CC67D1F88020204682420BD0002898
:10F6400001D0002A04D1C1F88000F2F787FE02E061
:10F65000012007F079FC7078F021084202D099204F
:10F66000F5F7C0F87078401E7070C0B2002801D164
:10F67000F5F71FF9F5F77DFF012070BD38B5054698
:10F68000274C2078401C20706078F021084202D07E
:10F690009920F5F7A7F8F5F712F96078401C60702B
:10F6A00018480068C0F880501C48016805E08A6866
:10F6B000B2FBF5F26A43CA6009688142F7D160780B
:10F6C000F021084202D09920F5F78CF86078401EAE
:10F6D0006070C0B2002801D1F5F7EBF8BDE8314009
:10F6E000F5F747BF0D490A6808E01369012B01DAF5
:10F6F000D368136113691B1A136112688A42F4D12B
:10F7000070470000502E0120C02D01200080FFFF17
:10F7100008400020C44F0020EC2A0120784000203F
:10F72000087C002058206973206F76657200000005
:10F7300059206973206F7665720000005A20697342
:10F74000206F7665720000005543535428256429C4
:10F750004E53000038B504000D0014480078401CDA
:10F760001249087012480078002802D0A120F5F74D
:10F7700039F8F5F7BDFE607E662802D08220F5F7E5
:10F7800031F8F5F79CF805E03821200007F0E2FB9E
:10F79000F5F795F8E06821698842F5D02900200046
:10F7A00007F0FAFBF5F7E5FE31BD00BF087C00204D
:10F7B000DB2E01204FF0FF31801E012812D9C01E20
:10F7C00004280FD9801F06280CD908380AD0801EBB
:10F7D000042807D9401F03D0401E102802D902E098
:10F7E000072100E001210846704780B5014600204E
:10F7F000C91E18D0C91E16D0C91E14D0C91E012991
:10F8000011D90D3903290ED9091F05D0491E0AD077
:10F81000C91F032907D902BD1D210FF21000F2F7FD
:10F82000C1FD012002BD012002BD000050443A206C
:10F830004C4C53202564000038B504464FF0FF358A
:10F84000F8F700FA2B2C35D8DFE804F02F34332FEB
:10F850002F332F2F3333342F183316162F2F3433E3
:10F86000342F2F2F182F332F332F2F1B1E22262AF2
:10F870002D33333333333133C8251BE04FF47A75DE
:10F8800018E0D0F8DC5415E000F2DC40856A11E0A5
:10F8900000F2DC40056D0DE000F2DC40856F09E010
:10F8A000D0F87C5506E00A2504E0422502E0052553
:10F8B00000E01425284632BD38B5DFF8104AFAF7C3
:10F8C000BDFDE06207F0D0FBF8F7BCF9206300252E
:10F8D00012E0DFF8FC190161DFF8F8194161DFF887
:10F8E000F8298261DFF8F429C261DFF8F4290262A5
:10F8F0004162406A80476D1C2C2D80F21881216B7B
:10F9000005EB8500C00000224254401842704FF0C1
:10F91000FF32426000220272C2604272032D04D1A3
:10F920007431DFF8C0298A62E3E7022D03D1DFF8E2
:10F93000B8294A67DDE7002DCBD0042D04D17431FE
:10F94000DFF8A8290A65D4E7052D04D17431DFF862
:10F95000A0298A67CDE7062D04D1DFF89829C1F8E0
:10F960001421C6E7072D05D101F58A71DFF8882932
:10F970008A62BEE7082D05D101F58A71DFF87C297E
:10F980000A65B6E7092D05D101F58A71DFF87029FE
:10F990008A67AEE70A2D9CD00B2D9AD0012D98D006
:10F9A0000C2D04D1DFF85C29C1F80422A1E70D2D4C
:10F9B00005D101F50171DFF850298A6299E70E2D12
:10F9C00005D101F50171DFF844290A6591E70F2D92
:10F9D00005D101F50171DFF838298A6789E7102D13
:10F9E00004D1DFF83029C1F8A42282E7112D04D117
:10F9F000DFF82429C1F8CC227BE7122D3FF469AF50
:10FA0000142D3FF466AF132D3FF463AF162D3FF472
:10FA100060AF2B2D3FF45DAF152D04D1DFF80C2A1C
:10FA2000C1F86C2365E7172D05D101F55B71DFF88F
:10FA3000002A0A655DE7182D05D101F55B71DFF835
:10FA4000F4298A6755E71A2D05D101F20C41DFF838
:10FA5000E8298A624DE71E2D05D101F2AC41DFF89D
:10FA6000DC298A6245E7192D04D1DFF8D429C1F8D1
:10FA70000C243EE71F2D05D101F2AC41DFF8C4296B
:10FA80000A6536E7202D05D101F2AC41DFF8B8292F
:10FA90008A672EE7212D04D1DFF8B029C1F84C2563
:10FAA00027E7222D05D101F24C51DFF8A4298A6203
:10FAB0001FE7232D05D101F24C51DFF898290A6583
:10FAC00017E71B2D05D101F20C41DFF88C290A65DF
:10FAD0000FE71C2D05D101F20C41DFF880298A6760
:10FAE00007E71D2D04D1DFF87829C1F8AC2400E721
:10FAF000262D04D1DFF86C29C1F81426F9E6272D4C
:10FB000005D101F21461DFF860298A62F1E6292D3E
:10FB100005D101F21461DFF854298A67E9E62A2D3C
:10FB20007FF4D7AEDFF84829C1F8B426E1E601201A
:10FB300032BD0CB42DE9FF470546884601244746EF
:10FB40002E461A2E48D006EB86004FEAC008DFF892
:10FB50007C970B2F20D1D9F8300008EB000A9AF8D7
:10FB60000100002818D02846FFF724FE012813DBE7
:10FB70002846FFF71FFE9AF8011081420CDB284649
:10FB800000F086F90446D9F8300040440021417065
:10FB90000FF6E800F2F706FCD9F8300018F800106C
:10FBA000002947D108EB00014A78002A42D10022FF
:10FBB00008F80020104648700CA983B06846182247
:10FBC000F2F746FF0EBC284600F07CF802282CD045
:10FBD00003282FD103242DE00B2F16D1FFF7EAFDC8
:10FBE000012812DB2846FFF7E5FD06EB8601DFF86A
:10FBF000DC26126B02EBC1014978814205DB0FF66E
:10FC00008400F2F7CFFB022057E04046C0B202F07A
:10FC10004FF80CA983B068461822F2F719FF0EBC02
:10FC2000284600F04FF8022801D1022045E00328C1
:10FC300000D103240A2F0DD1DFF89096D9F83000B7
:10FC400006EB86014FEAC10818F80010491C08F8B5
:10FC5000001017E00B2F15D1DFF87096032E07D197
:10FC6000D9F8300090F87900002801D101F088FA25
:10FC700006EB86004FEAC008D9F8300040444178CE
:10FC8000491C4170DFF84496D9F83000D9F82C109F
:10FC900006EB86024FEAC208D1E91C23CDE9022314
:10FCA000C96E009108EB00014B7818F8002031462E
:10FCB0000FF2DC70F2F776FB204604B0BDE8F007E7
:10FCC0005DF80CFB0EB42DE9F04183B0054601242C
:10FCD000C0B2FFF7B1FDDFF8F46505EB8501326BCB
:10FCE00002EBC107786000203872F86009A984B07F
:10FCF00068461822F2F7ACFE0FBC3F69B8470228ED
:10FD000001D1022011E0032801D103240CE0D6F830
:10FD10002C80D8E91C67204600212A4607F048FAC3
:10FD200030433943C8E91C012046BDE8FE015DF8B7
:10FD300010FB2DE9FF4704460D460126274607EB39
:10FD400087004FEAC008DFF88495D9F830001A2FF1
:10FD500057D008EB000A9AF80100022814DB20466D
:10FD6000FFF728FD01280FDB2046FFF723FD9AF857
:10FD70000110814208DB2046FFF71CFD8AF80100D4
:10FD80000FF22070F2F70EFBD9F8300018F80010CF
:10FD9000002904D108EB00025278002A60D02A46DC
:10FDA0000A2A09D1002903D0491E08F8001017E0DB
:10FDB000002108F8001013E00B2A11D108EB000114
:10FDC0004A78002A02D0521E4A7001E000224A708E
:10FDD000032F05D190F87900002801D101F0DFF957
:10FDE000D9F8300018F80010002939D14044407883
:10FDF000002835D1204600F04BF8032830D10326E7
:10FE00002EE018F80010002904D108EB0002527807
:10FE1000002A25D02A460A2A09D1002903D0491EE2
:10FE200008F8001012E0002108F800100EE00B2A7C
:10FE30000CD108EB000A9AF80100002803D0401EFC
:10FE40008AF8010002E000208AF801002846C0B2CA
:10FE500001F02EFF204600F01BF8032800D10326F6
:10FE6000D9F83000D9F82C10D1E91C23CDE90223B0
:10FE7000C96E009108EB00014B7818F80020394654
:10FE80000FF22860F2F78EFA304604B0BDE8F08732
:10FE90002DE9F0410746012607EB8700C500DFF892
:10FEA0002C44206B281840698047032800D1032682
:10FEB000384640B200F080F9032800D10326206BB9
:10FEC000295C002917D128184178002913D14FF057
:10FED000FF31416000210172C160D4F82C80D8E963
:10FEE0001C4501203A4607F063F924EA000025EAA0
:10FEF0000101C8E91C013046BDE8F08138B504466F
:10FF000004EB8400C000DFF8C453296B0022425484
:10FF10004018114641702046FFF7BAFFE86AD0E961
:10FF20001C2321460FF29850F2F73CFA012032BD13
:10FF30002DE9F041B6B004460E46B6B201208DF868
:10FF40006400DFF888531AA8E96A6C22F2F780FD92
:10FF500017951AA984B068466C22F2F779FD0FBC98
:10FF600000F0DCF900270BE0032803D118970320E9
:10FF70008DF86400286B4044002101727F1C7FB221
:10FF80002C2F2ADAEA6AD2E91C013A4600F0CEFAAE
:10FF900000F0010011F0000101D10028EED007EBC4
:10FFA00087004FEAC008286B404441680029E5D427
:10FFB000027A521C0272D2B2724389B28A42DDDBEB
:10FFC000806980470228CFD1189702208DF86400FD
:10FFD000DDE91801C4E9000103E0DDE91801C4E925
:10FFE000000136B0BDE8F08100210A3842F2077204
:10FFF000904200D20121084670472DE9F04383B0BA
:020000021000EC
:10000000044600200190042204F1090101A8F4F73C
:100010006DFC6168DFF8B462376B282505FB017061
:100020004068019A904204D10FF2A440F2F7BAF965
:1000300068E01046FFF7D8FF002809D16168019BEE
:1000400005FB017042680FF29440F2F7ABF959E0FA
:10005000DFF820743868D0F8008025E090F9089027
:100060006068316B05FB0010C06820FA09F0C0071A
:1000700017D54FF0FF300090034601220199484602
:10008000FFF77FF940B200280BD16168019800901A
:10009000306B05FB010043684A460FF25440F2F70B
:1000A00081F94046D0F80080B842D7D13868D0F8FE
:1000B00000801FE090F90890C86820FA09F0C00796
:1000C00015D54FF0FF33012249684846FFF7E2F9A2
:1000D00040B200280BD1616801980090306B05FB9D
:1000E000010043684A460FF22040F2F75BF94046B0
:1000F000D0F800806168326B05FB0121B842D9D18C
:1001000001984860BDE8F7832DE9F8438146002453
:1001100025466E4F21E005EB8500C600386B06EBE7
:100120000008002088F80900FA6AD2E91C012A4672
:1001300000F0FCF900F0010011F0000101D10028ED
:100140000AD04846D8F81C108847002804D0386BDD
:100150003018012141720C466D1C2C2DDBDB204632
:10016000BDE8F2835948C16AD1E91C23002B01D1B3
:10017000002A0DD0002107E002EB8203026B02EBA4
:10018000C30200235372491C49B20A462C2AF3DBEE
:10019000704700B502464D48C36AD3E91C0100F020
:1001A000C5F900F0010011F0000101D1002801D0D3
:1001B000012000BD084600BD2DE9F047814601241D
:1001C00009EB8900C500414E306B2818C068002833
:1001D00029D0DFF8A0723868D0F8008003E003244B
:1001E0004046D0F80080B8421DD090F908A0306B8E
:1001F0002818C168012202FA0AF2114021FA0AF114
:1002000049B20129ECD14FF0FF3301224168504639
:10021000FFF740F90028E2D0524649460FF200307D
:10022000F2F7C0F8DCE72046BDE8F08710B58AB0E9
:1002300004460020ADF8220001900A208DF8080045
:1002400000208DF809008DF80A00ADF82200600743
:1002500019D50520FFF79DFF002807D004208DF851
:1002600000000520019000A8F7F7C2FD0220FFF76B
:1002700090FF002807D004208DF800000220019094
:1002800000A8F7F7B5FDE0060CD50820FFF781FFC1
:10029000002807D003208DF800000820019000A856
:1002A000F7F7A6FD0AB010BD02460020092A00D0CB
:1002B000704780B5012902D107F030F8012002BD56
:1002C00002492C22F2F7C4BB00000000A82801203C
:1002D0005B7F0008577F0008637F0008677F000886
:1002E0006B7F0008890B0108EB3B01084D050108F5
:1002F000D339010827F3020855060308E937010836
:100300006B72010861080108D5F1020829E30208AF
:1003100085FD02080B0403089DFA02080FB41B9820
:100320000099016001994160029981600399C1605F
:100330000499016105994161BDF85A100183BDF826
:100340005C104183BDF85E1081830C9901621399A2
:1003500041621499816204B070470000416812291B
:1003600003D1C17A002000F0C8BF132903D1017B5B
:10037000012000F0C2BF142903D1417B022000F00C
:10038000BCBF152902D1C07A00F0C8BF172945D1DA
:10039000817A1B2906D01C2930D01D290FD026298F
:1003A00026D07047C17B012903D1B0F80B0003F0C0
:1003B00039B9022932D1B0F80D0003F031B9017D0D
:1003C000012903D1B0F80B0007F088BA022903D144
:1003D000B0F80D0007F076BA042903D1B0F8170081
:1003E00007F088BA032919D1B0F8150007F08EBAC2
:1003F000C17B012912D1807B07F0C1BB817B012920
:1004000002D1C07A07F0C3BD022902D1007B07F0F8
:10041000C8BD052902D1407B07F0A3BD704716492E
:100420000860704714480068704700006D070308B3
:100430009D09030861FC02084328010831EF020806
:100440005D0003082D9401083F0503088BF902089D
:10045000236E0108A1950108C5350108DD7D01085D
:1004600063780108C37A01089BD002089108030849
:1004700035D2020874490020542E0120414C2045F9
:1004800058000000414C2045582D41540000000008
:10049000414C256420256420256420256420256C9A
:1004A0006C750000524C204558000000524C2564E9
:1004B00020256420256420256420256C6C750000AF
:1004C0005445524D20256420256C6C7500000000B9
:1004D0004558204C4D435231202564004558204C4E
:1004E0004D435232202564202564202564000000FD
:1004F0004558204C4D435233202564202564202547
:1005000064202564000000004558204C4D435234BF
:100510002025642025642025642025640000000037
:10052000534D52412025642025640000D2B2203A68
:1005300022BF21FA02F0002170472032D141D04081
:1005400048409140D14048407047000038B5F7F727
:1005500079FB0446104DF9F771FF286005F0B6F8F5
:1005600005F0B9F8686005F0F1F90C48C4F8B0007E
:1005700004F1B0000A4941600A4981600A49C1603A
:100580000A490161012032BD034949688968084769
:100590000148406800680047F02D01205B7F00089B
:1005A000577F0008637F0008677F00086B7F0008A3
:1005B0002DE9F04786B0044601A81421F4F7D4F8D9
:1005C000F1F76FFE05464FF00208002601E0761CA9
:1005D00076B20A2E80F29E80022EF8D0032EF6D03C
:1005E000062EF4D0524850F82670787A002806D1AA
:1005F00007F10C00406D406880470028E7D008F8FC
:10060000046008F101084FFA88F8304609284FD8ED
:10061000DFE800F0050A4E4E10204E154E49C82165
:100620002846F2F72AF843E04FF448712846F2F7DB
:1006300024F83DE032212846F2F71FF838E0072081
:100640008DF80400FF208DF8050032212846F2F7CE
:1006500014F82DE03C212846F2F70FF84FF0000A7D
:1006600007F10C09BAF1030F22DA0020D9F854106F
:100670000969884714212846F1F7FFFF0120D9F8BE
:1006800054100969884714212846F1F7F6FFBAF19A
:10069000020F05DA062101A8D9F8542052699047C3
:1006A0000AF1010ADEE74FF416712846F1F7E5FF7B
:1006B00007F10C0999F8151001A8D9F854205269CE
:1006C0009047002819D0D9F80C00F96800EB010A0E
:1006D00099F8152001A95046F4F708F93846FEF7B5
:1006E0009BFC99F81520514608EB0400F4F7FEF83E
:1006F00099F9150080444FFA88F8787A00287FF439
:1007000066AFD9F854008068804700287FF45FAF57
:10071000002009E0A8F10200ADF80000022200A9C3
:100720002046F4F7E3F8002006B0BDE8F0870000AB
:100730000840002038B505000C0094F84C006428EF
:1007400002D08020F4F74EF8F4F7AAFEF4F7B7F8D9
:10075000606928436061207C10F0F800082806D109
:10076000A0696169084202D02000F4F73EFF074803
:100770004078F021084202D09920F4F733F803487A
:100780004078002801D1F4F794F831BD087C0020AE
:100790000FB480B5BDF80B0064494880022802DB25
:1007A000801E088001E0002008800C229DF90A10BC
:1007B0000020F7F749FA032801D1022000E00120C8
:1007C00002BC5DF814FB59480121418000210180E1
:1007D00001207047564908707047000030B58DB051
:1007E00002A8F7F790FA514C2088401C20806188BD
:1007F00080B2884231D300202080054627E060681F
:10080000D0F8EC01E840C00720D5284606F07EFC71
:1008100000281BD400EB80009FED430ADDED0B0A9E
:1008200060EE800AFDEEE00A10EE901A00AA8152F6
:10083000DDED0C0A20EE800ABDEEC00A10EE101AA3
:100840008218518000A94018012101716D1C172DDB
:10085000D5DBDDE9000106F062FC01200DB030BD02
:1008600080B5F7F7EFF9314948603249C0F8F01127
:1008700000F5F87030494160304981600FF20D0198
:10088000C1600FF225010161012002BD10B50024F5
:10089000274890F90000002804D106F060FC0028E9
:1008A00000D00124204610BDF8B504460D4640F2A4
:1008B0002116287816FB004001210170287816FBCC
:1008C00000404170287816FB00400C218170287888
:1008D00016FB0040164991F90010002902D00221B0
:1008E000C17001E00121C170287816FB0040012190
:1008F0000171287816FB0040C180287816FB00475C
:10090000002006F0CDFB3881287816FB004400203B
:1009100006F0CBFB60812878401C28700C20BDE8D5
:10092000F24006F0DBBB00000000C842D47C00208F
:10093000BD2E012091070108C7070108DD07010846
:100940000FB410B5032200210846F7F77DF90228FD
:1009500001D102201BE00FF23C00F1F723FDDFF88C
:10096000704C00206073608220629DF80C209DF81E
:100970000B109DF80A0008F09BF858220021DFF8C0
:10098000540CF1F76BFC00202074A073012010BC04
:100990005DF814FB50443A205374617274506564DE
:1009A0006F2D3032323500000120704730B58BB0EA
:1009B00000A8F7F7A8F905210320F7F707FA0028A0
:1009C00002D1DFF8140C0890DFF8044CA069C56F61
:1009D00008F003F8207294F90800022806D1422D8D
:1009E00004D114210320F7F790F907E0012805D17D
:1009F000142D03D142210320F7F787F9284680B24E
:100A0000DDED081A00A991EC030A07F0B6FEE069D3
:100A10002818E06101200BB030BD10B5DFF8B04BF5
:100A200094F9000000283AD494F90A0094F90110CE
:100A3000814228D1217B0818A07240B23D2801DBF9
:100A40003C38A07294F90A100FF26C00F1F7AAFC7E
:100A50000020E061DFF8880B90F9010010F1010F30
:100A600001D1012010BD94F90110081AF2F7F6F92E
:100A700021F00041F2F722FC40B2012801DB012005
:100A800010BD002010BDDFF85C0B90F901209142F1
:100A900003D0D4E90023C0E90023002010BDE069A1
:100AA000DFF8441B884205DB0FF21800F1F77AFCEF
:100AB000012010BD002010BD50443A204E54202586
:100AC0006400000050443A204E6F54696D65000088
:100AD0002DE9F8430026DFF8F84A07E07A19A272F8
:100AE00052B231460FF26C00F1F75CFC94F90A50F7
:100AF000002E21D46078461B76B294F90C70002E3B
:100B0000ECD53046F2F7AAF921F0004102460B4637
:100B1000904699463846F2F7A1F942464B46F2F71D
:100B200081F9E3D2EA1BA272002652B231460FF2DB
:100B30003800F1F737FCD9E73C2D02DBA5F13C008A
:100B4000A07294F90A100FF23400BDE8F443F1F7F3
:100B500029BC000050443A20636F6D703120256439
:100B60002C2025640000000050443A20636F6D7013
:100B7000322025642C2025640000000050443A20D7
:100B8000435554202564000010B5DFF8444A002086
:100B9000A07301202072002060724FF0FF3020709F
:100BA0000F20E072142020730020607360822062A6
:100BB0006074A062E06228220146DFF8300AF1F793
:100BC0004DFBF7F73FF8A061DFF8241AC0F8881052
:100BD0008830DFF8201A4160DFF81C1A81600FF2BC
:100BE0008D21C1600FF615210161012010BD10B5E6
:100BF00082B04FF46163C1EB0114A40013FB004306
:100C0000D3184FF47A746343DFF8E0492360DFF8C8
:100C1000C0391B7C009313460A4601460FF20800B8
:100C2000F1F7C0FB13BD000050442042542025645E
:100C30002025642025642025640000002DE9F04172
:100C40002DED028BAAB0DFF88C69314684B068467E
:100C50005822F1F7FDFE0FBC00F072FC10EE100AF6
:100C6000F7F7EEF941EC100B9FED7E8BDFF87C4936
:100C7000656853EC102B51EC180BF1F7F5FFF2F708
:100C80001DFB15FA80F060604FF6FF75A84200D397
:100C90006560314684B068465822F1F7D9FE0FBC32
:100CA00000F006FC10EE100AF7F7CAF941EC100B41
:100CB000A76853EC102B51EC180BF1F7D5FFF2F7A6
:100CC000FDFA17FA80F0A060A84200D3A5600020CA
:100CD000139002201290314684B068465822F1F7F2
:100CE000B7FE0FBC00F078FAA1894018A08180B24D
:100CF000FF2801DBFF20A081002013900320129029
:100D0000314684B068465822F1F7A2FE0FBC00F0CD
:100D100063FA216940182061A84200D325610020B0
:100D2000139006201290314684B068465822F1F79D
:100D30008FFE0FBC00F050FAA18A4018A08280B24A
:100D4000FF2801DBFF20A0820020139007201290D3
:100D5000314684B068465822F1F77AFE0FBC00F0A5
:100D60003BFAE18A4018E08280B2FF2801DBFF20D5
:100D7000E0820020139008201290314684B068462B
:100D80005822F1F765FE0FBC00F026FAA169401861
:100D9000A061A84200D3A561002013900920129001
:100DA000314684B068465822F1F752FE0FBC00F07D
:100DB00013FAE1694018E061A84200D3E56114A884
:100DC00007F00FFEDFF82C7DD7F828802398F7F77F
:100DD00037F90022DFF8003DF1F746FFF2F76EFA2F
:100DE00058FA80F0B862F96A491CF962B0FBF1F078
:100DF00084F820000020139001201290314684B026
:100E000068465822F1F724FE0FBC00F0E5F9616A4C
:100E100040186062A84200D36562F87B00F0C7FA10
:100E20002AB0BDEC028BBDE8F081DFF8C0078189F4
:100E3000002914D10169002911D1818A00290ED11C
:100E4000C18A00290BD18169002908D1C169002913
:100E500005D1406A401E8041C043C00F7047012049
:100E60007047000000000000000059402DE9F04FDD
:100E7000ABB08246002414A807F0B3FDDFF8545746
:100E80002046139001201290294684B068465822CB
:100E9000F1F7DEFD0FBC00F09FF906469DED230A39
:100EA000D5ED0F0A30EE600A10EE100AF7F7C8F819
:100EB0002246DFF8243CF1F7D7FEF2F7FFF90746A8
:100EC000BFB2BDF89A00B5F84A10401AC0B20090FF
:100ED000DFF8208CBAF1000F44D1002E01D1384345
:100EE00015D00124002E12D0DFF8209CD9F8100074
:100EF000B0420CD0204608F0B8FA204608F06FFB4C
:100F0000D9F81000301AC8F82400C9F81060DFF8CA
:100F1000FC9BC9F810600020C8F81C004FF0FF309F
:100F200088F80000DFF8BC26D8E90001C2E900011A
:100F3000C9E90001DFF8A826C2E9000198F80B0012
:100F400088F80A0098F80E00002846D0002088F89B
:100F50000E0098F8100000283FD0012088F81100FA
:100F600004463AE000F0C5F900281CD001A8F1F7CA
:100F7000B6FC404601A90522F1F75AFD204688F843
:100F80000900DFF86026D8E90001C2E9000198F9FC
:100F9000023098F9012098F900100FF68430F1F72B
:100FA00001FAFFF795FD01A8F1F799FC404601A968
:100FB0000522F1F73DFDFFF730FD00280DD0DFF8E9
:100FC0002026D8E90001C2E9000198F810000028A5
:100FD00002D0012088F811000124D346BBF1010F93
:100FE00008D198F80E005146884203D000F04EFA1E
:100FF00088F80EA0BBF1010F69D1002E67D0DFF891
:101000000C9B98F80F0098F81010084310D101209D
:1010100088F810000522414609F10800F3F766FC44
:1010200098F8022098F8011098F80000FFF7DFFD0B
:1010300098F9010099F90910401A411E222901D29C
:10104000012005E010F1230F01DA012000E000206B
:10105000012835D10020C8F82800C8F82C00FFF777
:10106000E4FE00282CD028220021DFF88005F1F7CB
:10107000F5F898F80F00401C88F80F00C0B215284A
:101080000BD10FF6B420F1F78DF9012088F811008B
:10109000002088F80F00012412E098F81000401C8E
:1010A00088F8100098F8022098F8011098F80000CD
:1010B000FFF79DFD0522414609F10800F3F716FCF4
:1010C000FFF7BCFD582214A92846F3F70FFC98F847
:1010D0000D0001283CD1B8F81200002805D10FF608
:1010E0006820F1F75FF9012428E0D8F82010814248
:1010F00019D2002E02D10098384300D00124DFF825
:101100000C9A99F9020098F90220904216D0491CD5
:10111000C8F820100FF64420F1F744F9D8E900018F
:10112000C9E900010AE0002088F80D00A8F81200C3
:10113000C8F820000FF63420F1F734F9BBF1010FA5
:1011400006D198F81000002802D0012088F811007C
:101150002046012802D10021C8F81C10D8F8181028
:1011600091F87910002907D10021C8F81C10012836
:1011700001D100F08BF9002420462BB0BDE8F08FA0
:1011800010B5DFF870090021C1610322052100209C
:10119000F6F75AFD044600F007F8204610BD03227A
:1011A00005210120F6F750BD00B597B000A807F063
:1011B00018FC582200A9DFF84009F3F797FB01203B
:1011C00017B000BDDFF82C09406A7047DFF824092A
:1011D00000214162704700000FB410B596B00024A2
:1011E0009DF9BC0001280BD107F0F5FC1899884245
:1011F00002D3441AE4B272E08038441AE4B26EE0DA
:1012000000A807F0EEFB9DF9B800401E082866D83C
:10121000DFE800F02905111D2936424E5A000198D9
:101220001999884201D3441A59E0DFF8E4281018CC
:10123000401A441C53E002981A99884201D3441A78
:101240004DE0DFF8CC281018401A441C47E0039802
:101250001B99884201D3441A41E0DFF8B4281018E2
:10126000401A441C3BE000981899884201D3441A64
:1012700035E0DFF89C1808181899401A441C2EE035
:1012800004981C99884201D3441A28E0DFF880288A
:101290001018401A441C22E005981D99884201D379
:1012A000441A1CE0DFF868281018401A441C16E0A5
:1012B00006981E99884201D3441A10E0DFF850289E
:1012C0001018401A441C0AE007981F99884201D35D
:1012D000441A04E0DFF838281018401A441C20464D
:1012E00016B010BC5DF814FBDFF80808012141724C
:1012F0007047DFF80008407A704707F085BB014669
:10130000DFF8F027792902DB7820508200E0508254
:10131000012050730FF66800F1F744B810B50400CF
:1013200001D1012402E0072C00DB062421460FF640
:101330006400F1F737F8641E052C2DD8DFE804F0BF
:10134000030A11181F26DFF8AC073721C1723C21B0
:10135000017321E0DFF89C071921C1721E2101737E
:101360001AE0DFF890070F21C1721421017313E016
:10137000DFF880070A21C1720F2101730CE0DFF84A
:1013800074070721C1720C21017305E0DFF86407BF
:101390000521C1720A210173DFF85807C17A8172F1
:1013A000BDE81040FFF794BBDFF83007704700EB53
:1013B00080018800421CDFF824078C4992B20B6838
:1013C0001B0E1354521C92B20B681B0C1354521C6C
:1013D00092B20B681B0A1354521C92B20B6813543E
:1013E000521C92B24B681B0A1354521C92B24B68A7
:1013F0001354521C92B28B681B0A1354521C92B2A3
:101400008B681354521C92B28B891354521C92B2A3
:101410000B691B0A1354521C92B20B691354521CD1
:1014200092B28B8A1354521C92B2CB8A1354521C20
:1014300092B28B691B0A1354521C92B28B691354DB
:10144000521C92B2CB691B0A1354521C92B2CB6944
:101450001354521C92B291F820301354521C92B281
:101460004B6A1B0A1354521C92B2496A1154DFF89A
:101470008406511C8182704710B5DFF87846A18A36
:101480000FF21C70F0F78EFFA08A10BD80B52822E5
:1014900000215648F0F7E2FEDFF858060021C1733C
:1014A00001218182002101748162C16201BD0000BD
:1014B0000FB400B597B000A807F093FA9DED090AA4
:1014C000DDED210AB4EE600AF1EE10FA02DB30EE37
:1014D000600A05E09FED411A71EE600A30EE800A65
:1014E00010EE100AF6F7ACFDDFF8F425DFF8F4355E
:1014F000F1F7CCFCF6F7CCFDF6F7A2FD0022DFF801
:10150000E835F1F7B1FBF1F7D9FE00EE100AB8EEBD
:10151000C00A10EE100AF6F793FDDFF8C425DFF8D5
:10152000CC35F1F7A1FBDFF8C825DFF8E835F1F796
:10153000ADFCF6F7ADFD00EE100A17B05DF814FB38
:101540000FB400B597B000A807F04BFA9DED0E0A56
:10155000DDED260AB4EE600AF1EE10FA02DB30EEA1
:10156000600A05E09FED1D1A71EE600A30EE800AF8
:1015700010EE100AF6F764FDDFF86425DFF8643535
:10158000F1F784FCF6F784FDF6F75AFD0022DFF848
:101590005835F1F769FBF1F791FE00EE100AB8EE4D
:1015A000C00A10EE100AF6F74BFDDFF83425DFF81D
:1015B0003C35F1F759FBDFF83825DFF85835F1F7FE
:1015C00065FCF6F765FD00EE100A17B05DF814FB38
:1015D0000C2901201C24012000007A4400247449B5
:1015E000002E0120F82D012040771B00E429012066
:1015F00041090108A9090108AD0901082DE9F047D1
:101600002DED068BAAB006460D4614A807F0E9F9A1
:1016100040F22114287814FB006001210170287821
:1016200014FB0060DFF8CC74797B01290ED1032212
:101630004270287814FB00600122C270012907D192
:10164000788A002804D10020787301E001214170DC
:10165000287814FB006003218170787C012820D158
:10166000387C00281DD0297814FB0161C0220A7142
:10167000DFF868140870287814FB0068FFF7FCFE98
:10168000A8F83000287814FB0064FFF78DFEC4F83A
:1016900032002878401C2870FFF7F8FE002078748C
:1016A00015E20DF18C099FED868B9FED879BDFF88E
:1016B00048740020139001201290394684B0684687
:1016C0005822F1F7C5F90FBCFFF786FD0A282878E4
:1016D00014FB006080F0FC8000210171287814FB6D
:1016E000006898F804A0084613900220129039462A
:1016F00084B068465822F1F7ABF90FBCFFF76CFDD8
:1017000040EA0A0088F80400287814FB00680020EA
:10171000139003201290394684B068465822F1F79E
:1017200097F90FBCFFF758FD88F80500287814FBDF
:1017300000680020139004201290394684B0684657
:101740005822F1F785F90FBCFFF746FD88F806002F
:10175000287814FB00680020139005201290394669
:1017600084B068465822F1F773F90FBCFFF734FDD7
:1017700088F80700394684B068465822F1F768F9BE
:101780000FBCFFF7DDFE10EE100AF6F759FC41EC36
:10179000100B287814FB006853EC102B51EC190B3C
:1017A000F1F762FAF1F78AFDA8F80E00287814FB29
:1017B00000682398F6F744FC53EC182BF1F754FA21
:1017C000F1F77CFD88F81000287814FB0060B9F868
:1017D0000E104174394684B068465822F1F738F942
:1017E0000FBCFFF765FE10EE100AF6F729FC41EC7E
:1017F0001A0B287814FB006853EC1A2B51EC190BC8
:10180000F1F732FAF1F75AFD88F81200287814FB44
:101810000068D9F80800F6F713FC53EC182BF1F721
:1018200023FAF1F74BFD88F81300287814FB0068C1
:101830000020139006201290394684B06846582242
:10184000F1F706F90FBCFFF7C7FC88F80800287805
:1018500014FB00680020139007201290394684B0D2
:1018600068465822F1F7F4F80FBCFFF7B5FC88F88A
:101870000900287814FB00680020139008201290BB
:10188000394684B068465822F1F7E2F80FBCFFF7FA
:10189000A3FC88F80A00287814FB00640020139049
:1018A00009201290394684B068465822F1F7D0F8E2
:1018B0000FBCFFF791FCE0722878401C287004E10F
:1018C000000000000000244000000000000059401B
:1018D00080210171287814FB0068002013900220F9
:1018E0001290394684B068465822F1F7B1F80FBC1F
:1018F000FFF772FCC8F80500287814FB0068002088
:10190000139003201290394684B068465822F1F7AC
:101910009FF80FBCFFF760FCC8F80900287814FB9B
:1019200000680020139004201290394684B0684665
:101930005822F1F78DF80FBCFFF74EFCC8F80D00E8
:10194000287814FB00680020139005201290394677
:1019500084B068465822F1F77BF80FBCFFF73CFCD7
:10196000C8F81100394684B068465822F1F770F87B
:101970000FBCFFF7E5FD10EE100AF6F761FB41EC36
:10198000100B287814FB006853EC102B51EC190B4A
:10199000F1F76AF9F1F7A8FCC8F82700287814FBDA
:1019A00000682398F6F74CFB53EC182BF1F75CF921
:1019B000F1F784FC88F82B00287814FB0060B9F854
:1019C0000E1080F82C10394684B068465822F1F782
:1019D0003FF80FBCFFF76CFD10EE100AF6F730FB76
:1019E00041EC1A0B454A464B02F0D8F906D8454A55
:1019F000454BF1F717FA01D29FED47AB287814FB5E
:101A0000006853EC1A2B51EC180BF1F72DF9F1F794
:101A100055FCA8F82D00287814FB0068D9F80800B8
:101A2000F6F70EFB53EC182BF1F71EF9F1F746FC15
:101A300088F82F00287814FB0068002013900620F7
:101A40001290394684B068465822F1F701F80FBC6D
:101A5000FFF7C2FBC8F81500287814FB00680020C7
:101A6000139007201290394684B068465822F0F748
:101A7000EFFF0FBCFFF7B0FBC8F81900287814FB84
:101A800000680020139008201290394684B0684600
:101A90005822F0F7DDFF0FBCFFF79EFBC8F81D00D2
:101AA000287814FB00640020139009201290394616
:101AB00084B068465822F0F7CBFF0FBCFFF78CFBD1
:101AC000C4F821002878401C2870FFF76DFB2AB06D
:101AD000BDEC068BBDE8F08700002440D0FF00205D
:101AE0007B14AE47E17A743F00005940E17A843FAD
:101AF0002D431CEB0C2901201C240120B81E85EB72
:101B000051B89E3F9A9999999999B93FEC2B012028
:101B100080969800E2361A3F9A9999999999B93F17
:101B200050443A54696D654E6F74692025642025D0
:101B300064202564000000005044204254204246A6
:101B40002046554C4C00000050443A20526571200C
:101B50005065646F496E666F3100000050443A2052
:101B60007574696D657220256400000050443A2048
:101B7000526571205065646F496E666F32000000D7
:101B800050443A205374617274204461746120257A
:101B90006400000050443A205554202564000000A1
:101BA00050443A204241544C454E47544820256405
:101BB0000000000010B5DFF8444D40F297220021EC
:101BC0002046F0F74BFBFF202070E07284F85A02A9
:101BD000DFF8FC0D0021417010BD70B501240B2809
:101BE00031D1012918D1DFF8141D511891F94E3265
:101BF0001D46DFF8E06D965DB54203DA581C81F8AA
:101C00004E0243E0002381F84E321C4601460FF29B
