:1000000000200020F1300308B9CC0208CDCC020852
:10001000E1CC0208F5CC020809CD0208000000007E
:100020000000000000000000000000001DCD0208DC
:1000300031CD02080000000069AE000877C2000858
:10004000793303087D33030881330308D7D20208CC
:100050008933030833D4020889CF020819D1020872
:10006000A5D102089D330308A1330308A533030873
:10007000A9330308AD330308B1330308B5330308CC
:10008000B9330308BD330308C1330308C53303087C
:10009000C9330308CD330308D1330308D53303082C
:1000A000D9330308DD330308E1330308E5330308DC
:1000B000E9330308ED330308F1330308F53303088C
:1000C000F9330308FD3303080134030849CD02085E
:1000D000093403080D3403081134030815340308E8
:1000E00043D2020897D302082134030825340308B9
:1000F000293403082D340308313403083534030848
:10010000393403083D3403084134030845340308F7
:10011000493403084D3403085134030855340308A7
:10012000593403085D340308613403086534030857
:10013000693403086D340308713403087534030807
:10014000793403087D3403088134030885340308B7
:10015000893403088D340308913403089534030867
:10016000993403089D340308A1340308A534030817
:10017000A9340308AD340308B1340308B5340308C7
:10018000B9340308BD3403084843704700E000BF9A
:1001900010FB01F0704710FB01F000F5006000015A
:1001A0000014704730B5144681EA0002D50F83B0C1
:1001B000002844BFC043401C002944BFC943491C18
:1001C00000AB01AA00F017F800980199C4F12002D1
:1001D000E0409140084300900198E04002D100982F
:1001E000002802D56FF0004000902DB20098002D3D
:1001F00018BF40423EBD2DE9F0474FEA104A0F0CB0
:1002000004460D461646984639465046FFF7BCFF51
:100210008146A1B23846FFF7B7FF09EB10474FEA16
:100220000049A9B25046FFF7AFFF09EB004A07EBC0
:100230001047CA4538BF7F1CA9B2A0B2FFF7A4FF80
:100240005044504538BF7F1C3760C8F80000BDE8F7
:10025000F08700285CBF182100F0D4BBDFF8200A2B
:10026000704710B504461046FFF791FF4100204645
:10027000BDE8104002F0CEB870B5044616460D46F3
:1002800000F017F84100204602F0C4F8B542C8BF9C
:100290003546002608E000F00BF800FA86F04FF42F
:1002A000805124F81010761C36B2AE42F3DB70BDDC
:1002B000294630466BE700220280B1F90420524201
:1002C00042804A8882808A88C280002202818A5EB7
:1002D00052424281B1F90220524282810988C18191
:1002E000002101827047F8B500F0B2F900F096F9EC
:1002F00000F018F800F01BF800F00EF8206000265F
:10030000216855F8260001F039F804EB8601761CC7
:100310004860032EF4DBF1BD014618224FF08070D7
:1003200001F070BE0746A868182201463AE7B919DD
:10033000401800F180708CE7F8B50D460446296836
:10034000FFF7EBFF0646002705EB87001822406801
:100350003146FFF727FF44F827007F1C032FF3DB0C
:10036000F1BD2DE9F04F04460D4689B0296801F032
:1003700004F808901822696800F077FE07901822A8
:10038000A96800F06FFE06901822E968E068FFF7A0
:1003900009FF05901822296800F067FE696800F0DF
:1003A000EBFF04901822A968E068FFF7FBFE0390BA
:1003B0001822E96800F056FE02901822296800F021
:1003C00051FE69688046E06800F0D8FF019018226D
:1003D000A9682068FFF7E6FE00901822E96800F09F
:1003E00044FE29680746E06800F0C8FF8146696856
:1003F000A06800F0C3FF8246A968606800F0BEFFF5
:100400008346E96800F0B9FF0899079A891A069AA5
:10041000891A059A891A21600499039A8919891AF7
:10042000029A511861600199009A41445118C91B00
:10043000A160A9EB0A0159444018E06009B0BDE889
:10044000F08F2DE9F04780460868061348680713C7
:1004500088680413C868051300F06FF800F07CF892
:1004600000F067F80AEB0901A1EB000900F05EF863
:10047000A9EB0000A8F8000021B200F0B5F900F0E7
:1004800067F848444000A8F8020029B200F0ACF92F
:1004900000F05AF8A9EB00004000A8F8040021B2CF
:1004A00000F0A2F900F054F8A9EB00004000A8F811
:1004B000060000F042F800F04FF800F03AF8A9EB1F
:1004C0000A0100EB010900F031F8A9EB0000A8F8DF
:1004D000080000F0D3FD00F033F848444000A8F8CD
:1004E0000A0029B200F080F900F02EF848444000DC
:1004F000A8F80C0000F0C2FD00F022F8A9EB000003
:100500004000A8F80E0000F018F8064639B200F0D6
:100510006BF9074621B200F0B2FDF11B0E1A00F094
:1005200005F88019A8F81000BDE8F08729B228B2B4
:1005300031E6824621B220B22DE631B230B22AE64F
:10054000814639B230B226E6814621B230B222E687
:10055000814629B230B21EE6814639B238B21AE677
:10056000F8B500F075F800F059F8FFF7DBFE01462A
:10057000E868BA19561AFFF7D7FE301A206000F063
:100580005EF800F060F880194000606000F053F8F9
:10059000A96800F059F8301A4000A06000F04FF848
:1005A00000F051F8301A4000E06000F03CF80646D8
:1005B0006868FFF7B9FEFFF7B5FE0146E868F21B71
:1005C0008E18FFF7B1FE301A206100F030F869682C
:1005D00000F03AF880194000606100F02CF8A9683A
:1005E00000F032F880194000A06100F020F869683E
:1005F00000F02AF8301A4000E06100F014F80646D6
:100600006868FFF791FEFFF78DFE0146E868F21B70
:10061000551AFFF789FE40192062F1BD6968064648
:1006200018220846BEE5182228680146BAE51822B5
:10063000E968A868B6E51822E9686868B2E5182292
:10064000A9686868AEE5E968064628681822A9E541
:100650000D460446286818220146A3E5F0B50E466B
:1006600083B00446308831890818318A081800049C
:10067000811401F58060ADF8000000ADB6F900000E
:10068000BDF90070401000F58060401A68804FF09E
:10069000010CB6F90820521002F58062521AAA80A5
:1006A000B6F910305B1003F58063591AE980002316
:1006B00035F91CE07745BCBF634677460CF1010C69
:1006C000BCF1040FF4DB2BB1022B31D018D3032B78
:1006D00052D070E0BDF9000000F075F9ADF80000EF
:1006E00000F084F800F086F86880B188B08900F0E6
:1006F00084F8A880F1887088411A09B2384637E03A
:1007000000B200F060F9688000F070F800F072F854
:10071000ADF80000002805D5B5F902004042688018
:1007200000F057F800F05CF8A880B188B0891CE0B0
:1007300010B200F048F90146A9804FF4806000F043
:100740007AF90746B089B18800F057F8ADF8000093
:10075000002805D5B5F904004042A88000F039F81A
:1007600000F03EF86880F1897089091809B238B242
:10077000FFF711FDE8801EE008B200F024F9E880E0
:1007800000F034F807467088F18800F036F8ADF8CC
:100790000000002805D5B5F906004042E88000F0C9
:1007A00018F8B089B18800F01DF86880F189708967
:1007B00000F018F8A880042100A800F05CF80020E0
:1007C00035F91010090344F82010401C0428F7DB09
:1007D000F7BD7F42BDF900004042ADF80000704710
:1007E0007088F188091809B238B2D4E401464FF490
:1007F000806020E107467089F189411A09B23846C4
:10080000C9E4F8B504460D46182201F0A3FB0646DC
:10081000022E02DA00F010F80CE0002708E054F88D
:1008200027001822314601F0EDFB44F827007F1C19
:10083000AF42F4DB3046F2BDA900204601F004BE11
:10084000F8B504460D460C2201F084FB0646022E44
:1008500002DAFFF7F1FF0CE0002708E054F8270068
:100860000C22314601F0CEFB44F827007F1CAF423A
:10087000F4DB3046F2BDF8B504460D4600F023F82F
:100880000646022E04DA6900204601F0C3FD0BE0A3
:10089000002707E034F91700314600F0CCF824F8BF
:1008A00017007F1CAF42F5DB3046F2BD416849427C
:1008B0004160816849428160C1684942C1607047B6
:1008C000182201F047BBF8B504460D460026002764
:1008D00003E000F00BF886197F1CAF42F9DB3046CD
:1008E000FFF7B7FC001300F30F00F2BD34F9170057
:1008F0000146FFF74BBC2DE9F04104460D469046FA
:100900000027002603E000F023F8C719761C4645AF
:10091000F9DB38130FF2E8110FF2A4620FF228038B
:10092000B0F5004F04DB00F0FDF847F6FF7008E07B
:1009300010F5004F04DA00F0F5F8DFF8800600E06B
:1009400000B2BDE8F0810000566563446F7400009A
:1009500035F9161034F91600FFF718BCF8B504463F
:100960000D46B4F90200B5F904101646FFF70EFC67
:100970000746B5F90210B4F90400FFF707FC381A6E
:1009800000133080B5F90010B4F90400FFF7FEFB46
:10099000B5F904100746B4F90000FFF7F7FB381A61
:1009A00000137080B5F90210B4F90000FFF7EEFBF8
:1009B000B5F900100746B4F90200FFF7E7FB381A53
:1009C0000013B080F1BD10B5002848BF42F6415178
:1009D00016D4002100220D2380B2840B44EA820247
:1009E00049004C00641C92B28000A4B2A24202DB17
:1009F000121B92B2491C1C46631EA4B2002CEBD100
:100A000008B210BD10B5C1F1200149100022002329
:100A1000C1F11F01840F44EA830352005400800097
:100A2000641CA34224BF1B1B521C0C46611E002CDD
:100A3000F0D1104610BD10B5044699B90FF230033D
:100A40000FF27C520FF2440100F06CF8012C02DB33
:100A500047F6FF7010BD002C02D5DFF8600510BD11
:100A6000002010BD200390FBF1F000F0F8BA000068
:100A700053617475726174696E6746697865645014
:100A80006F696E74446976696465000044697669CB
:100A90006465206279207A65726F20282573203A78
:100AA0003A202573290D0A0010B5044699B90FF2B2
:100AB00030030FF20C520FF2480100F033F8012C12
:100AC00002DB6FF0004010BD002C02D54FF000405B
:100AD00010BD002010BD200390FBF1F010BD000000
:100AE0004669786564506F696E74457874656E64A4
:100AF0006564526573756C74446976696465000059
:100B0000464D5F4D4154485F4552525F48414E4407
:100B10004C454420282573203A3A202573290D0A94
:100B200000000000002001F0A3BCF0B5002848BF81
:100B3000404200210FF22C020FF230030FF2A80402
:100B400033F9116032F9115000B206402E4134F9E8
:100B50001660370000D03BE0491C09B20429EFDBE6
:100B60000020F0BD0C000800040000000070000F21
:100B7000F0000F00F0B5002848BF404200210FF2FE
:100B800058020FF22C030FF2600453F8216032F97F
:100B9000115006402E4136B234F91660370000D0AD
:100BA00016E0491C09B20829EFDB0020F0BD000067
:100BB000000000700000000F0000F00000000F00B7
:100BC00000F00000000F0000F00000000F00000027
:100BD000A81900B2F0BD00001C001800140010009D
:100BE0000C000800040000000000010002000200E8
:100BF00003000300030003000400040004000400D9
:100C000004000400040004002DE9F8430446012C0C
:100C100032DBFFF78AFFC0F10E052DB2012DAFBF09
:100C200004FA05F0684200B244FA00F0C0F58044CE
:100C300026464FF000080027DFF8349436B27EB124
:100C400039F917103046FFF7A1FAA8EB000821B2D6
:100C50003046FFF79BFA8613781C07B20E2FEDDBA8
:100C6000C5F1020040F6173100B2FFF78FFA00EB32
:100C7000284000F30F0001E0DFF84003BDE8F283F5
:100C8000334F500B7CB50546EC0F4DF2B820854232
:100C900002DB6FF0004076BDDFF8D803854201DA51
:100CA000002076BD14B9AE05B60D05E0E843451C3D
:100CB000A805800D401EC64331B230B2FFF766FA78
:100CC00036B206FB00F10913401040F2AA2200EBF5
:100CD00006304A4300EB223071430913AA225143E4
:100CE00000EB213000F1807303F500600001C5F3D3
:100CF0008521001449B364B10FF2500050F821105F
:100D00001E221846FFF74EFA00F50060000100149D
:100D100076BD35290FDB72B60FF23010DFF858437D
:100D20000FF2341300F009FC40F2044000F00FFC15
:100D300000F008FCFEE70FF23C1353F8211002B05C
:100D4000BDE870400C22FFF72DBA76BD00000040D0
:100D50003DDFD731F965D126EC403B1E36568B1767
:100D600037185612B9C3470EBF1C1F0B5255A9089E
:100D700064DCBE0670E14005E26417041AB62F0376
:100D8000D1467B0202C1EE01935081015C152C011A
:100D900089B4E9008202B600D7BF8D0000656E00FD
:100DA000B0F9550029F542008D253400A49C280097
:100DB000E9A01F00E2A11800062F1300B6F00E00F4
:100DC000B0A20B00CE0F0900AA0E0700087F050095
:100DD000CC47040068550300A39802009E0502005A
:100DE0001F930100F439010081F400006CBE000083
:100DF0004D9400007F730000F35900000D46000081
:100E00008E3600007D2A000017210000C519000061
:100E100012140000A10F00002C0C00007B09000040
:100E200062070000C00500007A0400007D03000096
:100E3000B70200001E020000A601000048010000E9
:100E400000010000C70000009B00000074656D7089
:100E5000203C2035330000004669786564506F6996
:100E60006E745131324578706F6E656E7469616C65
:100E700000000000001000008B140000611A000048
:100E8000DF2100007E2B0000D8370000B5470000AE
:100E9000135C00003A760000CE970000EBC2000021
:100EA00048FA00005E410100A59C0100D911020032
:100EB00056A8020092690300B061040046A0050034
:100EC000593907009C4609000FE90B00124B0F002F
:100ED0000DA31300DC361900356020004492290070
:100EE000F1603500218A4400AD015800AE00710068
:100EF00029199100544FBA00033AEF004D2C3301E9
:100F0000026B8A015871FA010D498A02A1FB420362
:100F1000A923300474A76005ACA8E7060BB8DD0868
:100F20007560620B44229E0EB7FEC41256BC19189F
:100F3000F218F21EAA2CBC279F5405339614834145
:100F4000577E1E5446D6026C2DE9F04104460D46EC
:100F500017464FF40060FFF7E8FD00268046A05FCB
:100F6000FFF7E3FDA95FA8EB000000B2421812B240
:100F70003B469342BCBF781A00B2DA4202DA7842AA
:100F8000401A00B2B0B100FA81F2002A03D557002E
:100F900008BF521C524293420CDB411829800126A3
:100FA000B4F90010002846BF404241FA00F001FAAF
:100FB00000F020803046BDE8F08100000080FFFF97
:100FC000433A5C5F525645524D415F444154415C47
:100FD0004749545C73656E736F722D6875625C610E
:100FE0006C67735C7372635C636F72655C4669788F
:100FF0006564506F696E744D6174682E6300000003
:101000002DE9FE4FBDF93090BDF934A080468B46E6
:10101000002600E0761C56451FDA002716E009FB83
:10102000074038F910100AFB04603BF91000FFF785
:10103000AEF84519641C4C45F1DB019805F50062DA
:101040000AFB0761121320F811207F1CBDF908006C
:101050008742DFDA00250024EDE7BDE8F78F00F3D3
:101060000F0010BDA068FFF79DB86068FFF79AB841
:1010700004860020D46FFFFFE820012029B220B2AF
:10108000FFF789B82DE9F04F9A460027554685B0FD
:10109000804689461446002D05D5680012BF684277
:1010A000681C404200E028462646002E05D5710007
:1010B00012BF7142711C494200E0314688421BDA7E
:1010C00021465046FFF7B7FC00282146504630D550
:1010D000FFF7B1FC834621465046FFF7ACFC1BEB03
:1010E000000F2146504603D1FFF7A5FC401C01E04C
:1010F000FFF7A1FC40421EE0012751462046FFF7C2
:101100009AFC00285146204613D5FFF794FC8346ED
:1011100051462046FFF78FFC1BEB000F514620463F
:1011200003D1FFF788FC401C01E0FFF784FC444238
:1011300002E0FFF780FC044624B20FF200100FF229
:101140003C12B4F5805F09D1DFF81C15039100F162
:101150003C0A02F13C0BDFF8140522E0002C02D41B
:10116000211210290FDB72B60FF25010DFF8004584
:101170000FF2701300F0E1F940F2AC5000F0E7F923
:1011800000F0E0F9FEE7C9B202EB810B0FF2681242
:1011900052F82120039200EB810A0FF29C1050F8C4
:1011A0002100029021462046FEF7F0FF00F5006086
:1011B0000013ADF80400BDF90410BBF90000FEF700
:1011C000E5FF00902146BBF90200FEF7DFFF009922
:1011D00040180399081800F500604FEA203BBDF95C
:1011E0000410BAF90000FEF7D1FF00902146BAF9C9
:1011F0000200FEF7CBFF009940180299081800F58D
:1012000000600013002F19BFA9F800B0A8F8000073
:10121000A8F800B0A9F80000002E04D5B8F9000025
:101220004042A8F80000002D04D5B9F90000404262
:10123000A9F8000005B0BDE8F08F000041FF0410E0
:10124000CEFD32107AFC871056FBF4106DFA68114F
:10125000C4F9D1115AF9201229F94B1228F94B126D
:101260004EF91F1292F9CA11EAF952114EFABB1047
:10127000B9FA0E1025FB510F8FFB8A0E0BF80000F8
:1012800051F8F7FFD7F8D5FF91F98EFF70FA1FFFDD
:1012900062FB88FE58FCCFFD45FDFFFC21FE24FCCF
:1012A000E4FE49FB8CFF77FA1700B7F988000DF9C7
:1012B000E1007CF8250106F85701AAF774616E5425
:1012C00068657461203E3D20302026262028746108
:1012D0006E5468657461203E3E203829203C2031E0
:1012E0003600000053696E65416E64436F73467249
:1012F0006F6D5665630000000700000139050001AD
:101300002A280001699200012772010144ED0201BF
:10131000A6170501EAEE0701815B0B01BC350F0141
:10132000B24C13011C6D1701EB661B010F111F015D
:101330006D4B22015CFF24019EFFFFFFD9E7FFFFF9
:10134000F292FFFFCFEFFEFF0D09FEFFC203FDFF8C
:10135000B917FCFF4684FBFF4085FBFF874AFCFF73
:101360004EF3FDFFFD8C0000D9140400387B08000B
:101370005FA70D00307B1300064620681822FEF799
:1013800011BFF0B583B0054610F5004F08D1DFF866
:10139000AC590124680006BF681C45426D4202E05A
:1013A0000028F6D400242DB246F289418D4203DB99
:1013B00046F288402D1A08E043F245218D4204DBB5
:1013C00046F28840451B84F001042DB241F62310FB
:1013D0008542A4BF43F24420451B2DB26F120D2F4E
:1013E0000FD372B60FF25C00DFF884420FF26C0389
:1013F00000F0A3F840F24F6000F0A9F800F0A2F866
:10140000FEE70FF2680000EB87062946B6F90200F6
:10141000FEF7BCFE0FF2880151F827104718294645
:101420002846FEF7B3FEB6F900108011484307EBDB
:10143000A01000F500600001001404B1404200B2A9
:10144000FEBD0000696478203C2031332026262030
:10145000696478203E3D20300000000046697865D0
:1014600064506F696E7453696E65000081FF0610E9
:1014700083FE45108BFDC1109DFC7311BDFB531203
:10148000EDFA561332FA6F148EF98D1504F9A11680
:1014900096F8981745F8621813F8EA1801F81F191A
:1014A000F8FEFFFFA1BDFFFF6CC4FEFF5DACFCFFBB
:1014B000142BF9FFA21CF4FFDC8BEDFFC8B8E5FF8D
:1014C000D81CDDFFB36CD4FF6997CCFFF5C2C6FF13
:1014D0001046C4FF649FC6FF566ACFFF9A51E0FFD3
:1014E00000F5C8502230B0F5004FA4BFDFF86C19EA
:1014F000081800B245E7F8B50446B0F5805F02DB96
:1015000041F62210F2BDDFF85819884202DADFF8FE
:101510005409F2BD2546032628B2FFF732FF0746DD
:1015200028B2FFF7DDFF0146381B00B2FFF783FA50
:101530002D1A761EF0D128B2F2BD0FF238120190AA
:10154000C821704721460FF2AC2001F04DBE00903B
:10155000204601F05BBE2DE9F04F0B4683B04FF003
:10156000FF35002B54BF01242C46002858BF01250D
:10157000002650EA030108BF002071D0002B04D5DB
:10158000590006BF591C4B425B42002803D541005D
:1015900008BF401C4042834207DA01461822184621
:1015A00000F030FD0746012604E01822194600F03D
:1015B00029FD07463815DFF8B8800FF2B8090FF299
:1015C000CC0A10282CDB0F200FF2DC010C2212FBBE
:1015D00000100090182239463846FEF7E3FD0099C6
:1015E0000968FFF7CBFE8346009841681822384609
:1015F000FEF7D8FD0099DFF8DC2A896858440818FE
:1016000000F22B11914219D372B60FF25C100190C7
:10161000534640F20C7000F0F1F800F0E5F8FEE7F8
:101620000028D1D572B60FF2B4100190534640F2A3
:10163000037000F0E3F800F0D7F8FEE716B1DFF82A
:101640002C18081A002C08D5002D59BFDFF81818DF
:10165000081ADFF8841A081802E0002D48BF40423B
:10166000BDE8FE8F000000005CFF2401307B13000A
:10167000E82001204153534552543A202573282530
:101680006429202D205B25735D0000004669786584
:1016900064506F696E7441726354616E325072654A
:1016A0006369736500000000BC05F8FFBA320001F1
:1016B000BFFFFFFF9C6FE8FFB6230201C4EFFFFFEF
:1016C00002EAD9FFC0C10501A1B5FFFF1C09CDFF8A
:1016D00081910A012B42FFFFE335C2FFC4F50F01E0
:1016E000F495FEFFA3A8B9FF65481501A7C1FDFF4A
:1016F0001E6BB3FFFDF01901E1E2FCFF6160AFFF7B
:1017000044751D01EE1EFCFFA14FADFF89811F0135
:10171000EB9CFBFFA0EFACFFCDE91F01A180FBFF1D
:10172000ADF0ADFF83A51E01EFE6FBFF6404B0FF43
:1017300026C81B01DEE3FCFFD6E2B2FFDF7817010B
:101740004B82FEFF6A4DB6FF9DEA1101A0C4000066
:10175000FF0FBAFF7A550B0144A60300C200BEFF7B
:10176000C7F10301411D070028202828284E5450A6
:1017700052454349534529282828666D5F666C6F9A
:1017800061745F742928332E31343135393236355E
:1017900066202F20322E30662929202A2028666DC7
:1017A0005F666C6F61745F74292831554C203C3C36
:1017B00020323429202929202B2033303029203E83
:1017C0002074686574612920262620287468657451
:1017D00061203E202D33303029000000696E6465A1
:1017E00078203E3D2030000041460FF2080001F015
:1017F000FBBC000025730D0A0000000000904A4663
:10180000C821404601F002BD10B504461822214609
:10181000FEF7C8FCD0F1807048BF0020FEF719FD2C
:1018200001462046BDE8104095E62DE9FF4F81B006
:10183000BDF93C90BDF938A0002600E0761C4E456D
:1018400022DA019FDDF80C80002413E000F04CF850
:10185000009940180BEB490B6D1C2DB25545F5DB7B
:1018600000F50060001328F8160007EB4A0708EBA4
:101870004908641CBDF9100024B28442DEDADDF8A8
:1018800008B000200025E8E7FFF7D4BC2DE9FF4FA2
:1018900081B0BDF93C90BDF938A0002600E0761C6F
:1018A0004E451FDA019FDDF80C80002410E000F0A7
:1018B0001BF8009940180BEB490B6D1C2DB25545D8
:1018C000F5DB48F8260007EB4A0708EB8908641C9B
:1018D000BDF9100024B28442E1DADDF808B000203E
:1018E0000025EBE7FFF7A6BC009037F915103BF990
:1018F0001600FEF74BBC2DE9FF4F81B0BDF93C80CF
:10190000BDF938B0002600E0761C464526DA039F74
:10191000002418E0009039F914103AF91600FEF787
:1019200035FC0099401809EB4B090AEB480A6D1C7D
:101930002DB25D45EEDB00F50060001327F81600C0
:1019400007EB4807641CBDF910008442DCDADDF8BF
:101950000490DDF808A000200025E9E7FFF76ABC45
:101960002DE9FF4F81B0BDF93C90BDF938A00026AC
:1019700000E0761C4E4525DA019FDDF80C8000243E
:1019800016E00090182257F825105BF82600FEF7A5
:1019900009FC009940180BEB890B6D1C2DB25545C5
:1019A000EFDB48F8260007EB8A0708EB8908641C80
:1019B000BDF9100024B28442DBDADDF808B0002063
:1019C0000025EBE7FFF736BC2DE9F34F95B0002576
:1019D000144650E0159910FB04F001EB400939F969
:1019E0001530002B41D038F9152000A90DF1020067
:1019F000FFF748FBAA4638F91A10BDF90200FEF7B6
:101A0000C5FB39F91A1000F046F8584400F500609B
:101A10000BA9001321F81A0039F91A10BDF90200B8
:101A2000FEF7B4FB38F91A1000F035F8ABEB000004
:101A300000F5006001A9001321F81A000AF1010A5B
:101A4000A245D8DB0BA800EB45013A4608EB450060
:101A500001F0FEFB01A800EB45013A4609EB450009
:101A600001F0F6FB002029F81500761E36B230464C
:101A70008542AFDB6D1CA5420ADA159804FB05F11F
:101A800000EB4108BDF85800461E601B4700EDE71B
:101A900017B0BDE8F08F8346BDF90000FEF776BBB6
:101AA0002DE9F84FBDF92890884692469B4604469A
:101AB000002511E034F9171038F91700FEF766FB1E
:101AC00086197F1C4F45F5DB06F5006000132AF8E8
:101AD000150004EB49046D1C2DB25D4502DA0026A9
:101AE0000027EFE7BDE8F18F2DE9F44FBDF928801D
:101AF000BDF92C908A469B46044600270FE054F817
:101B000026105AF82600FFF739FC4519761C464581
:101B1000F5DB009804EB890440F827507F1C3FB2A6
:101B20005F4502DA00250026F1E7BDE8F18F2DE9D7
:101B3000FD4FBDF930908846002502E008EB4908CA
:101B40006D1CBDF93400854223DA009F019C0026FC
:101B500016E037F91B1038F91B00FEF717FB82441B
:101B60000BF1010BCB45F4DB0AF50060001324F800
:101B7000150007EB4907BDF9340004EB4004761C5F
:101B8000BDF9080036B28642D8DA4FF0000AD346D3
:101B9000E8E7BDE8F78FF0B5BDF91440002511E086
:101BA00030F8167031F816C0A7EB0C0722F8167043
:101BB000761CA642F4DB00EB440001EB440102EB8F
:101BC00044026D1C2DB29D42B8BF0026F1DBF0BD72
:101BD0002DE9FA4F83B08146924600269B460BE0E2
:101BE00000F09FF828F8160008EB4B08641C24B29C
:101BF0005445F5DB761C36B25E4537DA039D002787
:101C000013E038F9171035F91600FEF7C4FA38F862
:101C10001610081A28F8160008EB4B08641C24B2AA
:101C20005445EEDB05EB4B057F1CB74206DA35F970
:101C300016000028F6D0C8460024F0E70398BDF847
:101C4000101016FB016130F91150C84665B900F05B
:101C50006DF80FF2F463FFF770FC40F66700FFF7D2
:101C600076FCFFF76FFCFEE70024C0E7FFF7E2BA5F
:101C70002DE9FA4F83B08146BDF81000461E934609
:101C800036B21F460BE000F04CF828F8160008EBBF
:101C90004708641C24B25C45F5DB761E36B2002E84
:101CA0003DD40398711C794300EB410A701C05B2C6
:101CB00013E038F915103AF91600FEF76CFA38F807
:101CC0001610081A28F8160008EB4708641C24B2FE
:101CD0005C45EEDB0AEB470A6D1CBD4206DA3AF9B9
:101CE00016000028F6D0C8460024F0E70398BDF897
:101CF000101016FB016130F91150C846002D0CD1AF
:101D000000F014F80FF25C63FFF717FC40F6870051
:101D1000FFF71DFCFFF716FCFEE70024BAE7FFF70C
:101D200089BA38F916002946FEF785BE72B60FF259
:101D30002860DFF8A8437047000000000180FFFF23
:101D40002DE9FD4F0C9E0D9F884600253EE0029830
:101D500030F91510B8F90000FEF719FA834601248E
:101D600007EB850906EB850A0AEB440038F91410E5
:101D700030F9020CFEF70BFA8344019830F9141085
:101D800009EB440030F9020CFEF701FA641CABEBDE
:101D9000000B022CE8DB0BF500600099001300F348
:101DA0000F0021F8150036F82500AAF8020037F8D0
:101DB0002500A9F80200009830F8150027F8250042
:101DC000029830F8150026F825006D1CBDF9380082
:101DD0008542BCDBBDE8F78F2DE9F04104460D4696
:101DE00003F5006001011646091448BF0021288848
:101DF000371AB5F90200FEF7CAF92979C1F10C01C9
:101E00004AB200F50060002A46BF494288400841B6
:101E100047F6FF78B0F5004FA8BF404639B200B290
:101E2000FEF7B5F900F50060B5F90010001300FAEF
:101E300081F0B0F5004FA8BF404604DADFF8A012E9
:101E40008842B8BF084628809DF91810B5F90000EF
:101E5000012908BF301A2080BDE8F081789BFFFF80
:101E600001F0FFFFDEE6FFFF6C3F2403B61F920187
:101E7000F0B500220FE001FB04F300EB430336F959
:101E8000145033F8127026F8147023F81250641CA2
:101E90009442F0DB521C8A4205DA01FB02F300EBAC
:101EA00043060024F4E7F0BD2DE9F041BDF91840E8
:101EB000002500E06D1C9D4218DA002602E020F8A3
:101EC000028B761CA642F5DA32F916E031F915C01C
:101ED000B0F900800EFA8CF7002F47BFC7F1000C55
:101EE00048FA0CF8F44408FA0CF8E8E7BDE8F08189
:101EF000F0B5002400E0641C944211DA002502E0F1
:101F000020F8026B6D1C2DB29D42F4DA31F9147089
:101F1000B0F90060002F46BF7F423E41BE40EFE770
:101F2000F0BDF0B5002400E0641C24B2944210DA45
:101F3000002502E020F8026B6D1C9D42F4DA31F9B5
:101F40001570B0F90060002F46BF7F423E41BE4091
:101F5000F0E7F0BD2DE9F043002583B080468946C7
:101F6000144600272E460DE000AB01AA0846FEF7F6
:101F700042F900993846CF1901994D19874238BF67
:101F80006D1C761C4E4506DA58F826100029EBD554
:101F9000C843411CE8E7C4F1200127FA04F005FA20
:101FA00001F141EA000635FA04F725D03846FEF77C
:101FB000E1FD0546E80748BF6D1CC5F1200226FA81
:101FC00005F007FA02F220211043FEF71BFD01463F
:101FD00055FA84F0203800044214012A08DB6FF01F
:101FE000004020FA02F399420AD201FA02F007E017
:101FF000504221FA00F003E021463046FEF702FD90
:10200000BDE8FE837CB5134681EA0002D40F0022AE
:10201000002944BFC943491C002844BFC043401C99
:102020001D46212D0EDB72B60FF25C302B4C0FF2E9
:102030004433FFF782FA40F6C810FFF788FAFFF73B
:1020400081FAFEE70FF2483656F82550C3F1200614
:10205000054000FA03F3354108208D4224BF42F0C9
:1020600001026D1A6D00002B48BF45F001055B00B1
:1020700052008D4224BF42F001026D1A6D00002B08
:1020800048BF45F001055B0052008D4224BF42F07D
:1020900001026D1A6D00002B48BF45F001055B0081
:1020A00052008D4224BF42F001026D1A6D00002BD8
:1020B00048BF45F001055B005200401ECDD1B2F192
:1020C000004F28BF6FF000420CB1504276BD104661
:1020D00076BD00000D22920194C0DBFCE8200120B7
:1020E0000180FFFFF0B50023C55E4E1B04D57700CD
:1020F00006BF751C6E426E1A012502E0CE1B2B46F0
:102100006D1C95421DDA30F91570B1EB070E09D53B
:102110005FEA4E0412BFA7EB010C0EF1010CCCF1EB
:10212000000C00E0F44636B2B445E9DABEF1000F27
:10213000E4D55FEA4E0312BF7E1A0EF101035E4240
:10214000DDE718B2F0BD10B561B10268012305E00A
:1021500050F82340A242B8BF22465B1C8B42F7DBFB
:10216000104610BD002010BD10B569B1B0F90020B7
:10217000012305E030F91340A242B8BF22465B1CA0
:102180008B42F7DB104610BD002010BD2DE9FB4F40
:10219000804692461AFB0AF041000027404600F0B4
:1021A00039F9DDF830900D9C00251FE019F9160073
:1021B00047FA80FB38F81B00009009EB46010198B4
:1021C00091F9011047FA81F130F91110029830F9B4
:1021D0001600FDF7E0FF0099401828F81B00761C58
:1021E000A642E3DB57FA8AF7BFB26D1CEDB2554544
:1021F00038BF0026F4D3BDE8F78F2DE9F74F82B042
:1022000098460026934600E0761C464536DA039F42
:102210000298002405E0002027F81600019F00988E
:10222000641C5C45F0DA30F9141007EB480200EB4F
:102230004B00019200900029EDD037F91600FEF70F
:10224000FAFB27F81600DDF80090DDF804A0651C05
:102250009DF81000EDB28542E0D237F9161039F939
:102260001400FDF798FF3AF81610081A2AF816001D
:1022700009EB4B090AEB480A6D1CE9E7FEF7DABFE8
:102280002DE9F74F82B0814600269846009202E081
:1022900009EB4809761C0098864222DA029F039CCB
:1022A000002515E037F91B1039F91B00FDF76FFF0A
:1022B00082440BF1010BC345F4DB0AF50060001307
:1022C00024F8160007EB4807009804EB40046D1C47
:1022D0009DF810002DB28542DADA4FF0000AD3469D
:1022E000E9E7FEF7A7BF2DE9F047089CDDF824A039
:1022F0000A9E0B9D884614FB02F100EB410000EBA7
:102300004309002709E072004146484600F0A0FF5B
:1023100009EB440908EB45087F1CFFB25745F2D38F
:10232000BDE8F08710B51446FDF731FF00F50060F9
:1023300000138442B8BF204603DB61428842B8BF25
:10234000084600B210BD0000547269736F6C766568
:10235000557070657200000074656D7020213D201D
:1023600030000000547269736F6C76654C6F77654E
:10237000720000004669786564506F696E74446944
:10238000766964653332000071203C3D20333200B1
:102390000000000000000080000000C0000000E01D
:1023A000000000F0000000F8000000FC000000FE4B
:1023B000000000FF000080FF0000C0FF0000E0FF01
:1023C0000000F0FF0000F8FF0000FCFF0000FEFF2F
:1023D0000000FFFF0080FFFF00C0FFFF00E0FFFFE5
:1023E00000F0FFFF00F8FFFF00FCFFFF00FEFFFF13
:1023F00000FFFFFF80FFFFFFC0FFFFFFE0FFFFFFC9
:10240000F0FFFFFFF8FFFFFFFCFFFFFFFEFFFFFFF6
:10241000FFFFFFFF002200F067BF10B450F8041B5D
:1024200081B102681218001D50F8043BDC0744BF5C
:10243000A9F10104E31852F8044B43F8044B091FB7
:10244000F9D1EBE710BC7047002200F085BF50F8CF
:10245000041B61B150F8042BD30744BFA9F1010359
:102460009A18002342F8043B091FFAD1EFE770479E
:102470000CB480B5084601F023F8002002BC5DF8DA
:102480000CFBDFF8740B0178491C0170704701F0F8
:1024900070BD000010B52DED028B84B000A90022A4
:1024A000134614461CC102284FD19FEDBE8ADFF8A7
:1024B0001C4B94ED060AB8EEC00A20EE080A10EE96
:1024C000100A01F071FEDFF8082BDFF8303B01F055
:1024D00093FE41EC100B01F0B3FF51EC100B01F037
:1024E000D5FF4042009094ED070AB8EEC00A20EEF6
:1024F000080A10EE100A01F057FEDFF8D42ADFF8C0
:10250000FC3A01F079FE41EC100B01F099FF51EC1F
:10251000100B01F0BBFF019094ED080AB8EEC00A61
:1025200020EE080A10EE100A01F03EFEDFF8A02AA5
:10253000DFF8C83A01F060FE41EC100B01F080FFBB
:1025400051EC100B01F0A2FF029000A802F0E5F997
:10255000002004B0BDEC028B10BD80B54022DFF836
:102560006C0A02F0B9FC0220BDE8024092E70000CC
:1025700070B52DED028B86B004460D46DFF8546A27
:10258000306A844238D196F83000800634D59FED09
:10259000858A95ED040AB8EEC00A20EE080A10EE0E
:1025A000100A01F001FECDE9040195ED030AB8EE31
:1025B000C00A20EE080A10EE100A01F0F5FDCDE980
:1025C000020195ED020AB8EEC00A20EE080A10EEEC
:1025D000100A01F0E9FDCDE90001D5E9000102F0A2
:1025E00083FC0022DFF8183A02F0AAFC02460B46F0
:1025F0000FF66C2000F064FF706A844238D196F8C0
:102600003000800634D59FEDA68A95ED040AB8EE19
:10261000C00A20EE080A10EE100A01F0C5FDCDE94F
:10262000040195ED030AB8EEC00A20EE080A10EE88
:10263000100A01F0B9FDCDE9020195ED020AB8EEEC
:10264000C00A20EE080A10EE100A01F0ADFDCDE937
:102650000001D5E9000102F047FC0022DFF8A039B3
:1026600002F06EFC02460B460FF60C2000F028FF2D
:10267000B06A844238D196F83000800634D59FED98
:10268000498A95ED040AB8EEC00A20EE080A10EE59
:10269000100A01F089FDCDE9040195ED030AB8EEB9
:1026A000C00A20EE080A10EE100A01F07DFDCDE907
:1026B000020195ED020AB8EEC00A20EE080A10EEFB
:1026C000100A01F071FDCDE90001D5E9000102F029
:1026D0000BFC0022DFF8283902F032FC02460B46E0
:1026E0000FF6AC1000F0ECFE06B0BDEC028B70BD36
:1026F00010B52DED048B88B00C46DFF8D808012109
:1027000041709FED280AD4ED020AF8EEE00A20EEAF
:10271000808A80ED018AD4ED030AF8EEE00A60EECB
:10272000808AC0ED028AD4ED040AF8EEE00A60EE79
:10273000800AC0ED030A94ED051AB8EEC11A21EE25
:10274000009A80ED049A90F83000800726D510EEAC
:10275000900A01F029FDCDE9060118EE900A01F07A
:1027600023FDCDE9040118EE100A01F01DFDCDE9AD
:10277000020119EE100A01F017FDCDE90001D4E9BC
:10278000000102F0B1FB0022DFF8743802F0D8FB40
:1027900002460B460FF6101000F092FE08B0BDEC9A
:1027A000048B10BD0000803338B52DED028B86B050
:1027B0000C46DFF82058286BC00434D59FEDB58A4D
:1027C00094ED040AB8EEC00A20EE080A10EE100AD2
:1027D00001F0EAFCCDE9040194ED030AB8EEC00A69
:1027E00020EE080A10EE100A01F0DEFCCDE902012D
:1027F00094ED020AB8EEC00A20EE080A10EE100AA4
:1028000001F0D2FCCDE90001D4E9000102F06CFB3B
:102810000022DFF8EC3702F093FB02460B460FF67E
:10282000A40000F04DFE95F83000400634D59FED31
:10283000998A94ED040AB8EEC00A20EE080A10EE58
:10284000100A01F0B1FCCDE9040194ED030AB8EEE1
:10285000C00A20EE080A10EE100A01F0A5FCCDE92E
:10286000020194ED020AB8EEC00A20EE080A10EE4A
:10287000100A01F099FCCDE90001D4E9000102F051
:1028800033FB0022DFF8783702F05AFB02460B4692
:102890000FF6480000F014FE06B0BDEC028B31BD0F
:1028A0000000803938B52DED028B86B00C46DFF87C
:1028B0002457286B800434D59FEDAF8A94ED040A29
:1028C000B8EEC00A20EE080A10EE100A01F06CFC07
:1028D000CDE9040194ED030AB8EEC00A20EE080A1F
:1028E00010EE100A01F060FCCDE9020194ED020A3D
:1028F000B8EEC00A20EE080A10EE100A01F054FCEF
:10290000CDE90001D4E9000102F0EEFA0022DFF87F
:10291000F03602F015FB02460B460FF2D87000F0BD
:10292000CFFD95F83000400634D59FED938A94EDA5
:10293000040AB8EEC00A20EE080A10EE100A01F0F0
:1029400033FCCDE9040194ED030AB8EEC00A20EE91
:10295000080A10EE100A01F027FCCDE9020194EDFF
:10296000020AB8EEC00A20EE080A10EE100A01F0C2
:102970001BFCCDE90001D4E9000102F0B5FA002208
:10298000DFF87C3602F0DCFA02460B460FF27C7070
:1029900000F096FD06B0BDEC028B31BD38B52DEDD3
:1029A000028B86B00C46DFF82C56286B400434D5D9
:1029B0009FED388A94ED040AB8EEC00A20EE080AAA
:1029C00010EE100A01F0F0FBCDE9040194ED030ACA
:1029D000B8EEC00A20EE080A10EE100A01F0E4FB7F
:1029E000CDE9020194ED020AB8EEC00A20EE080A11
:1029F00010EE100A01F0D8FBCDE90001D4E9000186
:102A000002F072FA0022DFF8F83502F099FA024675
:102A10000B460FF2107000F053FD95F830004006A1
:102A200034D59FED1C8A94ED040AB8EEC00A20EE5E
:102A3000080A10EE100A01F0B7FBCDE9040194ED8D
:102A4000030AB8EEC00A20EE080A10EE100A01F0E0
:102A5000ABFBCDE9020194ED020AB8EEC00A20EE0C
:102A6000080A10EE100A01F09FFBCDE90001D4E93D
:102A7000000102F039FA0022DFF8843502F060FA32
:102A800002460B460FF2B46000F01AFD06B0BDEC32
:102A9000028B31BD0000803338B50446012904D0D3
:102AA00063D3032923D045D35FE0DFF8285595F899
:102AB0003000000708D5E0680090A36862682168CC
:102AC0000FF2906000F0FCFCE86A00EBD071491056
:102AD000B0EB41004FD12146686902F065FF002844
:102AE00049D00FF28C60BDE8324000F0E9BCDFF85D
:102AF000E45495F83000000708D5E0680090A3681A
:102B0000626821680FF2706000F0DAFCE86A411038
:102B100000EB91718910B0EB81002CD12146A8699E
:102B200002F042FF002826D00FF26860BDE8324074
:102B300000F0C6BCDFF89C5495F83000000708D5BB
:102B4000E0680090A368626821680FF2506000F0AE
:102B5000B7FC2146E86902F027FF00280BD00FF2EE
:102B60005860BDE8324000F0ABBC0FF25460BDE8E5
:102B7000324000F0A5BC31BD0000803980B5C007EF
:102B800010D522220021084603F03AFB222201211F
:102B9000002003F035FB222202210020BDE808407E
:102BA00003F02EBB22220021084603F029FB22223B
:102BB00001210020BDE8084003F022BB80B522229D
:102BC0000021012003F01CFB22220121084603F012
:102BD00017FB222202210120BDE8084003F010BBB0
:102BE0000FB438B59DF81100DFF8E8432070FFF707
:102BF000C5FFDFF810540020E86205F5827002F08E
:102C000006FD04F1140105F58A7002F026FD04F1B9
:102C1000180105F5027002F020FD04F11C012846A0
:102C200002F01BFD04F1200105F53F7002F0E2FD0A
:102C300004F1240105F5477002F0DCFD04F12801E0
:102C400005F54F7002F0D6FD05F1F40105F557705A
:102C500002F0D0FD05F1F80105F55F7002F0CAFD44
:102C600005F1FC0105F5677002F0C4FD05F5807102
:102C700005F56F7002F0BEFD002801D1012004E0CF
:102C80000FF2505000F01CFC022032BC5DF814FB27
:102C900080B5FFF793FF012002BD0000F8B52DEDD0
:102CA000028B9CB00EA81021FFF7CEFB17A81021B5
:102CB000FFF7CAFB12A81421FFF7C6FB00A80021EA
:102CC0000A4606C0C44C2768666803F095FC0546B2
:102CD00004F04EF9B869F9684118B069F2688018D3
:102CE000B1F900200792B1F902200892B1F904105D
:102CF0000991B0F90010B6F95820C2EB4101491012
:102D00000B91B0F902104942B6F95A20C2EB4101C9
:102D100049100C91B0F904004042B6F95C10C1EBC7
:102D2000400040100D904FF47A7604F0DAF97043C9
:102D30000690012106A8FFF7AFFE04F0D2F9704318
:102D40000A9002210AA8FFF7A7FEA24E3078C0071A
:102D50000BD5B5F906000390B5F908000490B5F954
:102D60000A0005906869706305E007980390089869
:102D7000049009980590A8690290032102A8FFF722
:102D80008BFE02F077FE0128FBD103F009F8012841
:102D9000FBD13078C00760D5707800285DD096ED03
:102DA000040AB5EE400AF1EE10FA15D5B1EE400A6C
:102DB00086ED040A96ED010AB1EE400A86ED010A9D
:102DC00096ED020AB1EE400A86ED020A96ED030A7C
:102DD000B1EE400A86ED030A9FED808B706801F02A
:102DE000E3F953EC182B02F0ABF801F04FFB0E9017
:102DF0000EAFB06801F0D8F953EC182B02F0A0F830
:102E000001F044FB7860F06801F0CEF953EC182B28
:102E100002F096F801F03AFBB860306901F0C4F9AD
:102E200053EC182B02F08CF801F030FBF860102204
:102E30000EA912A802F050F868698DF85800206CAD
:102E400000F10C056A7D12A9EB68C068181802F041
:102E500043F80120A87400207070307880077CD57A
:102E6000082100A805F0D9FE9FED5E0A00A881792F
:102E70009DF8072042EA012109B200EE901AF8EE0F
:102E8000E00A60EE800A9DF80010427842EA0121D3
:102E900009B201EE101AB8EEC11A21EE001A8178BB
:102EA000C27842EA012109B201EE901AF8EEE11A65
:102EB00061EE801A00799DF8051041EA002000B209
:102EC00002EE100AB8EEC22A22EE000AB5EE400A5F
:102ED000F1EE10FA07D5F1EE600AB1EE411AF1EE0B
:102EE000611AB1EE400A9FED402A60EE820AFDEEC3
:102EF000E00ACDED0E0ADFED440A21EE201ABDEE08
:102F0000C11A0EAF87ED011A61EE821AFDEEE11AC9
:102F1000C7ED021A20EE200ABDEEC00A87ED030AB3
:102F20000E98179017A880ED011AC0ED021A80EDD7
:102F3000030A102217A912A801F0CEFF00208DF875
:102F40005800E06B00F10C04627D12A9E368C068D0
:102F5000181801F0C1FF0120A07401201CB0BDECC5
:102F6000028BF2BD80B503F049F920490860204981
:102F7000C0F8601500F260501E494160234981602D
:102F80000FF20D01C1600FF2A1010161012002BD2C
:102F90001648006890F85105002801D100207047BC
:102FA00005E080B5002000F006F8012002BD1848B9
:102FB00090F900007047164908707047054908707D
:102FC00001460FF2182000F07BBA00007C3401208B
:102FD00078DED299783601200840002000000000F9
:102FE00080842E4100000038002474C9903C0120E8
:102FF000E12B0008912C0008A4800020570E233FED
:103000000000703ED8740020002474499D2C0008F4
:10301000F93C012022220221002003F0F1B82222F3
:103020000221012003F0ECB818B440F221120B7811
:1030300012FB030301241C700B7812FB03035C706A
:103040000B7812FB030322249C700B7812FB030005
:103050000022C2700878401C087011BCA1E7000073
:10306000412C252E36662C252E34662C252E3466D2
:103070002C252E34660000004D2C252E36662C257E
:103080002E34662C252E34662C252E346600000046
:10309000472C252E36662C252E34662C252E34669C
:1030A0002C252E3466000000512C252E36662C254A
:1030B0002E34662C252E34662C252E34662C252E97
:1030C0003466000053412C252E36662C252E36669C
:1030D0002C252E36662C252E3666000052412C25D6
:1030E0002E36662C252E36662C252E36662C252E61
:1030F00036660000534D2C252E36662C252E36665E
:103100002C252E36662C252E36660000524D2C2599
:103110002E36662C252E36662C252E36662C252E30
:103120003666000053472C252E36662C252E366633
:103130002C252E36662C252E3666000052472C256F
:103140002E36662C252E36662C252E36662C252E00
:10315000366600004163630925386409252B356410
:1031600009252B356409252B35640D0A0000000064
:103170004143435F4B4F00004D61670925386409A7
:10318000252B356409252B356409252B35640D0A5B
:10319000000000004D41475F4B4F00004779720926
:1031A00025386409252B356409252B356409252B21
:1031B00035640D0A000000004759524F5F4B4F0025
:1031C000414C473A20426164206D657373616765C5
:1031D0000000000052563A20532046005256206606
:1031E0006C616720256400000EB400B582B003A9AD
:1031F0000091024600AB0121034878440A3005F0F3
:103200001BFD06BC5DF810FB1701030008B400B5F8
:1032100084B005AB03930023029311B9009301938B
:1032200002E00090481E019003AB00A907487844D3
:103230001A3005F001FD009909B100220A7000283A
:1032400058BF029804B05DF808FB00BF7B00000087
:1032500062B38B0708D0521E11F8013B00F8013B06
:1032600000F024808B07F6D1830740F0208000BF58
:10327000103A07D330B4B1E83810103AA0E838104B
:10328000F9D230BC530724BFB1E80810A0E80810F9
:1032900044BF51F8043B40F8043BD20724BF31F847
:1032A000022B20F8022B44BF0B7803707047083ABA
:1032B00007D3B1E80810083A40F8043B40F804CBC3
:1032C000F7D25307E4E78268521C8260426832B149
:1032D0000268531C036011704168491E41607047C9
:1032E00062F30F2262F31F42401810F0030308D06C
:1032F000C91A1FD3DB0748BF00F8012D28BF20F8EB
:10330000022D130030B414461546103928BF20E9A9
:103310003C00FAD8490728BF20E90C0048BF40F814
:10332000042D890028BF20F8022D48BF00F8012D88
:1033300030BC7047C91818BF00F8012DCB0728BF53
:1033400000F8012D70470268531C0360117070472C
:1033500062F30F2262F31F4200B500BF13009646CE
:103360009446103928BFA0E80C50FAD85FEA417C97
:1033700028BF0CC048BF40F8042BC90728BF20F85D
:10338000022B48BF00F8012B00BD0000BFF34F8F98
:10339000DFF81C07016801F4E061DFF844271143FE
:1033A0000160BFF34F8FFEE710B5DFF838474FF4E9
:1033B0008E720021204606F00AFB204610BDDFF881
:1033C0002407704710B5FFF7EFFF044600231A46A5
:1033D0001146084600F06EFAC046C04606F002FBF1
:1033E000204600F018F806F054FD204600F0CFF912
:1033F000204600F014F8204600F01EF800F092F984
:1034000000206072A072E0722073012060730020BF
:10341000E075012010BD0021C171017231E010B5CD
:103420000446DFF8900606F089FBDFF8BC0606F0DC
:1034300085FB0120607110BD10B5044606F0E9FB64
:103440000120A07110BD38B50446012506F094FC9A
:10345000012804D12846E0700020A0700AE002286C
:1034600004D10020E0702846A07003E00020E07046
:10347000A0700546284632BD80B506F0F7FD012054
:1034800002BD10B50446E07906F01EFF012121704F
:1034900010BD70B504460025E679E171FFF7F1FF34
:1034A000002807D02046FFF7BAFF2046FFF7C4FFE9
:1034B000012503E0E6712046FFF7E3FF284670BDD3
:1034C0000EB470B5C1B0054600A84FF48071FEF788
:1034D000BBFFFFF774FF044645AB2A464FF48071EB
:1034E00000A807F075FC00A807F090FC451C00A898
:1034F0002818002100F8011CDFF8F0653078401C26
:1035000030707078F021084202D0992007F09AFCC0
:1035100007F005FD7078401C7070207E2818FF2889
:1035200010DA207E002803D0207E00190A210176BF
:103530002A4600A9207E0019193001F0CDFC207E1A
:103540002818207600A807F053FF7078F021084271
:1035500002D0992007F076FC7078401E7070C0B2DF
:10356000002801D107F0D5FC00F003FD41B070BC8C
:103570005DF810FB0428DFF8400503D8DFF83415A8
:1035800001607047DFF8601501607047DFF82C15A7
:1035900051F82000007F002807D0DFF8540501789B
:1035A0004A1C0270032900DBF0E670472DE9F8435E
:1035B00005460E4617464FF00208DFF830456078A2
:1035C000F021084202D0992007F03CFC07F0A7FC4C
:1035D0006078401C60709DF80000401E8DF800006F
:1035E00017F8019B2846FFF7C5FF00AB4A4639464E
:1035F000304606F081FF002810D06078F0210842A4
:1036000002D0992007F01EFC6078401E6070C0B2A6
:10361000002801D107F07DFC01201FE05FFA88F847
:10362000424629460FF2D440FFF74AFF4046A0F138
:1036300001080028D9D16078F021084202D09920F1
:1036400007F000FC6078401E6070C0B2002801D115
:1036500007F05FFC2846FFF799FF0020BDE8F283E2
:103660002DE9F04704460D4616461F46DFF8508404
:10367000089888F80000DFF8749499F80100F021A8
:10368000084202D0992007F0DDFB07F048FC99F8CA
:103690000100401C89F801002046FFF76BFF4FF046
:1036A000020A434632463946284606F0D5FF00282E
:1036B00013D099F80100F021084202D0992007F0B8
:1036C000C1FB99F80100401E89F80100C0B2002832
:1036D00001D107F01EFC012022E05FFA8AFA52466F
:1036E00021460FF22440FFF7EBFE5046A0F1010AFD
:1036F0000028D6D199F80100F021084202D0992083
:1037000007F0A0FB99F80100401E89F80100C0B243
:10371000002801D107F0FDFB2046FFF737FF00200E
:10372000BDE8F08708F058BCF8B50446022700252C
:10373000DFF888630DE039464F1EC9B200290AD16F
:10374000002804D120690121A94088432061022773
:103750006D1C172D10DA56F82500006E00688047A2
:103760000128E8D121690122AA401143216156F8BC
:10377000251001220A77E3E72069032803D00228F5
:1037800001D0012802D140F480502061F1BD07F042
:10379000A7B807F002B981B00022ADF80220ADF859
:1037A0000020C079042808D0062809D008280AD0AB
:1037B00009280BD00A280CD00EE04FF4C8600DE0A9
:1037C0004FF448600AE04FF4C85007E04FF4FA5055
:1037D00004E042F2107001E041F27070ADF8022096
:1037E0000DE0BDF80020521CADF80020BDF800200F
:1037F0008242F6DBBDF80220521CADF80220BDF873
:1038000002208A4203D20022ADF80020EEE701B088
:103810007047417230B589B003F0AEFB0446FFF744
:10382000CEFD054600A82421FEF70EFE0020ADF8CF
:10383000220001900A208DF8080000208DF8090070
:103840008DF80A00687A00280DD0002C18D00020CE
:103850008DF80000052001900B208DF8080000A8CD
:1038600002F0A2FD0CE0002C0AD001208DF800002F
:10387000052001900B208DF8080000A802F094FDAF
:1038800009B030BD07F0A5B807F0ADB80121084672
:10389000F8E701210846F7E702210120F2E70221BB
:1038A0000120F1E707F0AAB810B50446FFF787FD3D
:1038B000447510BD2DE9F04782B00C4615462F46E1
:1038C000264680464FF47A714FF03C0C4FF4616904
:1038D00018FB09F216FB0C22BA1801FB0232DFF8C2
:1038E000E4E19EF900A01AFB09F99EF901A01AFB78
:1038F0000C9C9EF902904CFA89FCBEF9039001FBE6
:103900000C919EF808C0BCF1000F22D144EA0001DE
:103910002943194302D001218EF808108EF80000C7
:10392000B8F1000F04D59EF8000018308EF80000A2
:103930008EF801408EF80250AEF8033000933B46FB
:1039400032469EF900100FF2F010FFF7B9FDBDE806
:10395000F38791420DD3A1EB020CACF2D17CDFF8DE
:103960009491CC45DAD30FF2AC1002B0BDE8F04729
:10397000A6E5D3D2A2EB010CACF2D179DFF874A1A9
:10398000D145CBD363460FF29C1002B0BDE8F0479F
:1039900096E510B504002FD003F0A3FB4949CA688F
:1039A000002A00D0841AB1F80320A218A1F803203D
:1039B00012B2B2F57A7F06DBA2F57A72A1F8032083
:1039C0008A78521C8A7091F902203C2A04DB3C3A26
:1039D0008A704A78521C4A7091F901203C2A04DB13
:1039E0003C3A4A700A78521C0A7091F90020182A51
:1039F00001DB00220A70C86010BD32490522FFF7C2
:103A000027BC00000FB410B52DED028B2E4C1046D4
:103A100008F0B0FB2D4A2E4B01F092FA2061616153
:103A20009FED2C8B049808F0A5FB53EC182B01F0AC
:103A300087FA20606160059808F09CFB53EC182B16
:103A400001F07EFAA060E1609DF81C00207604F190
:103A500018009DF81D1041709DF81E1081709DF892
:103A60001F10C1709DF820100171BDF8210000EEFB
:103A7000100AB8EE400A10EE100A00F095FB174A43
:103A80001D4B01F05DFA08F083FBC4F81D00BDF882
:103A90002300A4F821009DF8250084F82300BDEC44
:103AA000028B10BC5DF814FB07492422FFF7D0BB42
:103AB0000CED00E0005400402C870020084000205E
:103AC000EB3C0120683A012068380120FCA9F1D2C2
:103AD0004D62503F8DEDB5A0F7C6B03E3BDF4F8D38
:103AE0000400FA05B00F012000580040A480002017
:103AF000EA3C01205F4C2605976EA23F49574520BE
:103B000025642025640000004952452025642025B5
:103B10006400000041542D536574545331202564D2
:103B20002025640041542D5365745453322025647C
:103B3000202564202564000041542D5365745420D1
:103B400025643A25643A25642E25640038B507F0CB
:103B5000E6F9DFF830068468DFF8280600210171F5
:103B600007F0D7F9002C2CD02068002829D0607CE1
:103B70002168497CC0B2814223D1256800E00D0054
:103B80002968002903D04A7CC0B28242F7D007F0EE
:103B9000C6F9DFF8F0050069A04203D1DFF8E405BB
:103BA00021680161E06921680160C861E5612968F7
:103BB0002160002900D0CC612C6095F8410085F887
:103BC000400007F0A6F931BD10B507F0A8F9DFF8FD
:103BD000B8050468DFF8AC05006A201A012832DA5B
:103BE000DFF8A005046A04E0DFF89805046207F036
:103BF00090F9DFF898050078C00722D507F08FF913
:103C0000DFF8880500788007EED5DFF880050078BA
:103C100010F0FD00DFF87415087007F07AF9DFF88E
:103C20006405006A8442FAD0DFF858050462DFF8C0
:103C300058050068401CDFF850150860DFF844158F
:103C4000486207F06CF910BD38B504000020A0717F
:103C5000206A10F57A606062E069002802D02000D6
:103C6000E169884707F055F9E56809E0E868616AA5
:103C7000401A002801D5E868606207F04AF92D680B
:103C8000002D1AD007F04BF92069002804D0687C79
:103C90002169497C884212D3287C4007EDD5E86829
:103CA000216A401A0128E1DA280000F09EF907F0A5
:103CB00036F9287C0028D9D101E007F030F931BD70
:103CC00070B50400002060700120207008F0A8FA90
:103CD0000078C0B2CD2802D07D2007F0B3F8A068EC
:103CE00000280CD0A068406C002808D0A068406C68
:103CF00001680800002802D0A0684068884794F84E
:103D0000290000280BD0A06894F8281080F84010F3
:103D1000DFF870040079002801D0FFF717FFDFF803
:103D200070040078002823D0DFF868040068DFF80A
:103D30005414096A401A002804D5DFF854040021FD
:103D4000017015E007F0EBF808F0FAFA050007F04B
:103D5000E0F8A068002808D0A068406B2818DFF8B9
:103D600038140968401AA1684863DFF82C0405601C
:103D7000A068002808D0A068007C002804D1A068B2
:103D8000006B401CA1680863206900282BD003E069
:103D90003068206107F0BDF807F0C1F82669002EF1
:103DA00027D0357CEDB2002D23D0680710D5F06800
:103DB000216A411A012906DA300000F016F9307C38
:103DC000002805D10FE0616A411A002900D5606220
:103DD000EDB215F0FB001028DAD1B06880684068B9
:103DE000007C0028D4D107F09AF802E02000FFF709
:103DF0002BFFA0790028F9D1DFF890030078C007E5
:103E000001D5FFF7E1FE002060712069002839D05C
:103E10002069007C002805D020698068806840689F
:103E2000A06001E02069A060A06890F84C006428C0
:103E300002D0802007F006F8A068806A0078CD28BC
:103E400002D0782006F0FEFFA068406C002808D061
:103E5000A068406C41680800002802D0A068406853
:103E60008847A06890F8400084F8280084F829006A
:103E7000DFF810038068C06A401CDFF80813896807
:103E8000C8620BE0002084F82900002084F8280094
:103E90000020A0600020207007F03BF8200070BDDB
:103EA00080B508F07BFADFF8F4120978002806D014
:103EB000022810D009D3042815D010D314E000290B
:103EC00002D0A32006F0BEFF11E0002902D1A420F9
:103ED00006F0B8FF0BE0A62006F0B4FF07E0A7202D
:103EE00006F0B0FF03E002E0A82006F0ABFF01BD42
:103EF00010B508F053FA0400DFF8A002007800289B
:103F000002D0A02006F09EFF002C05D0022C08D085
:103F100003D3032C09D00CE00EE0A42006F092FF9E
:103F20000AE0A62006F08EFF06E0A72006F08AFF32
:103F300002E0A82006F086FF10BD80B508F02EFA3A
:103F4000002805D0022808D006D3032809D00CE0A9
:103F5000A32006F077FF0BE00AE0A62006F072FF30
:103F600006E0A72006F06EFF02E0A82006F06AFF38
:103F700001BD80B5DFF80C020078002802D197203F
:103F800006F060FFDFF8FC010078401EDFF8F41156
:103F90000870C0B2002827D1DFF8E8014068002887
:103FA00022D006F0BCFFDFF8DC01406800280BD00F
:103FB000DFF8D00101210170DFF8C80106F099FF98
:103FC000DFF8C00100210170DFF8B8014078F0216E
:103FD000084202D0992006F035FFDFF8A8014078AA
:103FE000002801D106F095FF01BD10B581680029B8
:103FF0000CD0DFF89011096AC16081680A684968CD
:10400000002A00D051600A6000218160017C11F01B
:1040100003010174C9B2002945D1DFF868110969AB
:10402000002929D1DFF85C110861DFF85801007818
:1040300000280CD1DFF84C0101210170DFF84401A8
:1040400006F057FFDFF83C010021017003E0DFF8C4
:10405000340101214171DFF82C014078F021084240
:1040600002D0992006F0EEFEDFF818014078002813
:1040700001D106F04EFF16E0427C4B7CD2B2934257
:10408000D0D38142D1D04B7CD2B29A420BD1030023
:10409000FFE71B68002BDED05C7CD2B2A242DAD1F3
:1040A0008B42F6D1BEE710BD10B50400627C3548E6
:1040B0000078401C33490870394800E00800016866
:1040C000002903D04B7CD2B29A42F7D32160E06141
:1040D000046000290AD0CC61487CD2B2904202D15F
:1040E00094F8410000E0002084F84000207C002883
:1040F00012D106F014FF2000FFF777FF2148407827
:10410000F021084202D0992006F09CFE1D4840781C
:10411000002801D106F0FDFEFFF72BFF10BD10B502
:104120001848047817480078401C1649087015484C
:1041300006F0DFFE1348047012484078F021084270
:1041400002D0992006F07EFE0E484078002801D16A
:1041500006F0DFFE10BD10B508F026F90948012170
:10416000017008F05DF804006846C046021B203A62
:10417000012A03DBCD21200005F029FC094801219B
:10418000017010BDA4800020C03C01200F3D012023
:10419000103D0120D83C0120C43C0120113D0120EC
:1041A000B0800020133D01205FF0FF0C1CEAD051CD
:1041B00014BF614506E0C110400721F0E04101F164
:1041C0006051704779B900F0004100020AD0B0FA9E
:1041D00080FC00FA0CF001F16051A1EB0C5101EBF5
:1041E000D0214005704741020CBF40F4E0016FF060
:1041F0000001002070470000F0B540F2FF7581EA31
:10420000030C0CF0004C15EA11541DBF15EA1357AE
:10421000AC42AF42E5E0BC41C1F31301C3F3130369
:10422000801A994143F4801304D2641E400049412E
:1042300080185941C90241EA5051B1FBF3F603FB22
:104240001611A2FB0675D7EBC020A94102D2761E3B
:1042500080185941C90241EA5051B1FBF3FE03FBFA
:104260001E11A2FB0E75D7EBC020A94103D2AEF1FF
:10427000010E80185941890241EA9051760546EABB
:104280008E2EB1FBF3F603FB1611A2FB0675D7EBDE
:104290008020A94102D2761E80185941C90241EA04
:1042A00050514EEA060EB1FBF3F603FB1611A2FBCA
:1042B0000675D7EBC020A94102D2761E801859415D
:1042C000C90241EA5051B1FBF3F703FB1711A2FBFE
:1042D0000735D3EBC020A94167F100070CBF0042AE
:1042E00047F0010766F3D5274FEA1E31B80814F5E9
:1042F000806412DDBD0775F1004250EB0E5051EBAA
:10430000045111F5801F5CBF41EA0C01F0BD4CF077
:104310007F6141F0E0410020F0BDBD076D0840EA3B
:104320000E5041F48011D4F10104B4F120060ADAF0
:10433000C4F120060200E04001FA06F3E140184310
:10434000B24015430EE0342C13DCC6F1200445EADC
:1043500040056D0820FA06F2154321FA06F0A14047
:104360000D43002175F1004250F1000051EB0C01AA
:10437000F0BD00205FEA0C01F0BDCFB992185B419F
:10438000B3FA83F704BFB2FA82F6BF190B3FB7F155
:1043900020062FBF02FA06F3BB40C7F1200622FA1F
:1043A00006F638BF3343BA401CB1E419641E33E744
:1043B0007F4231F00041B1FA81F404BFB0FA80F6D7
:1043C000A4190B3CB4F120062FBF00FA06F1A1405E
:1043D000C4F1200620FA06F638BF3143A0403C1B4A
:1043E0001AE7AC421ABF05EA1357AF4212E050EA8F
:1043F00041061CBF52EA4306BFE750EA4107304678
:1044000061461CBF41EA0551F0BD52EA430C08BFAA
:10441000C143F0BD00204FF4001616EB410F98BFCA
:1044200016EB430F08BF16EB410F24BFC14305E055
:1044300016EB430F0CBF61464CEA0551F0BD00007E
:1044400000B583B001218DED000B00A807F0D0FF6F
:10445000401E012811D9002100A807F0C9FF60B152
:104460000198DDE90023002847BF0020054900200E
:10447000054907F0FDFFCDE900019DED000B03B0FC
:1044800000BD00000000F0BF0000F03FF446400D0A
:1044900040EAC120490006D200F014F8004248BFAB
:1044A0006FF00040604700F00DF84FF00041884287
:1044B0008CBF084640426047400D40EAC120490099
:1044C00080F00D8040F00040490DA1F58061491C4D
:1044D00005D4D1F11F0154BFC840C01770474FF039
:1044E0000000704770B50546FEF769FF0646DFF825
:1044F00058492078401C20706078F021084202D092
:10450000992006F09FFC06F00AFD6078401C607060
:10451000294689B23046FFF73EF96078F02108421B
:1045200002D0992006F08EFC6078401E6070C0B208
:10453000002801D106F0EDFCBDE87040FFF719BD81
:1045400030B583B004460020ADF806008DF80400B5
:104550000146012008F012F805460120009001AB49
:104560000022B021FFF77CF8002801D100203EBDD9
:1045700000208DF806009DF8040000F0E7002043BD
:1045800040F007008DF8070002230DF10602B0216C
:104590000120FFF70BF8002801D100203EBD28467E
:1045A0003EBD10B584B00C4601A800210A4606C0E5
:1045B0000620009001AB2422B0210120FFF750F823
:1045C000002801D100200EE001A8417821709DF85B
:1045D00004106170C178A1708178E1704179217116
:1045E00000796071012004B010BD30B583B00024A3
:1045F0002046ADF804000146012007F0BFFFDFF8B8
:104600004C58012000902B462246B021FFF728F895
:10461000002832D0012000906B1C0246B021FFF729
:104620001FF8002829D001200090AB1C0222B021E5
:10463000FFF716F8002820D001200090EB1C032281
:10464000B021FFF70DF8002817D00221012007F054
:1046500095FF054600E0641C062C10DA04F11300F7
:104660008DF8040000208DF80500022301AAB02176
:104670000120FEF79BFF0028EDD100203EBD28461B
:104680003EBD70B582B00020ADF8000001460120AB
:1046900007F074FF044600208DF80000DFF8AC57E7
:1046A00000AE28787070022300AAB0210120FEF726
:1046B0007DFF002801D1002076BD01208DF800008B
:1046C00068787070022300AAB0210120FEF76EFF07
:1046D000002801D1002076BD02208DF80000A878C6
:1046E0007070022300AAB0210120FEF75FFF0028AE
:1046F00001D1002076BD03208DF80000E8787070AD
:10470000022300AAB0210120FEF750FF002801D1AA
:10471000002076BD204676BD70B582B004460020EC
:10472000ADF800000146012007F028FF05460020F3
:104730008DF8000000AE1F207070022300AAB02187
:104740000120FEF733FF002821D002208DF8000061
:10475000DFF8F806807800F0F00040F00400707098
:10476000022300AAB0210120FEF720FF00280ED06E
:1047700001208DF80000A00140F01C0070700223A1
:1047800000AAB0210120FEF711FF002801D100206E
:1047900076BD002C02D06420FFF7A4FE6420FFF752
:1047A000A1FE284676BD2DE9F043ADF5197D0446FE
:1047B0000D46164667A8C821FDF746FE35A8C82154
:1047C000FDF742FE03A8C821FDF73EFE01A8002127
:1047D0000A4606C00F4618E001A89DF8041042786A
:1047E00042EA012167AA22F817108178C27842EACA
:1047F000012135AA22F8171000799DF8091041EA25
:10480000002003A921F817007F1C642F13DA012070
:10481000FFF768FE012007F0C5FEC007F7D50620A8
:10482000009001AB2422B0210120FEF719FF0028DF
:10483000D2D100206DE00020014621606160A160BE
:1048400014E067AA32F9102001EBC201216061680F
:1048500035AA32F9102001EBC2016160A16803AAF8
:1048600032F9102001EBC201A160401C21686428CC
:10487000E7DB642091FBF0F020606068642190FB2E
:10488000F1F06060A06890FBF1F0A060002738466E
:104890000146C5E90001C5E90201C5E9040133E0AB
:1048A000D4F8008067A830F917C04FEAA80008EBD9
:1048B0005070ACEBE000D5E900234043C11710185D
:1048C0005941C5E90001D4F804E04FEAAE000EEB0F
:1048D0005070ACEBE000D5E902234043C11710183B
:1048E0005941C5E90201D4F808904FEAA90009EB43
:1048F0005070ACEBE000D5E904234043C117101819
:104900005941C5E904017F1C642FC9DB6420306074
:1049100001200DF5197DBDE8F08370B586B0DFF894
:104920003015496801AA00231C4618C21A46ADF882
:10493000002002685242ADF8042001AA43685B429D
:104940005380806840429080BDF9040000128DF8C9
:104950000C0003ACBDF804006070B2F90200031251
:10496000A370E070B2F90400031223718DF81100F6
:10497000002006E001EB400332F81050A3F8585035
:10498000401C0328F6DB0221012007F0F7FD054655
:10499000002600E0761C062E10DA06F113008DF8D2
:1049A0000000305D8DF80100022300AAB021012033
:1049B000FEF7FCFD0028EDD1002000E0284606B0FF
:1049C00070BD00002DE9F8432DED028B814688462D
:1049D00001241068D8F80010401A811000EB5170C3
:1049E000C5105068D8F80410401A811000EB5170BF
:1049F000C6109068D8F80810401A811000EB51706A
:104A0000C710B5F5166F01DB204600E0002007F067
:104A1000B1FB2246DFF83C3408F06EFA20D2704237
:104A2000B0F5166F01DB104600E0002007F0A2FB96
:104A30002246DFF8203408F05FFA11D2B7F5166F7E
:104A400001DB104600E0002007F094FB2246DFF86F
:104A5000043408F051FA03D24046FFF75EFF37E016
:104A6000B5F5166F01DB104600E0002007F082FB71
:104A70002246DFF8E03308F03FFA03D30FF2044098
:104A8000FEF71EFD7042B0F5166F01DB204600E018
:104A9000002007F06FFB2246DFF8B83308F02CFA4D
:104AA00003D30FF2EC30FEF70BFDB7F5166F01DB09
:104AB000204600E0002007F05DFB2246E54B08F0B1
:104AC0001BFA03D30FF2D430FEF7FAFC4FF0FF3499
:104AD0009FED988B284608F026FA07F041FB00224C
:104AE000DD4BFFF789FB53EC182B00F029FAFFF799
:104AF000CDFCA9F80000304608F015FA07F030FBAD
:104B00000022D54BFFF778FB53EC182B00F018FA76
:104B1000FFF7BCFCA9F80200384608F004FA07F0D9
:104B20001FFB0022CC4BFFF767FB53EC182B00F068
:104B300007FAFFF7ABFCA9F804002046BDEC028B96
:104B4000BDE8F28330B597B004460CA800210A46B0
:104B50000B460EC001A80EC010A81821FDF774FC6A
:104B600006A81821FDF770FC00A80021016004A828
:104B70000A4606C0FFF739FD002801D10020ABE04E
:104B80000020FFF7C9FD002801D10020A4E000AA01
:104B900006A901A8FFF707FE002801D100209BE02D
:104BA0000120FFF7B9FD002801D1002094E000AA00
:104BB00010A90CA8FFF7F7FD002801D100208BE019
:104BC0000CAA01A904A8FFF7FDFE0546012D03D09C
:104BD0000FF2D420FEF774FC00202070BDF8100006
:104BE0006070BDF910000012A07004A84188E17047
:104BF000B0F902100912217181886171B0F90400C5
:104C00000012A071E5710098207200980012607285
:104C100000980014A07200980016E07201982073AA
:104C200001980012607301980014A0730198001697
:104C3000E07301A8416821744168091261744168F8
:104C40000914A17441680916E174816821758168AD
:104C50000912617581680914A17580680016E075F4
:104C6000DDE906012076DDE9060100B2001260767A
:104C7000DDE906010014A076DDE906010016E07604
:104C800006AAD2E902012077D2E9020100B200129D
:104C90006077D2E902010014A077D2E90201001680
:104CA000E077D2E9040184F82000D2E9040100B2DF
:104CB000001284F82100D2E90401001484F82200D3
:104CC000D2E90401001684F82300FFF7DAFC00287B
:104CD00001D1002000E0012017B030BD30B583B015
:104CE00004460020ADF8040059484568687A002859
:104CF00007D1286E40688047FEF761FB0A21FEF766
:104D00004AFD0120009001AB3622B021FEF7A8FC3D
:104D1000002801D100203EBD9DF804002070002035
:104D20006070687A002802D1286E80688047012070
:104D30003EBD00000000000000408F4080B50178BB
:104D4000002905D1FFF7FEFE002805D0012002BD95
:104D5000FFF7C4FF0028F9D1002002BD30B583B0B1
:104D60000020ADF806008DF804000146012007F090
:104D700005FC0446012007F0EFFB002801D10020CC
:104D80003EBD0120009001AB0022B021FEF768FC7F
:104D9000002801D100203EBD0DF106059DF804005C
:104DA00000F00700072812D000208DF806009DF8BB
:104DB000040040F00700687002230DF10602B021E4
:104DC0000120FEF7F3FB002801D100203EBD0120A9
:104DD0008DF806002220687002230DF10602B02132
:104DE0000120FEF7E3FB002801D100203EBD022098
:104DF0008DF806000520687002230DF10602B0212F
:104E00000120FEF7D3FB002801D100203EBD204643
:104E10003EBD1820FFF794BB80B50020FFF790FB44
:104E2000002801D1002002BD012002BD01207047F1
:104E300080B5242201460948FFF7B3FB002801D1C1
:104E4000002002BD012002BDA4800020783C01208A
:104E500008400020004CCD40004CDD40781C012073
:104E600080B5062806D10846FFF738FF002801D193
:104E7000002002BD012002BD0FF23801012006F022
:104E80003BBF000078206661696C6564000000002B
:104E900079206661696C6564000000007A206661B3
:104EA000696C656400000000636865636B2066617F
:104EB000696C00005D4D0008134E0008194E000893
:104EC0002D4E000800000000314E000800000000D8
:104ED0003D4D0008614E000810B504002000FEF7AB
:104EE000B7F9200010BD0000094240F10B80F446E4
:104EF0004942404271F1000100F004F851F00041D4
:104F00006047000008BF07F035B902460846B0FA0E
:104F100080F150408A40C1F12001C8415040C91E73
:104F200001F58461090501EBD021400540EAD2205A
:104F3000520572F1004250F1000041F1000170474A
:104F4000B0B581EA030C0CF0004C40F2FF7515EA95
:104F500011541DBF15EA1357AC42AF4239E0E419B2
:104F600023EA455343F48013C90241F0004141EA6A
:104F7000505EC7021100A7FB020200284FF000009C
:104F8000EEFB01204FF00001E3FB072118BF42F0C8
:104F90000102401800214941E3FB0E01A4F58064A1
:104FA0000F0302D252004041494154F101046CDD2B
:104FB000470872F1004250F1000051EB0451A1F595
:104FC00080115CBF41EA0C01B0BD4CEA05510020E4
:104FD000B0BD05EA1357AC4214BFAF4241E050EAFE
:104FE000410E1CBF52EA430E02E061460020B0BDF4
:104FF00024423C441BD15FEA070EF6D0090302BFEE
:1050000001460020AEF1140EB1FA81F7AEEB0704B1
:1050100001FA07FE0C37C7F1200100FA07F7C84074
:105020004EEA000E23EA455343F48013A2E733F01F
:105030000043B3FA83F704BFB2FA82FE77440B3F12
:10504000E41BB7F1200E2FBF02FA0EF3BB40C7F1ED
:10505000200E22FA0EFE38BF43EA0E03BA40641C4B
:1050600082E750EA410E14BF52EA430E6FF000018E
:105070004FF4001717EB430F8ABF194617EB410F88
:10508000B5E74CEA05510020B0BDD4F10104B4F1FC
:1050900020070FDAC4F12007520828BF42F00102AE
:1050A00010FA07F501FA07F7E1BF2A43E040384359
:1050B000E1400FE0352C98DCC7F1200452EA4002B1
:1050C00020FA07F218BF42F0010231FA07F0A140BE
:1050D0000A43002172F1004250F1000051EB0C0133
:1050E000B0BD00000020704710B500220DE010F8A0
:1050F000014B84EA12231C0683EA14731C0384EA1E
:10510000022282EA43125A4092B20B46591E9BB2C7
:10511000002BECD1104610BD0021DFF8402902EB36
:10512000C103984201D108467047491C09B20829B9
:10513000F5DB0FE00021DFF8242952F831302BB1E4
:1051400093F90030984201D108467047491C09B2D2
:105150000829F2DB4FF0FF3070470021DFF800290B
:1051600052F831302BB193F90030984201D1084602
:105170007047491C09B22129F2DBEBE710B5044660
:1051800094F900000828BCBF94F9010002280ADA4B
:1051900094F908000728BFBF94F90900072894F97B
:1051A0000A00072802DB4FF0FF3010BDE06A48B16B
:1051B0006221FFF799FFE16AB1F86210814214BFE2
:1051C0000020012094F9001059B9216CDFF89828CB
:1051D00091421CBFDFF89428914202D06FF00F007B
:1051E00010BD08B1002010BD6FF0060010BDFEB567
:1051F00000240021DFF86C280B019D56854220D148
:1052000000259E180EE0DFF8541801EBC0008188DD
:10521000CA0705D441F0010181800120B840044350
:105220006D1C2DB23089854210DAA81990F90A70E8
:105230003846FFF77FFF10F1010FE4D14FF0FF3048
:10524000FEBD491C09B22129D6DB0EE06CB1DFF8A6
:105250002008406CC168080007D00020009002942C
:105260000220ADF8040000A888470020FEBDC01A47
:1052700000B51040012908D1C2F35E016FF0004370
:105280005940084218BF60EA02000199029A81FB66
:10529000000110F5006041F10001C2F1180207F0B1
:1052A00047FE002906DB02DCB0F1004F02D36FF0AD
:1052B000004000BD4FF0FF334FF00042994203DC45
:1052C00001DB904200D2104600BD00002DE9FC47F2
:1052D000894680469A4689F8082000251446D8F861
:1052E000000000682918002691F9081009EB8507CD
:1052F000062946D8DFE801F00428272B2A2E2D00A6
:105300000C2C18BF182C3CD1FE606D1C032DE6DB65
:10531000DAF800100A98002906D5D8F804100029F8
:1053200002D40168491C0160D8F80430CAF8003082
:105330000268DFF8040A406C0168484607F009FE7D
:105340000020BDE8F6870126002104E001260121A6
:1053500001E00126022108EB810C0C2C07D0182C4F
:105360000FD1182200F010F8F86036B9CDE70C2202
:1053700000F00AF8F860002EC7D0F8684042F860E4
:10538000C3E74FF0FF30DCE700EB850101928A694B
:105390000092CB68426890F90110DCF8080066E7DB
:1053A0002DE9F04104460D46164662213046FFF7CE
:1053B0009BFEA6F86200DFF8B87696F96000DFF889
:1053C0009C8620B101281AD0032830D047E0FFF78F
:1053D000B1FE84461CF1010F41D008EBCC000179ED
:1053E000490701D500F03DF8002006EB800107EBEE
:1053F000800289691162401C0328F6DB2FE0FFF769
:1054000099FE84461CF1010F29D008EBCC000179EC
:10541000490701D500F025F8002006EB800107EBD5
:10542000800289699163401C0328F6DB17E00220A3
:10543000FFF780FE84461CF1010F10D008EBCC0072
:105440000179490701D500F00CF8002006EB800136
:1054500007EB80028969D162401C0328F6DBBDE8B6
:10546000F081224658F83C40246B2B4631462047B9
:10547000F0B5DFF8FC15DFF8844A87B0D1E906679C
:105480000C9D012804D021D3032811D008D31DE09E
:1054900016F010061AD000F01BF8B1F902200EE049
:1054A00016F0040612D000F013F8B1F9042006E05B
:1054B00016F008060AD000F00BF8B1F9062004EB4C
:1054C000C20054F83220526800A9904707B0F0BDDE
:1054D0002868029068680390A8680490CDE90023CA
:1054E00070472DE9F04190B004460D46164601A9DB
:1054F00000A808F0FFFF304609F063FE70680490D2
:10550000B0680590F06806903068079000980890A1
:10551000079800280AD50499494204914042059908
:10552000079049420591069949420691CDE9024505
:10553000DFF83C85DFF8C479D8E9060110F00100F6
:1055400012D00DAB0CAA0EA9304609F02BFDCDE907
:105550000A450020FFF701FE024607EBC20057F89C
:10556000322052680AA99047D8E9060110F00200DB
:1055700004D00120FFF7F1FD00F017F8D8E906018B
:1055800010F0805004D01C20FFF7E7FD00F00DF86C
:10559000D8E9060110F0005004D01D20FFF7DDFD12
:1055A00000F003F810B0BDE8F081024607EBC2003E
:1055B00057F83220526802A910477FB5DFF8B0646F
:1055C00004460D46D6E9060110F0200001F0000166
:1055D0001BD0106800B101208DF8080070569DF9AD
:1055E000081088420ED00520FFF7B7FDCDE9004531
:1055F0000246DFF8083903EBC20053F83220526844
:1056000000A990479DF8080030707FBD704738B5FD
:105610000446DFF85C540020C5E906000022402162
:10562000DFF83804FDF794FEDFF8340400224FF46D
:105630008471FDF78DFE6C64606801001CBFA16879
:10564000002902D0A864A068E864A2686168DFF855
:10565000B00809F048FE002032BD70B5AAB00400C1
:105660000E4614BF002E6FF013006DD094F90000A9
:10567000FFF760FD10F1010F04D0002030606FF0E3
:105680000B0061E02046FFF779FD10F1010F08BF24
:105690006FF00D0058D010F1100F08BF6FF00F0021
:1056A00052D010F1070F0CBF002501250020DFF8B4
:1056B000AC1351F8302032B1401C00B20828F8DB9E
:1056C0006FF0120040E010F1010FF9D041F83040C6
:1056D00001EBC000002181803060615641B900F0CB
:1056E00053F80EBF41F008014FF6F7721140818068
:1056F000226B8188002A12BF41F004014FF6FB7231
:105700001140818000F022F827A894F9001000F0E1
:1057100041F8DFF8F00709F08BFDDFF8EC0709F03E
:105720008BFDE06A294609F0F7FE00F04CF800F026
:105730003DF800F042F800F021F800F019F800F010
:1057400011F800F009F800202AB070BD4FF6FE7283
:105750008188114081807047D4F8EC00279000A820
:1057600009F028BF2A4604F1D80122A8FDF780BD20
:105770002A4604F1CC011FA8FDF77ABD2A4604F1A0
:10578000C0011CA8FDF774BD226C8188DFF8D832F7
:105790009A42704719B1022905D002D370470121FE
:1057A00002E0022100E00321017170470C250C2268
:1057B00004F19C0113A8FDF75BBD182204F1A801B8
:1057C00016A8FDF755BD002000A901EB8001626A13
:1057D0000A61A26ACA6104EB8002401C526B4A60F3
:1057E0000328F1DB606C0090242204F178010AA800
:1057F000FDF73EBD2DE9F04105000E4614BF002E19
:105800006FF013000AD095F90000FFF7A6FC10F125
:10581000010F04D0002030606FF008007FE095F9A0
:1058200000002128BCBF95F90810042919DA95F960
:1058300009100629BCBF95F90A10022911DA696816
:1058400079B10B2884BFA0F10E0103290CD9C91F1F
:105850000AD0891E012907D9C91E05D0891E04292D
:1058600002D96FF011005AE000247D4FA04657F88E
:10587000381021B1641C24B2212CF7DB02E018F1AE
:10588000010F04D1002030606FF0120047E0FFF7F5
:10589000AEFC10F1010F04D1002030606FF00C005D
:1058A0003DE0734A95F90030D2E9060113B3012BAC
:1058B00037D0022B47D0032B4CD0042B53D0052BD1
:1058C00057D0062B5ED0072B5FD0082B60D00A2B59
:1058D00061D00B2B62D00E2B32D00F2B37D0102B78
:1058E0003ED01C2B20D01D2B21D01F2B22D0202BB3
:1058F00023D056E040F00100C2E9060147F83850D5
:1059000007EBC8000021818030600020DFF8FC1523
:1059100009F08AFCDFF8F00509F08EFC0020BDE8F4
:10592000F08140F00200E7E740F08050E4E740F00B
:105930000050E1E740F00040DEE741F00101DBE725
:1059400040F48040D8E7948040F00400D4E740F46D
:105950000040D1E740F00800C2E90601D480CDE75D
:1059600040F48030C8E740F01000C2E906015480DE
:10597000C4E740F02000C2E90601DFF8940509F011
:105980005FFCBBE740F04000B6E740F08000B3E7C3
:1059900040F48070B0E740F48060ADE740F4006010
:1059A000AAE76FF00200BAE72DE9F04B04465FEA80
:1059B000010808BF6FF013004DD024B1FFF7ACFB16
:1059C00010F1010F02D16FF0140044E02079C007FC
:1059D00040D5274DA86C6FF007094F468047B5F9B1
:1059E00008106889082907DA401C491C80B22981FF
:1059F000082808BF00200027688114266889CF4B3B
:105A000070431022C450C0184146001DFDF720FC11
:105A1000B5F90E10288ACB46082908DA401C491C23
:105A200080B2E981082808BF00204FF0000B2882CF
:105A30001022288ADFF8DC3470434146C450C01875
:105A4000001DFDF705FCE86C80474846874218BFFB
:105A5000834500D00020BDE8F08B000038360120DF
:105A6000CC100120947E00205C8F0200B81E05003F
:105A7000688300202DE9F04CAF4CA06CA3B08047A8
:105A80001422AE4809E089B1491E2181591CA18127
:105A900089B2082904BF0021A181A389B4F90810A3
:105AA00002FB03F52E58002EEDD011B9E06C8047B3
:105AB00039E129181AA8FDF7CBFB2089401E208167
:105AC000A089401C80B2082808BF0020A081E06C9B
:105AD00080471A98DFF8245400680FF2005790F9B5
:105AE0000000DFF834640FF25C4A0FF23C4B28B13F
:105AF000022800F0E680C0F0AC8011E100F040F92F
:105B000058B172B60FF2544001905B4640F64C100B
:105B100000F040F900F027F9FEE7182202A904F18D
:105B20006000FDF795FB1A980079000704D5A08A5C
:105B3000401CA082C007E0D5D4E9060110F48030F3
:105B400010D01020FFF709FB074617F1010F09D00D
:105B500000F011F90C2204F1200111A8FDF778FBE7
:105B600000F0F6F800F0B0F909F03DFDD4E90601C7
:105B700011F0010301D10028BFD51FA808F09DFC3A
:105B80000028BAD0002602A800EB86001822C168BF
:105B9000DFF88803FAF706FB00F500600AA9001396
:105BA00021F81600761C032EEDDB1FAB0AAA00A914
:105BB00008A80AF006F9D4E9060111F0010121D084
:105BC00018208DF85800DDE90201CDE91401DFF855
:105BD0005063BDF900000103182200F0C9F81790C6
:105BE00000AF1822B7F9020000F0C1F8189018228F
:105BF000B7F9040000F0BBF819902020FFF7ADFAC8
:105C000000F09EF8D4E9060110F0004020D00C20EE
:105C10008DF8580049F6E146DDE90201CDE91401AD
:105C20000C22BDF9201000F0A3F808AF17900C2249
:105C3000B7F9021000F09CF818900C22B7F9041084
:105C400000F096F819901F20FFF787FA00F078F817
:105C500066E004F15400009004F150030C2202A904
:105C60001AA8FFF733FB58B172B60FF278300190E3
:105C70005B4640F69C1000F08DF800F074F8FEE7EB
:105C8000182202A904F17800FDF7E2FAD4E906012E
:105C900010F4804010D00E20FFF75FFA074617F18E
:105CA000010F42D000F067F80C2204F1380111A86E
:105CB000FDF7CEFA00F04CF800F006F909F0E6FC2A
:105CC0002EE000F05DF858B172B60FF298300190F6
:105CD0005B4640F6B71000F05DF800F044F8FEE7D0
:105CE000182202A904F19000FDF7B2FAD4E90601E6
:105CF00010F4004010D00F20FFF72FFA074617F1DD
:105D0000010F12D000F037F80C2204F12C0111A879
:105D1000FDF79EFA00F01CF800F0D6F809F0DFFC61
:105D2000B4F9080020B9012003E06FF0140000E08E
:105D3000002023B0BDE8F08C68830020081F0120FC
:105D4000074655F83720526814A905EBC7001047DD
:105D5000DDE90201CDE90C0155F8372052680CA9A4
:105D600005EBC700104731463846FDF73DBA010341
:105D70003046FAF717BA0C2205A90EA8FDF778BA33
:105D800004F15400009004F15003182202A91AA84B
:105D9000FFF79CBA00905246C8213046FDF736BA4C
:105DA0002DE9F0435F4CA06C8DB080471422594818
:105DB00009E089B1491EE181591C618289B2082933
:105DC00004BF00216182638AB4F90E1002FB03F55F
:105DD0002E58002EEDD011B9E06C80476EE02918E6
:105DE00008A8FDF735FAE089401EE081608A401C72
:105DF00080B2082808BF00206082E06C80470898C5
:105E00000FF2D8150068444E90F900000FF23419D3
:105E10000FF2CC280FF2E42718B102283BD01AD396
:105E200049E000F060F840B172B6019740F60820F2
:105E300000F052F800F04CF8FEE7089800790007EF
:105E400004D5E08A401CE082C00734D500F03CF85D
:105E500009F09FFC2FE004F15C00009004F158036E
:105E60000C2202A908A8FFF731FA78B172B60FF236
:105E70000C300190434640F6162000904A46C82157
:105E80003046FDF7C3F900F023F8FEE700F01CF8F8
:105E900009F099FC0FE000F026F840B172B60197C6
:105EA00040F61E2000F018F800F012F8FEE700F0AF
:105EB0000BF809F0A0FCB4F90E0008B9012000E0CD
:105EC00000200DB0BDE8F083DDE9020105AA7047AE
:105ED00031462846FDF788B9009043464A46C82116
:105EE0003046FDF793B904F15C00009004F15803CB
:105EF000182202A908A8FFF7E9B90000CC10012078
:105F00000D560008A153000871540008E35400081E
:105F1000BB550008A81F0120E8200120EF1B1A0034
:105F20008014CE0968830020464D5F446F466F722F
:105F30006567726F756E6450726F63657373696EB7
:105F4000670000004153534552543A2025732825D9
:105F50006429202D205B25735D000000436F6E7661
:105F600065727453656E736F724461746128266440
:105F70006174612C202650726F636573736564448D
:105F80006174612C2032342C20265F73656E736F30
:105F9000724C617374466F726567726F756E64548C
:105FA000696D655374616D702C20265F73656E7327
:105FB0006F724C617374466F726567726F756E6451
:105FC00054696D655374616D70457874656E73695D
:105FD0006F6E29203D3D20300000000025730D0A22
:105FE00000000000436F6E7665727453656E736FC8
:105FF00072446174612826646174612C2026507299
:106000006F636573736564446174612C2031322C55
:1060100020265F73656E736F724C617374466F7286
:106020006567726F756E6454696D655374616D70E8
:106030002C20265F73656E736F724C617374466FAC
:10604000726567726F756E6454696D655374616DC6
:1060500070457874656E73696F6E29203D3D203000
:1060600000000000436F6E7665727453656E736F47
:1060700072446174612826646174612C2650726FC9
:10608000636573736564446174612C2032342C2021
:10609000265F73656E736F724C617374466F7265C1
:1060A00067726F756E6454696D655374616D702CA1
:1060B00020265F73656E736F724C617374466F72E6
:1060C0006567726F756E6454696D655374616D7048
:1060D000457874656E73696F6E29203D3D203000F0
:1060E000464D5F446F4261636B67726F756E6450BB
:1060F000726F63657373696E67000000436F6E763D
:1061000065727453656E736F72446174612826649E
:106110006174612C202650726F63657373656444EB
:106120006174612C2032342C20265F73656E736F8E
:10613000724C6173744261636B67726F756E645405
:10614000696D655374616D702C20265F73656E7385
:106150006F724C6173744261636B67726F756E64CA
:1061600054696D655374616D70457874656E7369BB
:106170006F6E29203D3D203000000000436F6E7699
:1061800065727453656E736F72446174612826641E
:106190006174612C202650726F636573736564446B
:1061A0006174612C2031322C20265F73656E736F11
:1061B000724C6173744261636B67726F756E645485
:1061C000696D655374616D702C20265F73656E7305
:1061D0006F724C6173744261636B67726F756E644A
:1061E00054696D655374616D70457874656E73693B
:1061F0006F6E29203D3D2030000000006948704747
:10620000F8B50C461646012500282BD106EB860072
:10621000644901EBC007F868E040C00708D5234691
:10622000FA6831460FF2FC20FDF74AF90220F2BD70
:106230004FF0FF30009003462A46796820460AF066
:1062400014FB00280CD02346FA6831460FF2E420F4
:10625000FDF736F9F8682946A1400843F8602CE0BC
:106260000220F2BD012828D106EB86004D4901EB42
:10627000C007F868E040C00708D42346FA683146F2
:106280000FF2C020FDF71CF9032516E04FF0FF3395
:106290002A46796820460AF081FB002807D0234669
:1062A000FA6831460FF2AC20FDF70AF900E0032549
:1062B000F8680121A1408843F8602846F2BD0BF040
:1062C00069BA02B58AB00021ADF8221001910A2105
:1062D0008DF8081000218DF809108DF80A1005219D
:1062E0008DF80010019004220AA90DF10900FEF7B3
:1062F000F3FD0020ADF8220000A800F055F80BB027
:1063000000BD80B50CF054F80FF25820BDE80240F3
:10631000FDF7D6B838B5447885780078032810D0D2
:106320001A281AD1012C18D101200DF034FC0123B8
:1063300022461A210FF2382001B0BDE83040FDF7A7
:10634000BFB8012C09D128460CF03DF829460FF2C0
:106350003020BDE83440FDF7B3B831BD0FB480B58F
:10636000002805D10846002802D11046002804D094
:106370000EF0CFF9C046C04601E00EF0B3F901BC03
:106380005DF814FB00222D2809D200EB800305489C
:1063900000EBC300C068C840C00700D5012210460A
:1063A00070470000B8C8002030B585B0044601250C
:1063B00094F90000062800F2A180DFE800F004282C
:1063C000445F76979B0004F1090182B06846182269
:1063D000FCF73EFF0CBC94F90810606840B20AF06C
:1063E00012FE02280AD1606800B20AF0F1FF00250F
:1063F00061680FF29810FDF763F885E0032840F01C
:10640000838061680FF28C10FDF75AF87CE06068B9
:106410001A280AD104F109000BF06BFA637B227B86
:10642000E17A0FF27810FDF74BF894F908106068E4
:1064300040B20AF0E8FE032866D161680FF27410DA
:10644000FDF73EF860E0618C00A80AF0DBFF9DF9E3
:10645000040002280AD1009800B20AF0B9FF002512
:1064600000990FF25810FDF72BF84DE003284BD19F
:1064700000990FF25010FDF723F845E00EF066FA90
:1064800002280AD1606800B20AF0A2FF0025616804
:106490000FF23810FDF714F836E0032834D16168A4
:1064A0000FF23010FDF70CF82EE0606805280CD1D3
:1064B00028460EF024FB02280DD0032824D1616861
:1064C0000FF22010FCF7FCFF1EE002281CD10EF09A
:1064D00007FC0228F1D1606800B20AF079FF0025BC
:1064E00061680FF2F800FCF7EBFF0DE020460AF0C0
:1064F000EEFF09E020460BF09BF905E061680FF222
:10650000EC00FCF7DDFF0025284605B030BD01207A
:1065100070470FB4022004B070470120704700207C
:1065200070477047534D4143202564202564202542
:1065300064000000534D412025642025642025641B
:1065400000000000534D524320256420256420257F
:1065500064000000534D52202564202564202564EA
:1065600000000000504420536574535400000000A4
:1065700041542052492D25642025642025640000C3
:1065800050442055542D256400000000414C4F46D6
:1065900020256400414C4346202564004F4A482092
:1065A000454C2030782578203078257820307825A3
:1065B00078000000524C434620256400504C4F4662
:1065C00020256400504C43462025640050414F462E
:1065D00020256400504143462025640050504F461A
:1065E0002025640050504346202564004558204C27
:1065F0004D454C2025640000DFF89405704730B508
:1066000083B00020ADF806008DF804000120009052
:1066100001AB002218210220FDF722F804469DF864
:10662000040048281FD131208DF806000DF1060521
:106630000120687002230DF1060218211846FCF7AC
:10664000B5FF00280DD031208DF8060000206870BD
:1066500002230DF1060218211846FCF7A7FF0028B7
:1066600002D100203EBD00241C220021DFF82005BD
:1066700003F0ADF920463EBD70B582B00020ADF804
:1066800000000EF092FB0446DFF808058168497AA5
:10669000C268527A51180069407A0818012801DB53
:1066A000012076BDDFF8F054687801281CD0322034
:1066B0008DF8000000AE01207070022300AA18219E
:1066C0001846FCF773FF00280CD031208DF800002D
:1066D00001207070022300AA18211846FCF766FFFB
:1066E000002803D1002076BD01202870281D616993
:1066F0008847012076BD38B50020ADF800000EF0C7
:1067000054FB0446DFF88C048168497AC268527AE7
:1067100051180069407A0818022801DB012032BDB7
:10672000DFF874542878012812D031208DF8000049
:1067300000208DF80100022300AA18211846FCF75A
:1067400035FF002801D1002032BD0020687001E033
:1067500000202870281D21698847012032BD80B59E
:106760000020ADF8000031208DF8000000208DF8E9
:106770000100022300AA18211846FCF717FF002881
:1067800001D1002002BD012002BD7CB504460020DD
:10679000ADF806008DF804000120009001AB002246
:1067A00018210220FCF75CFF05469DF804004828EC
:1067B00029D131208DF806000DF106061F207070DA
:1067C00002230DF1060218211846FCF7EFFE0028FF
:1067D00017D0032000902346602218210220FCF7E6
:1067E0003FFF00280DD031208DF80600002070708A
:1067F00002230DF1060218211846FCF7D7FE0028E7
:1068000002D1002076BD0025284676BD0021E34A4E
:1068100002E00B5C8B54491C1B29FADBE048C0F8F2
:106820001424012070472DE9F04387B004460D463B
:1068300016461F464FF000084046ADF8040002A877
:1068400041460A460B460EC04FF0050906C001201E
:10685000009002AB102218210220FCF701FF9DF8E6
:106860000810C9070ED501280CD1082000900DF1A1
:106870000903112218210220FCF7F2FE002807D19B
:1068800040467EE04846A0F1010980B20028DED1F2
:10689000C4489DF80810017002A90A7A4270CA79AA
:1068A00082704A78C2708A780271CA7842710A7915
:1068B00082714A79C271897901720AE002A800EBFB
:1068C00048008178407810EB012024F8180008F186
:1068D0000108B8F1030FF1DBAE48D0F80C8008F1E5
:1068E0000C0999F815202146D9F80C00D8F80C307D
:1068F000C018FEF7F1FA404609F00AFE99F8152093
:10690000D9F80C00D8F80C1041182046FEF7E4FA2C
:10691000DFF88C8205AA214640460EF0F1FCB8F95A
:106920000803404490F905033860B8F8FC0028805B
:1069300008F1FC00418869808188A98081892180D3
:10694000C1896180008AA08020882988401A30800F
:1069500060886988401A7080A088A988401AB08031
:1069600031208DF8040001208DF80500022301AAD2
:1069700018211846FCF71AFE002801D1002000E07B
:10698000012007B0BDE8F08330B585B00446002093
:10699000ADF8040002A800210A460B460EC00525EA
:1069A0000120009002AB102218210220FCF758FEB3
:1069B0009DF80810C9070ED501280CD108200090B9
:1069C0000DF10903112218210220FCF749FE0028CD
:1069D00006D1002029E02846451E80B20028DFD1DC
:1069E00070489DF80810017002A90A7A4270487830
:1069F000207088786070C878A0700879E070487955
:106A000020719DF80E00607131208DF80400012086
:106A10008DF80500022301AA18211846FCF7C6FDCF
:106A2000002801D1002000E0012005B030BD2DE993
:106A3000F0410446002500F09BFA0746FFF7DCFD15
:106A400006465448D0F81080F86E40070BD406F183
:106A5000140306F10C02B11D3046FFF7E4FE0028D6
:106A600001D1284652E098F80A00012849D14D4842
:106A70000178217041786170C178A1700179E1706D
:106A80004179217181796171C179A171007AE071D7
:106A90004348418F2172B0F93A100912617200F235
:106AA0003A014A88A272B1F902201212E2728A886F
:106AB0002273B1F9041009126173B0F80211A173C5
:106AC000B0F902110912E17300F202104188217439
:106AD000B0F90210091261748188A174B0F9040040
:106AE0000012E074284620750FE006EB4500C188CF
:106AF00004F8151004EB4501B0F9060000124870C7
:106B00006D1C032DF1DB7069A0710120BDE8F081DF
:106B1000F8B50446002500F02BFA0746FFF76CFD98
:106B20000646F86E000705D52046FFF72DFF002822
:106B30002CD109E006F1140306F10C02B11D304618
:106B4000FFF771FE002814D12846F2BD36F8150073
:106B500004F8150004EB450036F9151009124170D0
:106B600006EB45018A898271B1F90C100912C171D5
:106B70006D1C032DEADB00F0B4FA4FF47A71484340
:106B8000B0611C2231460248FEF7A6F90120F2BD91
:106B900008390120084000201C3A0120EC3801206F
:106BA000A0DB0020E03A01207CB504460020ADF8CF
:106BB00006008DF80400FCF702FC05460120009059
:106BC00001AB002218210220FCF74AFD9DF80410B9
:106BD000482932D131208DF806000DF106061F201C
:106BE000707002230DF1060218211846FCF7DEFC36
:106BF00000281BD031208DF8060000207070022381
:106C00000DF1060218211846FCF7D0FC00280DD023
:106C100001212846FCF7BFFD0120009001AB312285
:106C200018210220FCF71CFD002801D1002076BDB0
:106C30009DF804002070012076BDFF21217076BDF3
:106C40002DE9F04387B0044604A800210A460B460C
:106C50000EC00846ADF80C004FF00509FCF7AFFB7D
:106C600005460220009004AB00221821FCF7F8FC36
:106C700006469DF81000482840F00B819DF8100052
:106C8000207004AF7878607031208DF80C000DF121
:106C90000C081F2088F80100022303AA18211846B7
:106CA000FCF784FC002800F0F5800320009004AB82
:106CB000602218210220FCF7D3FC002800F0EA80B3
:106CC0009DF81000A0707878E070B87820713120BD
:106CD0008DF80C00002088F80100022303AA182177
:106CE0001846FCF763FC002800F0D48001200090D7
:106CF00004AB312218210220FCF7B2FC002800F07E
:106D0000C9809DF81000607531208DF80C000120BD
:106D100088F80100022303AA18211846FCF746FC54
:106D2000002800F0B7801E212846FCF734FD012022
:106D3000009004AB102218210220FCF791FC0646BB
:106D40009DF81000C0070DD5012E0BD10820009032
:106D50000DF11103112218210220FCF781FC0028FB
:106D600006D160E04846A0F1010980B20028DED1DA
:106D7000B87902907879019038790090FB78BA78E8
:106D800079780FF26C10FCF79BFBB878797811EBEF
:106D900000203979FA7812EB0121BA797B7913EB6B
:106DA000022203461BB21B126371A071084600B297
:106DB0000012E0712172104600B200126072A272DD
:106DC0009DF81000E072387A207331208DF80C00A5
:106DD000102088F80100022303AA18211846FCF7A6
:106DE000E5FB002856D01E212846FCF7D4FC4FF0C6
:106DF00005090120009004AB102218210220FCF7A5
:106E00002FFC06469DF81000C0070ED5012E0CD1B0
:106E1000082000900DF11103112218210220FCF727
:106E20001FFC002807D1002035E04846A0F10109E9
:106E300080B20028DDD1B879029078790190387954
:106E40000090FB78BA7879780FF2C000FCF738FB35
:106E5000B878797811EB00203979FA7812EB0121B2
:106E6000BA797B7913EB022203461BB21B126373C0
:106E7000A073084600B20012E0732174104600B2FD
:106E800000126074A2749DF81000E074387A2075C6
:106E900000E00026304607B0BDE8F08318B4044691
:106EA0000B4611460020032C04D0042C05D0072CDF
:106EB00006D008E0184614BC67E4184612BC73E616
:106EC000184612BCA2E412BC704710B50FF2580469
:106ED0002146022004F010FF0FF27001042004F09C
:106EE0000BFF21460320BDE8104004F005BF000061
:106EF000474D53312D25642C2025642C2025642CEE
:106F00002025642C2025642C20256400474D533215
:106F10002D25642C2025642C2025642C2025642C10
:106F20002025642C20256400FF6500087966000890
:106F3000F76600085F67000800000000116B00089A
:106F400000000000416C00089D6E0008FF6500080D
:106F500079660008F76600085F6700080000000017
:106F60002F6A000800000000416C00089D6E0008B8
:106F700000487047681E0120DFF8500E0078704707
:106F80002DE9F0418AB0FFF7F3FF0446DFF8405ED9
:106F90002E6842E096F9080007283DD00B283BDA1E
:106FA000062839D006F10807B86C002803D5D4F8B4
:106FB00080100818B8644FF0FF313046FA6D9269BE
:106FC00090478046B8F1010F04D197F84C00B96D95
:106FD00009698847B8F1020F0BD1797E38697A6860
:106FE0008018BA6D52699047002802D0304609F0E7
:106FF0008FFA00213046FA6D92699047022801D13C
:107000000120B87501213046FA6D92699047022837
:1070100002D1304609F020FB3668AE42BAD1D4E93D
:107020001C01002901D100280CD00A208DF808008D
:1070300002208DF80000D4F88000ADF8220000A8EE
:10704000FFF7B2F901200AB0BDE8F08130B585B094
:1070500004460D46CA208DF800002888ADF80100CE
:107060000220ADF80300BDF80100001D0EF0C2FBC8
:10707000CDF8090002220DF10301FDF72DFF0222D8
:107080002946DDF80900801CFDF726FF2A882146E5
:10709000DDF80900001DFDF71FFF0020288000A972
:1070A000DFF8300D0EF0CEFB05B030BDC0F540600E
:1070B000322801DA012070470020704780B5FCF7C4
:1070C0007EF9407B002804D009F0A8F9DFF8081DFC
:1070D000086001BD80B509F0A1F9DFF8001D086066
:1070E00001BDDFF8F80C0068704718B400F10C031C
:1070F0000422DFF8E81C5C7DDB68C06818182018E3
:1071000018BCFDF7E9BE30B41488651C1580052550
:1071100065541488651C1580635413885C1C1480A6
:10712000007A585430BC70472DE9F04182B00446D3
:107130000F4615461E463088411C31803721415587
:107140003088411C3180217A415504F1080898F8B3
:107150001920D8F80400391830884019FDF7BCFE12
:10716000308898F819104018308098F81900D8F82D
:10717000041079184058DFF8601C0968401A009024
:10718000042200A930884019FDF7A6FE3088001DB2
:10719000308080B2FFF78AFF002803D031462846AE
:1071A000FFF754FF94F90800162808D1D8F810000A
:1071B000D8F80410415C0FF20C00FCF781F9BDE82F
:1071C000F38100002323205368616B652025640050
:1071D0002DE9F04104460D4616461F46DDF818809D
:1071E00008E043463A4629462046FFF79DFF94F8BB
:1071F00022002D18B542F4DBBDE8F081F8B5044655
:1072000015461E46069F00972269FFF7E1FF206999
:10721000854206DA009733462A4600212046FFF7CA
:10722000D7FFF1BD00F110018A688B7CD2188A600B
:107230000069824201D10020886000208873704775
:1072400070B582B000F1140674684569002D07D549
:1072500000920B462246B17B6118FFF7CFFF73BD4A
:10726000AC4200920B462246294602DAFFF7C6FFDF
:1072700073BDFFF7ADFF73BD70B504460D461646EE
:10728000FFF7DEFF0123324629462046FFF73BFF8A
:10729000A069606170BD2DE9F84304460D461646AD
:1072A000FFF766FE8046FCF78AF881462046FFF726
:1072B0001CFF04F10807386C012849DB99F80A0023
:1072C000002821D0B87D002868D000207864B87EDE
:1072D0003A69F9688B1A834205D0002910D1BB683E
:1072E0009B1A83420CD13B7E002B06D000962B4686
:1072F00082182046FFF782FF02E04FF0FF30F8606F
:107300002046BDE8F2438DE7786CD8F88010401A2B
:107310007864012815DA386C7864324629462046AC
:10732000FFF78EFFB87D002808D033462A4639691A
:107330002046FFF7F9FE2046FFF774FF3869F86032
:107340002CE0B87D002829D02046BDE8F24369E74B
:10735000B87D002822D099F80A00002813D094F9AB
:107360000800072801D0162813D133462A46396968
:107370002046FFF7D9FE7A7894F908100FF2200022
:10738000FCF79EF805E033462A4639692046FFF7A8
:10739000CBFE2046FFF746FF3869F860BDE8F18371
:1073A000415020537573202564202564000000009F
:1073B0002DE9F04104460D46DFF8146A37681BE0FA
:1073C00097F90800062811D107F1080898F8191054
:1073D000D8F81000D8F804208018D8F8582052693E
:1073E0009047002802D0012088F816002A4621463E
:1073F0003846FFF750FF3F68B742E1D1BDE8F08162
:10740000F8B504460D46DFF8240CC6690FF23400C7
:10741000FCF756F806F10C07797DF868F2688018D9
:107420007A6D52699047002809D00120B874707AAB
:10743000002804D02A4621463046FFF72CFF0120C1
:10744000F2BD00003D3E5055500000000288D21CA5
:1074500002800A80704780B50B889B1AADF8003017
:10746000BDF80030002B09D01018012100F8031CD2
:10747000022200A9801EFDF72FFD01BD0888C01E55
:10748000088001BD2DE9F04FADF64C1D04460D46B8
:10749000FFF76EFD0746FBF792FF804610A840F607
:1074A0000811FAF7D1FF00208DF8020006A8282164
:1074B000FAF7CAFF01A81421FAF7C6FF0020ADF8B9
:1074C00000000646D7E91C01002902D1002800F07F
:1074D000748398F909000AF081F8002800F06D83A0
:1074E00000A92846FFF7B2FFB0461CE0D7E91C010F
:1074F00042460EF0D7F900F0010011F0000101D171
:1075000000280ED008EB8800DFF8241B01EBC00236
:1075100092F90900012804D10DF1020110A8126AA4
:10752000904708F10108B8F12D0FDFDB37461AE06C
:107530002888411C298099F8021001552888FFF7F6
:10754000B5FD00280DD0BDF8002029462046FFF7E4
:1075500082FF29462046FFF779FD00A92846FFF75C
:1075600075FF7F1C7FB29DF80200874280F21D8369
:107570002988481C288040F2211010FB07F010AA2F
:10758000825C0A5529884A1C2A8010AA00EB02084E
:1075900098F8010008552888411C298008F1010944
:1075A00099F80110015599F8010003281ED0092807
:1075B00000F049810C2800F023811A2800F0428253
:1075C0001B2800F056811C2800F070821D2800F056
:1075D00063811E2800F05A82252800F0998226280F
:1075E00000F0D382282800F0AE82A1E798F80100CD
:1075F000032805D12888411C298099F802100155DB
:107600002888411C298099F80310015599F8030036
:10761000C0280DD1B8F83020D8F8321028880019C9
:10762000FDF75AFC2888B8F830100818288085E73C
:10763000711C00064ED401A808F10402527832549D
:10764000C9B298F806200A54491CC9B200220A544B
:107650004A1C08F20601D2B24B781354521CB8F8F7
:107660000E30D2B21E0A1654521CD2B21354521CFF
:1076700008F20E03D2B29E781654521CD2B2DB78B6
:107680001354521CD2B298F812301354521CD2B276
:1076900098F813301354521CD2B28B781354521CE6
:1076A000D2B2C9781154511CC9B298F80A200A54B0
:1076B000491CC9B298F80B200A544E1CF6B2324647
:1076C00001A928880019FDF707FC288850FA86F0E0
:1076D000288033E7D8F8052006A8130C3354C9B224
:1076E000130A0B54491CC9B20A54491CD8F8092082
:1076F000C9B2130C0B54491CC9B2130A0B54491CD0
:10770000C9B20A54491CD8F80D20C9B2130C0B5445
:10771000491CC9B2130A0B54491CC9B20A54491C6A
:10772000D8F81120C9B2130C0B54491CC9B2130A62
:107730000B54491CC9B20A54491CD8F82720C9B2B5
:10774000130C0B54491CC9B2130A0B54491CC9B27F
:107750000A544A1C08F22701D2B20B791354521C66
:10776000D2B24B791354521CCB88D2B21E0A165493
:10777000521CD2B21354521CD2B2097A1154511C69
:10778000D8F81520C9B2130C0B54491CC9B2130AFE
:107790000B54491CC9B20A54491CD8F81920C9B263
:1077A000130C0B54491CC9B2130A0B54491CC9B21F
:1077B0000A54491CD8F81D20C9B2130C0B54491C9B
:1077C000C9B2130A0B54491CC9B20A54491CD8F84F
:1077D0002120C9B2130C0B54491CC9B2130A0B5413
:1077E000491CC9B20A544E1CF6B2324606A9288872
:1077F0000019FDF771FB288850FA86F028809DE675
:1078000008F10301B1F90300C0F3072242EA0020A6
:10781000A1F80300B1F90700C0F3072242EA0020F3
:10782000A1F80700B1F90500C0F3072242EA0020E1
:10783000A1F80500092228880019FDF74DFB2888CA
:10784000093028807AE62888034698F80110032931
:1078500009D1022208F103011819FDF73DFB288820
:10786000801C28806AE6401C288099F80200185580
:1078700064E62888411C298099F80210015598F87F
:10788000010005287FF45AAE2888411C298008F1A0
:1078900004014978015551E608F1030998F80100FF
:1078A000012840F0BF802888411C298099F80410E5
:1078B00001554FF0000A9CE01B2010FB0A9BDBF8EF
:1078C0000C20DBF808100FF2FC20FBF7F9FDDBF8C9
:1078D0001800010221F0FF11000A00F0FF10084318
:1078E000CBF818004FEA3040CBF8180004220BF117
:1078F000180128880019FDF7EFFA2888001D288054
:10790000DBF80800010221F0FF11000A00F0FF106F
:107910000843CBF808004FEA3040CBF808000422B7
:107920000BF1080128880019FDF7D6FA2888001DF8
:107930002880DBF80C00010221F0FF11000A00F0A2
:10794000FF100843CBF80C004FEA3040CBF80C0096
:1079500004220BF10C0128880019FDF7BDFA2888D4
:10796000001D2880DBF81000010221F0FF11000A41
:1079700000F0FF100843CBF810004FEA3040CBF87E
:10798000100004220BF1100128880019FDF7A4FA59
:107990002888001D2880DBF81C00010221F0FF115F
:1079A000000A00F0FF100843CBF81C004FEA3040FB
:1079B000CBF81C0004220BF11C0128880019FDF7EC
:1079C0008BFA2888001D2880BBF81600010A41EABE
:1079D0000020ABF8160002220BF1160128880019CE
:1079E000FDF77AFA2888801C28800AF1010A5FFADC
:1079F0008AFA99F804008245FFF65EAFB8F81B21B9
:107A0000D8F81D1128880019FDF766FA2888B8F8FB
:107A10001B1108182880B8F81B110FF2B810FBF7DB
:107A20004FFD8BE505287FF489AD2888411C29800E
:107A300099F8021001552888411C298099F80310F3
:107A400001557BE508F1030198F80100032805D1F1
:107A50002888421C2A8098F80A200255D1F8010093
:107A6000020222F0FF12000A00F0FF101043C1F8DA
:107A700001004FEA3040C1F80100072228880019B0
:107A8000FDF72AFA2888C01D288057E508F1030170
:107A90000888020A42EA0020088002222888001989
:107AA000FDF71AFA2888801C288047E508F10300B2
:107AB00098F8011001297FF441AD99F802100129CD
:107AC00018D129884A1C2A8000780855B8F8042063
:107AD000D8F8061028880019FDF7FEF92888B8F8AC
:107AE000041008182880B8F804100FF2FC00FBF707
:107AF000E7FC23E502297FF421AD29884A1C2A806E
:107B000002780A5529884A1C2A80C079085515E54B
:107B10002888411C2980B9F8021001552888411C89
:107B20002980B9F9021009120155B9F90220D8F8D3
:107B3000051028880019FDF7CFF92888B9F9021037
:107B400008182880FAE42888411C2980B9F8021016
:107B500001552888411C2980B9F9021009120155E4
:107B60002888411C298008F1040149780155B9F998
:107B70000220D8F8061028880019FDF7ADF92888EA
:107B8000B9F9021008182880D8E408F10301088820
:107B9000020A42EA00200880022228880019FDF724
:107BA0009BF92888801C2880C8E4BDF8002029465D
:107BB0002046FFF750FC09F03FFD0DF64C1DBDE8D7
:107BC000F08F00004C54204E4D4720256420256442
:107BD000000000004F4A483A204154424420736953
:107BE0007A653A20256400004F4A483A20415044C3
:107BF000522073697A653A20256400002DE9F0412E
:107C000005460E46FBF7DBFB0746DFF8C44D207840
:107C1000401C20706078F021084202D0992003F0C7
:107C200011F903F07CF96078401C607097F81880B7
:107C3000B8F1000F26D03088404480B2FFF736FA02
:107C4000002803D031462846FFF700FA3088411C4F
:107C50003180032141553088411C318000F8058076
:107C6000424607F1190130884019FDF735F930888F
:107C700040443080FF22002107F1190001F0A7FEE7
:107C8000002038766078F021084202D0992003F075
:107C9000D9F86078401E6070C0B2002801D103F0AE
:107CA00038F9BDE8F041FCF764B938B504460D4633
:107CB000FBF785FB817A002909D1417B002906D198
:107CC00029884A1C2A8006220A550121417331BDA8
:107CD00038B504460D46288800280CD02046FFF70A
:107CE0008DFF29462046FFF7E0FF29462046BDE8E4
:107CF0003440FFF7ABB931BD14B585B0049101A98B
:107D00000022134614461CC10A21ADF800100421BC
:107D10008DF804108DF805000A4605A90DF106003E
:107D2000FDF7DAF8042204A90DF10A00FDF7D4F8F2
:107D300000A901A8FFF78AF906B010BD80B5FBF7CE
:107D40003EFB4FF49671FBF726FD07208DF80200ED
:107D50000120ADF8000000A90DF10200FFF776F94F
:107D600001BD2DE9F041DFF86C4C6068002828D097
:107D7000218888421FD00DF03DFD054666682788A2
:107D8000A6EB07081FFA88F84246381900F10801E7
:107D90002846FDF7A1F83A4604F1080108EB050072
:107DA000FDF79AF83246294604F10800FDF794F8E9
:107DB00028460DF037FD626804F108010520FFF741
:107DC0009BFF002060602080BDE8F081B83A012070
:107DD000E0490020E4B00020B03C0120B43C012088
:107DE00080B5FFF7C5F8062180F884108430417013
:107DF00007218170C170017101BD2DE9FC4105466B
:107E00000F469046FBF7DBFA0026D5F809100C1D4B
:107E10002A78114601295BD00F2932D0352936D076
:107E2000802900F08180812900F08880822900F07B
:107E30008580852900F08280862900F07F8088294E
:107E40007CD08A2900F082808B2900F09B808C29CD
:107E500000F0A7808D2900F0AF80DD2900F0B98007
:107E6000DF2900F0CF80F02914D0F4291DD0F629A5
:107E700023D0F82941D0F9292FD0FF2900F0A18083
:107E800059E0807D2070FFF7ABFF012054E0012016
:107E9000207051E00422DFF8401B2046FDF71CF85B
:107EA000012002F0FBFD012046E0042200F1100158
:107EB0002046FDF711F801203EE00322214630461E
:107EC000DFF8183B9B681B6E1B6A9847012033E064
:107ED00020460DF015FD01202EE0B5F80120B5F883
:107EE0000300C010C0EB0011D5F8050000EB8111B4
:107EF0002046FCF7F1FF01201EE03046ADF80400FB
:107F000001206979012900D1032002F04EF802F026
:107F100088F8ADF8040002F09BF8022201A920467F
:107F2000FCF7DAFF012007E0D5F8050020702146B4
:107F3000304608F03EFC3046BDE8F6813046207001
:107F4000214602F07F0008F034FCF4E701202070A5
:107F5000DFF8880A45683746287F002801D1304677
:107F6000EAE7687A002803D1286E40688047074610
:107F70002046296EC9698847002FDCD0286E8068AA
:107F80008047D8E70120B5F80310C1F3C101091DEE
:107F9000884040F0020020702146012008F009FCD2
:107FA000C9E701782170C17861704179A170807949
:107FB000E07001202071BFE720460DF0B5FC0646B9
:107FC000B9E704F10802211D204602F017FE012046
:107FD000B2E76879DFF8041A51F82050687A00286F
:107FE0000CD0424639462846FFF746F9DFF8F0192B
:107FF00008200DF05BFD0120207001E0304620706C
:10800000012099E76879DFF8D41951F820502869E0
:1080100095F8221090FBF1F0401E0090042200A978
:108020002046FCF759FF012086E7000008400020A9
:10803000B8C80020F0B593B00646FBF7C0F9054676
:10804000FEF796FFD6F809100C1D31780022089231
:108050004FF0FF32099217460A46A12A00F05A81D2
:10806000A22A00F07981A42A00F08481B12A00F0CC
:10807000F982B22A00F06A84B82A00F09681C12AF7
:1080800000F0BE81CD2A00F08280CE2A00F0AC80C4
:10809000CF2A00F09E80D02A38D0D12A2ED0D22AE2
:1080A00039D0D32A40D0D42A42D0D62A4DD0D72A8C
:1080B0004BD0D82A51D0D92A4FD0DB2A00F01581D5
:1080C000DC2A00F01981F12A4FD0F22A00F0A480B6
:1080D000F32A00F0E880F52A00F0C080F72A00F0CB
:1080E000D380FA2A00F06984FB2A00F05984FD2A23
:1080F00000F0BF80FE2A00F06284ACE00021284638
:10810000FBF787FBFFF72DFE0120A5E0002002F022
:10811000C5FC0120A0E001212846FBF77AFB0120E5
:108120000DF014FD012097E00020A872012093E0DB
:108130000120A87200206873E87A002840F03D848E
:1081400001200DF003FD00F038BCD62901D101203B
:1081500000E00020E87201207EE0D92901D1012051
:1081600000E000202873012076E00021032980F23E
:1081700024840A180B5D82F88430022905D10A5D37
:1081800080F887200A5D80F88820491CEEE70025EA
:10819000DFF8507816E0DFF84408466806EB45063D
:1081A000022204EB450106F15800FCF795FEB6F9F2
:1081B0005800811007EB85004160DFF82C08FBF7C1
:1081C0007FF96D1C032DE6DB381DFCF7A6FB0120B3
:1081D00042E02078DFF8141808700146DFF8100834
:1081E000FBF76EF9012037E00025032D80F2E583CF
:1081F000DFF8E807066806EB4506022204EB4501B6
:1082000006F15800FCF768FEB6F95810DFF8E407ED
:10821000FBF756F96D1CE8E7297C090640F1CD8390
:108220002178090201F4E06162788918A0F88A10C7
:10823000A178090201F4E061E2788918A0F88C10B5
:1082400004212046DFF89427D269126E9269904784
:10825000002840F0B283002013B0F0BD0322214675
:108260000120DFF878379B681B6E1B6A9847012056
:10827000F2E71B2221460720DFF860379B681B6E60
:108280001B6A98470120E7E7DFF850078669306EE0
:10829000806880470028DED0012221460520336E09
:1082A0001B6A9847D7E7217880F88E1090F88E00E7
:1082B000002806D04FF480510020FBF7E3FA01209C
:1082C000CAE7DFF81807C169497A826A527A5118F9
:1082D0008069407A4018C0B2002840F06E834FF4A5
:1082E00080510020FBF7D0FA67E3D6F80510DFF8DD
:1082F0000807FBF7E5F8AEE703F038F9002802D0ED
:1083000003F055F9A7E703F0B6F90028A3D003F06E
:1083100085F9A0E794F900500422611C08A8FCF735
:10832000DBFDB6F80100062806DB0422611D09A862
:10833000FCF7D2FD94F90970042D04D1DFF89C06F6
:108340000069A17A81720097099B0022089928464A
:1083500008F08BFA20707EE794F900500422611C2B
:1083600008A8FCF7B9FD00231A460899284608F02A
:1083700015FB71E794F900500422611C08A8FCF772
:10838000ABFDB6F80100062806DB0422611D09A832
:10839000FCF7A2FD94F909700097099B0022089947
:1083A000284608F069FB207055E72078014603292C
:1083B00006D01A2911D0252913D0282915D018E064
:1083C00060788DF80A00012840F0F782A0788DF8D7
:1083D0000B002046FDF79EFFEFE22046FDF79AFFD7
:1083E000EBE22046FDF796FFE7E22046FDF792FF1D
:1083F000E3E294F9011040B209F0C0F9C0B22BE7F2
:10840000207801460E3908D0091F03291CD9091FFD
:1084100037D0491E00F09B800EE10E208DF8080039
:1084200060788DF80A00A1788DF80B10E2788DF84D
:108430000C200023ADF80D3052B249B240B2FBF728
:1084400039FAFDF75EFFF7E08DF80800122802D137
:1084500061788DF80A10132802D161788DF80B101D
:10846000142802D161788DF80C10152802D160789B
:108470008DF80A0062782178DFF88005FBF720F894
:10848000DAE06078A178090401EB0060E17800EBA4
:10849000012021794018CDF80A006079A1790904FA
:1084A00001EB0060E17900EB0120217A4018CDF862
:1084B0000E00607AA17A090401EB0060E17A00EB1A
:1084C0000120217B4018CDF81200607B8DF816004A
:1084D000A07B8DF81700E07B8DF81800207C8DF8CC
:1084E0001900607C8DF81A00A07CE17C11EB002063
:1084F00000B20146ADF81B10217D00EB0120617D2B
:108500004018ADF81D00A07D8DF81F00DDF80A00B1
:10851000002807D1DDF80E00002803D1DDF8120095
:10852000002809D00DF10A0184B068461622FAF736
:108530008FFE0FBCFBF766FA0DF10A0184B06846A6
:108540001622FAF785FE0FBCFDF708FF74E060788D
:108550008DF809001D283ED1A0788DF81300A07871
:1085600001280ED1E078217911EB0021ADF80A1035
:1085700089B20A469DF809100FF28440FAF7A0FF6D
:108580005AE002280BD1E078217911EB0021ADF8F7
:108590000C1089B20FF27840FAF792FF4CE00328F2
:1085A0000BD1E078217911EB0021ADF8141089B2DC
:1085B0000FF26840FAF784FF3EE004283CD1E078EF
:1085C000217911EB0021ADF8161089B20FF2584055
:1085D000FAF776FF30E0262809D1A0788DF80E0052
:1085E000A078012828D1E0788DF80D0024E01C281F
:1085F00022D1A0788DF80D00A078012807D1E1786C
:108600008DF80A100FF22C40FAF75AFF14E00228F6
:1086100007D1E1788DF80B100FF22C40FAF750FFDC
:108620000AE0032808D0052806D1E1788DF80C105F
:108630000FF22840FAF744FF06208DF82800207832
:108640000B900DF1310002A91822FAF701FE0B2060
:108650008DF830000020ADF84A000AA8FDF7A4FE0E
:10866000C0B2F9E594F9000008F021FB012840F0C0
:108670003F8120780146032924D0062961D00929A9
:1086800027D00C2941D00D294DD019297DD01A2988
:1086900064D01B2900F08E801C2900F0C9801D29A0
:1086A00000F0A1801E2900F0D080252900F0E9808B
:1086B000262900F0D880272900F0EA80282900F038
:1086C0000E8110E10322611C0DF10A00FCF704FC8D
:1086D0000EE10722611C0DF10A00FCF7FDFBBDF85D
:1086E0000A00010A41EA0020ADF80A00BDF80C00BA
:1086F000010A41EA0020ADF80C00BDF80E00010AA5
:1087000041EA0020ADF80E00F2E00322611C0DF1F9
:108710000A00FCF7E1FBBDF80B00010A41EA00206A
:10872000ADF80B00E4E00322611C0DF10A00FCF738
:10873000D3FBBDF80B00010A41EA0020ADF80B00A5
:10874000D6E00122611C0DF10A00FCF7C5FB9DF883
:108750000A100FF21C30FAF7B3FEC9E00822611CC0
:108760000DF10A00FCF7B8FBBDF80D00010A41EA63
:108770000020ADF80D0000239DF911209DF9101087
:108780009DF90F00FBF796F8B2E00622611C0DF18F
:108790000A00FCF7A1FBBDF80A00010A41EA00202B
:1087A000ADF80A00BDF80E00010A41EA0020ADF85C
:1087B0000E009DE00422611C0DF10A00FCF78CFB09
:1087C000BDF80A00010A41EA0020ADF80A00BDF830
:1087D0000C00010A41EA0020ADF80C000FF29C20C9
:1087E000FAF76EFE84E00922611C0DF10A00FCF725
:1087F00073FBBDF80A00010A41EA0020ADF80A0047
:10880000BDF80C00010A41EA0020ADF80C00BDF8EB
:108810000E00010A41EA0020ADF80E0000239DF988
:1088200012209DF911109DF91000FBF743F85FE04D
:1088300060788DF80A00A0788DF80B00A278617836
:108840000FF24420FAF73CFE52E00322611C0DF1C6
:108850000A00FCF741FBBDF80B00010A41EA0020C9
:10886000ADF80B0044E00522611C0DF10A00FCF795
:1088700033FBBDF80B00010A41EA0020ADF80B0004
:1088800036E00922611C0DF10A00FCF725FB2FE000
:108890000A22611C0DF10A00FCF71EFBBDF90A005B
:1088A000C0F3072141EA0020ADF80A00BDF90C0031
:1088B000C0F3072141EA0020ADF80C00BDF90E001D
:1088C000C0F3072141EA0020ADF80E00BDF9100009
:1088D000C0F3072141EA0020ADF8100008E06078FD
:1088E0008DF80A0004E08DF8080060788DF8090022
:1088F00020780146052906D13A4801210170687A9D
:1089000000280DD159E018290AD18DF808006078A7
:108910008DF80900A0788DF80A00E0788DF80B003A
:1089200000208DF8280020780B900DF1310002A96D
:108930001822FAF78DFC0B208DF830000020ADF8DE
:108940004A000AA8FDF730FDC0B285E4207805286A
:1089500004D124480021017001207DE41A280CD1A3
:108960000522611C0DF10A00FCF7B6FABDF80D00F6
:10897000010A41EA0020ADF80D0001208DF8280021
:1089800020780B900DF1310002A91822FAF760FC53
:108990000B208DF830000AA8FDF706FDC0B25BE49D
:1089A0002078002802D0052805D006E00FF2E80064
:1089B00002F0E6FD01E0FFF7D4F901204CE404F1F8
:1089C0000802211D204602F0D1F8012044E40000F5
:1089D000A480002038F800205487002008400020A0
:1089E000589D0020B83A012060310308E83C01207E
:1089F00070310308803103088C3103089831030873
:108A00004C542053502025642C2025640000000085
:108A10004C54205750202564000000004C54205333
:108A200052202564000000004C5420534152202560
:108A3000640000005B415044525D204E545F535728
:108A4000554E2025640000005B415044525D204E8D
:108A5000545F545755532025640000005B41504437
:108A6000525D204E545F424154434820256400002B
:108A700050443A2053432025640000004C542053B6
:108A8000532041444400000041504452204144449A
:108A9000202564202564000041505F524551554512
:108AA00053540000FEB504460D4601A800210A46B5
:108AB00006C00221104603F061FD06460820009022
:108AC00001AB0022B0211046FAF7CAFD002801D1FF
:108AD0000020FEBD01A80179427942EA0121827994
:108AE000C37943EA02229DF80430477847EA03231A
:108AF000877890F803C04CEA0727A782E182228397
:108B000063839DF804102970417869708178A97099
:108B1000C178E97001792971417969718179A97107
:108B2000C079E8713046FEBD7CB50020ADF8040088
:108B30008DF80600FAF743FC05460221002003F0F9
:108B40001DFD0446012000900DF106031C22B021FA
:108B50000020FAF785FD002801D1002076BD1D20F8
:108B60008DF8040001AE00207070022301AAB0212C
:108B7000FAF71CFD002801D1002076BD1C208DF8DD
:108B8000040007207070022301AAB0210020FAF728
:108B90000DFD002801D1002076BD0A212846FAF7F4
:108BA000FAFD1D208DF804007070022301AAB02187
:108BB0000020FAF7FBFC002801D1002076BD2046FA
:108BC00076BD1CB50020ADF806008DF8040002212A
:108BD00003F0D4FC04460120009001AB1C22B0211C
:108BE0000020FAF73DFD002801D1002016BD1C2011
:108BF0008DF806009DF8040000F0FE008DF80700D7
:108C000002230DF10602B0210020FAF7CFFC002864
:108C100001D1002016BD204616BD80B500220146B8
:108C20000448FFF73FFF002801D1002002BD0120CA
:108C300002BD0000BC1401202DE9F04FA1B0824616
:108C400002AE002017461D46029170620DF14408E5
:108C50000AE017F8011B0298D0470290002800F0A4
:108C6000DA82706A401C7062387808B9706AD4E29F
:108C70002528EED10020F06030617061B061F061B4
:108C8000306201E040F0010017F8011F2029F9D0FF
:108C900023290DD02B2904D02D2906D030290AD024
:108CA0000CE040F0020080B2EEE740F00400FAE78A
:108CB00040F00800F7E740F01000F4E72A290DD152
:108CC00029680A1D2A600968F162002904D5494211
:108CD00040F00400F16280B27F1C13E00021F162D9
:108CE0000BE0F16A6FF00043994205D001EB81037C
:108CF00002EB43013039F1627F1C3A78A2F1300176
:108D00000A29EED339782E2903D04FF0FF31B16212
:108D10001EE017F8011F2A2906D129680A1D2A60BA
:108D20007F1C0968B16213E00021B1620BE0B16AF7
:108D30006FF00043994205D001EB810302EB430140
:108D40003039B1627F1C3A78A2F130010A29EED3A2
:108D500030860FF6604039780CF0AEFF08B117F896
:108D6000010B8DF83A009DF83A00682802BF397867
:108D70006829622005D06C2804BF38786C2803D19C
:108D800071208DF83A007F1C11A8B0603978B1F1DC
:108D9000250029D01C3800F0C080001F022840F2B6
:108DA000BC80133800F0E480093800F0B680801EE3
:108DB00000F07781401E00F02081401E022840F222
:108DC000AC80001F00F01981401F7BD0401E00F0D6
:108DD000CF80401E22D0C01E0BD0801E00F0C88065
:108DE000C01E00F0C58064E1F068411CF1602521DF
:108DF00069E12868011D29600068B26A7060002A74
:108E000002D502F003F807E000210CF061FF002812
:108E10001ABF7168401AB06A306156E12868011DB6
:108E2000296000210068CDE900014FF03C0E11A837
:108E30007060DDE9000111B908B9B26ACAB1020671
:108E4000120FA0EB02123032AEF10103D2B29E46F5
:108E50003A2AA8BF2732000903F8082040EA017027
:108E6000090908BF002804D0726811AB73449A4204
:108E7000E5D311A971447160CEF13C00B16A306153
:108E8000884207DA081AB0614FF6EF71308E084059
:108E900030861AE1002940F1188196F8301001F06F
:108EA0001401102940F01181F16AF268891AB2693F
:108EB000891AA1EB000EBEF1010FC0F20681C6F8BF
:108EC00018E002E19DF83A00622818D0682806D020
:108ED0006A280BD06C2819D0712807D016E02868B2
:108EE000011D29600068716A0180EEE02A68101D8A
:108EF00028601268706AC117C2E90001E5E02868BD
:108F0000011D29600068716A0170DEE02868011D9A
:108F100029600068716A0160D7E02868C01D20F0F0
:108F20000700286000F108022A60D0E90023CDE99B
:108F30000023002B04D5F068421CF2602D220DE0C6
:108F4000308E820704D5F068421CF2602B2205E0C7
:108F5000C00705D5F068421CF260202200F8082006
:108F6000F06811AA8018706000A800F0E3F9ACE086
:108F70009DF83A006C2808BF2A6811D0712808BFF4
:108F80002A6802D02A686A280AD1D21D22F0070274
:108F90002A60144604F108022A60D4E9002303E0A1
:108FA000131D2B6000231268CDE90023682808BF39
:108FB00092B207D0622808BFD2B203D0742818BF7B
:108FC0007A2802D10023CDE9002396F8300000076B
:108FD0005FD5DDE90023002B08BF002A59D041F0FE
:108FE0002000782855D1F068302200F80820401C75
:108FF000421CF26000F808104BE09DF83A0062282D
:109000000CD0682810D06A281AD06C2823D0712878
:1090100016D074281FD07A280CD01CE02868021DB6
:109020002A6090F900201AE02868021D2A60B0F931
:10903000002014E02868021D2A60002302680FE067
:109040002868C01D20F00700286000F108022A608F
:10905000D0E9002304E02868021D2A600268D317C3
:10906000CDE90023002B04DAF068421CF2602D22C7
:109070000DE0308E820704D5F068421CF2602B228E
:1090800005E0C00705D5F068421CF260202200F818
:109090000820F06811AA8018706000A800F0C0F8DD
:1090A00013E0F068411CF16029680A1D2A60096814
:1090B00009E0F068421CF260252200F8082021B186
:1090C000F068421CF26000F80810F06AF168401A7B
:1090D000B169401A3169401AF169401A7169401A40
:1090E000316AA0EB010996F830007F1C400710D4CC
:1090F00020208DF84000002409E0012310AA00A9D7
:10910000504600F040FC002840F08580641C4C452F
:10911000F3DBF4680DF1440B0AE01BF8011B029825
:10912000D0470290002876D0706A401C7062641E9E
:10913000002CF2D130208DF840004FF0000BB469C4
:1091400009E0012310AA00A9504600F01CFC0028E9
:1091500061D10BF1010BA345F3DB3469D6F804B000
:109160000AE01BF8011B0298D0470290002852D059
:10917000706A401C7062641E002CF2D130208DF8A1
:1091800040004FF0000BF46909E0012310AA00A988
:10919000504600F0F8FB00283DD10BF1010BA34530
:1091A000F3DB30697168746900EB010B09E01BF8AF
:1091B000011B0298D047029068B3706A401C70622D
:1091C000641E002CF3D130208DF840004FF0000BCE
:1091D000346A08E0012310AA00A9504600F0D3FB2E
:1091E000C8B90BF1010BA345F4DB96F8300040073A
:1091F0007FF53AAD20208DF84000002400E0641C8B
:109200004C45BFF631AD012310AA00A9504600F02D
:10921000BAFB0028F3D04FF0FF3021B0BDE8F08F4B
:109220002DE9FA47064682B035690A466F2A08BF1B
:10923000082705D041F02000782814BF0A271027FE
:10924000D6E900013C2480468946642A18BF692A71
:1092500005D1002903DAD8F1000869EB4909B9F111
:10926000000F08BFB8F1000F0CD1306B50B9082FB8
:109270003BD196F83800000737D530203B2485F8DD
:109280003B0032E0CDE90089FB17404649463A46AB
:109290000CF04AFDB846A8FB0023DDE90089A8EBE5
:1092A00002023032A4F1010AD2B254463A2A03DB58
:1092B0009DF80830513B9A180AF8052080465FEA6D
:1092C000010908BFB8F1000F03D0F06861198842A6
:1092D000D8D3082F09D196F83800000705D5605D6E
:1092E000302802D0641E30206055C4F13C00B061CB
:1092F0006119F160316B884207DA081A30624FF663
:10930000EF71308F0840308710E000290ED596F8B5
:10931000381001F01401102908D1716B7269891A93
:10932000326A891A081A0128A8BF306204B0BDE861
:10933000F08700002DE9F24F04468EB0D4E9000119
:10934000CDE9020104AE9DF8380040F02000009005
:1093500061280AD0206B002848BF062004D404BF2F
:109360000098672801D1012020636168C1F30A5089
:1093700040F2FF7290421CD1080304BF206800280D
:1093800009D10320A0619DF8380061381A2836D32E
:109390000FF2346108E00320A0619DF838006138C5
:1093A0001A2829D30FF21861E0680322F9F750FF59
:1093B000B5E1012816DA20460CF02DFD012811DB5D
:1093C000002700200099612920D1E168302201F8AE
:1093D000012B4A1CE2609DF83820612A0CBF7822DC
:1093E00058220FE0626840F2FE3161F31E52471AC4
:1093F00062604FF0FF30E5E70FF2C051D4E70FF2A3
:10940000C451D1E70A706169891C616110B90025F6
:1094100000277BE10098612840F09680206B0028AF
:109420004CBF2125451CDDE902012DB26E1CD4E99B
:1094300000890022002303F05FFD3ABF89F000405D
:10944000CDE90280CDE902893F1F8DF810200DF192
:10945000110801E000F20708012E32DBDDE902010C
:10946000002200230CF0F8FC2BD21C2102A80CF0E7
:109470000BFDDDE90201FBF709F8F61F8146012E1D
:1094800009DB02F06DFE02460B46DDE902010CF03D
:1094900085FDCDE9020108F20700072105E009F08A
:1094A0000F0200F8012D4FEA2919B9F1010F01DB74
:1094B000491EF4D5491E5CBF002200F8012DF9D5E4
:1094C000C8E70DF11100A8EB00010DF11106A9424A
:1094D000B8BF0D462DB228002FD4884206DA04A961
:1094E000411849780829A8BF0F2100DA002104AAF1
:1094F000821800E06D1E12F80139401E8B42F9D02F
:109500000F2904D104A941184A78521C4A70002836
:1095100002D504AE6D1C3F1D2DB2681E0DD48119FD
:109520000A783032D2B23A2A03DB9DF838303A3B1F
:109530009A1801F80129401EF2D5206B002840F14D
:10954000E580681E2063E1E0DDE9020100220023DE
:1095500003F0D2FC3CBF81F00041CDE902013FB2F3
:1095600047F2975078434849DFF820B190FBF1F774
:109570003FB2C7F107069246012E19DBDDE90289E9
:10958000F00707D552465B4640464946FBF7D8FCF4
:109590008046894676105046594652465B46FBF750
:1095A000CFFC82468B46002EEAD1CDE9028921E02C
:1095B00076429046DFF8D89012E0F00707D5524681
:1095C0005B4640464946FBF7BBFC80468946761021
:1095D0005046594652465B46FBF7B2FC82468B46E4
:1095E000002EEAD1DDE9020142464B46FAF704FEBD
:1095F000CDE90201009866280CBF07F10A00062099
:10960000216B4518142DA8BF132530208DF81000AC
:109610000DF11106DFF87C90012D3DDBDDE9020143
:10962000FAF74AFF06F1080104220A23B0FBF3F31C
:1096300003EB8306A0EB4600303001F8010D0A2051
:10964000B3FBF0F000EB8006A3EB4603303301F8E8
:10965000013D521EE9D1083D01F10806012DDBDB79
:10966000DDE90201FAF728FF02F084FD02460B460D
:10967000DDE902010CF092FC00224B46FBF760FC96
:10968000CDE90201CAE700BFA08601000000244026
:109690000000F03F84D797410DF11100301A0DF111
:1096A000110602E0401E7F1E761C31783029F9D069
:1096B0000099662902D13FB2791C03E065290CBFED
:1096C00001210021226B8D182DB2A842B8BF05469A
:1096D0002DB229001AD4814204DA885D3528A8BF4A
:1096E000392000DA30208A19521E00E06D1E12F86F
:1096F0000139491E8342F9D0392802D1885D401CC6
:109700008855002902D5761E6D1C7F1C3FB29DF83E
:10971000381000972BB23246204600F003F80FB005
:10972000BDE8F08F2DE9F043054685B01E46D5F81B
:10973000308089461746012E02DA01260FF28C2767
:1097400049F02000BDF93040662808BF641C17D0DE
:10975000672840F0818014F1040FC0F283804445F3
:1097600080F2808095F83800641C000702D44645DA
:10977000B8BFB04624B2B8EB040848BF4FF00008A9
:10978000E868A96924B2012C25DA30234A1C0B545D
:10979000B8F1010F03DA95F83810090702D52E2128
:1097A0001154521CAA6118EB040FB8BFC8F1000491
:1097B00024B26142A0446962B045B8BF464636B2A1
:1097C000EE613246AB6939461818F9F741FDA8EB4E
:1097D0000600A862C0E00818A64218DA32463946E8
:1097E000F9F736FDA9697118A961A01B6862B8F183
:1097F000010F03DA95F83800000705D5E8682E2236
:109800000A54E869401CE861C5F82880A4E02246B3
:109810003946F9F71DFDA8692018361BB8F1010F6C
:1098200003DA95F83810090703D5E9682E22425467
:10983000401C36B2A861B045B8BF4646EB6836B2A8
:109840003246E119C018F9F703FDA8693018A8617C
:10985000A8EB060068627FE0B9F1610F16D14FF006
:10986000700918E0464504DA95F83810090758BF22
:10987000B046B8F1010848BF4FF00008B9F1670FD2
:1098800014BF4FF045094FF0650904E0B9F1410FED
:1098900008BF4FF05009A969E86817F8013B0B545D
:1098A0004A1CB8F1010F05DA95F83810090758BFBE
:1098B000AA6117D52E211154531CAB61B8F1010FC9
:1098C00010DB761E36B2B045B8BF464636B23246D9
:1098D00039461818F9F7BCFCA8693018A861A8EB3C
:1098E00006006862A869E9684718200007F8019B2C
:1098F00003D42B2007F8010B03E02D2107F8011BEF
:10990000644200260DF1080808E00A2200A80CF0C5
:1099100005FC019808F8010B761C009C21B2012976
:10992000F3DA022E06DA49F02000652804BF302061
:1099300007F8010B4EB9302007F8010B07E0761E3F
:1099400002A8305C303007F8010B012EF7DAA86965
:10995000E9684018381AE86195F8380000F01400FA
:1099600010280DD16869A9690818696A0818E96999
:109970000818A96A0818696B8842BCBF081A2862CF
:1099800005B0BDE8F083F8B504460D4616461F46FF
:10999000002004E0E86A401CE8627F1E002047B116
:1099A00016F8011BA868A047A8600028F2D14FF064
:1099B000FF30F2BD686A6C747A4C00006E616E0014
:1099C0004E414E00696E6600494E4600300010B5AB
:1099D000040010000A0001002000F9F781FC2000BB
:1099E00010BD000030B583B0012103200CF003FC52
:1099F000DFF8584C20460CF097FCDFF8545C284602
:109A00000CF092FC01208DF8040000208DF8050078
:109A100001208DF8060000208DF80700012128465E
:109A20000183C0460120009000A928460CF0D8FC14
:109A3000022128460183C0460220009000A9284642
:109A40000CF0CEFC01208DF8040000208DF80500FC
:109A5000ADF806004FF48070009000A928460CF085
:109A6000BFFC4FF4807128464183C04601208DF829
:109A7000040000208DF8050001208DF8060000206C
:109A80008DF807004FF48050009000A920460CF09C
:109A9000A7FC4FF4805120464183C0460422062192
:109AA00028460CF0EBFC0422072128460CF0E6FCCB
:109AB00002208DF8040001208DF805008DF80600C5
:109AC00000208DF807004020009000A928460CF0E7
:109AD00087FC8020009000A928460CF081FC04221D
:109AE0000A2128460CF0CAFC0922032128460CF062
:109AF000C5FC02208DF8040001208DF805008DF8CA
:109B0000060000208DF807004FF48060009000A947
:109B100028460CF065FC0820009000A928460CF0AF
:109B20005FFC286820F0300040F0100028602068BA
:109B300020F0300040F01000206037BD1FB5DFF886
:109B4000144BA04230D101214FF400100CF05EFB09
:109B5000012102200CF04FFB01214FF400100CF00A
:109B600076FB00214FF400100CF071FB0020ADF8E3
:109B700004004BF6FF70ADF806004FF48060ADF8BE
:109B80000A004FF48040ADF80C000A20ADF8080040
:109B9000DFF8A40C009000A920460CF0B2FC0121D3
:109BA00020460CF011FD1FBDDFF8904CA0422FD1D4
:109BB00001214FF480000CF029FB012102200CF060
:109BC0001AFB01214FF480000CF041FB00214FF4FF
:109BD00080000CF03CFB0020ADF804004BF6FF7059
:109BE000ADF806004FF48060ADF80A004FF48040F5
:109BF000ADF80C000A20ADF80800DFF83C0C00902E
:109C000000A920460CF07DFC012120460CF0DCFC74
:109C10001FBD2DE9F04192B001214FF480500CF0AE
:109C200000FB012108460CF0E6FA01214FF4800008
:109C30000CF0E1FADFF8144A0522114620460CF038
:109C40001DFC0522072120460CF018FC05220621E8
:109C500020460CF013FC0522042120460CF00EFCDB
:109C600002208DF8040001208DF805000020ADF8D9
:109C700006002020009000A920460CF0B1FB8020B7
:109C8000009000A920460CF0ABFB4020009000A9FA
:109C900020460CF0A5FB1020009000A920460CF0F7
:109CA0009FFBDFF89C4B20460CF0F0FCDFF8945B48
:109CB0000020288068600120288100206881E860F9
:109CC0000720288200206880DFF87C6B30460CF08B
:109CD0004DFDDFF8787B38460CF048FD4FF480608E
:109CE000069000210D9103210E9100210F910A9100
:109CF0000890DFF8140C0390084610900990079024
:109D00004FF400300C9008460B904FF0C068CDF82F
:109D10000880402005900846049002A930460CF0C7
:109D2000A9FD00200B90CDF80880059005F11400E6
:109D3000049002A938460CF09DFD00206880294659
:109D400020460CF0D2FC0122022120460CF0FCFC43
:109D50000122114620460CF0F7FC012120460CF0B0
:109D6000E7FC002130460CF0ACFD002138460CF039
:109D7000A8FD12B0BDE8F08130B589B001214FF0E7
:109D800080500CF043FA01200CF004FE01214FF446
:109D900080200CF030FA0F200CF0ACFF04461020AD
:109DA0000CF0A8FF054601200CF022FA00200CF070
:109DB0001FFA21460F200CF090FF294610200CF0CE
:109DC0008CFF00214FF480200CF015FA01200CF0DC
:109DD000ADF941200CF05CFA0028FAD04FF4807005
:109DE0000CF0F0F901200CF000FA0CF026FE3F20F8
:109DF000069040F2FF1007900020059005A80CF097
:109E0000D3FD0020029002A90CF038FE00208DF84E
:109E1000070001208DF804008DF805008DF806007C
:109E200001A900200CF0A3FE4FF480000DF042F8D1
:109E30004FF48000039000208DF8100008208DF86A
:109E4000110001208DF8120003A80CF0F1FF03208F
:109E50008DF800000D208DF8010000208DF8020023
:109E600001208DF8030000A80DF031F803200CF05C
:109E7000F2FE4FF480400CF0A8FF4FF480000DF08C
:109E800019F801214FF480400CF065FF012009B062
:109E900030BD10B586B0012108460CF0ACF90121A7
:109EA0004FF480400CF0BDF900208DF810008DF8C3
:109EB000130001200390DFF8944703A920460CF01B
:109EC0008FFA0420039003A920460CF089FA0021A0
:109ED00008460DF035F8022100200DF031F8002081
:109EE0008DF8080001208DF80A0001900C208DF8F3
:109EF000090001A80CF09CFF042001900C208DF8B3
:109F0000090001A80CF094FF04200CF0D3FF2820D6
:109F10008DF800000F208DF8010000208DF8020060
:109F200001208DF8030000A80CF0D1FF06B010BD91
:109F300010B586B0012108460CF05DF901214FF4FF
:109F400080400CF06EF900208DF810008DF81300A1
:109F50004FF40064039403A9DFF8F0060CF040FA14
:109F60000B2100200CF0ECFF00208DF808000120F0
:109F70008DF80A0001940C208DF8090001A80CF05E
:109F800057FF20460CF096FF28208DF800000F2088
:109F90008DF8010000208DF8020001208DF80300EB
:109FA00000A80CF094FF06B010BD30B58DB004468B
:109FB00001214FF480700CF034F900A80CF04AFA3B
:109FC0000A20009003208DF8040000208DF807007F
:109FD00000A9DFF878060CF003FA0CF0C5FF02A820
:109FE0000DF007F84FF48030039002A80CF0F3FF57
:109FF00006A80CF0E6FFDFF8645B06A928460CF023
:10A00000C0FF07230122214628460DF003F8012155
:10A0100028460DF042F8012128460CF0F0FF0DB063
:10A0200030BD38B5DFF8344B20460DF031F84FF431
:10A030007A75022120460DF047F8002803D1284602
:10A04000451E0128F5DA2046BDE832400DF030B853
:10A0500080B50021DFF8040B0CF0D1FF00214FF494
:10A060008070BDE804400CF0DCB8000038B5040096
:10A0700039D001200CF08EFC00200CF006FE4FF4CD
:10A08000005504200CF082FE012804D12846451E0C
:10A0900080B20028F5D100EE104AB8EE400ADFED9C
:10A0A000780A80EE800AF0EE000A20EE200ADFED4A
:10A0B000750A80EE800ABDEEC00A10EE100A401E3E
:10A0C00080B20CF0D8FD4FF480400CF07EFE4FF4CF
:10A0D00080000CF0EFFE01200CF0D7FDDFF8740BD0
:10A0E0000121416031BD01200CF054FC0020BDE88D
:10A0F00032400CF0CABD000030B4014601200023FC
:10A10000DFF85C2A1C469460946814F00C0FFBD1B5
:10A110000C460B2C55D8DFE804F020545454061993
:10A120002031383F464D946844F080049460DFF855
:10A13000344A4FF4C0652560146824F080741460BC
:10A14000DFF8A44ADFF8205A25603BE00346DFF839
:10A15000984ADFF8985A256034E094689460DFF8F4
:10A16000044A4FF4C0652560146824F080741460BC
:10A17000DFF8744ADFF8785A256023E00223DFF81D
:10A18000684ADFF8705A25601CE00323DFF8584A5C
:10A19000DFF8645A256015E00423DFF84C4ADFF845
:10A1A000B85A25600EE00523DFF83C4ADFF8AC5AC8
:10A1B000256007E00623DFF8304ADFF8A45A25605F
:10A1C00000E01846002B4AD003EBC3030FF2B8049B
:10A1D0001B1994689460146824F0807414601468E7
:10A1E00024F0806414609C781D8844EA8514DD782E
:10A1F0006D086D1E44EA05441D7944EA0564546007
:10A20000DC881D7A2D0745EA8414DFF8B05A2C60EB
:10A21000146844F0807414601468A401FCD55B7960
:10A2200043F4C063DFF83C4923609368936093680C
:10A230009360052904D1916841F09001916005E097
:10A240000A2903D1916841F480519160916841F0ED
:10A2500002019160916801F00C010829FAD1DFF840
:10A2600088190968DFF8582A914207D2DFF8E41A02
:10A270000A6822F4404242F480420A6030BC7047CF
:10A2800000007A4400000047200110040F0302017F
:10A2900003F00010060F01020103C00010080F01B7
:10A2A000020103C00010060F01020103F0001006B6
:10A2B0000F01020103C80010040F02020103A800ED
:10A2C00010020F030201030016E7002800E0401E01
:10A2D000FDD170477CB50726DE4988426BD101204D
:10A2E0008DF804008DF805008DF8060000208DF82B
:10A2F000070040200090DFF87C5A00A928460CF0A7
:10A300006FF88020009000A928460CF069F84021E1
:10A3100028464183C0460F20FFF7D7FF402128463B
:10A320000183C0460F20FFF7D0FF3046461E80B2A3
:10A330000028ECD18020009000A928460CF050F8AD
:10A34000402128464183C0460520FFF7BEFF8021FB
:10A3500028460183C0460520FFF7B7FF4021284665
:10A360000183C0460A20FFF7B0FF40212846418301
:10A37000C0460520FFF7A9FF802128464183C0463B
:10A380000520FFF7A2FF02208DF8040001208DF8C0
:10A3900005008DF8060000208DF807004020009091
:10A3A00000A928460CF01CF88020009000A928463F
:10A3B0000CF016F873BDDFF8841488426AD10120CE
:10A3C0008DF804008DF805008DF8060000208DF84A
:10A3D00007004FF480640094DFF8985900A92846DC
:10A3E0000BF0FEFF0820009000A928460BF0F8FFB4
:10A3F000214628464183C0460A20FFF766FF2146D2
:10A4000028460183C0460A20FFF75FFF3046461EFC
:10A4100080B20028ECD10820009000A928460BF05B
:10A42000DFFF214628464183C0460520FFF74DFF48
:10A43000082128460183C0460520FFF746FF214634
:10A4400028460183C0460A20FFF73FFF21462846E1
:10A450004183C0460520FFF738FF08212846418385
:10A46000C0460520FFF731FF02208DF804000120CF
:10A470008DF805008DF8060000208DF80700009487
:10A4800000A928460BF0ACFF0820009000A9284640
:10A490000BF0A6FF73BD10B5DFF8DC480121206882
:10A4A0000CF0CBF820680BF0FDFF2068FFF746FBAF
:10A4B00005E02068FFF70EFF2068FFF73FFB4FF431
:10A4C000003120680CF0C4F80028F2D110BD30B47F
:10A4D0000022838A008BDFF8A048656843EA0040C9
:10A4E0000840000255EA102060600840884200D110
:10A4F0000122104630BC70472DE9F84F04460D4646
:10A5000016464FF420491F78DFF86C884FF400316D
:10A51000D8F800000CF09CF8002808D04846A0F1BC
:10A5200001090028F2D1FFF7B6FF00208CE0D8F82F
:10A53000000001884FF6FF52114001800121D8F838
:10A5400000000CF04DF84FF4805AD1460020C8F8B6
:10A550000400D8F800B0DFF824185846FFF7B7FF1A
:10A56000002805D14846A0F101090028F1D163E097
:10A57000D1460022214658460CF04AF80020C8F87F
:10A580000400D8F80040DFF8F8172046FFF79FFFD7
:10A59000002805D14846A0F101090028F1D14BE07F
:10A5A0003146C9B220460182C046D1460020C8F8D3
:10A5B0000400D8F80040DFF8CC172046FFF787FFEB
:10A5C000002805D14846A0F101090028F1D133E067
:10A5D000012F15D1297820460182C046D14600209E
:10A5E000C8F80400DFF8A017D8F80000FFF76FFFE5
:10A5F000002823D14846A0F101090028F2D11BE030
:10A600003846471EC0B2002818D015F8011BD8F8EC
:10A6100000000182C046D1460020C8F80400DFF8DF
:10A620006817D8F80000FFF752FF0028E8D1484625
:10A63000A0F101090028F2D1002005E00121D8F89D
:10A6400000000BF0D9FF0120BDE8F28F00000240AE
:10A6500000040240005400402DE9F54F81B00D4642
:10A660001E464FF420483778DFF80C474FF400318E
:10A6700020680BF0EDFF002808D04046A0F101084B
:10A680000028F3D1FFF707FF0020D3E020680188FE
:10A690004FF6FF5211400180012120680BF0A0FF0E
:10A6A0004FF48059C84600206060DFF8D0A6D4F887
:10A6B00000B051465846FFF70AFF002805D1404632
:10A6C000A0F101080028F2D191E000229DF80410C9
:10A6D00058460BF09DFFC84600206060D4F800B0DB
:10A6E000DFF89C165846FFF7F2FE002805D14046D9
:10A6F000A0F101080028F1D179E0BDF80810C9B235
:10A7000058460182C046C846DFF8801620680BF024
:10A710009FFF002805D14046A0F101080028F3D191
:10A7200065E0012120680BF05BFFC84600206060F7
:10A73000D4F800B051465846FFF7C9FE002805D1AD
:10A740004046A0F101080028F2D150E001229DF816
:10A75000041058460BF05CFF022FC84639DADFF8C8
:10A76000301620680BF074FF002805D14046A0F198
:10A7700001080028F3D13AE0002120680BF051FFD6
:10A780002068018B01210BF037FFC846DFF8041663
:10A7900020680BF05DFF002805D14046A0F10108BC
:10A7A0000028F3D123E02068008AC0B228703078F6
:10A7B000401E3070C84620680188890505D540468E
:10A7C000A0F101080028F6D111E001210BF029FFCA
:10A7D0002BE000206060DFF8C0152068FFF777FEEF
:10A7E000002806D14046A0F101080028F3D100203E
:10A7F00020E0012616E0012F0CD1012E0AD10026FF
:10A80000314620680BF00DFF2068818A018B012101
:10A810000BF0F2FE2068818A490603D5008A05F80C
:10A82000010B7F1EFFB2002FE5D1012120680BF044
:10A83000F8FE0120BDE8FE8F801A06000058004097
:10A840000030014044380120886402401064024016
:10A85000DFF848050168082933D1DFF804130A68D6
:10A8600042F080720A604268B2F1806F03D10A68D8
:10A8700042F080620A600A689201FCD58A6842F060
:10A8800002028A608A6802F00C02082AFAD1426841
:10A89000B2F1806F02D10A681201FCD5DFF84813CB
:10A8A0000968DFF81C24914207D2DFF8A8140A686F
:10A8B00022F4404242F480420A600021016041607B
:10A8C00070474168B1F1806F09D1A5490A6842F02B
:10A8D00080620A600A681201FCD50021416070475D
:10A8E000DFF8BC04016841F080510160DFF86404C6
:10A8F00001688908890041F001010160DFF8A404C2
:10A900000FF20901016070470C30014038B5DFF8E3
:10A910009844208840F004002080F8F750FD807AA9
:10A92000012803D101200CF038F802E000200CF0DF
:10A9300034F8DFF878548021DFF874040BF00EFF50
:10A94000002818D172B68648DFF85014826802F0E9
:10A950000C020A60006800F080604860286840F0DF
:10A960000400286030BF62B6286820F00400286028
:10A97000FFF76EFF0CE0608840F0040060802868FC
:10A9800020F00400286030BF286840F004002860F0
:10A99000608840F00400608031BDDFF80804006882
:10A9A0000047DFF81014012806D010D3032809D07F
:10A9B00005D3042809D00AE0DFF8B81307E0DFF870
:10A9C000F81304E0DFF8F41301E0DFF8F4130846AD
:10A9D000704710B50C46FFF7E4FF214689B2BDE889
:10A9E00010400BF047BD10B50C46FFF7DAFF2146CB
:10A9F00089B2BDE810400BF03FBD0000E0B5002378
:10AA00008DF8083001238DF80A30002A03D10C227A
:10AA10008DF8092002E008228DF8092004283CD88E
:10AA2000DFE800F00315212A2A004FF400600190AE
:10AA300028208DF800000F208DF8010000208DF8EF
:10AA40000200012921D118468DF803001FE01846A5
:10AA5000019010208DF8090006208DF800000E20CE
:10AA60008DF80100EAE70220019007208DF8000030
:10AA70000F208DF80100E1E70420019008208DF8F7
:10AA800000000F208DF80100D8E78DF8030001A821
:10AA90000CF0CEF900A80CF01AFA07BD10B5044668
:10AAA00001214FF480200BF0A6FB214610200CF072
:10AAB00014F900214FF48020BDE810400BF09BBB3F
:10AAC00010B501214FF480200BF095FB10200CF005
:10AAD00011F9044600214FF480200BF08CFB7B2001
:10AAE0000BF0D6FB002802D09BA0F8F7E9FC7A20F7
:10AAF0000BF0CEFB002802D098A0F8F7E1FC7920FB
:10AB00000BF0C6FB002802D095A0F8F7D9FC7C20FA
:10AB10000BF0BEFB002802D092A0F8F7D1FC7D20FC
:10AB20000BF0B6FB002802D08FA0F8F7C9FC7E20FE
:10AB30000BF0AEFB002802D08CA0F8F7C1FC7F2000
:10AB40000BF0A6FB002802D089A0F8F7B9FC0BF0A7
:10AB5000B1FB2046C0B210BD000000000020014043
:10AB600000380240003C024000127A003EB50C461C
:10AB700015460422014602A8FAF7AEF9042221463E
:10AB800001A8FAF7A9F90422294600A8FAF7A4F9BE
:10AB900002A900200BF072FF01A900200BF0E7FFD3
:10ABA0000BF0E0FF0446874A002300981946101A6C
:10ABB00063EB0101490241EAD05140020BF0B4F8C5
:10ABC0000090844205D2011B4FF000400CF09FF82A
:10ABD00037BDA04207D2C4F50070009909184FF0A4
:10ABE00000400CF094F837BDF08600208096980065
:10ABF0000024F40000366E010048E8012DE970439E
:10AC000084B004460D46164602A900200BF085FFCD
:10AC100001A900200BF0FBFF0BF0A4FF0090694A94
:10AC2000A2FB00894FEA582848EAC958A2EB08005D
:10AC30000090042202A92046FAF74EF9042201A945
:10AC40002846FAF749F9042200A93046FAF744F9F0
:10AC5000BDE87F83D43B0120005A620280F0FA02F3
:10AC600000BD010570B48C1E012C01DA0C34401EAD
:10AC70003C216425B0FBF5F5C5EB90054FF4C87693
:10AC8000B0FBF6F6751940F26F1674430C26B4FB50
:10AC9000F6F46419121940F26D1404FB00204A4ABC
:10ACA000101800EB400203EBC200039A01FB0020E6
:10ACB000049A01FB002070BC7047000084380240F9
:10ACC000018793031CB50C4601680191416800910E
:10ACD0008368C2680169491C406900F26C70FFF723
:10ACE000C1FF2060002016BD10B58EB03748006847
:10ACF000C405E40D01A900200BF00FFF00A90020FE
:10AD00000BF085FF9DF8040006909DF80500059066
:10AD10009DF8060004909DF80100401E08909DF8E3
:10AD2000020007909DF803006430099002A904A86E
:10AD3000FFF7C8FF4FF47A7010FB04F0400AC0F52B
:10AD40007A700390029A4FF47A73C117E3FB020101
:10AD50000EB010BD00700040504F520050494E00E0
:10AD6000424F52005346540049574400575744003D
:10AD70004C505700000402402C87002001000300C3
:10AD80008200070080000700840007000400001014
:10AD9000020000104000001002000300DC3B012014
:10ADA00040380240D43B01201800024010ED00E082
:10ADB000003001400000024000080240000C024048
:10ADC0000010024000CA9A3B7505F5FF2828004094
:10ADD00008B584B00023029311B90093019302E0F7
:10ADE0000090481E019004AB00A907487844183031
:10ADF000FDF722FF009909B100220A70002858BF10
:10AE0000029805B000BD00BFBF84FFFF00F1010341
:10AE1000810704D010F8011B89B18107FAD10268BB
:10AE2000B2F10131914311F0803F04BF50F8042F7B
:10AE3000F6E710F8011B11B110F8011BFBE7C01A6F
:10AE40007047000000B585B002460FF2140100A85B
:10AE50000CF042F900A800F093FB05B000BD000023
:10AE60004F4525640000000030488168002904BF78
:10AE700008B008E0EFF30982A2F12802036882E833
:10AE8000F84F83685A60F8F71BFF816859B14A6828
:10AE900092E8F84F036002F1280282F3098813F464
:10AEA0007F4F36D07047224822490968401A80F304
:10AEB00008884FF08071C1611F4981617FF0060EE3
:10AEC000704701BC2046DFF874E000BDFEE71C4877
:10AED000006818490968401A203820F0070080F3FC
:10AEE00008884FF0000181F3118862B600F00DF878
:10AEF000FEE74FF0000181F311881249124A0A60FF
:10AF00004FF0800181F3118870470E490E4A0A60A4
:10AF100070474FF0000181F31188704700BF4FF078
:10AF2000800181F31188704700BF0000A4800020D9
:10AF3000E01F00205033030825C30008CDAE0008F1
:10AF40000000000804ED00E000000010EFF30380B3
:10AF50007047BFF34F8FDFF86C06016801F4E061C2
:10AF6000DFF8642611430160BFF34F8FFEE770B531
:10AF700082B006460C462046FFF748FF0546202DC6
:10AF800005D10422314600A8F9F7A6FF06E0102DEE
:10AF900016D10222314600A8F9F79EFF002000E0FA
:10AFA000401CA8420EDA015D7829F9D0009A2B46A0
:10AFB0005B1E1B1ADA4002F0010230398A42EFD0E0
:10AFC000002076BD012076BDDFF800160160062066
:10AFD0007047A0F10060B0F53E3F01D801207047F6
:10AFE00000207047F8B504460D4600200090206808
:10AFF000FFF7EFFF00281AD000A8FFF7E5FF06468D
:10B00000002700E07F1CB74211D2009850F837109B
:10B0100000EBC700406840422268520810EB420033
:10B02000FFF7A5FF0028EDD02F600120F2BD002022
:10B03000F2BDF8B50C46DFF898150A6D4B6D00258A
:10B0400059082E465F1B062F11D3482707FB0127FF
:10B050003F6C874200D20D46B84200D20B46E91839
:10B06000490837467E1C1F2FECD300E06D1C9D4223
:10B0700011D2482707FB05210E6CB042F6D34E6C67
:10B080008642F3D3402220460CF040F8002084F89A
:10B0900040000120F2BD40220FF2006120460CF07A
:10B0A00035F80020F2BDF0B591B0044600250EE061
:10B0B00032590FF2F45100A80CF00EF800A8FFF777
:10B0C000A5FE024600A9381D0CF020F86D1C05EB0A
:10B0D000C500C600305900280BD0371900A9FFF76A
:10B0E000A8FF0028E4D0402200A9381D0CF00EF87B
:10B0F000ECE711B0F0BDF8B507460C461546002642
:10B1000030460090002F1ED0002C09D1F2BD06EB76
:10B11000C600C00057F8041B490849004151761C7D
:10B120000C2E0FD200A93846FFF75CFF002807D18C
:10B130003868FFF74EFF002802D13F1DBC42F1D214
:10B14000BC42E4D23046F2BD70B5DFF888140A463E
:10B150000B68D21A1368DFF88044A34201D00020A4
:10B1600070BDDFF86C44121D22650968091F482272
:10B17000B1FBF2F1616510F1030F02D010F1130F72
:10B180000AD1DFF85854A8680BF0F6FF0646A86805
:10B190000BF0FEFF811905E001F042F8054601F0D1
:10B1A00041F84119DFF83854A069286005F14802D8
:10B1B000A06AFFF7A0FF2846FFF775FF012070BDCA
:10B1C0000EB430B5CCB0044600A84FF49671F7F732
:10B1D0003BF900254FAB22464FF4967100A8FFF7CC
:10B1E000F7FD00A8FFF712FE044609E0DFF8E013C0
:10B1F000C86D421CCA6500A9695C0CF037F86D1C6B
:10B20000A542F3D34CB030BC5DF810FB38B5002438
:10B21000DFF8BC53E8650FF29840FFF7D1FFDFF885
:10B22000C40301680FF2AC40FFF7CAFFA86C00909E
:10B23000AB6B6A6B296B0FF2B440FFF7C1FFE96C8F
:10B240000FF2E040FFF7BCFF6A69A9690FF2E8401E
:10B25000FFF7B6FF0FF2F840FFF7B2FF06E0101855
:10B26000021D0FF20450FFF7ABFF641C04EBC40097
:10B27000C200DB4811580029F1D10FF2F840FFF766
:10B280009FFFA86D441E002505E00918BBA0FFF72D
:10B2900097FF641E6D1C3C2D09D2002C00D53B2469
:10B2A000322000FB04F1D0480A5C002AEDD131BD08
:10B2B000CE48CF490A6802604A6842608A68826064
:10B2C000CA68C2600A6902614A6942610A7E826193
:10B2D000097F8161C7490A7882614A6842628A6847
:10B2E0008262CA68C2620A6902634A6942638A6901
:10B2F0008263CA69C2638A6EC0F88820BE4A9369B5
:10B30000C0F89830D368C0F88C301369C0F890301A
:10B310005369C0F894300B6FC0F89C304B6FC0F885
:10B32000A0308B6FC0F8A430C96FC0F8A810B34923
:10B330000968C0F8AC10B2490B68C0F8CC304B6853
:10B34000C0F8D0308B68C0F8D430CB68C0F8D830A3
:10B350000969C0F8DC105168C0F8E8101168C0F83D
:10B36000E410704770B506460C46994D6FF01E010B
:10B37000401A14D0083812D0001F05D0001F0ED07C
:10B3800008380CD0001F10D104F120002862EFF320
:10B39000148040F00200E862286AA86205E004F127
:10B3A00020002862EFF31480E862EFF308806862FF
:10B3B000EFF305802863EFF300806863FFF7C6FDB5
:10B3C000A863EFF31080E863EFF311802864EFF3D4
:10B3D00013806864F1EE100AA864EE64002004E0B3
:10B3E00054F8201045F82010401C0828F8D370BDF0
:10B3F00070B5774CA16D3C2901D30021A165A56DE5
:10B400003221794A01FB05260A4601463046F9F702
:10B4100063FD002086F83100681CA06570BD70B522
:10B42000014674462046FFF79DFFFFF741FF204687
:10B43000FFF78AFE00F09AF8002832D100F034F8C5
:10B440000BF0B4FEF3200BF02BFF6E484FF00054CE
:10B45000002505E02178641C0BF008FF30466D1CC8
:10B46000461CB5F5C03FF5D353210BF0FFFE52212A
:10B4700030460BF0FBFE741C412120460BF0F6FE1B
:10B48000641C4D2120460BF0F1FE5F48C046C046CB
:10B4900004F10D00FFF7BAFE0BF091FE5B4800F0DF
:10B4A0001FF8BDE8704054E510B50BF07FFEF320A7
:10B4B0000BF0F6FE564C3820206002E02068083081
:10B4C00020602068402807D200210BF07EFE09286A
:10B4D000F4D0FFF73EFDFCE7BDE810400BF06FBE77
:10B4E00038B504460BF062FEF3200BF0D9FE3D4860
:10B4F000016820460BF09EFE241DFF2120460BF024
:10B50000B5FE641C404D697920460BF0AFFE641C0B
:10B51000E97820460BF0AAFE641C297920460BF03E
:10B52000A5FE641C297820460BF0A0FE641C6978F7
:10B5300020460BF09BFE641CA97820460BF096FE7B
:10B54000F521601C0BF092FEBDE831400BF037BED8
:10B5500080B50BF02BFEF3200BF0A2FEAA212D48A4
:10B560000BF084FEBDE801400BF029BE0020294904
:10B570000978F52900D101207047000025730A00E1
:10B5800010B50446FFF742FCC0B2142800DB1320BC
:10B59000024621462048F9F79FFC4FF0AC30007876
:10B5A00010BD80B500F049F8BDE80140D1E480B598
:10B5B000FFF7CEFF4FF4C83212490020BDE8084023
:10B5C000FCF79ABB0CED00E00400FA055886002059
:10B5D000D82A0120FC4F0508FECAFECAA48000201C
:10B5E000A8F100205487002000BD0020D0130120C6
:10B5F00000ED00E020ED00E004E000E0A0ED00E060
:10B6000034EF00E000000608CC3B0120F4FF0708FF
:10B61000743C0120FFFF0708083A012010B500F034
:10B620001BF80FF270142046FFF7F0FB024621468C
:10B630000020BDE81040FCF75FBB80B501214FF44E
:10B6400080200AF0D8FD01200BF0A4F994210F20EE
:10B65000BDE804400BF041BB80B501214FF48020D0
:10B660000AF0C9FD01200BF095F900210F20BDE87B
:10B6700004400BF032BB10B5002401214FF48020B0
:10B680000AF0B9FD01200BF085F90F200BF032FB19
:10B69000942800D10124204610BD00004E6F205395
:10B6A000796D626F6C0000003078253038780000CA
:10B6B0000A0A0A0A3D3D2043726173682044756D91
:10B6C0007020496E666F726D6174696F6E203D3DCA
:10B6D0000A0000004669726D7761726520566572D6
:10B6E00073696F6E203A2025640A00000A4950539E
:10B6F00052203D20307825782C2041505352203D57
:10B7000020307825782C2078505352203D203078F6
:10B7100025782C205046534352203D203078257800
:10B720000A0000000A6661756C74206D6F64652004
:10B730003D203078257800000A5043203D203078A5
:10B7400025782C204C52203D20307825780A0000A6
:10B750000A3C43726173682043616C6C20537461CE
:10B76000636B3E0A000000003078257820202573A6
:10B770000A0000000A0A3D3D20526563656E742090
:10B780004C6F67204D65737361676573203D3D0A9B
:10B7900000000000534E414D590000000000000021
:10B7A000506002604160086070470A68F8E74860CE
:10B7B0000160704701684068F9E7F8B50600DFF8F6
:10B7C000785802D505F15C00F2BD05F15C0400205B
:10B7D000696F00E0096805F17402914204D00C46DB
:10B7E000A2689642F6D10120002840D1E86FD0F837
:10B7F0008070182009F0FEFF0446A660002F05D0D7
:10B80000B74203D2B6FBF7F0784300E03046E06081
:10B81000002F02D0B74200D23E462661002020759C
:10B82000DFF818683078401C30707078F0210842DA
:10B8300002D09920FFF706FBFFF771FB7078401CE0
:10B84000707005F174012046FFF7AFFF7078F021AA
:10B85000084202D09920FFF7F5FA7078401E707008
:10B86000C0B2002801D1FFF754FBF8F782FB204655
:10B87000F2BD38B5044694F91400002829D1DFF848
:10B88000BC572878401C28706878F021084202D004
:10B890009920FFF7D7FAFFF742FB6878401C6870E1
:10B8A0002046FFF787FF204609F0BCFF6878F021AB
:10B8B000084202D09920FFF7C5FA6878401E6870E8
:10B8C000C0B2002801D1FFF724FBBDE83140F8F7F2
:10B8D00050BB31BDF8B5044608466FF00045FFF790
:10B8E0006CFF064694F9050094F90410814214D1C6
:10B8F000C01C800009F07EFF074694F9050001286E
:10B9000007DB820021683846F9F7E6FA206809F07B
:10B9100089FF27606079C01C607194F90400411CA4
:10B920002171216841F82060DFF81407864202D0B7
:10B93000307D401C3075002008E0216851F820104F
:10B940008A68954201DB1546A160401C94F90410F9
:10B950008842F2DBF1BDF8B504466FF00046DFF82F
:10B96000D82602F15C0502F15C004FF0FF3300279E
:10B9700004E0664501DB664675467F1C94F904C009
:10B9800067450DDAD4F800C05CF827E0DEF808C09F
:10B99000002BEED58C45ECD170463B465BB2ECE714
:10B9A000002B11D4BCF1010F0EDB06E0216801EB86
:10B9B0008306766841F823605B1C94F904104E1EE0
:10B9C000B342F3DB491E217102F15C01884204D0CD
:10B9D000017D491E0175FFF74CFFA560F1BD10B454
:10B9E000C26A836B406C9C68002C02D56FF00043E8
:10B9F00000E01B698468002C02D56FF0004000E075
:10BA00000069984200DD1846D2685143884201DB44
:10BA1000012000E0002010BC704738B5DFF8181690
:10BA2000CA6FD36E012490F90850AC402343D3660B
:10BA300001F6D811FFF7B9FE012032BD10B5DFF8CD
:10BA4000F815C96FCA6E012390F90840A3409A43C4
:10BA5000CA66FFF7AFFE012010BD01207047F8B5A0
:10BA6000044615461E4604F12400FFF733FF06EB9B
:10BA7000460004EB8007294607F13000FFF72AFF54
:10BA800097F9340000903346627A94F908100FF267
:10BA9000B450F7F715FDF1BDF8B5044615461E463E
:10BAA00004F12400FFF757FF06EB460004EB800784
:10BAB000294607F13000FFF74EFF97F93400009058
:10BAC0003346627A94F908100FF28850F7F7F8FCC1
:10BAD000F1BDC16A8A68012A09DB0969012906DA10
:10BAE000006D002801D5002070470220704700201B
:10BAF000704701EB410200EB8201896B8A68012AE1
:10BB000009DB0969012906DA006D002801D500204A
:10BB100070470220704700207047002900D5D8E701
:10BB2000E7E7012900DA012113460A4697E70129D0
:10BB300000DA012113460A46AEE7DFF8FC04C06ACA
:10BB4000417A481E8041C00F704713464FF0FF32C4
:10BB5000114684E713464FF0FF3211469CE780B54B
:10BB6000DFF8D4040068417A002902D1006E4068F1
:10BB70008047012002BD80B5FFF760FFDFF8B80401
:10BB80000068417A002902D1006E80688047012058
:10BB900002BDB1F57A7F01DC4FF47A7113460A4693
:10BBA0004FF4FA715BE7B1F57A7F01DC4FF47A71FB
:10BBB00013460A464FF4FA716EE710B504460029A1
:10BBC00022D5E06A816801291CDB0069012819DAA5
:10BBD00002212046FFF703FF002813D194F95400F7
:10BBE00010F1010F04D1002084F85400012010BD91
:10BBF000002807D1012060774FF0FF3084F854000F
:10BC0000022010BD002010BDBDE8104071E74FF0CC
:10BC1000FF3280F8542000E7C92900DAC821134612
:10BC20000A4642211BE7C92900DAC82113460A4601
:10BC3000422131E710B50446002927D5E06A816822
:10BC4000012921DB006901281EDA03212046FFF7C4
:10BC5000C6FE002818D194F95400014611F1010FD5
:10BC600004D1002084F85400012010BD002803D125
:10BC7000012084F8540010BD012905D14FF0FF3098
:10BC800084F85400022010BD002010BDBDE8104013
:10BC90002FE74FF0FF3280F85420DFF89C23D26F5B
:10BCA000D2F88020C83252420265B6E6DFF8882317
:10BCB000D26FD2F88020C83252420265ADE61346F8
:10BCC0004FF0FF321146CAE613464FF0FF321146DD
:10BCD000E2E680B5FFF7A1FEF7F771FB00210175E1
:10BCE000012002BD80B5FFF7A9FEF7F768FB002130
:10BCF0000175012002BD00002DE9F0410C46CE4D3A
:10BD000055F82060307206F154070FF2583139614E
:10BD1000162800F22781DFE810F017002700330013
:10BD20004D0040005A006B007B00AB008B009B0075
:10BD3000BB00CB00D900E600F20000010D011A01A2
:10BD40001A011A011A011A0106F1080006214176AA
:10BD50000A21817605F6E011416040F2DC518160F4
:10BD60000FF21C303861FDE006F108000621417633
:10BD70000A21817605F6BC71416064218160F1E0A1
:10BD800006F108000C2141761021817605F58051DD
:10BD90003431416010218160E4E006F108000721A0
:10BDA00041760B21817605F58051283141600B21C8
:10BDB0008160D7E006F10800062141760A218176EC
:10BDC00005F58051443141600A218160CAE006F1E5
:10BDD0000800062141760A21817605F5805150310F
:10BDE00041604FF4FA7181600FF2E8203861B9E0E8
:10BDF00006F10800262141762A21817605F5905129
:10BE0000443141602A2181600FF238303861A9E065
:10BE100006F10800032141760721817605F590514E
:10BE20008C314160072181600FF2E020386199E098
:10BE300006F108000C2141761021817605F590511C
:10BE40007C314160102181600FF2A420386189E0CB
:10BE500006F10800022141760621817605F5905110
:10BE600094314160062181600FF2BC20386179E095
:10BE700006F10800052141760921817605F59051EA
:10BE800070314160092181600FF22C20386169E036
:10BE900006F10800062141760A21817605F59051C8
:10BEA0009C3141600A2181600FF2F010386159E045
:10BEB00006F10800012141760521817605F59051B2
:10BEC000A831416040F2866181604BE006F10800D4
:10BED000012141760521817605F5C851383141604F
:10BEE000052181603EE006F108000C214176102119
:10BEF000817605F5CA5141601021816032E006F17A
:10BF00000800112141761521817605F5C85150317F
:10BF1000416041F66631816024E006F1080011219C
:10BF200041761521817605F55051B83141601521D2
:10BF3000816017E006F1080004214176082181762E
:10BF400005F5C85130314160082181600AE006F1F1
:10BF50000800012141760521817605F58151416076
:10BF60000521816006F10800002101754175817588
:10BF70000176C1600161417006F128080846C8F8E1
:10BF800028004FF0FF3086F854007880062206F132
:10BF90005800FDF71CFD002010E000EB400106EB0F
:10BFA0008101002281F8342034314A7005F15C02AD
:10BFB0004A6006EB800100228A64401C0228ECDB08
:10BFC000002086F8280088F8010005F15C00C8F818
:10BFD0000400FC60BDE8F08110B5174CFAF7C8FF0B
:10BFE000E067002006E0682111FB0041803144F841
:10BFF0002010401C1728F6DB4FF0FF306066A0666B
:10C000000020E06600F00DFFF8F736FFFAF75DFF5D
:10C010000BF0F6FD0CF056FD0CF0B9F80CF072FBCD
:10C020000CF0BCFD0DF003F90CF0C2FD0CF0D1FDDD
:10C03000BDE810400CF0B7BD08400020A4800020EF
:10C04000644000204144202564202564202564208C
:10C0500025640000524D202564202564202564209D
:10C06000256400005BBA00081BBA00085BBA000830
:10C070003DBA000823BB00082FBB00081BBB00080B
:10C080003BBB00081BBA00083BBB00083DBA0008D8
:10C0900023BB00082FBB00081BBB00085FBB0008C8
:10C0A0001BBA00085BBA000877BB00084BBB00084E
:10C0B00055BB00081BBB00085BBA00080FBC00089A
:10C0C0005BBA00083DBA000893BB0008A7BB000894
:10C0D000BBBB00085BBA000893BC00085BBA000851
:10C0E0003DBA000819BC000827BC000835BC000890
:10C0F0005BBA0008ADBC00085BBA00083DBA000896
:10C1000023BB00082FBB00081BBB00085BBA00085C
:10C11000D3BC00085BBA0008E5BC0008BFBC00083F
:10C12000C9BC00081BBB00085BBA00081BBA0008AA
:10C130005BBA00083DBA000823BB00082FBB00080B
:10C140001BBB00085BBA00081BBA00085BBA0008FA
:10C150003DBA000823BB00082FBB00081BBB00082A
:10C16000010040F10980F446404200F005F851F02A
:10C1700000416047010000BF09D0B0FA80F188405B
:10C18000C91CC1F58461090501EBD0214005704748
:10C190004FEAF17CBCF1E04C2CBFBCF5001F11E074
:10C1A0005FEA4C0C34BFBCF17F5F2EE05FEA9C0C71
:10C1B0004FEA0C1C4FEA3C0CC10071F100414CEB02
:10C1C00050707047C90241EA5051C00218BF41F097
:10C1D000010141F000414FEA6C50C0F109002128F3
:10C1E00010D240EACC7CCCF1200C11FA0CF070F1AA
:10C1F0000040CCF1200C21FA0CF00CF0004C40EB8C
:10C200000C0070474FEACC707047490011F5001FD1
:10C2100004D84FEACC10FF30C0057047C8177047EC
:10C220000248704702480149401A70470000002048
:10C23000002000200901002806D500F00F004C4A1C
:10C24000801800F8041C70474A4A8154704710B5A2
:10C25000401EB0F1807F01D3012010BD464C6060CC
:10C260000F214FF0FF30FFF7E5FF0020A06007200F
:10C270002060002010BD38B5404D2878401C287043
:10C280003F4C2078401C2070F7F757FE0DF06CF8FB
:10C290002878411E2970002802D19820FEF7D2FD8F
:10C2A0002078012804D16068002801D0FEF72DFE17
:10C2B0002078401E207031BD10B5314C6078F021DF
:10C2C000084202D09920FEF7BDFDFEF728FE6078F7
:10C2D000401C60700DF0A2F82A4800684FF47A7193
:10C2E000B0FBF1F0FFF7B3FF002800D0FEE72648CF
:10C2F000264901600E214FF0FF30FFF79BFF607869
:10C30000F021084202D09920FEF79CFD6078401E83
:10C310006070C0B2002803D1BDE81040FEF7F9BD3F
:10C3200010BD000010B51A4C4FF400512046418357
:10C33000C04630BF4FF4005120460AF09BF8F3E7A7
:10C3400010B40F48006A0F4909684FF47A72B1FBC4
:10C35000F2F1104A1368CB1A0F4C2468640102D51D
:10C3600012688B1A401C00FB013010BC70470000A3
:10C3700018ED00E000E400E010E000E0113D0120D5
:10C38000A4800020F086002008ED00E000000008F6
:10C390000010024018E000E004ED00E0EFF305803B
:10C3A00000284DF09B80704780B5EFF3108072B687
:10C3B0000B49096851F47F01094A116080F3108824
:10C3C0000848006810F4700F02D1A720FEF73AFD6C
:10C3D00005485FF00071016004480021016001BD63
:10C3E00020ED00E088ED00E03CEF00E034EF00E0FD
:10C3F0004268C2F30A5240F2FF739A4209D141687F
:10C40000090304BF0068002801D101207047022001
:10C41000704743685B0004BF0368002B25D040F2DF
:10C4200033439A1A521A012A1FDB352A06DB416868
:10C4300001F0004141600021016013E0012102F0A0
:10C440001F039940491E920607D5426811404A4091
:10C45000426002681143002202E0026811404A4033
:10C46000026011B14FF0FF307047002070470000AC
:10C4700070B44FF0004591EA030C44BF6B4009F0E3
:10C4800097BD00BF841A71EB030603D2001BB141B4
:10C49000121973414FF4001C1CEB410F34BF7CEBAD
:10C4A000430443E00C0DA4EB1356352E50DC45EA53
:10C4B000C323DB0A45EAC121C912B6F120050DDD0F
:10C4C00063FA05F6EB4086EA0305124218BF45F011
:10C4D0000105C01851F100010CD213E062FA06F513
:10C4E000F2405540F3415A40B340F3405A4080185F
:10C4F000594107D349085FEA30005FEA350528BF94
:10C5000045F0010501F58011420875F1004250F136
:10C51000000041EB045170BC4FF4001C1CEB410FB8
:10C5200038BF70470020090D090570471CEB410F0B
:10C5300010D252EA43060BD0BCEB410F05D80C0DCC
:10C54000AB43661E342EB5DD02E0AB438018594183
:10C5500070BC704770BC704700B583B000218DF887
:10C5600004100121009101AB2022B021F7F778F8E7
:10C57000002801D100200EBD01200EBD80B5002293
:10C58000ADF8002022228DF800208DF80110022342
:10C5900000AAB021F7F70AF8002801D1002002BD57
:10C5A000012002BD00B583B000218DF804100121E7
:10C5B000009101AB2322B021F7F752F8002801D1F6
:10C5C00000200EBD9DF804000EBD30B583B00446BA
:10C5D0000020ADF806008DF804000146FFF7CEFFFD
:10C5E00005460120009001AB0022B0211046F7F76C
:10C5F00037F8002801D100203EBD00208DF806004C
:10C600009DF8040000F09F00204340F007008DF8E3
:10C61000070002230DF10602B0210020F6F7C6FF45
:10C62000002801D100203EBD28463EBD10B584B093
:10C630000C4601A800210A4606C00620009001AB66
:10C640002A22B0210020F7F70BF8002801D10020A2
:10C650000EE001A8417821709DF804106170C17846
:10C66000A1708178E17041792171007960710120B8
:10C6700004B010BD7CB500A800210A4606C0012107
:10C680001046FFF77BFF044600208DF80000DFF81E
:10C690006455032229460DF10100F8F71DFC04231F
:10C6A00000AAB0210020F6F781FF002801D1002068
:10C6B00076BD03208DF800000246E91C0DF1010053
:10C6C000F8F70AFC042300AAB0210020F6F76EFF59
:10C6D000002801D1002076BD06208DF8000003223D
:10C6E000A91D0DF10100F8F7F7FB042300AAB02102
:10C6F0000020F6F75BFF002801D1002076BD09205D
:10C700008DF80000042205F109010DF10100F8F790
:10C71000E3FB052300AAB0210020F6F747FF00281D
:10C7200001D1002076BD0F208DF8000000AE687B9F
:10C730007070022300AAB0210020F6F737FF00280E
:10C7400001D1002076BD17208DF80000A87B707005
:10C75000022300AAB0210020F6F728FF002801D10B
:10C76000002076BD204676BD38B500210846FFF78B
:10C7700005FF0446DFF88054012000902B4600227C
:10C78000B0211046F6F76CFF002801D1002032BD21
:10C79000012000906B1C0422B0210020F6F760FFFE
:10C7A000002801D1002032BD01200090AB1C0522E1
:10C7B000B0210020F6F754FF002801D1002032BD3F
:10C7C00001200090EB1C0622B0210020F6F748FF64
:10C7D000002801D1002032BD204632BD70B582B0A4
:10C7E0000020ADF800000146FFF7C8FE0446002017
:10C7F0008DF80000DFF8005400AE28787070022336
:10C8000000AAB0210020F6F7D1FE002801D10020B7
:10C8100076BD04208DF8000068787070022300AAAD
:10C82000B0210020F6F7C2FE002801D1002076BD1D
:10C8300005208DF80000A8787070022300AAB021AE
:10C840000020F6F7B3FE002801D1002076BD0620B7
:10C850008DF80000E8787070022300AAB021002053
:10C86000F6F7A4FE002801D1002076BD204676BD53
:10C8700038B50020ADF8000005460221FFF77EFE26
:10C8800000AC00E06D1C032D0EDA05F119008DF8E7
:10C89000000000206070022300AAB021F6F786FE97
:10C8A0000028EFD1002032BD00210846FFF766FEC8
:10C8B000054600208DF8000067206070022300AA62
:10C8C000B0210020F6F772FE002801D1002032BD11
:10C8D00004208DF80000C7206070022300AAB02158
:10C8E0000020F6F763FE002801D1002032BD0520AC
:10C8F0008DF80000C048807800F0F00040F0110092
:10C900006070022300AAB0210020F6F74FFE002835
:10C9100001D1002032BD284632BD70B582B0044638
:10C920000020ADF800000646002903D1002C0CD0F1
:10C9300030260AE0012903D1002C06D0282604E085
:10C94000022902D1002C00D018260146FFF716FE5E
:10C95000054604208DF80000A748407800F0C70085
:10C96000304340F0C0008DF80100022300AAB0213E
:10C970000020F6F71BFE002801D1002076BD002C18
:10C9800002D0C820F7F7AEFD284676BD30B5ADF52C
:10C99000197D044667A8C821F5F756FD35A8C821BA
:10C9A000F5F752FD03A8C821F5F74EFD01A80021B7
:10C9B0000A4606C00D461AE001A89DF80410427808
:10C9C00042EA012167AA22F815109DF806109DF889
:10C9D000072042EA012135AA22F8151000799DF8B6
:10C9E000091041EA002003A921F815006D1C642DEF
:10C9F00013DA0120F7F776FD0020FFF7D3FD40079B
:10CA0000F7D50620009001AB2A22B0210020F6F7CE
:10CA100027FE0028D0D100202AE0002528462060EB
:10CA20006060A06014E067A931F9151000FA81F088
:10CA30002060606835A931F9151000FA81F0606056
:10CA4000A06803A931F9151000FA81F0A0606D1CEF
:10CA50002068642DE7DB642190FBF1F020606068C2
:10CA600090FBF1F06060A06890FBF1F0A060012005
:10CA70000DF5197D30BDF8B5044610680B68C01A75
:10CA80000F2390FBF3F550684B68C01A0F2390FBFF
:10CA9000F3F690688968401A194690FBF1F70FF297
:10CAA0009C30F6F70DFD002D00D56D422580002E3F
:10CAB00000D576426680002F00D57F42A780B4F96A
:10CAC00004000090B4F90230B4F9002000210FF204
:10CAD0008030F6F7F5FC0120F2BD30B583B00020C0
:10CAE000ADF806008DF8040005460146FFF746FD47
:10CAF00004462846FFF730FD002802D128463EBDF7
:10CB00006D1C032D08DA294649B20020FFF705FF06
:10CB10000028F5D100203EBD0120009001AB00228D
:10CB2000B0211046F6F79CFD002801D100203EBD43
:10CB30000DF106059DF8040000F00700072812D04B
:10CB400000208DF806009DF8040040F00700687092
:10CB500002230DF10602B0210020F6F727FD002880
:10CB600001D100203EBD04208DF80600C72068706A
:10CB700002230DF10602B0210020F6F717FD002870
:10CB800001D100203EBD05208DF8060033206870DD
:10CB900002230DF10602B0210020F6F707FD002860
:10CBA00001D100203EBD20463EBD10B50024F6F761
:10CBB00006FC007CC00700D50124204610BD602083
:10CBC00003E580B50020FFF700FD002801D100201B
:10CBD00002BD012002BD0120704780B52A22014616
:10CBE0000648FFF723FD002801D1002002BD0120E7
:10CBF00002BD0000F4860020EC3B0120D01B012088
:10CC00001CB500A800210A4606C001220320F6F741
:10CC100049FE01210020FFF7B1FC0B208DF8000038
:10CC200000208DF80100022300AAB021F6F7BEFC17
:10CC3000002801D1002016BD6020FFF7C6FC044685
:10CC40000FF22820F6F73CFC204616BD70B582B0E6
:10CC500004460020ADF80000F6F7B1FB05460FF2E0
:10CC60001C20F6F72DFC012211460320F6F71AFED0
:10CC70000020F6F719FEFFF7FDFC4020FFF7A5FCAA
:10CC80000646012020702846407DC046012810D06D
:10CC900001212846F6F77FFDBDF80000401CADF8E5
:10CCA0000000BDF800003228EDDB0FF2E410F6F7CB
:10CCB00007FC012200210320F6F7F4FD0020F6F71F
:10CCC000F3FDFFF79DFF002801D1002076BD30461F
:10CCD00076BD70B58CB0044608A800210A460B4604
:10CCE0000EC005A80EC002A80EC000A806C00E46C1
:10CCF000FFF73AFD002801D130466BE0FFF7B8FDA1
:10CD000000280BD06020FFF760FC0546314608463E
:10CD1000FFF703FE002803D130465BE0304659E0C0
:10CD200005A8FFF733FE002809D1304652E008A8D5
:10CD300002A951F8261040F82610761CF6B2032EF0
:10CD40000FDA314649B20120FFF7E7FD002801D193
:10CD500000203FE002A8FFF719FE0028E7D10020DD
:10CD600038E008AA05A900A8FFF785FE0646012EAF
:10CD700003D00FF22810F6F7A3FB01202070BDF8B6
:10CD800000006070BDF900000012A07000A841888A
:10CD9000E170B0F902100912217181886171B0F956
:10CDA00004000012A071E671002601E0761CF6B2C4
:10CDB000032E08DA314649B20020FFF7AEFD002805
:10CDC000F4D1002006E0FFF709FD002801D1002082
:10CDD00000E028460CB070BD80B50178012905D16E
:10CDE000FFF734FF002808D0012002BD0178022996
:10CDF000FAD1FFF76EFF0028F6D1002002BD10B572
:10CE0000FFF738FC4020FFF7E0FB04460122114603
:10CE10000320F6F747FD0FF29000F6F751FB20468E
:10CE200010BD80B50FF288010020FEF765FF0FF2FC
:10CE3000A4010B20BDE80440FEF75EBF4143432040
:10CE400073656C662073756363657373000000001F
:10CE500041434320726174696F3A2025642C202578
:10CE6000642C2025642C20256400000041434320CD
:10CE7000436C6F73655F496E74000000414343204B
:10CE8000496E742073656C667465737400000000ED
:10CE9000414343205354302D3200000063686563E2
:10CEA0006B206661696C000041434320496E740049
:10CEB000DBCA0008BFCB0008C3CB0008D7CB0008F3
:10CEC00000000000DBCB000800000000D9CD000806
:10CED00000000000ABCB0008FFCD000801CC00082B
:10CEE0000000000000000000000000000000000042
:10CEF00000000000000000004FF4001C1CEB410F7C
:10CF000094BF1CEB430F09E041EA030C50EA4C0CC0
:10CF100052EA0C0C03D2994208BF9042704714BFEA
:10CF20008B4282427047002848BF40427047000051
:10CF3000D2B2203A22BF41FA02F0C917704720321C
:10CF4000D141D04048409140D140484091401141AA
:10CF500070477FB50D46044616461946002D44BF5E
:10CF6000E843451C02AB03AA2846F3F744F900AB9B
:10CF700001AA31462846F3F73EF9009803990818AC
:10CF800003990090884202D20198401C01900298B7
:10CF900080300290802806D20098401C009002D178
:10CFA0000198401C019000990298090641EA10205E
:10CFB000029001990098090641EA1020009001981A
:10CFC000000A02D10098002807D54FF0FF306FF01B
:10CFD0000041C4E90001002004E001460298C4E9D0
:10CFE0000001012004B070BD10FB01F0704710FB80
:10CFF00001F000F500600001001470472DE9F843CE
:10D00000DFF8084CDFF8085CE067C4F880200020F7
:10D0100005EB4001CC228A82EB224A83E5220A8476
:10D0200005EB80014FF0C072CA65401CDFF8E42BAD
:10D030004A64A7228A660328EADB4FF00608DFF875
:10D04000D86B002700224146301DF6F749F93A46D1
:10D05000414605F12800F6F743F93A46414606F104
:10D060000C00F6F73DF93A46414606F12800F6F77E
:10D0700037F93A46122106F11400F6F731F941F674
:10D080009910F08068854FF4805140F6CC40F081D3
:10D090007185394608FB0162491CD0820329F9DBFE
:10D0A000102610220FF2D801281DF6F7D1F8E889D2
:10D0B0008000E8814FF00C09288A800028823A46D7
:10D0C000688A80006882494605F15000F6F708F941
:10D0D00040F2471028866F703A46314604F15800F6
:10D0E000F6F7FEF83A46314604F16800F6F7F8F82C
:10D0F0004FF08076A666A6653A468021DFF81C0BC5
:10D10000F6F726F93A46242104F11C00F6F7E8F870
:10D11000E66104F55C70DFF8083BDFF8082BDFF808
:10D12000081B0CF0F5F93A46414605F13400F6F7D4
:10D13000D7F83A46494605F17400F6F7D1F83A4671
:10D14000414605F13C00F6F7CBF8DFF8E04A3A46F5
:10D150002C212046F6F7FCF84FF0F050E06142F247
:10D160008210208441F29910A084DFF8C40AA062E2
:10D17000DFF8C00AC5F88000BDE8F1432CE00000EC
:10D180009901990199012800CC004500450045000E
:10D19000DFF8A40AC16B00291EBF006C40F2012118
:10D1A000084201D0002070470120704770B5154635
:10D1B0000C46DFF8886A0246002130460CF0D8F9A8
:10D1C0002246022130460CF0D3F92A463046BDE80B
:10D1D000704001210CF0CCB980B5012000F008F8B6
:10D1E000DFF8540A816B41F00201816301F098BDC0
:10D1F0002DE9F84FDFF8144ADFF83C5A002668B1F1
:10D2000000220C2105F13800F6F7A2F8286C40F056
:10D210000100286404F55C700CF08AF9DFF8207ACC
:10D22000002244213846F6F793F8052038704FF471
:10D230008050DFF8E479DFF8D899B881BE80A9F88A
:10D2400028603E853246F42104F18400F6F780F828
:10D250003246102104F16800F6F77AF801226A706C
:10D260003A70C5E91266C4E91066C4E91266C5E9F8
:10D270001466C7E916664FF080783246C4F86880B5
:10D280002E70AA7022706270A270E270BA80A9F843
:10D2900028204FF4006307EB4200521C038783866B
:10D2A0000386022AF7DB01222271C7E91866C7E963
:10D2B0001A66C5E91666C4E91466C5E91866C5E9C3
:10D2C0001A66C5E91C66C5E91E66C7E91C66002228
:10D2D0004FF02009AB836271A2712272AA7162724F
:10D2E000EA716A71E271EA702A712A726A72AA722C
:10D2F000A272EA72E272494604F5BC70F6F728F8A9
:10D300004FF0400A3246514604F5CC70F6F720F84B
:10D310004FF0300B3246594604F5EC70F6F718F82A
:10D320003246514604F50270F6F712F83246594675
:10D3300004F51270F6F70CF80422114604F51E707D
:10D34000F2F79AFF0322114604F52670F2F794FFD4
:10D350003246082104F52B70F5F7FAFF4FF0060A64
:10D360003246514604F52D70F5F7F2FF3246494634
:10D3700004F52F70F5F7ECFF3246514604F537708F
:10D38000F5F7E6FF3246494604F53970F5F7E0FF58
:10D390003246494604F54170F5F7DAFF32460C2172
:10D3A00007F14400F5F7D4FFDFF870A80AF1800B0D
:10D3B000324638215846F5F7CBFFCAF88080CBF8C3
:10D3C00010803246494604F54970F5F7C1FF3246F0
:10D3D000494604F55170F5F7BBFF32460C2104F5C0
:10D3E0005970F5F7B5FF3046C5F88000E8830FF2B5
:10D3F000680105E095F83820920701D4052808DA7D
:10D4000031F9102005EB40039A8104EB40035242AE
:10D410009A81401C0828EDDB0FF24C01002031F905
:10D42000102005EB4003401C1A8452421A85042840
:10D43000F5DB00200FF2380131F9102005EB400335
:10D440001A8607EB40035242401C9A870328F3DBFD
:10D45000A667BDE8F18F0000050005000500050086
:10D4600006000100010001000300030003000300A7
:10D470000100010001000000DFF89017DFF8B80795
:10D48000D1E91423B2F1F04263F10003002B06DB73
:10D4900001DC032A03D3816B41F002018163816BBC
:10D4A00041F002018163016C41F002010164C16B32
:10D4B00041F00401C1637047DFF87C07016C41F063
:10D4C00008010164816B41F002018163C16B41F08D
:10D4D0000601C163704770B5DFF85C57044695F9E3
:10D4E000020078B974B1EE6B0EB900F00DF8A86BBC
:10D4F00040F00300A863286C40F02000286446F048
:10D500000400E863AC7070BD10B50020DFF80C17A4
:10D51000DFF8F836DFF8F82603EB800302EB80042F
:10D520005B6B636702EB4002DFF80C3703EB4003F1
:10D53000DB8A938601EB001303EB4003401CB3F836
:10D540005A3093870328E3DB10BD38B50446DFF873
:10D550009459216818222846F2F724FE616818229F
:10D560002846F2F71FFEA1682846BDE83840182279
:10D57000F2F718BE00B583B00146062200A8F5F701
:10D5800067FE002000A931F91020512ABCBF5122AA
:10D5900021F8102031F81020DFF8743603EB400337
:10D5A000401C9A820328EEDB07BD01460C22DFF8FF
:10D5B0003809F5F74DBE2DE9F843DFF8544601462A
:10D5C0000C2204F14400F5F743FE00250FF250064B
:10D5D000DFF818990FF2940804EB8507DFF81019AB
:10D5E000786C884207DB43464A46314600F0E4FD4A
:10D5F000DFF8000978646D1C032DEDDB606C00F52D
:10D600008060C0122084A06C00F58060C01260842D
:10D61000E06C00F58060C012A084BDE8F1830000DA
:10D62000496E707574206779726F73636F706520CF
:10D630006E6F69736520746F6F206C61726765200F
:10D640002D2073657474696E6720746F206D617826
:10D65000696D756D206F66203364707320282573A3
:10D66000203A3A202573290D0A0000004779726F8D
:10D67000436F6D7041435F5365744779726F736395
:10D680006F70654E6F697365460000002DE9FC41BF
:10D6900004469088B2F906600D46C0F58051508866
:10D6A000C0F5805009B200B2FFF7A1FCDFF8688531
:10D6B0000246D8E91601002904BF0028C8E916452A
:10D6C000D8E91601DFF87075231A97F9080040F6BB
:10D6D00086718A4202DB40B9012005E040F6333111
:10D6E0008A4202DA08B100203872002000903246E7
:10D6F00008F1280101A8F4F76FFBBDF904006FF0F1
:10D700000101A0F266628A42A8BF012004DAA0F2F9
:10D710006620884201DA0020F872C8E91645BDE8A3
:10D72000F381B2F90000DFF8101591F9092040F6F5
:10D730008673984202DB42B9012005E040F633339C
:10D74000984202DA0AB1002048727047B2F900002C
:10D75000DFF8E41491F90A2040F68673984202DB60
:10D7600042B9012005E040F63333984202DA0AB1AB
:10D770000020887270472DE9F0478AB08246BDF9D3
:10D78000500099460C469046DFF8643D41F622175A
:10D7900000280CD5191A08D5A3EB4001B94212BFD5
:10D7A000381800F5C85021300DE0181A0BE0391A6E
:10D7B00008D5A7EB4001994212BF181841F6231172
:10D7C000401A00E0381A00B2F3F7DBFD47F6FF77A6
:10D7D0000128C0F28B8000F2555109B240F6555035
:10D7E000F3F729F90546B5F5805FB8BF4FF48055CA
:10D7F000BDF948003A462946F4F794FD0646BDF9BE
:10D800004C003A462946F4F78DFD0746002000906B
:10D810005346DFF804543246291D02A8F4F7DCFA17
:10D82000BDF908008642B8BF0646019600F06AF8C6
:10D83000079001960020009000234FF4805200F0E2
:10D840005BF80890019700F05DF80590019700F0F3
:10D8500064F800F051F8069001964FF48050009063
:10D86000002302464FF400510CF06FF9039001962B
:10D8700000F053F84FF4005110460CF066F900F038
:10D88000FDF80FF2F01705F1340207A938460CF045
:10D89000A7F900F0F4F805F1380203A938460CF0B6
:10D8A0009FF900F0ECF805F1500205A90FF24000D5
:10D8B0000CF096F9DFF88003B0F91C70EE8EB5F924
:10D8C00034003946FFF793FB8019208039466C8F6E
:10D8D000B5F93800FFF78BFB0019A8F80000B5F880
:10D8E0005200A9F800000AB0BDE8F0873D467FE786
:10D8F000FB0F04000400FB0F4FF440514FF40050A5
:10D900000CF023B94FF480500090024600234FF4EE
:10D9100040514FF400500CF018B90020009003461D
:10D920004FF48052704770B58CB004460D461346D4
:10D93000002604AA05A909A801F07CF8A0B12A468E
:10D9400001A902A801F0C8F870B105AA02A907A8A8
:10D9500002F060F90FF21800009007AB02AA05A9C7
:10D96000204602F09CF9012630460CB070BD000044
:10D970000000000000100000F0B587B014461D46FE
:10D980000846FFF731FBA54ED6F8B410012928DB75
:10D99000884226DA9D4F386B002803D5410008BF26
:10D9A000401C4042DFF8301D88421ADA97F909001E
:10D9B000B8B934F9101003AA090342F8201000AADC
:10D9C00035F91010090342F82010401C0328F0DB41
:10D9D00003A907F11C00FFF7A6FF0020F862C6F8B4
:10D9E000B40007B0F0BD10B586B00C460021009120
:10D9F00003462246DFF8E41C02A8F4F7EDF9BDF96E
:10DA00000800A042B8BF2046ADF8080000F03BF87F
:10DA10004FF48050009001464FF400600CF095F8F0
:10DA2000039000F030F8002000904FF480514FF444
:10DA300000600CF08AF800F021F8774C0FF2340007
:10DA400004F1300203A90CF0CBF87B48B4F9322082
:10DA500090F9031040F667639A4202DB39B901215D
:10DA600004E0B2F5006F02DA09B10021C17006B01E
:10DA700010BD0000CC0C33032800D70F0490022007
:10DA80000090012370470023BDF9080001904FF476
:10DA9000005270472DE9F04D074603F5006086B04F
:10DAA00000015A4C94F905B00192001402900091C3
:10DAB0000DF10E0304AA03A93846FFF75CFEBDF979
:10DAC0000C0094F9081094F90B2042B9BDF910200C
:10DAD000B2F5006F07DA31B90120207204E029B1F4
:10DAE0000021217202E009B1BDF9100040F6676A19
:10DAF00094F90510504502DB39B9012004E0B0F576
:10DB0000006F02DA09B100206071BDF90E1094F9BE
:10DB10000600514502DB38B9012004E0B1F5006F81
:10DB200002DA08B10020A071434D94F90900B5F95B
:10DB30001C10514504DB48B901206072607105E09A
:10DB4000B1F5006F02DA08B10020607294F90800A4
:10DB500000281EBF95F9080000280120E071002070
:10DB600094F905C0DFF8B0E00021BCF1000F07D048
:10DB7000D4E91423D61943EBE7780022034606E0E4
:10DB8000DEE918230026D219804643EBE773CEE97D
:10DB90001823C4E9146894F9092012B1002203463D
:10DBA00004E0D5E91623D21943EBE773C5E9162340
:10DBB000DEE91863DFF8242C834204DB01DC9642A3
:10DBC00001D3012605E0DEE91A010026C01941EB68
:10DBD000E771CEE91A012671BDF90C1095F906001E
:10DBE000514502DB38B9012004E0B1F5006F02DADB
:10DBF00008B10020A871E34504D05FEA0C0002D010
:10DC0000012000E0002006B0BDE8F08D58E50020BE
:10DC10006C240120C0CA0100E0270120181B01204C
:10DC200007ED0008E3EB0008F5E70008A037012046
:10DC300008AC2C00B81E0500E8230120C8E800202D
:10DC4000F83301202DE9F04F8046DFF8946BDFF8C0
:10DC5000947B0D460020F16B38708FB093469A4646
:10DC6000080008D0D6E91449189AD317A21849EB2E
:10DC70000303C6E91423C20748BF80F001008207EE
:10DC80000BD5D6E916490023DFF85C2B994504DB58
:10DC900001DC944201D380F0020042070BD5D6E9A3
:10DCA0001E490023DFF8442B994504DB01DC944234
:10DCB00001D380F0040002070BD5D6E914490023F4
:10DCC000DFF8282B994504DB01DC944201D380F076
:10DCD0000800F06300295DD000285BD1FFF788FAC7
:10DCE000B06B96F84010DFF8084BCDF82CA0400838
:10DCF00000F0010001F00101084380F0010040B292
:10DD00000E9007F114000D9004F168000C90C6E924
:10DD100012850FF29070099004F537700890C4E9ED
:10DD20001085B7F93000DFF8D0810790CDF828B022
:10DD300007F16800069004F51E7307F14400059092
:10DD4000424604F10C00049004F5BC7106F10C008D
:10DD50000390381D029004F53970019004F5267087
:10DD6000009004F11C000DF05BF8DFF8685D296895
:10DD7000C20710D4C80605D5012302220FF27C1178
:10DD800000F01AFAF06B40F00100F063306C40F4E0
:10DD900000703064A2E0387096F8402096F83800A1
:10DDA00002F0010200F0010082F0010210421CD0DA
:10DDB000002007EB800204EB8003526F5A6308EBEC
:10DDC000001307EB400203EB4003B2F83CC0A3F89A
:10DDD0005AC006EB4003B2F93420DA8204EB400368
:10DDE0005242401CDA820328E3DB96F84000C00769
:10DDF00007D5C80605D5012302220FF2741100F0E1
:10DE0000DBF996F84000800708D52878C00605D5CC
:10DE1000012302220FF28C1100F0CEF996F8400097
:10DE2000000708D52878C00605D5012302220FF285
:10DE3000B81100F0C1F996F84000C00608D528785E
:10DE4000C00605D5012302220FF2E41100F0B4F957
:10DE500096F84000800608D52878C00605D501232D
:10DE600002220FF2142100F0A7F996F840004006B4
:10DE700008D52878C00605D5012302220FF23C21DF
:10DE800000F09AF996F84000000608D52878C006F8
:10DE900005D5012302220FF2742100F08DF9306CB8
:10DEA000C00508D52878C00605D5012302220FF247
:10DEB000A42100F081F90C2106F13800F4F7AAFA48
:10DEC000B6F91C0040F60101884207DB306C40F0D7
:10DED00040003064F06B40F00200F0630FB0BDE82A
:10DEE000F08F0000EF1B1A00C824012078EE000814
:10DEF000176A0D00166A0D00181B01205245534584
:10DF000054204641494C202D2053656E736F72207A
:10DF10006461746120656974686572206572726FEE
:10DF20006E656F7573206F7220616E6F6D616C6FBF
:10DF3000757320656E6F75676820746F20636175F7
:10DF4000736520612062616420696E697469616C27
:10DF500020737461746520284D49643A253038581F
:10DF60002C204749643A25303258290D0A00000018
:10DF70005354415254494E47205448452047595222
:10DF80004F2D434F4D5041535320284D49643A255E
:10DF90003038582C204749643A25303258290D0A28
:10DFA000000000004779726F636F6D7061737320BA
:10DFB000726573657474696E672064756520746F2B
:10DFC000206D61672063616C6962726174696F6E54
:10DFD00020284D49643A253038582C204749643A66
:10DFE00025303258290D0A004779726F636F6D70C2
:10DFF00061737320726573657474696E67206475EC
:10E000006520746F206779726F2063616C6962723A
:10E010006174696F6E20284D49643A253038582C58
:10E02000204749643A25303258290D0A0000000083
:10E030004779726F636F6D7061737320726573657A
:10E040007474696E672064756520746F20747572CE
:10E050006E696E67206F6E20746865206779726FD5
:10E0600020284D49643A253038582C204749643AD5
:10E0700025303258290D0A004779726F636F6D7031
:10E0800061737320726573657474696E672064755B
:10E090006520746F206779726F2073617475726187
:10E0A00074696F6E20284D49643A253038582C2009
:10E0B0004749643A25303258290D0A004779726F72
:10E0C000636F6D7061737320726573657474696ECC
:10E0D00067206173206C61737420726573657420AE
:10E0E00077617320696E20616E20616E6F6D616C67
:10E0F0007920284D49643A253038582C2047496406
:10E100003A25303258290D0A000000004779726F15
:10E11000636F6D7061737320726573657474696E7B
:10E12000672064756520746F2072657363616C6924
:10E130006E67206661696C75726520284D49643A86
:10E14000253038582C204749643A25303258290D5B
:10E150000A0000004779726F636F6D7061737320FE
:10E16000726573657474696E672064756520746F79
:10E170002061206779726F2064656C746120746916
:10E180006D657374616D702067726561746572206E
:10E190007468616E2031207365636F6E6420284D52
:10E1A00049643A253038582C204749643A253032A2
:10E1B00058290D0A000000000020F4F759B92DE994
:10E1C000F8470EB4D4B0824600201A90ADF8700023
:10E1D0001B9003215698F2F773FBDFF82C1C884242
:10E1E000ACBF01200020DFF8288CDFF80456DFF8F0
:10E1F000F04588F8010095F90000002840F03481CE
:10E2000005F5BC701D90DFF8047C95F90500A8B9F0
:10E210008022394634A8F5F72BF8242205F11C0199
:10E220002BA8F5F725F81D99202223A8F5F720F84B
:10E23000102205F168011FA8F5F71AF895F90410E6
:10E24000002001B9012095F9091009B140F0020040
:10E2500095F9081009B140F0040095F90A1009B1C8
:10E2600040F0080095F90B1009B140F0100094F946
:10E27000031009B140F0200094F9041009B140F0F6
:10E28000400094F9051009B140F4807095F906102A
:10E2900009B140F4007095F9071009B140F48060AD
:10E2A000199005F52F711BA817901E910DF16A00AA
:10E2B000169018940DF16E0015901CA814901AA8D1
:10E2C000139005F52B7295F90300DFF81895629EFF
:10E2D00012900FF2D010119005F16800109005F126
:10E2E0000C000F9004F128000E9004F120000D9016
:10E2F00005F541700C9009F114000B9005F51E70A6
:10E300000A9005F50270099005F5CC700890079702
:10E31000DDE96001CDE9040155981E9B1D9902902D
:10E32000069605F549700090CDF804A005F11C0093
:10E330000CF032FF400702D500F0D3FCAEE095F9B7
:10E3400002000E9005F52D7395F901000D9005F171
:10E350001C0195F90A000C9005F168000B9005F17D
:10E360000C000A9008F13C00099004F1300008907C
:10E3700009F12000079005F52670069005F512704A
:10E38000059005F5EC7004900397029656981D9A37
:10E3900001901E98009005F184000DF0CBF8BDF9B6
:10E3A0006E103046FFF71FFB2B6BBDF97020BDF9D7
:10E3B00068103046FFF76EFBA8B1802234A93846BA
:10E3C000F4F756FF24222BA905F11C00F4F750FFA7
:10E3D0001D98202223A9F4F74BFF10221FA905F155
:10E3E0006800F4F745FF304600F07AF9559ABDF918
:10E3F0006C10BDF96A005346FFF7BEFA95F90500A7
:10E4000040B15498BDF9682000905346DDE96001A1
:10E41000C046C046D5E914010023DFF8F829994227
:10E4200012DC01DB90420FD218223146DFF8E809F6
:10E43000F1F7B8FE10F1807048BF00200146A86FC8
:10E440001822F1F7AFFE0EE01822314643F63010E5
:10E45000F1F7A8FEA96F4018DFF8C019A867884235
:10E4600002DBDFF8BC09A867102205F11C0105F1E9
:10E470005800F4F7FDFEE96F08000FD0D5E910232E
:10E48000DDE96060834209DC01DBB24206D2D4E9F7
:10E490001223C5E91223D5F88000884758B0BDE89B
:10E4A000F08700000000000000100000DFF8741981
:10E4B000D1E91223C0E90023704780B51022DFF8AC
:10E4C0006819F4F7C5FEDFF86409C16B00291EBFA7
:10E4D000006C40F20121084201D0002002BD012061
:10E4E00002BDDFF84819897901707047000000000B
:10E4F000DEE6FFFFF0B589B004460D4603A8002113
:10E50000DFF80869DFF81C79016003AB3088718897
:10E51000ADF80C0007F11C0203A84180B18881808E
:10E5200002A9708AADF81400B08AADF81600B08C5C
:10E53000ADF81C0007F10C00009001A801F094FD5B
:10E54000B86F18220146F1F72DFE01994018D6F850
:10E55000B4100818F1F77DFE019001AE7068F1F774
:10E5600078FE7060019820607068286009B0F0BD86
:10E57000F8B504460D4616469D4F009622462B469A
:10E58000012107F55C700AF0F8FFFEF701FE88B97B
:10E59000DFF8A428314607F15800FFF7C4F948B165
:10E5A000C7E91245F96F080004D0D7F88000BDE82C
:10E5B000F4400847F1BD10B582B0144602460B4640
:10E5C00000940221DFF874080AF0D7FFDFF8400852
:10E5D0002168416461688164A168C16413BDF0B5BC
:10E5E00004468BB00D4616461846FEF774FF7D486C
:10E5F0003168026D5118019101AF7168426D806DF3
:10E60000511879602246B168794E4018B8602B469F
:10E6100001A80090002106F55C700AF0AEFFC0076B
:10E6200031D4DFF8080890F83C0000072BD4D6E975
:10E630001001221A65EB0103002B24DC02DBB2F18E
:10E64000807F20D20198716B00EBA1000490796863
:10E65000B36B04A801EBA3014160B968F76B01EB50
:10E66000A701816007A804A901F030FC07A906F101
:10E670005800F1F776FEF16F080004D0C6E91245A4
:10E68000D6F8800088470BB0F0BD38B50446DFF8F7
:10E69000B057122204F1580105F10800F4F7E8FD23
:10E6A000032104F19400F3F75FFD68840C22DFF886
:10E6B000805704F1700105F16800F4F7C9FD0020EE
:10E6C00005EB80018A6E012ABCBFA7228A66401C26
:10E6D0000328F5DB31BD0000A01A4F01942401206E
:10E6E0002DE9F04304468DB000204FF006080021CC
:10E6F000DFF8183703EB001303AA02EB400233F8EC
:10E70000113008FB0122491C13800329F0DB401C57
:10E710000328ECDB0323032208A903A8F3F7B0FDC9
:10E72000002500AE08A808FB050030F91500F2F737
:10E730004AF9000346F825002D4856F8251000EB4D
:10E740004500B0F90C00002846BF404241FA00F0F5
:10E7500001FA00F046F825006D1C032DE2DB0321D1
:10E7600000A8F3F7F0FCDFF8A8961D4FDFF8D416E9
:10E7700097F90560D9E91C8500EB400088420FDB62
:10E78000B86B88B9FC6B0CB9FEF7BEFE0120B8630C
:10E79000386C40F40060386444F00400F86303E02F
:10E7A000DFF8A416884203DB9EB10020787110E0E8
:10E7B0007EB918EB040845EBE4750021DFF88C0600
:10E7C0008D4206DB01DC804503D301207871884649
:10E7D0000025C9E91C850DB0BDE8F083CECC4C0006
:10E7E000E82301206C2401200100000134333300B0
:10E7F00058E500202DE9F44FDFF8286604460D4661
:10E80000D6E9100196B04FF0000A002904BF002895
:10E81000C6E91045D6E91001201A14900020DFF84F
:10E820000C7697F90820014622B1D7E9188900F043
:10E83000F2F800E00023C7E9182397F909202AB16C
:10E84000149AD7E91A8900F0E7F800E00023C7E935
:10E850001A2397F90AB0BBF1000F04D0D7E91C893D
:10E8600000F0D9F801E000220346C7E91C23D7E9EC
:10E870001889DFF8DC25814505DB01DC904502D3F2
:10E880000122327007E030708145DFF8C82504DBD3
:10E8900001DC904501D3012200E00022B27297F919
:10E8A0000B202AB91498D7E91E23C1171018594113
:10E8B000C7E91E01002905DC02DBB0F1807F01D22F
:10E8C000012000E00020D7E91823F0725345DFF85B
:10E8D0007C0500F0A7F8B070D7E91A23DFF87805B7
:10E8E000534500F09FF8F070B0787070FEF750FC60
:10E8F000002800F08D80D7F880001499091844F2A0
:10E900008A10C7F880108142A8BF4FF0010A96F91B
:10E91000093096F9050018B15A1E9241D20F00E055
:10E9200000220D9152B296F90710DFF80805DFF8C2
:10E93000E0E49EF801E00B91129200F1A80C96F928
:10E940000B1096F90A200A9111928CF808B08CF8F5
:10E9500009E08CF80A30C0E92A4596F9061096F9C4
:10E9600004C0B7F91E2009911092BCF10103DFF831
:10E97000EC14DFF8BCC496F90020DCF880C00791E5
:10E980009B41DFF8BC1406910F92DB0F169905919D
:10E9900006F55972149904915BB206F10C010391CA
:10E9A0000E9207F10C010291089306F5397101915D
:10E9B0000090CDF84CC0CDF830A006F11C0306F154
:10E9C000680206F5BC7180300CF0B5FA400703D53B
:10E9D00017B0BDE8F04F84E1C6E91045BAF1000F69
:10E9E00003D00020C7F88000F88306F11C00B0E8CF
:10E9F0008C1006F15801A1E88C10F16F080007D0C7
:10EA0000C6E91245D6F8800017B0BDE8F04F0847B8
:10EA100017B0BDE8F08F149AD31718EB020249EB38
:10EA20000303704704DB01DC824201D301207047FD
:10EA3000002070472DE9F04186B00546884617460C
:10EA40000FF28844ABB972B60FF2B040DFF8105441
:10EA50000FF290420190234640F6A4000090C82196
:10EA60002846F4F7D3FB29460FF29C40F4F7BCFB91
:10EA7000FEE7B3E8061002A8A0E80610032102A8EA
:10EA8000F1F7DEFE06463E600027DFF8A40300EB48
:10EA900087000C22C06D3146F3F7B4FA00F5006030
:10EAA000001325F8170002A850F8270028F81700CF
:10EAB0007F1C032FE9DB022EA8BF012007DA2346C3
:10EAC0000FF2B4320FF24841FFF776FB002006B098
:10EAD000BDE8F081A836012070B586B004460D4629
:10EAE000B2B972B60FF21440DFF874430FF27843F4
:10EAF0000FF2F0320190C82140F6C200009020468B
:10EB0000F4F784FB21460FF20040F4F76DFBFEE7BB
:10EB10004ACA02A84AC0032102A8F1F772FE0146C0
:10EB20001822DFF84003F1F73DFBDFF83C13884281
:10EB3000AEBF47F6FF7100F500610913298000217F
:10EB400002AA52F8212002F50062121324F81120C3
:10EB5000491C0329F4DB0128ACBF0120002006B0CA
:10EB600070BD2DE9FE4304460D4616461A460A9826
:10EB70000B9900230DF1040950F823C051F82370BC
:10EB8000674407F500673F1429F813705B1C032BDB
:10EB9000F2DB002000903346DFF8748208F10C01AC
:10EBA000A01DF3F719F9002739F91720002A04D519
:10EBB000500006BF501C4242524200200090334693
:10EBC000062000FB078000F1140112B204EB47009D
:10EBD000F3F702F97F1C032FE6DBE0882880BDE80D
:10EBE000F7832DE9F0438BB080468946164604AA88
:10EBF00007A909A8FFF71EFF00286FD0324603A916
:10EC000005A8FFF769FF002868D00499854AA1F597
:10EC1000A0314FF48050B1F5703F0AD8116B002934
:10EC200003D54B0008BF491C4942904B9942B8BFDD
:10EC300000207E4EB083D6E91201002904BF0028CF
:10EC4000C6E91289D6E91201A8EB0007129C02F16D
:10EC50003400019000943A46BDF90C3078480DF12B
:10EC60000E01FFF77EFFBDF90E0043F66761884293
:10EC70000EDBB06B60B9F56B0DB9FEF745FC0120FA
:10EC8000B063306C40F48060306445F00400F063A1
:10EC900041F60101BDF90C008842ACBF0120002003
:10ECA000307109A8FEF766FC009707AB05AA40463D
:10ECB0004946FEF7C7FFF06B00281EBF306C40F2DC
:10ECC0000121084208D1CDE9008904990297234621
:10ECD00005AA07A8FFF773FAC6E912890BB0BDE8C9
:10ECE000F08380B50020FEF783FA5048816B41F035
:10ECF00002018163016C41F080010164C16B41F04C
:10ED00000401C16301BD80B50020FEF771FA4748D8
:10ED1000816B41F002018163016C41F480710164F7
:10ED2000C16B41F00C01C16301BD414BD0B101F594
:10ED300000600001001403D5410008BF401C4042A0
:10ED400000B2CD28A8BFCC2002DA0328B8BF032028
:10ED50008000D881188258821068186550685865FC
:10ED6000906807E04FF48A70D8811882588200209A
:10ED70001865586598657047002B18BF012B0AD09D
:10ED800011682B4801F500610913018690F9011003
:10ED900019B901214170FEF76FBB7047FEB52349D9
:10EDA000234C91F840101D460646C90701D4012E98
:10EDB0001BD11168236D676DC91A009100A95368B2
:10EDC000DB1B4B60A76D9368DB1B8B602968FFF72B
:10EDD000ACFF032100A8F1F773FD2549884204DB4D
:10EDE000012E02D1FEF768FBF7BD032E09D168683A
:10EDF000012806DB1F49C4F880008842B8BFC4F868
:10EE00008010F7BD00000000413F2403181B0120C3
:10EE1000E02701200100000A000080FFB61F9201D8
:10EE2000B51F920158E50020B0E50020E82301203D
:10EE30006C240120181B012024280120C8E8002090
:10EE4000A0370120290FAB006766160001000005FE
:10EE50000100001E0100000301004000F833012002
:10EE6000E8200120EF1B1A0001F0FF07989A6601C5
:10EE700019571600AE470100433A5C5F525645529F
:10EE80004D415F444154415C4749545C73656E7326
:10EE90006F722D6875625C616C67735C7372635C22
:10EEA00061747469747564655C4779726F436F6DE2
:10EEB00070617373416E6F6D616C79436F6D7045F6
:10EEC0006E73656D626C652E630000004765744D5E
:10EED00061676E65746F6D657465724461746141DC
:10EEE000734E54004153534552543A2025732825FC
:10EEF0006429202D205B25735D000000646174612E
:10EF000020213D203000000025730D0A0000000084
:10EF10004D61676E65746963206669656C64206E17
:10EF20006F726D20697320612074696E79206E752F
:10EF30006D6265722E20204E6F74207573696E6746
:10EF4000206D61676E65746F6D65746572206D65A7
:10EF500061737572656D656E7420282573203A3A69
:10EF6000202573290D0A0000476574416363656CB1
:10EF700065726F6D657465724461746141734E545E
:10EF80000000000018220846F1F70CB98246F96823
:10EF900038681822F1F706B90746A8681822014612
:10EFA000F1F700B92DE9F04F074683B00C4615463E
:10EFB000F968B8681E46FFF7ECFF83467968FFF7EB
:10EFC000E7FF00EB0B083868FFF7E8FF7968834636
:10EFD000FFF7D8FF00F0DDF800F0D5F88146B968FA
:10EFE0007868FFF7D6FFFFF7D1FF00EB0A0100F0CA
:10EFF000E3F80199009A5944891A00F0BBF800F02F
:10F00000D5F820608048804503DB4FF4B4202860A9
:10F0100006E07E48DFF8F8B1804503DAC5F800B0B5
:10F0200000208FE03868FFF7B9FF80467868FFF767
:10F03000B5FF009000F0AEF8019000F0A5F8814611
:10F04000B9687868FFF7A5FFFFF7A0FFAAEB0001FA
:10F0500000F0A7F80099019AA8EB0101511800F0FF
:10F0600089F800F0A3F820601822F968B868F1F771
:10F0700099F879688046FFF78BFF00EB080100F0F4
:10F080009BF8F2F7C1FB00F091F8286000F076F8E9
:10F0900080467868FFF782FF00F07BF800F073F895
:10F0A0008146F9687868FFF774FF8246B968FFF710
:10F0B0006FFFAAEB000100F074F80199009AA8EB29
:10F0C0000101891A4944F2F746FA00F06FF83060FE
:10F0D00000F054F880467868FFF760FF8146B86812
:10F0E000FFF75CFF8246F868FFF758FFA8EB0902BC
:10F0F0002968A2EB0A02801848BFC1F53421B1F596
:10F10000342FA8BFA1F5B4113E488142B8BF01F524
:10F11000B411296001F5B421B1F5342F03D9216868
:10F1200001F53421216031685945B8BF01F534211A
:10F13000B1F5B42FA8BFA1F534213160814202DAC4
:10F1400001F5B41030602068C0F5B4102060286864
:10F15000404228603068404230602068002848BF44
:10F1600000F5B410B0F5B41FA8BFA0F5B41020602E
:10F17000BDE8F78FA1EB0901F2F7EDB91822386865
:10F180000146F1F70FB800901822F8680146F1F730
:10F1900009B801901822B8680146F1F703B8ABEB43
:10F1A000000118224FF07E40F0F7FCBF18221449EE
:10F1B000F0F7F8BF00EB0B0118224FF00070F0F7EA
:10F1C000F1BF38B504462068E168124D411A00F0DD
:10F1D00025F8206018226068A168411A00F01FF825
:10F1E00060600D4DA16800F019F861684018A060DA
:10F1F0001822E16800F013F821680818E06031BDBA
:10F20000BA94030000C0F4FF78BE7F00894180FFFC
:10F210000060FAFFF304B500E6096A0118222846E7
:10F22000F0F7C0BF70477047DFF880090160704792
:10F23000DFF87C1948637047DFF87819C8607047B9
:10F24000DFF868194860704770B5DFF868490FF259
:10F250000161002204F110000CF04CFADFF858595B
:10F26000A96804F110000CF0ABFA00210FF2A550D0
:10F270000CF0EEFBDFF84449201D0CF021FC0022CD
:10F280000FF2F1010FF23160FDF7B8FEDFF83069DF
:10F29000696832682068FDF789FF05F10800FEF70C
:10F2A00084F9201DFEF787F9301DFEF74EF9204640
:10F2B000BDE87040FFF7E9B938B5DFF8FC480FF258
:10F2C000496104F1A805002228460CF013FAA16850
:10F2D00028460CF075FA04F51E70BDE834400FF2B4
:10F2E00061610CF056BD70B5DFF8C4380D0003D075
:10F2F00014001CBFD9631A6472B64FF00051DFF8D6
:10F30000C4680A780C7882F0050254400C700C78BE
:10F310000D78754362402D030A7062B629680FF6B6
:10F32000EC02126821F47021914216D029680FF680
:10F33000E002126821F4702191420ED0DFF88808B3
:10F340000078C00613D5BDE8704001234FF40022B9
:10F350000FF68C010020F3F78BB8986300F020FBC8
:10F3600000F046FBFFF770FFBDE87040A4E770BDFA
:10F370000000000008461146DFF83428936B1A009D
:10F380001CBF00221847704738B5DFF824580446E0
:10F39000E86B8047DFF8343805EB841140224431B4
:10F3A00003EB8410F3F754FF286CBDE832400047AC
:10F3B00070B5DFF8FC670446F06B9AB080476422B2
:10F3C00014FB026000F5A27100A8F3F741FF06EB01
:10F3D000C400D0E90445306C8047736B180003D03B
:10F3E00000AA2046294698471AB070BD2DE9F0477B
:10F3F000DFF8BC47E06B8047256B206C8047002D11
:10F4000000F08880002615F4D05F03D0284600F075
:10F4100094FB0646A80704D50020FFF7B5FF46F089
:10F420000206DFF8A877E8070ED50120FFF7ACFF4A
:10F4300097F97C3007F1640207F1700107F1400091
:10F44000FFF79AFC46F00106680704D50220FFF793
:10F450009BFF46F00406280727D50320FFF794FFFB
:10F46000280620D597F9BC0007F1C00807F1F0097C
:10F4700007F1E40A012804BF97F9FC00032805D12D
:10F4800053464A4641460120FFF788FC97F9FC00A5
:10F4900053464A464146FFF781FC97F9FC004A462D
:10F4A00041460CF084FB46F00806A80604D500206F
:10F4B000FFF77EFF46F02006E80604D50120FFF79F
:10F4C00077FF46F01006680604D50220FFF770FFAC
:10F4D00046F04006280604D50320FFF769FF46F0F2
:10F4E0008006E8050DD5E06B804704F54E702EC808
:10F4F0002EC4103C206C8047A068C046C04646F42D
:10F500008076E06B8047206BB0432063206CBDE8C1
:10F51000F0470047BDE8F087F0B5A9B004460126E2
:10F52000002719B900A800F042F800AC214619A83C
:10F530000CF056FDDFF8785694F9601005F535703B
:10F54000642289B1022913D002D3032906D00EE028
:10F550002146F3F78DFE4FF4C06709E02146F3F72B
:10F5600087FE4FF4805703E04FF4006700E0002669
:10F57000E86B8047286B3843400A4002286396B105
:10F58000402294F9600005EB801019A94430F3F78C
:10F590005FFE94F96030DFF83406402219A900EBD1
:10F5A0008310F3F755FE286C804729B0F0BD642125
:10F5B000F2F74ABF90F9A010A422012904D011D378
:10F5C00003290AD004D370470146DFF8F40507E0A9
:10F5D0000146DFF8FC05F3F73BBE0146DFF8DC052A
:10F5E000F3F746BE7047B0B588B0044605200D4617
:10F5F00017468DF80400FFF7F9FE3A46DFF8C0150C
:10F6000002A800F017FA02A800902246DFF8A475BD
:10F610002B4607F110000CF0E1F802A8B0E80C103E
:10F6200005A9A1E80C109DF80400DFF898150FF269
:10F63000DC52484300030168126821F470219142B2
:10F6400015D000680FF2C851096820F47020884274
:10F650000DD0DFF874050078C00615D501234FF4EE
:10F6600000220FF27C510020F2F702FF0CE005AA05
:10F6700020462946FEF77CFFF968080004D005A85B
:10F6800000F09DF80120884708B0B0BDF0B587B004
:10F6900004460D461646FFF7A9FE3246DFF8301540
:10F6A00000F0A3F801A800902246DFF808652B4679
:10F6B00006F110000CF0CCF801A88CC804A9204673
:10F6C0008CC104AA2946FEF776FFF168080004D031
:10F6D00004A800F074F80220884707B0F0BD2DE9B7
:10F6E000F043164687B089463168DFF8D074044687
:10F6F00001F500613A69002009138A42A6BFFA6940
:10F700009142012071687A6901F5006109138A420A
:10F71000A3BF3A6A91420021012141EA0008B06882
:10F72000B96900F5006000138142A3BF796A88427D
:10F7300000250125FFF75AFE3246394604A800F09D
:10F7400079F9DFF8886404AA06F1800101A800F0C5
:10F7500060F945EA080301AA20464946FEF73FFF43
:10F7600004AA06F1C00101A800F053F901AA20463D
:10F7700049460CF0C1F9DFF83C04C168080005D027
:10F7800001A8009022464B460320884707B0BDE8F9
:10F79000F08370B588B000F02AF83246DFF8201404
:10F7A00000F023F800F00AF8DFF828040CF016F84F
:10F7B00001A81CC804A91CC108B070BD01A8009014
:10F7C00022462B467047F0B585B000F010F8DFF800
:10F7D000E8733246391D00F008F8FFF7EFFF07F134
:10F7E000A8000CF035F805B0F0BD01A822E10446F0
:10F7F0000D4616468FE17FB5FFF7F9FF3246DFF879
:10F80000BC13FFF7F2FFFFF7D9FFDFF8CC030CF0D2
:10F81000B7FB7FBD10B586B000A80CF0C9F902A8EF
:10F820000CF0CCF9DDE9000102AAFDF72FFFDFF8AB
:10F8300084038468200004D0DDE90001052302AAC6
:10F84000A047BDF80800DFF87013088006B010BDAF
:10F8500030B589B0DFF85C4302A904F110000CF068
:10F8600067F805A904F110000CF066F800A904F18E
:10F8700010000CF058F8DDE9000102AA0CF087F93D
:10F88000DDE9000102AAFDF74CFFDDE9000105AA50
:10F89000FDF75CFF6568280004D0DDE90001052361
:10F8A00002AAA8472468200004D0DDE9000105234E
:10F8B00005AAA04709B030BD30B589B000208DF849
:10F8C0000400009002A8FEF7F1FD04A8FEF7F5FD84
:10F8D00001A8FEF706FEB54C2568280004D0DDE936
:10F8E0000201042304AAA847646820000AD09DF9F5
:10F8F000040008B14FF0807000900123DDE902019F
:10F9000000AAA04709B030BD30B5AB4C8BB004F1B4
:10F91000A80502A928460CF006F804A928460CF010
:10F9200007F807A928460CF007F8B4F90000009082
:10F93000DDE9022304F51E700CF02DFA0BB030BD8A
:10F9400000B5D5B03BAA00A9A3480CF0D4F96422B5
:10F950003BA922A8F3F78CFC01208DF8E9000021D7
:10F960000020289028A84160816002208DF8E800DE
:10F970003BA912A80CF034FB22A902A80CF030FB22
:10F9800012A9032000F074F802A9022000F070F818
:10F99000DDE900013BAB032200F090F855B000BD5B
:10F9A000F8B58A4C4FF48076002231462046F3F7B2
:10F9B000CFFC7F4D0022314605F14400F3F7C8FC2F
:10F9C00000204FF0807100220C26564304EB801774
:10F9D000F71947F8221005EB80174437F61946F857
:10F9E0002210521C032AEFDB401C0428EBDBF1BD84
:10F9F00070B56F4C10250026002229462046F3F7EB
:10FA0000A7FC3246294604F54E70BDE87040F3F776
:10FA10009FBC30B583B000F022F82846F2F764F8B6
:10FA20002068296B08182060696B6068081860609E
:10FA3000A96B10E030B583B000F011F805F1280093
:10FA4000F2F752F82068E96C08182060296D6068A8
:10FA500008186060696DA0680818A06037BD04468A
:10FA600003200D4601900090114603232246704763
:10FA7000F8B504460D46002634B1022C08D005D353
:10FA8000032C08BF082604E0022602E0012600E05D
:10FA90000426474FF86B8047386B10F4F05F08D1AD
:10FAA00030433863402207EB841029464430F3F793
:10FAB000CFFBFFE7386CBDE8F24000472DE9F84383
:10FAC0000446884616469946002736B1022E08D0CD
:10FAD00005D3032E08BF802704E0202702E010276B
:10FAE00000E04027324DE86B8047286B10F4F05F50
:10FAF0000DD138432863642216FB0250494600F5B5
:10FB0000A270F3F7A5FB05EBC600C0E90448286C1A
:10FB1000BDE8F243004710B5254C206B40050BD5DE
:10FB2000FFF7CAFBE06B8047206B20F48060206306
:10FB3000206CBDE81040004710BD30B591B00446C0
:10FB40000025FFF781FB200548BF4FF4006529D44D
:10FB5000A0050CD51D4890F97C3000F1640200F13D
:10FB600070014030FFF708F94FF400751AE0E00427
:10FB700018D51A4C214600A80CF032FA0122214671
:10FB800015480CF017FA9DF93C0009AB0CAA00A926
:10FB9000FFF704F99DF93C000CAA00A90CF007F846
:10FBA0004FF48055284611B030BD0000603C012064
:10FBB00008790020D0030120E0FD0020C41D0120B1
:10FBC000201D0120DACC0200A8360120D41101202A
:10FBD000E4FD002088FE002058000120DC7B00208E
:10FBE0000D0A556E6B6E6F776E204572726F7221C3
:10FBF0000D0A20284D49643A253038582C204749B1
:10FC0000643A25303258290D0A00000013640010B0
:10FC10003364001030B5044687B00846154602A983
:10FC2000002200230CC100A90CC14FF48051218097
:10FC300011466180A18030F8112002AB23F8112019
:10FC400000AB35F8112023F81120491C0329F2DB01
:10FC50000321F0F738FE05281EDB03212846F0F7C4
:10FC600032FE052818DB00F0A8F8032100A8F0F701
:10FC700002FE032200A902A8F0F73DFE054604AAF1
:10FC800000A902A8F0F76AFE00F093F82080002097
:10FC90006080A580012000E0002007B030BD10B5D5
:10FCA00086B004460898009001A800F006F801A963
:10FCB0002046F0F7D3FC06B010BD2DE9F04399B013
:10FCC0000446209800270DF110080DF1180931F8AD
:10FCD00017500AAE26F8175008AE32F8175029F818
:10FCE000175033F8175026F8175030F8175028F8E7
:10FCF00017507F1C032FEADB032108A8F0F7BBFD98
:10FD000000F057F803210AA8F0F7B5FD032106A873
:10FD1000F0F7B1FD02AA04A908A8F0F71FFE00F051
:10FD20004CF80CAA02A904A8F0F718FE0020062738
:10FD30000CAD02AE13AB07FB00F138F81020CA522D
:10FD400013AA00F02CF8F6DB02AA06A90AA8F0F71D
:10FD500005FE00F032F80CAA02A906A8F0F7FEFD95
:10FD600000200EAB07FB00F139F81020CA520EAA92
:10FD700000F015F8F6DB03210EA8F2F779F803205E
:10FD800001900090032322460EA913A8F1F74DFD20
:10FD900003212046F2F76CF819B0BDE8F08389180A
:10FDA00036F810204A8035F810208A80401C03283D
:10FDB0007047032104A8F0F75EBD032102A8F0F705
:10FDC0005ABD70B586B004460D461646194600A8C1
:10FDD000F0F737FB0020062200A902FB00118988FA
:10FDE00025F81010401C0328F6DB002036F8101010
:10FDF00035F81020891A24F81010401C0328F5DB70
:10FE000006B070BD2DE9F44F0D468CB0044628684D
:10FE1000984600F057F88146696800F01FF90646D9
:10FE2000A96800F01BF90746A968686800F017F98F
:10FE30006968824618220846F0F7B4F9834600F054
:10FE400040F809F18071029102A9AA68B21A4A60C9
:10FE500000F180706A68D2198A600323AA68921937
:10FE600005920BF1807206922A68AAEB02020792B1
:10FE70006A68BA1A8A61224629680A9051440120A8
:10FE8000019009910320009002A80C99F1F768FDF8
:10FE9000206800F09DF820601822606800F099F852
:10FEA00060601822A06800F094F8A06040102168FB
:10FEB00049102160616849106160A0600DB0BDE823
:10FEC000F08FA86818220146F0F76CB9FEB50D4610
:10FED00004461646286800F013F84010009000AF62
:10FEE000686800F00DF8401078601822A86800F0EB
:10FEF00008F84010B86000A92046F0F7F4F9F7BD03
:10FF000018223146F0F74EB92DE9F04792B0044679
:10FF10000D4616461A460CA8002100230F468AC03B
:10FF20001A9F7B100CA906A8FFF76CFF7B103246C6
:10FF300006A903A8FFF766FF3B46324603A900A8BF
:10FF4000FFF760FF3B462A4600A90FA8FFF75AFFBC
:10FF500006980099DFF80C5108180399890001EB05
:10FF600040000F99091800F02FF809900DF10008D2
:10FF70000DF1180AD8F80410DAF804000DF10C0994
:10FF80000818D9F804100FAF890001EB4000796818
:10FF9000091809AE00F018F870601822DAF80800A5
:10FFA000D8F808100818D9F80810890001EB4000AB
:10FFB000B968091800F009F8B06009A92046F0F7FF
:10FFC00092F912B0BDE8F08718222846F0F7EAB897
:10FFD00018224146F0F7E6B830B50D4683B00FF26F
:10FFE0001C4104460CC900A80CC0B5F9000000284B
:10FFF00003D5410008BF401C4042B5F90410002958
:020000021000EC
:1000000003D54A0008BF491C49420818B0F5006FE3
:1000100006DA4FF48050ADF800000020ADF8020081
:10002000224600A92846F0F799FC03212046F0F764
:1000300022FCA21D21462846F0F790FC0321A01DBA
:10004000F0F719FC04F10C02A11D2046F0F786FC24
:10005000032104F10C00F0F70EFC37BD28681822CC
:10006000F0F7A0B8AAAA2A00F0B5A3B004460D463E
:1000700017461946122216A8F3F7EAF87968386885
:10008000BA68FB6801F50061090109144F42ADF837
:100090006C70ADF81C7002F5006203F5006300F5AA
:1000A000006012131B130DF16C0C07AF0013C2F1AB
:1000B000000E5E42ACF80200ACF80430ACF806E08A
:1000C000ACF808E0ACF80A60ACF80C00ACF80E1024
:1000D000ACF81060ACF81220ACF814E0ACF81600E4
:1000E000F880BB81A7F812E0A7F802E03E81F88112
:1000F000B982BE80F8827A8103200190A7F810E0CF
:1001000004200090032302AA07A91BA8F1F78DFB86
:1001100028990323032216A8F1F703FF00F069F9D9
:1001200007AA02A916A8F1F780FB122207A902A8C4
:10013000F3F79EF8032102A8F1F79AFE00F059F9AF
:100140000DAA07A902A8F1F7A1FB11990D9A15981C
:100150009142B8BF11462060296023B0F0BD2DE95F
:10016000FF4FA7B00FF29C210CC908A80CC035990D
:10017000062202A8F3F76CF83699062204A8F3F7D2
:1001800067F8FFF71AFEFFF714FE02AA04A906A8F3
:10019000FFF740FD002800F0FA80BDF9DC00800088
:1001A000B0F52E7FC8BF4FF42E70BDF9181000298E
:1001B00003D54A0008BF491C49428142C0F2E7808A
:1001C00008A8009006AB04AA02A922A8FFF767FDC1
:1001D000DDF8E4A0002400251CAE1FAF0DF10808D7
:1001E0000DF11009389830F9151038F91500F0F7AD
:1001F0005BFC834647F825B03AF9151039F915002C
:10020000F0F752FC46F82500002805D5410012BF42
:100210004142411C494200E001468C4207DA002875
:1002200004D5410008BF401C444200E00446BBF135
:10023000000F08D55FEA4B0012BFCBF100000BF1B5
:100240000100404200E0584684420CDABBF1000F46
:1002500008D55FEA4B0012BFCBF100040BF101009F
:10026000444200E05C466D1C032DBBDB2046F0F7EA
:1002700081FCA0F10D04012C0EDB002557F82500B0
:10028000204128F8150056F82500204129F81500CE
:100290006D1C032DF2DB00E0002402A90AA8F0F790
:1002A0000AF804A90DF13A00F0F705F80322062137
:1002B0000AA8F1F789FB032203210DF13A00EFF7B9
:1002C000DBFF03231A460AA90DF13A00F1F780FC7F
:1002D00012220DF13A010AA8F2F7BAFF03210AA887
:1002E000F1F7C6FD00F085F813AA0AA90DF13A004E
:1002F000F1F7CCFA012600270C2513A805FB07000F
:10030000B846009013A800EB870905FB0890A7F1F9
:10031000010BD0F800A010E013A905FB0BF001EBD6
:1003200088011822415850F80900EFF73BFFAAEB6B
:10033000000AABF101000FFA80FBBBF1000FEBD517
:1003400047450BD1BAF1010F01DA00261BE05046F8
:10035000EFF77FFF009941F827000DE01822009881
:1003600050F827105046F1F74DFE009941F828004B
:1003700005FB08910020086008F101000FFA80F8E1
:10038000B8F1030FBEDB7F1C032FB6DB0EB90020D4
:100390002CE03A9800210022279B00FB01F603EB9A
:1003A000460313AE05FB016656F8226006F50066AB
:1003B000361323F81260521C032AEDDB491C032973
:1003C000E9DB0025289820F815406042299921F89A
:1003D00015006D1C032DF5DB3498062206A9F2F7F3
:1003E00037FF22A83CC82A9901203CC12BB0BDE8A8
:1003F000F08F03200190009003467047000000102A
:1004000000000000000000000010000080B5F6F7BA
:10041000AFFDDFF814180860012002BD80B5FAF7BF
:1004200063FCDFF80818D1E90023801A02BDF8B593
:100430000446A069E1684518B5F90000B5F90270F5
:10044000B5F90460B4F85810411A2980B4F85A106C
:10045000791A6980B4F85C10711AA980B5F9001096
:10046000C913B1EBE03F13D0B4F95810C913B1EB85
:10047000E03F0DD00FF2D070F3F722F8B5F900008D
:10048000012802DBDFF8A80701E047F6FF702880AB
:10049000B5F90210C913B1EBE73F13D0B4F95A1004
:1004A000C913B1EBE73F0DD00FF2A870F3F708F8CE
:1004B000B5F90200012802DBDFF8740701E047F616
:1004C000FF706880B5F90410C913B1EBE63F13D093
:1004D000B4F95C10C913B1EBE63F0DD00FF2807098
:1004E000F2F7EEFFB5F90400012802DBDFF8400760
:1004F00001E047F6FF70A88094F90800002804D1B5
:10050000002000E0401C0328FCDBF1BD00000000DF
:100510003EB500A90022134614461CC18169C26879
:10052000891890F90820052A80F093801446012C40
:1005300002D9E41E40F08980002A01D14FF6FF73F2
:10054000DFF8E4462468141994F88440641E062CED
:100550005ED8DFE804F004101D2936424F00B1F9DF
:100560000240009400ACB1F900505B1B6360B1F92C
:100570000430A36056E0B1F900401C1B009400ACAD
:10058000B1F902505B1B6360B1F90430A36049E02C
:10059000B1F902401B1B009300ACB1F9003063605D
:1005A000B1F90430A3603DE0B1F900401C1B009498
:1005B00000ACB1F902506560B1F904505B1BA36057
:1005C00030E0B1F90240009400ACB1F90050656030
:1005D000B1F904505B1BA36024E0B1F90040009422
:1005E00000ACB1F902505D1B6560B1F904505B1BB2
:1005F000A36017E0B1F902401C1B009400ACB1F9F4
:1006000000505D1B6560B1F904505B1BA36009E0FD
:10061000B1F90030009300ACB1F902306360B1F978
:100620000430A360012A0AD1002306E054F82350C5
:1006300005F30F0544F823505B1C032BF6DB009BEE
:100640000B8063684B80A3688B80002A01D1FFF781
:10065000EEFE01203EBD000070B52DED028B82B094
:100660008169C2688A1890F9081008460A2800F2C1
:100670009780DFE800F0062B73959565959595803A
:100680008E00B2F90240B2F90450DFF89C05006810
:100690009FEDBF0AB2F9001000EE901AF8EEE00AE2
:1006A00060EE800AC0ED000A00EE904AF8EEE00A23
:1006B00060EE800AC0ED010A00EE905AF8EEE00A02
:1006C00020EE800A001D80ED010A6DE0B2F90240C3
:1006D000B2F90450DFF850050068061D9FEDAD8BA0
:1006E000B2F9000000EE100AB8EEC00A10EE100ACF
:1006F000F3F75AFD53EC182BF4F722FCFBF748FDF7
:10070000B06000EE104AB8EEC00A10EE100AF3F71F
:100710004BFD53EC182BF4F713FCFBF739FDF0609D
:1007200000EE105AB8EEC00A10EE100AF3F73CFDC6
:1007300053EC182BF4F704FCFBF72AFD306133E08F
:1007400000200090106800909DED000ABAEECA0AE1
:10075000DFF8D404006880ED0C0A25E0DFF8C80457
:1007600000681188A0F85A1000F25A0051884180A0
:100770009188818018E0DFF8B004006800F25A0028
:100780001188C1805188018191884181D1888181FE
:100790000AE0DFF894040068118880F8681003E02C
:1007A0000FF2C840F2F78CFE012002B0BDEC028BC4
:1007B00070BD70B50D46DFF87C1451F8204000265E
:1007C000207F002801D1304670BD607A002803D018
:1007D000206E8068804706462846216EC969884792
:1007E0000546002E02D0206E40688047284670BD26
:1007F0009B0701D542F2107292FBF1F190F8222092
:1008000051430069814201DA01207047002070479E
:10081000002901D48164C164002A03D4910701D561
:1008200080F820207047002903D4002181644161B1
:1008300081617047042817D101F10C008A7A012ADE
:1008400009D0072242750B228275DFF8EC23CA60BB
:100850000B21416070471522427519228275DFF81D
:10086000DC23CA601921416070472DE9F2438AB048
:100870000546144619460020ADF8220001900A20D2
:100880008DF8080000208DF809008DF80A00A946AF
:10089000B9F1170F45D22E46DFF8980350F82670AD
:1008A0004FF00208387F00283BD09DF94820002AED
:1008B00008D4D00706D513460A460A993846FFF7EA
:1008C00097FF61E03846FFF7A3FFA9F10C00062867
:1008D0000BD22946C9B20AA83A6E926990470C2EEB
:1008E00001D0112E01D114200A9039462846FFF775
:1008F000A1FF787A00281CD1214649B238467A6E89
:100900001268904700280ED0386E40688047002853
:1009100005D14146A1F10108C9B20029F4D100284E
:1009200001D1002030E0214649B238467A6E526843
:100930009047787A401C7872224652B20A9938461B
:100940007B6E1B69984700F0E4F8072E0CD1002C51
:100950000AD100208DF80000112001900A208DF8A6
:10096000080000A8F5F720FD162E0CD1002C0AD1A6
:1009700000208DF800002C2001900A208DF808003E
:1009800000A8F5F711FD01200BB0BDE8F0830000D1
:1009900033712B3A90D87D684B10333F2DE9F041ED
:1009A0008AB005460E46144619460020ADF82200CE
:1009B00001900A208DF8080000208DF809008DF8BC
:1009C0000A00172D07D29B4850F825704FF00208F7
:1009D000387F002801D100204BE03846FFF723FF85
:1009E000787A012818D1214649B238467A6E926841
:1009F000904700280AD0386E80688047002805D1CB
:100A00004046A0F10108C0B20028F4D1214649B205
:100A100038467A6ED2689047787A002801D0401E16
:100A20007872224652B2314638467B6E5B699847EF
:100A300000F06FF8072D0CD1002C0AD101208DF8A1
:100A40000000112001900A208DF8080000A8F5F799
:100A5000ABFC162D0CD1002C0AD101208DF8000022
:100A60002C2001900A208DF8080000A8F5F79CFCC6
:100A700001200AB0BDE8F0812DE9F84304460D4697
:100A8000164619462746172F1DD26A4850F824806B
:100A900098F81C00002816D09DF92020002A09D4BF
:100AA000D00707D513460A462946404601B0BDE89F
:100AB000F0439DE606EB460008EB8009D9F83800C4
:100AC0008068002801D5002021E04046FFF7A0FE05
:100AD000324652B2D9F8380081684046D8F86430BE
:100AE0005B699847324652B229464046D8F864308E
:100AF0001B699847A7F10C00062805D22946204615
:100B000008F05CFB012002E000F003F80120BDE8E2
:100B1000F28370B56FF000452C464948016804E047
:100B20008A68A24200DA144609688142F8D1454E2B
:100B30003078401C30707078F021084202D0992043
:100B4000FAF780F9FAF7EBF97078401C7070AC4254
:100B500000D1002434480168CC67D1F880202046B9
:100B600082420BD0002801D0002A04D1C1F88000B5
:100B7000F2F782FC02E001200BF082FA7078F0219B
:100B8000084202D09920FAF75DF97078401E707023
:100B9000C0B2002801D1FAF7BCF9F3F7EAF9012055
:100BA00070BD38B50546274C2078401C2070607811
:100BB000F021084202D09920FAF744F9FAF7AFF988
:100BC0006078401C607018480068C0F880501C486D
:100BD000016805E08A68B2FBF5F26A43CA600968F9
:100BE0008142F7D16078F021084202D09920FAF7CB
:100BF00029F96078401E6070C0B2002801D1FAF770
:100C000088F9BDE83140F3F7B4B90D490A6808E046
:100C10001369012B01DAD368136113691B1A13617D
:100C200012688A42F4D17047843C0120F03B0120D5
:100C30000080FFFF08400020305000204039012094
:100C40007C400020A480002058206973206F7665C6
:100C50007200000059206973206F766572000000F1
:100C60005A206973206F7665720000005543535413
:100C7000282564294E5300004FF0FF31801E0128C3
:100C800012D9C01E04280FD9801F06280CD9083895
:100C90000AD0801E042807D9401F03D0401E112807
:100CA00002D902E0072100E001210846704780B523
:100CB00001460020C91E18D0C91E16D0C91E14D066
:100CC000C91E012911D90D3903290ED9091F05D0D3
:100CD000491E0AD0C91F032907D902BD1D210FF2E1
:100CE0001000F2F7EDFB012002BD012002BD000063
:100CF00050443A204C4C53202564000038B504463B
:100D00004FF0FF35F5F77AFA2C2C36D8DFE804F0EF
:100D100030353430303430303434353019341717FE
:100D20003030353435303030193034303430301CD8
:100D30001F23272B2E343434343432343400C82566
:100D40001BE04FF47A7518E0D0F8DC5415E000F29F
:100D5000DC40856A11E000F2DC40056D0DE000F238
:100D6000DC40856F09E0D0F87C5506E00A2504E0F8
:100D7000422502E0052500E01425284632BD38B59D
:100D8000DFF81C4AF6F7F4F8E0620BF07FF9F5F7AC
:100D900035FA2063002512E0DFF8081A0161DFF858
:100DA000081A4161DFF8042A8261DFF8042AC2616F
:100DB000DFF8002A02624162406A80476D1C2D2DD7
:100DC00080F21F81216B05EB8500C0000022425498
:100DD000401842704FF0FF32426000220272C2603F
:100DE0004272032D04D17431DFF8CC298A62E3E723
:100DF000022D03D1DFF8C4294A67DDE7002DCBD0EF
:100E0000042D04D17431DFF8B8290A65D4E7052D23
:100E100004D17431DFF8AC298A67CDE7062D04D1FF
:100E2000DFF8A429C1F81421C6E7072D05D101F583
:100E30008A71DFF898298A62BEE7082D05D101F58D
:100E40008A71DFF88C290A65B6E7092D05D101F50D
:100E50008A71DFF880298A67AEE70A2D9CD00B2DB6
:100E60009AD0012D98D00C2D04D1DFF86C29C1F84F
:100E70000422A1E70D2D05D101F50171DFF85C29F0
:100E80008A6299E70E2D05D101F50171DFF850292D
:100E90000A6591E70F2D05D101F50171DFF84429AD
:100EA0008A6789E7102D04D1DFF83C29C1F8A42214
:100EB00082E7112D04D1DFF83429C1F8CC227BE779
:100EC000122D3FF469AF142D3FF466AF132D3FF49C
:100ED00063AF162D3FF460AF2B2D3FF45DAF152DA2
:100EE00004D1DFF8142AC1F86C2365E7172D05D16A
:100EF00001F55B71DFF80C2A0A655DE7182D05D155
:100F000001F55B71DFF8002A8A6755E71A2D05D1D4
:100F100001F20C41DFF8F4298A624DE71E2D05D15C
:100F200001F2AC41DFF8E8298A6245E7192D04D1C6
:100F3000DFF8E029C1F80C243EE71F2D05D101F2AE
:100F4000AC41DFF8D4290A6536E7202D05D101F23E
:100F5000AC41DFF8C8298A672EE7212D04D1DFF8DC
:100F6000C029C1F84C2527E7222D05D101F24C51AB
:100F7000DFF8B0298A621FE7232D05D101F24C5119
:100F8000DFF8A4290A6517E71B2D05D101F20C41F2
:100F9000DFF898290A650FE71C2D05D101F20C41F5
:100FA000DFF88C298A6707E71D2D04D1DFF8842933
:100FB000C1F8AC2400E7262D04D1DFF87C29C1F864
:100FC0001426F9E6272D05D101F21461DFF86C290A
:100FD0008A62F1E6292D05D101F21461DFF860295A
:100FE0008A67E9E62A2D04D1DFF85829C1F8B4262A
:100FF000E2E62C2D7FF4D0AEDFF84C29C1F80427AF
:10100000DAE6012032BD0CB42DE9FF4705468846DB
:10101000012447462E461A2E48D006EB86004FEA9A
:10102000C008DFF87C970B2F20D1D9F8300008EBEF
:10103000000A9AF80100002818D02846FFF71CFE85
:10104000012813DB2846FFF717FE9AF801108142AA
:101050000CDB284600F086F90446D9F830004044FD
:10106000002141700FF6EC00F2F72AFAD9F83000AF
:1010700018F80010002947D108EB00014A78002A2F
:1010800042D1002208F80020104648700CA983B015
:1010900068461822F2F7ECF80EBC284600F07CF8FF
:1010A00002282CD003282FD103242DE00B2F16D19A
:1010B000FFF7E2FD012812DB2846FFF7DDFD06EB16
:1010C0008601DFF8DC26126B02EBC1014978814210
:1010D00005DB0FF68800F2F7F3F9022057E04046EF
:1010E000C0B201F049FE0CA983B068461822F2F79D
:1010F000BFF80EBC284600F04FF8022801D10220AC
:1011000045E0032800D103240A2F0DD1DFF8909683
:10111000D9F8300006EB86014FEAC10818F8001034
:10112000491C08F8001017E00B2F15D1DFF8709656
:10113000032E07D1D9F8300090F87900002801D1AA
:1011400001F083F806EB86004FEAC008D9F83000BA
:1011500040444178491C4170DFF84496D9F830008A
:10116000D9F82C1006EB86024FEAC208D1E91C23FD
:10117000CDE90223C96E009108EB00014B7818F805
:10118000002031460FF2E070F2F79AF9204604B0E1
:10119000BDE8F0075DF80CFB0EB42DE9F04183B01B
:1011A00005460124C0B2FFF7A9FDDFF8F46505EBA1
:1011B0008501326B02EBC107786000203872F8605D
:1011C00009A984B068461822F2F752F80FBC3F69AB
:1011D000B847022801D1022011E0032801D10324DD
:1011E0000CE0D6F82C80D8E91C67204600212A465E
:1011F0000AF0F0FF30433943C8E91C012046BDE83E
:10120000FE015DF810FB2DE9FF4704460D4601265F
:10121000274607EB87004FEAC008DFF88495D9F826
:1012200030001A2F57D008EB000A9AF80100022864
:1012300014DB2046FFF720FD01280FDB2046FFF7D7
:101240001BFD9AF80110814208DB2046FFF714FDD0
:101250008AF801000FF22470F2F732F9D9F8300061
:1012600018F80010002904D108EB00025278002A77
:1012700060D02A460A2A09D1002903D0491E08F85D
:10128000001017E0002108F8001013E00B2A11D11C
:1012900008EB00014A78002A02D0521E4A7001E091
:1012A00000224A70032F05D190F87900002801D15F
:1012B00000F0DAFFD9F8300018F80010002939D111
:1012C00040444078002835D1204600F04BF80328F0
:1012D00030D103262EE018F80010002904D108EBC5
:1012E00000025278002A25D02A460A2A09D100296C
:1012F00003D0491E08F8001012E0002108F8001081
:101300000EE00B2A0CD108EB000A9AF80100002825
:1013100003D0401E8AF8010002E000208AF8010094
:101320002846C0B201F028FD204600F01BF8032833
:1013300000D10326D9F83000D9F82C10D1E91C23AC
:10134000CDE90223C96E009108EB00014B7818F833
:10135000002039460FF22C60F2F7B2F8304604B0A4
:10136000BDE8F0872DE9F0410746012607EB87002D
:10137000C500DFF82C44206B2818406980470328FB
:1013800000D10326384640B200F080F9032800D18E
:101390000326206B295C002917D1281841780029E1
:1013A00013D14FF0FF31416000210172C160D4F8C8
:1013B0002C80D8E91C4501203A460AF00BFF24EAAC
:1013C000000025EA0101C8E91C013046BDE8F081B2
:1013D00038B5044604EB8400C000DFF8C453296B21
:1013E000002242544018114641702046FFF7BAFFD0
:1013F000E86AD0E91C2321460FF29C50F2F760F80E
:10140000012032BD2DE9F041B6B004460E46B6B219
:1014100001208DF86400DFF888531AA8E96A6C226D
:10142000F1F726FF17951AA984B068466C22F1F7E8
:101430001FFF0FBC00F0DCF900270BE0032803D1ED
:10144000189703208DF86400286B40440021017236
:101450007F1C7FB22D2F2ADAEA6AD2E91C013A46B4
:1014600004F020FA00F0010011F0000101D1002881
:10147000EED007EB87004FEAC008286B4044416874
:101480000029E5D4027A521C0272D2B2724389B2A8
:101490008A42DDDB806980470228CFD1189702207D
:1014A0008DF86400DDE91801C4E9000103E0DDE91D
:1014B0001801C4E9000136B0BDE8F08100210A3806
:1014C00042F20772904200D20121084670472DE98E
:1014D000F04383B0044600200190042204F1090186
:1014E00001A8F3F7F9FC6168DFF8B462376B2825CF
:1014F00005FB01704068019A904204D10FF2A840A8
:10150000F1F7DEFF68E01046FFF7D8FF002809D1A9
:101510006168019B05FB017042680FF29840F1F78A
:10152000CFFF59E0DFF824743868D0F8008025E058
:1015300090F908906068316B05FB0010C06820FAD4
:1015400009F0C00717D54FF0FF3000900346012285
:1015500001994846FFF789F940B200280BD161682C
:1015600001980090306B05FB010043684A460FF27A
:101570005840F1F7A5FF4046D0F80080B842D7D1D7
:101580003868D0F800801FE090F90890C86820FA09
:1015900009F0C00715D54FF0FF33012249684846CE
:1015A000FFF7FCF940B200280BD161680198009068
:1015B000306B05FB010043684A460FF22440F1F707
:1015C0007FFF4046D0F800806168326B05FB012147
:1015D000B842D9D101984860BDE8F7832DE9F843B6
:1015E0008146002425466E4F21E005EB8500C600AC
:1015F000386B06EB0008002088F80900FA6AD2E987
:101600001C012A4604F04EF900F0010011F000011F
:1016100001D100280AD04846D8F81C108847002875
:1016200004D0386B3018012141720C466D1C2D2DF1
:10163000DBDB2046BDE8F2835948C16AD1E91C23AF
:10164000002B01D1002A0DD0002107E002EB82031C
:10165000026B02EBC30200235372491C49B20A46D3
:101660002D2AF3DB704700B502464D48C36AD3E923
:101670001C0104F017F900F0010011F0000101D184
:10168000002801D0012000BD084600BD2DE9F0472B
:101690008146012409EB8900C500414E306B2818B2
:1016A000C068002829D0DFF8A4723868D0F800801C
:1016B00003E003244046D0F80080B8421DD090F9E2
:1016C00008A0306B2818C168012202FA0AF2114002
:1016D00021FA0AF149B20129ECD14FF0FF3301227E
:1016E00041685046FFF75AF90028E2D05246494671
:1016F0000FF20430F1F7E4FEDCE72046BDE8F087A6
:1017000010B58AB004460020ADF8220001900A20EE
:101710008DF8080000208DF809008DF80A00ADF85A
:101720002200600719D50520FFF79DFF002807D08C
:1017300004208DF800000520019000A8F4F734FE85
:101740000220FFF790FF002807D004208DF800004A
:101750000220019000A8F4F727FEE0060CD508202F
:10176000FFF781FF002807D003208DF80000082034
:10177000019000A8F4F718FE0AB010BD0246002040
:10178000092A00D0704780B5012902D10AF0D8FD9E
:10179000012002BD02492C22F1F76ABD00000000C1
:1017A000B0360120136500080F6500081B650008AE
:1017B0001F65000823650008551C0108B34C01088B
:1017C000C55801089B4A0108AF1603086D2A030893
:1017D000B14801088FC20108D95B01085D150308F3
:1017E000B10603085D20030823280308751D0308BC
:1017F0000FB41B98009901600199416002998160C2
:101800000399C1600499016105994161BDF85A10BD
:101810000183BDF85C104183BDF85E1081830C9993
:101820000162139941621499816204B0704700000B
:101830004168122903D1C17A002000F0C2BD1329EA
:1018400003D1017B012000F0BCBD142903D1417BF1
:10185000022000F0B6BD152902D1C07A00F0C2BD49
:10186000172945D1817A1B2906D01C2930D01D2982
:101870000FD0262926D07047C17B012903D1B0F8AB
:101880000B0002F033BF022932D1B0F80D0002F094
:101890002BBF017D012903D1B0F80B000BF030B84C
:1018A000022903D1B0F80D000BF01EB8042903D1B2
:1018B000B0F817000BF030B8032919D1B0F81500B3
:1018C0000BF036B8C17B012912D1807B0BF069B9CE
:1018D000817B012902D1C07A0BF06BBB022902D1B6
:1018E000007B0BF070BB052902D1407B0BF04BBB9A
:1018F0007047174908607047852B03081448006833
:1019000070470000B52D0308391F03080B39010883
:10191000B91203087524030851E401085729030884
:10192000DF1A0308652F0008C9E501088D46010884
:1019300001CE010887C80108E7CA010823F402089C
:10194000A92C0308BDF502082F230308E049002055
:10195000883C0120414C204558000000414C204566
:10196000582D415400000000414C2564202564207E
:10197000256420256420256C6C750000524C2045A0
:1019800058000000524C2564202564202564202541
:101990006420256C6C7500005445524D2025642050
:1019A000256C6C75000000004558204C4D435231A9
:1019B000202564004558204C4D4352322025642098
:1019C00025642025640000004558204C4D435233C7
:1019D0002025642025642025642025640000000063
:1019E0004558204C4D435234202564202564202541
:1019F0006420256400000000534D524120256420DE
:101A0000256400000FB410B5032200210846F4F746
:101A1000F7FB022801D102201CE00FF24000F1F791
:101A20004FFDDFF8744C00206073608220629DF8E7
:101A30000C209DF80B109DF80A000CF04BF8582272
:101A40000021DFF8580CF7F7C2FF00202063207454
:101A5000A073012010BC5DF814FB000050443A2034
:101A600053746172745065646F2D303632362D3187
:101A7000000000000120704730B58BB000A8F4F7DB
:101A80001EFC05210320F4F77DFC002802D1DFF8BD
:101A9000100C0890DFF8004CA069C56F0BF0AFFF89
:101AA000207294F90800022806D1422D04D1142195
:101AB0000320F4F706FC07E0012805D1142D03D11B
:101AC00042210320F4F7FDFB284680B2DDED081A21
:101AD00000A991EC030A0BF062FEE0692818E061AE
:101AE00001200BB030BD10B5DFF8AC4B94F900000D
:101AF00000283AD494F90A0094F90110814228D1BF
:101B0000217B0818A07240B23D2801DB3C38A0724E
:101B100094F90A100FF26C00F1F7D2FC0020E0619A
:101B2000DFF8840B90F9010010F1010F01D10120C1
:101B300010BD94F90110081AFAF712FB21F00041C8
:101B4000F2F7A4FC40B2012801DB012010BD002007
:101B500010BDDFF8580B90F90120914203D0D4E971
:101B60000023C0E90023002010BDE069DFF8401B1E
:101B7000884205DB0FF21800F1F7A2FC012010BD2E
:101B8000002010BD50443A204E542025640000002F
:101B900050443A204E6F54696D6500002DE9F843BA
:101BA0000026DFF8F44A07E07A19A27252B23146F1
:101BB0000FF26C00F1F784FC94F90A50002E21D446
:101BC0006078461B76B294F90C70002EECD5304646
:101BD000FAF7C6FA21F0004102460B4690469946B4
:101BE0003846FAF7BDFA42464B46FBF785F9E3D291
:101BF000EA1BA272002652B231460FF23800F1F70A
:101C00005FFCD9E73C2D02DBA5F13C00A07294F902
