:10000000002000202522030845BF020859BF02082E
:100010006DBF020881BF020895BF02080000000002
:10002000000000000000000000000000A9BF02085E
:10003000BDBF0208000000003D48000867A5000899
:1000400021250308252503082925030863C502087F
:100050002D250308CDC6020815C20208A5C3020853
:1000600031C4020831250308352503083925030862
:100070003D250308412503084525030849250308B4
:100080004D25030851250308552503085925030864
:100090005D25030861250308652503086925030814
:1000A0006D250308712503087525030879250308C4
:1000B0007D25030881250308852503088925030874
:1000C0008D2503089125030895250308D5BF02084F
:1000D000992503089D250308A1250308A5250308E4
:1000E000CFC4020831C60208A9250308AD250308BC
:1000F000B1250308B5250308B9250308BD25030864
:10010000C1250308C5250308C9250308CD25030813
:10011000D1250308D5250308D9250308DD250308C3
:10012000E1250308E5250308E9250308ED25030873
:10013000F1250308F5250308F9250308FD25030823
:100140000126030805260308092603080D260308CF
:100150001126030815260308192603081D2603087F
:100160002126030825260308292603082D2603082F
:100170003126030835260308392603083D260308DF
:10018000412603084526030838B5DFF8CC4C00208B
:10019000E06120626062A062E062A081DFF8BC0CD6
:1001A000E063DFF8BC0C206460643220E0824FF42E
:1001B00096702083DFF8AC5C4FF42072002105F1CB
:1001C000400002F04BF84FF42072002105F530702A
:1001D00002F044F89022002105F5B86002F03EF8E4
:1001E00040220021284602F039F840220021DFF8A1
:1001F0003C0D02F033F840220021DFF8340D02F00C
:100200002DF840220021DFF82C0D02F027F84022C3
:10021000002105F5A86002F021F84022002105F533
:10022000B06002F01BF840220021DFF80C0D02F054
:1002300015F840220021DFF8040D02F00FF8052226
:100240000021204602F00AF805220021DFF8F00C18
:1002500002F004F805220021DFF8D40D01F0FEFFC2
:100260000020A0822063A0632061A0606063E0643E
:100270000220A07331BD80B50FF2100002F093F898
:10028000DFF8D40B0021017301BD00004C54205352
:10029000746F70007047DFF8C01B4FF47A725043E0
:1002A000C86301460FF2040002F07DB84C5420539D
:1002B0005044202564000000DFF89C2B4FF47A7135
:1002C00048431064014651640FF2040002F06BB819
:1002D0004C5420575044202564000000DFF8781B60
:1002E000C88201460FF2040002F05DB84C5420535E
:1002F0005220256400000000DFF85C1B08830146E3
:100300000FF2040002F04FB84C5420534152202504
:10031000640000000EB410B587B0DFF8184DBDF8CA
:100320006E0000281ED1DFF8100DD0E90023CDE9C2
:100330000223D4E90001CDE90001DDE9022300F048
:1003400088FFDFF8141BC96B4FF47A724243914265
:1003500006D201460FF2280002F025F801200AE03B
:10036000002008E004A802F0BBFA204604A90522F8
:1003700002F05EFB002007B010BC5DF810FB00002F
:100380004C542053544F5020436865636B696E672B
:1003900020256400DFF8C00A01210162C16100214B
:1003A0008162C1627047DFF8B00A01214162C16118
:1003B0007047DFF8A40AC0697047DFF89C0A002183
:1003C000C1610FF2080001F0EEBF00004C54205252
:1003D000455345545F434D4452440000DFF8780ACA
:1003E000002101620FF2040001F0DDBF4C542052E5
:1003F000455345545F504F5352455100DFF8580A5A
:10040000002141620FF2040001F0CDBF4C54205294
:10041000455345545F504F4941434B00DFF8380A7C
:10042000012181620021C16201727047DFF8280A50
:100430000121C16270472DE9FC4106460F469046F6
:10044000DFF8E84ADFF81C5A20462946402202F02D
:10045000FFFA85ED000B85ED021B85ED042B85F879
:10046000296085F82A7085F82B80D4E904230020C0
:10047000014602F029FB0ED1D4E9002302F024FB4F
:1004800009D1D4E9022302F01FFB04D120462946FA
:10049000402202F0DDFA95ED020B8DED000BD5E95F
:1004A00000230FF20C0001F07EFFBDE8F381000095
:1004B0004C54205550504F5320256620256600008F
:1004C00030B583B0DFF89049A06A012815D1DFF874
:1004D000605A2846DFF88C19402202F0B9FA95EDEF
:1004E000020B8DED000BD5E900230FF2140001F093
:1004F0005AFF0020A06201203EBD00203EBD00004A
:100500004C54203173742025662C20256600000091
:1005100030B583B0DFF84049A06A012815D1DFF873
:10052000145A2846DFF83C19402202F091FA95ED62
:10053000020B8DED000BD5E900230FF2140001F042
:1005400032FF0020A06201203EBD0020A0623EBD1F
:100550004C5420326E642025662C20256600000055
:100560000020DFF8F418CA6A012A01D1C86201200C
:1005700070470FB400B59DB0DDE92E2302F0B4FA48
:10058000CDE90C01DDE92001DDE9302302F0ACFA10
:10059000CDE90E010CA984B06846402202F058FA59
:1005A0000FBC00F05DFD53EC102B0020DFF81C1E8B
:1005B00002F05AFB41EC100B1DB05DF814FB00007B
:1005C0000FB470B52DED048B9CB0DFF88C58687AB1
:1005D000002801D1002043E00A2801DB0A2600E0C0
:1005E000AE7A9FED998B002422E0DFF8781801EBBA
:1005F000801000F530710CA8402202F029FA24A9DD
:1006000084B06846402202F023FA0FBCFFF7B1FF26
:10061000B0EE409AF0EE609A51EC190B53EC182BA7
:1006200002F000FC03D2B0EE498AF0EE698A641C45
:10063000E4B22046B042D8DB288B02F019FC024617
:100640000B4651EC180B02F0EDFB01D2002007E045
:1006500053EC182B0FF2140001F0A5FE0120E86402
:100660001CB0BDEC048B70BC5DF814FB4C542053E3
:1006700041204F55542025660000000030B585B05C
:10068000DFF8E04794F969058DF8000004F269503D
:1006900090F901108DF8011090F902008DF8020018
:1006A000B4F86C05ADF80300DFF88C59D5E900010A
:1006B000CDE90201DDE90223DDE9000100F0C9FD19
:1006C000C4F87805DFF89007D5E90023C0E90023D6
:1006D00005B030BD0FB42DE9F0412DED088B84B08D
:1006E000DFF87447DFF87C57A07A05EB80109DEDAA
:1006F000120B80EDA00B00F520709DED140B80ED2A
:10070000020B9DED160B80ED040B2099816394F88C
:100710000980B8F10A0F01DB4FF00A089FEDBF8B8B
:10072000B0EE489AF0EE689AB0EE48AAF0EE68AAE9
:1007300000261DE005EB861753EC182BD7E9B00116
:1007400002F0A4FB41EC180B07F5307753EC192BA2
:10075000D7E9020102F09AFB41EC190B51EC1A0B9C
:10076000D7E9042302F092FB41EC1A0B761CF6B297
:100770004645DFDB404602F07BFB41EC1B0B51ECB6
:10078000180B53EC1B2B02F0F5FB05F5A862C2E930
:10079000000105F2405651EC190B53EC1B2B02F0F3
:1007A000E9FBC6E9020151EC1A0B53EC1B2B02F0DA
:1007B000E1FBC6E9040195F969058DF8000005F231
:1007C000695797F901008DF8010097F902008DF83B
:1007D0000200B5F86C05ADF80300DFF85C88D8E9D5
:1007E0000001CDE90201DDE90223DDE9000100F0AD
:1007F00030FD0246C5F87825D8E90001C4E90001BA
:100800000192B87800907B7895F86925617A0FF2AB
:10081000142001F0C8FD96ED020B8DED000B05F5DF
:10082000A860D0E900230FF2606001F0BCFD032056
:10083000A0730FF2044001F0B6FD04B0BDEC088BCC
:10084000BDE8F0015DF814FB00000000006AF8400C
:100850000FB42DE9F0472DED088B86B0DFF8D047B7
:10086000DFF8D4A7DAE90001CDE90401D4E90001F9
:10087000CDE90201DDE9042300F0EBFCDFF8D855F7
:10088000A97ADFF8E06506EB81129DED160B82ED8B
:10089000B00B02F530739DED188B83ED028B9DED4F
:1008A0001A9B83ED049B237882F8E93202F2E92354
:1008B00067785F70A7789F7000B2C2F8F802481C92
:1008C000A872C0B20A2801D10020A872687A00F18B
:1008D000010885F809805FFA88F8A8F1010002F0A4
:1008E000BDFA41EC1A0B06F2405953EC1A2BD9E928
:1008F000020102F0B9F953EC182B02F0C7FA41ECEF
:10090000180B53EC1A2BD9E9040102F0ADF953ECA2
:10091000192B02F0BBFA41EC190B404602F0A8FA81
:1009200041EC1B0B53EC1A2B06F5A86041680068DC
:1009300002F09AF9DDE9162302F0A8FA53EC1B2B1A
:1009400002F018FB06F5A862C2E9000151EC180B91
:1009500053EC1B2B02F00EFBC9E9020151EC190B01
:1009600053EC1B2B02F006FBC9E9040106F26957A0
:10097000B8F1010F0AD1207886F86905607878709F
:10098000A078B870B4F80300A6F86C0596F969056C
:100990008DF8000097F901008DF8010097F9020029
:1009A0008DF80200B6F86C05ADF80300DAE9000135
:1009B000CDE90201DDE90223DDE9000100F049FC97
:1009C0000246C6F87825DAE90001C5E9000101927E
:1009D000B87800907B7896F86925697A0FF2440020
:1009E00001F0E1FC99ED020B8DED000B06F5A8601E
:1009F000D0E900230FF2904001F0D5FC687A01287D
:100A000005D10120A8730FF28C4001F0CCFC06B098
:100A1000BDEC088BBDE8F0075DF814FB000000009A
:100A2000000000004C542025642053502025643AD7
:100A300025643A25642C2025640000000FB42DE9BC
:100A4000F0472DED0A8B86B0DFF8ECA5DAE900015E
:100A5000CDE90401DFF8E804D0E90023CDE9022361
:100A6000DDE90423DDE9020100F0F3FB8046DFF855
:100A7000E843A07A461E36B2002E01D50A3636B2B9
:100A8000607A02F0F5F941EC180BF64D05EB86168D
:100A900053EC182B05F5A8604168006802F0E4F8F3
:100AA000D6E9B02302F020F841EC190B06F53077B7
:100AB00005F2405953EC182BD9E9020102F0D4F8A1
:100AC000D7E9022302F010F841EC1A0B53EC182B73
:100AD000D9E9040102F0C8F8D7E9042302F004F8C8
:100AE00041EC1B0B9FEDE0CBD6E9B023DDE918010B
:100AF00002F0CCF953EC1C2B02F0B6F8C6E9B001B9
:100B0000D7E90223DDE91A0102F0C0F953EC1C2BEE
:100B100002F0AAF8C7E90201D7E90423DDE91C01C4
:100B200002F0B4F953EC1C2B02F09EF8C7E9040163
:100B3000C7F8388053EC1A2BD7E9020102F0A6F966
:100B400041EC1A0B51EC1B0BD7E9042302F09EF980
:100B500041EC1B0B51EC190BD6E9B02302F096F9CE
:100B600053EC182B02F006FA05F5A862C2E9000161
:100B700051EC1A0B53EC182B02F0FCF9C9E90201F5
:100B800051EC1B0B53EC182B02F0F4F9C9E90401EA
:100B900095F969058DF8000005F2695696F901008E
:100BA0008DF8010096F902008DF80200B5F86C0589
:100BB000ADF80300DAE90001CDE90201DDE9022325
:100BC000DDE9000100F045FB0246C5F87825DAE9C9
:100BD0000001C4E900010192B0780090737895F8A3
:100BE0006925617A0FF2380001F0DDFB99ED020B07
:100BF0008DED000B05F5A860D0E900230FF28820E9
:100C000001F0D1FB0320A0730FF22C0001F0CBFB0D
:100C100006B0BDEC0A8BBDE8F0075DF814FB0000E0
:100C20004C5420256420552D53502025643A2564CA
:100C30003A25642C202564004C5420415245412023
:100C400053544159000000000FB42DE9F0472DED39
:100C50000A8B86B09FED848BDDE91823DDE928013E
:100C600002F014F953EC182B01F0FEFF41EC190BC4
:100C7000DDE91A23DDE92A0102F008F953EC182B0B
:100C800001F0F2FF41EC1A0BDDE91C23DDE92C0138
:100C900002F0FCF853EC182B01F0E6FF41EC180BC6
:100CA000A74CDFF894A3DAE90001CDE90401D4E907
:100CB0000001CDE90201DDE9042300F0CAFA664D26
:100CC000A97ADFF8AC6C06EB811282EDB09B02F5DD
:100CD000307383ED02AB83ED048B237882F8E93225
:100CE00002F2E92367785F70A7789F70B4F8033049
:100CF000A2F8EC32C2F8F802481CA872C0B20A2866
:100D000001D10020A872687A00F1010885F80980F5
:100D10005FFA88F8A8F1010002F0A0F841EC1B0B83
:100D200006F2405953EC1B2BD9E9020101F09CFF5C
:100D300053EC1A2B02F0AAF841EC1A0B53EC1B2BC4
:100D4000D9E9040101F090FF53EC182B02F09EF852
:100D500041EC180B404602F08BF841EC1C0B53ECB5
:100D60001B2B06F5A8604168006801F07DFF53EC7D
:100D7000192B02F08BF853EC1C2B02F0FBF806F554
:100D8000A862C2E9000151EC1A0B53EC1C2B02F0D3
:100D9000F1F8C9E9020151EC180B53EC1C2B02F0DD
:100DA000E9F8C9E9040106F26957B8F1010F0AD15F
:100DB000207886F8690560787870A078B870B4F803
:100DC0000300A6F86C0596F969058DF8000097F9FF
:100DD00001008DF8010097F902008DF80200B6F8C5
:100DE0006C05ADF80300DAE90001CDE90201DDE9A7
:100DF0000223DDE9000100F02CFA0246C6F878254E
:100E0000DAE90001C5E900010192B87800907B7829
:100E100096F86925697A0FF2580001F0C4FA99ED45
:100E2000020B8DED000B06F5A860D0E900230FF250
:100E3000580001F0B8FA687A012805D10120A8739A
:100E40000FF2500001F0AFFA06B0BDEC0A8BBDE81E
:100E5000F0075DF814FB000008380120E09304005F
:100E600060E3160028D90020000000000000E03FE9
:100E70004C5420256420532D53502025643A25647A
:100E80003A25642C202564004C54202566202566D4
:100E9000000000004C54204152454120494E0000C2
:100EA0000FB410B584B0DFF8CC0A016B01EBC102BE
:100EB000DFF8BC3A03EBC20202F5B8639DED060B06
:100EC00083ED000B9DED080B83ED020B08AC94ED58
:100ED000021B83ED041B9DF8413082F8E93502F2D4
:100EE000E9530DF1410464785C700DF14104A4787C
:100EF0009C70BDF84430A2F8EC3502F2EC5211AB14
:100F0000DB685361C48A1483048B5483002901D1A4
:100F10000121016302938DED000BDDE906230FF241
:100F2000240001F040FA1FBC5DF814FB20390120B9
:100F300060390120A0390120E0390120203A012048
:100F4000804101204C5420555341202566202566C0
:100F5000202564000FB4F0B585B0DFF8184A4825A5
:100F6000DFF80C6A206B05FB006000F5B8619DEDB1
:100F70000A0B81ED000B9DED0C0B81ED020B0CAA11
:100F800092ED020B81ED040B9DF8511080F8E915EC
:100F900000F2E9520DF151035B7853700DF15107E6
:100FA000BF789770BDF95420A0F8EC258DF8041097
:100FB0008DF805308DF80670ADF8072094F9000023
:100FC0008DF80C0060788DF80D00A0788DF80E007B
:100FD000B4F80300ADF80F00DDE90323DDE90101FA
:100FE00000F037F9074600979DF906309DF9052076
:100FF0009DF904100FF2440001F0D5F9206B05FBB8
:101000000061C1F8007601F20061E28A8A80228BD9
:10101000CA80022801D2401C20630220A0730FF274
:10102000340001F0C0F905B0F0BC5DF814FB00001D
:101030008841012090410120784101204C542053E7
:101040005341312025643A25643A25642C202564D7
:10105000000000004C542041524541204F5554009F
:101060000FB438B52DED048B8CB006AA08A90AA8D8
:101070009DED140B00F06EF8DDE90A230020DFF887
:10108000F81801F0F1FD04460D46DDE90823DFF80C
:10109000EC08DFF8EC1801F0E7FD22462B4601F0E2
:1010A000F5FE04460D46DDE90623DFF8D808DFF833
:1010B000D81801F0D9FD22462B4601F0E7FE41EC9D
:1010C000180B00AA02A904A89DED160B00F042F827
:1010D000DDE904234FF03330DFF8B01801F0C4FD30
:1010E00004460D46DDE90223DFF8A408DFF8A41862
:1010F00001F0BAFD22462B4601F0C8FE04460D461B
:10110000DDE90023DFF87408DFF88C1801F0ACFD8E
:1011100022462B4601F0BAFE41EC190B53EC182B7A
:1011200051EC180B01F0A0FD04460D4653EC192BB1
:1011300051EC190B01F098FD22462B4601F0A6FE5A
:1011400041EC100B02F03AF80CB0BDEC048B31BC52
:101150005DF814FB70B52DED048BB0EE408AF0EE17
:10116000608A04460D46164651EC180B53EC182BBA
:1011700001F0BAFC41EC190B53EC192B0020DFF8FD
:101180001C1801F071FD41EC100B84ED008B85ED16
:10119000000B0022DFF8043801F0ECFE02460B469B
:1011A00051EC190B01F0A0FC0022DFF8F43701F03C
:1011B0005BFDC6E90001BDEC048B70BDDFF8B40730
:1011C000006A7047DFF8AC07406A704780B540227C
:1011D0000021DFF8D00701F041F840220021DFF8BC
:1011E000C80701F03BF8DFF8D40D0021417281728D
:1011F000016181820FF20C00BDE8024001F0D3B81A
:10120000000000004C542052455345545F41535058
:1012100000000000DFF8A40D006B704780B5DFF818
:10122000501701F5B06001F5A861402201F010FCF3
:10123000DFF8880D0021016301BDC9B201EBC102D5
:10124000DFF82C1701EBC20101F5B861482201F06B
:10125000FFBB3FB581B04FF47A704EF66022DFF8E5
:10126000603D9DF904109DF90540544303FB014185
:101270009DF9064014FB0011BDF9074001FA84F105
:101280009DF90C409DF90D506A4303FB04229DF922
:101290000E3013FB0020BDF90F2000FA82F0441A33
:1012A00042F20F721319934205D200240FF23C0050
:1012B00001F079F807E0DFF80C2D944203DADFF84B
:1012C000082D1018441ADFF8040D844200DB044690
:1012D000204601F0C3FDDFF8F82CDFF8F83C01F000
:1012E000C3FC05B0BDE8304001F0E8BF41542D4CCF
:1012F0005420646966662054696D65205265736583
:10130000740000002DE9F64383B08146BDF90F401B
:101310004EF66025DFF8A86C9DF90C009DF90D10C4
:10132000694306FB00109DF90E104FF47A7211FB11
:10133000020000FA84F10C98412808D15F18DFF808
:10134000980C87420BD3DFF8940CC71907E0994239
:1013500004D2DFF8740C4018C71A00E0CF1A3846E0
:1013600001F086FD0022DFF8783C01F003FE01F079
:10137000A5FF80465FFA88F806FB1876304601F034
:1013800077FD0022DFF85C3C01F0F4FD01F096FFF0
:10139000C0B28DF8008001468DF8011005FB106089
:1013A00001F066FDDFF8282CDFF8283C01F05CFC3A
:1013B00001F084FF8DF80200ADF80340484600A913
:1013C000052201F035FB05B0BDE8F08300408F40F9
:1013D00010B50024DFF89C05C16C012907D1012458
:1013E0000021C1640FF2540000F0DDFF23E0DFF8BC
:1013F0008005D0F87815D0F8B825914216D190F82C
:10140000691590F8A925914210D100F2A95100F276
:10141000695042784B789A4208D18078897888421E
:1014200004D10FF6EC3000F0BEFF04E001240FF60B
:10143000E83000F0B8FF204610BD00004C542046B4
:101440005500000000B58DB0DFF82805407A00286F
:101450000AD0DFF8941B84B06846402201F0F8FA05
:101460000FBCFFF71DFD06E00FF6B4300DB05DF8C0
:1014700004EB00F098BF0DB000BD00001CB5DFF814
:10148000F444217B61732073401E05284DD8DFE8AA
:1014900000F0034C16222C4100A801F021FADFF8DD
:1014A0004C0B00A9052201F0C3FA616C21640020F5
:1014B000E0720FF67830BDE81C4000F074BF00A861
:1014C00001F00EFADFF8240B00A9052201F0B0FAB2
:1014D000A06BA06413BD00A801F002FADFF80C0BAA
:1014E00000A9052201F0A4FA13BD00202061A0820A
:1014F00040220146DFF8B00400F0B0FE00A801F081
:10150000EFF9DFF8E80A00A9052201F091FAA06BD3
:10151000A06413BD00A801F0E3F9DFF8D00A00A928
:10152000052201F085FAA06BA06413BD0CB400B5D0
:1015300083B09DF939108DF800100DF1390191F942
:1015400001108DF801100DF1390191F902108DF89B
:1015500002100021ADF8031000A9052201F068FA7D
:101560000EBC5DF80CFB00002DE9F84F2DED0A8B49
:101570009CB082469FED558BDFF8F883B8F81000D9
:10158000B8F81290814502D25FFA89F901E0C0B241
:101590008146B8F91400461E00D50A36DFF8D0B3EC
:1015A0000BEB861797ED109B97ED12AB97ED14BBE5
:1015B00001243CE0301A00D50A300BEB801505F110
:1015C00040010CA8402201F043FA07F1400184B029
:1015D0006846402201F03CFA0FBCFEF7CAFFB0EEAD
:1015E00040CAF0EE60CA51EC180B53EC1C2B01F012
:1015F00019FC03D2B0EE4C8AF0EE6C8A53EC1B2B34
:10160000D5E9140101F042FC41EC1B0B53EC192B02
:10161000D5E9100101F03AFC41EC190B51EC1A0B21
:10162000D5E9122301F032FC41EC1A0B641CE4B240
:1016300020464845BEDB484601F01AFC41EC1C0B35
:1016400051EC1B0B53EC1C2B01F094FCCAE9040178
:1016500051EC190B53EC1C2B01F08CFCCAE9000176
:1016600051EC1A0B53EC1C2B01F084FCCAE902016B
:10167000B8F81000B8F8121088421ED207F14001E5
:101680000CA8402201F0E4F9DFF8641984B0684640
:10169000402201F0DDF90FBCFEF76BFFB0EE40CA4F
:1016A000F0EE60CA51EC180B53EC1C2B01F0BAFBA6
:1016B00003D2B0EE4C8AF0EE6C8AB0EE480AF0EE3F
:1016C000680A1CB0BDEC0A8BBDE8F18F0000000079
:1016D000000000000FB42DE9F0412DED068BA0B005
:1016E0002CA984B06846402201F0B2F90FBCFEF785
:1016F00067FFA04D68639E4E012812D100206863E9
:1017000006F5A86184B06846402201F0A1F90FBC3B
:10171000FFF720FCFFF75AFD0FF6201000F043FE04
:1017200019E1B5F9144006EB841040302CA9402291
:1017300001F08EF9601CA88200B20A2801D10020B5
:10174000A882288A0A2801DA401C2882688A401C5C
:101750006882314682B06846402201F079F90CBCBB
:101760000EA8FFF7E3FE288A0A2801DA002700E026
:101770002F7D8D4CD4E900010022134601F0A4F91D
:101780002FD1D4E9020101F09FF92AD1D4E9040153
:1017900001F09AF925D106EB8716DFF8588896F9FB
:1017A000690088F8000006F2690090F9011088F8D5
:1017B000011090F9020088F80200B6F86C00A8F851
:1017C0000300DFF82C0806F14001402201F040F947
:1017D000204606F14001402201F03AF90020A063C2
:1017E000B9E010A8FFF7C0FEB0EE408AF0EE608AC4
:1017F000DFF80088288B400801F03AFB53EC182BE7
:1018000001F010FB28D206EB871696F9690088F8DC
:10181000000006F2690090F9011088F8011090F9B3
:10182000020088F80200B6F86C00A8F80300DFF8A0
:10183000C00706F14001402201F00AF9204606F1F6
:101840004001402201F004F90020A06368820FF2F9
:10185000FC7000F0A8FD7EE0D8E90001CDE90001B0
:10186000DDE90E23FFF7F5FC064631460FF2EC707A
:1018700000F099FD286C4FF47A71714388426AD266
:101880006F8A3846042866DBA16B002916D19DEDCE
:10189000100B84ED000B9DED120B84ED020B9DED02
:1018A000140B84ED040BA663214684B068464022E5
:1018B00001F0CEF80FBCFEF7CBFF43E0401E01F075
:1018C000CDFA41EC190B384601F0D2FA41EC1A0B73
:1018D00051EC190BD4E9002301F0C6F9DDE92C2302
:1018E00001F0D4FA53EC1A2B01F044FBC4E90001D7
:1018F00051EC190BD4E9022301F0B6F9DDE92E23EE
:1019000001F0C4FA53EC1A2B01F034FBC4E90201D4
:1019100051EC190BD4E9042301F0A6F9DDE93023D9
:1019200001F0B4FA53EC1A2B01F024FBC4E90401D2
:10193000A663214684B06846402201F089F80FBCB6
:10194000FEF7C8FEA06B009053EC182B698A0FF2CB
:101950001C7000F028FD20B0BDEC068BBDE8F00146
:101960005DF814FB7047DFF85406807B7047000079
:1019700028D900200838012000C05B409A99999925
:101980009999FD3F5839B4C876BE9F3F33335640CE
:10199000AE47E17A14AEF73F9999993F00004E4067
:1019A0000020AC4068DE0020E03901200EB478B59C
:1019B0002DED028B9EB00646DFF80046A06B08189E
:1019C000A06300A800F08CFFDFF82C56284600A981
:1019D000052201F02DF8207B062800F2E782DFE8DF
:1019E00010F0070012007400C1006A011402C00266
:1019F000FFF7ECFB0120FFF741FD217B0FF2846034
:101A000000F0D1FCD2E225A983B06846582201F04B
:101A10001FF80EBC304680B2FEF77CFC002843D095
:101A2000D5E90001CDE903014D200090E36BDDE92C
:101A300003010A46014601A8FFF764FCDFF8BC0574
:101A400001A9052200F0F4FFDFF8B41582B0684662
:101A5000402200F0FDFF0CBC1CA8FFF767FDD5E994
:101A60000001CDE90001DDE90023DDE91C01FFF7FC
:101A7000F0FB05463D2D07DB29460FF2186000F00C
:101A800092FCFEF787FC06E00120A06229460FF2D7
:101A9000146000F088FC0220FFF7F0FC217B0FF2BD
:101AA000146000F080FC81E2A06A012840F07E8290
:101AB0000020A062DFF8481584B06846402200F09C
:101AC000C7FF0FBCFFF706FE70E2FEF7F9FC002827
:101AD00034D00320FFF7D2FC0FF2E85000F063FC93
:101AE000607A00281FD0DFF81C55294684B068466C
:101AF000402200F0ADFF0FBCFEF762FD60630128DD
:101B000011D100206063DFF8E01484B06846402201
:101B100000F09EFF0FBCFFF71DFAFFF757FB0FF217
:101B2000B85000F040FCDFF8D81484B0684640227A
:101B300000F08EFF0FBCFFF7CDFD37E2FEF710FD82
:101B4000002800F03382207A401C2072C0B20328A3
:101B500080F243810120FFF791FC0FF2985000F0D2
:101B600022FC23E2A06A012851D10020A062DFF804
:101B70009064607A00281DD0314684B068464022C7
:101B800000F066FF0FBCFEF71BFD6063012811D15A
:101B90000020606306F5A86184B06846402200F02A
:101BA00057FF0FBCFFF7D6F9FFF710FB0FF25C50A1
:101BB00000F0F9FB314684B06846402200F048FF4F
:101BC0000FBCFFF787FD31460CA8402200F040FF14
:101BD000DFF8301484B06846402200F039FF0FBCB3
:101BE000FEF7C7FCB0EE408AF0EE608AE08A01F0B2
:101BF0003FF953EC182B01F015F908D20120FFF73B
:101C00003DFC53EC182B0FF2105000F0CCFBD5E943
:101C10000001CDE90201DFF8D403D0E90023CDE9CA
:101C20000023DDE90223DDE90001FFF712FBA16BD0
:101C3000A26C8E1A332E08D30120FFF71FFC314609
:101C40000FF2EC4000F0AFFBB0E1216C4FF47A7280
:101C50005043814280F0AA81DFF8A41382B0684625
:101C6000402200F0F5FE0CBC1CA8FFF75FFCD5E994
:101C70000001CDE90001DDE90023DDE91C01FFF7EA
:101C8000E8FA05463D2D07DBFEF784FB29460FF2F7
:101C9000B84000F088FB06E00120A06229460FF260
:101CA000044000F080FB0420FFF7E8FB0FF2A8409F
:101CB00000F079FB7AE1FEF72BFC002800F082802F
:101CC000D14E314684B06846402200F0C1FE0FBCC0
:101CD000FEF776FC6063012818D100206063C249DA
:101CE00084B06846402200F0B3FE0FBCFFF732F923
:101CF000FFF76CFA0FF2704000F055FB607B05288F
:101D000040F054810120FFF7B9FB4FE1BD4D314652
:101D10000CA8402200F09CFE294684B06846402270
:101D200000F096FE0FBCFEF724FCB0EE408AF0EE09
:101D3000608AE08A01F09CF802460B4651EC180BD1
:101D400001F070F82BD2607B052831460CD184B0AD
:101D50006846402200F07CFE0FBCFEF76FFE0FF2DB
:101D6000144000F020FB10E00CA8402200F070FEB0
:101D7000294684B06846402200F06AFE0FBCFEF798
:101D800063FF0FF2FC3000F00EFBFEF70CFB0520AA
:101D9000FFF774FB0FF2F03000F005FB06E10120C5
:101DA000FFF76CFB53EC182B0FF2F03000F0FBFA4E
:101DB000934984B06846402200F04AFE0FBCFFF70A
:101DC00089FCF3E0FEF7CCFB002800F0EF80207ADE
:101DD000401C2072C0B2032807DB0620FFF74EFB31
:101DE0000FF2003000F0DFFAE0E0884820640320C2
:101DF000FFF744FB217A0FF2B83000F0D4FA216CDF
:101E00000FF2282000F0CFFAD0E0A06A012846D1D6
:101E10000020A0627A4E607A00281DD0314684B03E
:101E20006846402200F014FE0FBCFEF7C9FB606359
:101E3000012811D10020606306F5A86184B06846CE
:101E4000402200F005FE0FBCFFF784F8FFF7BEF953
:101E50000FF2743000F0A7FA31460CA8402200F0CF
:101E6000F7FD684984B06846402200F0F1FD0FBCE0
:101E7000FEF77FFBB0EE408AF0EE608AE08A00F069
:101E8000F7FF53EC182B00F0CDFF08D20120FFF72D
:101E9000F5FA53EC182B0FF23C3000F084FAD5E938
:101EA0000001CDE902015148D0E90023CDE900232A
:101EB000DDE90223DDE90001FFF7CBF9A16BA26C9C
:101EC0008E1A332E08D30120FFF7D8FA31460FF2CD
:101ED0001C3000F068FA69E0216C4FF47A725043CC
:101EE00081423BD2464E96F929008DF8700006F2E9
:101EF000290090F901108DF8711090F902008DF809
:101F00007200D5E90001CDE90001DDE90023DDE93A
:101F10001C01FFF79EF905463D2D07DBFEF73AFA57
:101F200029460FF2E02000F03EFA06E00120A06210
:101F300029460FF2E02000F036FA0420FFF79EFA5F
:101F4000E07A401CE072C0B203282FDB606C4100D5
:101F500021640FF2D80000F026FA27E0FEF78EFB8E
:101F600024E0A06BA16C401A33280BD30120FFF7AB
:101F700085FA0FF2B42000F016FA0FF2C02000F03C
:101F800012FA13E0A06A01280BD10120FFF776FABC
:101F90000FF2B42000F007FA0FF2A02000F003FACD
:101FA00004E0607B042801D1FEF768FB207B1EB0B3
:101FB000BDEC028B72BC5DF810FB000008380120FC
:101FC00080EE3600F1D8FFFF005C2605C0E40A056C
:101FD000FCA9F1D24D62503F015C260500A4D9FA5C
:101FE00040774B41004CED4068DE002090410120DD
:101FF000203A0120884101207841012080410120C0
:1020000028D9002060390120A0390120E093040084
:102010004C542053410000004C542044490000001F
:102020004C54204E6F20504F530000004C542D57FD
:1020300050204348414E4745202564004C542053CE
:10204000617665205341554D000000004C542052EC
:10205000455345545F474150000000004C54204711
:1020600041204D546D202564000000004C54205345
:102070005020534741522025642C2025662C2025D2
:10208000640000004C542D434B5F53544F502025A7
:10209000640000004C5420524551504F532D4620AF
:1020A000256400004C54204E2D524551504F532072
:1020B000256400004C542D4745545F315F504F5309
:1020C000202564004C542D434B5F555345525F4DC2
:1020D0004F564554000000004C54205353412D46A8
:1020E000500000004C542D53535F50415553455FF1
:1020F000535300004C542053535F475053204E4FCE
:1021000054204F4B20317374000000004C54205376
:1021100053412D554D0000004C542D434B5F5354FB
:102120004F502D554D2D64697374202566000000B5
:102130004C542D434B5F53544F502D554D2D7374BC
:1021400065702025640000004C5420524551504FCA
:10215000532D5320256400004C542D4745545F32C5
:102160005F504F53000000004C54205353412D53F7
:10217000500000004C54205544542053500000009F
:102180004C542053535000004C542D434B5F555337
:1021900045525F4C454156494E4700004C542D4333
:1021A0004845434B5F53544F502D535020256600F4
:1021B0004C542D475053204E4F54204F4B20326EDD
:1021C00064202564000000004C54205353412D55D9
:1021D0004C0000004C542D434B5F53544F502D5531
:1021E0004C20646973742025660000004C542D4314
:1021F0004B5F53544F5020554C207374657020250D
:10220000640000004C5420524551504F532D554C02
:10221000202564004C54204E2D524551504F532DD3
:10222000554C2025640000004C5420535320414756
:1022300041494E2042592053544550004C542D439F
:102240004B5F53544F5000004C5420535320414790
:1022500041494E20425920504F53000010B50446CA
:1022600010460A460146204601F054F8204610BDAB
:10227000BFF34F8FDFF81C07016801F4E061DFF85E
:10228000442711430160BFF34F8FFEE710B5DFF81D
:1022900038474FF48E7200212046FFF7DFFF2046BB
:1022A00010BDDFF82407704710B5FFF7EFFF0446B5
:1022B00000231A461146084600F06FFAC046C04691
:1022C00001F05CF8204600F019F801F0AEFA204663
:1022D00000F0D0F9204600F015F8204600F01FF875
:1022E00000F093F900206072A072E0722073012068
:1022F00060730020E075A073012010BD0021C17142
:10230000017231E010B50446DFF88C0601F0E2F806
:10231000DFF8B80601F0DEF80120607110BD10B5DD
:10232000044601F042F90120A07110BD38B5044601
:10233000012501F0EDF9012804D12846E0700020C4
:10234000A0700AE0022804D10020E0702846A070A6
:1023500003E00020E070A0700546284632BD80B53D
:1023600001F054FB012002BD10B50446E07901F0F4
:102370008BFC0121217010BD70B504460025E67963
:10238000E171FFF7F1FF002807D02046FFF7BAFF01
:102390002046FFF7C4FF012503E0E6712046FFF762
:1023A000E3FF284670BD0EB470B5C1B0054600A865
:1023B0004FF4807102F0F2F9FFF773FF044645AB6A
:1023C0002A464FF4807100A802F0ECF900A802F050
:1023D00007FA451C00A82818002100F8011CDFF8A6
:1023E000F0653078401C30707078F021084202D0DF
:1023F000992002F011FA02F07CFA7078401C70709B
:10240000207E2818FF2810DA207E002803D0207EA6
:1024100000190A2101762A4600A9207E00191930E8
:1024200002F07EFA207E2818207600A802F0D0FC68
:102430007078F021084202D0992002F0EDF970780E
:10244000401E7070C0B2002801D102F04CFA03F0B7
:10245000AAF841B070BC5DF810FB0428DFF83C0519
:1024600003D8DFF8341501607047DFF860150160AC
:102470007047DFF82C1551F82000007F002807D0A6
:10248000DFF8500501784A1C0270032900DBEFE6F3
:1024900070472DE9F84305460E4617464FF00208EF
:1024A000DFF82C456078F021084202D0992002F034
:1024B000B3F902F01EFA6078401C60709DF80000CD
:1024C000401E8DF8000017F8019B2846FFF7C5FF56
:1024D00000AB4A463946304601F0EEFC002810D0E9
:1024E0006078F021084202D0992002F095F96078D6
:1024F000401E6070C0B2002801D102F0F4F9012042
:102500001FE05FFA88F8424629460FF2D440FFF7F1
:102510004AFF4046A0F101080028D9D16078F02197
:10252000084202D0992002F077F96078401E60706E
:10253000C0B2002801D102F0D6F92846FFF799FF72
:102540000020BDE8F2832DE9F04704460D4616460B
:102550001F46DFF85084089888F80000DFF8709470
:1025600099F80100F021084202D0992002F054F9B4
:1025700002F0BFF999F80100401C89F801002046DB
:10258000FFF76BFF4FF0020A4346324639462846B2
:1025900001F042FD002813D099F80100F021084213
:1025A00002D0992002F038F999F80100401E89F80C
:1025B0000100C0B2002801D102F095F9012022E00B
:1025C0005FFA8AFA524621460FF22040FFF7EBFEEF
:1025D0005046A0F1010A0028D6D199F80100F02157
:1025E000084202D0992002F017F999F80100401E24
:1025F00089F80100C0B2002801D102F074F9204628
:10260000FFF737FF0020BDE8F08703F028BDF8B5DD
:10261000044602270025DFF888630DE039464F1E87
:10262000C9B200290AD1002804D120690121A9409A
:102630008843206102276D1C162D10DA56F82500FC
:10264000006E006880470128E8D121690122AA4074
:102650001143216156F8251001220A77E3E720692A
:10266000032803D0022801D0012802D140F4805071
:102670002061F1BD01F018BE01F071BE81B00022F1
:10268000ADF80220ADF80020C079042808D0062853
:1026900009D008280AD009280BD00A280CD00EE04F
:1026A0004FF4C8600DE04FF448600AE04FF4C850A2
:1026B00007E04FF4FA5004E042F2107001E041F2FA
:1026C0007070ADF802200DE0BDF80020521CADF88E
:1026D0000020BDF800208242F6DBBDF80220521C2B
:1026E000ADF80220BDF802208A4203D20022ADF8E4
:1026F0000020EEE701B07047417230B589B003F0B9
:1027000083FD0446FFF7CDFD054600A8242102F015
:1027100045F80020ADF8220001900A208DF808004D
:1027200000208DF809008DF80A00687A00280DD085
:10273000002C18D000208DF80000052001900B20FF
:102740008DF8080000A805F0CDFC0CE0002C0AD0A4
:1027500001208DF80000052001900B208DF8080065
:1027600000A805F0BFFC09B030BD01F014BE01F0B7
:102770001CBE01210846F8E701210846F7E70221BF
:102780000120F2E702210120F1E701F019BE10B5A6
:102790000446FFF786FD447510BD2DE9F04782B071
:1027A0000C4615462F46264680464FF47A714FF068
:1027B0003C0C4FF4616918FB09F216FB0C22BA18A5
:1027C00001FB0232DFF8E0E19EF900A01AFB09F9F3
:1027D0009EF901A01AFB0C9C9EF902904CFA89FC10
:1027E000BEF9039001FB0C919EF808C0BCF1000FEC
:1027F00022D144EA00012943194302D001218EF875
:1028000008108EF80000B8F1000F04D59EF8000003
:1028100018308EF800008EF801408EF80250AEF8A5
:10282000033000933B4632469EF900100FF2EC1045
:10283000FFF7B9FDBDE8F38791420DD3A1EB020C80
:10284000ACF2D17CDFF89091CC45DAD30FF2A8102E
:1028500002B0BDE8F047A6E5D3D2A2EB010CACF282
:10286000D179DFF874A1D145CBD363460FF298102C
:1028700002B0BDE8F04796E510B504002FD003F094
:1028800079FD4949CA68002A00D0841AB1F80320AA
:10289000A218A1F8032012B2B2F57A7F06DBA2F5E6
:1028A0007A72A1F803208A78521C8A7091F902206A
:1028B0003C2A04DB3C3A8A704A78521C4A7091F9EF
:1028C00001203C2A04DB3C3A4A700A78521C0A7008
:1028D00091F90020182A01DB00220A70C86010BD9F
:1028E0003149052200F0A4B80FB410B52DED028BCC
:1028F0002E4C104600F0BCFA2D4A2E4B00F0B4F9D5
:10290000206161619FED2C8B049800F0B1FA53ECCB
:10291000182B00F0A9F920606160059800F0A8FA72
:1029200053EC182B00F0A0F9A060E1609DF81C00AA
:10293000207604F118009DF81D1041709DF81E10BE
:1029400081709DF81F10C1709DF820100171BDF8B5
:10295000210000EE100AB8EE400A10EE100A05F051
:10296000E9FC174A1D4B00F07FF905F00BFDC4F898
:102970001D00BDF82300A4F821009DF8250084F86F
:102980002300BDEC028B10BC5DF814FB0749242228
:1029900000F04EB80CED00E000540040687B0020D1
:1029A0000840002018420120943F0120CC3C012027
:1029B000FCA9F1D24D62503F8DEDB5A0F7C6B03EF7
:1029C0003BDF4F8D0400FA05DC1D0120005800405C
:1029D000607A0020174201205F4C2605976EA23FC7
:1029E00049574520256420256400000049524520B0
:1029F000256420256400000041542D536574545310
:102A0000312025642025640041542D5365745453AE
:102A100032202564202564202564000041542D5374
:102A20006574542025643A25643A25642E25640093
:102A300062B38B0708D0521E11F8013B00F8013B2E
:102A400000F024808B07F6D1830740F0208000BF80
:102A5000103A07D330B4B1E83810103AA0E8381073
:102A6000F9D230BC530724BFB1E80810A0E8081021
:102A700044BF51F8043B40F8043BD20724BF31F86F
:102A8000022B20F8022B44BF0B7803707047083AE2
:102A900007D3B1E80810083A40F8043B40F804CBEB
:102AA000F7D25307E4E750F8041B61B150F8042B48
:102AB000D30744BFA9F101039A18002342F8043B4D
:102AC000091FFAD1EFE7704790420CD141EA030C9D
:102AD00050EA4C0C07D0994205D14FF4001C1CEB76
:102AE000410F38BF8942704770B44FF0004591EAFA
:102AF000030F44BF6B4000F0D3B900BF841A71EBE1
:102B0000030604D26E40001BB141121973414FF409
:102B1000001C1CEB410F34BF7CEB430684E00C0D22
:102B2000A4EB1356362E7DDC012E43DC45EAC3238D
:102B300043EA525312BFD20292025B08240545EACF
:102B4000C12141EA5051D2EBC020994125D407D18F
:102B5000B0FA80F610FA06F164D00020203608E0C2
:102B6000B1FA81F6B140C6F1200220FA02F2114317
:102B7000B0404FEAF474B4EB465434F001064FEA27
:102B800074040AD8D6F50016760D04F00044F0401F
:102B900061FA06F25040F1404840C00A40EA415014
:102BA00021F0004128BF5FEA500550F1000044EBDE
:102BB000D12137E045EAC323DB0A45EAC121C90A2E
:102BC000B6F120050EDD42EA0242120CC5F12006E4
:102BD00003FA06F6EB4042EA06056D42984161F1C0
:102BE00000010DE062FA06F5F240554063FA06FC7A
:102BF00082EA0C02F3405A406D42904161EB0301BE
:102C000011F4801F05D1641E620502D06D004041A1
:102C1000494121F48011430875F1004350F100004F
:102C200041EB045170BC70471CEB410F15D223F0EF
:102C3000004352EA43060BD04FEA4C0CBCEB410F69
:102C400004D80C0D661E342EB7DDEBE7801A9941CF
:102C500050EA410608BF0021E4E708BF1CEB430F20
:102C600028BF6FF00001DDE7B0B581EA030C0CF07E
:102C7000004C40F2FF7515EA11541DBF15EA1357B9
:102C8000AC42AF4239E0E41923EA455343F48013E0
:102C9000C90241F0004141EA505EC7021100A7FBA2
:102CA000020200284FF00000EEFB01204FF000016F
:102CB000E3FB072118BF42F00102401800214941FF
:102CC000E3FB0E01A4F580640F0302D252004041E1
:102CD000494154F101046CDD470872F1004250F1A2
:102CE000000051EB0451A1F580115CBF41EA0C01D9
:102CF000B0BD4CEA05510020B0BD05EA1357AC4207
:102D000014BFAF4241E050EA410E1CBF52EA430EED
:102D100002E061460020B0BD24423C441BD15FEA82
:102D2000070EF6D0090302BF01460020AEF1140ED3
:102D3000B1FA81F7AEEB070401FA07FE0C37C7F1D1
:102D4000200100FA07F7C8404EEA000E23EA455377
:102D500043F48013A2E733F00043B3FA83F704BFD0
:102D6000B2FA82FE77440B3FE41BB7F1200E2FBF6F
:102D700002FA0EF3BB40C7F1200E22FA0EFE38BF56
:102D800043EA0E03BA40641C82E750EA410E14BFC6
:102D900052EA430E6FF000014FF4001717EB430F98
:102DA0008ABF194617EB410FB5E74CEA05510020E1
:102DB000B0BDD4F10104B4F120070FDAC4F120074B
:102DC000520828BF42F0010210FA07F501FA07F78E
:102DD000E1BF2A43E0403843E1400FE0352C98DC66
:102DE000C7F1200452EA400220FA07F218BF42F06D
:102DF000010231FA07F0A1400A43002172F10042BA
:102E000050F1000051EB0C01B0BD8268521C826091
:102E1000426832B10268531C036011704168491E58
:102E2000416070474FF4001C1CEB410F94BF1CEB3A
:102E3000430F09E041EA030C50EA4C0C52EA0C0C37
:102E400003D2994208BF9042704714BF8B4282421E
:102E500070470268531C036011707047010040F115
:102E60000980F446404200F005F851F00041604707
:102E7000010000BF09D0B0FA80F18840C91CC1F53B
:102E80008461090501EBD0214005704770B44FF013
:102E9000004591EA030C44BF6B40FFF72FBE00BF13
:102EA000841A71EB030603D2001BB141121973415E
:102EB0004FF4001C1CEB410F34BF7CEB430443E098
:102EC0000C0DA4EB1356352E50DC45EAC323DB0A68
:102ED00045EAC121C912B6F120050DDD63FA05F6F8
:102EE000EB4086EA0305124218BF45F00105C01801
:102EF00051F100010CD213E062FA06F5F2405540A0
:102F0000F3415A40B340F3405A408018594107D327
:102F100049085FEA30005FEA350528BF45F0010542
:102F200001F58011420875F1004250F1000041EBBB
:102F3000045170BC4FF4001C1CEB410F38BF7047AC
:102F40000020090D090570471CEB410F10D252EA11
:102F500043060BD0BCEB410F05D80C0DAB43661EEE
:102F6000342EB5DD02E0AB438018594170BC704788
:102F700070BC7047F0B540F2FF7581EA030C0CF0AD
:102F8000004C15EA11541DBF15EA1357AC42AF426D
:102F9000E5E0BC41C1F31301C3F31303801A994167
:102FA00043F4801304D2641E400049418018594103
:102FB000C90241EA5051B1FBF3F603FB1611A2FB23
:102FC0000675D7EBC020A94102D2761E8018594160
:102FD000C90241EA5051B1FBF3FE03FB1E11A2FBF3
:102FE0000E75D7EBC020A94103D2AEF1010E8018B7
:102FF0005941890241EA9051760546EA8E2EB1FB8D
:10300000F3F603FB1611A2FB0675D7EB8020A9414E
:1030100002D2761E80185941C90241EA50514EEA47
:10302000060EB1FBF3F603FB1611A2FB0675D7EBF8
:10303000C020A94102D2761E80185941C90241EA36
:103040005051B1FBF3F703FB1711A2FB0735D3EB8C
:10305000C020A94167F100070CBF004247F00107FB
:1030600066F3D5274FEA1E31B80814F5806412DDE7
:10307000BD0775F1004250EB0E5051EB045111F5B4
:10308000801F5CBF41EA0C01F0BD4CF07F6141F054
:10309000E0410020F0BDBD076D0840EA0E5041F44C
:1030A0008011D4F10104B4F120060ADAC4F120063B
:1030B0000200E04001FA06F3E1401843B240154334
:1030C0000EE0342C13DCC6F1200445EA40056D08FF
:1030D00020FA06F2154321FA06F0A1400D43002123
:1030E00075F1004250F1000051EB0C01F0BD0020E1
:1030F0005FEA0C01F0BDCFB992185B41B3FA83F7D8
:1031000004BFB2FA82F6BF190B3FB7F120062FBFFA
:1031100002FA06F3BB40C7F1200622FA06F638BFD2
:103120003343BA401CB1E419641E33E77F4231F0E7
:103130000041B1FA81F404BFB0FA80F6A4190B3C47
:10314000B4F120062FBF00FA06F1A140C4F1200619
:1031500020FA06F638BF3143A0403C1B1AE7AC42C8
:103160001ABF05EA1357AF4212E050EA41061CBFEE
:1031700052EA4306BFE750EA4107304661461CBFAA
:1031800041EA0551F0BD52EA430C08BFC143F0BD0E
:1031900000204FF4001616EB410F98BF16EB430FBB
:1031A00008BF16EB410F24BFC14305E016EB430FE8
:1031B0000CBF61464CEA0551F0BD000051EC100B0C
:1031C00000B500F003F841EC100B00BD40F2FF7CAD
:1031D0000B0D4DD0634566D230B421EA035141F462
:1031E000801103F2FD3C5FEA5C0C01D300184941F9
:1031F000890041EA907180004FF440140023E202FC
:10320000D50AB1F5100107D46D081DD2091B641948
:1032100000184941491BF7D56D080AD20919641BEA
:1032200000184941491BEFD56D08F7D301E052085A
:1032300017D0C01861419B1AAC4100184941801A4F
:10324000A941F4D452080AD0C01AA1419B186C417C
:1032500000184941801AA941E9D45208F4D15B1CF5
:103260006C4161084FEA330001EB0C5130BC7047F0
:1032700050EA0103FBD030B4B1FA81F311B9B0FACE
:1032800080F41B190B3BB3F120042FBF00FA04F1AB
:103290009940C3F1200420FA04F438BF2143984038
:1032A000D3F101039DE76345E1D011F5801FDED81E
:1032B00050EA4101DBD0D94305F0ACB8F446400DEB
:1032C00040EAC120490006D200F014F8004248BF8D
:1032D0006FF00040604700F00DF84FF00041884269
:1032E0008CBF084640426047400D40EAC12049007B
:1032F00080F00D8040F00040490DA1F58061491C2F
:1033000005D4D1F11F0154BFC840C01770474FF01A
:103310000000704762F30F2262F31F42401810F062
:10332000030308D0C91A1FD3DB0748BF00F8012DDB
:1033300028BF20F8022D130030B41446154610396A
:1033400028BF20E93C00FAD8490728BF20E90C0033
:1033500048BF40F8042D890028BF20F8022D48BF3F
:1033600000F8012D30BC7047C91818BF00F8012DB6
:10337000CB0728BF00F8012D7047000030B583B09F
:103380000121032005F0B1F8DFF8804C204605F05C
:1033900045F9DFF87C5C284605F040F901208DF8FE
:1033A000040000208DF8050001208DF806000020A3
:1033B0008DF80700012128460183C04601200090B6
:1033C00000A9284605F086F9022128460183C04657
:1033D0000220009000A9284605F07CF901208DF814
:1033E000040000208DF80500ADF806004FF4807051
:1033F000009000A9284605F06DF94FF48071284629
:103400004183C04601208DF8040000208DF805009E
:1034100001208DF8060000208DF807004FF4805041
:10342000009000A9204605F055F94FF48051204640
:103430004183C04604220621284605F099F904225A
:103440000721284605F094F902208DF80400012098
:103450008DF805008DF8060000208DF8070040204B
:10346000009000A9284605F035F98020009000A9B9
:10347000284605F02FF904220A21284605F078F99C
:1034800009220321284605F073F902208DF8040073
:1034900001208DF805008DF8060000208DF807004A
:1034A0004FF48060009000A9284605F013F9082029
:1034B000009000A9284605F00DF9286820F030009A
:1034C00040F010002860206820F0300040F010002C
:1034D000206037BD1FB5DFF83C4BA04230D1012141
:1034E0004FF4001005F00CF80121022004F0FDFF5C
:1034F00001214FF4001005F024F800214FF40010D2
:1035000005F01FF80020ADF804004BF6FF70ADF891
:1035100006004FF48060ADF80A004FF48040ADF82B
:103520000C000A20ADF80800DFF8CC0C009000A9D0
:10353000204605F060F90121204605F0BFF91FBDC6
:10354000DFF8B84CA0422FD101214FF4800004F0E5
:10355000D7FF0121022004F0C8FF01214FF48000B1
:1035600004F0EFFF00214FF4800004F0EAFF002098
:10357000ADF804004BF6FF70ADF806004FF4806024
:10358000ADF80A004FF48040ADF80C000A20ADF809
:103590000800DFF8640C009000A9204605F02BF924
:1035A0000121204605F08AF91FBD2DE9F04192B0B6
:1035B00001214FF4805004F0AEFF0121084604F0D1
:1035C00094FF01214FF4800004F08FFFDFF83C4AA4
:1035D00005221146204605F0CBF80522072120469A
:1035E00005F0C6F805220621204605F0C1F805229F
:1035F0000421204605F0BCF802208DF804000120CB
:103600008DF805000020ADF806002020009000A9EC
:10361000204605F05FF88020009000A9204605F0C4
:1036200059F84020009000A9204605F053F81020DA
:10363000009000A9204605F04DF8DFF8C44B204665
:1036400005F09EF9DFF8BC5B00202880686001204F
:10365000288100206881E860072028820020688097
:10366000DFF8A46B304605F0FBF9DFF8A07B3846A5
:1036700005F0F6F94FF48060069000210D910321CA
:103680000E9100210F910A910890DFF8180C039019
:1036900008461090099007904FF400300C900846AF
:1036A0000B904FF0C068CDF8088040200590084688
:1036B000049002A9304605F057FA00200B90CDF88F
:1036C0000880059005F11400049002A9384605F021
:1036D0004BFA002068802946204605F080F9012237
:1036E0000221204605F0AAF901221146204605F0E4
:1036F000A5F90121204605F095F90021304605F095
:103700005AFA0021384605F056FA12B0BDE8F081A9
:1037100030B589B001214FF0805004F0F1FE012056
:1037200005F0B2FA01214FF4802004F0DEFE0F20F4
:1037300005F05AFC0446102005F056FC0546012011
:1037400004F0D0FE002004F0CDFE21460F2005F04D
:103750003EFC2946102005F03AFC00214FF4802061
:1037600004F0C3FE012004F05BFE412004F00AFFD8
:103770000028FAD04FF4807004F09EFE012004F07F
:10378000AEFE05F0D4FA3F20069040F2FF100790FD
:103790000020059005A805F081FA0020029002A9FA
:1037A00005F0E6FA00208DF8070001208DF80400EE
:1037B0008DF805008DF8060001A9002005F051FBE9
:1037C0004FF4800005F0F0FC4FF4800003900020DF
:1037D0008DF8100008208DF8110001208DF81200DE
:1037E00003A805F09FFC03208DF800000D208DF844
:1037F000010000208DF8020001208DF8030000A8D0
:1038000005F0DFFC032005F0A0FB4FF4804005F03D
:1038100056FC4FF4800005F0C7FC01214FF48040B6
:1038200005F013FC012009B030BD10B586B00121B0
:10383000084604F05AFE01214FF4804004F06BFE6C
:1038400000208DF810008DF8130001200390DFF8A0
:10385000BC4703A9204604F03DFF0420039003A9C0
:10386000204604F037FF0021084605F0E3FC022162
:10387000002005F0DFFC00208DF8080001208DF805
:103880000A0001900C208DF8090001A805F04AFCFF
:10389000042001900C208DF8090001A805F042FCDD
:1038A000042005F081FC28208DF800000F208DF801
:1038B000010000208DF8020001208DF8030000A80F
:1038C00005F07FFC06B010BD10B586B0012108469A
:1038D00004F00BFE01214FF4804004F01CFE002098
:1038E0008DF810008DF813004FF40064039403A9C1
:1038F000DFF8180704F0EEFE0B21002005F09AFC1B
:1039000000208DF8080001208DF80A0001940C2099
:103910008DF8090001A805F005FC204605F044FCDF
:1039200028208DF800000F208DF8010000208DF870
:10393000020001208DF8030000A805F042FC06B04B
:1039400010BD30B58DB0044601214FF4807004F0F5
:10395000E2FD00A804F0F8FE0A20009003208DF894
:10396000040000208DF8070000A9DFF8A00604F08D
:10397000B1FE05F073FC02A805F0B5FC4FF48030F1
:10398000039002A805F0A1FC06A805F094FCDFF85E
:10399000DC5A06A9284605F06EFC072301222146C1
:1039A000284605F0B1FC0121284605F0F0FC012174
:1039B000284605F09EFC0DB030BD38B5DFF8AC4AA6
:1039C000204605F0DFFC4FF47A750221204605F011
:1039D000F5FC002803D12846451E0128F5DA2046CB
:1039E000BDE8324005F0DEBC80B50021DFF87C0A7E
:1039F00005F07FFC00214FF48070BDE8044004F026
:103A00008ABDDFF8280B00687047000038B5040055
:103A100040D0012005F038F9002005F0B0FA4FF44D
:103A20000055042005F02CFB012804D12846451E32
:103A300080B20028F5D100EE104AB8EE400ADFED62
:103A4000800A80EE800AF0EE000A20EE200ADFED08
:103A50007D0A80EE800ABDEEC00A10EE100A401EFC
:103A600080B205F082FA4FF4804005F028FB4FF455
:103A7000800005F099FB012005F081FADFF8AC0A1F
:103A800001218160046021460FF22000BDE834402E
:103A9000FEF789BCDFF8940A00210160012005F0DF
:103AA000F3F80020BDE8324005F069BA536574525E
:103AB0005443203D2025640030B4014601200023FA
:103AC000DFF86C2A1C469460946814F00C0FFBD14C
:103AD0000C460B2C55D8DFE804F02054545406193A
:103AE0002031383F464D946844F080049460DFF8FC
:103AF000444A4FF4C0652560146824F08074146053
:103B0000DFF8B44ADFF8305A25603BE00346DFF8BF
:103B1000A84ADFF8A85A256034E094689460DFF87A
:103B2000144A4FF4C0652560146824F08074146052
:103B3000DFF8844ADFF8885A256023E00223DFF8A3
:103B4000784ADFF8805A25601CE00323DFF8684AD2
:103B5000DFF8745A256015E00423DFF85C4ADFF8CB
:103B6000C45A25600EE00523DFF84C4ADFF8B85A46
:103B7000256007E00623DFF8404ADFF8B05A2560E9
:103B800000E01846002B4AD003EBC3030FF2B80441
:103B90001B1994689460146824F08074146014688D
:103BA00024F0806414609C781D8844EA8514DD78D4
:103BB0006D086D1E44EA05441D7944EA05645460AD
:103BC000DC881D7A2D0745EA8414DFF8BC5A2C6086
:103BD000146844F0807414601468A401FCD55B7907
:103BE00043F4C063DFF84C492360936893609368A3
:103BF0009360052904D1916841F09001916005E03E
:103C00000A2903D1916841F480519160916841F093
:103C100002019160916801F00C010829FAD1DFF8E6
:103C200098190968DFF8642A914207D2DFF8F01A80
:103C30000A6822F4404242F480420A6030BC704775
:103C400000007A4400000047200110040F03020125
:103C500003F00010060F01020103C00010080F015D
:103C6000020103C00010060F01020103F00010065C
:103C70000F01020103C80010040F02020103A80093
:103C800010020F030201030016E7002800E0401EA7
:103C9000FDD170477CB50726DE4988426BD10120F3
:103CA0008DF804008DF805008DF8060000208DF8D1
:103CB000070040200090DFF8885A00A9284604F049
:103CC00009FD8020009000A9284604F003FD402152
:103CD00028464183C0460F20FFF7D7FF40212846E2
:103CE0000183C0460F20FFF7D0FF3046461E80B24A
:103CF0000028ECD18020009000A9284604F0EAFCBE
:103D0000402128464183C0460520FFF7BEFF8021A1
:103D100028460183C0460520FFF7B7FF402128460B
:103D20000183C0460A20FFF7B0FF402128464183A7
:103D3000C0460520FFF7A9FF802128464183C046E1
:103D40000520FFF7A2FF02208DF8040001208DF866
:103D500005008DF8060000208DF807004020009037
:103D600000A9284604F0B6FC8020009000A928464F
:103D700004F0B0FC73BDDFF8841488426AD10120DE
:103D80008DF804008DF805008DF8060000208DF8F0
:103D900007004FF480640094DFF8A45900A9284676
:103DA00004F098FC0820009000A9284604F092FC3A
:103DB000214628464183C0460A20FFF766FF214678
:103DC00028460183C0460A20FFF75FFF3046461EA3
:103DD00080B20028ECD10820009000A9284604F009
:103DE00079FC214628464183C0460520FFF74DFF58
:103DF000082128460183C0460520FFF746FF2146DB
:103E000028460183C0460A20FFF73FFF2146284687
:103E10004183C0460520FFF738FF0821284641832B
:103E2000C0460520FFF731FF02208DF80400012075
:103E30008DF805008DF8060000208DF8070000942D
:103E400000A9284604F046FC0820009000A9284656
:103E500004F040FC73BD10B5DFF8E848012120688C
:103E600004F065FD206804F097FC2068FFF732FB42
:103E700005E02068FFF70EFF2068FFF72BFB4FF4EB
:103E80000031206804F05EFD0028F2D110BD30B48E
:103E90000022838A008BDFF8AC48656843EA004063
:103EA0000840000255EA102060600840884200D1B6
:103EB0000122104630BC70472DE9F84F04460D46EC
:103EC00016464FF420491F78DFF878884FF4003108
:103ED000D8F8000004F036FD002808D04846A0F1CC
:103EE00001090028F2D1FFF7B6FF00208CE0D8F8D6
:103EF000000001884FF6FF52114001800121D8F8DF
:103F0000000004F0E7FC4FF4805AD1460020C8F8C6
:103F10000400D8F800B0DFF830185846FFF7B7FFB4
:103F2000002805D14846A0F101090028F1D163E03D
:103F3000D14600222146584604F0E4FC0020C8F88F
:103F40000400D8F80040DFF804182046FFF79FFF70
:103F5000002805D14846A0F101090028F1D14BE025
:103F60003146C9B220460182C046D1460020C8F879
:103F70000400D8F80040DFF8D8172046FFF787FF85
:103F8000002805D14846A0F101090028F1D133E00D
:103F9000012F15D1297820460182C046D146002044
:103FA000C8F80400DFF8AC17D8F80000FFF76FFF7F
:103FB000002823D14846A0F101090028F2D11BE0D6
:103FC0003846471EC0B2002818D015F8011BD8F893
:103FD00000000182C046D1460020C8F80400DFF886
:103FE0007417D8F80000FFF752FF0028E8D14846C0
:103FF000A0F101090028F2D1002005E00121D8F844
:10400000000004F073FC0120BDE8F28F00000240C4
:1040100000040240005400402DE9F54F81B00D46E8
:104020001E464FF420483778DFF818474FF4003128
:10403000206804F087FC002808D04046A0F1010861
:104040000028F3D1FFF707FF0020D3E020680188A4
:104050004FF6FF52114001800121206804F03AFC24
:104060004FF48059C84600206060DFF8DCA6D4F821
:1040700000B051465846FFF70AFF002805D14046D8
:10408000A0F101080028F2D191E000229DF804106F
:10409000584604F037FCC84600206060D4F800B0F1
:1040A000DFF8A8165846FFF7F2FE002805D1404673
:1040B000A0F101080028F1D179E0BDF80810C9B2DB
:1040C00058460182C046C846DFF88C16206804F0C6
:1040D00039FC002805D14046A0F101080028F3D1A1
:1040E00065E00121206804F0F5FBC846002060600F
:1040F000D4F800B051465846FFF7C9FE002805D154
:104100004046A0F101080028F2D150E001229DF8BC
:104110000410584604F0F6FB022FC84639DADFF8DF
:104120003C16206804F00EFC002805D14046A0F1A2
:1041300001080028F3D13AE00021206804F0EBFBED
:104140002068018B012104F0D1FBC846DFF810166E
:10415000206804F0F7FB002805D14046A0F10108D3
:104160000028F3D123E02068008AC0B2287030789C
:10417000401E3070C84620680188890505D5404634
:10418000A0F101080028F6D111E0012104F0C3FBE1
:104190002BE000206060DFF8CC152068FFF777FE89
:1041A000002806D14046A0F101080028F3D10020E4
:1041B00020E0012616E0012F0CD1012E0AD10026A5
:1041C0003146206804F0A7FB2068818A018B012119
:1041D00004F08CFB2068818A490603D5008A05F823
:1041E000010B7F1EFFB2002FE5D10121206804F0F2
:1041F00092FB0120BDE8FE8F801A060000580040A7
:1042000000300140A83C0120886402401064024054
:10421000DFF854050168082933D1DFF814130A6860
:1042200042F080720A604268B2F1806F03D10A687E
:1042300042F080620A600A689201FCD58A6842F006
:1042400002028A608A6802F00C02082AFAD14268E7
:10425000B2F1806F02D10A681201FCD5DFF8581361
:104260000968DFF82824914207D2DFF8B4140A68FD
:1042700022F4404242F480420A6000210160416021
:1042800070474168B1F1806F09D1A9490A6842F0CD
:1042900080620A600A681201FCD500214160704703
:1042A000000000000C300140DFF8C004016841F05C
:1042B00080510160DFF8680401688908890041F0D5
:1042C00001010160DFF8A8040FF2050141607047A9
:1042D00038B5DFF8A044208840F004002080FDF7C6
:1042E000E0FF807A012803D1012004F0D0FC02E035
:1042F000002004F0CCFCDFF880548021DFF87C043F
:1043000004F0A6FB002818D172B68948DFF85814CB
:10431000826802F00C020A60006800F08060486069
:10432000286840F00400286030BF62B6286820F09A
:1043300004002860FFF76CFF0CE0608840F0040088
:104340006080286820F00400286030BF286840F0B2
:1043500004002860608840F00400608031BDDFF810
:10436000100440680047DFF81814012806D010D365
:10437000032809D005D3042809D00AE0DFF8C013C8
:1043800007E0DFF8001404E0DFF8FC1301E0DFF8D9
:10439000FC130846704710B50C46FFF7E4FF2146B2
:1043A00089B2BDE8104004F0DFB910B50C46FFF744
:1043B000DAFF214689B2BDE8104004F0D7B9000009
:1043C000E0B500238DF8083001238DF80A30002A6B
:1043D00003D10C228DF8092002E008228DF8092073
:1043E00004283CD8DFE800F00315212A2A004FF406
:1043F0000060019028208DF800000F208DF801004A
:1044000000208DF80200012921D118468DF8030003
:104410001FE01846019010208DF8090006208DF845
:1044200000000E208DF80100EAE70220019007202D
:104430008DF800000F208DF80100E1E704200190C5
:1044400008208DF800000F208DF80100D8E78DF8C6
:10445000030001A804F066FE00A804F0B2FE07BD48
:104460004FF40061C64804F078B900000020014014
:1044700010B5044601214FF4802004F036F821469F
:10448000102004F0A4FD00214FF48020BDE810406E
:1044900004F02BB810B501214FF4802004F025F86A
:1044A000102004F0A1FD044600214FF4802004F008
:1044B0001CF87B2004F066F8002802D099A0FDF7D4
:1044C00072FF7A2004F05EF8002802D096A0FDF773
:1044D0006AFF792004F056F8002802D093A0FDF777
:1044E00062FF7C2004F04EF8002802D090A0FDF777
:1044F0005AFF7D2004F046F8002802D08DA0FDF779
:1045000052FF7E2004F03EF8002802D08AA0FDF77A
:104510004AFF7F2004F036F8002802D087A0FDF77C
:1045200042FF04F041F82046C0B210BD1040012007
:1045300000380240003C024000127A003EB50C46B2
:1045400015460422014602A800F0EAF90422214699
:1045500001A800F0E5F90422294600A800F0E0F9DE
:1045600002A9002004F004FC01A9002004F079FC59
:1045700004F072FC0446864A002300981946101A7B
:1045800063EB0101490241EAD051400204F040FFCF
:104590000090844205D2011B4FF0004004F031FD31
:1045A00037BDA04207D2C4F50070009909184FF03A
:1045B000004004F026FD37BD147B00208096980053
:1045C0000024F40000366E010048E8012DE9704334
:1045D00084B004460D46164602A9002004F017FCDC
:1045E00001A9002004F08DFC04F036FC0090684A1C
:1045F000A2FB00894FEA582848EAC958A2EB0800F4
:104600000090042202A9204600F08AF9042201A9A0
:10461000284600F085F9042200A9304600F080F910
:10462000BDE87F83005A620280F0FA0200BD0105F6
:1046300070B48C1E012C01DA0C34401E3C21642520
:10464000B0FBF5F5C5EB90054FF4C876B0FBF6F678
:10465000751940F26F1674430C26B4FBF6F4641916
:10466000121940F26D1404FB00204A4A101800EBA6
:10467000400203EBC200039A01FB0020049A01FBF5
:10468000002070BC7047000084380240018793030B
:104690001CB50C4601680191416800918368C268AD
:1046A0000169491C406900F26C70FFF7C1FF20608E
:1046B000002016BD10B58EB037480068C405E40D63
:1046C00001A9002004F0A3FB00A9002004F019FCBC
:1046D0009DF8040006909DF8050005909DF80600E1
:1046E00004909DF80100401E08909DF8020007907C
:1046F0009DF803006430099002A904A8FFF7C8FFE1
:104700004FF47A7010FB04F0400AC0F57A70039001
:10471000029A4FF47A73C117E3FB02010EB010BD89
:1047200000700040504F520050494E00424F52001E
:104730005346540049574400575744004C505700C3
:1047400000040240687B0020010003008200070093
:104750008000070084000700040000100200001021
:1047600040000010020003001C41012040380240BC
:10477000104001201800024010ED00E00030014020
:104780000000024000080240000C024000100240FD
:1047900000CA9A3B7505F5FF28280040002204F066
:1047A000AFBE000008B584B00023029311B9009396
:1047B000019302E00090481E019004AB00A9074855
:1047C0007844183004F0B6FE009909B100220A704E
:1047D000002858BF029805B000BD00BF2FE6FFFFBC
:1047E00000F10103810704D010F8011B89B1810792
:1047F000FAD10268B2F10131914311F0803F04BF58
:1048000050F8042FF6E710F8011B11B110F8011B46
:10481000FBE7C01A7047000000B585B002460FF2F2
:10482000140100A805F052FD00A800F099FB05B0A6
:1048300000BD00004F45256400000000304881683D
:10484000002904BF08B008E0EFF30982A2F12802B2
:10485000036882E8F84F83685A6000F04BFD816876
:1048600059B14A6892E8F84F036002F1280282F3D6
:10487000098813F47F4F36D07047224822490968CF
:10488000401A80F308884FF08071C1611F4981612F
:104890007FF0060E704701BC2046DFF874E000BDD3
:1048A000FEE71C48006818490968401A203820F0C3
:1048B000070080F308884FF0000181F3118862B689
:1048C00000F00DF8FEE74FF0000181F31188124966
:1048D000124A0A604FF0800181F3118870470E4937
:1048E0000E4A0A6070474FF0000181F3118870474B
:1048F00000BF4FF0800181F31188704700BF0000B6
:10490000607A0020E01F00201C25030815A600087F
:10491000A14800080000000804ED00E000000010BD
:1049200010B50446FEF784F8204610BDEFF303806F
:104930007047BFF34F8FDFF86C06016801F4E06148
:10494000DFF8642611430160BFF34F8FFEE770B5B7
:1049500082B006460C462046FFF742FF0546202D52
:1049600005D10422314600A8FFF7DAFF06E0102D3A
:1049700016D10222314600A8FFF7D2FF002000E046
:10498000401CA8420EDA015D7829F9D0009A2B4626
:104990005B1E1B1ADA4002F0010230398A42EFD066
:1049A000002076BD012076BDDFF8001601600620EC
:1049B0007047A0F10060B0F53E3F01D8012070477C
:1049C00000207047F8B504460D460020009020688E
:1049D000FFF7EFFF00281AD000A8FFF7E5FF064613
:1049E000002700E07F1CB74211D2009850F8371022
:1049F00000EBC700406840422268520810EB4200BA
:104A0000FFF7A5FF0028EDD02F600120F2BD0020A8
:104A1000F2BDF8B50C46DFF898150A6D4B6D002510
:104A200059082E465F1B062F11D3482707FB012785
:104A30003F6C874200D20D46B84200D20B46E918BF
:104A4000490837467E1C1F2FECD300E06D1C9D42A9
:104A500011D2482707FB05210E6CB042F6D34E6CED
:104A60008642F3D34022204605F04AFC002084F819
:104A700040000120F2BD40220FF20061204605F007
:104A80003FFC0020F2BDF0B591B0044600250EE0D9
:104A900032590FF2F45100A805F018FC00A8FFF7F6
:104AA0009FFE024600A9381D05F02AFC6D1C05EB8F
:104AB000C500C600305900280BD0371900A9FFF7F0
:104AC000A8FF0028E4D0402200A9381D05F018FCFA
:104AD000ECE711B0F0BDF8B507460C4615460026C8
:104AE00030460090002F1ED0002C09D1F2BD06EBFD
:104AF000C600C00057F8041B490849004151761C04
:104B00000C2E0FD200A93846FFF75CFF002807D112
:104B10003868FFF74EFF002802D13F1DBC42F1D29A
:104B2000BC42E4D23046F2BD70B5DFF888140A46C4
:104B30000B68D21A1368DFF88044A34201D000202A
:104B400070BDDFF86C44121D22650968091F4822F8
:104B5000B1FBF2F1616510F1030F02D010F1130FF8
:104B60000AD1DFF85854A86805F000FC0646A8688A
:104B700005F008FC811905E005F012FC054605F07A
:104B800011FC4119DFF83854A069286005F148028A
:104B9000A06AFFF7A0FF2846FFF775FF012070BD50
:104BA0000EB430B5CCB0044600A84FF49671FFF7B0
:104BB000F5FD00254FAB22464FF4967100A8FFF794
:104BC000F1FD00A8FFF70CFE044609E0DFF8E01352
:104BD000C86D421CCA6500A9695C05F04BFC6D1CE0
:104BE000A542F3D34CB030BC5DF810FB38B50024BF
:104BF000DFF8BC53E8650FF29840FFF7D1FFDFF80C
:104C0000C40301680FF2AC40FFF7CAFFA86C009024
:104C1000AB6B6A6B296B0FF2B440FFF7C1FFE96C15
:104C20000FF2E040FFF7BCFF6A69A9690FF2E840A4
:104C3000FFF7B6FF0FF2F840FFF7B2FF06E01018DB
:104C4000021D0FF20450FFF7ABFF641C04EBC4001D
:104C5000C200DB4811580029F1D10FF2F840FFF7EC
:104C60009FFFA86D441E002505E00918BBA0FFF7B3
:104C700097FF641E6D1C3C2D09D2002C00D53B24EF
:104C8000322000FB04F1D0480A5C002AEDD131BD8E
:104C9000CE48CF490A6802604A6842608A688260EA
:104CA000CA68C2600A6902614A6942610A7E826119
:104CB000097F8161C7490A7882614A6842628A68CD
:104CC0008262CA68C2620A6902634A6942638A6987
:104CD0008263CA69C2638A6EC0F88820BE4A93693B
:104CE000C0F89830D368C0F88C301369C0F89030A1
:104CF0005369C0F894300B6FC0F89C304B6FC0F80C
:104D0000A0308B6FC0F8A430C96FC0F8A810B349A9
:104D10000968C0F8AC10B2490B68C0F8CC304B68D9
:104D2000C0F8D0308B68C0F8D430CB68C0F8D83029
:104D30000969C0F8DC105168C0F8E8101168C0F8C3
:104D4000E410704770B506460C46994D6FF01E0191
:104D5000401A14D0083812D0001F05D0001F0ED002
:104D600008380CD0001F10D104F120002862EFF3A6
:104D7000148040F00200E862286AA86205E004F1AD
:104D800020002862EFF31480E862EFF30880686285
:104D9000EFF305802863EFF300806863FFF7C6FD3B
:104DA000A863EFF31080E863EFF311802864EFF35A
:104DB00013806864F1EE100AA864EE64002004E039
:104DC00054F8201045F82010401C0828F8D370BD76
:104DD00070B5774CA16D3C2901D30021A165A56D6B
:104DE0003221794A01FB05260A4601463046FFF783
:104DF00097FD002086F83100681CA06570BD70B575
:104E0000014674462046FFF79DFFFFF741FF20460D
:104E1000FFF78AFE00F09AF8002832D100F034F84B
:104E200005F0C8FAF32005F03FFB6E484FF0005440
:104E3000002505E02178641C05F01CFB30466D1C44
:104E4000461CB5F5C03FF5D3532105F013FB5221A5
:104E5000304605F00FFB741C4121204605F00AFB8B
:104E6000641C4D21204605F005FB5F48C046C04646
:104E700004F10D00FFF7BAFE05F0A5FA5B4800F05B
:104E80001FF8BDE8704054E510B505F093FAF32023
:104E900005F00AFB564C3820206002E020680830FC
:104EA00020602068402807D2002105F092FA0928E6
:104EB000F4D0FFF73EFDFCE7BDE8104005F083BAF3
:104EC00038B5044605F076FAF32005F0EDFA3D48D2
:104ED0000168204605F0B2FA241DFF21204605F0A6
:104EE000C9FA641C404D6979204605F0C3FA641C78
:104EF000E978204605F0BEFA641C2979204605F0C1
:104F0000B9FA641C2978204605F0B4FA641C697863
:104F1000204605F0AFFA641CA978204605F0AAFAED
:104F2000F521601C05F0A6FABDE8314005F04BBA4A
:104F300080B505F03FFAF32005F0B6FAAA212D4816
:104F400005F098FABDE8014005F03DBA0020294976
:104F50000978F52900D101207047000025730A0067
:104F600010B50446FFF73CFCC0B2142800DB132048
:104F7000024621462048FFF7D3FC4FF0AC300078C2
:104F800010BD80B500F049F8BDE80140D1E480B51E
:104F9000FFF7CEFF4FF4C83212490020BDE80840A9
:104FA00002F0EBB80CED00E00400FA05007A0020F6
:104FB000C0310120FC4F0508FECAFECA607A0020FD
:104FC00094FE0020847B002068C60020F41F01208E
:104FD00000ED00E020ED00E004E000E0A0ED00E0E6
:104FE00034EF00E00000060814410120F4FF070838
:104FF000A8410120FFFF0708A83E012010B500F0DE
:105000001BF80FF270142046FFF7EAFB0246214618
:105010000020BDE8104002F0B0B880B501214FF487
:10502000802003F062FA012003F02EFE94210F206D
:10503000BDE8044003F0CBBF80B501214FF48020D0
:1050400003F053FA012003F01FFE00210F20BDE8FA
:10505000044003F0BCBF10B5002401214FF48020B0
:1050600003F043FA012003F00FFE0F2003F0BCFF12
:10507000942800D10124204610BD00004E6F20531B
:10508000796D626F6C000000307825303878000050
:105090000A0A0A0A3D3D2043726173682044756D17
:1050A0007020496E666F726D6174696F6E203D3D50
:1050B0000A0000004669726D77617265205665725C
:1050C00073696F6E203A2025640A00000A49505324
:1050D00052203D20307825782C2041505352203DDD
:1050E00020307825782C2078505352203D2030787D
:1050F00025782C205046534352203D203078257887
:105100000A0000000A6661756C74206D6F6465208A
:105110003D203078257800000A5043203D2030782B
:1051200025782C204C52203D20307825780A00002C
:105130000A3C43726173682043616C6C2053746154
:10514000636B3E0A0000000030782578202025732C
:105150000A0000000A0A3D3D20526563656E742016
:105160004C6F67204D65737361676573203D3D0A21
:1051700000000000534E414D5900000000000000A7
:1051800038B5FFF7B6FBDFF830068468DFF828068D
:1051900000210171FFF7A7FB002C2CD0206800280C
:1051A00029D0607C2168497CC0B2814223D1256826
:1051B00000E00D002968002903D04A7CC0B2824279
:1051C000F7D0FFF796FBDFF8F0050069A04203D1A6
:1051D000DFF8E40521680161E06921680160C861C8
:1051E000E56129682160002900D0CC612C6095F828
:1051F000410085F84000FFF776FB31BD10B5FFF7A1
:1052000078FBDFF8B8050468DFF8AC05006A201AFF
:10521000012832DADFF8A005046A04E0DFF8980517
:105220000462FFF760FBDFF898050078C00722D51D
:10523000FFF75FFBDFF8880500788007EED5DFF821
:105240008005007810F0FD00DFF874150870FFF796
:105250004AFBDFF86405006A8442FAD0DFF858059B
:105260000462DFF858050068401CDFF8501508603C
:10527000DFF844154862FFF73CFB10BD38B5040069
:105280000020A071206A10F57A606062E069002851
:1052900002D02000E1698847FFF725FBE56809E0B7
:1052A000E868616A401A002801D5E8686062FFF783
:1052B0001AFB2D68002D1AD0FFF71BFB2069002870
:1052C00004D0687C2169497C884212D3287C40073D
:1052D000EDD5E868216A401A0128E1DA280000F0DB
:1052E0009EF9FFF706FB287C0028D9D101E0FFF7E3
:1052F00000FB31BD70B504000020607001202070FB
:1053000005F04EF80078C0B2CD2802D07D20FFF71E
:1053100083FAA06800280CD0A068406C002808D050
:10532000A068406C01680800002802D0A0684068AE
:10533000884794F8290000280BD0A06894F828101A
:1053400080F84010DFF870040079002801D0FFF7E2
:1053500017FFDFF870040078002823D0DFF8680416
:105360000068DFF85414096A401A002804D5DFF8F1
:1053700054040021017015E0FFF7BBFA05F058F95D
:105380000500FFF7B0FAA068002808D0A068406BBD
:105390002818DFF838140968401AA1684863DFF854
:1053A0002C040560A068002808D0A068007C0028B4
:1053B00004D1A068006B401CA16808632069002824
:1053C0002BD003E030682061FFF78DFAFFF791FAE8
:1053D0002669002E27D0357CEDB2002D23D068073A
:1053E00010D5F068216A411A012906DA300000F070
:1053F00016F9307C002805D10FE0616A411A0029B6
:1054000000D56062EDB215F0FB001028DAD1B0686B
:1054100080684068007C0028D4D1FFF76AFA02E077
:105420002000FFF72BFFA0790028F9D1DFF89003C7
:105430000078C00701D5FFF7E1FE00206071206908
:10544000002839D02069007C002805D020698068B8
:1054500080684068A06001E02069A060A06890F8C2
:105460004C00642802D08020FFF7D6F9A068806A3B
:105470000078CD2802D07820FFF7CEF9A068406CE4
:10548000002808D0A068406C41680800002802D0BD
:10549000A06840688847A06890F8400084F8280019
:1054A00084F82900DFF810038068C06A401CDFF828
:1054B00008138968C8620BE0002084F829000020E6
:1054C00084F828000020A06000202070FFF70BFA6D
:1054D000200070BD80B505F0D9F8DFF8F412097826
:1054E000002806D0022810D009D3042815D010D3E4
:1054F00014E0002902D0A320FFF78EF911E0002963
:1055000002D1A420FFF788F90BE0A620FFF784F969
:1055100007E0A720FFF780F903E002E0A820FFF7EB
:105520007BF901BD10B505F0B1F80400DFF8A00269
:105530000078002802D0A020FFF76EF9002C05D0DB
:10554000022C08D003D3032C09D00CE00EE0A420D9
:10555000FFF762F90AE0A620FFF75EF906E0A72050
:10556000FFF75AF902E0A820FFF756F910BD80B501
:1055700005F08CF8002805D0022808D006D30328AF
:1055800009D00CE0A320FFF747F90BE00AE0A620C2
:10559000FFF742F906E0A720FFF73EF902E0A82056
:1055A000FFF73AF901BD80B5DFF80C02007800285A
:1055B00002D19720FFF730F9DFF8FC010078401E98
:1055C000DFF8F4110870C0B2002827D1DFF8E80135
:1055D0004068002822D0FFF78CF9DFF8DC01406832
:1055E00000280BD0DFF8D00101210170DFF8C801DD
:1055F000FFF769F9DFF8C00100210170DFF8B80199
:105600004078F021084202D09920FFF705F9DFF831
:10561000A8014078002801D1FFF765F901BD10B558
:10562000816800290CD0DFF89011096AC160816897
:105630000A684968002A00D051600A600021816030
:10564000017C11F003010174C9B2002945D1DFF8D2
:1056500068110969002929D1DFF85C110861DFF8B8
:105660005801007800280CD1DFF84C0101210170AD
:10567000DFF84401FFF727F9DFF83C010021017052
:1056800003E0DFF8340101214171DFF82C0140789B
:10569000F021084202D09920FFF7BEF8DFF8180188
:1056A0004078002801D1FFF71EF916E0427C4B7CC0
:1056B000D2B29342D0D38142D1D04B7CD2B29A4263
:1056C0000BD10300FFE71B68002BDED05C7CD2B25D
:1056D000A242DAD18B42F6D1BEE710BD10B504006C
:1056E000627C35480078401C33490870394800E036
:1056F00008000168002903D04B7CD2B29A42F7D34C
:105700002160E061046000290AD0CC61487CD2B2FB
:10571000904202D194F8410000E0002084F840005B
:10572000207C002812D1FFF7E4F82000FFF777FF74
:1057300021484078F021084202D09920FFF76CF808
:105740001D484078002801D1FFF7CDF8FFF72BFF67
:1057500010BD10B51848047817480078401C164949
:1057600008701548FFF7AFF81348047012484078E6
:10577000F021084202D09920FFF74EF80E484078F9
:10578000002801D1FFF7AFF810BD10B504F084FF79
:1057900009480121017004F003FE04006846C04678
:1057A000021B203A012A03DBCD212000FCF756FD25
:1057B00009480121017010BD607A0020E8410120F4
:1057C0003B4201203C42012000420120EC410120EB
:1057D0003D4201206C7A00203F420120506002606F
:1057E0004160086070470A68F8E7486001607047E8
:1057F00001684068F9E7F8B50600DFF8C05802D53F
:1058000005F15800F2BD05F158040020296F00E0B1
:10581000096805F17002914204D00C46A2689642D4
:10582000F6D10120002840D1A86FD0F88070182050
:1058300004F056FF0446A660002F05D0B74203D2FD
:10584000B6FBF7F0784300E03046E060002F02D06E
:10585000B74200D23E46266100202075DFF860681E
:105860003078401C30707078F021084202D09920C6
:10587000FEF7D2FFFFF73DF87078401C707005F11D
:1058800070012046FFF7AFFF7078F021084202D088
:105890009920FEF7C1FF7078401E7070C0B20028DA
:1058A00001D1FFF720F8FFF77EFE2046F2BD38B5A4
:1058B000044694F91400002829D1DFF80458287808
:1058C000401C28706878F021084202D09920FEF729
:1058D000A3FFFFF70EF86878401C68702046FFF7BA
:1058E00087FF204604F014FF6878F021084202D0B8
:1058F0009920FEF791FF6878401E6870C0B20028BA
:1059000001D1FEF7F0FFBDE83140FFF74CBE31BDDD
:10591000F8B5044608466FF00045FFF76CFF0646F1
:1059200094F9050094F90410814214D1C01C800040
:1059300004F0D6FE074694F90500012807DB820033
:1059400021683846FEF7ECFF206804F0E1FE27608E
:105950006079C01C607194F90400411C21712168B8
:1059600041F82060DFF85C07864202D0307D401CA1
:105970003075002008E0216851F820108A689542AF
:1059800001DB1546A160401C94F904108842F2DB4B
:10599000F1BDF8B504466FF00046DFF8202702F1AC
:1059A000580502F158004FF0FF33002704E0664528
:1059B00001DB664675467F1C94F904C067450DDA25
:1059C000D4F800C05CF827E0DEF808C0002BEED564
:1059D0008C45ECD170463B465BB2ECE7002B11D412
:1059E000BCF1010F0EDB06E0216801EB830676684F
:1059F00041F823605B1C94F904104E1EB342F3DBA4
:105A0000491E217102F15801884204D0017D491ECE
:105A10000175FFF74CFFA560F1BD10B4C26A836B3E
:105A2000406C9C68002C02D56FF0004300E01B69BD
:105A30008468002C02D56FF0004000E000699842B5
:105A400000DD1846D2685143884201DB012000E0A6
:105A5000002010BC704738B5DFF860168A6FD36E2F
:105A6000012490F90850AC402343D36601F66C1131
:105A7000FFF7B9FE012032BD10B5DFF84016896F7F
:105A8000CA6E012390F90840A3409A43CA66FFF703
:105A9000AFFE012010BD012070472DE9FC410446F6
:105AA0000D4616461F4604F12400FFF731FF07EBB1
:105AB000470004EB8008314608F13000FFF728FF6B
:105AC000019598F9340000903B46627A94F90810E9
:105AD0000FF2F450FCF767FCBDE8F3812DE9FC41BF
:105AE00004460D4616461F4604F12400FFF751FFF9
:105AF00007EB470004EB8008314608F13000FFF760
:105B000048FF019598F9340000903B46627A94F979
:105B100008100FF2C850FCF746FCBDE8F381C16ADB
:105B20008A68012A09DB0969012906DA006D002863
:105B300001D500207047022070470020704701EB1C
:105B4000410200EB8201896B8A68012A09DB09693D
:105B5000012906DA006D002801D5002070470220D7
:105B6000704700207047002900D5D8E7E7E70129F2
:105B700000DA012113460A468FE7012900DA0121E4
:105B800013460A46AAE7DFF83405C06A417A481E80
:105B90008041C00F704713464FF0FF3211467CE73B
:105BA00013464FF0FF32114698E780B5DFF80C0539
:105BB0000068417A002902D1006E406880470120C8
:105BC00002BD80B5FFF758FFDFF8F0040068417AA6
:105BD000002902D1006E80688047012002BDB1F526
:105BE0007A7F01DC4FF47A7113460A464FF4FA715A
:105BF00053E7B1F57A7F01DC4FF47A7113460A4618
:105C00004FF4FA716AE710B50446002922D5E06A1C
:105C1000816801291CDB0069012819DA022120466C
:105C2000FFF7FBFE002813D194F9540010F1010F87
:105C300004D1002084F85400012010BD002807D1B1
:105C4000012060774FF0FF3084F85400022010BD2F
:105C5000002010BDBDE8104071E74FF0FF3280F822
:105C60005420F8E6DFF85424926FD2F88020A03256
:105C700052420265EFE600290AD5C06A816801290F
:105C800004DB0069012801DA022070470020704718
:105C900055E7B52900DAB42113460A463C21FCE653
:105CA000B52900DAB42113460A463C2116E710B59F
:105CB0000446002927D5E06A8168012921DB0069B3
:105CC00001281EDA03212046FFF7A7FE002818D17D
:105CD00094F95400014611F1010F04D1002084F819
:105CE0005400012010BD002803D1012084F8540085
:105CF00010BD012905D14FF0FF3084F85400022077
:105D000010BD002010BDBDE8104018E74FF0FF3275
:105D100080F85420DFF8A423926FD2F88020B432A8
:105D20005242026597E6DFF89423926FD2F8802002
:105D3000C832524202658EE613464FF0FF321146DA
:105D4000ABE613464FF0FF321146C7E680B5FFF7CA
:105D500082FEFCF7A6FA00210175012002BD80B584
:105D6000FFF78AFEFCF79DFA00210175012002BDB4
:105D70002DE9F0410C46D14D55F82060307206F106
:105D800054070FF26C313961152800F22E81DFE8DB
:105D900010F0160026003300530043006200730029
:105DA0008200B2009200A200C200D200E000EC002B
:105DB000F90007011301200120012001200106F153
:105DC0000800062141760A21817605F674114160AA
:105DD00040F2DC5181600FF23430386105E106F1A8
:105DE0000800062141760A21817605F6507141604E
:105DF0004FF496718160F8E006F108000C214176BD
:105E00001021817605F5805190314160102181602B
:105E10000FF24C303861E8E006F1080007214176C6
:105E20000B21817605F58051843141600B21816021
:105E30000FF22C303861D8E006F1080006214176D7
:105E40000A21817605F5855141600A2181600FF2B2
:105E500010303861C9E006F10800062141760A21B8
:105E6000817605F58051AC3141604FF4FA71816063
:105E70000FF208303861B8E006F1080014214176CD
:105E80001821817605F595514160182181600FF246
:105E90005C303861A9E006F1080002214176062154
:105EA000817605F59051D4314160062181600FF271
:105EB0000430386199E006F108000A2141760E218C
:105EC000817605F59051C43141600E2181600FF259
:105ED000C820386189E006F10800012141760521DA
:105EE000817605F59051DC314160052181600FF22A
:105EF000E020386179E006F10800052141760921AA
:105F0000817605F59051B8314160092181600FF229
:105F10003420386169E006F10800062141760A2143
:105F2000817605F59051E43141600A2181600FF2DC
:105F3000F810386159E006F1080001214176052189
:105F4000817605F59051F031416040F286618160C3
:105F50004BE006F10800012141760521817605F527
:105F6000CC514160052181603FE006F108000C2121
:105F700041761021817605F5C851883141601021A4
:105F8000816032E006F10800112141761521817609
:105F900005F5C8519831416041F66631816024E0D1
:105FA00006F10800112141761521817605F554513D
:105FB00041601521816018E006F108000421417656
:105FC0000821817605F5C85178314160082181604A
:105FD0000BE006F10800012141760521817605F5E7
:105FE00080517C3141600521816006F1080000216B
:105FF0000175417581750176C1600161417006F1DD
:1060000028080846C8F828004FF0FF3086F85400EA
:106010007880062206F15800FCF720F9002010E0F5
:1060200000EB400106EB8101002281F8342034317D
:106030004A7005F158024A6006EB800100228A642A
:10604000401C0228ECDB002086F8280088F80100BC
:1060500005F15800C8F80400FC60BDE8F08110B5F7
:10606000164C04F065FBA067002006E0682111FBD8
:1060700000417C3144F82010401C1628F6DB4FF01C
:10608000FF30206660660020A06605F0E9FD06F09E
:1060900049FC07F0DAF808F055F809F0FBF908F0C8
:1060A00049FB08F0CCFD09F05FFA09F098FD09F012
:1060B00060FABDE8104009F06DBA00000840002009
:1060C000607A00206040002041442025642025643F
:1060D0002025642025642C2025640000524D2025B5
:1060E00064202564202564202564202564000000A8
:1060F000975A0008575A0008975A0008795A00081A
:106100006F5B00087B5B0008675B0008875B00082B
:10611000575A0008875B0008795A00086F5B00082F
:106120007B5B0008675B0008AB5B0008575A000800
:10613000975A0008C35B0008975B0008A15B000842
:10614000675B0008975A00085B5C0008975A0008D4
:10615000795A0008DF5B0008F35B0008075C000861
:10616000975A0008655C0008975A0008795A000899
:106170006F5B00087B5B0008775C0008975A00089B
:106180000D5D0008975A0008795A0008935C0008D2
:10619000A15C0008AF5C0008975A0008275D000862
:1061A000975A0008795A00086F5B00087B5B00086B
:1061B000675B0008975A00084D5D0008975A000871
:1061C0005F5D0008395D0008435D0008675B0008FB
:1061D000975A0008575A0008975A0008795A000839
:1061E0006F5B00087B5B0008675B0008975A00083C
:1061F000575A0008975A0008795A0008395D000874
:10620000435D0008675B0008DFF8240E00787047E4
:106210002DE9F0418AB004F08BFA0446DFF8145EF1
:106220002E6842E096F9080007283DD00B283BDA9B
:10623000062839D006F10807B86C002803D5D4F831
:1062400080100818B8644FF0FF313046FA6D92693B
:1062500090478046B8F1010F04D197F84C00B96D12
:1062600009698847B8F1020F0BD1797E38697A68DD
:106270008018BA6D52699047002802D0304609F064
:10628000CDFD00213046FA6D92699047022801D178
:106290000120B87501213046FA6D926990470228B5
:1062A00002D1304609F066FE3668AE42BAD1D4E972
:1062B0001C01002901D100280CD00A208DF808000B
:1062C00002208DF80000D4F88000ADF8220000A86C
:1062D00001F008FF01200AB0BDE8F08130B585B0BB
:1062E00004460D46CA208DF800002888ADF801004C
:1062F0000220ADF80300BDF80100001D04F0F0F924
:10630000CDF8090002220DF10301FEF709FB02227C
:106310002946DDF80900801CFEF702FB2A88214689
:10632000DDF80900001DFEF7FBFA0020288000A917
:10633000DFF8EC0D0AF020F905B030BD42F234115F
:10634000081A322801DA012070470020704780B512
:10635000FBF7A7FF407B002804D009F0E5FCDFF83D
:10636000C41D086001BD80B509F0DEFCDFF8B81D72
:10637000086001BDDFF8B00D0068704710B582B04D
:1063800000F10C03D96A89680091042200A95C7DA0
:10639000DB68C06818182018FEF7C2FA13BD30B4C5
:1063A0001488651C1580052565541488651C1580A6
:1063B000635413885C1C1480007A585430BC7047B6
:1063C00032B515461C4621884A1C228037224A5580
:1063D00021884A1C2280007A4855022200A9208880
:1063E0004019FEF79DFA2088801C208031BDF8B549
:1063F00017461D4600F10C06069CA4B2B27D62430E
:10640000C06809182888C019FEF78AFA2888B17D63
:10641000614311FA80F02880F1BD30B400F110031F
:106420009B7C914203D1006990FBF3F00DE00C4698
:10643000154603D2281B90FBF3F006E00069001B11
:1064400090FBF3F095FBF3F1081880B230BC704775
:1064500000F110018A688B7CD2188A600069824240
:1064600001D10020886000208873704770B582B029
:1064700004460D461E4692B289B2FFF7CEFF009049
:10648000069B324629462046FFF7B1FF73BDF8B59B
:10649000044615461E462269002D00D11546069F6A
:1064A0000097FFF7E3FF2069854206DA009733463D
:1064B0002A4600212046FFF7D9FFF1BD2DE9FC4116
:1064C00004460D461646A1696069002815D50027C7
:1064D0000A4692B289B22046FFF79FFF80463346B4
:1064E0002A4641462046FFF76BFFA26900962B46DD
:1064F00011462046FFF7CBFF2EE0814216DA012736
:106500000A4692B2014689B22046FFF786FF8046CE
:1065100033462A4641462046FFF752FF00962B4657
:10652000A26961692046FFF7B2FF15E002270A461B
:1065300092B2014689B22046FFF76FFF804633468C
:106540002A4641462046FFF73BFF00962B46A269AC
:1065500061692046FFF78AFFA06901906069009099
:106560003B46424694F908100FF20800FBF71BFF68
:10657000BDE8F3815061636B203D256420256420D4
:1065800025642025642025640000000070B582B0D9
:1065900004460D461646A06C012811DAA07F01289A
:1065A00011D133462A4601212046FFF709FF012079
:1065B000009033462A46A1692046FFF718FF02E003
:1065C0002046FFF77BFF0123324629462046FFF78E
:1065D000E6FEA0696061A36CE26C94F908100FF20A
:1065E0000C00FBF7E0FEA06CE06473BD666C757395
:1065F0006820256420256420256400002DE9F843E7
:1066000004460D46164604F093F88146FBF749FE12
:10661000804604F10807B87D002802D02046FFF725
:10662000ADFE386C0128C0F2888098F80E00002872
:1066300044D0B87D002800F0C080786CD9F8801074
:10664000401A7864B87E3969FA68531A834205D0D3
:10665000002A2FD1BA68511A81422BD194F908200F
:10666000397E0FF25C10FBF79EFE397E00291ED0AA
:1066700094F908200FF26010FBF795FE3869B97E97
:10668000421892B2F96889B22046FFF7C6FE334637
:106690002A4601462046FFF793FE00962B463869AE
:1066A000B97E4218F9682046FFF7F1FE02E04FF08C
:1066B000FF30F8602046BDE8F243C9E698F80E00C6
:1066C00000287AD1786CD9F88010401A78640128B3
:1066D0002CDA386C7864386BD0F80C8094F9083078
:1066E0008268396C0FF20C10FBF75DFEB868B97E5A
:1066F00090FBF1F0396C91FBF8F1814202DB4FF035
:10670000FF30F860B87D00280AD02046FFF7A0FED1
:10671000324629462046FFF7D1FE3869F8604CE042
:10672000324629462046BDE8F843C7E6B87D002832
:1067300043D02046BDE8F2438AE6B87D00283CD02D
:1067400094F9080098F80A10002917D007282FD1CB
:1067500033462A4601212046FFF732FE01200090F1
:1067600033462A4639692046FFF741FE7A7894F984
:1067700008100FF29400FBF716FE19E0092809D162
:1067800094F85E10012905D10FF28C00BDE8F443A6
:10679000FBF709BE33462A4601212046FFF710FECB
:1067A0000120009033462A4639692046FFF71FFE34
:1067B0002046FFF74DFE3869F860BDE8F183000020
:1067C00073757370656E64206669666F2066756C9C
:1067D0006C2025642025640073757370656E6420D9
:1067E0006669666F2066756C6C20322025642025F2
:1067F000640000006669666F2066756C6C33202546
:1068000064202564202564004150205375732025A1
:106810006420256400000000233E6C75785F73617E
:106820007420256400000000F8B504460D46DFF82A
:106830000468376805E02A4621463846FFF7DEFE41
:106840003F68B742F7D1F1BD2DE9F04104460D464E
:10685000DFF83C6CF76907F10C0898F81510D8F8C8
:106860000C00FA688018D8F8542052699047002824
:106870000AD0012088F81200787A002804D02A462D
:1068800021463846FFF7BAFEB66906F10C07797D56
:10689000F868F26880187A6D52699047002809D02C
:1068A0000120B874707A002804D02A462146304668
:1068B000FFF7A4FE0120BDE8F0810288D21C02800F
:1068C0000A80704780B50B889B1AADF80030BDF880
:1068D0000030002B09D01018012100F8031C0222FF
:1068E00000A9801EFEF71CF801BD0888C01E0880A4
:1068F00001BD2DE9F04FADF64C1D04460D4603F0E9
:1069000017FF0746FBF7CDFC804610A840F608119C
:10691000FDF744FF00208DF8020006A82821FDF7AE
:106920003DFF01A81421FDF739FF0020ADF800005C
:106930000646D7E91C01002902D1002800F0748323
:1069400098F909000AF0EBFA002800F06D8300A91D
:106950002846FFF7B2FFB0461CE0D7E91C014246CB
:106960000AF0ECFC00F0010011F0000101D1002858
:106970000ED008EB8800DFF81C1B01EBC00292F977
:106980000900012804D10DF1020110A8126A9047F4
:1069900008F10108B8F12D0FDFDB37461AE028882F
:1069A000411C298099F8021001552888FFF7C6FC80
:1069B00000280DD0BDF8002029462046FFF782FFB1
:1069C00029462046FFF78AFC00A92846FFF775FFF5
:1069D0007F1C7FB29DF80200874280F21D832988C8
:1069E000481C288040F2211010FB07F010AA825C9E
:1069F0000A5529884A1C2A8010AA00EB020898F838
:106A0000010008552888411C298008F1010999F8DE
:106A10000110015599F8010003281ED0092800F043
:106A200049810C2800F023811A2800F042821B289B
:106A300000F056811C2800F070821D2800F0638150
:106A40001E2800F05A82252800F09982262800F09E
:106A5000D382282800F0AE82A1E798F8010003282D
:106A600005D12888411C298099F8021001552888F1
:106A7000411C298099F80310015599F80300C0289A
:106A80000DD1B8F83020D8F8321028880019FDF759
:106A900047FF2888B8F830100818288085E7711C4F
:106AA00000064ED401A808F1040252783254C9B24B
:106AB00098F806200A54491CC9B200220A544A1CFC
:106AC00008F20601D2B24B781354521CB8F80E30BB
:106AD000D2B21E0A1654521CD2B21354521C08F2DF
:106AE0000E03D2B29E781654521CD2B2DB781354E5
:106AF000521CD2B298F812301354521CD2B298F8E9
:106B000013301354521CD2B28B781354521CD2B28D
:106B1000C9781154511CC9B298F80A200A54491C6A
:106B2000C9B298F80B200A544E1CF6B2324601A99D
:106B300028880019FDF7F4FE288850FA86F028808E
:106B400033E7D8F8052006A8130C3354C9B2130A4A
:106B50000B54491CC9B20A54491CD8F80920C9B2BF
:106B6000130C0B54491CC9B2130A0B54491CC9B26B
:106B70000A54491CD8F80D20C9B2130C0B54491CF7
:106B8000C9B2130A0B54491CC9B20A54491CD8F89B
:106B90001120C9B2130C0B54491CC9B2130A0B546F
:106BA000491CC9B20A54491CD8F82720C9B2130C91
:106BB0000B54491CC9B2130A0B54491CC9B20A54DC
:106BC0004A1C08F22701D2B20B791354521CD2B2DC
:106BD0004B791354521CCB88D2B21E0A1654521C45
:106BE000D2B21354521CD2B2097A1154511CD8F8A3
:106BF0001520C9B2130C0B54491CC9B2130A0B540B
:106C0000491CC9B20A54491CD8F81920C9B2130C3E
:106C10000B54491CC9B2130A0B54491CC9B20A547B
:106C2000491CD8F81D20C9B2130C0B54491CC9B219
:106C3000130A0B54491CC9B20A54491CD8F8212024
:106C4000C9B2130C0B54491CC9B2130A0B54491C8A
:106C5000C9B20A544E1CF6B2324606A92888001959
:106C6000FDF75EFE288850FA86F028809DE608F140
:106C70000301B1F90300C0F3072242EA0020A1F8A2
:106C80000300B1F90700C0F3072242EA0020A1F88F
:106C90000700B1F90500C0F3072242EA0020A1F87D
:106CA0000500092228880019FDF73AFE28880930D6
:106CB00028807AE62888034698F80110032909D12C
:106CC000022208F103011819FDF72AFE2888801C0A
:106CD00028806AE6401C288099F80200185564E66E
:106CE0002888411C298099F80210015598F8010064
:106CF00005287FF45AAE2888411C298008F1040138
:106D00004978015551E608F1030998F80100012876
:106D100040F0BF802888411C298099F80410015553
:106D20004FF0000A9CE01B2010FB0A9BDBF80C20B4
:106D3000DBF808100FF20030FBF735FBDBF818002A
:106D4000010221F0FF11000A00F0FF100843CBF808
:106D500018004FEA3040CBF8180004220BF118015C
:106D600028880019FDF7DCFD2888001D2880DBF845
:106D70000800010221F0FF11000A00F0FF10084393
:106D8000CBF808004FEA3040CBF8080004220BF1A2
:106D9000080128880019FDF7C3FD2888001D2880F8
:106DA000DBF80C00010221F0FF11000A00F0FF10D7
:106DB0000843CBF80C004FEA3040CBF80C0004221B
:106DC0000BF10C0128880019FDF7AAFD2888001D89
:106DD0002880DBF81000010221F0FF11000A00F00A
:106DE000FF100843CBF810004FEA3040CBF81000FA
:106DF00004220BF1100128880019FDF791FD288865
:106E0000001D2880DBF81C00010221F0FF11000AA0
:106E100000F0FF100843CBF81C004FEA3040CBF8DD
:106E20001C0004220BF11C0128880019FDF778FDD5
:106E30002888001D2880BBF81600010A41EA0020BE
:106E4000ABF8160002220BF1160128880019FDF795
:106E500067FD2888801C28800AF1010A5FFA8AFAF7
:106E600099F804008245FFF65EAFB8F81B21D8F808
:106E70001D1128880019FDF753FD2888B8F81B114B
:106E800008182880B8F81B110FF2BC10FBF78BFA1A
:106E90008BE505287FF489AD2888411C298099F865
:106EA000021001552888411C298099F803100155CA
:106EB0007BE508F1030198F80100032805D1288833
:106EC000421C2A8098F80A200255D1F801000202DB
:106ED00022F0FF12000A00F0FF101043C1F8010079
:106EE0004FEA3040C1F80100072228880019FDF759
:106EF00017FD2888C01D288057E508F10301088880
:106F0000020A42EA00200880022228880019FDF7C0
:106F100007FD2888801C288047E508F1030098F8C1
:106F2000011001297FF441AD99F80210012918D10F
:106F300029884A1C2A8000780855B8F80420D8F817
:106F4000061028880019FDF7EBFC2888B8F8041013
:106F500008182880B8F804100FF20010FBF723FA85
:106F600023E502297FF421AD29884A1C2A80027872
:106F70000A5529884A1C2A80C079085515E52888B1
:106F8000411C2980B9F8021001552888411C29802C
:106F9000B9F9021009120155B9F90220D8F8051003
:106FA00028880019FDF7BCFC2888B9F902100818D8
:106FB0002880FAE42888411C2980B9F8021001557C
:106FC0002888411C2980B9F9021009120155288826
:106FD000411C298008F1040149780155B9F90220C2
:106FE000D8F8061028880019FDF79AFC2888B9F906
:106FF000021008182880D8E408F103010888020A62
:1070000042EA00200880022228880019FDF788FC47
:107010002888801C2880C8E4BDF800202946204626
:10702000FFF750FC09F0A9FF0DF64C1DBDE8F08FED
:1070300037420120744900204C54204E4D472025F2
:1070400064202564000000004F4A483A2041544221
:10705000442073697A653A20256400004F4A483A13
:1070600020415044522073697A653A20256400001B
:107070002DE9F04105460E46FBF713F90746DFF808
:1070800018442078401C20706078F021084202D01B
:107090009920FDF7C1FBFDF72CFC6078401C607067
:1070A00097F81880B8F1000F26D03088404480B29D
:1070B000FFF744F9002803D031462846FFF70EF9C0
:1070C0003088411C3180032141553088411C31807A
:1070D00000F80580424607F1190130884019FDF794
:1070E0001FFC308840443080FF22002107F1190046
:1070F000FBF7B4F8002038766078F021084202D01F
:107100009920FDF789FB6078401E6070C0B20028AE
:1071100001D1FDF7E8FBBDE8F041FEF744BA0000FD
:10712000C07D0020D8410120DC41012038B5044653
:107130000D46FBF7B6F8817A002909D1417B002979
:1071400006D129884A1C2A8006220A55012141734A
:1071500031BD38B504460D46288800280CD020469D
:10716000FFF786FF29462046FFF7E0FF2946204625
:10717000BDE83440FFF7B2B831BD14B585B0049115
:1071800001A90022134614461CC10A21ADF80010C3
:1071900004218DF804108DF805000A4605A90DF1AB
:1071A0000600FDF7BDFB042204A90DF10A00FDF75E
:1071B000B7FB00A901A8FFF791F806B010BD80B594
:1071C000FBF76FF84FF49671FBF758FA07208DF82C
:1071D00002000120ADF8000000A90DF10200FFF748
:1071E0007DF801BD2DE9F041DFF8804C6068002892
:1071F00028D0218888421FD003F072FA05466668BD
:107200002788A6EB07081FFA88F84246381900F1CC
:1072100008012846FDF784FB3A4604F1080108EB13
:107220000500FDF77DFB3246294604F10800FDF715
:1072300077FB284603F06CFA626804F10801052028
:10724000FFF79BFF002060602080BDE8F0812DE902
:10725000FC4105460F469046FBF723F80026D5F87B
:1072600009100C1D2A781146012960D00F2933D04E
:10727000352935D0802900F08680812900F08D8065
:10728000822900F08A80852900F08780862900F015
:107290008480882900F081808A2900F086808B29EB
:1072A00000F09F808C2900F0AB808D2900F0B38026
:1072B000DD2900F0BD80DF2900F0D780F02918D04B
:1072C000F42921D0F62927D0F82945D0F92933D03F
:1072D000FF2900F0A5805DE0807D207001205AE04C
:1072E000012007F02EFE304607F02FFE012020700F
:1072F00051E00422DFF8781B2046FDF711FB012046
:10730000FDF7B6F8012046E0042200F11001204606
:10731000FDF706FB01203EE0032221463046DFF860
:10732000543B9B681B6E1B6A9847012033E0204644
:107330000AF032F801202EE0B5F80120B5F803007C
:10734000C010C0EB0011D5F8050000EB81112046FC
:10735000FDF7E6FA01201EE03046ADF804000120FA
:107360006979012900D10320FCF7EBFAFCF725FB32
:10737000ADF80400FCF738FB022201A92046FDF716
:10738000CFFA012007E0D5F80500207021463046ED
:1073900008F09EFE3046BDE8F6813046207021465A
:1073A00002F07F0008F094FEF4E701202070DFF87F
:1073B000C40A45683746287F002801D13046EAE7ED
:1073C000687A002803D1286E406880470746204627
:1073D000296EC9698847002FDCD0286E80688047F5
:1073E000D8E70120B5F80310C1F3C101091D884099
:1073F00040F0020020702146012008F069FEC9E734
:1074000001782170C17861704179A1708079E07054
:1074100001202071BFE7204609F0D2FF0646B9E7F8
:1074200004F10802211D2046FDF7D0F80120B2E743
:107430006879DFF8401A51F82050687A002810D097
:10744000424639462846FFF7A1F8DFF82C0A012109
:107450000170DFF8281A08200AF074F80120207063
:1074600001E030462070012095E76879DFF8041AC2
:1074700051F82050286995F8221090FBF1F0401E39
:107480000090042200A92046FDF74AFA012082E775
:107490000840002020D20020607A0020F0B593B090
:1074A0000646FAF7FEFE054603F042F9D6F8091043
:1074B0000C1D3178002208924FF0FF3209921746D6
:1074C0000A46312A00F01181322A00F01881332A4D
:1074D00000F02481342A00F02B81A12A00F055818C
:1074E000A22A00F07481A42A00F07F81B12A00F062
:1074F000F482B22A00F07684B82A00F09181C12A81
:1075000000F0B981CD2A00F08080CE2A00F096806C
:10751000D02A37D0D12A2BD0D22A38D0D32A3FD064
:10752000D42A41D0D62A4DD0D72A4BD0D82A51D0F0
:10753000D92A4FD0DB2A00F01381DC2A00F0178112
:10754000F12A4FD0F22A00F09280F52A00F0A680AE
:10755000F72A00F0B980FA2A00F06E84FB2A00F0C6
:107560006D84FD2A00F0A580FE2A00F07684B9E043
:1075700000212846FBF7C0F80020A873FFF732FE71
:107580000120B0E00020FCF773FF0120ABE00121F7
:107590002846FBF7B1F801200AF024F80120A2E008
:1075A0000020A87201209EE00120A87200206873CC
:1075B0000120A873E87A002802D101200AF012F80D
:1075C000012090E0D62901D1012000E00020E872DE
:1075D000012088E0D92901D1012000E00020287392
:1075E000012080E000210CE00A180B5D82F8843055
:1075F000022905D10A5D80F887200A5D80F888207D
:10760000491C0329F0DB01206DE0002512E0DFF8C2
:107610006408466806EB4506022204EB450106F1C4
:107620005800FDF77DF9B6F95810DFF85408FAF75D
:10763000BAFE6D1C032DEADB012054E0002512E0A8
:10764000DFF83008066806EB4506022204EB450128
:1076500006F15800FDF764F9B6F95810DFF8240870
:10766000FAF7A1FE6D1C032DEADB01203BE0297C2B
:10767000090601D4012036E02178A0F88A1061784B
:10768000A0F88C1002212046DFF8E827D269126E9C
:1076900092699047002825D0012024E0032221464A
:1076A0000120DFF8D0379B681B6E1B6A98470120CA
:1076B00019E01B2221460720DFF8B8379B681B6EB4
:1076C0001B6A984701200EE0DFF8A8078669306E34
:1076D00080688047002805D0012221460520336EAE
:1076E0001B6A9847002013B0F0BD07F032FC012858
:1076F00001D10120F7E7204607F056FBF2E707F03B
:1077000028FC012801D10120EDE7204607F0D1FB3C
:1077100020780028E6D007F0FDFBE3E707F019FC2E
:10772000012801D10120DEE7207807F0FAFBD9E734
:1077300007F00FFC012801D10120D4E74FF480515C
:107740000020FBF712F8012007F07EFA012007F075
:10775000FCFB207807F006FC07F0EBFA0120C2E7FB
:10776000D6F80510DFF82007FAF71DFEBAE7FDF797
:10777000EDFB002802D0FDF70AFCB3E7FDF76BFC38
:107780000028AFD0FDF73AFCACE794F90050042292
:10779000611C08A8FDF7C4F8B6F80100062806DB4E
:1077A0000422611D09A8FDF7BBF894F90970042DA6
:1077B00004D1DFF8C0060069A17A81720097099BA5
:1077C00000220899284608F0E2FC20708AE794F924
:1077D00000500422611C08A8FDF7A2F800231A46F5
:1077E0000899284608F03EFD7DE794F900500422F0
:1077F000611C08A8FDF794F8B6F80100062806DB1E
:107800000422611D09A8FDF78BF894F9097000970F
:10781000099B00220899284608F074FD207061E752
:1078200020780146032906D01A2911D0252913D022
:10783000282915D018E060788DF80A00012805D1B4
:10784000A0788DF80B00204600F002FC01204AE7EA
:10785000204600F0FDFBF9E7204600F0F9FBF5E7D4
:10786000204600F0F5FBF1E794F9011040B209F071
:1078700026FCC0B237E7207801460E3908D0091F30
:1078800003291CD9091F37D0491E00F09B800EE147
:107890000E208DF8080060788DF80A00A1788DF828
:1078A0000B10E2788DF80C200023ADF80D3052B2A9
:1078B00049B240B2FAF771FF00F0C1FBF7E08DF872
:1078C0000800122802D161788DF80A10132802D11D
:1078D00061788DF80B10142802D161788DF80C10A6
:1078E000152802D160788DF80A0062782178DFF8D7
:1078F0009C05FAF758FDDAE06078A178090401EBFD
:107900000060E17800EB012021794018CDF80A00F1
:107910006079A179090401EB0060E17900EB0120B5
:10792000217A4018CDF80E00607AA17A090401EBA3
:107930000060E17A00EB0120217B4018CDF81200B5
:10794000607B8DF81600A07B8DF81700E07B8DF82A
:107950001800207C8DF81900607C8DF81A00A07C3E
:10796000E17C11EB002000B20146ADF81B10217D37
:1079700000EB0120617D4018ADF81D00A07D8DF861
:107980001F00DDF80A00002807D1DDF80E000028EE
:1079900003D1DDF81200002809D00DF10A0184B0EE
:1079A00068461622FBF744F80FBCFAF79DFF0DF16D
:1079B0000A0184B068461622FBF73AF80FBC00F0C3
:1079C0006BFB74E060788DF809001D283ED1A0782B
:1079D0008DF81300A07801280ED1E078217911EB01
:1079E0000021ADF80A1089B20A469DF809100FF27D
:1079F000A440FAF7D8FC5AE002280BD1E0782179AC
:107A000011EB0021ADF80C1089B20FF29840FAF793
:107A1000CAFC4CE003280BD1E078217911EB00215E
:107A2000ADF8141089B20FF28840FAF7BCFC3EE0C2
:107A300004283CD1E078217911EB0021ADF8161033
:107A400089B20FF27840FAF7AEFC30E0262809D16F
:107A5000A0788DF80E00A078012828D1E0788DF864
:107A60000D0024E01C2822D1A0788DF80D00A0780C
:107A7000012807D1E1788DF80A100FF24C40FAF78F
:107A800092FC14E0022807D1E1788DF80B100FF278
:107A90004C40FAF788FC0AE0032808D0052806D1F4
:107AA000E1788DF80C100FF24840FAF77CFC0620C4
:107AB0008DF8280020780B900DF1310002A91822D2
:107AC000FAF7B6FF0B208DF830000020ADF84A0021
:107AD0000AA800F007FBC0B205E694F9000008F020
:107AE00096FD012840F04F8120780146032925D0DA
:107AF000062962D0092928D00C2942D00D294ED060
:107B0000192900F08D801A2964D01B2900F09D806E
:107B10001C2900F0D8801D2900F0B0801E2900F03B
:107B2000DF80252900F0F880262900F0E78027294A
:107B300000F0F980282900F01D811FE10322611C5B
:107B40000DF10A00FCF7ECFE1DE10722611C0DF1AE
:107B50000A00FCF7E5FEBDF80A00010A41EA002030
:107B6000ADF80A00BDF80C00010A41EA0020ADF8AA
:107B70000C00BDF80E00010A41EA0020ADF80E002D
:107B800001E10322611C0DF10A00FCF7C9FEBDF8FA
:107B90000B00010A41EA0020ADF80B00F3E00322DC
:107BA000611C0DF10A00FCF7BBFEBDF80B00010AD9
:107BB00041EA0020ADF80B00E5E00122611C0DF167
:107BC0000A00FCF7ADFE9DF80A100FF23830FAF704
:107BD000EAFBD8E00B22611C0DF10A00FCF7A0FEC5
:107BE000DDF80B00010221F0FF11000A00F0FF1088
:107BF0000843CDF80B004FEA3040CDF80B00BDF83C
:107C00001000010A41EA0020ADF8100000239DF9A0
:107C100014209DF913109DF91200FAF7BEFDB2E091
:107C20000622611C0DF10A00FCF77AFEBDF80A007D
:107C3000010A41EA0020ADF80A00BDF80E00010A71
:107C400041EA0020ADF80E009DE00422611C0DF118
:107C50000A00FCF765FEBDF80A00010A41EA0020AF
:107C6000ADF80A00BDF80C00010A41EA0020ADF8A9
:107C70000C000FF29C20FAF796FB84E00922611CAD
:107C80000DF10A00FCF74CFEBDF80A00010A41EABA
:107C90000020ADF80A00BDF80C00010A41EA0020FE
:107CA000ADF80C00BDF80E00010A41EA0020ADF865
:107CB0000E0000239DF912209DF911109DF910006E
:107CC000FAF76BFD5FE060788DF80A00A0788DF818
:107CD0000B00A27861780FF24420FAF764FB52E0BF
:107CE0000322611C0DF10A00FCF71AFEBDF80B001F
:107CF000010A41EA0020ADF80B0044E00522611CB6
:107D00000DF10A00FCF70CFEBDF80B00010A41EA78
:107D10000020ADF80B0036E00922611C0DF10A00CD
:107D2000FCF7FEFD2FE00A22611C0DF10A00FCF7B2
:107D3000F7FDBDF90A00C0F3072141EA0020ADF8C4
:107D40000A00BDF90C00C0F3072141EA0020ADF89C
:107D50000C00BDF90E00C0F3072141EA0020ADF888
:107D60000E00BDF91000C0F3072141EA0020ADF874
:107D7000100008E060788DF80A0004E08DF8080033
:107D800060788DF8090020780146052907D1404820
:107D900001210170687A00280ED10846A3E4182951
:107DA0000AD18DF8080060788DF80900A0788DF868
:107DB0000A00E0788DF80B0000208DF8280020786C
:107DC0000B900DF1310002A91822FAF731FE0B20B9
:107DD0008DF830000020ADF84A000AA800F082F9C2
:107DE000C0B280E42078052804D129480021017020
:107DF000012078E41A280CD10822611C0DF10A0038
:107E0000FCF78EFDBDF81000010A41EA0020ADF834
:107E1000100001208DF8280020780B900DF1310022
:107E200002A91822FAF704FE0B208DF830000AA8E8
:107E300000F058F9C0B256E4012054E4207800283C
:107E400002D0052805D006E00FF2E000FDF788F823
:107E500001E0FFF7C7F9012045E404F10802211D04
:107E60002046FCF76BFB01203DE4000024050120C7
:107E7000847B0020084000203642012010B50020FD
:107E80009CD40208A8D40208B4D40208C0D40208C2
:107E9000374201204C542053502025642C20256467
:107EA000000000004C5420575020256400000000C2
:107EB0004C54205352202564000000004C542053A1
:107EC00041522025640000005B415044525D204E29
:107ED000545F5357554E2025640000005B415044C9
:107EE000525D204E545F54575553202564000000C6
:107EF0005B415044525D204E545F42415443482000
:107F00002564000050443A205343202564000000BB
:107F10004C542053532041444400000041504452EB
:107F200020414444202564202564000041505F52D4
:107F3000455155455354000069487047F8B50C4603
:107F40001646012500282BD106EB8600644901EB7B
:107F5000C007F868E040C00708D52346FA683146F4
:107F60000FF2FC20FAF71FFA0220F2BD4FF0FF30AB
:107F7000009003462A467968204608F008F9002850
:107F80000CD02346FA6831460FF2E420FAF70BFAD8
:107F9000F8682946A1400843F8602CE00220F2BDB1
:107FA000012828D106EB86004D4901EBC007F8688F
:107FB000E040C00708D42346FA6831460FF2C020DB
:107FC000FAF7F1F9032516E04FF0FF332A467968F6
:107FD000204608F047F9002807D02346FA683146C2
:107FE0000FF2AC20FAF7DFF900E00325F868012171
:107FF000A1408843F8602846F2BD09F06CB802B58C
:108000008AB00021ADF8221001910A218DF80810E4
:1080100000218DF809108DF80A1005218DF8001047
:10802000019004220AA90DF10900FCF779FC002057
:10803000ADF8220000A800F055F80BB000BD80B5E7
:108040000AF064F80FF25820BDE80240FAF7ABB925
:1080500038B5447885780078032810D01A281AD1CA
:10806000012C18D101200BF051FC012322461A21CA
:108070000FF2382001B0BDE83040FAF794B9012C76
:1080800009D128460AF04DF829460FF23020BDE804
:108090003440FAF788B931BD0FB480B5002805D156
:1080A0000846002802D11046002804D00CF099F9A7
:1080B000C046C04601E00CF07DF901BC5DF814FB40
:1080C00000222D2809D200EB8003054800EBC300F5
:1080D000C068C840C00700D50122104670470000A4
:1080E00020D2002030B585B00446012594F9000067
:1080F000062800F2A180DFE800F00428445F7697AC
:108100009B0004F1090182B068461822FAF790FC3E
:108110000CBC94F90810606840B208F015FC022805
:108120000AD1606800B208F0F4FD002561680FF222
:108130009810FAF738F985E0032840F083806168E9
:108140000FF28C10FAF72FF97CE060681A280AD138
:1081500004F1090009F06BF8237CE268E17A0FF280
:108160007810FAF720F994F90810606840B208F026
:10817000EBFC032866D161680FF27410FAF713F96B
:1081800060E0618C00A808F0DEFD9DF90400022883
:108190000AD1009800B208F0BCFD002500990FF24A
:1081A0005810FAF700F94DE003284BD100990FF26F
:1081B0005010FAF7F8F845E00CF030FA02280AD12E
:1081C000606800B208F0A5FD002561680FF2381064
:1081D000FAF7E9F836E0032834D161680FF230107D
:1081E000FAF7E1F82EE0606805280CD128460CF07B
:1081F000DCFA02280DD0032824D161680FF2201088
:10820000FAF7D1F81EE002281CD10CF0D2FB0228AC
:10821000F1D1606800B208F07CFD002561680FF2C2
:10822000F800FAF7C0F80DE0204608F0F1FD09E08B
:10823000204608F09BFF05E061680FF2EC00FAF7BA
:10824000B2F80025284605B030BD012070470FB4B4
:10825000022004B07047012070470020704770472B
:10826000534D4143202564202564202564000000EF
:10827000534D412025642025642025640000000022
:10828000534D5243202564202564202564000000BE
:10829000534D5220256420256420256400000000F1
:1082A0005044205365745354000000004154205240
:1082B000492D256420256420256400005044205564
:1082C000542D256400000000414C4F4620256400D9
:1082D000414C4346202564004F4A4820454C2030FD
:1082E00078257820307825782030782578000000AF
:1082F000524C434620256400504C4F4620256400D4
:10830000504C43462025640050414F4620256400D0
:10831000504143462025640050504F4620256400BC
:1083200050504346202564004558204C4D454C2074
:10833000256400005FF0FF0C1CEAD05114BF6145BA
:1083400006E0C110400721F0E04101F160517047A3
:1083500079B900F0004100020AD0B0FA80FC00FABE
:108360000CF001F16051A1EB0C5101EBD021400563
:10837000704741020CBF40F4E0016FF000010020A3
:10838000704700004FEAF17CBCF1E04C2CBFBCF51B
:10839000001F11E05FEA4C0C34BFBCF17F5F2EE0A0
:1083A0005FEA9C0C4FEA0C1C4FEA3C0CC10071F1D7
:1083B00000414CEB50707047C90241EA5051C00275
:1083C00018BF41F0010141F000414FEA6C50C0F18B
:1083D0000900212810D240EACC7CCCF1200C11FA03
:1083E0000CF070F10040CCF1200C21FA0CF00CF0F4
:1083F000004C40EB0C0070474FEACC7070474900CE
:1084000011F5001F04D84FEACC10FF30C0057047AB
:10841000C81770471FB50CF02DFB212101601FBD4F
:10842000DFF8AC1100220A700A70012802D004287B
:1084300003D070470120087070470520087070470E
:1084400064490860704710B463494A6802F00C023E
:10845000082A13D10A680B6803F03F03604CB4FB91
:10846000F3F30A68C2F388125A430B68C3F301435B
:108470005B1C5B00B2FBF3F2026001E0584A026051
:108480004A6802F0F003574A1B099B5C046824FA0F
:1084900003F343604C6804F4E054A40AA45CE34092
:1084A0008360496801F46041490B895C426822FAA3
:1084B00001F1C16010BC7047484900F44072B2F548
:1084C000407F06D10A6822F4F812474B03401A4352
:1084D0000A608A6E000552EA105088667047434968
:1084E00008607047424908607047424A0029116895
:1084F00002D008431060704721EA00001060704706
:108500003D4A0029116802D008431060704721EAF3
:10851000000010607047394A0029116802D00843F2
:108520001060704721EA000010607047344A00294B
:10853000116802D008431060704721EA0000106003
:108540007047304A0029116802D008431060704714
:1085500021EA0000106070472B4A0029116802D000
:1085600008431060704721EA000010607047274AF6
:108570000029117802D008431070704721EA0000EA
:10858000107070474109114A012901D1116804E0B6
:10859000022901D1116F00E0516F00F01F0021FA94
:1085A00000F000F0010070471948016841F0807147
:1085B000016070470021174A1268024200D0012171
:1085C00008467047144908707047000000380240A0
:1085D00070380240800E474204380240083802409A
:1085E0000024F400487B0020FFFCFF0F3C0E4742B4
:1085F000400E474230380240403802404438024082
:108600001038024020380240243802400D38024021
:10861000743802400C3802400E38024080B52749B9
:10862000884209D101210846FFF780FF002101207F
:10863000BDE80440FFF77ABF2149884209D10121F2
:108640000220FFF773FF00210220BDE80440FFF77E
:108650006DBF1C49884209D101210420FFF766FF44
:1086600000210420BDE80440FFF760BF164988429E
:1086700009D101210820FFF759FF00210820BDE89A
:108680000440FFF753BF1149884209D1012110204E
:10869000FFF74CFF00211020BDE80440FFF746BF64
:1086A0000B49884209D101218020FFF73FFF0021BB
:1086B0008020BDE80440FFF739BF01BD0000024043
:1086C0000004024000080240000C0240001002407A
:1086D000001C0240F0B4002232E0012393400C68F9
:1086E0001C409C422BD154000325A540ED43066855
:1086F0002E40066006680F79A7403E4306600E795B
:10870000012E01D0022E11D186682E408660866827
:108710004F79A7403E438660466826EA03034360DC
:1087200043688E799640B6B233434360C3682B40AA
:10873000C360C368CD7905FA04F42343C360521CB7
:10874000102ACAD3F0BC70474FF6FF7101600021B8
:10875000017141718171C171704700220069084245
:1087600000D0012210467047018370474183704753
:1087700010B4CB1000EB830001F007018900036AFD
:108780000F248C40A3430362036A02FA01F11943E8
:10879000016210BC7047000080B5434988420BD18C
:1087A00001214FF40010FFF7CCFE00214FF4001020
:1087B000BDE80440FFF7C5BE3C4988420BD101210A
:1087C0004FF48000FFF7BDFE00214FF48000BDE8AC
:1087D0000440FFF7B6BE364988420BD101214FF461
:1087E0000000FFF7AEFE00214FF40000BDE804409A
:1087F000FFF7A7BE01BD7FB504460D46A68800A8B9
:10880000FFF721FE02992B48B1FBF0F04FF6C07242
:1088100032400243A28022884FF6FE731A40228023
:108820002A68254B9A420AD25200B1FBF2F10A465D
:1088300092B2042A00DA0421401C208421E0EB8853
:108840004BF6FF76B34204D102EB4202B1FBF2F1E8
:1088500006E019235A43B1FBF2F141F4804189B299
:108860000A0502D141F0010189B241F4004180B210
:108870004FF4967250434FF47A7290FBF2F0401C22
:108880002084A183208840F00100208020884FF6BA
:10889000F5310840A9880843698908432080A889E0
:1088A0002989084320817FBD0054004000580040C2
:1088B000005C004040420F00A186010000290188B1
:1088C00003D041F00101018070474FF6FE72114064
:1088D000018070470029018803D041F48071018034
:1088E00070474FF6FF6211400180704700290188F0
:1088F00003D041F40071018070474FF6FF521140E0
:1089000001807047002A02D041F0010101E001F02E
:10891000FE01018270470029018803D041F4806183
:10892000018070474FF6FF321140018070470029E7
:10893000018803D041F40041018070474904490C8B
:108940000180704782B002460020034601930093E5
:1089500000920A0F01920902090A019A002A03D023
:10896000009A1432009203E0090C009A1832009227
:10897000009A12680A4200D0012002B0704700003D
:1089800080B5254988420BD101214FF48050FFF773
:10899000E3FD00214FF48050BDE80440FFF7DCBD4B
:1089A0001E4988420BD101214FF48040FFF7C9FDD9
:1089B00000214FF48040BDE80440FFF7C2BD1849D4
:1089C00088420BD101214FF40040FFF7BAFD00218E
:1089D0004FF40040BDE80440FFF7B3BD01BD02887D
:1089E00002F441520B881A434B881A438B881A436E
:1089F000CB881A430B891A434B891A438B891A4334
:108A0000CB891A430280828B4FF2FF731A40828314
:108A1000098A0182704700000030014000380040A0
:108A2000003C00400029018803D041F04001018052
:108A300070474FF6BF72114001807047002A82884C
:108A400002D011438180704722EA01018180704782
:108A500000220089084200D0012210467047000021
:108A6000016849084900016000210160416081609E
:108A7000C1600161212141616A49884203D16A488C
:108A80003D21016070476949884204D166484FF42E
:108A90007461016070476649884204D162484FF4AE
:108AA0007411016070476349884204D15E484FF0F9
:108AB0007461016070476049884203D15A485F4938
:108AC000416070475E49884203D157485D49416023
:108AD00070475D49884203D153485C494160704703
:108AE0005B49884204D150484FF03D514160704786
:108AF0005849884203D158483D2101607047574981
:108B0000884204D154484FF474610160704754495D
:108B1000884204D150484FF47411016070475149A4
:108B2000884204D14C484FF07461016070474E494F
:108B3000884203D148484149416070474B498842C7
:108B400003D145483F49416070474949884203D1B4
:108B500041483E49416070474649884203D13E48FA
:108B60004FF03D51416070470268434B1A400B681B
:108B70001A43CB681A434B691A438B691A43CB6972
:108B80001A430B6A1A434B6A1A438B6A1A434B6B9C
:108B90001A438B6B1A4302604269D208CB6A53EACC
:108BA000C2020B6B1A4342610A6942604A688260E2
:108BB0008968C16070470029016803D041F0010154
:108BC000016070474908490001607047002A01D0E0
:108BD00001617047C1607047006800F00100704794
:108BE00000221C4B984201D2244800E024488B000C
:108BF00001D5406800E0006808402249084200D0E2
:108C0000012210467047134A904201D21B4800E0EF
:108C10001B481C4A0A40890001D5C2607047826027
:108C20007047000010600240086002402860024067
:108C30004060024058600240706002403D000020E9
:108C400088600240400F0020A060024000003D20EC
:108C5000B860024010640240086402402864024088
:108C600040640240586402407064024088640240DC
:108C7000A0640240B86402403F801CF000600240E3
:108C8000006402407D0F7D0F024908607047024971
:108C90000860704720000E4224000E4270B5044662
:108CA0000026DFF83854CA20E8615320E86100F05C
:108CB00018F8002811D0286820F0400028602868A3
:108CC000216808432860A068A860A868616840EA35
:108CD0000140A86000F024F80126FF20E86130463A
:108CE00070BD81B000200090DFF8F40301684906F0
:108CF00013D44FF0FF310160016801F04001009A88
:108D0000521C0092009AB2F5803F01D00029F3D0A6
:108D10000068800900F0010000E0012001B0704708
:108D2000DFF8BC03016821F080010160704781B069
:108D300000200090DFF8A813CA20886153208861C2
:108D4000086820F0A0000860086800F02000009A81
:108D5000521C0092009AB2F5003F01D00028F3D0D7
:108D60000868400900F00100FF228A6101B07047E5
:108D7000F8B507460E460024DFF85C53002FA868BC
:108D800004D140060AD42046F07007E0400603D51F
:108D9000307800F0BEF901E02046F0703078002F06
:108DA00009D07178090241EA0040B1780843F178AE
:108DB00040EA01460FE000F0A1F90746707800F0A4
:108DC0009DF9000240EA0747B07800F097F9384370
:108DD000F17840EA0146CA20686253206862FFF7D2
:108DE00080FF00280FD0DFF8FC0230402860FFF73A
:108DF00097FFA868800605D4FFF799FF002802D0E6
:108E0000012400E00124FF2068622046F2BD10B575
:108E10000C46DFF8C4120968DFF8C82211400A0CBA
:108E200002F03F0323700B0A03F07F03637001F02D
:108E30007F01A17002F04001E17000280BD1207881
:108E400000F067F92070607800F063F96070A07836
:108E500000F05FF9A07010BDDFF88C12486A096855
:108E6000704770B506460D460024002E06D168787E
:108E7000C10603D500F0EF000A306870002E05D05F
:108E8000687800F046F9A87800F043F9E878002EF9
:108E900009D06978090241EA0040A9780843297895
:108EA00040EA41360FE000F029F90646687800F004
:108EB00025F9000240EA0646A87800F01FF9304381
:108EC000297840EA4136DFF82052CA202862532030
:108ED0002862FFF706FF00280FD0DFF810023040AD
:108EE0002860FFF71DFF6868800605D4FFF71FFFA5
:108EF000002802D0012400E00124FF20286220463F
:108F000070BD10B50C46DFF8E0110968DFF8DC2110
:108F100011400A0CE2700A0A02F01F02627001F0AE
:108F20003F02A270490B01F00701217000280BD10C
:108F3000E07800F0EEF8E070607800F0EAF8607039
:108F4000A07800F0E6F8A07010BDDFF89011CA22FA
:108F5000CA615322CA610A68D208D2000A600A684C
:108F600010430860FF20C8617047DFF88411CA22EF
:108F70000A6153220A610860FF200861704781B0CE
:108F800000210091DFF85411CA22CA615322CA613C
:108F90000028086804D040F480600860012012E0D6
:108FA00020F480600860486800F00400009A521CB9
:108FB0000092009AB2F5803F01D00028F3D04868B3
:108FC000800800F00100FF22CA6101B0704781B043
:108FD00000220092474A0092009A02EB8000009023
:108FE0000098016001B0704781B0002100914149B3
:108FF0000091009901EB800000900098006801B09A
:10900000704738B500242246344DCA23EB61532300
:10901000EB616B681B0701D406E0521C6B681B07F1
:1090200002D5B2F5805FF8D16A68120709D42A68C0
:10903000D20606D408436862FFF779FE002800D004
:109040000124FF20E861204632BD244ACA23D361AF
:109050005323D36100F0040320F0040000291168B9
:1090600005D008431060906B1843906305E021EA37
:1090700000001060906B98439063FF20D0617047B0
:109080000021174A12681C4B1A40024200D00121ED
:109090000846704710B40021104A936B03F0040394
:1090A0001468044003EAD0332343526802EA1010E4
:1090B00002D0000400D00121084610BC70470849C6
:1090C0000003000C40F080000A6802F0800262EAAF
:1090D0000000086070470000002800400828004099
:1090E0000C2800407F7F7F00042800403FFFFF00E6
:1090F00014280040502800407F3F0100002101E07B
:10910000491C0A38C0B20A28FADA40EA0110C0B293
:109110007047010901EB810200F00F0000EB4200F3
:10912000C0B2704730B40168CB4321498279002A2C
:1091300027D00A4614682340136053680468A34389
:1091400053600379CC18236805682B432360936828
:109150000468A3439360D3680468A343D36043794E
:109160000568102B07D1916829439160D168006888
:109170000843D0600AE051FA83F420682843206055
:1091800004E000790C1820681840206030BC70475B
:109190000021074A136803405269024202D0002BA3
:1091A00000D001210846704702490860704700005E
:1091B000003C0140143C014019490843194908602A
:1091C000704770B403781A460121C478002C1DD072
:1091D000144B1B6803F4E063C3F5E0631B0A447897
:1091E000C3F10405AC4085780F2646FA03F32B4003
:1091F00023431B010C4C1355007842110B4B00F01C
:109200001F0001FA00F043F8220006E05011084A5E
:1092100003F01F03994042F8201070BC7047000013
:109220000000FA050CED00E000E400E000E100E0E1
:1092300080E100E030B401F00302920021F003016C
:10924000054BCC580F259540AC43CC50CC589040A2
:109250002043C85030BC70470838014080B5012118
:109260004FF48070FFF778F900214FF48070BDE86B
:109270000440FFF771B942684C4B1A400B7942EA3F
:1092800003220B681A4342608268494B1A400B69FB
:109290001A43CB681A438B681A434B7942EA43025C
:1092A0008260C26A22F47002097D491EC9B242EA94
:1092B0000151C162704700210160017141718160FB
:1092C000C16001610121017570473A490A683A4B52
:1092D0001A4003681A4343681A4383681A43C068F4
:1092E0001043086070470021016041608160C160E7
:1092F00070470029816803D041F001018160704707
:10930000490849008160704770B407240A290BDBC3
:10931000C568A1F10A0606EB4606B44025EA040436
:10932000B3402343C36008E0056901EB4106B44044
:1093300025EA0404B3402343036113461F24072B8B
:1093400009DA436B521E02EB82029440A343914020
:109350001943416314E00D2B09DA036BD21F02EBB2
:1093600082029440A34391401943016308E0C36A19
:109370000D3A02EB82029440A34391401943C1622B
:1093800070BC7047816841F080418160704700295E
:10939000816803D041F480618160704721F480616D
:1093A00081607047C06C80B270470000FFFEFFFC18
:1093B000FDF7FFC004230140E030FCFF00220068FD
:1093C000084200D0012210467047000013F0004C04
:1093D00003D55B42524263F100039CEA210C00F08A
:1093E000178010B5644603D34942404261F1000141
:1093F00000F00EF8640004D34942404261F10001DC
:10940000244203D55B42524263F1000310BD0000C9
:109410001B4213D1094236D12AB18446B0FBF2F087
:1094200002FB10C270470BF02BBBFCD300220023C1
:1094300070470B000200002100207047904271EB42
:10944000030CF6D370B5B1FA81F4B3FA83F52C1B93
:10945000A340C4F1200532FA05F63343A2405FF081
:109460000046E64002E05B085FEA3202841A71EBD4
:10947000030524BF204629467641F4D302000B00A1
:109480003000002170BD012ACFD970B5140C20D056
:10949000B1FA81F4B2FA82F5C4F120046419B4F18E
:1094A0002006D6D3B2405FF00044F440002502E02D
:1094B00052085FEA3303C61A71EB020E24BF30462E
:1094C000714664416D41F3D302000B002000290076
:1094D00070BD0C46B1FBF2F102FB11452D0445EACB
:1094E0001045B5FBF2F402FB145580B240EA054585
:1094F000B5FBF2F002FB105240EA044070BD0000E0
:1095000000B500BF130096469446103928BFA0E866
:109510000C50FAD85FEA417C28BF0CC048BF40F825
:10952000042BC90728BF20F8022B48BF00F8012BE5
:1095300000BD00002DE9F04FA1B0824602AE002030
:1095400017461D46029170620DF144080AE017F8B3
:10955000011B0298D0470290002800F0DA82706A5E
:10956000401C7062387808B9706AD4E22528EED1C0
:109570000020F06030617061B061F061306201E044
:1095800040F0010017F8011F2029F9D023290DD040
:109590002B2904D02D2906D030290AD00CE040F028
:1095A000020080B2EEE740F00400FAE740F0080065
:1095B000F7E740F01000F4E72A290DD129680A1DC9
:1095C0002A600968F162002904D5494240F004008C
:1095D000F16280B27F1C13E00021F1620BE0F16ABE
:1095E0006FF00043994205D001EB810302EB430188
:1095F0003039F1627F1C3A78A2F130010A29EED3AA
:1096000039782E2903D04FF0FF31B1621EE017F8F0
:10961000011F2A2906D129680A1D2A607F1C0968B2
:10962000B16213E00021B1620BE0B16A6FF0004358
:10963000994205D001EB810302EB43013039B1625D
:109640007F1C3A78A2F130010A29EED330860FF65A
:10965000604039780BF016FA08B117F8010B8DF855
:109660003A009DF83A00682802BF397868296220DC
:1096700005D06C2804BF38786C2803D171208DF890
:109680003A007F1C11A8B0603978B1F1250029D0CB
:109690001C3800F0C080001F022840F2BC80133844
:1096A00000F0E480093800F0B680801E00F0778179
:1096B000401E00F02081401E022840F2AC80001FB6
:1096C00000F01981401F7BD0401E00F0CF80401E6B
:1096D00022D0C01E0BD0801E00F0C880C01E00F03B
:1096E000C58064E1F068411CF160252169E12868CA
:1096F000011D29600068B26A7060002A02D5FBF77C
:109700006FF807E000210BF0C9F900281ABF716853
:10971000401AB06A306156E12868011D29600021B5
:109720000068CDE900014FF03C0E11A87060DDE942
:10973000000111B908B9B26ACAB10206120FA0EB52
:1097400002123032AEF10103D2B29E463A2AA8BFCD
:109750002732000903F8082040EA0170090908BF10
:10976000002804D0726811AB73449A42E5D311A962
:1097700071447160CEF13C00B16A3061884207DA11
:10978000081AB0614FF6EF71308E084030861AE14A
:10979000002940F1188196F8301001F014011029C9
:1097A00040F01181F16AF268891AB269891AA1EB55
:1097B000000EBEF1010FC0F20681C6F818E002E10A
:1097C0009DF83A00622818D0682806D06A280BD085
:1097D0006C2819D0712807D016E02868011D29606F
:1097E0000068716A0180EEE02A68101D2860126826
:1097F000706AC117C2E90001E5E02868011D29600F
:109800000068716A0170DEE02868011D2960006847
:10981000716A0160D7E02868C01D20F00700286049
:1098200000F108022A60D0E90023CDE90023002BD3
:1098300004D5F068421CF2602D220DE0308E8207C4
:1098400004D5F068421CF2602B2205E0C00705D564
:10985000F068421CF260202200F80820F06811AA8B
:109860008018706000A800F0E3F9ACE09DF83A00C1
:109870006C2808BF2A6811D0712808BF2A6802D056
:109880002A686A280AD1D21D22F007022A601446EB
:1098900004F108022A60D4E9002303E0131D2B60C1
:1098A00000231268CDE90023682808BF92B207D0D0
:1098B000622808BFD2B203D0742818BF7A2802D118
:1098C0000023CDE9002396F8300000075FD5DDE9DD
:1098D0000023002B08BF002A59D041F0200078282F
:1098E00055D1F068302200F80820401C421CF2607C
:1098F00000F808104BE09DF83A0062280CD0682868
:1099000010D06A281AD06C2823D0712816D0742859
:109910001FD07A280CD01CE02868021D2A6090F91C
:1099200000201AE02868021D2A60B0F9002014E027
:109930002868021D2A60002302680FE02868C01D05
:1099400020F00700286000F108022A60D0E9002317
:1099500004E02868021D2A600268D317CDE90023BD
:10996000002B04DAF068421CF2602D220DE0308EEC
:10997000820704D5F068421CF2602B2205E0C00784
:1099800005D5F068421CF260202200F80820F0683B
:1099900011AA8018706000A800F0C0F813E0F06809
:1099A000411CF16029680A1D2A60096809E0F06815
:1099B000421CF260252200F8082021B1F068421C08
:1099C000F26000F80810F06AF168401AB169401AB4
:1099D0003169401AF169401A7169401A316AA0EB85
:1099E000010996F830007F1C400710D420208DF824
:1099F0004000002409E0012310AA00A9504600F00D
:109A000040FC002840F08580641C4C45F3DBF46882
:109A10000DF1440B0AE01BF8011B0298D04702909D
:109A2000002876D0706A401C7062641E002CF2D14F
:109A300030208DF840004FF0000BB46909E001239D
:109A400010AA00A9504600F01CFC002861D10BF1BF
:109A5000010BA345F3DB3469D6F804B00AE01BF828
:109A6000011B0298D0470290002852D0706A401C17
:109A70007062641E002CF2D130208DF840004FF04F
:109A8000000BF46909E0012310AA00A9504600F078
:109A9000F8FB00283DD10BF1010BA345F3DB306946
:109AA0007168746900EB010B09E01BF8011B029857
:109AB000D047029068B3706A401C7062641E002C2C
:109AC000F3D130208DF840004FF0000B346A08E0ED
:109AD000012310AA00A9504600F0D3FBC8B90BF12E
:109AE000010BA345F4DB96F8300040077FF53AAD53
:109AF00020208DF84000002400E0641C4C45BFF697
:109B000031AD012310AA00A9504600F0BAFB00288D
:109B1000F3D04FF0FF3021B0BDE8F08F2DE9FA47C8
:109B2000064682B035690A466F2A08BF082705D065
:109B300041F02000782814BF0A271027D6E9000139
:109B40003C2480468946642A18BF692A05D1002929
:109B500003DAD8F1000869EB4909B9F1000F08BF31
:109B6000B8F1000F0CD1306B50B9082F3BD196F8EB
:109B70003800000737D530203B2485F83B0032E021
:109B8000CDE90089FB17404649463A46FFF740FCBD
:109B9000B846A8FB0023DDE90089A8EB02023032B9
:109BA000A4F1010AD2B254463A2A03DB9DF80830E8
:109BB000513B9A180AF8052080465FEA010908BF60
:109BC000B8F1000F03D0F06861198842D8D3082F8C
:109BD00009D196F83800000705D5605D302802D01D
:109BE000641E30206055C4F13C00B0616119F16021
:109BF000316B884207DA081A30624FF6EF71308F06
:109C00000840308710E000290ED596F8381001F092
:109C10001401102908D1716B7269891A326A891A84
:109C2000081A0128A8BF306204B0BDE8F087000020
:109C30002DE9F24F04468EB0D4E90001CDE90201CE
:109C400004AE9DF8380040F02000009061280AD052
:109C5000206B002848BF062004D404BF0098672862
:109C600001D1012020636168C1F30A5040F2FF7204
:109C700090421CD1080304BF2068002809D10320AA
:109C8000A0619DF8380061381A2836D30FF234618C
:109C900008E00320A0619DF8380061381A2829D314
:109CA0000FF21861E0680322F8F7C2FEB5E101285F
:109CB00016DA20460AF01EFF012811DB00270020DB
:109CC0000099612920D1E168302201F8012B4A1C5A
:109CD000E2609DF83820612A0CBF782258220FE0FC
:109CE000626840F2FE3161F31E52471A62604FF023
:109CF000FF30E5E70FF2C051D4E70FF2C451D1E7CE
:109D00000A706169891C616110B9002500277BE137
:109D10000098612840F09680206B00284CBF2125D8
:109D2000451CDDE902012DB26E1CD4E90089002238
:109D30000023F9F777F83ABF89F00040CDE90280B7
:109D4000CDE902893F1F8DF810200DF1110801E0C7
:109D500000F20708012E32DBDDE9020100220023B8
:109D60000AF0EAFE2BD21C2102A80AF0FDFEDDE972
:109D70000201F9F7A3FAF61F8146012E09DBF9F774
:109D80006DF802460B46DDE90201F8F7ADFECDE9BC
:109D9000020108F20700072105E009F00F0200F8B0
:109DA000012D4FEA2919B9F1010F01DB491EF4D544
:109DB000491E5CBF002200F8012DF9D5C8E70DF15E
:109DC0001100A8EB00010DF11106A942B8BF0D4624
:109DD0002DB228002FD4884206DA04A94118497808
:109DE0000829A8BF0F2100DA002104AA821800E088
:109DF0006D1E12F80139401E8B42F9D00F2904D193
:109E000004A941184A78521C4A70002802D504AEB1
:109E10006D1C3F1D2DB2681E0DD481190A78303299
:109E2000D2B23A2A03DB9DF838303A3B9A1801F84F
:109E30000129401EF2D5206B002840F1E580681E04
:109E40002063E1E0DDE9020100220023F8F7EAFFE8
:109E50003CBF81F00041CDE902013FB247F297508B
:109E600078434849DFF820B190FBF1F73FB2C7F1E2
:109E700007069246012E19DBDDE90289F00707D5B6
:109E800052465B4640464946F8F7EEFE8046894614
:109E900076105046594652465B46F8F7E5FE824634
:109EA0008B46002EEAD1CDE9028921E07642904628
:109EB000DFF8D89012E0F00707D552465B464046DF
:109EC0004946F8F7D1FE80468946761050465946F5
:109ED00052465B46F8F7C8FE82468B46002EEAD112
:109EE000DDE9020142464B46F9F744F8CDE90201AB
:109EF000009866280CBF07F10A000620216B451860
:109F0000142DA8BF132530208DF810000DF1110677
:109F1000DFF87C90012D3DDBDDE90201F9F7E4F982
:109F200006F1080104220A23B0FBF3F303EB8306D6
:109F3000A0EB4600303001F8010D0A20B3FBF0F031
:109F400000EB8006A3EB4603303301F8013D521EBF
:109F5000E9D1083D01F10806012DDBDBDDE9020155
:109F6000F9F7C2F9F8F784FF02460B46DDE9020172
:109F7000F8F7BAFD00224B46F8F776FECDE902016C
:109F8000CAE700BFA0860100000024400000F03FA7
:109F900084D797410DF11100301A0DF1110602E03E
:109FA000401E7F1E761C31783029F9D00099662931
:109FB00002D13FB2791C03E065290CBF01210021C9
:109FC000226B8D182DB2A842B8BF05462DB22900CC
:109FD0001AD4814204DA885D3528A8BF392000DA16
:109FE00030208A19521E00E06D1E12F80139491EF8
:109FF0008342F9D0392802D1885D401C8855002958
:10A0000002D5761E6D1C7F1C3FB29DF8381000975C
:10A010002BB23246204600F003F80FB0BDE8F08FB7
:10A020002DE9F043054685B01E46D5F830808946B7
:10A030001746012E02DA01260FF28C2749F0200084
:10A04000BDF93040662808BF641C17D0672840F06F
:10A05000818014F1040FC0F28380444580F2808037
:10A0600095F83800641C000702D44645B8BFB046D6
:10A0700024B2B8EB040848BF4FF00008E868A969AB
:10A0800024B2012C25DA30234A1C0B54B8F1010FFD
:10A0900003DA95F83810090702D52E211154521C05
:10A0A000AA6118EB040FB8BFC8F1000424B26142E2
:10A0B000A0446962B045B8BF464636B2EE6132464A
:10A0C000AB6939461818F8F7B3FCA8EB0600A8628C
:10A0D000C0E00818A64218DA32463946F8F7A8FC5C
:10A0E000A9697118A961A01B6862B8F1010F03DAB0
:10A0F00095F83800000705D5E8682E220A54E8696B
:10A10000401CE861C5F82880A4E022463946F8F7EB
:10A110008FFCA8692018361BB8F1010F03DA95F8F7
:10A120003810090703D5E9682E224254401C36B284
:10A13000A861B045B8BF4646EB6836B23246E11971
:10A14000C018F8F775FCA8693018A861A8EB0600DC
:10A1500068627FE0B9F1610F16D14FF0700918E025
:10A16000464504DA95F83810090758BFB046B8F1EB
:10A17000010848BF4FF00008B9F1670F14BF4FF056
:10A1800045094FF0650904E0B9F1410F08BF4FF0F0
:10A190005009A969E86817F8013B0B544A1CB8F14B
:10A1A000010F05DA95F83810090758BFAA6117D5CD
:10A1B0002E211154531CAB61B8F1010F10DB761E38
:10A1C00036B2B045B8BF464636B2324639461818A0
:10A1D000F8F72EFCA8693018A861A8EB06006862A1
:10A1E000A869E9684718200007F8019B03D42B20D1
:10A1F00007F8010B03E02D2107F8011B644200263C
:10A200000DF1080808E00A2200A80AF037FD0198BD
:10A2100008F8010B761C009C21B20129F3DA022E0A
:10A2200006DA49F02000652804BF302007F8010B4A
:10A230004EB9302007F8010B07E0761E02A8305C0B
:10A24000303007F8010B012EF7DAA869E9684018E9
:10A25000381AE86195F8380000F0140010280DD184
:10A260006869A9690818696A0818E9690818A96A73
:10A270000818696B8842BCBF081A286205B0BDE89F
:10A28000F083F8B504460D4616461F46002004E04C
:10A29000E86A401CE8627F1E002047B116F8011BE7
:10A2A000A868A047A8600028F2D14FF0FF30F2BDA7
:10A2B000686A6C747A4C00006E616E004E414E000C
:10A2C000696E6600494E4600300000000CB41CB5B3
:10A2D000044604A801900A46009401AB00A907486F
:10A2E00078441830FFF726F9009900220A700028F8
:10A2F0005CBF0098001B16BC5DF80CFB578BFFFF82
:10A3000001B58B0718D1121F21D351F8043BA3F1DB
:10A31000013C2CEA030C1CF0803C04BF40F8043BD9
:10A32000F1E79CFA8CFCBCFA8CF1C1F118018B406E
:10A33000CB4040F8043B13E0042A09D311F8013B59
:10A34000521E00F8013B5BB18B07F7D1DBE7121D12
:10A350005AB111F8013B521E00F8013B03B1F8D18C
:10A3600011001CBF0022F8F7D9FF01BD002801D160
:10A370000A48806890F84C10642901D0002000E061
:10A38000806A7047002801D10448806890F84C101A
:10A39000642901D0002000E0406A7047607A002004
:10A3A0000248704702480149401A704700000020E7
:10A3B000002000204C48C168002903D54B490160AA
:10A3C0004B49016070474B48016841F00041016012
:10A3D000704770B50446002600290BD0012902D130
:10A3E0004FF4807606E0022902D14FF4007601E0B6
:10A3F0004FF4407600F082F809281ED13D4D2868C0
:10A4000020F440702860286830432860286820F0D5
:10A41000F8002860286844F0020108432860286892
:10A4200040F48030286000F069F8296821F00201CA
:10A430002960296821F0F801296070BD70B50446D3
:10A440000D4600F05BF8092813D12A4E306820F43D
:10A4500040703060306840F400703060306840F028
:10A4600001003060256000F049F831684908490072
:10A47000316070BD70B505460E4600F03FF8092802
:10A4800011D11C4C206820F44070206020682060AE
:10A49000206840F0010020602E7000F02FF8216845
:10A4A00049084900216070BD1349086070470920C0
:10A4B00011490A68D20301D5012070470A68D20603
:10A4C00001D5062070470A68D20501D502207047E1
:10A4D0000A6812F0EF0F01D007207047096889075A
:10A4E00000D5082070470000043C02402301674566
:10A4F000AB89EFCD103C02400C3C024080B50920F6
:10A500008DF80000FFF7D3FF8DF8000003E0FFF7A0
:10A51000CEFF8DF800009DF800000128F7D09DF8CF
:10A52000000002BD0901002806D500F00F004C4ACA
:10A53000801800F8041C70474A4A8154704710B5CF
:10A54000401EB0F1807F01D3012010BD464C6060F9
:10A550000F214FF0FF30FFF7E5FF0020A06007203C
:10A560002060002010BD38B5404D2878401C287070
:10A570003F4C2078401C2070FAF7F9FF0AF086FB68
:10A580002878411E2970002802D19820FAF744F952
:10A590002078012804D16068002801D0FAF79FF9DB
:10A5A0002078401E207031BD10B5314C6078F0210C
:10A5B000084202D09920FAF72FF9FAF79AF9607851
:10A5C000401C60700AF0BCFB2A4800684FF47A71A6
:10A5D000B0FBF1F0FFF7B3FF002800D0FEE72648FC
:10A5E000264901600E214FF0FF30FFF79BFF607896
:10A5F000F021084202D09920FAF70EF96078401E47
:10A600006070C0B2002803D1BDE81040FAF76BB902
:10A6100010BD000010B51A4C4FF400512046418384
:10A62000C04630BF4FF400512046FEF79DF8F3E7D7
:10A6300010B40F48006A0F4909684FF47A72B1FBF1
:10A64000F2F1104A1368CB1A0F4C2468640102D54A
:10A6500012688B1A401C00FB013010BC70470000D0
:10A6600018ED00E000E400E010E000E03D420120D1
:10A67000607A0020147B002008ED00E00000000854
:10A680000010024018E000E004ED00E0EFF3058068
:10A6900000284AF0B583704780B5EFF3108072B69A
:10A6A0000B49096851F47F01094A116080F3108851
:10A6B0000848006810F4700F02D1A720FAF7ACF830
:10A6C00005485FF00071016004480021016001BD90
:10A6D00020ED00E088ED00E03CEF00E034EF00E02A
:10A6E00010B5040010480078002805D10F480AF082
:10A6F000C6FB0D48012101700C480AF0F6FB200052
:10A700000BF0C6FA040009480AF023FC200010BD33
:10A7100010B5040005480AF0E8FB20000BF012FC1D
:10A7200002480AF016FC10BD404201200C3F0120F7
:10A730000048704758280120BFF34F8FDFF8C00C46
:10A74000006810F4E060DFF8BC1C0843DFF8B01CC0
:10A750000860BFF34F8FFEE700B583B00020ADF86F
:10A76000040000208DF8060000208DF8070001206D
:10A7700000900DF106037622D0210020F7F7E3FECA
:10A78000002801D1002044E076208DF804009DF8D7
:10A79000060050F020008DF80500022301AAD02108
:10A7A0000020F7F776FE002801D1002031E00120DB
:10A7B00000900DF107034922D0210020F7F7C3FED6
:10A7C000002801D1002024E049208DF804009DF8E4
:10A7D000070050F001008DF80500022301AAD021E6
:10A7E0000020F7F756FE002801D1002011E0762066
:10A7F0008DF804009DF806008DF80500022301AADB
:10A80000D0210020F7F745FE002801D1002000E00C
:10A8100001200EBD38B50400F7F743FD0500DFF851
:10A82000100D0078401CDFF8081D0870DFF8000DDF
:10A830004078F021084202D09920F9F7EDFFFAF7AD
:10A8400058F8DFF8EC0C4078401CDFF8E41C487046
:10A85000210089B22800F7F711FFDFF8D40C407807
:10A86000F021084202D09920F9F7D6FFDFF8C00C9A
:10A870004078401EDFF8B81C4870C0B2002801D1F3
:10A88000FAF731F8FAF78FFE31BD10B582B000202B
:10A89000ADF80000F7F705FD04006B208DF800000F
:10A8A00080208DF80100022300AAD0210020F7F7B4
:10A8B000F0FD002801D1002094E064212000F7F78A
:10A8C000DDFEFFF749FF002801D100208AE06B2060
:10A8D0008DF8000000208DF80100022300AAD0218D
:10A8E0000020F7F7D6FD002801D100207AE02821CA
:10A8F0002000F7F7C3FE19208DF8000004208DF822
:10A900000100022300AAD0210020F7F7C2FD002891
:10A9100001D1002066E01A208DF8000003208DF898
:10A920000100022300AAD0210020F7F7B2FD002881
:10A9300001D1002056E01B208DF8000008208DF882
:10A940000100022300AAD0210020F7F7A2FD002871
:10A9500001D1002046E01D208DF8000003208DF875
:10A960000100022300AAD0210020F7F792FD002861
:10A9700001D1002036E06A208DF8000000208DF81B
:10A980000100022300AAD0210020F7F782FD002851
:10A9900001D1002026E06C208DF800003F208DF8CA
:10A9A00001009DF80110DFF85C0DF7F7FCFC0223B5
:10A9B00000AAD0210020F7F76CFD002801D100206B
:10A9C00010E06B208DF8000040208DF8010002237C
:10A9D00000AAD0210020F7F75CFD002801D100205B
:10A9E00000E0012016BD0178407850EA012000B255
:10A9F000704780B502200090DFF80C3D6B22D0211B
:10AA00000020F7F7A0FD002801D100205BE0012025
:10AA10000090DFF8F83C1A22D0210020F7F793FDD0
:10AA2000002801D100204EE001200090DFF8E03C3A
:10AA30001B22D0210020F7F786FD002801D100203D
:10AA400041E001200090DFF8CC3C1C22D021002006
:10AA5000F7F779FD002801D1002034E001200090B3
:10AA6000DFF8B43C1D22D0210020F7F76CFD002850
:10AA700001D1002027E001200090DFF8A03C6A22ED
:10AA8000D0210020F7F75FFD002801D100201AE057
:10AA900001200090DFF8883C3822D0210020F7F711
:10AAA00052FD002801D100200DE001200090DFF8C8
:10AAB000743C1922D0210020F7F745FD002801D170
:10AAC000002000E0012002BD80B50020ADF80000AC
:10AAD0001A208DF80000DFF8300C00798DF80100A5
:10AAE000022300AAD0210020F7F7D3FC002801D1CF
:10AAF000002090E01B208DF80000DFF80C0C40795E
:10AB00008DF80100022300AAD0210020F7F7C1FC34
:10AB1000002801D100207EE01C208DF80000DFF825
:10AB2000E80B80798DF80100022300AAD0210020D3
:10AB3000F7F7AFFC002801D100206CE01D208DF854
:10AB40000000DFF8C40BC0798DF80100022300AAD1
:10AB5000D0210020F7F79DFC002801D100205AE009
:10AB60006A208DF80000DFF8A00BC0788DF8010096
:10AB7000022300AAD0210020F7F78BFC002801D186
:10AB8000002048E019208DF80000DFF87C0B807869
:10AB90008DF80100022300AAD0210020F7F779FCEC
:10ABA000002801D1002036E038208DF80000DFF8C1
:10ABB000580B007A8DF80100022300AAD021002052
:10ABC000F7F767FC002801D1002024E06B208DF806
:10ABD0000000DFF8340B00788DF80100022300AA92
:10ABE000D0210020F7F755FC002801D1002012E009
:10ABF0006C208DF80000DFF8100B40788DF8010014
:10AC0000022300AAD0210020F7F743FC002801D13D
:10AC1000002000E0012002BD10B582B00020ADF898
:10AC20000000DFF8E40A0078400612D56B208DF8AA
:10AC3000000000208DF80100022300AAD02100208E
:10AC4000F7F727FC002801D10020C9E03220FFF7E8
:10AC5000E1FD6C208DF80000DFF8AC0A407810F0C0
:10AC6000F8008DF80100022300AAD0210020F7F798
:10AC700010FC002801D10020B2E06A208DF800000D
:10AC800000208DF80100022300AAD0210020F7F750
:10AC900000FC002801D10020A2E0002400E0641C98
:10ACA000062C10DA14F113008DF8000000208DF846
:10ACB0000100022300AAD0210020F7F7EAFB0028B8
:10ACC000EDD100208CE019208DF8000000208DF8D7
:10ACD0000100022300AAD0210020F7F7DAFB0028A8
:10ACE00001D100207CE01A208DF8000003208DF8AF
:10ACF00001004FF4FA642000FA281DD0B0F5FA7F65
:10AD000013D0B0F57A7F09D0B0F5FA6F19D19DF85C
:10AD1000010050F018008DF8010016E09DF80100C8
:10AD200050F010008DF801000FE09DF8010050F088
:10AD300008008DF8010008E09DF801008DF8010081
:10AD400003E09DF801008DF80100022300AAD02144
:10AD50000020F7F79EFB002801D1002040E0FA2CEC
:10AD600014D0B4F5FA7F0DD0B4F57A7F06D0B4F5DF
:10AD7000FA6F0FD103208DF801000EE002208DF84C
:10AD800001000AE001208DF8010006E000208DF8A6
:10AD9000010002E000208DF801001B208DF800006A
:10ADA0009DF80100C0008DF80100022300AAD02107
:10ADB0000020F7F76EFB002801D1002010E03820BA
:10ADC0008DF8000000208DF80100022300AAD02198
:10ADD0000020F7F75EFB002801D1002000E00120F1
:10ADE00016BD00B583B00020ADF8060000208DF838
:10ADF00004006B208DF8060001208DF80700022367
:10AE00000DF10602D0210120F7F743FB002801D104
:10AE1000002023E02820FFF7FDFC0120009001AB7B
:10AE20006C22D0210120F7F78EFB002801D10020F1
:10AE300014E06C208DF806009DF8040010F0C000AE
:10AE40008DF8070002230DF10602D0210120F7F74B
:10AE500020FB002801D1002000E001200EBD2DE9DB
:10AE6000F04F85B080460C0015001E000020ADF8A4
:10AE7000040002A80021002206C008380627382056
:10AE80008DF8040000208DF80500022301AAD021CE
:10AE90000120F7F7FEFA002802D15FF0FF3079E1D8
:10AEA00023208DF8040000208DF80500022301AA5C
:10AEB000D0210120F7F7EDFA002802D15FF0FF3032
:10AEC00068E16A208DF8040000208DF80500022357
:10AED00001AAD0210120F7F7DCFA002802D15FF0A7
:10AEE000FF3057E16A208DF8040004208DF805003A
:10AEF000022301AAD0210120F7F7CBFA002802D1C2
:10AF00005FF0FF3046E11A208DF8040001208DF833
:10AF10000500022301AAD0210120F7F7BAFA002880
:10AF200002D15FF0FF3035E119208DF804000020D8
:10AF30008DF80500022301AAD0210120F7F7A9FA14
:10AF4000002802D15FF0FF3024E11B208DF80400BF
:10AF50008DF80580022301AAD0210120F7F799FA84
:10AF6000002802D15FF0FF3014E1F6B2002E0FD0BE
:10AF70001C208DF804008DF80580022301AAD02141
:10AF80000120F7F786FA002802D15FF0FF3001E1D7
:10AF90004FFA88F8B8F1000F02D0C820FFF73AFC4A
:10AFA0006A208DF8040044208DF80500022301AAD0
:10AFB000D0210120F7F76DFA002802D15FF0FF30B1
:10AFC000E8E023208DF80400F6B2002E03D008201C
:10AFD0008DF8050002E070208DF80500022301AA1B
:10AFE000D0210120F7F755FA002802D15FF0FF3099
:10AFF000D0E00A20FFF70EFC5FF0000A0BE05FFADA
:10B000008AFA002044F82A005FFA8AFA002045F8FC
:10B010002A001AF1010A5FFA8AFABAF1030FEEDB8D
:10B020005FF00009B9F1320F6FDA0A20FFF7F2FB87
:10B030000220009002AB7222D0210120F7F783FAA0
:10B04000002802D15FF0FF30A4E002A8FFF7CBFC9C
:10B05000FFB290FBF7F8B8F1070F02DA7FF00100BA
:10B0600098E05FF0000A1BE05FFA8BFB02A810EB90
:10B070004B00FFF7B8FC5FFA8BFB54F82B1001FA7A
:10B0800080F05FFA8BFB44F82B001BF1010B5FFA99
:10B090008BFBBBF1030FE7DB19F101091AF1010A80
:10B0A0005FFA8AFAC245BDDAB9F1320FBADAFFB2F5
:10B0B000009702AB7422D0210120F7F744FA002850
:10B0C00002D15FF0FF3065E0F6B2002E1AD05FF0DB
:10B0D000000B5FFA8BFBBBF1030FDDDA5FFA8BFB32
:10B0E00002A810EB4B00FFF77EFC5FFA8BFB55F8D4
:10B0F0002B1001FA80F05FFA8BFB45F82B001BF157
:10B10000010BE6E75FF0000BC1E723208DF8040098
:10B1100000208DF80500022301AAD0210120F7F7B5
:10B12000B8F9002802D15FF0FF3033E05FF0000B88
:10B130000FE05FFA8BFB54F82B004FF47A71484311
:10B14000322190FBF1F05FFA8BFB44F82B001BF1EE
:10B15000010B5FFA8BFBBBF1030FEADBF6B2002EAB
:10B1600017D05FF0000B0FE05FFA8BFB55F82B0058
:10B170004FF47A714843322190FBF1F05FFA8BFB78
:10B1800045F82B001BF1010B5FFA8BFBBBF1030FA2
:10B19000EADB012005B0BDE8F08F2DE9F04389B06E
:10B1A00004000D00160000275FF0010801A800212F
:10B1B00001605FF000090320009001AB0D22D02157
:10B1C0000120F7F7C0F9002801D15FF0FF385FF0E8
:10B1D000000905E005A8002140F8291019F101092E
:10B1E000B9F1030F11DA01A819F800000028F1D015
:10B1F00001A819F80000DFF87C1A11EB400030F8C4
:10B20000020C05A941F82900E8E75FF000091FE0FA
:10B2100002A850F82900DFF8601A884207DADFF840
:10B220005C0AF7F7C0F8012010FA09F0074302A8FA
:10B2300050F82900DFF8481A884207DBDFF8440A93
:10B24000F7F7B1F8012010FA09F0074319F10109E5
:10B25000B9F1030F2ADA55F8290056F82910401AD7
:10B260000BF0FEF802A941F8290005A850F82900C2
:10B270000028CDD002A850F8290005A951F82910BE
:10B2800090FBF1F0B0F57A700BF0EAF824F81900B1
:10B2900034F91900B0F5FA7FD8DDDFF8EC09F7F7DB
:10B2A00082F8012010FA09F00743CFE7B4F904004F
:10B2B0000090B4F90230B4F900203900DFF8CC096D
:10B2C000F7F771F8002F05D0DFF8C409F7F76BF82E
:10B2D0007FF00208404640B209B0BDE8F08338B5BF
:10B2E00005000020ADF800000020ADF80200F6F7E0
:10B2F000D8FF040038208DF8000000208DF80100F0
:10B30000022300AAD0210020F7F7C3F8002801D1BA
:10B31000002074E000F026FB002801D100206EE040
:10B320001F208DF800004B208DF80100022300AA99
:10B33000D0210020F7F7ADF8002801D100205EE011
:10B340001E208DF8000006208DF80100022300AABF
:10B35000D0210020F7F79DF8002801D100204EE011
:10B3600069208DF80000C0208DF80100022300AA9A
:10B37000D0210020F7F78DF8002801D100203EE011
:10B38000012201210320F7F700FA0020F7F7FFF967
:10B3900038208DF8000040208DF80100022300AA1B
:10B3A000D0210020F7F775F8002801D1002026E011
:10B3B000012028702000407DC046012810D00121C6
:10B3C0002000F7F75BF9BDF80200401CADF8020061
:10B3D000BDF802003228EDDBDFF8B808F6F7E3FF2E
:10B3E000012200210320F7F7D0F90020F7F7CFF969
:10B3F00000F0AEFB002801D1002000E0012032BDAA
:10B400000CED00E00400FA0570B58EB0040000A851
:10B410000021002206C00838012500260BA80021C3
:10B42000002200230EC00C3808A8002100220023AF
:10B430000EC00C3805A80021002200230EC00C38D5
:10B4400002A80021002200230EC00C38FFF7D1FA19
:10B45000002801D1002056E0FFF7DEFB002806D0CF
:10B460000126FFF7BEFC002803D100204BE000209E
:10B4700049E0012302AA08A90020FFF7F0FC05001B
:10B480006DB2012D04D0DFF80808F6F78CFF1CE040
:10B49000012305AA0BA97FF01F00FFF7E0FC0500C0
:10B4A0006DB2012D04D0DFF8E007F6F77CFF0CE069
:10B4B00005AA02A900A8FFF770FE05006DB2012DD4
:10B4C00003D0DFF8B807F6F76EFF2670BDF800006E
:10B4D0006070BDF900000012A070BDF80200E070BD
:10B4E000BDF9020000122071BDF804006071BDF9C1
:10B4F00004000012A071E571FFF7E6FA002801D1FF
:10B50000002000E001200EB070BD80B5DFF8880794
:10B510000078002809D1FFF7B8F9002801D10020F0
:10B5200004E0DFF8740701210170012002BD000072
:10B53000607A00201CB500208DF806000020ADF8D0
:10B540000400F6F7AEFE0400012000900DF10603A2
:10B550006B22D0210020F6F7F6FF002801D1002051
:10B5600088E09DF806006021084216D06B208DF817
:10B5700004009DF8060010F09F008DF805000223DE
:10B5800001AAD0210020F6F784FF002801D1002075
:10B5900070E014212000F7F771F8012000900DF100
:10B5A00006036C22D0210020F6F7CDFF002801D140
:10B5B00000205FE06C208DF804009DF8060010F07C
:10B5C000C7008DF80500022301AAD0210020F6F75C
:10B5D00060FF002801D100204CE00A212000F7F78D
:10B5E0004DF81D208DF8040043208DF8050002233E
:10B5F00001AAD0210020F6F74CFF002801D100203D
:10B6000038E01C208DF8040000208DF8050002238E
:10B6100001AAD0210020F6F73CFF002801D100202C
:10B6200028E020208DF8040080208DF805000223FA
:10B6300001AAD0210020F6F72CFF002801D100201C
:10B6400018E01F208DF8040080208DF805000223EB
:10B6500001AAD0210020F6F71CFF002801D100200C
:10B6600008E0DFF83806007850F00100DFF82C160B
:10B670000870012016BD00B583B000208DF80600CB
:10B680000020ADF80400012000900DF106036C22AB
:10B69000D0210020F6F757FF002801D1002030E02C
:10B6A0006C208DF804009DF8060050F038008DF8ED
:10B6B0000500022301AAD0210020F6F7EAFE0028A7
:10B6C00001D100201DE0DFF8D405007880070FD4F9
:10B6D0006B208DF8040040208DF80500022301AA9C
:10B6E000D0210020F6F7D5FE002801D1002008E087
:10B6F000DFF8A805007810F0FE00DFF8A01508704C
:10B7000001200EBDF4230308D43F0120D83F0120BF
:10B71000D93F0120DA3F0120DB3F0120D73F012044
:10B72000DC3F0120D63F012000B583B000208DF81A
:10B7300004000020ADF806000120009001AB6C224F
:10B74000D0210020F6F7FFFE002801D1002014E0F0
:10B750006C208DF806009DF8040050F038008DF83C
:10B76000070002230DF10602D0210020F6F791FE1A
:10B77000002801D1002000E001200EBD2DE9F0419C
:10B7800086B004000D0004A80021002206C008387D
:10B790000020ADF80C000126DFF804050768F6F775
:10B7A00080FD8046DFF8FC040068401CDFF8F414DC
:10B7B00008600120009004AB6B22D0210020F6F736
:10B7C000C2FE002801D10020C9E09DF8100040060B
:10B7D0001AD56B208DF80C009DF8100010F0BF00FA
:10B7E0008DF80D00022303AAD0210020F6F751FEA8
:10B7F000002801D10020B2E014214046F6F73EFFB8
:10B80000DFF8A404F6F7CFFD0120009004AB6C2212
:10B81000D0210020F6F797FE002801D100209EE0FD
:10B820009DF81000382108421ED06C208DF80C00C5
:10B830009DF8100010F0C7008DF80D00022303AA38
:10B84000D0210020F6F725FE002801D1002086E057
:10B8500005214046F6F712FFDFF85004F6F7A3FD86
:10B86000DFF84C0401210160EDB2009504AB3B22EE
:10B87000D0210020F6F767FE002805D1DFF8340458
:10B88000F6F791FD00206AE09DF8110020709DF808
:10B89000100060709DF81300A0709DF81200E07019
:10B8A0009DF8150020719DF814006071002000E0E3
:10B8B000401C062806D2015DDFF8FC23825C914221
:10B8C000F6D00026F6B2012E18D1DFF8F00300689A
:10B8D000401CDFF8E8130860DFF8E0030068132875
:10B8E00004D1DFF8DC03F6F75EFD0BE0DFF8CC03F4
:10B8F0000068142806D1FEF71FFF03E0DFF8BC0341
:10B900000021016006222100DFF8AC03F9F708F8F6
:10B91000DFF890030068C82190FBF1F201FB1200F0
:10B9200000281BD1F86AC0680290F86A806801900C
:10B93000B4F904000090B4F90230B4F90020DC48F6
:10B940000168DFF88003F6F72EFDD6480068DFF8BF
:10B950007813884202DBD34800210160012006B041
:10B96000BDE8F08130B583B001240020ADF80600B9
:10B9700000208DF80400F6F794FC050001200090EB
:10B9800001AB6B22D0210020F6F7DDFD002801D1AC
:10B9900000208BE09DF8040040061AD56B208DF83E
:10B9A00006009DF8040010F0BF008DF80700022388
:10B9B0000DF10602D0210020F6F76BFD002801D121
:10B9C000002073E014212800F6F758FEBF48F6F770
:10B9D000EAFC1D208DF8060008208DF807000223E0
:10B9E0000DF10602D0210020F6F753FD002801D109
:10B9F00000205BE00120009001AB6C22D0210020F0
:10BA0000F6F7A1FD002801D100204FE06C208DF851
:10BA100006009DF8040050F080008DF804009DF8A9
:10BA2000040050F007008DF804009DF8040010F0A9
:10BA3000C7008DF804009DF804008DF8070002236C
:10BA40000DF10602D0210020F6F723FD002801D1D8
:10BA500000202BE00120009001AB6B22D0210020C0
:10BA6000F6F771FD002801D100201FE06B208DF852
:10BA700006009DF8040010F0BF008DF804009DF84A
:10BA8000040050F020008DF804009DF804008DF8AB
:10BA9000070002230DF10602D0210020F6F7F9FC81
:10BAA000002801D1002001E02000C0B23EBD80B5D9
:10BAB0000020ADF80000FFF755FF002801D100205D
:10BAC00045E01F208DF800004B208DF80100022377
:10BAD00000AAD0210020F6F7DCFC002801D10020CC
:10BAE00035E01E208DF8000006208DF801000223AD
:10BAF00000AAD0210020F6F7CCFC002801D10020BC
:10BB000025E069208DF80000C0208DF80100022397
:10BB100000AAD0210020F6F7BCFC002801D10020AB
:10BB200015E0012201210320F6F72FFE38208DF8C1
:10BB3000000040208DF80100022300AAD02100203F
:10BB4000F6F7A7FC002801D1002000E0012002BD8B
:10BB500080B50020ADF80000012200210320F6F797
:10BB600014FE38208DF8000000208DF8010002231B
:10BB700000AAD0210020F6F78CFC002801D100207B
:10BB800058E06B208DF8000000208DF801000223A2
:10BB900000AAD0210020F6F77CFC002801D100206B
:10BBA00048E01D208DF8000000208DF801000223E0
:10BBB00000AAD0210020F6F76CFC002801D100205B
:10BBC00038E06C208DF8000034480078032803D159
:10BBD00000208DF8010012E030480078022803D1DF
:10BBE00038208DF801000AE02C480078012803D1A4
:10BBF00007208DF8010002E03F208DF801000223AC
:10BC000000AAD0210020F6F744FC002801D1002032
:10BC100010E069208DF8000000208DF8010002235B
:10BC200000AAD0210020F6F734FC002801D1002022
:10BC300000E0012002BD80B50178012905D1FFF7A0
:10BC40004EFB00280AD1002009E00178022905D125
:10BC5000FFF7DAFB002801D1002000E0012002BD3F
:10BC600080B51B490020FAF783F81A490B20FAF730
:10BC70007FF801BD900B0308003E490084240308AF
:10BC800001EFE7008C2403087C24030870230308D9
:10BC9000942403089C240308333F0120144201200C
:10BCA00008400020DC400120A4240308AC24030841
:10BCB0002C410120B42403080C41012098410120AB
:10BCC000502403080C240308A1860100BC240308A7
:10BCD000BC220308E022030810B50024DFF8500C52
:10BCE000007800280AD1FEF7D0FD002801D10020FD
:10BCF00007E0DFF83C0C0121017000E00124200086
:10BD0000C0B210BD1CB500208DF806000020ADF8B3
:10BD10000400F6F7C6FA0400012000900DF10603B6
:10BD20006B22D0210120F6F70EFC002801D1002063
:10BD300068E09DF806006021084216D06B208DF85F
:10BD400004009DF8060010F09F008DF80500022306
:10BD500001AAD0210120F6F79CFB002801D1002088
:10BD600050E01E212000F6F789FC012000900DF123
:10BD700006036C22D0210120F6F7E5FB002801D153
:10BD800000203FE06C208DF804009DF8060010F0C4
:10BD9000F8008DF80500022301AAD0210120F6F752
:10BDA00078FB002801D100202CE00A212000F6F7C2
:10BDB00065FC1B208DF8040008208DF80500022387
:10BDC00001AAD0210120F6F764FB002801D1002050
:10BDD00018E01A208DF8040003208DF805000223D6
:10BDE00001AAD0210120F6F754FB002801D1002040
:10BDF00008E0DFF8400B007850F00200DFF8341B59
:10BE00000870012016BD00B583B000208DF8060033
:10BE10000020ADF80400012000900DF106036C2213
:10BE2000D0210120F6F78FFB002801D1002030E05F
:10BE30006C208DF804009DF8060050F007008DF886
:10BE40000500022301AAD0210120F6F722FB0028D9
:10BE500001D100201DE0DFF8DC0A0078C0070FD414
:10BE60006B208DF8040040208DF80500022301AA04
:10BE7000D0210120F6F70DFB002801D1002008E0B9
:10BE8000DFF8B00A007810F0FD00DFF8A81A08709B
:10BE900001200EBD00B583B000208DF80400002005
:10BEA000ADF806000120009001AB6C22D0210120EA
:10BEB000F6F749FB002801D1002014E06C208DF832
:10BEC00006009DF8040050F007008DF807000223DB
:10BED0000DF10602D0210120F6F7DBFA002801D18E
:10BEE000002000E001200EBD7FB5040002A8002163
:10BEF000002206C0083800260020ADF80400F6F73E
:10BF0000D0F905000120009002AB6B22D021012066
:10BF1000F6F719FB002801D1002083E09DF8080006
:10BF2000400625D56B208DF804009DF8080010F020
:10BF3000BF008DF80500022301AAD0210120F6F7E9
:10BF4000A8FA002801D100206CE032212800F6F781
:10BF500095FBDFF8E409F6F726FA002603E0F6B2CF
:10BF600000203055761CF6B2062EF8DB012059E091
:10BF70000120009002AB6C22D0210120F6F7E3FAF9
:10BF8000002801D100204DE09DF80800072108425B
:10BF900025D06C208DF804009DF8080010F0F80002
:10BFA0008DF80500022301AAD0210120F6F771FACD
:10BFB000002801D1002035E00A212800F6F75EFBB9
:10BFC000DFF87809F6F7EFF9002603E0F6B2002073
:10BFD0003055761CF6B2062EF8DB012022E0062052
:10BFE000009002AB4322D0210120F6F7ACFA0028E2
:10BFF00005D1DFF84C09F6F7D6F9002012E09DF8DC
:10C00000090020709DF8080060709DF80B00A0707A
:10C010009DF80A00E0709DF80D0020719DF80C005D
:10C020006071012004B070BD2DE9F64FADF63C6D96
:10C0300005000020ADF8080003A81421F8F7AEFBB6
:10C04000002608A80021002200230EC00C385FF053
:10C05000000940F68C1068444FF49661F8F79EFB97
:10C06000FFA8E0304FF49661F8F798FB0BA84FF467
:10C070009661F8F793FB5FF000080027002400208A
:10C08000070000E07F1C032F80F2BA806B208DF840
:10C090000800781C8DF80900022302AAD021012093
:10C0A000F6F7F7F9002801D1002099E13220FEF7D8
:10C0B000B1FB6A208DF8080044208DF809000223A6
:10C0C00002AAD0210120F6F7E4F9002801D10020CE
:10C0D00086E1012409E019EB060608A850F82700BC
:10C0E00019EB000008A941F827002000441E012890
:10C0F00075DB23208DF8080070208DF809000223DD
:10C1000002AAD0210120F6F7C4F9002801D10020AD
:10C1100066E14B20FEF77EFB23208DF8080000200F
:10C120008DF80900022302AAD0210120F6F7B1F907
:10C13000002801D1002053E10220009003AB7222BD
:10C14000D0210120F6F7FFF9002801D1002047E1B6
:10C1500003A8FEF748FC00EE100AB8EEC00A10EE85
:10C16000100AFCF7E7F8DFF8DC27DFF8DC37F6F732
:10C170007BFDF7F7A3F88146B9F148000128B4DB4D
:10C180005FF000081DE003A8FEF72DFC18EB060188
:10C1900040F68C126A4422F811000DF10E00FEF7F1
:10C1A00022FC18EB0601FFAAE03222F8110004A8D5
:10C1B000FEF719FC18EB06010BAA22F8110018F182
:10C1C0000108C84587DA0620009003AB7422D0210D
:10C1D0000120F6F7B8F90028D5D1002000E123208E
:10C1E0008DF8080000208DF80900022302AAD02152
:10C1F0000120F6F74EF900287FF444AF0020EFE06D
:10C20000002E01D0340000E001245FF0000800207F
:10C210000021C5E9000100200021C5E9020100203C
:10C220000021C5E9040122E0D5E9000140F68C12A5
:10C230006A4432F91820D31780185941C5E9000122
:10C24000D5E90201FFAAE03232F91820D31780188D
:10C250005941C5E90201D5E904010BAA32F91820B8
:10C26000D31780185941C5E9040118F10108B045F8
:10C27000DADBD5E900012200E317FDF7A7F8C5E9ED
:10C280000001D5E902012200E317FDF79FF8C5E997
:10C290000201D5E904012200E317FDF797F8C5E98B
:10C2A00004015FF00008DDF83C0E00220023C0E925
:10C2B0000023DDF83C0E00220023C0E90223DDF854
:10C2C0003C0E00220023C0E9042382E0DDF83C2E6E
:10C2D000D2E90001CDE9000140F68C10684430F944
:10C2E0001800C117D5E90023801A994140F68C1235
:10C2F0006A4432F918A05FEAEA7BD5E90023BAEB79
:10C3000002027BEB0303A2FB00AB02FB01BB03FBBE
:10C3100000BBDDE9000110EB0A0051EB0B01DDF879
:10C320003C2EC2E90001DDF83C2ED2E90201CDE944
:10C330000001FFA8E03030F91800C117D5E9022349
:10C34000801A9941FFAAE03232F918A05FEAEA7B2D
:10C35000D5E90223BAEB02027BEB0303A2FB00AB9D
:10C3600002FB01BB03FB00BBDDE9000110EB0A008F
:10C3700051EB0B01DDF83C2EC2E90201DDF83C2E49
:10C38000D2E90401CDE900010BA830F91800C1176A
:10C39000D5E90423801A99410BAA32F918A05FEA63
:10C3A000EA7BD5E90423BAEB02027BEB0303A2FB91
:10C3B00000AB02FB01BB03FB00BBDDE9000110EB9E
:10C3C0000A0051EB0B01DDF83C2EC2E9040118F123
:10C3D0000108B045FFF67AAFDDF8400E0660012097
:10C3E0000DF6446DBDE8F08F2DE9F04389B00400EF
:10C3F0000D00160001275FF0000801A80021016070
:10C400000320009001AB0022D0210120F6F79BF819
:10C41000002801D15FF0FF375FF0000907E04FFA15
:10C4200089F905A8002140F8291019F101094FFAEE
:10C4300089F9B9F1030F17DA4FFA89F901A819F848
:10C4400000000028EBD04FFA89F901A819F8000084
:10C45000DFF8F81411EB400030F8020C4FFA89F9BC
:10C4600005A941F82900E0E75FF0000925E04FFA4F
:10C4700089F902A850F82900DFF8D414884208DAB4
:10C48000DFF8D004F5F78FFF012010FA09F050EA29
:10C4900008084FFA89F902A850F82900DFF8B81403
:10C4A000884208DBDFF8B404F5F77DFF012010FABD
:10C4B00009F050EA080819F101094FFA89F9B9F1B0
:10C4C000030F3BDA4FFA89F955F829004FFA89F939
:10C4D00056F82910401A09F0C3FF4FFA89F902A94A
:10C4E00041F829004FFA89F905A850F829000028D9
:10C4F000BDD04FFA89F902A850F829004FFA89F9FE
:10C5000005A951F8291090FBF1F0B0F57A7009F007
:10C51000A7FF4FFA89F924F819004FFA89F934F97D
:10C520001900B0F5FA7FC6DDDFF83404F5F73BFFFC
:10C53000012010FA09F050EA0808BCE74FFA88F821
:10C54000B8F1000F05D0DFF81C04F5F72CFF7FF0E1
:10C550000207380040B209B0BDE8F0832DE9F0478A
:10C560009CB004005FF0010801250CA81821F8F721
:10C5700015F906A81821F8F711F902A800210160A1
:10C5800000A80021002206C008385FF0000A18A8A1
:10C590000021002200230EC00C3815A80021002223
:10C5A00000230EC00C3812A80021002200230EC068
:10C5B0000C3803A80021002200230EC00C380026EE
:10C5C000DFF8A403D0F80490FEF713FA002801D195
:10C5D000002049E1FEF720FB80465FFA88F8B8F1B9
:10C5E000010F0AD15FF0010A02AA06A90CA8FFF701
:10C5F0001BFD002805D1002036E1FEF765FA00207A
:10C6000032E1FEF7EEFB002801D100202CE10023EF
:10C6100003AA15A90020FEF722FC05006DB2012D2A
:10C6200003D0761CD148F5F7BEFE002312AA18A944
:10C630007FF01F00FEF713FC05006DB2012D03D043
:10C64000B61CCB48F5F7AFFE18AA15A900A8FFF74E
:10C65000CBFE05006DB2012D03D0361DC548F5F7A0
:10C66000A2FEDDE90601002901D100280BD0DDE999
:10C670000801002901D1002805D0DDE90A010029BF
:10C6800005D1002803D1BC48F5F78DFE08360027F8
:10C690003AE0FFB20CA810EBC700D0E9002340F24B
:10C6A000411000218B420FDB01DC82420CD310369B
:10C6B000FFB20CA810EBC702D2E900010200FFB2E2
:10C6C0003900AE48F5F76FFEFFB206A810EBC702BF
:10C6D000D2E90001029AD317FCF778FE002912DB99
:10C6E00002DCB0F5C85F0ED34036FFB206A810EBEF
:10C6F000C702D2E90001029990FBF1F2FFB23900C2
:10C700009F48F5F750FE7F1CFFB2032FC1DB36B206
:10C71000002E1AD100220CE0D2B219EB4203D2B2A1
:10C720000CA810EBC206D6E900018000A3F858005F
:10C73000521CD2B2032AEFDBB9F95C30B9F95A20A6
:10C74000B9F958108F48F5F72EFE84F800A0BDF80F
:10C7500000006070BDF900000012A070BDF802007A
:10C76000E070BDF9020000122071BDF80400607194
:10C77000BDF904000012A071E571029820720298C0
:10C780000012607202980014A07202980016E07203
:10C79000DDE90C012073DDE90C0100B200126073C9
:10C7A000DDE90C010014A073DDE90C010016E07353
:10C7B000DDE90E012074DDE90E0100B200126074A3
:10C7C000DDE90E010014A074DDE90E010016E0742D
:10C7D000DDE910012075DDE9100100B2001260757D
:10C7E000DDE910010014A075DDE910010016E07507
:10C7F000DDE906012076DDE9060100B2001260766F
:10C80000DDE906010014A076DDE906010016E076F8
:10C81000DDE908012077DDE9080100B20012607748
:10C82000DDE908010014A077DDE908010016E077D2
:10C83000DDE90A0184F82000DDE90A0100B20012F6
:10C8400084F82100DDE90A01001484F82200DDE902
:10C850000A01001684F82300FEF736F9002801D1FA
:10C86000002001E04046C0B21CB0BDE8F08730B502
:10C8700083B004000020ADF8040000203A494D6860
:10C88000697A002907D1286E40688047F5F709FDCD
:10C890000A21F5F7F3FE0220009001AB4122D021DE
:10C8A0000120F5F750FE002801D1002017E09DF887
:10C8B00005009DF8041050EA0120032110FB01F04F
:10C8C0004FF47A7190FBF1F0153020700020607009
:10C8D000687A002802D1286E8068804701203EBD1A
:10C8E00080B50178002905D1FFF738FE00280AD16C
:10C8F000002009E00178012905D1FFF7B8FF0028E1
:10C9000001D1002000E0012002BD80B5C0B20628A0
:10C9100006D10800FFF7ABFF002801D1002000E09E
:10C92000012002BD80B518490120F9F721FA01BDA7
:10C93000333F012014420120C4240308CC240308FF
:10C94000D42403082D211FF46C56C53F900D030815
:10C9500030FD1300E424030879E2D100EC2403083D
:10C96000DC240308F424030808400020FC24030806
:10C97000042503080C2503086024030890230308FA
:10C98000242403083C24030804230308DFF880055B
:10C99000704730B583B00020ADF806008DF8040074
:10C9A0000120009001AB002218210220F5F7CBFDF9
:10C9B00004469DF8040048281FD131208DF8060058
:10C9C0000DF106050120687002230DF10602182101
:10C9D0001846F5F75EFD00280DD031208DF80600D1
:10C9E0000020687002230DF1060218211846F5F7A1
:10C9F00050FD002802D100203EBD00241822002155
:10CA0000DFF80C05F5F72AFC20463EBD70B582B074
:10CA10000020ADF8000009F02CFD0446DFF8F40416
:10CA20008168497AC268527A51180069407A0818B8
:10CA3000012801DB012076BDDFF8DC54687801288D
:10CA40001CD032208DF8000000AE0120707002234F
:10CA500000AA18211846F5F71CFD00280CD031203B
:10CA60008DF8000001207070022300AA18211846DA
:10CA7000F5F70FFD002803D1002076BD01202870B6
:10CA8000281D61698847012076BD38B50020ADF8C2
:10CA9000000009F0EEFC0446DFF878048168497A6A
:10CAA000C268527A51180069407A0818022801DBDE
:10CAB000012032BDDFF860542878012812D03120DF
:10CAC0008DF8000000208DF80100022300AA182133
:10CAD0001846F5F7DEFC002801D1002032BD002009
:10CAE000687001E000202870281D21698847012016
:10CAF00032BD80B50020ADF8000031208DF8000077
:10CB000000208DF80100022300AA18211846F5F72D
:10CB1000C0FC002801D1002002BD012002BD7CB56F
:10CB200004460020ADF806008DF8040001200090B6
:10CB300001AB002218210220F5F705FD05469DF8FE
:10CB40000400482829D131208DF806000DF1060691
:10CB50001F20707002230DF1060218211846F5F708
:10CB600098FC002817D0032000902346602218214B
:10CB70000220F5F7E8FC00280DD031208DF80600E2
:10CB80000020707002230DF1060218211846F5F7F7
:10CB900080FC002802D1002076BD0025284676BD05
:10CBA0000021DE4A02E00B5C8B54491C1B29FADB96
:10CBB000DB48C0F8D423012070472DE9F04387B04B
:10CBC00004460D4616461F464FF000084046ADF895
:10CBD000040002A841460A460B460EC04FF0050964
:10CBE00006C00120009002AB102218210220F5F7A8
:10CBF000AAFC9DF80810C9070ED501280CD1082001
:10CC000000900DF10903112218210220F5F79BFC79
:10CC1000002807D140467BE04846A0F1010980B2D8
:10CC20000028DED1BF489DF80810017002A90A7AD9
:10CC30004270CA7982704A78C2708A780271CA7862
:10CC400042710A7982714A79C271897901720AE066
:10CC500002A800EB48008178407810EB012024F80E
:10CC6000180008F10108B8F1030FF1DBA948D0F86A
:10CC70000C8008F10C0999F815202146D9F80C0010
:10CC8000D8F80C30C018F7F74BFE404603F0C6F852
:10CC900099F81520D9F80C00D8F80C104118204646
:10CCA000F7F73EFEDFF8788205AA2146404609F0F4
:10CCB00035FE98F9F4023860B8F8EE00288008F2E2
:10CCC000EE00418869808188A98081892180C1899D
:10CCD0006180008AA08020882988401A308060887E
:10CCE0006988401A7080A088A988401AB0803120D5
:10CCF0008DF8040001208DF80500022301AA1821F7
:10CD00001846F5F7C6FB002801D1002000E00120FD
:10CD100007B0BDE8F08330B585B004460020ADF81B
:10CD2000040002A800210A460B460EC0052501207A
:10CD3000009002AB102218210220F5F704FC9DF8A8
:10CD40000810C9070ED501280CD1082000900DF15C
:10CD50000903112218210220F5F7F5FB002806D15E
:10CD6000002029E02846451E80B20028DFD16D480A
:10CD70009DF80810017002A90A7A42704878207064
:10CD800088786070C878A0700879E0704879207160
:10CD90009DF80E00607131208DF8040001208DF89F
:10CDA0000500022301AA18211846F5F772FB002896
:10CDB00001D1002000E0012005B030BD2DE9F04197
:10CDC00004460025FDF7B4FC0746FFF7DFFD0646E5
:10CDD0005048D0F81080F86E40070BD406F11403C9
:10CDE00006F10C02B11D3046FFF7E7FE002801D125
:10CDF000284651E098F80A00012848D149480178AE
:10CE0000217041786170C178A1700179E170417938
:10CE1000217181796171C179A171007AE071404815
:10CE2000818D2172B0F92C100912617200F12C0170
:10CE30004A88A272B1F902201212E2728A88227321
:10CE4000B1F9041009126173B0F8F410A173B0F9CC
:10CE5000F4100912E173F43041882174B0F9021022
:10CE6000091261748188A174B0F904000012E074A1
:10CE7000284620750FE006EB4500C18804F8151020
:10CE800004EB4501B0F90600001248706D1C032D3B
:10CE9000F1DB7069A0710120BDE8F081F8B50446AE
:10CEA0000025FDF745FC0746FFF770FD0646F86EC6
:10CEB000000705D52046FFF72EFF002826D109E000
:10CEC00006F1140306F10C02B11D3046FFF775FEA2
:10CED000002814D12846F2BD36F8150004F81500D4
:10CEE00004EB450036F915100912417006EB4501B7
:10CEF0008A898271B1F90C100912C1716D1C032D60
:10CF0000EADB182231460248F7F70AFD0120F2BD9C
:10CF1000C83D012008400020BC3E0120743D012096
:10CF2000E0E90020F83F01207CB504460020ADF880
:10CF300006008DF80400F5F7B4F9054601200090CD
:10CF400001AB002218210220F5F7FDFA9DF804102C
:10CF5000482932D131208DF806000DF106061F2038
:10CF6000707002230DF1060218211846F5F791FAA8
:10CF700000281BD031208DF806000020707002239D
:10CF80000DF1060218211846F5F783FA00280DD096
:10CF900001212846F5F772FB0120009001AB3122F8
:10CFA00018210220F5F7CFFA002801D1002076BD24
:10CFB0009DF804002070012076BDFF21217076BD10
:10CFC0002DE9F04387B0044604A800210A460B4629
:10CFD0000EC00846ADF80C004FF00509F5F761F9F1
:10CFE00005460220009004AB00221821F5F7ABFAA9
:10CFF00006469DF81000482840F00B819DF810006F
:10D00000207004AF7878607031208DF80C000DF13D
:10D010000C081F2088F80100022303AA18211846D3
:10D02000F5F737FA002800F0F5800320009004ABF4
:10D03000602218210220F5F786FA002800F0EA8025
:10D040009DF81000A0707878E070B87820713120D9
:10D050008DF80C00002088F80100022303AA182193
:10D060001846F5F716FA002800F0D4800120009049
:10D0700004AB312218210220F5F765FA002800F0F0
:10D08000C9809DF81000607531208DF80C000120DA
:10D0900088F80100022303AA18211846F5F7F9F9C8
:10D0A000002800F0B7801E212846F5F7E7FA012096
:10D0B000009004AB102218210220F5F744FA06462E
:10D0C0009DF81000C0070DD5012E0BD1082000904F
:10D0D0000DF11103112218210220F5F734FA00286E
:10D0E00006D160E04846A0F1010980B20028DED1F7
:10D0F000B87902907879019038790090FB78BA7805
:10D1000079780FF26C10F5F74EF9B878797811EB61
:10D1100000203979FA7812EB0121BA797B7913EB87
:10D12000022203461BB21B126371A071084600B2B3
:10D130000012E0712172104600B200126072A272F9
:10D140009DF81000E072387A207331208DF80C00C1
:10D15000102088F80100022303AA18211846F5F7C9
:10D1600098F9002856D01E212846F5F787FA4FF087
:10D1700005090120009004AB102218210220F5F7C8
:10D18000E2F906469DF81000C0070ED5012E0CD11D
:10D19000082000900DF11103112218210220F5F74B
:10D1A000D2F9002807D1002035E04846A0F1010956
:10D1B00080B20028DDD1B879029078790190387971
:10D1C0000090FB78BA7879780FF2C000F5F7EBF8A9
:10D1D000B878797811EB00203979FA7812EB0121CF
:10D1E000BA797B7913EB022203461BB21B126373DD
:10D1F000A073084600B20012E0732174104600B21A
:10D2000000126074A2749DF81000E074387A2075E2
:10D2100000E00026304607B0BDE8F08318B40446AD
:10D220000B4611460020032C04D0042C05D0072CFB
:10D2300006D008E0184614BC71E4184612BC73E628
:10D24000184612BCACE412BC704710B50FF258047B
:10D2500021460220F8F78CFD0FF270010420F8F748
:10D2600087FD21460320BDE81040F8F781BD00008E
:10D27000474D53312D25642C2025642C2025642C0A
:10D280002025642C2025642C20256400474D533232
:10D290002D25642C2025642C2025642C2025642C2D
:10D2A0002025642C2025640093C900080DCA0008BD
:10D2B0008BCA0008F3CA0008000000009DCE0008D9
:10D2C00000000000C1CF00081DD2000893C900086B
:10D2D0000DCA00088BCA0008F3CA0008000000004D
:10D2E000BDCD000800000000C1CF00081DD200081D
:10D2F00038B50020ADF800000446F4F7D2FF05462B
:10D300004FF480512046F5F730FA0A212846F5F708
:10D31000B5F900E0641C062C12D2DFF8080D215C80
:10D320008DF800102018007A8DF80100022300AA61
:10D3300072210720F5F7ADF80028EBD1002032BDAF
:10D34000012032BD2DE9FC4107468846FDF7F0F982
:10D3500004460020ADF80400DFF8CC5C288C0646BB
:10D36000B8F1000F02D03843288401E0B843288484
:10D37000012000900DF10603AB2272210620F5F783
:10D38000E2F8002801D10020C5E1288C0E2800F227
:10D39000A681DFE810F00F00A4011C00A4013F00EB
:10D3A000A4013F00A401B700A401B700A401B70085
:10D3B000A401B70080208DF8040000208DF805003E
:10D3C0009DF8060000F0FD008DF8060087E116F0DC
:10D3D0000C0F01D00120687581208DF8040001AE8A
:10D3E000EE207070022301AA72210920F5F751F88E
:10D3F000002801D100208EE17078E87080208DF83F
:10D400000400032070709DF8060000F0FD008DF808
:10D41000060064E13046000701D4022E01D101204C
:10D4200068759D208DF8040001AE0C2070700223F9
:10D4300001AA72210920F5F72CF8002801D100205B
:10D4400069E19E208DF804000C207070022301AA6F
:10D4500072210920F5F71DF8002801D100205AE1BA
:10D4600081208DF80400FD207070022301AA722132
:10D470000920F5F70EF8002801D100204BE1707863
:10D48000E8708E208DF80400287A002812D00C2134
:10D490008F2009F05EFD04218F2009F030FD30213E
:10D4A000902009F056FD3021902009F028FD4520FC
:10D4B000707011E00C218F2009F04BFD08218F20A6
:10D4C00009F01DFD3021902009F043FD102190202E
:10D4D00009F015FD82207070022301AA7221092033
:10D4E000F4F7D7FF002801D1002014E180208DF847
:10D4F0000400272070709DF8060000F0FD008DF8F4
:10D500000600ECE016F0080701AE4FD109F02AFE44
:10D5100001206875A4208DF8040000207070DFF8E9
:10D520008C0D00210170022301AA72210920F4F759
:10D53000B0FF002801D10020EDE0A5208DF8040007
:10D5400000207070DFF8680D00210170022301AA2D
:10D5500072210920F4F79DFF002801D10020DAE0B4
:10D56000A7208DF8040000207070DFF8480D00211E
:10D570000170022301AA72210920F4F78AFF002812
:10D5800001D10020C7E0A9208DF8040000207070B0
:10D59000DFF8980D00210170022301AA72210920F1
:10D5A000F4F777FF002801D10020B4E081208DF846
:10D5B0000400FE207070022301AA72210920F4F7F2
:10D5C00068FF002801D10020A5E07078E8708E2067
:10D5D0008DF80400287A002812D00C218F2009F041
:10D5E000B8FC04218F2009F08AFC3021902009F03A
:10D5F000B0FC3021902009F082FC4F20707011E0C7
:10D600000C218F2009F0A5FC08218F2009F077FC60
:10D610003021902009F09DFC2121902009F06FFC21
:10D6200084207070022301AA72210920F4F731FFCF
:10D63000002801D100206EE0002F20D1B4F88A002C
:10D64000B4F88C10401AE883B4F88A108900A983D2
:10D6500089B2FF2901DBFE21A98380B281006529FF
:10D6600002DB6420E88301E08000E883A98BE88B7B
:10D670000A1AEA8392B20FF2A400F4F794FEA620ED
:10D680008DF80400287A00280AD06021A32009F030
:10D6900060FC4121A32009F032FC5720707009E0A2
:10D6A0006021A32009F055FC4121A32009F027FCAB
:10D6B0008B207070022301AA72210920F4F7E9FE81
:10D6C000002801D1002026E080208DF8040067208A
:10D6D00070709DF8060040F002008DF806000223ED
:10D6E00001AA72210920F4F7D4FE002801D10020FC
:10D6F00011E0AB208DF804009DF806008DF80500C0
:10D70000022301AA72210920F4F7C3FE002801D1E7
:10D71000002000E00120BDE8F6810000233E6755AF
:10D72000703D25642C674C6F3D25640010B5342294
:10D730000021DFF8A00CF4F791FDDFF8EC480120A0
:10D74000A0710AF0A1F809F02FFC01202073DFF886
:10D75000D00D0021017010BD10B582B00FF25C0039
:10D76000F4F721FE0020ADF8000080208DF80000C5
:10D7700000AC03206070022300AA72210620F4F797
:10D7800088FE002818D0DFF8A008817A00290DD083
:10D790008C218DF80010002161708170022300AA95
:10D7A00072210620F4F775FE002805D0FFF7BEFFB2
:10D7B00001210020FFF7C6FD13BD0000233E484CA9
:10D7C0005300000010B582B00FF24000F4F7EBFDFB
:10D7D0000020ADF80000044600E0641C052C12D2C5
:10D7E000DFF8700D215C8DF800102018007A8DF89C
:10D7F0000100022300AA72210720F4F74AFE002844
:10D80000EBD1002016BD012016BD0000233E505272
:10D810005000000030B583B00FF28800F4F7C3FD6C
:10D820000020ADF804008DF80600DFF8FC476071B9
:10D8300080208DF8040001AD03206870022301AA46
:10D8400072210720F4F725FE002801D100203EBDFB
:10D850008C208DF8040000206870A070022301AABB
:10D8600072210720F4F715FE002801D100203EBDEB
:10D870000120607201460420FFF764FD002801D1F9
:10D8800000203EBD012000900DF10603E52272212B
:10D890000720F4F758FE002801D100203EBD0120EA
:10D8A0003EBD0000233E50524F00000000B583B043
:10D8B0000FF26400F4F777FD0020ADF806008DF854
:10D8C000040080208DF8060003208DF80700022355
:10D8D0000DF1060272210720F4F7DBFD002801D1CB
:10D8E00000200EBDDFF84007002141720420FFF741
:10D8F00029FD002801D100200EBD0120009001ABC0
:10D90000E52272210720F4F71EFE002801D1002035
:10D910000EBD01200EBD0000233E5052430000000A
:10D920000120704730B583B004460020ADF80400F4
:10D93000DFF8F456A87B00282CD1A87A002802D062
:10D94000287C207031E0012000900DF10503932226
:10D9500072210720F4F7F7FD00280DD09DF805008F
:10D96000800722D50120009001AB9C227221072064
:10D97000F4F7E9FD002801D100203EBD9DF8040028
:10D98000697951FA80F080B2400820709DF8040057
:10D9900068710AE0012808D1DFF8380A41696A791C
:10D9A0008918491021704069687101203EBD2DE938
:10D9B000F04391B00446FCF7BBFE0546F4F771FC5A
:10D9C00006460020ADF80800ADF80C008DF80A00FE
:10D9D000012000900DF10A03932272210720F4F731
:10D9E000B2FD002801D1002025E20220009003AB07
:10D9F000942272210720F4F7A6FD002801D100200F
:10DA000019E2DFF824769DF80D009DF80C1041EA2C
:10DA10000020DFF8181D4843F978C1F580713A7984
:10DA2000DFF80C3DD25C12FB01F140F2423251436F
:10DA300090FBF1F0797B002902D0B97A002901D15D
:10DA4000B86208E0B86AF97D4A1CFA75062902DB5B
:10DA500000217973F975397A00290CD141F65931D1
:10DA600088422DDB01213972F86200203876FFF7F9
:10DA700073FE0120DFE1F96A411A44F62162914206
:10DA800015DA40F6B831884218DA9DF80A20920675
:10DA900014D53A7E531C3B76C92A04DABA7A002A96
:10DAA0000ED188420CDA884201DA00213972F8621C
:10DAB00000203876FFF750FE0120BCE100203876C8
:10DAC0009DF80A00800640F1B5810020B87301205E
:10DAD00000900DF10A03932272210720F4F733FD21
:10DAE000002801D10020A6E19DF80A0080071BD57F
:10DAF0000120009003AB9C2272210720F4F723FD44
:10DB0000002801D1002096E19DF80C00797951FAA6
:10DB100080F080B2400860709DF80C00F8739DF8AA
:10DB20000C00787160783874387B002802D00020AF
:10DB3000387371E1DFF81C8D607888F80000B879DF
:10DB400000280AD009F03AFA002806D1B87A00284D
:10DB500003D0607809F044FA7AE0787A002839D066
:10DB6000B87AB978084335D1002030758C208DF80B
:10DB700008000DF10809202089F80100B87002237F
:10DB800002AA72210720F4F784FC002801D10020AA
:10DB900051E189208DF80800002089F80100022356
:10DBA00002AA72210720F4F774FC002801D100209A
:10DBB00041E18B208DF80800B5F88A0089F8010052
:10DBC000022302AA72210720F4F763FC002801D186
:10DBD000002030E1B87A00280ED105F18A00428891
:10DBE000B5F88A100FF25420F4F7DDFB61780FF2DC
:10DBF0005C20F4F7D8FB2BE0414684B0684618223D
:10DC0000F4F726FF0FBC09F050FE04A809F0B3FE9C
:10DC1000DFF8C49C484604A93422F4F719FF99F8A8
:10DC20001C00002807D034224946DFF8A807F6F781
:10DC300077FE0120787009F11C00417D88F81410EE
:10DC4000817D88F81510007D002801D0FFF76EFD5A
:10DC5000787A002800F0E080B87A002840F0DC8074
:10DC60006078B5F88A10884231D3307D00282ED1F3
:10DC70000120F87120702078307589208DF8080017
:10DC80000DF1080905F18A00408889F80100022396
:10DC900002AA72210720F4F7FCFB002801D1002022
:10DCA000C9E08B208DF80800FF2089F801000223CD
:10DCB00002AA72210720F4F7ECFB002801D1002012
:10DCC000B9E061780FF29010F4F76DFBA4E005F273
:10DCD0008A0041886278914231D3317D01292ED169
:10DCE0000120F871002020702078307589208DF88F
:10DCF00008000DF10809002089F80100022302AA9A
:10DD000072210720F4F7C5FB002801D1002092E022
:10DD10008B208DF80800B5F88A0089F801000223ED
:10DD200002AA72210720F4F7B4FB002801D10020D9
:10DD300081E061780FF22810F4F735FB6CE0B5F85C
:10DD40008A106278914235D3317D002932D1797CB5
:10DD500001292FD10120F871002020702078307522
:10DD60000020787489208DF808000DF10809002042
:10DD700089F80100022302AA72210720F4F789FB27
:10DD8000002801D1002056E08B208DF80800B5F85E
:10DD90008A0089F80100022302AA72210720F4F701
:10DDA00078FB002801D1002045E00FF2BC00F4F719
:10DDB000FAFA31E06178428891422DD3317D012910
:10DDC0002AD1797C012927D10021797489218DF804
:10DDD00008100DF10809408889F80100022302AA01
:10DDE00072210720F4F755FB002801D1002022E022
:10DDF0008B208DF80800FF2089F80100022302AA79
:10DE000072210720F4F745FB002801D1002012E021
:10DE10000FF25C00F4F7C7FA0120009003ABE52293
:10DE200072210720F4F78FFB002801D1002002E0C7
:10DE3000012000E0002011B0BDE8F083233E5570C2
:10DE40003D25642C4C6F3D2564000000233E50525C
:10DE50004157202564000000233E503120256400F6
:10DE6000233E503220256400233E52655448310041
:10DE7000233E5265544832002DE9F84304460D46CE
:10DE8000694EB07C002805D000F01EFF0020F07421
:10DE90003075C5E0FCF74CFC804600273846ADF8ED
:10DEA00000002078072823D16078FF2820D1294658
:10DEB000601CFFF737FD6078B8F88A10884208D3F5
:10DEC00001202070627821780FF26010F4F76BFA6D
:10DED0000CE0B8F88C006178884207D3384620708F
:10DEE000627821780FF24410F4F75DFA012097E090
:10DEF0000020F074307529462046FFF758FD0028B1
:10DF00000DD0707A00280AD0F079002807D00FF2DF
:10DF10003010F4F748FA0020F07101203075B07A23
:10DF2000002877D0DFF8648DD8F8189009F10C003C
:10DF3000417DC068D9F80C20801800F04DFA002807
:10DF400068D0DFF8DC050078411E8941C90FF17403
:10DF50007078002801D000207070707A002857D0A7
:10DF6000D9F80C0040780DF1000989F80100B18B57
:10DF7000814218D2F4F795F9007D002813D1707E04
:10DF8000401C7076C0B202282DD100207076012787
:10DF9000F4F787F93946017599F801100FF2A800D6
:10DFA000F4F701FA1FE099F80100F18B884218D2CA
:10DFB000F4F777F9007D012813D1707E401C70764C
:10DFC000C0B202280FD1002070760127F4F769F95A
:10DFD0000021017599F801100FF27800F4F7E3F9C8
:10DFE00001E000207076002F12D0D8F81C80F4F7E2
:10DFF00058F9007D8DF8000008F10C00427D00A961
:10E00000C068D8F80C30C018F6F78AFC01203075CB
:10E0100000203070F6F724FA00283FF469AF307D15
:10E02000BDE8F283187B0020307A0020233E536C39
:10E03000656570204144432025642025640000006C
:10E04000233E505550000000233E67757031202557
:10E0500064000000233E67757032202564000000D4
:10E06000F8B507460020ADF80000FCF761FB054657
:10E07000DFF8304D012060743878A5F88A0005F289
:10E080008A0678787080B5F88A00002802D07088F7
:10E09000002808D10FF29400F4F785F97820A5F84C
:10E0A0008A000020708089208DF8000000AF708801
:10E0B0007870022300AA72210720F4F7EAF90028F9
:10E0C0000DD08B208DF80000B5F88A0078700223FF
:10E0D00000AA72210720F4F7DCF9002801D1002002
:10E0E000F2BD7288B5F88A100FF24800F4F75BF9B8
:10E0F000B5F88A007188401AE083B5F88A10890063
:10E10000A18389B2FF2901DBFE21A18380B28100B6
:10E11000652902DB6420E08301E08000E083A08BBE
:10E12000E18B401AE0830120F2BD0000233E5054F1
:10E13000483D3000233E5448534554202564202553
:10E140006400000080B50FF218010720F7F710FEF9
:10E150000FF230010A20BDE80440F7F709BE0000C5
:10E16000C5D7000815D80008ADD8000821D9000887
:10E170000000000079DE000861E0000800000000F7
:10E1800000000000C5D7000815D80008ADD8000869
:10E1900021D900080000000025D9000861E000082E
:10E1A000000000000000000010B582B00FF2540023
:10E1B000F4F7F9F80020ADF80000FFF799F800280F
:10E1C00003D10FF24800F4F7EEF8002400E0641CDD
:10E1D0000B2C12D2DFF8840D2118097B8DF800106A
:10E1E000205C8DF80100022300AA72210620F4F7BA
:10E1F00050F90028EBD1002016BDF5F765FB012092
:10E2000016BD0000233E474550000000233E475006
:10E210004641494C0000000038B50FF29C00F4F76D
:10E22000C2F80020ADF8000080208DF8000000AC9E
:10E2300003206070022300AA72210620F4F729F956
:10E24000002801D1002032BD8C208DF80000002074
:10E250006070DFF8505BA870022300AA72210620CC
:10E26000F4F717F9002801D1002032BDA3208DF862
:10E270000000DFF8E80CC0786070022300AA722169
:10E280000620F4F706F9002801D1002032BD012054
:10E29000A872FFF74BFA01210820FFF753F8002876
:10E2A00001D1002032BD012032BD0000A33E01207B
:10E2B000A43E0120A53E0120233E47454F0000001B
:10E2C00010B582B00FF26800F4F76DF80020ADF8D9
:10E2D000000080208DF8000000AC03206070022355
:10E2E00000AA72210620F4F7D4F8002801D10020FA
:10E2F00016BDDFF86C0C002181720820FFF722F8B0
:10E30000002801D1002016BD9F208DF800000020BC
:10E310006070022300AA72210620F4F7BAF80028E0
:10E3200001D1002016BD012016BD0000A63E01202F
:10E33000233E4745430000000120704730B58DB0B3
:10E34000DFF8605AA879002814D008F037FE0028BA
:10E3500010D0DFF80045201D0FC808F02BFF08F093
:10E3600036FE002832D00020A8710120607520758B
:10E37000A0752BE0A879002828D1DFF8D8442146E1
:10E3800084B068461822F4F763FB0FBC09F0C0FAAA
:10E3900000A809F0F0FADFF84055284600A9342219
:10E3A000F4F756FB05F11C00417D2175817D6175F7
:10E3B000007D002801D0FFF7B9F9287F002805D09B
:10E3C00034222946DFF81C0DF6F7AAFA01200DB019
:10E3D00030BD0000383B012010B584B0044602A8CF
:10E3E000002101600846ADF804000120009001AB57
:10E3F000932272210620F4F7A6F8002800F0888006
:10E400009DF8040010F0040004D1DFF89819497851
:10E4100000297DD0002806D0DFF88809417800293E
:10E4200001D101218173012000900DF10503AE227D
:10E4300072210620F4F787F8002869D09DF80500BE
:10E44000002817D00420009002ABFC227221062085
:10E45000F4F779F800285BD0DFF8F8039DF808108E
:10E46000416002A94A7882608A78C260C9780161F5
:10E47000FFF764FFDFF86C1C0A78DFF8280943789F
:10E48000002B227007D000226270A270E27022710D
:10E490006271A2710BE04A6962708A69A2704A686F
:10E4A000E2708A682271CA6862710A69A2710A6A96
:10E4B000E2714A6A22728A6A6272CA6AA2724A7FE8
:10E4C000E272DFF8242C12782273DFF8202C127805
:10E4D0006273DFF81C2C1278A273DFF8182C127804
:10E4E000E273DFF8142C12782274DFF8102C127803
:10E4F0006274DFF80C2C1278A274C27BE2740022E2
:10E5000002700878042801D110460870012000E04C
:10E51000002004B010BDDFF8480AC07C704700003E
:10E52000BC38012080B5052802D1084600F002F869
:10E53000012002BD80B5017841F04103DFF8C41B22
:10E54000CB70027801780FF6DC30F3F72CFF012056
:10E5500002BD0000287B002070B584B00446002076
:10E56000019002A8002101600E460FF6CC30F3F7AF
:10E570001AFF01210820FEF7E5FEA0208DF8040017
:10E5800001AD30466870022301AA72210620F3F71C
:10E5900080FF002801D13046C5E0A1208DF804009D
:10E5A000FF206870022301AA72210620F3F771FF91
:10E5B000002801D13046B6E0AB208DF804000120E0
:10E5C0006870022301AA72210620F3F762FF002877
:10E5D00001D13046A7E0012000900DF10603802212
:10E5E00072210620F3F7AFFF002801D130469AE0F0
:10E5F00080208DF804009DF8060040F0450068700A
:10E60000022301AA72210620F3F743FF002801D15B
:10E61000304688E0A3208DF80400DFF84009C07878
:10E620006870022301AA72210620F3F732FF002846
:10E6300001D1304677E0012000900DF10703AF22B1
:10E6400072210620F3F77FFF002801D100206AE045
:10E650009DF80700C0070BD50420009002ABFC22F8
:10E6600072210620F3F76FFF00280CD100205AE03A
:10E670003046461CB0F57A7FDDDB0FF6C420F3F799
:10E6800092FE00204FE09DF80800207002A841781B
:10E6900061708178A170C078E070012000900DF168
:10E6A0000603802272210620F3F74DFF002801D1D6
:10E6B000002038E080208DF80400DFF8A408417ABB
:10E6C000002905D09DF8060000F0BF0068700CE03E
:10E6D0009DF8061001F0BB016970C07A002804D1D2
:10E6E0009DF8060000F0BA006870022301AA7221AA
:10E6F0000620F3F7CEFE002801D1002013E0AB2066
:10E700008DF8040000206870022301AA72210620FF
:10E71000F3F7BFFE002801D1002004E0002108200B
:10E72000FEF710FE012004B070BD0000D8D001003B
:10E73000DCF100080FF6A8210620F7F719BB1CB57D
:10E740000FF60820F3F72FFE00208DF80400ADF837
:10E750000600044600E0641C052C13DADFF8A80963
:10E76000215C8DF806102018007A8DF8070002232E
:10E770000DF1060272210920F3F78BFE0028EAD181
:10E78000002016BD0120009001ABD6227221062088
:10E79000F3F7D9FE002801D1002016BD9DF8041022
:10E7A0000FF6B010F3F7FFFDDFF8B4079DF8041083
:10E7B000C9098176012016BD30B583B0DFF8A047C6
:10E7C000A07E002804D00FF69C10F3F7ECFD03E0C8
:10E7D0000FF69810F3F7E7FD0020ADF80400802055
:10E7E0008DF8040001AD03206870022301AA722194
:10E7F0000920F3F74EFE002801D100203EBD8F20F6
:10E800008DF804000B206870022301AA72210920F0
:10E81000F3F73FFE002801D100203EBD0320207108
:10E820000120A075E07201460220FEF78BFD002852
:10E8300001D100203EBD012000900DF10603E6222B
:10E8400072210920F3F77FFE002801D100203EBD90
:10E8500001203EBDF83D012000B583B00FF6141035
:10E86000F3F7A1FD0020ADF8060080208DF806002A
:10E8700003208DF8070002230DF106027221092002
:10E88000F3F707FE002801D100200EBD0120009003
:10E8900001AB8F2272210920F3F755FE002801D128
:10E8A00000200EBDDFF8B8060021C1720220FEF77D
:10E8B00049FD002801D100200EBD0120009001ABD0
:10E8C000E62272210920F3F73EFE002801D1002044
:10E8D0000EBD01200EBD00009C3A012001207047B2
:10E8E0002DE9F04184B004460020ADF80400029008
:10E8F000DFF89803456A002085F85E00DFF860665F
:10E90000B07D012803D0707D002840F09080022067
:10E91000009001AB942272210920F3F714FE002825
:10E920002DD09DF80400A07101AF7878E07102202D
:10E93000009001AB962272210920F3F704FE002813
:10E940001DD09DF80400207078786070022000903F
:10E9500001AB982272210920F3F7F5FD00280ED0B3
:10E960009DF80400A0707878E0700220009001AB60
:10E970009A2272210920F3F7E6FD002801D1002038
:10E9800097E09DF80400207178786071F07820722B
:10E99000307960726078217841EA0020E178A278CD
:10E9A00042EA01216279237943EA0222E379A779D5
:10E9B00047EA032302AF009700F0CCF800281BD1F0
:10E9C000B07D012834D10020B075DFF840075B210D
:10E9D000017000214170852181700021C170AE213C
:10E9E000017100214171702181710121C171EE21FC
:10E9F0000172002141721BE00020B075DFF80C07A6
:10EA00002178017061784170A1788170E178C170DE
:10EA10002179017161794171A1798171E179C171C6
:10EA2000217A0172617A41720298706238E037D0BF
:10EA3000DFF8D80601782170417861708178A17083
:10EA4000C178E17001792171417961718179A17198
:10EA5000C179E171017A2172407A6072002070758B
:10EA60006078217841EA0020E178A27842EA012129
:10EA70006279237943EA0222E379A77947EA0323FB
:10EA8000F77894F808C086F803C096F80480647A92
:10EA9000347102AC009400F05DF8F77086F80480E1
:10EAA000029840F68451884202D1012085F85E0028
:10EAB000012004B0BDE8F0811CB504460020ADF88B
:10EAC00006008DF804000120009001AB8F22722116
:10EAD0000920F3F738FD002801D1002016BD9DF86C
:10EAE000040000F0FC008DF80400012C0AD0042C76
:10EAF00004D0102C1FD0402C22D026E040F0010082
:10EB00008DF804008F208DF806009DF804008DF824
:10EB10000700DFF84C449DF8040000F0030020716A
:10EB200002230DF1060272210920F3F7B2FC00283E
:10EB30000DD1002016BD40F002008DF80400E1E781
:10EB400040F003008DF80400DCE7002016BD012032
:10EB5000607316BD2DE9F0419C4614460D460646ED
:10EB6000A8192018A0EB0C00401C47103FB2002F42
:10EB700000D50027DFF8E81308790FF26062805CA7
:10EB8000C978C1F5807110FB01F240F6DC2E0EFB56
:10EB900002F88902B1F5803F01D34FF6FF71C90039
:10EBA0000A22B1FBF2F110282DD18B422BD3012088
:10EBB000FFF782FF002840D1E91B0698B74206DA2A
:10EBC0000268F31B4FF4B47606FB03220260AF42E7
:10EBD00005DA02684FF47A7303FB01210160A74252
:10EBE00001DA016801600168002901D50021016096
:10EBF00040F2A641B8FBF1F10268B2FBF1F101600D
:10EC00000120BDE8F081102808D1BCF1640F05DABD
:10EC10004020FFF751FF00280FD1CDE7402802D157
:10EC200064398B4204D20128C6D1BCF1640FC3DA27
:10EC30001020FFF741FF0028BED00020E1E70FF2CF
:10EC4000C4510920F7F794B8C5498874012070476A
:10EC500010B5DFF8BC4420202070002060700A202E
:10EC6000A0700020E0700A20207100206071322026
:10EC7000A0710020E07207222146DFF89804F5F722
:10EC80004FFE00206072012010BD000008400020EF
:10EC900000B583B000A800210A4606C00722DFF8AD
:10ECA00070140DF10100F5F73BFEA0208DF8000077
:10ECB000082300AA72210720F3F7EBFB002801D1FB
:10ECC00000200EBD01200EBD00B583B000208DF8E0
:10ECD0000400DFF83C04417B012903D100F0B0F9C6
:10ECE00001200EBD418AFF290CD000290DD0C27A27
:10ECF000521CC272491E4182417AD2B2914201D263
:10ED00000021C17200F015F805E0818A41820021DE
:10ED1000C17200F00EF80120009001ABE3227221D5
:10ED20000720F3F710FC002801D100200EBD0120C0
:10ED30000EBD38B50020ADF80000DFF8D443608A7E
:10ED4000002801D1A07A60720722E07AC0EBC000EF
:10ED5000DFF8C01341182046F5F7E2FDFFF798FFF2
:10ED600080208DF8000000AD81206870022300AA89
:10ED700072210720F3F78DFB002801D1002032BD5E
:10ED8000A7208DF80000208A6870022300AA722153
:10ED90000720F3F77EFB002801D1002032BD0120BF
:10EDA00032BD0000307A002030B585B00446002026
:10EDB0008DF80C00ADF80E0060790290207901907A
:10EDC000E0780090A378627821780FF2B030F3F702
:10EDD000EAFA0120009003AB802272210720F3F7AA
:10EDE000B2FB002801D1002061E0C94D9DF80C0064
:10EDF00028720120009003AB8F2272210720F3F7C5
:10EE0000A2FB002801D1002051E09DF80C00A8735E
:10EE10000120009003AB902272210720F3F793FBAF
:10EE2000002801D1002042E09DF80C00E87300F0BA
:10EE3000A6F88F208DF80E000DF10E050B206870DE
:10EE400002230DF10E0272210720F3F722FB0028A6
:10EE500001D100202BE090208DF80E000120687079
:10EE600002230DF10E0272210720F3F712FB002896
:10EE700001D100201BE0A84D8122FF212846F3F795
:10EE8000EDF980222146681CF5F74AFD0020287024
:10EE900081232A4672210720F3F7FBFA002805D1C7
:10EEA0000FF2F020F3F77FFA002000E0012005B018
:10EEB00030BD80B501780F2904DA954A527A521C88
:10EEC0008A4205DA0FF2D820F3F76DFA002002BD6E
:10EED0004278202A01DB202242700022C270427157
:10EEE000C1EBC1018B4A20238B54891800224A7040
:10EEF0004278002A01D1002201E05200521E8A719C
:10EF000082788A70C278CA7002790A714079487131
:10EF1000012002BD7E48417A491C41728172012064
:10EF2000704738B504467A4D6C82FFF791FE002C8D
:10EF300000D0AC8221460FF27820F3F734FA01209A
:10EF400032BD73494873012070477449087001202D
:10EF5000704772480078704700000000B07A0020C7
:10EF6000307A002080B56A4908730A7B52000A8211
:10EF700001460FF24C20F3F716FA012002BD00B54E
:10EF800083B00020ADF806008DF8040080208DF8D5
:10EF9000060001208DF8070002230DF10602722100
:10EFA0000720F3F776FA002801D100200EBD1020CB
:10EFB00000905B4BA02272210720F3F7C4FA0028CF
:10EFC00001D100200EBD0120009001AB80227221F2
:10EFD0000720F3F7B8FA002801D100200EBD012068
:10EFE0000EBD00B587B00020ADF8000001A81421C7
:10EFF000F5F7D4FB80208DF8000001208DF801008A
:10F00000022300AA72210720F3F743FA002801D156
:10F01000002013E0102242490DF10500F5F780FCB5
:10F02000A0208DF80400112301AA72210720F3F714
:10F0300030FA002801D1002000E0012007B000BD17
:10F0400030B583B00020ADF804008DF80600304CD8
:10F05000217A0FF27C10F3F7A6F90020FFF7F4FDF8
:10F06000002060736072FFF7BCFF8F208DF80400F2
:10F0700001ADA07B6870022301AA72210720F3F77B
:10F0800008FA002801D100203EBD90208DF8040030
:10F09000E07B6870022301AA72210720F3F7F9F9D7
:10F0A000002801D100203EBD80208DF80400207A88
:10F0B0006870022301AA72210720F3F7EAF90028F9
:10F0C00001D100203EBD012000900DF10603E32296
:10F0D00072210720F3F737FA002801D100203EBD46
:10F0E00001203EBD383B0120303F0120A33E0120DE
:10F0F000A43E0120A53E0120A63E0120313F012073
:10F10000323F0120B07A0020387B002004400120EB
:10F11000883E0120542F01200C2A01201542012095
:10F12000843F0120233E4745204355202578202554
:10F130007820257800000000233E4753454C4600C8
:10F14000233E47535445525200000000233E4C4991
:10F1500047500000233E4C434849502030782578E2
:10F1600000000000233E3E4C49474F00233E4C49DF
:10F17000474F0000233E4C49474300004D42442086
:10F18000256420256420256420256420256420250D
:10F19000640000004D6F6265616D205746000000FD
:10F1A0004D6F6265616D20486F70204661696C002B
:10F1B0004D4220486F70436F756E742025640000C7
:10F1C0004D6F6265616D204C656E3D2564000000E9
:10F1D0004D4220436C6F736520256400010410408C
:10F1E000A9E1000819E20008C1E2000839E30008BB
:10F1F0000000000017E500080000000059E50008C5
:10F2000025E500083FE70008B9E7000859E80008CD
:10F21000DDE8000800000000E1E800080000000050
:10F2200000000000000000007CB500242046ADF87E
:10F230000400F3F736F8054620208DF8040001AEEF
:10F2400020467070022301AABA210520F3F721F9A4
:10F25000002801D1204676BD01212846F3F70EFA99
:10F26000641C0120009001AB2122BA210520F3F794
:10F270006AF9002801D1002076BDA4B2B4F5FA7F66
:10F2800005DD0FF21C20F3F78EF8002076BD9DF807
:10F2900004000006E0D420208DF8040002207070E5
:10F2A000034601AABA210520F3F7F3F8002801D19B
:10F2B000002076BD012076BD1CB504460020ADF8C7
:10F2C00004000120009001AB0F22BA210520F3F7C2
:10F2D0003AF9002801D1002016BD9DF80400BD2890
:10F2E00034D100F035F8002801D1002016BD0320EC
:10F2F00001E0401E40B2002807D40FF2BC1151F8C3
:10F3000030108C4201D20028F3D120208DF8040067
:10F3100001ACA4206070022301AABA210520F3F7F2
:10F32000B8F8002801D1002016BD10208DF8040087
:10F330007F206070022301AABA210520F3F7A9F803
:10F34000002801D1002016BD012016BD002016BDE9
:10F3500080B50020ADF8000020208DF800000020CE
:10F360008DF80100022300AABA210520F3F791F8D5
:10F37000002805D10FF23010F3F715F8002002BD78
:10F38000012002BD80B58F20FFF796FF002801D134
:10F39000002002BD012002BD80B5FFF745FF002817
:10F3A00005D10FF20C10F2F7FEFF002002BD012084
:10F3B00002BD80B5FFF7E6FF002801D1002002BDA5
:10F3C000012002BD80B5FFF7C3FF002801D1002056
:10F3D00002BD012002BD01207047012070471FB50A
:10F3E000044601A800210A460B460EC001200090E9
:10F3F00001AB0F22BA210520F3F7A5F8002821D090
:10F400009DF80400BD281DD10520009001ABA82265
:10F41000BA21F3F798F8002801D1002013E09DF8F5
:10F420000400207001A8417861708178A1700021EA
:10F43000E170C178217100796071E01C00F006F87C
:10F44000012000E0002004B010BD000041780078E9
:10F4500040EA01204FF4F07190FBF1F000EE100A49
:10F46000B8EEC00ADFED070A30EE200ABDEEC00A92
:10F4700010EE100A80B204490870000A487001209A
:10F480007047000000002A4210420120012070470E
:10F49000012070470FF240010520F6F769BC00001B
:10F4A00042522D524600000042522D4346000000B9
:10F4B00042522D504600000028000000700000005D
:10F4C00050000000600000008F00000050000000AD
:10F4D000E80300001000000099F30008B3F30008EF
:10F4E000C5F30008D7F30008DBF30008DFF30008DA
:10F4F000000000008DF4000891F40008002070471F
:10F50000012070470120704738B504460D46F2F7D8
:10F51000C8FE0521F3F7B2F80020104904E00A689C
:10F520000255521C0A60401CA842F8DB012032BD83
:10F530000120704701207047094802680A704A702C
:10F54000511C01600120704706490A680270427030
:10F55000501C08600120704700000000807B0020E4
:10F56000A0410120A44101200FF234010820F6F748
:10F57000FFBB10B50FF2280421461220F6F7F8FB66
:10F5800021461320F6F7F4FB21461420BDE8104075
:10F59000F6F7EEBB0FF208011520F6F7E9BB000005
:10F5A000FDF4000801F5000805F5000805F5000860
:10F5B00035F5000809F5000831F5000849F500089F
:10F5C00039F5000810B50024F2F76BFE007CC00787
:10F5D00000D50124204610BD00B589B000A8242123
:10F5E000F5F7DCF80020ADF822000A208DF80800BD
:10F5F00000208DF809008DF80A008DF800001F200A
:10F60000019000A8F8F76EFD012009B000BD00B51B
:10F6100089B000A82421F5F7C1F80020ADF8220038
:10F620000A208DF8080000208DF809008DF80A00E6
:10F6300001208DF800001F20019000A8F8F752FD6E
:10F64000012009B000BD00B589B000A82421F5F75C
:10F65000A5F80020ADF822000A208DF8080000204F
:10F660008DF809008DF80A0001208DF800001F2098
:10F67000019000A8F8F736FD012009B000BD012077
:10F68000704710B50024F2F70CFE007CC00700D5CF
:10F690000124204610BD00B589B000A82421F5F74B
:10F6A0007DF80020ADF822000A208DF80800002027
:10F6B0008DF809008DF80A008DF8000020200190D7
:10F6C00000A8F8F70FFD012009B000BD00B589B012
:10F6D00000A82421F5F762F80020ADF822000A20E6
:10F6E0008DF8080000208DF809008DF80A0001202F
:10F6F0008DF800002020019000A8F8F7F3FC01200D
:10F7000009B000BD00B589B000A82421F5F746F87E
:10F710000020ADF822000A208DF8080000208DF8A6
:10F7200009008DF80A0001208DF8000020200190CA
:10F7300000A8F8F7D7FC012009B000BD01207047F0
:10F7400010B50024F2F7ADFD007C800700D5012440
:10F75000204610BD00B589B000A82421F5F71EF899
:10F760000020ADF822000A208DF8080000208DF856
:10F7700009008DF80A008DF800002120019000A8F2
:10F78000F8F7B0FC012009B000BD00B589B000A8B1
:10F790002421F5F703F80020ADF822000A208DF8A7
:10F7A000080000208DF809008DF80A0001208DF86E
:10F7B00000002120019000A8F8F794FC012009B076
:10F7C00000BD00B589B000A82421F4F7E7FF0020B0
:10F7D000ADF822000A208DF8080000208DF80900FD
:10F7E0008DF80A0001208DF800002120019000A86A
:10F7F000F8F778FC012009B000BD0120704710B572
:10F800000024F2F74EFD007C00F00300032800D135
:10F810000124204610BD00B589B000A82421F4F7CA
:10F82000BDFFDFF84003017841F0020101700020C4
:10F83000ADF822000A208DF8080001208DF809009B
:10F840008DF80A1000208DF800002220019000A8F9
:10F85000F8F748FC012009B000BD00B589B000A848
:10F860002421F4F79BFFDFF8FC12087810F0FD006C
:10F87000087014D10020ADF822000A208DF808008D
:10F8800001208DF8090000208DF80A0001208DF874
:10F8900000002220019000A8F8F724FC02E040B20A
:10F8A00008F004FE012009B000BD012070470120CE
:10F8B000704710B50024F2F7F4FC007C00F007005C
:10F8C000072800D10124204610BD00B589B000A84A
:10F8D0002421F4F763FFA349087840F00100087081
:10F8E000032805D140B208F0E1FD08F0FBFD12E06D
:10F8F0000021ADF822100A218DF8081000218DF8A2
:10F9000009108DF80A0008468DF8000022200190A9
:10F9100000A8F8F7E7FB012009B000BD00B589B0E9
:10F9200000A82421F4F73AFF8E49087810F0FE0071
:10F93000087013D10020ADF822000A208DF80800CD
:10F9400000208DF809008DF80A0001208DF80000D4
:10F950002220019000A8F8F7C5FB04E040B208F0AF
:10F96000A5FD08F0C4FD012009B000BD01207047CD
:10F970000120704710B50024F2F793FC007CC0070B
:10F9800000D50124204610BD00B589B000A824216F
:10F99000F4F704FF0020ADF822000A208DF80800DB
:10F9A00000208DF809008DF80A008DF80000232052
:10F9B000019000A8F8F796FB012009B000BD00B542
:10F9C00089B000A82421F4F7E9FE0020ADF8220058
:10F9D0000A208DF8080000208DF809008DF80A0033
:10F9E00001208DF800002320019000A8F8F77AFB91
:10F9F000012009B000BD00B589B000A82421F4F7AA
:10FA0000CDFE0020ADF822000A208DF8080000206D
:10FA10008DF809008DF80A0001208DF800002320E0
:10FA2000019000A8F8F75EFB012009B000BD01209D
:10FA30007047000070B58AB004460E46F8F77CFAAD
:10FA40000546002000900422214600A8F4F768FF34
:10FA500001A82421F4F7A2FE009A31460FF2C0104B
:10FA6000F2F7A1FC30460C3809284ED8DFE800F048
:10FA7000051118253C0C4D4D4D481420C5F8DC04EB
:10FA8000207001200AB070BD1420C5F87C052070DC
:10FA9000F7E705F2DC403C21816208462070F0E780
:10FAA00005F2DC4021783C2904D13C2121702178E9
:10FAB0000165E6E700990165E3E72A480078C10798
:10FAC00012D50021ADF826100A218DF80C10002166
:10FAD0008DF80D108DF80E0001208DF80400222005
:10FAE000029001A8F8F7FEFA0099304640B200F003
:10FAF00012F80090206005F2DC4000998167C0E7B1
:10FB00001420C5F8BC062070BBE70FF22410F2F7F2
:10FB10004AFC0020B6E710B4134AD36B126C114CA8
:10FB20002478002C1AD00F2802D010280BD015E012
:10FB3000507A002812D0906B806800280ED488423A
:10FB40000DDD08460BE0587A002807D0986B8068D6
:10FB5000002803D4884202DD084600E0084610BCB5
:10FB600070470000164201200840002012B589B0FD
:10FB700001460C3909292CD8DFE801F0051F2123A3
:10FB8000231D2B2B2B291F240020ADF822000190D0
:10FB90000A208DF8080005208DF800000194042249
:10FBA00009A90DF10900F4F7BBFE00A8F8F79AFACD
:10FBB00001200AB010BD2324E6E72024E4E7212435
:10FBC000E2E722240999FFF7A6FF0990DCE72B243E
:10FBD000DAE70FF26400F2F7E6FB0020E9E780B510
:10FBE0000FF25C010C20F6F7C3F80FF27801112038
:10FBF000F6F7BEF80FF290010D20F6F7B9F80FF204
:10FC0000AC010E20F6F7B4F80FF2C4010F20F6F79E
:10FC1000AFF80FF2E0011020BDE80440F6F7A8B8F5
:10FC20004D52322044523D25642C256400000000D2
:10FC30004D523220534446004D523220524346002A
:10FC4000C5F50008D9F500080FF6000847F60008CA
:10FC5000000000007FF6000835FA000800000000F0
:10FC60000000000075F9000889F90008BFF90008D4
:10FC7000F7F90008000000002FFA000835FA000824
:10FC8000000000000000000083F6000897F600085E
:10FC9000CDF6000805F70008000000003DF7000859
:10FCA00035FA0008000000000000000041F70008DD
:10FCB00055F700088BF70008C3F7000800000000A4
:10FCC000FBF7000835FA0008000000000000000003
:10FCD000FFF7000817F800085BF80008ABF8000809
:10FCE00000000000AFF8000835FA0008000000002E
:10FCF00000000000B3F80008CBF800081DF9000868
:10FD00006DF900080000000071F9000835FA0008DC
:10FD1000000000000000000080B5FAF709FDDFF8E0
:10FD2000D8170860012002BD80B5F4F7C3FCDFF8E6
:10FD3000CC17D1E90023801A02BDF8B50446A069AA
:10FD4000E1684518B5F90000B5F90270B5F904602D
:10FD5000B4F85810411A2980B4F85A10791A6980F9
:10FD6000B4F85C10711AA980B5F90010C913B1EB91
:10FD7000E03F13D0B4F95810C913B1EBE03F0DD0F8
:10FD80000FF29470F2F70FFBB5F90000012802DBC7
:10FD9000DFF86C0701E047F6FF702880B5F9021024
:10FDA000C913B1EBE73F13D0B4F95A10C913B1EB43
:10FDB000E73F0DD00FF26C70F2F7F5FAB5F90200DB
:10FDC000012802DBDFF8380701E047F6FF706880A2
:10FDD000B5F90410C913B1EBE63F13D0B4F95C10C8
:10FDE000C913B1EBE63F0DD00FF24470F2F7DBFA26
:10FDF000B5F90400012802DBDFF8040701E047F64B
:10FE0000FF70A88094F90800002804D1002000E0C9
:10FE1000401C0328FCDBF1BD00000000FEB50446D9
:10FE200000A800210A460B460EC0A069E1684518EB
:10FE3000174694F90860052E80F09A80012E02D1B1
:10FE40002046FFF77AFF3046012802D9C01E40F055
:10FE50008A80002E01D14FF6FF77DFF89C060068FC
:10FE6000301890F88400401E06285ED8DFE800F0C5
:10FE700004101D2936424F00B5F90200009000A879
:10FE8000B5F90010791A4160B5F90410816056E0A7
:10FE9000B5F90000381A009000A8B5F90210791AD7
:10FEA0004160B5F90410816049E0B5F90200381AE3
:10FEB000009000A8B5F900104160B5F90410816008
:10FEC0003DE0B5F90000381A009000A8B5F902101D
:10FED0004160B5F90410791A816030E0B5F902008B
:10FEE000009000A8B5F900104160B5F90410791A26
:10FEF000816024E0B5F90000009000A8B5F9021077
:10FF0000791A4160B5F90410791A816017E0B5F9E2
:10FF10000200381A009000A8B5F90010791A416063
:10FF2000B5F90410791A816009E0B5F90000009074
:10FF300000A8B5F902104160B5F904108160012EE6
:10FF40000AD1002106E050F8212002F30F0240F808
:10FF50002120491C0329F6DB0098288000A841686D
:10FF600069808068A880002E02D12046FFF7E5FE58
:10FF70000120FEBD70B52DED028B82B08169C26893
:10FF80008A1890F9081008460A2800F29880DFE8DD
:10FF900000F0062B73969665969696808E00B2F9C1
:10FFA0000240B2F90450DFF8500500689FEDAC0A3A
:10FFB000B2F9001000EE901AF8EEE00A60EE800A46
:10FFC000C0ED000A00EE904AF8EEE00A60EE800A0A
:10FFD000C0ED010A00EE905AF8EEE00A20EE800A29
:10FFE000001D80ED010A6EE0B2F90240B2F9045042
:10FFF000DFF804050068061D9FEDC08BB2F9000014
:020000021000EC
:1000000000EE100AB8EEC00A10EE100AF8F792F9E6
:1000100053EC182BF2F728FEF8F7B4F9B06000EEB5
:10002000104AB8EEC00A10EE100AF8F783F953EC44
:10003000182BF2F719FEF8F7A5F9F06000EE105A48
:10004000B8EEC00A10EE100AF8F774F953EC182B4A
:10005000F2F70AFEF8F796F9306134E000200090DC
:10006000106800909DED000ABAEECA0ADFF8880415
:10007000006880ED0C0A26E0DFF87C040068118837
:10008000A0F85A1000F25A0051884180918881806E
:1000900019E0DFF86404006800F25A001188C1809A
:1000A0005188018191884181D18881810BE0DFF8FD
:1000B0004804006892F9001080F8681003E00FF21D
:1000C0007C40F2F770F9012002B0BDEC028B70BDEC
:1000D00070B50D46DFF82C1451F820400026207F23
:1000E000002801D1304670BD607A002803D0206E10
:1000F0008068804706462846216EC96988470546BC
:10010000002E02D0206E40688047284670BD012036
:100110007047F0B4002A10D400F11004A57C0669E1
:1001200092FBF1F76F43B74202DAA263E26304E0A5
:1001300096FBF5F25143A163E163002B03D49907C9
:1001400001D510300374F0BC7047002903D400219E
:100150008164416181617047042817D101F10C006D
:100160008A7A012A09D0072242750B228275DFF8AC
:100170009823CA600B2141607047152242751922ED
:100180008275DFF88823CA601921416070472DE924
:10019000F243804614461A46C146B9F1160F46D2BC
:1001A0004546DFF8600350F825600227307F0028BD
:1001B0003DD00846C82802D1B420009003E0422870
:1001C00001D13C2000909DF92030002B06D4D807A7
:1001D00004D500993046FFF79AFF3FE0009930467A
:1001E000FFF797FFA9F10C00062805D24146C9B2D6
:1001F00000A8326E9269904731464046FFF7ACFF47
:10020000707A00281BD1214649B23046726E1268BE
:10021000904700280DD0306E40688047002804D1F8
:1002200039464F1EC9B20029F5D1002801D100205E
:1002300014E0214649B23046726E52689047707A97
:10024000401C70720D2D08D0224652B200993046E3
:10025000736E1B69984700F0B7F80120BDE8F28380
:1002600060F61C3A2DE9F04106460C461546194643
:10027000162E07D2A34850F826704FF00208387F98
:10028000002801D1002036E0C82C01D1B42402E0BE
:10029000422C00D13C243846FFF757FF787A0128DA
:1002A00018D1294649B238467A6E9268904700289C
:1002B0000AD0386E80688047002805D14046A0F1FA
:1002C0000108C0B20028F4D1294649B238467A6EF6
:1002D000D2689047787A002801D0401E78720D2E9F
:1002E00008D02A4652B2214638467B6E5B69984751
:1002F00000F06AF80120BDE8F081000089AD84FAC1
:100300000A74313F2DE9F84304460D4616461A4655
:100310002746162F26D27B4951F8208098F81C10CA
:1003200000291FD0C82D01D1B42502E0422D00D1F3
:100330003C250D2801D1012044E09DF92030002BFF
:1003400007D4D80705D52946404601B0BDE8F0439B
:10035000DDE606EB460008EB8009D9F83800806836
:10036000002801D500202DE029464046FFF7D1FEA8
:10037000D9F838008068854217D0012D15DB0FF2BF
:10038000C810F2F710F8324652B2D9F83800816836
:100390004046D8F864305B699847324652B22946E5
:1003A0004046D8F864301B699847A7F10C0006282E
:1003B00005D229462046FFF7D9FB012002E000F0D4
:1003C00003F80120BDE8F28370B56FF000463446B3
:1003D0004F48016804E08A68A24200DA14460968BE
:1003E0008142F8D14B4D2878401C28706878F02164
:1003F000084202D09920F4F70FFAF4F77AFA6878F5
:10040000401C6870B44200D100243B4E3068C46781
:10041000D0F8802021468A4212D0002901D0002A3B
:100420000BD1C0F880100FF23010F1F7BCFF30682C
:10043000D0F88000F1F793FF02E0012008F09AF86D
:100440006878F021084202D09920F4F7E5F968783D
:10045000401E6870C0B2002801D1F4F744FAF5F7E5
:10046000A2F8012070BD38B505462A4C2078401C02
:1004700020706078F021084202D09920F4F7CCF97E
:10048000F4F737FA6078401C607029460FF2DC0000
:10049000F1F789FF18480068C0F880501C480168CF
:1004A00005E08A68B2FBF5F26A43CA6009688142D6
:1004B000F7D16078F021084202D09920F4F7ACF926
:1004C0006078401E6070C0B2002801D1F4F70BFACA
:1004D000BDE83140F5F767B80D490A6808E01369CF
:1004E000012B01DAD368136113691B1A13611268B7
:1004F0008A42F4D170470000B4410120304101200C
:100500000080FFFF084000208C500020AC3D0120FF
:1005100078400020607A002058206973206F76654B
:100520007200000059206973206F76657200000028
:100530005A206973206F766572000000554353544A
:10054000282564294E5300006368616E6765207238
:100550006174653200000000675F707453682D3E5F
:100560006354696D6572203D202564006374696D74
:100570006572203D2025640038B504000D00144844
:100580000078401C1249087012480078002802D0F8
:10059000A120F4F741F9F4F7C5FF607E662802D088
:1005A0008220F4F739F9F4F7A4F905E038212000A6
:1005B00007F0E6FFF4F79DF9E06821698842F5D07D
:1005C0002900200007F0FEFFF4F7EDFF31BD00BF6A
:1005D000607A00203E4201204FF0FF31801E01284A
:1005E00012D9C01E04280FD9801F05280CD908383D
:1005F0000AD0801E042807D9401F03D0401E1028AF
:1006000002D902E0072100E001210846704780B5C9
:1006100001460020C91E18D0C91E16D0C91E14D00C
:10062000C91E012911D90D3903290ED9091F05D079
:10063000491E0AD0C91F032907D902BD1D210FF287
:100640001000F1F7B0FE012002BD012002BD000044
:1006500050443A204C4C53202564000038B50446E1
:100660004FF0FF35F7F768FC2B2C35D8DFE804F0A6
:100670002F34332F2F332F2F3333342F18331616B5
:100680002F343433342F2F2F182F332F332F2F1B8A
:100690001E22262A2D33333333333133B4251BE066
:1006A0004FF47A7518E0D0F8DC5415E000F2DC4025
:1006B000856A11E000F2DC40056D0DE000F2DC40DF
:1006C000856F09E0D0F87C5506E00A2504E03C255A
:1006D00002E0052500E01425284632BD38B5DFF8D4
:1006E000004AFAF725F8E06207F0D4FFF7F724FC98
:1006F0002063002512E0DFF8EC190161DFF8E8194A
:100700004161DFF8E8298261DFF8E429C261DFF89E
:10071000E42902624162406A80476D1C2D2D80F2FF
:100720001181216B05EB8500C00000224254401866
:1007300042704FF0FF32426000220272C260427289
:10074000032D04D17431DFF8B0298A62E3E7022D6A
:1007500003D1DFF8A8294A67DDE7002DCBD0042DAF
:1007600004D17431DFF898290A65D4E7052D04D146
:100770007431DFF890298A67CDE7062D04D1DFF8C0
:100780008829C1F81421C6E7072D05D101F58A7122
:10079000DFF878298A62BEE7082D05D101F58A7154
:1007A000DFF86C290A65B6E7092D05D101F58A71D4
:1007B000DFF860298A67AEE70A2D9CD00B2D9AD00E
:1007C000012D98D00C2D04D1DFF84C29C1F804225A
:1007D000A1E70D2D05D101F50171DFF840298A62ED
:1007E00099E70E2D05D101F50171DFF834290A656D
:1007F00091E70F2D05D101F50171DFF828298A67EE
:1008000089E7102D04D1DFF82029C1F8A42282E75E
:10081000122D3FF470AF142D3FF46DAF132D3FF444
:100820006AAF162D3FF467AF2B2D3FF464AF152D43
:1008300004D1DFF8082AC1F86C236CE7172D05D125
:1008400001F55B71DFF8F8290A6564E7182D05D119
:1008500001F55B71DFF8EC298A675CE71A2D05D199
:1008600001F20C41DFF8E0298A6254E71E2D05D120
:1008700001F2AC41DFF8D4298A624CE7192D04D18A
:10088000DFF8CC29C1F80C2445E71F2D05D101F272
:10089000AC41DFF8C0290A653DE7202D05D101F202
:1008A000AC41DFF8B4298A6735E7212D04D1DFF8A0
:1008B000AC29C1F84C252EE7222D05D101F24C516F
:1008C000DFF89C298A6226E7232D05D101F24C51DD
:1008D000DFF890290A651EE71B2D05D101F20C41B6
:1008E000DFF884290A6516E71C2D05D101F20C41B9
:1008F000DFF878298A670EE71D2D04D1DFF870290B
:10090000C1F8AC2407E7262D04D1DFF86829C1F827
:10091000142600E7272D05D101F21461DFF85829CC
:100920008A62F8E6292D05D101F21461DFF84C291D
:100930008A67F0E62A2D7FF4DEAEDFF84429C1F89D
:10094000B426E8E6012032BD0CB42DE9FF47054688
:100950008846012447462E461A2E48D006EB8600CC
:100960004FEAC008DFF878970B2F20D1D9F8300074
:1009700008EB000A9AF80100002818D02846FFF773
:100980002BFE012813DB2846FFF726FE9AF80110FC
:1009900081420CDB284600F086F90446D9F8300085
:1009A0004044002141700FF6E400F1F7FCFCD9F857
:1009B000300018F80010002947D108EB00014A78F0
:1009C000002A42D1002208F80020104648700CA9E5
:1009D00083B068461822F2F73BF80EBC284600F0B8
:1009E0007CF802282CD003282FD103242DE00B2FD4
:1009F00016D1FFF7F1FD012812DB2846FFF7ECFDC9
:100A000006EB8601DFF8D826126B02EBC1014978AC
:100A1000814205DB0FF67C00F1F7C5FC022057E0B0
:100A20004046C0B202F03AF80CA983B068461822DA
:100A3000F2F70EF80EBC284600F04FF8022801D15C
:100A4000022045E0032800D103240A2F0DD1DFF84E
:100A50009096D9F8300006EB86014FEAC10818F8E5
:100A60000010491C08F8001017E00B2F15D1DFF813
:100A70007096032E07D1D9F8300090F8790000283D
:100A800001D101F08FFA06EB86004FEAC008D9F8D1
:100A9000300040444178491C4170DFF84496D9F851
:100AA0003000D9F82C1006EB86024FEAC208D1E9D3
:100AB0001C23CDE90223C96E009108EB00014B789D
:100AC00018F8002031460FF2D870F1F76CFC204680
:100AD00004B0BDE8F0075DF80CFB0EB42DE9F04161
:100AE00083B005460124C0B2FFF7B8FDDFF8F0651A
:100AF00005EB8501326B02EBC1077860002038728C
:100B0000F86009A984B068461822F1F7A1FF0FBC6C
:100B10003F69B847022801D1022011E0032801D122
:100B200003240CE0D6F82C80D8E91C67204600216D
:100B30002A4607F053FE30433943C8E91C012046DA
:100B4000BDE8FE015DF810FB2DE9FF4704460D46A8
:100B50000126274607EB87004FEAC008DFF880959B
:100B6000D9F830001A2F57D008EB000A9AF8010084
:100B7000022814DB2046FFF72FFD01280FDB20465B
:100B8000FFF72AFD9AF80110814208DB2046FFF7A3
:100B900023FD8AF801000FF21C70F1F704FCD9F86C
:100BA000300018F80010002904D108EB0002527838
:100BB000002A60D02A460A2A09D1002903D0491EFA
:100BC00008F8001017E0002108F8001013E00B2AC5
:100BD00011D108EB00014A78002A02D0521E4A7057
:100BE00001E000224A70032F05D190F87900002817
:100BF00001D101F0E6F9D9F8300018F80010002909
:100C000039D140444078002835D1204600F04BF8D7
:100C1000032830D103262EE018F80010002904D153
:100C200008EB00025278002A25D02A460A2A09D168
:100C3000002903D0491E08F8001012E0002108F82E
:100C400000100EE00B2A0CD108EB000A9AF8010004
:100C5000002803D0401E8AF8010002E000208AF834
:100C600001002846C0B201F019FF204600F01BF831
:100C7000032800D10326D9F83000D9F82C10D1E987
:100C80001C23CDE90223C96E009108EB00014B78CB
:100C900018F8002039460FF22460F1F784FB304643
:100CA00004B0BDE8F0872DE9F0410746012607EBC7
:100CB0008700C500DFF82844206B2818406980476A
:100CC000032800D10326384640B200F080F90328FB
:100CD00000D10326206B295C002917D12818417800
:100CE000002913D14FF0FF31416000210172C16032
:100CF000D4F82C80D8E91C4501203A4607F06EFD57
:100D000024EA000025EA0101C8E91C013046BDE8DB
:100D1000F08138B5044604EB8400C000DFF8C0530E
:100D2000296B002242544018114641702046FFF7BB
:100D3000BAFFE86AD0E91C2321460FF29450F1F77C
:100D400032FB012032BD2DE9F041B6B004460E461B
:100D5000B6B201208DF86400DFF884531AA8E96A5E
:100D60006C22F1F775FE17951AA984B068466C22BB
:100D7000F1F76EFE0FBC00F0D9F900270BE0032855
:100D800003D1189703208DF86400286B404400219C
:100D900001727F1C7FB22D2F2ADAEA6AD2E91C0188
:100DA0003A4600F0CBFA00F0010011F0000101D149
:100DB0000028EED007EB87004FEAC008286B4044BC
:100DC00041680029E5D4027A521C0272D2B2724301
:100DD00089B28A42DDDB806980470228CFD118972B
:100DE00002208DF86400DDE91801C4E9000103E088
:100DF000DDE91801C4E9000136B0BDE8F081002149
:100E00000A3842F20772904200D201210846704728
:100E10002DE9F04383B0044600200190042204F140
:100E2000090101A8F3F77CFD6168DFF8B462376B54
:100E3000282505FB01704068019A904204D10FF209
:100E4000A040F1F7B0FA68E01046FFF7D8FF00289D
:100E500009D16168019B05FB017042680FF28C406B
:100E6000F1F7A1FA59E0DFF81C743868D0F8008077
:100E700025E090F908906068316B05FB0010C068B0
:100E800020FA09F0C00717D54FF0FF300090034655
:100E9000012201994846FFF77AF940B200280BD1A8
:100EA000616801980090306B05FB010043684A4679
:100EB0000FF24C40F1F777FA4046D0F80080B84284
:100EC000D7D13868D0F800801FE090F90890C86842
:100ED00020FA09F0C00715D54FF0FF330122496809
:100EE0004846FFF7BFF940B200280BD1616801986E
:100EF0000090306B05FB010043684A460FF2184032
:100F0000F1F751FA4046D0F800806168326B05FB7A
:100F10000121B842D9D101984860BDE8F7832DE995
:100F2000F8438146002425466D4F21E005EB8500FE
:100F3000C600386B06EB0008002088F80900FA6A42
:100F4000D2E91C012A4600F0F9F900F0010011F085
:100F5000000101D100280AD04846D8F81C10884763
:100F6000002804D0386B3018012141720C466D1CEA
:100F70002D2DDBDB2046BDE8F2835948C16AD1E95B
:100F80001C23002B01D1002A0DD0002107E002EB29
:100F90008203026B02EBC30200235372491C49B265
:100FA0000A462D2AF3DB704700B502464C48C36A57
:100FB000D3E91C0100F0C2F900F0010011F00001BA
:100FC00001D1002801D0012000BD084600BD2DE957
:100FD000F0478146012409EB8900C500404E306B83
:100FE0002818C068002829D0DFF898723868D0F82F
:100FF000008003E003244046D0F80080B8421DD0B2
:1010000090F908A0306B2818C168012202FA0AF290
:10101000114021FA0AF149B20129ECD14FF0FF3316
:10102000012241685046FFF71DF90028E2D05246E0
:1010300049460FF2FC20F1F7B6F9DCE72046BDE89F
:10104000F08710B58AB004460020ADF82200019068
:101050000A208DF8080000208DF809008DF80A009C
:10106000ADF82200600719D50520FFF79DFF002885
:1010700007D004208DF800000520019000A8F7F7A4
:1010800031F80220FFF790FF002807D004208DF8E8
:1010900000000220019000A8F7F724F8E0060CD524
:1010A0000820FFF781FF002807D003208DF80000FB
:1010B0000820019000A8F7F715F80AB010BD024605
:1010C0000020092A00D0704780B5012902D107F01D
:1010D00047FC012002BD02492C22F1F7B9BC0000F7
:1010E0006C3B01204F8200084B82000857820008A9
:1010F0005B8200085F820008AD190108854901087C
:101100005D130108494701082B0A0308E51B030882
:1011100081450108AF88010871160108D908030844
:10112000C9FD0208151303089B1903080FB41B9887
:101130000099016001994160029981600399C16041
:101140000499016105994161BDF85A100183BDF808
:101150005C104183BDF85E1081830C990162139984
:1011600041621499816204B07047000041681229FD
:1011700003D1C17A002000F0D2BF132903D1017B33
:10118000012000F0CCBF142903D1417B022000F0E4
:10119000C6BF152902D1C07A00F0D2BF172945D1A8
:1011A000817A1B2906D01C2930D01D290FD0262971
:1011B00026D07047C17B012903D1B0F80B0003F0A2
:1011C000FDB8022932D1B0F80D0003F0F5B8017D69
:1011D000012903D1B0F80B0007F0A6BE022903D104
:1011E000B0F80D0007F094BE042903D1B0F8170041
:1011F00007F0A6BE032919D1B0F8150007F0ACBE60
:10120000C17B012912D1807B07F0E7BF817B0129D7
:1012100002D1C07A08F0EDB9022902D1007B08F0B2
:10122000F2B9052902D1407B08F0CDB970471649C3
:10123000086070471448006870470000FD1C0308F0
:101240002D1F0308F111030899360108330603081E
:10125000ED15030895AA0108CF1A03088B1003089F
:101260004F84010809AC01085D430108419401085D
:10127000AF8E01082191010813E70208211E03081F
:10128000ADE8020874490020B8410120414C2045D6
:1012900058000000414C2045582D415400000000EA
:1012A000414C256420256420256420256420256C7C
:1012B0006C750000524C204558000000524C2564CB
:1012C00020256420256420256420256C6C75000091
:1012D0005445524D20256420256C6C75000000009B
:1012E0004558204C4D435231202564004558204C30
:1012F0004D435232202564202564202564000000DF
:101300004558204C4D435233202564202564202528
:1013100064202564000000004558204C4D435234A1
:101320002025642025642025642025640000000019
:10133000534D52412025642025640000D2B2203A4A
:1013400022BF21FA02F0002170472032D141D04063
:1013500048409140D14048407047000038B5F6F70A
:10136000EBFD0446104DF9F7E3F9286005F07CF831
:1013700005F07FF8686005F0B7F90C48C4F8B000D4
:1013800004F1B0000A4941600A4981600A49C1601C
:101390000A490161012032BD03494968896808474B
:1013A0000148406800680047584101204F8200080A
:1013B0004B820008578200085B8200085F820008A9
:1013C0002DE9F04786B0044601A81421F3F7E6F9A9
:1013D000F0F767FF05464FF00208002601E0761C93
:1013E00076B20A2E80F29E80022EF8D0032EF6D01E
:1013F000062EF4D0524850F82670787A002806D18C
:1014000007F10C00406D406880470028E7D008F8DD
:10141000046008F101084FFA88F8304609284FD8CF
:10142000DFE800F0050A4E4E10204E154E49C82147
:101430002846F1F723F943E04FF448712846F1F7C5
:101440001DF93DE032212846F1F718F938E0072070
:101450008DF80400FF208DF8050032212846F1F7B1
:101460000DF92DE03C212846F1F708F94FF0000A6C
:1014700007F10C09BAF1030F22DA0020D9F8541051
:101480000969884714212846F1F7F8F80120D9F8AE
:1014900054100969884714212846F1F7EFF8BAF18A
:1014A000020F05DA062101A8D9F8542052699047A5
:1014B0000AF1010ADEE74FF416712846F1F7DEF86B
:1014C00007F10C0999F8151001A8D9F854205269B0
:1014D0009047002819D0D9F80C00F96800EB010AF0
:1014E00099F8152001A95046F3F71AFA3846FEF785
:1014F00095FC99F81520514608EB0400F3F710FA13
:1015000099F9150080444FFA88F8787A00287FF41A
:1015100066AFD9F854008068804700287FF45FAF39
:10152000002009E0A8F10200ADF80000022200A9A5
:101530002046F3F7F5F9002006B0BDE8F08700007B
:101540000840002038B505000C0094F84C006428D1
:1015500002D08020F3F760F9F3F7BCFFF3F7C9F985
:10156000606928436061207C10F0F800082806D1EB
:10157000A0696169084202D02000F4F750F80748DA
:101580004078F021084202D09920F3F745F903484A
:101590004078002801D1F3F7A6F931BD607A002028
:1015A0000FB480B5BDF80B0064494880022802DB07
:1015B000801E088001E0002008800C229DF90A109E
:1015C0000020F6F7BBFC032801D1022000E0012037
:1015D00002BC5DF814FB59480121418000210180C3
:1015E00001207047564908707047000030B58DB033
:1015F00002A8F6F702FD514C2088401C208061882B
:1016000080B2884231D300202080054627E0606800
:10161000D0F8EC01E840C00720D5284607F08CF848
:1016200000281BD400EB80009FED430ADDED0B0A80
:1016300060EE800AFDEEE00A10EE901A00AA8152D8
:10164000DDED0C0A20EE800ABDEEC00A10EE101A85
:101650008218518000A94018012101716D1C172DBD
:10166000D5DBDDE9000107F070F801200DB030BDD9
:1016700080B5F6F761FC314948603249C0F8F01195
:1016800000F5F87030494160304981600FF20D017A
:10169000C1600FF225010161012002BD10B50024D7
:1016A000274890F90000002804D107F06EF80028C0
:1016B00000D00124204610BDF8B504460D4640F286
:1016C0002116287816FB004001210170287816FBAE
:1016D00000404170287816FB00400C21817028786A
:1016E00016FB0040164991F90010002902D0022192
:1016F000C17001E00121C170287816FB0040012172
:101700000171287816FB0040C180287816FB00473D
:10171000002006F0DBFF3881287816FB004400200B
:1017200006F0D9FF60812878401C28700C20BDE8A5
:10173000F24006F0E9BF00000000C842787B0020BC
:101740001F420120A1150108D7150108ED15010858
:101750000FB410B5032200210846F6F7EFFB02286C
:1017600001D102201BE00FF23C00F0F71CFEDFF875
:10177000844C00206073608220629DF80C209DF8EC
:101780000B109DF80A0008F0C7FC58220021DFF872
:10179000680CF0F763FD00202074A073012010BCDA
:1017A0005DF814FB50443A205374617274506564C0
:1017B0006F2D30323235000080B503220021012028
:1017C000F6F7BCFB032801D1032002BD012002BDB6
:1017D00030B58BB000A8F6F710FC05210320F6F712
:1017E0006FFC002802D1DFF8140C0890DFF8044CDD
:1017F000A069C56F08F026FC207294F90800022841
:1018000006D13C2D04D114210320F6F7F8FB07E0A4
:10181000012805D1142D03D13C210320F6F7EFFB5D
:10182000284680B2DDED081A00A991EC030A08F001
:10183000D6FAE0692818E06101200BB030BD10B580
:10184000DFF8B04B94F9000000283AD494F90A006C
:1018500094F90110814228D1217B0818A07240B26E
:101860003D2801DB3C38A07294F90A100FF26C009D
:10187000F0F799FD0020E061DFF8880B90F9010096
:1018800010F1010F01D1012010BD94F90110081AC7
:10189000F1F7E4FA21F00041F1F710FD40B2012820
:1018A00001DB012010BD002010BDDFF85C0B90F9BA
:1018B0000120914203D0D4E90023C0E90023002095
:1018C00010BDE069DFF8441B884205DB0FF2180009
:1018D000F0F769FD012010BD002010BD50443A20F2
:1018E0004E5420256400000050443A204E6F546945
:1018F0006D650000F8B52DED028B0024DFF8F45A79
:1019000007E0BA19AA7252B221460FF26C00F0F742
:101910004AFD95F90A60002C1FD46878841B64B2D4
:1019200095F90C70002CECD52046F1F797FA21F0D0
:10193000004141EC180B3846F1F790FA53EC182BA4
:10194000F1F770FAE5D2F21BAA72002452B22146D6
:101950000FF23800F0F727FDDBE73C2E02DBA6F1A3
:101960003C00A87295F90A100FF23400BDEC028B0E
:10197000BDE8F440F0F717BD50443A20636F6D7036
:10198000312025642C2025640000000050443A20BA
:10199000636F6D70322025642C20256400000000E8
:1019A00050443A20435554202564000010B5DFF818
:1019B000444A0020A07301202072002060724FF082
:1019C000FF3020700F20E07214202073002060731D
:1019D000608220626074A062E06228220146DFF823
:1019E000300AF0F73BFCF6F7A7FAA061DFF8241AFB
:1019F000C0F888108830DFF8201A4160DFF81C1A20
:101A000081600FF28D21C1600FF615210161012067
:101A100010BD10B582B04FF46163C1EB0114A40096
:101A200013FB0043D3184FF47A746343DFF8E049A3
:101A30002360DFF8C0391B7C009313460A46014639
:101A40000FF20800F0F7AFFC13BD00005044204235
:101A5000542025642025642025642025640000008E
:101A60002DE9F0412DED028BAAB0DFF88C693146EB
:101A700084B068465822F0F7EBFF0FBC00F072FC10
:101A800010EE100AF6F756FC41EC100B9FED7E8B22
:101A9000DFF87C49656853EC102B51EC180BF1F71B
:101AA000E3F8F1F70BFC15FA80F060604FF6FF7574
:101AB000A84200D36560314684B068465822F0F7EA
:101AC000C7FF0FBC00F006FC10EE100AF6F732FC60
:101AD00041EC100BA76853EC102B51EC180BF1F7ED
:101AE000C3F8F1F7EBFB17FA80F0A060A84200D32F
:101AF000A5600020139002201290314684B0684601
:101B00005822F0F7A5FF0FBC00F078FAA189401821
:101B1000A08180B2FF2801DBFF20A081002013906C
:101B200003201290314684B068465822F0F790FFA7
:101B30000FBC00F063FA216940182061A84200D36D
:101B400025610020139006201290314684B068462B
:101B50005822F0F77DFF0FBC00F050FAA18A401820
:101B6000A08280B2FF2801DBFF20A082002013901A
:101B700007201290314684B068465822F0F768FF7B
:101B80000FBC00F03BFAE18A4018E08280B2FF28E7
:101B900001DBFF20E08200201390082012903146E4
:101BA00084B068465822F0F753FF0FBC00F026FAC5
:101BB000A1694018A061A84200D3A561002013903C
:101BC00009201290314684B068465822F0F740FF51
:101BD0000FBC00F013FAE1694018E061A84200D39D
:101BE000E56114A808F032FADFF8187DD7F82880EC
:101BF0002398F6F79FFB0022DFF8EC3CF1F734F86E
:101C0000F1F75CFB58FA80F0B862F96A491CF96296
