:10000000006000208D4A0308EDE6020801E70208BF
:1000100015E7020829E702083DE702080000000092
:1000200000000000000000000000000051E702088E
:1000300065E7020800000000B95B0008B7E90008A6
:10004000894D03088D4D0308914D030807ED020803
:10005000994D03086FEE0208B9E9020849EB02085E
:10006000D5EB0208AD4D0308B14D0308B54D0308AB
:10007000B94D0308BD4D0308C14D0308C54D030824
:10008000C94D0308CD4D0308D14D0308D54D0308D4
:10009000D94D0308DD4D0308E14D0308E54D030884
:1000A000E94D0308ED4D0308F14D0308F54D030834
:1000B000F94D0308FD4D0308014E0308054E0308E2
:1000C000094E03080D4E0308114E03087DE7020890
:1000D000194E03081D4E0308214E0308254E030840
:1000E00073EC0208D3ED0208314E0308354E0308C5
:1000F000394E03083D4E0308414E0308454E0308A0
:10010000494E03084D4E0308514E0308554E03084F
:10011000594E03085D4E0308614E0308654E0308FF
:10012000694E03086D4E0308714E0308754E0308AF
:10013000794E03087D4E0308814E0308854E03085F
:10014000894E03088D4E0308914E0308954E03080F
:10015000994E03089D4E0308A14E0308A54E0308BF
:10016000A94E0308AD4E0308B14E0308B54E03086F
:10017000B94E0308BD4E0308C14E0308C54E03081F
:10018000C94E0308CD4E030838B50020ADF8000075
:10019000044601F094FF05464FF48051204602F0DA
:1001A000F2F90A21284602F077F900E0641C062CD7
:1001B00012D2DFF8FC0C215C8DF800102018007AB8
:1001C0008DF80100022300AA7221072002F06FF8C7
:1001D0000028EBD1002032BD012032BD2DE9FC41C9
:1001E0000746884602F030FB04460020ADF80400C4
:1001F000DFF8C05C288C0646B8F1000F02D0384307
:10020000288401E0B8432884012000900DF1060302
:10021000AB227221062002F0A4F8002801D10020B0
:10022000C4E1288C0E2800F2A681DFE810F00F0050
:10023000A4011C00A4013F00A4013F00A401B700D9
:10024000A401B700A401B700A401B70080208DF875
:10025000040000208DF805009DF8060000F0FD0068
:100260008DF8060087E116F00C0F01D001206875AB
:1002700081208DF8040001AEEE207070022301AAE7
:100280007221092002F013F8002801D100208DE12D
:100290007078E87080208DF80400032070709DF85D
:1002A000060000F0FD008DF8060064E1304600070E
:1002B00001D4022E01D1012068759D208DF8040023
:1002C00001AE0C207070022301AA7221092001F0F6
:1002D000EEFF002801D1002068E19E208DF8040087
:1002E0000C207070022301AA7221092001F0DFFFA7
:1002F000002801D1002059E181208DF80400FD2063
:100300007070022301AA7221092001F0D0FF002899
:1003100001D100204AE17078E8708E208DF8040049
:10032000287A002812D00C218F2002F05EFB0421D5
:100330008F2002F031FB3021902002F056FB30215B
:10034000902002F029FB4520707011E00C218F20D5
:1003500002F04BFB08218F2002F01EFB3021902081
:1003600002F043FB1021902002F016FB82207070F7
:10037000022301AA7221092001F099FF002801D16E
:10038000002013E180208DF80400272070709DF874
:10039000060000F0FD008DF80600ECE016F00807FE
:1003A00001AE4FD102F02AFC01206875A4208DF81F
:1003B000040000207070DFF87C0D00210170022322
:1003C00001AA7221092001F072FF002801D100204A
:1003D000ECE0A5208DF8040000207070DFF8580DC7
:1003E00000210170022301AA7221092001F05FFFA0
:1003F000002801D10020D9E0A7208DF804000020BA
:100400007070DFF8A80D00210170022301AA72218B
:10041000092001F04CFF002801D10020C6E0A920EE
:100420008DF8040000207070DFF8840D0021017049
:10043000022301AA7221092001F039FF002801D10D
:100440000020B3E081208DF80400FE2070700223AC
:1004500001AA7221092001F02AFF002801D1002001
:10046000A4E07078E8708E208DF80400287A0028C7
:1004700012D00C218F2002F0B8FA04218F2002F054
:100480008BFA3021902002F0B0FA3021902002F057
:1004900083FA4F20707011E00C218F2002F0A5FA32
:1004A00008218F2002F078FA3021902002F09DFA86
:1004B0002121902002F070FA84207070022301AA9A
:1004C0007221092001F0F3FE002801D100206DE027
:1004D000002F20D1B4F88A00B4F88C10401AE883B9
:1004E000B4F88A108900A98389B2FF2901D3FE21BB
:1004F000A98380B28100652902DB6420E88301E0E2
:100500008000E883A98BE88B0A1AEA8392B20FF283
:10051000A00001F056FEA6208DF80400287A0028DD
:100520000AD06021A32002F060FA4121A32002F04A
:1005300033FA5720707009E06021A32002F055FAC9
:100540004121A32002F028FA8B207070022301AA17
:100550007221092001F0ABFE002801D1002025E026
:1005600080208DF80400672070709DF8060040F030
:1005700002008DF80600022301AA7221092001F071
:1005800096FE002801D1002010E0AB208DF8040079
:100590009DF806008DF80500022301AA72210920AA
:1005A00001F085FE401E8041C043C00FBDE8F681CA
:1005B000233E6755703D25642C674C6F3D256400D4
:1005C00010B534220021DFF8900C02F0A1FEDFF814
:1005D000E4480120A07102F0A5FE02F02FFA0120EC
:1005E0002073DFF8EC0D0021017010BD10B582B052
:1005F0000FF25C0001F0E5FD0020ADF80000802066
:100600008DF8000000AC03206070022300AA722164
:10061000062001F04CFE002818D0DFF89808817AF7
:1006200000290DD08C218DF800100021617081709F
:10063000022300AA7221062001F039FE002805D00D
:10064000FFF7BEFF01210020FFF7C8FD13BD00002A
:10065000233E484C5300000010B582B00FF240001A
:1006600001F0AFFD0020ADF80000044600E0641C7E
:10067000052C12D2DFF85C0D215C8DF800102018DB
:10068000007A8DF80100022300AA7221072001F0F0
:100690000EFE0028EBD1002016BD012016BD000083
:1006A000233E50525000000030B583B00FF284005A
:1006B00001F087FD0020ADF804008DF80600DFF89A
:1006C000F447607180208DF8040001AD032068704C
:1006D000022301AA7221072001F0E9FD002801D1BF
:1006E00000203EBD8C208DF8040000206870A070B2
:1006F000022301AA7221072001F0D9FD002801D1AF
:1007000000203EBD0120607201460420FFF766FD17
:10071000002801D100203EBD012000900DF106030C
:10072000E5227221072001F01CFE401E8041C043DB
:10073000C00F3EBD233E50524F00000000B583B0B5
:100740000FF2600001F03DFD0020ADF806008DF8CD
:10075000040080208DF8060003208DF80700022396
:100760000DF106027221072001F0A1FD002801D140
:1007700000200EBDDFF83C07002141720420FFF786
:100780002DFD002801D100200EBD0120009001ABFD
:10079000E5227221072001F0E4FD401E8041C043A4
:1007A000C00F0EBD233E5052430000000120704791
:1007B00030B583B004460020ADF80400DFF8F456ED
:1007C000A87B00282CD1A87A002802D0287C207091
:1007D00031E0012000900DF10503932272210720E2
:1007E00001F0BFFD00280DD09DF80500800722D53F
:1007F0000120009001AB9C227221072001F0B1FD85
:10080000002801D100203EBD9DF80400697951FA0D
:1008100080F080B2400820709DF8040068710AE002
:10082000012808D1DFF8300A41696A79891849102E
:1008300021704069687101203EBD2DE9F04391B0FF
:10084000044602F001F8054601F039FC0646002096
:10085000ADF80800ADF80C008DF80A0001200090FA
:100860000DF10A0393227221072001F07AFD00287E
:1008700001D1002024E20220009003AB94227221D7
:10088000072001F06EFD002801D1002018E2DFF8FA
:1008900024769DF80D009DF80C1041EA0020DFF849
:1008A0000C1D4843F978C1F580713A79DFF8003DB5
:1008B000D25C12FB01F140F24232514390FBF1F065
:1008C000797B002902D0B97A002901D1B86208E009
:1008D000B86AF97D4A1CFA75062902D3002179739A
:1008E000F975397A00290CD141F6593188422DDB4E
:1008F00001213972F86200203876FFF777FE012077
:10090000DEE1F96A411A44F62162914215DA40F6B5
:10091000B831884218DA9DF80A20920614D53A7E3A
:10092000531C3B76C92A04D2BA7A002A0ED18842D7
:100930000CDA884201DA00213972F8620020387638
:10094000FFF754FE0120BBE1002038769DF80A0035
:10095000800640F1B4810020B873012000900DF1B1
:100960000A0393227221072001F0FBFC002801D129
:100970000020A5E19DF80A0080071BD5012000900A
:1009800003AB9C227221072001F0EBFC002801D16F
:10099000002095E19DF80C00797951FA80F080B241
:1009A000400860709DF80C00F8739DF80C00787199
:1009B00060783874387B002802D00020387371E1E9
:1009C000DFF8108D607888F80000B87900280AD028
:1009D00002F03EF8002806D1B87A002803D06078EB
:1009E00002F048F87AE0787A002839D0B87AB978F5
:1009F000084335D1002030758C208DF808000DF1AA
:100A00000809202089F80100B870022302AA722187
:100A1000072001F04CFC002801D1002050E1892082
:100A20008DF80800002089F80100022302AA722133
:100A3000072001F03CFC002801D1002040E18B2080
:100A40008DF80800B5F88A0089F80100022302AA8F
:100A50007221072001F02BFC002801D100202FE19A
:100A6000B87A00280ED105F18A004288B5F88A10BC
:100A70000FF2542001F0A5FB61780FF25C2001F029
:100A8000A0FB2BE0414684B06846182203F048F8EA
:100A90000FBC02F058FC04A802F0BBFCDFF8B49CC9
:100AA000484604A9342203F03BF899F81C000028BA
:100AB00007D034224946DFF8A00703F05CF8012094
:100AC000787009F11C00417D88F81410817D88F848
:100AD0001510007D002801D0FFF772FD787A0028FC
:100AE00000F0E080B87A002840F0DC806078B5F84B
:100AF0008A10884231D3307D00282ED10120F87130
:100B000020702078307589208DF808000DF10809D3
:100B100005F18A00408889F80100022302AA7221A7
:100B2000072001F0C4FB002801D10020C8E08B2081
:100B30008DF80800FF2089F80100022302AA722123
:100B4000072001F0B4FB002801D10020B8E0617853
:100B50000FF2901001F035FBA4E005F28A00418805
:100B60006278914231D3317D01292ED10120F87173
:100B7000002020702078307589208DF808000DF154
:100B80000809002089F80100022302AA7221072027
:100B900001F08DFB002801D1002091E08B208DF821
:100BA0000800B5F88A0089F80100022302AA722120
:100BB000072001F07CFB002801D1002080E0617853
:100BC0000FF2281001F0FDFA6CE0B5F88A10627897
:100BD000914235D3317D002932D1797C01292FD141
:100BE0000120F87100202070207830750020787482
:100BF00089208DF808000DF10809002089F801000E
:100C0000022302AA7221072001F051FB002801D122
:100C1000002055E08B208DF80800B5F88A0089F88F
:100C20000100022302AA7221072001F040FB0028E4
:100C300001D1002044E00FF2BC0001F0C2FA31E023
:100C40006178428891422DD3317D01292AD1797C66
:100C5000012927D10021797489218DF808100DF11F
:100C60000809408889F80100022302AA722107209E
:100C700001F01DFB002801D1002021E08B208DF820
:100C80000800FF2089F80100022302AA7221072030
:100C900001F00DFB002801D1002011E00FF25C00F3
:100CA00001F08FFA0120009003ABE52272210720AA
:100CB00001F057FB401E8041C043C00F00E0002000
:100CC00011B0BDE8F0830000233E55703D25642C33
:100CD0004C6F3D2564000000233E505241572025B3
:100CE00064000000233E503120256400233E503232
:100CF00020256400233E526554483100233E52654E
:100D0000544832002DE9F84304460D46694EB07C44
:100D1000002805D000F011FF0020F0743075C5E008
:100D200001F092FD804600273846ADF8000020789B
:100D3000072823D16078FF2820D12946601CFFF7BF
:100D400037FD6078B8F88A10884208D301202070F7
:100D5000627821780FF2601001F033FA0CE0B8F8F5
:100D60008C006178884207D33846207062782178F9
:100D70000FF2441001F025FA012097E00020F074F2
:100D8000307529462046FFF758FD00280DD0707AAF
:100D900000280AD0F079002807D00FF2301001F0B7
:100DA00010FA0020F07101203075B07A002877D059
:100DB000DFF84C8DD8F8189009F10C00417DC0681F
:100DC000D9F80C20801800F049FA002868D0DFF824
:100DD00000060078411E8941C90FF174707800281F
:100DE00001D000207070707A002857D0D9F80C001C
:100DF00040780DF1000989F80100B18B814218D2C9
:100E000001F05DF9007D002813D1707E401C7076E2
:100E1000C0B202282DD100207076012701F04FF9D1
:100E20003946017599F801100FF2A80001F0C9F9CF
:100E30001FE099F80100F18B884218D201F03FF9C8
:100E4000007D012813D1707E401C7076C0B202284C
:100E50000FD100207076012701F031F900210175D2
:100E600099F801100FF2780001F0ABF901E00020D1
:100E70007076002F12D0D8F81C8001F020F9007D88
:100E80008DF8000008F10C00427D00A9C068D8F878
:100E90000C30C01802F06FFE012030750020307059
:100EA00003F0F2FE00283FF469AF307DBDE8F28325
:100EB0008C890020A4880020233E536C6565702037
:100EC000414443202564202564000000233E505502
:100ED00050000000233E677570312025640000003B
:100EE000233E67757032202564000000F8B5074680
:100EF0000020ADF8000001F0A7FC0546DFF8104D1A
:100F0000012060743878A5F88A0005F28A0678789E
:100F10007080B5F88A00002802D07088002808D1B7
:100F20000FF2940001F04DF97820A5F88A00002016
:100F3000708089208DF8000000AF708878700223DF
:100F400000AA7221072001F0B2F900280DD08B20F1
:100F50008DF80000B5F88A007870022300AA72218B
:100F6000072001F0A4F9002801D10020F2BD728809
:100F7000B5F88A100FF2480001F023F9B5F88A009D
:100F80007188401AE083B5F88A108900A18389B27C
:100F9000FF2901D3FE21A18380B28100652902DBF4
:100FA0006420E08301E08000E083A08BE18B401AA5
:100FB000E0830120F2BD0000233E5054483D300044
:100FC000233E5448534554202564202564000000E6
:100FD00080B50FF21801072004F090FB0FF23001EA
:100FE0000A20BDE8044004F089BB0000590600084F
:100FF000A90600083D070008AD0700080000000032
:10100000050D0008ED0E00080000000000000000C3
:1010100059060008A90600083D070008AD070008AA
:1010200000000000B1070008ED0E000800000000FD
:101030000000000010B582B00FF2540001F0C1F8BA
:101040000020ADF80000FFF79FF8002803D10FF251
:10105000480001F0B6F8002400E0641C0B2C12D20A
:10106000DFF87C0D2118097B8DF80010205C8DF8CD
:101070000100022300AA7221062001F018F90028BD
:10108000EBD1002016BD03F033F8012016BD00009F
:10109000233E474550000000233E47504641494CFF
:1010A0000000000038B50FF2940001F08AF800202B
:1010B000ADF8000080208DF8000000AC03206070C7
:1010C000022300AA7221062001F0F1F8002801D1C4
:1010D000002032BD8C208DF8000000206070DFF809
:1010E000305BA870022300AA7221062001F0DFF80D
:1010F000002801D1002032BDA3208DF80000DFF8C8
:10110000E00CC0786070022300AA7221062001F072
:10111000CEF8002801D1002032BD0120A872FFF7CF
:101120004FFA01210820FFF759F8401E8041C043C3
:10113000C00F32BDD3510120D4510120233E474579
:101140004F00000010B582B00FF2680001F039F8CE
:101150000020ADF8000080208DF8000000AC0320D6
:101160006070022300AA7221062001F0A0F8002876
:1011700001D1002016BDDFF86C0C0021817208201F
:10118000FFF72CF8002801D1002016BD9F208DF814
:10119000000000206070022300AA7221062001F0E6
:1011A00086F8401E8041C043C00F16BDD5510120B6
:1011B000D6510120233E47454300000001207047DF
:1011C00030B58DB0DFF8485AA879002814D001F066
:1011D0003FFC002810D0DFF8FC44201D0FC801F0B0
:1011E00035FD01F03EFC002832D00020A87101201E
:1011F00060752075A0752BE0A879002828D1DFF84C
:10120000D444214684B06846182202F089FC0FBC01
:1012100002F0CCF800A802F0FCF8DFF838552846B8
:1012200000A9342202F07CFC05F11C00417D2175EF
:10123000817D6175007D002801D0FFF7C1F9287F0D
:10124000002805D034222946DFF8FC0C02F093FC7C
:1012500001200DB030BD0000204E012010B584B03B
:10126000044602A8002101600846ADF804000120F0
:10127000009001AB93227221062001F072F8002841
:1012800000F088809DF8040010F0040004D1DFF81D
:101290008019497800297DD0002806D0DFF8700930
:1012A0004178002901D101218173012000900DF1C5
:1012B0000503AE227221062001F053F8002869D000
:1012C0009DF80500002817D00420009002ABFC22F6
:1012D0007221062001F045F800285BD0DFF8F40306
:1012E0009DF80810416002A94A7882608A78C2603D
:1012F000C9780161FFF764FFDFF84C1C0A78DFF85A
:1013000010094378002B227007D000226270A2706F
:10131000E27022716271A2710BE04A6962708A699F
:10132000A2704A68E2708A682271CA6862710A69AA
:10133000A2710A6AE2714A6A22728A6A6272CA6A8F
:10134000A2724A7FE272DFF8042C12782273DFF86F
:10135000002C12786273DFF8FC2B1278A273DFF88E
:10136000F82B1278E273DFF8F42B12782274DFF88E
:10137000F02B12786274DFF8EC2B1278A274C27B27
:10138000E274002202700878042801D11046087027
:10139000012000E0002004B010BDDFF8480AC07C46
:1013A000704780B5052802D1084600F002F80120F8
:1013B00002BD80B5017841F04103DFF8AC1BCB7072
:1013C000027801780FF6C03000F0FBFE012002BD6C
:1013D000725501209C89002070B584B0044600201D
:1013E000019002A8002101600E460FF6B03000F017
:1013F000E8FE01210820FEF7F1FEA0208DF8040090
:1014000001AD30466870022301AA7221062000F067
:101410004EFF002801D13046C5E0A1208DF8040020
:10142000FF206870022301AA7221062000F03FFF0E
:10143000002801D13046B6E0AB208DF80400012031
:101440006870022301AA7221062000F030FF0028F4
:1014500001D13046A7E0012000900DF10603802263
:101460007221062000F07DFF002801D130469AE06D
:1014700080208DF804009DF8060040F0450068705B
:10148000022301AA7221062000F011FF002801D1D9
:10149000304688E0A3208DF80400DFF84409C078C6
:1014A0006870022301AA7221062000F000FF0028C4
:1014B00001D1304677E0012000900DF10703AF2203
:1014C0007221062000F04DFF002801D100206AE0C3
:1014D0009DF80700C0070BD50420009002ABFC224A
:1014E0007221062000F03DFF00280CD100205AE0B8
:1014F0003046461CB0F57A7FDDDB0FF6A82000F001
:1015000060FE00204FE09DF80800207002A841789E
:1015100061708178A170C078E070012000900DF1B9
:10152000060380227221062000F01BFF002801D153
:10153000002038E080208DF80400DFF8A808417A08
:10154000002905D09DF8060000F0BF0068700CE08F
:101550009DF8061001F0BB016970C07A002804D123
:101560009DF8060000F0BA006870022301AA7221FB
:10157000062000F09CFE002801D1002013E0AB20E3
:101580008DF8040000206870022301AA7221062051
:1015900000F08DFE002801D1002004E00021082089
:1015A000FEF71CFE012004B070BD0000D8D0010081
:1015B000402000080FF68C21062004F09FB81CB5CF
:1015C0000FF6EC1000F0FDFD00208DF80400ADF8E2
:1015D0000600044600E0641C052C13DADFF88C09D1
:1015E000215C8DF806102018007A8DF80700022380
:1015F0000DF106027221092000F059FE0028EAD1FF
:10160000002016BD0120009001ABD62272210620D9
:1016100000F0A7FE002801D1002016BD9DF804109F
:101620000FF6941000F0CDFDDFF8B8079DF8041018
:10163000C9098176012016BD30B583B0DFF8A44713
:10164000A07E002804D00FF6801000F0BAFD03E061
:101650000FF67C1000F0B5FD0020ADF804008020EE
:101660008DF8040001AD03206870022301AA7221E5
:10167000092000F01CFE002801D100203EBD8F2073
:101680008DF804000B206870022301AA7221092042
:1016900000F00DFE002801D100203EBD0320207186
:1016A0000120A075E07201460220FEF797FD002898
:1016B00001D100203EBD012000900DF10603E6227D
:1016C0007221092000F04DFE401E8041C043C00F32
:1016D0003EBD00004051012000B583B00FF6F80078
:1016E00000F06FFD0020ADF8060080208DF80600A8
:1016F00003208DF8070002230DF106027221092054
:1017000000F0D5FD002801D100200EBD0120009081
:1017100001AB8F227221092000F023FE002801D1A5
:1017200000200EBDDFF8BC060021C1720220FEF7CA
:1017300055FD002801D100200EBD0120009001AB15
:10174000E6227221092000F00CFE401E8041C043B9
:10175000C00F0EBD544E0120012070472DE9F0410D
:1017600084B004460020ADF804000290DFF8900336
:10177000456A002085F87600DFF86866B07D0128AC
:1017800003D0707D002840F090800220009001ABD3
:1017900094227221092000F0E4FD00282DD09DF84C
:1017A0000400A07101AF7878E0710220009001ABD5
:1017B00096227221092000F0D4FD00281DD09DF84A
:1017C00004002070787860700220009001AB9822AD
:1017D0007221092000F0C5FD00280ED09DF80400FC
:1017E000A0707878E0700220009001AB9A227221FC
:1017F000092000F0B6FD002801D1002097E09DF8F7
:101800000400207178786071F0782072307960720D
:101810006078217841EA0020E178A27842EA01214B
:101820006279237943EA0222E379A77947EA03231D
:1018300002AF009700F0CCF800281BD1B07D012842
:1018400034D10020B075DFF828075B21017000213A
:101850004170852181700021C170AE21017100218C
:101860004171702181710121C171EE21017200214C
:1018700041721BE00020B075DFF8F406217801709A
:1018800061784170A1788170E178C170217901712E
:1018900061794171A1798171E179C171217A017216
:1018A000617A41720298706238E037D0DFF8C00682
:1018B00001782170417861708178A170C178E17000
:1018C00001792171417961718179A171C179E171E8
:1018D000017A2172407A60720020707560782178F8
:1018E00041EA0020E178A27842EA01216279237975
:1018F00043EA0222E379A77947EA0323F77894F8C9
:1019000008C086F803C096F80480647A347102AC8B
:10191000009400F05DF8F77086F80480029840F6B5
:101920008451884202D1012085F87600012004B05C
:10193000BDE8F0811CB504460020ADF806008DF826
:1019400004000120009001AB8F227221092000F0D9
:1019500008FD002801D1002016BD9DF8040000F00C
:10196000FC008DF80400012C0AD0042C04D0102CAB
:101970001FD0402C22D026E040F001008DF804005A
:101980008F208DF806009DF804008DF80700DFF821
:1019900054449DF8040000F00300207102230DF16F
:1019A00006027221092000F082FC00280DD10020DF
:1019B00016BD40F002008DF80400E1E740F003009E
:1019C0008DF80400DCE7002016BD0120607316BD11
:1019D0002DE9F04105460E46174670193818C01A11
:1019E000401C441024B2002C00D50024DFF8F4136E
:1019F00008790FF24C62805CC978C1F5807110FBE8
:101A000001F240F6DC2C0CFB02F88902B1F5803FB4
:101A100001D34FF6FF71C9000A22B1FBF2F1102881
:101A20002DD18B422BD30120FFF784FF00283ED11C
:101A3000311B0698AC4206DA02682B1B4FF4B475D2
:101A400005FB03220260B44205DA02684FF47A73A0
:101A500003FB01210160BC4201DA016801600168F9
:101A6000002901D50021016040F2A641B8FBF1F147
:101A70000268B2FBF1F101600120BDE8F08110289D
:101A800007D1642B05D24020FFF754FF00280ED168
:101A9000CEE7402802D164398B4203D20128C7D156
:101AA000642BC5D21020FFF745FF0028C0D00020CE
:101AB000E3E70FF2B451092003F020BEC94988744E
:101AC0000120704710B5DFF8AC44202020700020C2
:101AD00060700A20A0700020E0700A2020710020B1
:101AE00060713220A0710020E07207222146DFF8E9
:101AF000880402F040F800206072012010BD000050
:101B00000060002000B583B000A800210A4606C08E
:101B10000722DFF860140DF1010002F02CF8A0207C
:101B20008DF80000082300AA7221072000F0BFFBF7
:101B3000401E8041C043C00F0EBD00B583B00020E1
:101B40008DF80400DFF82C04417B012903D100F05B
:101B5000AAF901200EBD418AFF290CD000290DD021
:101B6000C27A521CC272491E4182417AD2B291425B
:101B700001D20021C17200F014F805E0818A41828F
:101B80000021C17200F00DF80120009001ABE322AA
:101B90007221072000F0E5FB401E8041C043C00FCA
:101BA0000EBD38B50020ADF80000DFF8C843608AEC
:101BB000002801D1A07A60720722E07AC0EBC00051
:101BC000DFF8B4134118204601F0D5FFFFF79AFF64
:101BD00080208DF8000000AD81206870022300AAEB
:101BE0007221072000F063FB002801D1002032BDE4
:101BF000A7208DF80000208A6870022300AA7221B5
:101C0000072000F054FB401E8041C043C00F32BD8E
:101C1000A488002030B585B0044600208DF80C0063
:101C2000ADF80E006079029020790190E078009084
:101C3000A378627821780FF2A83000F0C2FA012070
:101C4000009003AB80227221072000F08AFB00285D
:101C500001D1002061E0C74D9DF80C0028720120E1
:101C6000009003AB8F227221072000F07AFB00283E
:101C700001D1002051E09DF80C00A87301200090D4
:101C800003AB90227221072000F06BFB002801D1EA
:101C9000002042E09DF80C00E87300F0A5F88F20CA
:101CA0008DF80E000DF10E050B20687002230DF16A
:101CB0000E027221072000F0FAFA002801D100205C
:101CC0002BE090208DF80E000120687002230DF1AA
:101CD0000E027221072000F0EAFA002801D100204C
:101CE0001BE0A64D8122FF21284601F011FB802236
:101CF0002146681C01F03FFF0020287081232A46FE
:101D00007221072000F0D3FA002805D10FF2E82055
:101D100000F057FA002000E0012005B030BD80B58A
:101D200001780F2904DA934A527A521C8A4205DA62
:101D30000FF2D02000F045FA002002BD4278202AA0
:101D400001D3202242700022C2704271C1EBC10156
:101D5000894A20238B54891800224A704278002A2D
:101D600001D1002201E05200521E8A7182788A70ED
:101D7000C278CA7002790A7140794871012002BDA7
:101D80007C48417A491C417281720120704738B504
:101D90000446784D6C82FFF795FE002C00D0AC8293
:101DA00021460FF2702000F00CFA012032BD71497B
:101DB00048730120704772490870012070477048CD
:101DC0000078704780B56B4908730A7B52000A821D
:101DD00001460FF2502000F0F4F9012002BD00008E
:101DE00024890020A488002000B583B00020ADF82D
:101DF00006008DF8040080208DF8060001208DF883
:101E0000070002230DF106027221072000F04FFAAD
:101E1000002801D100200EBD10200090594BA022B7
:101E20007221072000F09DFA002801D100200EBD8C
:101E30000120009001AB80227221072000F091FA6E
:101E4000401E8041C043C00F0EBD00B587B00020CA
:101E5000ADF8000001A8142103F04EFE80208DF89B
:101E6000000001208DF80100022300AA7221072042
:101E700000F01DFA002801D1002012E01022414993
:101E80000DF1050001F077FEA0208DF8040011236C
:101E900001AA7221072000F00AFA401E8041C043C7
:101EA000C00F07B000BD30B583B00020ADF804000E
:101EB0008DF806002F4C217A0FF2781000F081F98E
:101EC0000020FFF7FBFD002060736072FFF7BDFF8D
:101ED0008F208DF8040001ADA07B6870022301AA59
:101EE0007221072000F0E3F9002801D100203EBD57
:101EF00090208DF80400E07B6870022301AA722113
:101F0000072000F0D4F9002801D100203EBD802038
:101F10008DF80400207A6870022301AA722107203C
:101F200000F0C5F9002801D100203EBD012000903D
:101F30000DF10603E3227221072000F012FA401E81
:101F40008041C043C00F3EBD204E012060520120A1
:101F5000D3510120D4510120D5510120D651012067
:101F6000615201206252012024890020AC890020A6
:101F700054530120B8510120E84201201C3E0120A9
:101F80007155012074520120233E474520435520BE
:101F9000257820257820257800000000233E47532F
:101FA000454C4600233E4753544552520000000022
:101FB000233E4C4947500000233E4C4348495020A3
:101FC0003078257800000000233E3E4C49474F0002
:101FD000233E4C49474F0000233E4C4947430000F5
:101FE0004D4244202564202564202564202564205A
:101FF00025642025640000004D6F6265616D2057E7
:10200000460000004D6F6265616D20486F7020468C
:1020100061696C004D4220486F70436F756E74208B
:10202000256400004D6F6265616D204C656E3D2535
:10203000640000004D4220436C6F736520256400EE
:102040000104104035100008A510000845110008D3
:10205000BD110008000000009B13000800000000F4
:10206000D9130008A3130008BF150008391600088B
:10207000D916000859170008000000005D17000875
:10208000000000000000000000000000BFF34F8FC0
:10209000DFF81807016801F4E061DFF84027114319
:1020A0000160BFF34F8FFEE710B5DFF834474FF400
:1020B0008E720021204601F02BF9204610BDDFF87A
:1020C0002007704710B5FFF7EFFF044600231A46BC
:1020D0001146084600F06FFAC046C04601F062FDA6
:1020E000204600F019F801F0B4FF204600F0D0F9C6
:1020F000204600F015F8204600F01FF800F093F994
:1021000000206072A072E0722073012060730020D2
:10211000E075A073012010BD0021C171017231E092
:1021200010B50446DFF8880601F0E8FDDFF8B406D4
:1021300001F0E4FD0120607110BD10B5044601F00E
:1021400048FE0120A07110BD38B50446012501F0FC
:10215000F3FE012804D12846E0700020A0700AE0B8
:10216000022804D10020E0702846A07003E000207F
:10217000E070A0700546284632BD80B502F05AF8DE
:10218000012002BD10B50446E07902F091F9012169
:10219000217010BD70B504460025E679E171FFF7A6
:1021A000F1FF002807D02046FFF7BAFF2046FFF7CF
:1021B000C4FF012503E0E6712046FFF7E3FF284650
:1021C00070BD0EB470B5C1B0054600A84FF4807163
:1021D00003F092FCFFF773FF044645AB2A464FF429
:1021E000807100A803F098FC00A803F0B3FC451C24
:1021F00000A82818002100F8011CDFF8EC653078F1
:10220000401C30707078F021084202D0992003F011
:10221000C1FC03F02CFD7078401C7070207E2818E3
:10222000FF2810DA207E002803D0207E00190A2122
:1022300001762A4600A9207E0019193001F09BFC86
:10224000207E2818207600A803F079FF7078F0210E
:10225000084202D0992003F09DFC7078401E7070F7
:10226000C0B2002801D103F0FCFC04F056FB41B0E1
:1022700070BC5DF810FB0428DFF8380503D8DFF8E0
:10228000301501607047DFF85C1501607047DFF8BA
:10229000281551F82000007F002807D0DFF84C05F2
:1022A00001784A1C0270032900D3EFE670472DE93C
:1022B000F84305460E4617464FF00208DFF828455A
:1022C0006078F021084202D0992003F063FC03F00B
:1022D000CEFC6078401C60709DF80000401E8DF8B8
:1022E000000017F8019B2846FFF7C5FF00AB4A46E0
:1022F0003946304602F0F4F9002810D06078F02119
:10230000084202D0992003F045FC6078401E6070BE
:10231000C0B2002801D103F0A4FC01201FE05FFA45
:1023200088F8424629460FF2D040FFF74AFF404660
:10233000A0F101080028D9D16078F021084202D02C
:10234000992003F027FC6078401E6070C0B200281E
:1023500001D103F086FC2846FFF799FF0020BDE875
:10236000F2832DE9F04704460D4616461F460898AD
:10237000DFF8488488F80000DFF86C9499F80100D1
:10238000F021084202D0992003F004FC03F06FFC16
:1023900099F80100401C89F801002046FFF76BFF07
:1023A0004FF0020A434632463946284602F048FAC0
:1023B000002813D099F80100F021084202D099209A
:1023C00003F0E8FB99F80100401E89F80100C0B253
:1023D000002801D103F045FC012022E05FFA8AFACF
:1023E000524621460FF21C40FFF7EBFE5046A0F18B
:1023F000010A0028D6D199F80100F021084202D044
:10240000992003F0C7FB99F80100401E89F80100EC
:10241000C0B2002801D103F024FC2046FFF737FFAB
:102420000020BDE8F08703F083BAF8B50446022720
:102430000025DFF884630DE039464F1EC9B200293C
:102440000AD1002804D120690121A94088432061D4
:1024500002276D1C162D10DA56F82500806F0068D3
:1024600080470128E8D121690122AA401143216156
:1024700056F8251001220A77E3E72069032803D0E4
:10248000022801D0012802D140F480502061F1BD22
:1024900002F01EBB02F077BB81B00022ADF8022033
:1024A000ADF80020C079042808D0062809D00828F3
:1024B0000AD009280BD00A280CD00EE04FF4C860CF
:1024C0000DE04FF448600AE04FF4C85007E04FF4C5
:1024D000FA5004E042F2107001E041F27070ADF881
:1024E00002200DE0BDF80020521CADF80020BDF820
:1024F00000208242F6DBBDF80220521CADF802201B
:10250000BDF802208A4203D20022ADF80020EEE797
:1025100001B07047417230B589B004F019FB044630
:10252000FFF7CDFD054600A8242103F0E5FA0020C1
:10253000ADF8220001900A208DF8080000208DF8E7
:1025400009008DF80A00687A00280DD0002C18D0F8
:1025500000208DF80000052001900B208DF8080068
:1025600000A806F053FB0CE0002C0AD001208DF8E7
:102570000000052001900B208DF8080000A806F04F
:1025800045FB09B030BD02F01ABB02F022BB0121AD
:102590000846F8E701210846F7E702210120F2E7A3
:1025A00002210120F1E702F01FBB10B50446FFF73E
:1025B00086FD447510BD2DE9F843054617460E46C5
:1025C0004FF47A704FF03C0C4FF4616815FB08F43F
:1025D00016FB0C443C1900FB0434DFF8E4E19EF9DF
:1025E000009019FB08F89EF9019019FB0C8C9EF9DC
:1025F00002804CFA88FCBEF9038000FB0C809EF838
:1026000008C0BCF1000F20D141EA05001043184377
:1026100002D001208EF808008EF8005028460028CD
:1026200002D518308EF800008EF801108EF80220C6
:10263000AEF8033000933B4632469EF900100FF28D
:10264000F410FFF7BEFDBDE8F183A0420ED3A0EB6E
:10265000040CACF2D17CDFF89881C445DCD322466F
:1026600001460FF2AC10BDE8F843AAE5D4D2A4EBC2
:10267000000CACF2D178DFF87891C845CCD3634632
:10268000224601460FF2981001B0BDE8F04398E5EC
:1026900010B504002FD004F011FB4949CA68002A84
:1026A00000D0841AB1F80320A218A1F8032012B2B6
:1026B000B2F57A7F06DBA2F57A72A1F803208A7858
:1026C000521C8A7091F902203C2A04DB3C3A8A7041
:1026D0004A78521C4A7091F901203C2A04DB3C3AAA
:1026E0004A700A78521C0A7091F90020182A01DBFE
:1026F00000220A70C86010BD3149052201F000BAFD
:102700000FB410B52DED028B2E4C104606F0BCFB1D
:102710002D4A2E4B06F0D0FB206161619FED2C8B82
:10272000049806F0B1FB53EC182B06F0C5FB2060B3
:102730006160059806F0A8FB53EC182B06F0BCFB73
:10274000A060E1609DF81C00207604F118009DF85F
:102750001D1041709DF81E1081709DF81F10C170F2
:102760009DF820100171BDF8210000EE100AB8EEAE
:10277000400A10EE100A06F071FC174A1D4B06F0D5
:102780009BFB06F093FCC4F81D00BDF82300A4F8E1
:1027900021009DF8250084F82300BDEC028B10BCBD
:1027A0005DF814FB0749242201F0AAB90CED00E002
:1027B00000540040E8890020006000207555012089
:1027C000C4520120F44F0120FCA9F1D24D62503FC8
:1027D0008DEDB5A0F7C6B03E3BDF4F8D0400FA0586
:1027E000EC31012000580040D488002074550120AD
:1027F0005F4C2605976EA23F49574520256420254A
:102800006400000049524520256420256400000032
:1028100041542D53657454533120256420256400A0
:1028200041542D536574545332202564202564206F
:102830002564000041542D536574542025643A25C5
:10284000643A25642E25640000487047683C0120E6
:1028500000214FF0804200E092089042FCD3002A11
:1028600009D05318984203D3401A801A01EB420151
:1028700049089208F3E708467047002802D400F0A0
:102880007F0002E0404240F08000C0B2704700F09C
:102890007F01802800D349420846704730B404467F
:1028A0000D46A54200DA2C461546A54200DA2C4614
:1028B000A34200DA1C46204630BC704730B40446C0
:1028C0000D46AC4200DA2C461546AC4200DA2C46E6
:1028D0009C4200DA1C46204630BC70471849002252
:1028E0004A608A600861C860704770B50546144C3C
:1028F000A0682169626823689A4214DB91FBF3F6B1
:10290000266190FBF3F0FFF7A3FFA060072804DB2C
:102910002846FFF7E3FF002070BDE6602561002137
:102920006160A16070BD521C626069182161E1683C
:10293000491B01FB0100A060002070BD00000000E9
:102940003C8900200EB47FB5044608A80FC80C9D32
:1029500005FB00F6009605FB01F6019605FB03F664
:10296000039605FB02F00290204600A9102201F018
:10297000D7F804B070BC5DF810FB10B40C181C192B
:10298000101910BC70470A7822EA000008707047DE
:102990000A7810430870704730B583B004460D467E
:1029A0000020ADF806000120009001AB2246722104
:1029B0000720FFF7D6FC002801D100203EBD01A969
:1029C0002846FFF7E5FF8DF806409DF804008DF8D6
:1029D000070002230DF1060272210720FFF767FCB2
:1029E000401E8041C043C00F3EBD30B583B0044699
:1029F0000D460020ADF806000120009001AB2246F4
:102A000072210720FFF7ADFC002801D100203EBD58
:102A100001A92846FFF7B7FF8DF806409DF804008E
:102A20008DF8070002230DF1060272210720FFF73F
:102A30003EFC401E8041C043C00F3EBDDFF8C808C9
:102A400000210170C17008214170817000F00FBD3C
:102A5000DFF8B4080078032801D101207047002076
:102A60007047DFF8A4080078042801D101207047DE
:102A70000020704710B5DFF89048217800290FD169
:102A80000F219F20FFF7B1FF06219F20FFF784FF52
:102A9000012020700020E07020710120607210BDC4
:102AA000012952D1617A002954D1217900291CD100
:102AB000E17802290BD062785208824207D30120C4
:102AC000E07000F023F9002840F0978062E00129CF
:102AD00060D0A178490881425CD20220E07000F009
:102AE00038F9002840F0898054E001291ED1E178AE
:102AF00002290AD062785208824206D30120E0708F
:102B000000F08EF9002878D10BE0012909D0A178D6
:102B10004908814205D20220E07000F0A4F90028A3
:102B20006BD1E078012859D000202071022020705C
:102B30000020E0700F219F20FFF757FF09219F2001
:102B4000FFF72AFF0120607210BD022955D1617A7A
:102B5000002902D00020607210BD217900291ED109
:102B6000E17802290AD062785208824206D3012015
:102B7000E07000F010F900283FD10BE0012909D0E6
:102B8000A1784908814205D20220E07000F026F9C0
:102B9000002832D10020E0700120207110BD0129F1
:102BA00021D1E17802290AD062785208824206D304
:102BB0000120E07000F079F900281ED10BE0012916
:102BC00009D0A1784908814205D20220E07000F0C6
:102BD0008FF9002811D1E078012802D10020E0709F
:102BE00010BD002020710F219F20FFF7FEFE032063
:102BF00020700020E0700120607210BD38B5002008
:102C0000ADF80000DFF804472078FFF740FE9D2173
:102C10008DF8001000ADFFF730FE6870022300AAA7
:102C200072210720FFF743FB00280ED06078FFF7E2
:102C30002EFE9E218DF80010FFF71FFE6870022304
:102C400000AA72210720FFF732FB31BD3FB581B0EA
:102C5000DFF8B4462078032856D101A80FC8FFF743
:102C60001DFE054601A80FC8FFF728FE217900299F
:102C700020D1E17802290BD06278AA4208DB01203A
:102C8000E07001A80FC800F055F900283CD10CE015
:102C900001290AD0A178814207DA0220E07001A858
:102CA0000FC800F0C4F900282ED10020E0700120E8
:102CB000207129E0012923D1E17802290BD0627823
:102CC000AA4208DB0120E07001A80FC800F027FA33
:102CD000002819D10CE001290AD0A178814207DA35
:102CE0000220E07001A80FC800F095FA00280BD16F
:102CF00000202071E078012802D10020E07003E07C
:102D0000042020700020E07005B030BD10B582B006
:102D10000020ADF80000DFF8F4452078FFF7B7FD9C
:102D200010F17B0F01DA002016BD9D218DF80010F7
:102D3000001FFFF7A2FD8DF801002070022300AAFA
:102D400072210720FFF7B3FA401E8041C043C00F35
:102D500016BD10B582B00020ADF80000DFF8AC451C
:102D60002078FFF794FD7C2801DB002016BD9D2113
:102D70008DF80010001DFFF780FD8DF80100207018
:102D8000022300AA72210720FFF791FA401E80411A
:102D9000C043C00F16BD10B582B00020ADF80000D2
:102DA000DFF868456078FFF772FD10F17B0F01DAFC
:102DB000002016BD9E218DF80010001FFFF75DFD5D
:102DC0008DF801006070022300AA72210720FFF72E
:102DD0006EFA401E8041C043C00F16BD10B582B0D0
:102DE0000020ADF80000DFF824456078FFF74FFDC4
:102DF0007C2801DB002016BD9E218DF80010001DEF
:102E0000FFF73BFD8DF801006070022300AA7221DC
:102E10000720FFF74CFA401E8041C043C00F16BD8B
:102E200010B582B00020ADF80000DFF8E044207853
:102E3000FFF72DFD10F17F0F01D1002016BD9D2160
:102E40008DF80010401EFFF718FD8DF8010020706E
:102E5000022300AA72210720FFF729FA401E8041B1
:102E6000C043C00F16BD10B582B00020ADF8000001
:102E7000DFF898442078FFF70AFD7F2801D1002071
:102E800016BD9D218DF80010401CFFF7F6FC8DF853
:102E900001002070022300AA72210720FFF707FA21
:102EA000401E8041C043C00F16BD10B582B0002047
:102EB000ADF80000DFF854446078FFF7E8FC10F14B
:102EC0007F0F01D1002016BD9E218DF80010401EFD
:102ED000FFF7D3FC8DF801006070022300AA722175
:102EE0000720FFF7E4F9401E8041C043C00F16BD24
:102EF00010B582B00020ADF80000DFF81044607813
:102F0000FFF7C5FC7F2801D1002016BD9E218DF85A
:102F10000010401CFFF7B1FC8DF801006070022327
:102F200000AA72210720FFF7C2F9401E8041C0436A
:102F3000C00F16BD3FB581B000252846ADF8000092
:102F4000DFF8C44301986178884217DA6079FFF7A7
:102F50009EFC10F17A0F11DBA4218DF80010001FE8
:102F6000FFF78BFC00A948706071022300AA722150
:102F70000720FFF79CF9002853D0012502986178BB
:102F8000884217DAA079FFF782FC10F17A0F11DB83
:102F9000A5218DF80010001FFFF76FFC00A94870F5
:102FA000A071022300AA72210720FFF780F90028F0
:102FB00037D0012503986178884217DAE079FFF766
:102FC00066FC10F17A0F11DBA7218DF80010001FAD
:102FD000FFF753FC00A94870E071022300AA722198
:102FE0000720FFF764F900281BD0012504986178B9
:102FF000884219DA207AFFF74AFC10F17A0F13DBC6
:10300000A9218DF80010001FFFF737FC00A94870B8
:103010002072022300AA72210720FFF748F9002836
:1030200001D1002001E00125284605B030BD3FB5A3
:1030300081B000252846ADF80000B34CA078019976
:10304000884216DA6079FFF722FC7B2811DAA42186
:103050008DF80010001DFFF710FC00A9487060718A
:10306000022300AA72210720FFF721F9002850D07F
:103070000125A0780299884216DAA079FFF707FCAB
:103080007B2811DAA5218DF80010001DFFF7F5FB54
:1030900000A94870A071022300AA72210720FFF73F
:1030A00006F9002835D00125A0780399884216DA60
:1030B000E079FFF7ECFB7B2811DAA7218DF80010EF
:1030C000001DFFF7DAFB00A94870E071022300AA97
:1030D00072210720FFF7EBF800281AD00125A0780D
:1030E0000499884218DA207AFFF7D1FB7B2813DA9B
:1030F000A9218DF80010001DFFF7BFFB00A9487043
:103100002072022300AA72210720FFF7D0F80028BE
:1031100001D1002001E00125284605B030BD3FB5B2
:1031200081B000252846ADF80000774C0198617801
:10313000884217DA6079FFF7AAFB10F17F0F11D0F0
:10314000A4218DF80010401EFFF797FB00A94870DE
:103150006071022300AA72210720FFF7A8F8002857
:1031600053D0012502986178884217DAA079FFF7D9
:103170008EFB10F17F0F11D0A5218DF80010401E9D
:10318000FFF77BFB00A94870A071022300AA7221FF
:103190000720FFF78CF8002837D0012503986178C5
:1031A000884217DAE079FFF772FB10F17F0F11D038
:1031B000A7218DF80010401EFFF75FFB00A94870A3
:1031C000E071022300AA72210720FFF770F800289F
:1031D0001BD0012504986178884219DA207AFFF71C
:1031E00056FB10F17F0F13D0A9218DF80010401E5F
:1031F000FFF743FB00A948702072022300AA722146
:103200000720FFF754F8002801D1002001E0012534
:10321000284605B030BD3FB581B000252846ADF841
:103220000000394CA0780199884216DA6079FFF7DE
:103230002EFB7F2811D0A4218DF80010401CFFF731
:103240001CFB00A948706071022300AA72210720AC
:10325000FFF72DF8002850D00125A0780299884268
:1032600016DAA079FFF713FB7F2811D0A5218DF87E
:103270000010401CFFF701FB00A94870A071022359
:1032800000AA72210720FFF712F8002835D0012587
:10329000A0780399884216DAE079FFF7F8FA7F28D8
:1032A00011D0A7218DF80010401CFFF7E6FA00A905
:1032B0004870E071022300AA72210720FEF7F7FF91
:1032C00000281AD00125A0780499884218DA207ABB
:1032D000FFF7DDFA7F2813D0A9218DF80010401CDC
:1032E000FFF7CBFA00A948702072022300AA7221CE
:1032F0000720FEF7DCFF002801D1002001E00125B6
:10330000284605B030BD0000CE5101206152012099
:1033100010B5044610460A460146204605F00EFF49
:10332000204610BDDFF880070021C161DFF87C175F
:1033300000220A7701224A7700221046086381F8AA
:103340002000C87770470FB410B5DFF85C479DF8D0
:103350001D00411E8941C90F6177201D03A910225C
:1033600000F0DEFBDFF844079DF81E1041770021D6
:1033700080F8201001779DF80810002907D1217FDF
:103380004A1C227706290ED3012101770BE0002089
:103390002077607F00289DF8080002D100F030F906
:1033A00001E000F09DF810BC5DF814FB0FB438B5D7
:1033B000DFF8F4469DF82400411E8941C90FE177EA
:1033C000201D05A9102200F0ABFBDFF8E0569DF8A8
:1033D0002600687705A80FC8FFF770FA606168617A
:1033E000002085F820002877E07F002804D105A878
:1033F0000FC800F0AEF909E0A07F002805A80FC8AB
:1034000002D000F0DFF901E000F018FA31BC5DF8FD
:1034100014FBF0B50446DFF8985605F11C06DFF8FA
:103420008806C17F4A1E9241D20F7275407F411EAD
:103430008941C90FB175DFF87476387F307597F818
:1034400020002877284639461C2200F069FBB87F07
:10345000707005F12000DFF85C16102200F060FBB0
:10346000204629463422BDE8F04000F059BB10B593
:1034700082B00020ADF80000A0208DF8000000AC64
:1034800000206070DFF82C0600210174022300AADE
:1034900072210720FEF70BFF002801D1002016BD86
:1034A000A1208DF80000FF206070022300AA722185
:1034B0000720FEF7FCFE002801D1002016BD802168
:1034C000A320FFF769FA3C21A220FFF765FADFF895
:1034D000D80500218177DFF8D4050163012016BDEE
:1034E00010B50446DFF8C005807F0028204602D0D2
:1034F000BDE810400BE000F039F8DFF8B005C07F00
:10350000002803D12046BDE8104053E010BD10B59F
:10351000DFF89845E07F012827D1201DDFF89815B6
:10352000102200F0FDFA04202070A069C7280FD1F6
:10353000201D0FC8FFF7C2F9A17F814208DADFF82A
:103540007C05012101700FF28850FEF73AFE07E07A
:10355000DFF86805002101700FF28C50FEF731FE94
:10356000012084F820000020E07710BD10B5DFF8BE
:103570003C45E17F012909D100F0CBF8002802D0B9
:103580000420E07710BD0020E06210BD002909D1C1
:1035900000F0B6F8002802D00220E07710BD00202D
:1035A000E06210BDE06A411CE1620B2801DB0020F3
:1035B000E06210BD10B5044600F055F8204600F05A
:1035C0005DF8204600F065F8204600F06DF8DFF861
:1035D000D804416A01EB8102D100642291FBF2F12F
:1035E000826B436B9A4204DAC06A052290FBF2F0C8
:1035F00003E0806A142290FBF2F0BDE8104091E0F5
:1036000038B5044600F014F8204600F01AF8DFF848
:103610009854686A00EB8001C800642190FBF1F1C6
:1036200004EB8400400000F07DF80120687731BD94
:10363000DFF874144FF4FA620A62C8224A62FFF794
:103640004DB9DFF86414C82212FB00F28A623222FC
:1036500012FB00F2CA6200EB800252000A63486368
:103660008863C863704710B50146DFF83C4404F135
:1036700030020A2000F025F8E06310BD10B50146C5
:10368000DFF8244404F12C02322000F01AF8A06381
:1036900010BD10B50146DFF8104404F12802C8201F
:1036A00000F00FF8606310BD10B5FFF71EF964213C
:1036B00001FB00F4002C02D0204600F013F8204655
:1036C00010BD10B400EBD0735B101468091900FB37
:1036D0000131441C91FBF4F11160591891FBF0F099
:1036E00010BC704710B50146C82900DAC821DFF8C0
:1036F000B84304F120020A20FFF7E3FF606210BD27
:10370000DFF8A813496A814201DA012070470020DE
:103710007047DFF89813896A884201DA0120704700
:103720000020704740F2DD52904201DB40F2DC5055
:103730000A2901DA0A2102E0652900DB6421081860
:10374000401D0A2190FBF1F0C0B2D849486288625E
:10375000704780B500F004F8D3480121C17701BD5E
:103760000FB587B0C820019007A883B069460CC880
:103770000CC10CC80CC10EBC02A8FFF7E3F8D0487E
:1037800002A9102200F0CCF90A20019007A883B00A
:1037900069460CC80CC10CC80CC10EBC02A8FFF7CE
:1037A000D1F8C84802A9102200F0BAF9C64807A902
:1037B000102200F0B5F9C54807A9102200F0B0F9B1
:1037C0000BB000BD00BF1FB5B84CE07F002802D091
:1037D00001280ED01FBD0020A061201D00A91022CD
:1037E00000F09EF902202070012084F82000E0778C
:1037F0001FBD201D00A9102200F092F901202070A9
:10380000A069401CA061C72807D10121AB20FFF7A8
:10381000ECF80021AB20FFF7BFF8A069C82809DB4E
:103820000020A0610121AB20FFF7DFF80021AB20D1
:10383000FFF7B2F8012084F820001FBD1FB59B4C94
:10384000E07F002803D0012084F8200003E000A8D6
:103850000FC800F037F800A80FC800F00AF8607F22
:10386000002805D0206B292802DBBDE81F40D8E0E6
:103870001FBD1FB58D4CE07F012804D002280DD05C
:10388000042817D01FBD201D00A9102200F048F900
:1038900001202070A069401CA0611FBD0020A06114
:1038A000201D00A9102200F03BF902202070012009
:1038B000E0771FBD042020700020E077012084F80D
:1038C00020001FBDFFB585B07848016B491C01631E
:1038D00005A883B069460CC80CC10CC80CC10EBC4D
:1038E00001A800F025F805A883B069460CC80CC1F2
:1038F0000CC80CC10EBC01A800F040F8734C94E851
:103900000F00FFF73AF805466A4E6F4F97E80F0031
:10391000FFF733F88542304604DA2146102200F0E2
:10392000FFF803E03946102200F0FAF809B0F0BDC4
:103930000EB430B588B004460BAD0BA80FC885E8AF
:103940000F005F4802900BA882B069460CC80CC1FA
:103950000CC80CC10CBCC82103A800F035F85A4DA6
:10396000284603A9102200F0DBF820462946102241
:1039700000F0D6F808B030BC5DF810FB0EB430B5DE
:1039800088B004460BAD0BA80FC885E80F004D4862
:1039900002900BA882B069460CC80CC10CC80CC1BF
:1039A0000CBC0A2103A800F00FF8484D284603A9D3
:1039B000102200F0B5F820462946102200F0B0F899
:1039C00008B030BC5DF810FB0CB47FB504460D4662
:1039D00008AE08A80FC886E80F000C9E32460146C4
:1039E0002846FFF76EFE0090321D09992846FFF722
:1039F00068FE019006F10C020B992846FFF761FE64
:103A0000039006F108020A992846FFF75AFE029031
:103A1000204600A9102200F083F804B070BC5DF8C5
:103A20000CFB70B582B00020ADF80000214C94E88A
:103A30000F00FEF743FF401D1C4DFF2802DDFF2055
:103A4000A87700E0A877A0208DF8000000AE686A93
:103A5000707070782074022300AA72210720FEF78C
:103A600026FC002801D1002076BDA1208DF80000A1
:103A7000A87F7070022300AA72210720FEF717FCAE
:103A8000002801D1002076BD8021A320FEF7ADFFE4
:103A90003C21A220FEF7A9FF0348012181770020E5
:103AA0002863084676BD0000284C0120884E01207E
:103AB000BC4E0120505201202C4C01207255012097
:103AC00084520120A452012094520120B4520120BA
:103AD000233E445F6C6F6E675F67657374757265D4
:103AE000203A202564000000233E525F6C6F6E6711
:103AF0005F67657374757265203A20256400000065
:103B000062B38B0708D0521E11F8013B00F8013B4D
:103B100000F024808B07F6D1830740F0208000BF9F
:103B2000103A07D330B4B1E83810103AA0E8381092
:103B3000F9D230BC530724BFB1E80810A0E8081040
:103B400044BF51F8043B40F8043BD20724BF31F88E
:103B5000022B20F8022B44BF0B7803707047083A01
:103B600007D3B1E80810083A40F8043B40F804CB0A
:103B7000F7D25307E4E710B50446FFF7C1FF20462C
:103B800010BD50F8041B61B150F8042BD30744BF9B
:103B9000A9F101039A18002342F8043B091FFAD146
:103BA000EFE7704730B583B00121032005F05EFBDD
:103BB000DFF8804C204605F0F5FBDFF87C5C2846FA
:103BC00005F0F0FB01208DF8040000208DF80500C1
:103BD00001208DF8060000208DF8070001212846FD
:103BE0000183C0460120009000A9284605F036FC5C
:103BF000022128460183C0460220009000A92846E1
:103C000005F02CFC01208DF8040000208DF8050043
:103C1000ADF806004FF48070009000A9284605F02A
:103C20001DFC4FF4807128464183C04601208DF869
:103C3000040000208DF8050001208DF8060000200A
:103C40008DF807004FF48050009000A9204605F041
:103C500005FC4FF4805120464183C04604220621D2
:103C6000284605F049FC04220721284605F044FCBB
:103C700002208DF8040001208DF805008DF8060063
:103C800000208DF807004020009000A9284605F08C
:103C9000E5FB8020009000A9284605F0DFFB042208
:103CA0000A21284605F028FC09220321284605F0B0
:103CB00023FC02208DF8040001208DF805008DF80A
:103CC000060000208DF807004FF48060009000A9E6
:103CD000284605F0C3FB0820009000A9284605F0FF
:103CE000BDFB286820F0300040F0100028602068FC
:103CF00020F0300040F01000206037BD1FB5DFF825
:103D00003C4BA04230D101214FF4001005F0B9FA2C
:103D10000121022005F0AAFA01214FF4001005F05C
:103D2000D1FA00214FF4001005F0CCFA0020ADF8D4
:103D300004004BF6FF70ADF806004FF48060ADF85C
:103D40000A004FF48040ADF80C000A20ADF80800DE
:103D5000DFF8CC0C009000A9204605F010FC0121F2
:103D6000204605F06FFC1FBDDFF8B84CA0422FD1F4
:103D700001214FF4800005F084FA0121022005F0B2
:103D800075FA01214FF4800005F09CFA00214FF4F0
:103D9000800005F097FA0020ADF804004BF6FF70A4
:103DA000ADF806004FF48060ADF80A004FF4804093
:103DB000ADF80C000A20ADF80800DFF8640C0090A4
:103DC00000A9204605F0DBFB0121204605F03AFC66
:103DD0001FBD2DE9F04192B001214FF4805005F054
:103DE0005BFA0121084605F041FA01214FF48000F9
:103DF00005F03CFADFF83C4A05221146204605F062
:103E00007BFB05220721204605F076FB05220621D3
:103E1000204605F071FB05220421204605F06CFBCD
:103E200002208DF8040001208DF805000020ADF877
:103E300006002020009000A9204605F00FFB8020FE
:103E4000009000A9204605F009FB4020009000A941
:103E5000204605F003FB1020009000A9204605F045
:103E6000FDFADFF8C44B204605F04EFCDFF8BC5BE2
:103E70000020288068600120288100206881E86097
:103E80000720288200206880DFF8A46B304605F008
:103E9000ABFCDFF8A07B384605F0A6FC4FF4806051
:103EA000069000210D9103210E9100210F910A919E
:103EB0000890DFF8180C03900846109009900790BE
:103EC0004FF400300C9008460B904FF0C068CDF8CE
:103ED0000880402005900846049002A9304605F06D
:103EE00007FD00200B90CDF80880059005F1140027
:103EF000049002A9384605F0FBFC002068802946A2
:103F0000204605F030FC01220221204605F05AFC33
:103F100001221146204605F055FC0121204605F0FE
:103F200045FC0021304605F00AFD0021384605F029
:103F300006FD12B0BDE8F08130B589B001214FF027
:103F4000805005F09EF9012005F062FD01214FF43B
:103F5000802005F08BF90F2005F00AFF04461020A1
:103F600005F006FF0546012005F07DF9002005F06B
:103F70007AF921460F2005F0EEFE2946102005F0C3
:103F8000EAFE00214FF4802005F070F9012005F0D1
:103F900009F9412005F0B7F90028FAD04FF48070F4
:103FA00005F04BF9012005F05BF905F084FD3F2099
:103FB000069040F2FF1007900020059005A805F03C
:103FC00031FD0020029002A905F096FD00208DF839
:103FD000070001208DF804008DF805008DF806001B
:103FE00001A9002005F001FE4FF4800005F0A0FFBC
:103FF0004FF48000039000208DF8100008208DF809
:10400000110001208DF8120003A805F04FFF0320D6
:104010008DF800000D208DF8010000208DF80200C1
:1040200001208DF8030000A805F08FFF032005F0A4
:1040300050FE4FF4804005F006FF4FF4800005F07D
:1040400077FF01214FF4804005F0C3FE012009B045
:1040500030BD10B586B00121084605F007F90121F1
:104060004FF4804005F018F900208DF810008DF80D
:10407000130001200390DFF8BC4703A9204605F098
:10408000EDF90420039003A9204605F0E7F900218B
:10409000084605F093FF0221002005F08FFF002065
:1040A0008DF8080001208DF80A0001900C208DF891
:1040B000090001A805F0FAFE042001900C208DF8FB
:1040C000090001A805F0F2FE042005F031FF2820C8
:1040D0008DF800000F208DF8010000208DF80200FF
:1040E00001208DF8030000A805F02FFF06B010BDD9
:1040F00010B586B00121084605F0B8F801214FF44B
:10410000804005F0C9F800208DF810008DF81300EC
:104110004FF40064039403A9DFF8180705F09EF933
:104120000B21002005F04AFF00208DF80800012037
:104130008DF80A0001940C208DF8090001A805F003
:10414000B5FE204605F0F4FE28208DF800000F2073
:104150008DF8010000208DF8020001208DF8030089
:1041600000A805F0F2FE06B010BD30B58DB00446D3
:1041700001214FF4807005F08FF800A805F0A8F930
:104180000A20009003208DF8040000208DF807001D
:1041900000A9DFF8A00605F061F905F023FF02A8E9
:1041A00005F065FF4FF48030039002A805F051FF41
:1041B00006A805F044FFDFF8DC5A06A9284605F0FA
:1041C0001EFF072301222146284605F061FF012139
:1041D000284605F0A2FF0121284605F04EFF0DB04C
:1041E00030BD38B5DFF8AC4A204605F091FF4FF4FA
:1041F0007A750221204605F0A7FF002803D1284642
:10420000451E0128F5DA2046BDE8324005F090BF92
:1042100080B50021DFF87C0A05F02FFF00214FF464
:104220008070BDE8044005F037B8DFF8280B00685F
:104230007047000038B5040040D0012005F0E8FBCD
:10424000002005F060FD4FF40055042005F0DCFD72
:10425000012804D12846451E80B20028F5D100EE81
:10426000104AB8EE400ADFED800A80EE800AF0EED8
:10427000000A20EE200ADFED7D0A80EE800ABDEE06
:10428000C00A10EE100A401E80B205F032FD4FF455
:10429000804005F0D8FD4FF4800005F049FE012074
:1042A00005F031FDDFF8AC0A012181600460214690
:1042B0000FF22000BDE83440FDF783BFDFF8940A19
:1042C00000210160012005F0A3FB0020BDE8324081
:1042D00005F019BD536574525443203D20256400F8
:1042E00030B4014601200023DFF86C2A1C4694609C
:1042F000946814F00C0FFBD10C460B2C55D8DFE85A
:1043000004F02054545406192031383F464D946827
:1043100044F080049460DFF8444A4FF4C06525609F
:10432000146824F080741460DFF8B44ADFF8305A5F
:1043300025603BE00346DFF8A84ADFF8A85A25606D
:1043400034E094689460DFF8144A4FF4C065256047
:10435000146824F080741460DFF8844ADFF8885A07
:10436000256023E00223DFF8784ADFF8805A2560D1
:104370001CE00323DFF8684ADFF8745A256015E073
:104380000423DFF85C4ADFF8C45A25600EE00523F9
:10439000DFF84C4ADFF8B85A256007E00623DFF85B
:1043A000404ADFF8B05A256000E01846002B4AD09A
:1043B00003EBC3030FF2B8041B19946894601468EC
:1043C00024F080741460146824F0806414609C7875
:1043D0001D8844EA8514DD786D086D1E44EA0544A5
:1043E0001D7944EA05645460DC881D7A2D0745EA8E
:1043F0008414DFF8C05A2C60146844F08074146090
:104400001468A401FCD55B7943F4C063DFF84C4920
:1044100023609368936093689360052904D1916841
:1044200041F09001916005E00A2903D1916841F4BF
:1044300080519160916841F002019160916801F0B2
:104440000C010829FAD1DFF898190968DFF8682A01
:10445000914207D2DFF8F41A0A6822F4404242F48B
:1044600080420A6030BC704700007A440000004778
:10447000200110040F03020103F00010060F0102D7
:104480000103C00010080F01020103C00010060F55
:1044900001020103F00010060F01020103C8001021
:1044A000040F02020103A80010020F03020103001F
:1044B00016E7002800E0401EFDD170477CB50726B6
:1044C000DE4988426BD101208DF804008DF805008B
:1044D0008DF8060000208DF8070040200090DFF8DE
:1044E0008C5A00A9284604F0B9FF8020009000A94A
:1044F000284604F0B3FF402128464183C0460F20E0
:10450000FFF7D7FF402128460183C0460F20FFF761
:10451000D0FF3046461E80B20028ECD180200090AB
:1045200000A9284604F09AFF402128464183C0464E
:104530000520FFF7BEFF802128460183C0460520E5
:10454000FFF7B7FF402128460183C0460A20FFF746
:10455000B0FF402128464183C0460520FFF7A9FF50
:10456000802128464183C0460520FFF7A2FF022094
:104570008DF8040001208DF805008DF8060000205C
:104580008DF807004020009000A9284604F066FF3F
:104590008020009000A9284604F060FF73BDDFF87A
:1045A000841488426AD101208DF804008DF805003A
:1045B0008DF8060000208DF807004FF48064009409
:1045C000DFF8A85900A9284604F048FF0820009009
:1045D00000A9284604F042FF214628464183C046F0
:1045E0000A20FFF766FF214628460183C0460A20BD
:1045F000FFF75FFF3046461E80B20028ECD108204E
:10460000009000A9284604F029FF2146284641834E
:10461000C0460520FFF74DFF082128460183C0460C
:104620000520FFF746FF214628460183C0460A20A1
:10463000FFF73FFF214628464183C0460520FFF78C
:1046400038FF082128464183C0460520FFF731FF87
:1046500002208DF8040001208DF805008DF8060079
:1046600000208DF80700009400A9284604F0F6FE0B
:104670000820009000A9284604F0F0FE73BD10B594
:10468000DFF8EC480121206805F015F8206804F0F7
:1046900047FF2068FFF732FB05E02068FFF70EFFB9
:1046A0002068FFF72BFB4FF40031206805F00EF86F
:1046B0000028F2D110BD30B40022838A008BDFF8CD
:1046C000B048656843EA00400840000255EA1020FF
:1046D00060600840884200D10122104630BC70471B
:1046E0002DE9F84F04460D4616464FF420491F7831
:1046F000DFF87C884FF40031D8F8000004F0E6FFC2
:10470000002808D04846A0F101090028F2D1FFF79F
:10471000B6FF00208CE0D8F8000001884FF6FF5269
:10472000114001800121D8F8000004F097FF4FF4F8
:10473000805AD1460020C8F80400D8F800B0DFF84D
:1047400034185846FFF7B7FF002805D14846A0F1B6
:1047500001090028F1D163E0D146002221465846E4
:1047600004F094FF0020C8F80400D8F80040DFF8F7
:1047700008182046FFF79FFF002805D14846A0F102
:1047800001090028F1D14BE03146C9B2204601822F
:10479000C046D1460020C8F80400D8F80040DFF831
:1047A000DC172046FFF787FF002805D14846A0F117
:1047B00001090028F1D133E0012F15D129782046D5
:1047C0000182C046D1460020C8F80400DFF8B017C7
:1047D000D8F80000FFF76FFF002823D14846A0F16A
:1047E00001090028F2D11BE03846471EC0B200285C
:1047F00018D015F8011BD8F800000182C046D14638
:104800000020C8F80400DFF87817D8F80000FFF798
:1048100052FF0028E8D14846A0F101090028F2D152
:10482000002005E00121D8F8000004F023FF01205A
:10483000BDE8F28F00000240000402400054004036
:104840002DE9F54F81B00D461E464FF420483778CC
:10485000DFF81C474FF40031206804F037FF0028D0
:1048600008D04046A0F101080028F3D1FFF707FF68
:104870000020D3E0206801884FF6FF5211400180EC
:104880000121206804F0EAFE4FF48059C846002058
:104890006060DFF8E0A6D4F800B051465846FFF754
:1048A0000AFF002805D14046A0F101080028F2D1F6
:1048B00091E000229DF80410584604F0E7FEC84637
:1048C00000206060D4F800B0DFF8AC165846FFF75F
:1048D000F2FE002805D14046A0F101080028F1D1E0
:1048E00079E0BDF80810C9B258460182C046C846F2
:1048F000DFF89016206804F0E9FE002805D1404654
:10490000A0F101080028F3D165E00121206804F03E
:10491000A5FEC84600206060D4F800B05146584655
:10492000FFF7C9FE002805D14046A0F10108002884
:10493000F2D150E001229DF80410584604F0A6FE82
:10494000022FC84639D2DFF84016206804F0BEFEB8
:10495000002805D14046A0F101080028F3D13AE033
:104960000021206804F09BFE2068018B012104F0E7
:1049700081FEC846DFF81416206804F0A7FE002860
:1049800005D14046A0F101080028F3D123E02068BA
:10499000008AC0B228703078401E3070C846206847
:1049A0000188890505D54046A0F101080028F6D107
:1049B00011E0012104F073FE2BE000206060DFF8BD
:1049C000D0152068FFF777FE002806D14046A0F1F9
:1049D00001080028F3D1002020E0012616E0012F75
:1049E0000CD1012E0AD100263146206804F057FE72
:1049F0002068818A018B012104F03CFE2068818AB5
:104A0000490603D5008A05F8010B7F1EFFB2002F6F
:104A1000E5D10121206804F042FE0120BDE8FE8FAF
:104A2000801A06000058004000300140D04F01209D
:104A30008864024010640240DFF8580501680829C4
:104A400033D1DFF814130A6842F080720A604268BA
:104A5000B2F1806F03D10A6842F080620A600A688E
:104A60009201FCD58A6842F002028A608A6802F0EC
:104A70000C02082AFAD14268B2F1806F02D10A68AA
:104A80001201FCD5DFF858130968DFF82C24914295
:104A900007D2DFF8B8140A6822F4404242F4804298
:104AA0000A6000210160416070474168B1F1806F88
:104AB00009D1A9490A6842F080620A600A681201B5
:104AC000FCD5002141607047000000000C3001401F
:104AD000DFF8C404016841F080510160DFF86C0424
:104AE00001688908890041F001010160DFF8AC0428
:104AF0000FF205014160704738B5DFF8A444208803
:104B000040F004002080FDF7DAFA807A012803D112
:104B1000012004F080FF02E0002004F07CFFDFF8B9
:104B200084548021DFF8800404F056FE002818D158
:104B300072B68948DFF85C14826802F00C020A60E1
:104B4000006800F080604860286840F00400286039
:104B500030BF62B6286820F004002860FFF76CFFC1
:104B60000CE0608840F004006080286820F00400B9
:104B7000286030BF286840F004002860608840F05A
:104B80000400608031BDDFF8140440680047DFF89E
:104B90001C14012806D010D3032809D005D30428FB
:104BA00009D00AE0DFF8C41307E0DFF8041404E0DA
:104BB000DFF8001401E0DFF800140846704710B574
:104BC0000C46FFF7E4FF214689B2BDE8104004F02F
:104BD0008FBC10B50C46FFF7DAFF214689B2BDE85D
:104BE000104004F087BC0000E0B500238DF80830C9
:104BF00001238DF80A30002A03D10C228DF80920F8
:104C000002E008228DF8092004283CD8DFE800F0F3
:104C1000030D192222004FF40060019028208DF826
:104C200000000F208DF801001CE0184601901020B4
:104C30008DF8090006208DF800000E208DF8010087
:104C400010E00220019007208DF800000F208DF861
:104C5000010007E00420019008208DF800000F20DB
:104C60008DF8010000208DF80200012903D11846BB
:104C70008DF8030001E08DF8030001A805F016F996
:104C800000A805F062F907BD4FF40061C74804F0C1
:104C900028BC00000020014010B5044601214FF45B
:104CA000802004F0E3FA2146102005F054F800219A
:104CB0004FF48020BDE8104004F0D8BA10B50121AF
:104CC0004FF4802004F0D2FA102005F051F8044689
:104CD00000214FF4802004F0C9FA7B2004F013FB7C
:104CE000002802D09AA0FDF76CFA7A2004F00BFBA2
:104CF000002802D097A0FDF764FA792004F003FBA6
:104D0000002802D094A0FDF75CFA7C2004F0FBFAA6
:104D1000002802D091A0FDF754FA7D2004F0F3FAA8
:104D2000002802D08EA0FDF74CFA7E2004F0EBFAAA
:104D3000002802D08BA0FDF744FA7F2004F0E3FAAC
:104D4000002802D088A0FDF73CFA04F0F2FA2046D1
:104D5000C0B210BD6053012000380240003C024048
:104D600000127A003EB50C4615460422014602A800
:104D7000FEF701FF0422214601A8FEF7FCFE0422F3
:104D8000294600A8FEF7F7FE02A9002004F0B4FEB1
:104D900001A9002004F029FF04F022FF0446874AFD
:104DA000002300981946101A63EB0101490241EAF9
:104DB000D051400205F0F2F90090844205D2011B67
:104DC0004FF0004004F0E1FF37BDA04207D2C4F528
:104DD0000070009909184FF0004004F0D6FF37BD6D
:104DE00088890020809698000024F40000366E0127
:104DF0000048E8012DE9704384B004460D4616468C
:104E000002A9002004F0C7FE01A9002004F03DFF24
:104E100004F0E6FE0090694AA2FB00894FEA582898
:104E200048EAC958A2EB08000090042202A92046D3
:104E3000FEF7A1FE042201A92846FEF79CFE0422EB
:104E400000A93046FEF797FEBDE87F83005A620254
:104E500080F0FA0200BD0105F0B4049C059D8E1E91
:104E6000012E01DA0C36401E3C216427B0FBF7F717
:104E7000C7EB90074FF4C87CB0FBFCFC674440F2E2
:104E80006F1C0CFB06F64FF00C0CB6FBFCF6F6198B
:104E9000921940F26D1606FB0020494A101800EBEB
:104EA000400203EBC20001FB004001FB0050F0BCDC
:104EB0007047000084380240018793031CB50C46FC
:104EC00001680191416800918368C2680169491CC9
:104ED000406900F26C70FFF7BFFF2060002016BD34
:104EE00010B58EB037480068C405E40D01A9002054
:104EF00004F051FE00A9002004F0C7FE9DF8040054
:104F000006909DF8050005909DF8060004909DF818
:104F10000100401E08909DF8020007909DF80300D4
:104F20006430099002A904A8FFF7C8FF4FF47A7013
:104F300010FB04F0400AC0F57A700390029A4FF417
:104F40007A73C117E3FB02010EB010BD0070004080
:104F5000504F520050494E00424F520053465400A9
:104F600049574400575744004C5057000004024032
:104F7000E88900200100030082000700800007008C
:104F80008400070004000010020000104000001020
:104F9000020003006C54012040380240605301209D
:104FA0001800024010ED00E0003001400000024017
:104FB00000080240000C02400010024000CA9A3B68
:104FC0007505F5FF282800405060026041600860C8
:104FD00070470A68F8E748600160704701684068F8
:104FE000F9E7F8B50600DFF8A45902D505F1580035
:104FF000F2BD05F158040020296F00E0096805F1B1
:105000007002914204D00C46A2689642F6D101206B
:10501000002840D1A86FD0F88070182005F036F92C
:105020000446A660002F05D0B74203D2B6FBF7F0C6
:10503000784300E03046E060002F02D0B74200D253
:105040003E46266100202075DFF844693078401C18
:1050500030707078F021084202D0992000F09AFD5B
:1050600000F005FE7078401C707005F1700120465C
:10507000FFF7AFFF7078F021084202D0992000F0CE
:1050800089FD7078401E7070C0B2002801D100F018
:10509000E8FD01F042FC2046F2BD38B5044694F923
:1050A0001400002829D1DFF8E8582878401C28701F
:1050B0006878F021084202D0992000F06BFD00F0E2
:1050C000D6FD6878401C68702046FFF787FF2046B1
:1050D00005F0F4F86878F021084202D0992000F039
:1050E00059FD6878401E6870C0B2002801D100F0F8
:1050F000B8FDBDE8314001F010BC31BD1CB50C4617
:1051000011461A0006D0A1688164E168C164216972
:10511000016507E0002905D1A1684165E168816565
:105120002169C16521690191E1680091A36890F945
:1051300008100FF66400FDF744F813BD2DE9F047A1
:1051400005460E4610461F46089C6FF00048FFF7C4
:1051500048FF814696F9050096F90410814215D161
:10516000C01C800005F092F8824696F905000128DF
:1051700007DB820031685046FEF7FDFC306805F021
:105180009DF8C6F800A07079C01C707196F90400F3
:10519000411C3171316841F82090DFF8F8078145F2
:1051A00004D099F81400401C89F81400002008E08D
:1051B000316851F820108A68904501DB9046B16053
:1051C000401C96F904108842F2DB23463A46B16847
:1051D0002846BDE8F04791E72DE9F04705460E4621
:1051E0001F46089C6FF0004CDFF8A01701F158082B
:1051F00001F158004FF0FF334FF0000E05E0CC45B1
:1052000001DBCC46D0460EF1010E96F90490CE4556
:105210000DDAD6F8009059F82EA0DAF80890002B95
:10522000EDD59145EBD1504673465BB2EBE7002BD1
:1052300013D4B9F1010F10DB07E0326802EB830CE5
:10524000DCF804C042F823C05B1C96F90420A2F1EC
:10525000010C6345F1DB521E32715831884204D093
:10526000017D491E0175FFF718FFC6F80880234627
:105270003A4641462846BDE8F0473FE710B4C26AC7
:10528000836B406C9C68002C02D56FF0004300E0FB
:105290001B698468002C02D56FF0004000E00069B3
:1052A000984200DD1846D2685143884201DB012054
:1052B00000E0002010BC704738B5DFF8D0168A6FC8
:1052C000D36E012490F90850AC402343D36601F615
:1052D0007C31FFF77EFE012032BD10B5DFF8AC1641
:1052E000896FCA6E012390F90840A3409A43CA66A9
:1052F000FFF774FE012010BD012070472DE9FC412D
:1053000004460E4617461D4601200090324604F121
:1053100024012046FFF712FF05EB450004EB80084F
:10532000002000902B463A4608F130012046FFF756
:1053300005FF019698F9340000902B46627A94F9A3
:1053400008100FF27460FCF73CFFBDE8F3812DE913
:10535000FC4104460E4617461D4601200090324689
:1053600004F124012046FFF737FF05EB450004EB6D
:105370008008002000902B463A4608F13001204674
:10538000FFF72AFF019698F9340000902B46627AC5
:1053900094F908100FF23460FCF713FFBDE8F381B5
:1053A000F8B505460C4616461F46FDF74DFADFF8E0
:1053B000E40584421BD0206942F21171884201DB6E
:1053C00000202061002F08D0A86C032800DBA0601B
:1053D000E86C03280BDBE06009E0002E07D1686D64
:1053E000032800DBA060A86D032800DBE06001203B
:1053F000F2BD38B50446E56A01230A462946FFF79F
:10540000CFFFA868012809DB2869012806DAA06E09
:10541000002801D5002032BD022032BD002032BD5F
:1054200038B5044601EB410004EB8000856B002396
:105430000A4629462046FFF7B3FFA868012809DB82
:105440002869012806DAA06E002801D5002032BDA7
:10545000022032BD002032BD002900D5C9E7DFE7B8
:10546000012900DA012113460A4647E7012900DA3B
:10547000012113460A466AE7DFF81005C06A417A3F
:10548000481E8041C00F704713464FF0FF3211464F
:1054900034E713464FF0FF32114658E780B5DFF886
:1054A000EC040068417A002902D1806F406880478F
:1054B000012002BD80B5FFF710FFDFF8D0040068BF
:1054C000417A002902D1806F80688047012002BDA7
:1054D000B1F57A7F01DC4FF47A7113460A464FF436
:1054E000FA710BE7B1F57A7F01DC4FF47A7113465C
:1054F0000A464FF4FA712AE710B50446002922D56E
:10550000E06A816801291CDB0069012819DA02219F
:105510002046FFF7B3FE002813D194F96C004FF03A
:10552000FF31884204D1002084F86C00012010BDB6
:10553000002806D101206077084684F86C0002201C
:1055400010BD002010BDBDE8104069E74FF0FF32EC
:1055500080F86C20B0E6DFF83424926FD2F8802017
:10556000A03252428266A7E610B500290FD5C46A60
:1055700001230A462146FFF713FFA068012804DB38
:105580002069012801DA022010BD002010BDBDE80D
:10559000104045E7B52900DAB42113460A463C21FC
:1055A000ACE6B52900DAB42113460A463C21CEE622
:1055B00038B5044600292BD5E56A01230A46294659
:1055C000FFF7EEFEA868012820DB286901281DDA14
:1055D00003212046FFF752FE002817D194F96C00F2
:1055E0004FF0FF31884204D1002084F86C00012084
:1055F00032BD002803D1012084F86C0032BD01289F
:1056000004D1084684F86C00022032BD002032BD6F
:10561000BDE8344004E74FF0FF3280F86C20DFF83B
:105620006C23926FD2F88020B4325242826643E6F5
:10563000DFF85823926FD2F880206432524282669B
:105640003AE613464FF0FF32114657E613464FF045
:10565000FF3211467BE680B5FFF72EFEFCF72FFDEB
:1056600000210175012002BD80B5FFF736FEFCF771
:1056700026FD00210175012002BDF8B507460C4644
:1056800007F11405002028726872A87228737861E7
:105690006860787268654FF0FF3087F86C0007F13A
:1056A0006C0670800622002107F17000FDF730FEC5
:1056B000002003460EE000EB400107EB810181F87A
:1056C000343034314B7058324A6007EB80011A464F
:1056D0000A66401CAD4A0228EDDB1846287568753D
:1056E00002F15800A8614FF0FF306863A863E863D7
:1056F00028646864A864F460F1BD00003CB4A34C65
:1057000054F82020107202F108030FF2D4255D67CF
:10571000152800F20A81DFE810F0160024002F009F
:105720004A003C005800670075009F00830091000C
:10573000AD00BB00C600D100DC00E800F300FE00B5
:10574000FE00FE00FE00062058760A20987604F639
:105750008430586040F2DC5098600FF2A020586707
:10576000E3E0062058760A20987604F58B505860BE
:105770004FF496709860D8E00C20587610209876F8
:1057800004F595505860102098600FF2C4205867B7
:10579000CBE0072058760B20987604F59050943093
:1057A00058600B2098600FF2A8205867BDE00620D3
:1057B00058760A20987604F59050B03058600A2048
:1057C00098600FF28C205867AFE0062058760A20C8
:1057D000987604F59050BC3058604FF4FA70986099
:1057E0000FF288205867A0E0142058761820987689
:1057F00004F5A050B0305860182098600FF2DC20FB
:10580000586792E0022058760620987604F5A0505A
:10581000E4305860062098600FF28820586784E0D2
:105820000A2058760E20987604F5A050D43058609F
:105830000E2098600FF25020586776E001205876CD
:105840000520987604F5A050EC305860052098604B
:105850000FF26C20586768E005205876092098768A
:1058600004F5A050C8305860092098600FF2C410A9
:1058700058675AE0062058760A20987604F5A0501A
:10588000F43058600A2098600FF28C1058674CE092
:10589000012058760520987604F5A850586040F20B
:1058A0008660986041E0012058760520987604F5DE
:1058B000D850903058600520986036E00C2058761B
:1058C0001020987604F5D8509830586010209860D1
:1058D0002BE0112058761520987604F5D850A83082
:1058E000586040F6340098601FE01120587615206B
:1058F000987604F50C50DC3058601520986014E060
:10590000042058760820987604F5D85088305860DE
:105910000820986009E0012058760520987604F563
:1059200090508C3058600520986010463CBCA4E62E
:1059300010B5164CFCF788FFA067002005E004EBCB
:10594000C0117C3144F82010401C1628F7DB4FF0C2
:10595000FF30206660660020A06605F073FF06F049
:10596000D8FD07F07CFAFBF733FB07F0FDFBFBF7F4
:1059700021FEFCF79EF807F061FC07F0AEFF07F090
:1059800062FCBDE8104007F06FBC00000060002022
:10599000D488002058600020736176652062616BB6
:1059A000206F64722025642C2025642C2025642C13
:1059B0002025642C20256400414420256420256492
:1059C0002025642025642C2025640000524D2025CC
:1059D00064202564202564202564202564000000BF
:1059E000F9520008B9520008F9520008DB520008C9
:1059F000615400086D540008595400087954000897
:105A0000B952000879540008DB52000861540008BC
:105A10006D540008595400089D540008B9520008FC
:105A2000F9520008B554000889540008935400083E
:105A300059540008F95200084D550008F952000861
:105A4000DB520008D1540008E5540008F95400085E
:105A5000F952000857550008F9520008DB520008B7
:105A6000615400086D54000869550008F952000897
:105A700017560008F9520008DB5200089555000837
:105A8000A3550008B1550008F95200083156000826
:105A9000F9520008DB520008615400086D540008F8
:105AA00059540008F952000857560008F9520008E6
:105AB00069560008435600084D560008595400081E
:105AC000F9520008B9520008F9520008DB520008E8
:105AD000615400086D54000859540008F952000838
:105AE000B9520008F9520008DB520008435600087A
:105AF0004D56000859540008002207F08BBF8268F9
:105B0000521C8260426832B10268531C03601170FB
:105B10004168491E4160704708B584B00023029374
:105B200011B90093019302E00090481E019004AB6C
:105B300000A907487844183007F086FF009909B19A
:105B400000220A70002858BF029805B000BD00BFAF
:105B5000AFFFFFFF00F10103810704D010F8011B24
:105B600089B18107FAD10268B2F10131914311F094
:105B7000803F04BF50F8042FF6E710F8011B11B165
:105B800010F8011BFBE7C01A70470268531C036042
:105B90001170704700B585B002460FF2140100A8DD
:105BA00008F0BAFD00A800F093FB05B000BD0000AE
:105BB0004F4525640000000030488168002904BF7B
:105BC00008B008E0EFF30982A2F12802036882E836
:105BD000F84F83685A6000F047FD816859B14A6800
:105BE00092E8F84F036002F1280282F3098813F467
:105BF0007F4F36D07047224822490968401A80F307
:105C000008884FF08071C1611F4981617FF0060EE5
:105C1000704701BC2046DFF874E000BDFEE71C4879
:105C2000006818490968401A203820F0070080F3FE
:105C300008884FF0000181F3118862B600F00DF87A
:105C4000FEE74FF0000181F311881249124A0A6001
:105C50004FF0800181F3118870470E490E4A0A60A7
:105C600070474FF0000181F31188704700BF4FF07B
:105C7000800181F31188704700BF0000D4880020A4
:105C8000E05F0020604D030865EA00081D5C000825
:105C90000000000804ED00E000000010EFF30380B6
:105CA0007047BFF34F8FDFF86C06016801F4E061C5
:105CB000DFF8642611430160BFF34F8FFEE770B534
:105CC00082B006460C462046FFF744FF0546202DCD
:105CD00005D10422314600A8FDF74DFF06E0102D46
:105CE00016D10222314600A8FDF745FF002000E052
:105CF000401CA8420EDA015D7829F9D0009A2B46A3
:105D00005B1E1B1ADA4002F0010230398A42EFD0E2
:105D1000002076BD012076BDDFF800160160062068
:105D20007047A0F10060DFF8F81588428041C00F8D
:105D30007047F8B504460D46002000902068FFF734
:105D4000F0FF00281AD000A8FFF7E6FF064600275C
:105D500000E07F1CB74211D2009850F8371000EBDA
:105D6000C700406840422268520810EB4200FFF72B
:105D7000A6FF0028EDD02F600120F2BD0020F2BD6B
:105D8000F8B50C46DFF89C150A6D4B6D00255908D7
:105D90002E465F1B062F11D3482707FB01273F6CB8
:105DA000874200D20D46B84200D20B46E918490896
:105DB00037467E1C1F2FECD300E06D1C9D4211D294
:105DC000482707FB05210E6CB042F6D34E6C864285
:105DD000F3D34022204608F0B9FC002084F84000AC
:105DE0000120F2BD40220FF20861204608F0AEFC0F
:105DF0000020F2BDF0B591B0044600250EE0325906
:105E00000FF2F85100A808F087FC00A8FFF7A2FEE7
:105E1000024600A9381D08F099FC6D1C05EBC50071
:105E2000C600305900280BD0371900A9FFF7A8FF8A
:105E30000028E4D0402200A9381D08F087FCECE7D8
:105E400011B0F0BDF8B507460C46154600263046A1
:105E50000090002F1ED0002C09D1F2BD06EBC60029
:105E6000C00057F8041B490849004151761C0C2E0C
:105E70000FD200A93846FFF75CFF002807D1386829
:105E8000FFF74FFF002802D13F1DBC42F1D2BC42B8
:105E9000E4D23046F2BD70B5DFF88C140A460B68C8
:105EA000D21A1368DFF88444A34201D0002070BDE9
:105EB000DFF87044121D22650968091F4822B1FBF2
:105EC000F2F1616510F1030F02D010F1130F0AD146
:105ED000DFF85C54A86808F06FFC0646A86808F074
:105EE00077FC811905E008F081FC054608F080FC8C
:105EF0004119DFF84054A069286005F14802A06A02
:105F0000FFF7A0FF2846FFF775FF012070BD0EB414
:105F100030B5CCB0044600A84FF49671FFF7ECFD05
:105F200000254FAB22464FF4967100A8FFF7F4FD11
:105F300000A8FFF70FFE044609E0DFF8E813C86D7C
:105F4000421CCA6500A9695C08F0BAFC6D1CA54238
:105F5000F3D34CB030BC5DF810FB38B50024DFF84B
:105F6000C453E8650FF29C40FFF7D1FFDFF8C80388
:105F700001680FF2B440FFF7CAFFA86C0090AB6B4A
:105F80006A6B296B0FF2B840FFF7C1FFE96C0FF2A3
:105F9000E840FFF7BCFF6A69A9690FF2F040FFF71C
:105FA000B6FF0FF20050FFF7B2FF06E01018021D17
:105FB0000FF20850FFF7ABFF641C04EBC400C200F3
:105FC000DC4811580029F1D10FF2FC40FFF79FFF88
:105FD000A86D441E002505E00918BCA0FFF797FF37
:105FE000641E6D1C3C2D09D2002C00D53B243220B0
:105FF00000FB04F1D1480A5C002AEDD131BDD04844
:10600000D0490A6802604A6842608A688260CA6849
:10601000C2600A6902614A6942610A7E8261097F3F
:106020008161C9490A7882614A6842628A688262EB
:10603000CA68C2620A6902634A6942638A69826302
:10604000CA69C2638A6EC0F88820C04A9369C0F8E2
:106050009830D368C0F88C301369C0F89030536919
:10606000C0F894300B6FC0F89C304B6FC0F8A03074
:106070008B6FC0F8A430C96FC0F8A810B449096884
:10608000C0F8AC10B3490B68C0F8CC304B68C0F80E
:10609000D0308B68C0F8D430CB68C0F8D8300969EC
:1060A000C0F8DC105168C0F8E8101168C0F8E410BE
:1060B000704770B506460C469A4D6FF01E01401AA7
:1060C00014D0083812D0001F05D0001F0ED0083899
:1060D0000CD0001F10D104F120002862EFF31480CF
:1060E00040F00200E862286AA86205E004F120009E
:1060F0002862EFF31480E862EFF308806862EFF340
:1061000005802863EFF300806863FFF7C7FDA8638D
:10611000EFF31080E863EFF311802864EFF313804E
:106120006864F1EE100AA864EE64002004E054F8FC
:10613000201045F82010401C0828F8D370BD70B519
:10614000784CA16D3C2901D30021A165A56D3221B8
:106150007A4A01FB05260A4601463046FDF70BFD4B
:10616000002086F83100681CA06570BD70B501463E
:1061700074462046FFF79DFFFFF741FF2046FFF7DB
:106180008AFE00F09AF8002832D100F034F808F0C6
:1061900037FBF32008F0AEFB6F484FF000540025AA
:1061A00005E02178641C08F08BFB30466D1C461C12
:1061B000B5F5C03FF5D3532108F082FB522130469C
:1061C00008F07EFB741C4121204608F079FB641C1A
:1061D0004D21204608F074FB6048C046C04604F1DB
:1061E0000D00FFF7BAFE08F014FB5D4800F01FF841
:1061F000BDE8704055E510B508F002FBF32008F04B
:1062000079FB584C3820206002E02068083020607C
:106210002068402807D2002108F001FB0928F4D0AB
:10622000FFF73FFDFCE7BDE8104008F0F2BA38B5D3
:10623000044608F0E5FAF32008F05CFB3E480168EC
:10624000204608F021FB241DFF21204608F038FBE2
:10625000641C424D6979204608F032FB641CE978E1
:10626000204608F02DFB641C2979204608F028FB05
:10627000641C2978204608F023FB641C69782046BA
:1062800008F01EFB641CA978204608F019FBF521D4
:10629000601C08F015FBBDE8314008F0BABA80B5C3
:1062A00008F0AEFAF32008F025FBAA212E4808F0EA
:1062B00007FBBDE8014008F0ACBA00202A49097884
:1062C000F52900D1012070470000000025730A0065
:1062D00010B50446FFF73EFCC0B2142800D31320CB
:1062E000024621462148FDF746FC4FF0AC300078CD
:1062F00010BD80B500F04BF8BDE80140D1E480B599
:10630000FFF7CDFF4FF4C83213490020BDE8084025
:1063100001F045BC0CED00E00400FA057488002093
:1063200001F80200F0440120FC4F0508FECAFECA35
:10633000D48800201C0D0120088A0020ECD4002005
:106340000434012000ED00E020ED00E004E000E076
:10635000A0ED00E034EF00E00000060864540120E6
:10636000F4FF0708F0540120FFFF0708D85101206F
:1063700010B500F01BF80FF270142046FFF7EAFB8F
:10638000024621460020BDE8104001F008BC80B55F
:1063900001214FF4802002F069FF012003F038FB57
:1063A00094210F20BDE8044003F0D5BC80B5012145
:1063B0004FF4802002F05AFF012003F029FB002156
:1063C0000F20BDE8044003F0C6BC10B50024012135
:1063D0004FF4802002F04AFF012003F019FB0F2048
:1063E00003F0C6FC942800D10124204610BD000013
:1063F0004E6F2053796D626F6C000000307825304D
:10640000387800000A0A0A0A3D3D20437261736829
:106410002044756D7020496E666F726D6174696F8E
:106420006E203D3D0A0000004669726D776172651D
:106430002056657273696F6E203A2025640A000049
:106440000A49505352203D20307825782C20415065
:106450005352203D20307825782C207850535220FC
:106460003D20307825782C205046534352203D2043
:10647000307825780A0000000A6661756C74206D1A
:106480006F6465203D203078257800000A50432055
:106490003D20307825782C204C52203D2030782526
:1064A000780A00000A3C43726173682043616C6C97
:1064B00020537461636B3E0A000000003078257839
:1064C000202025730A0000000A0A3D3D2052656322
:1064D000656E74204C6F67204D65737361676573DB
:1064E000203D3D0A00000000534E414D5900000080
:1064F0000000000038B5FFF7BAFBDFF8300684680B
:10650000DFF8280600210171FFF7ABFB002C2CD02F
:106510002068002829D0607C2168497CC0B2814273
:1065200023D1256800E00D002968002903D04A7CAA
:10653000C0B28242F7D0FFF79AFBDFF8F00500699E
:10654000A04203D1DFF8E40521680161E069216818
:106550000160C861E56129682160002900D0CC6133
:106560002C6095F8410085F84000FFF77AFB31BDBB
:1065700010B5FFF77CFBDFF8B8050468DFF8AC0561
:10658000006A201A012832DADFF8A005046A04E064
:10659000DFF898050462FFF764FBDFF898050078E0
:1065A000C00722D5FFF763FBDFF888050078800776
:1065B000EED5DFF88005007810F0FD00DFF87415E7
:1065C0000870FFF74EFBDFF86405006A8442FAD0DA
:1065D000DFF858050462DFF858050068401CDFF852
:1065E00050150860DFF844154862FFF740FB10BD06
:1065F00038B504000020A071206A10F57A6060624E
:10660000E069002802D02000E1698847FFF729FBF4
:10661000E56809E0E868616A401A002801D5E86881
:106620006062FFF71EFB2D68002D1AD0FFF71FFBDD
:106630002069002804D0687C2169497C884212D3F3
:10664000287C4007EDD5E868216A401A0128E1DA84
:10665000280000F09EF9FFF70AFB287C0028D9D11A
:1066600001E0FFF704FB31BD70B50400002060704D
:106670000120207008F0BAF80078C0B2CD2802D00E
:106680007D20FFF787FAA06800280CD0A068406C36
:10669000002808D0A068406C01680800002802D0DB
:1066A000A0684068884794F8290000280BD0A068AB
:1066B00094F8281080F84010DFF870040079002862
:1066C00001D0FFF717FFDFF870040078002823D00F
:1066D000DFF868040068DFF85414096A401A0028DB
:1066E00004D5DFF854040021017015E0FFF7BFFA6C
:1066F00008F0C5F90500FFF7B4FAA068002808D033
:10670000A068406B2818DFF838140968401AA1689F
:106710004863DFF82C040560A068002808D0A06852
:10672000007C002804D1A068006B401CA1680863AD
:10673000206900282BD003E030682061FFF791FA30
:10674000FFF795FA2669002E27D0357CEDB2002D93
:1067500023D0680710D5F068216A411A012906DAAA
:10676000300000F016F9307C002805D10FE0616A96
:10677000411A002900D56062EDB215F0FB00102827
:10678000DAD1B06880684068007C0028D4D1FFF777
:106790006EFA02E02000FFF72BFFA0790028F9D164
:1067A000DFF890030078C00701D5FFF7E1FE002075
:1067B00060712069002839D02069007C002805D04C
:1067C0002069806880684068A06001E02069A0605E
:1067D000A06890F84C00642802D08020FFF7DAF916
:1067E000A068806A0078CD2802D07820FFF7D2F91F
:1067F000A068406C002808D0A068406C4168080080
:10680000002802D0A06840688847A06890F840003F
:1068100084F8280084F82900DFF810038068C06A33
:10682000401CDFF808138968C8620BE0002084F878
:106830002900002084F828000020A060002020709B
:10684000FFF70FFA200070BD80B508F045F9DFF8BA
:10685000F4120978002806D0022810D009D30428A1
:1068600015D010D314E0002902D0A320FFF792F92D
:1068700011E0002902D1A420FFF78CF90BE0A6203B
:10688000FFF788F907E0A720FFF784F903E002E0AB
:10689000A820FFF77FF901BD10B508F01DF904002D
:1068A000DFF8A0020078002802D0A020FFF772F9DC
:1068B000002C05D0022C08D003D3032C09D00CE007
:1068C0000EE0A420FFF766F90AE0A620FFF762F9C0
:1068D00006E0A720FFF75EF902E0A820FFF75AF9CB
:1068E00010BD80B508F0F8F8002805D0022808D0BF
:1068F00006D3032809D00CE0A320FFF74BF90BE0E7
:106900000AE0A620FFF746F906E0A720FFF742F9C4
:1069100002E0A820FFF73EF901BD80B5DFF80C02C8
:106920000078002802D19720FFF734F9DFF8FC0146
:106930000078401EDFF8F4110870C0B2002827D19B
:10694000DFF8E8014068002822D0FFF790F9DFF86F
:10695000DC01406800280BD0DFF8D0010121017074
:10696000DFF8C801FFF76DF9DFF8C0010021017001
:10697000DFF8B8014078F021084202D09920FFF7F3
:1069800009F9DFF8A8014078002801D1FFF769F97B
:1069900001BD10B5816800290CD0DFF89011096A9B
:1069A000C16081680A684968002A00D051600A60A5
:1069B00000218160017C11F003010174C9B200293A
:1069C00045D1DFF868110969002929D1DFF85C1188
:1069D0000861DFF85801007800280CD1DFF84C017D
:1069E00001210170DFF84401FFF72BF9DFF83C01CA
:1069F0000021017003E0DFF8340101214171DFF86B
:106A00002C014078F021084202D09920FFF7C2F80B
:106A1000DFF818014078002801D1FFF722F916E0CD
:106A2000427C4B7CD2B29342D0D38142D1D04B7CBA
:106A3000D2B29A420BD10300FFE71B68002BDED0D5
:106A40005C7CD2B2A242DAD18B42F6D1BEE710BD55
:106A500010B50400627C35480078401C334908704A
:106A6000394800E008000168002903D04B7CD2B20D
:106A70009A42F7D32160E061046000290AD0CC611A
:106A8000487CD2B2904202D194F8410000E000204C
:106A900084F84000207C002812D1FFF7E8F820009D
:106AA000FFF777FF21484078F021084202D0992073
:106AB000FFF770F81D484078002801D1FFF7D1F8A2
:106AC000FFF72BFF10BD10B5184804781748007861
:106AD000401C164908701548FFF7B3F813480470B6
:106AE00012484078F021084202D09920FFF752F86E
:106AF0000E484078002801D1FFF7B3F810BD10B55B
:106B000007F0F0FF09480121017007F06FFE040053
:106B10006846C046021B203A012A03DBCD21200033
:106B2000FCF7F6FB09480121017010BDD488002054
:106B30004455012097550120985501205C550120AE
:106B40004855012099550120E08800209B550120DF
:106B5000DFF8C006007870472DE9F0418AB0FBF7F6
:106B600073FE0446DFF8B0562E6842E096F908003E
:106B700007283DD00B283BDA062839D006F1080754
:106B8000386E002803D5D4F88010081838664FF006
:106B9000FF3130467A6F926990478046B8F1010F15
:106BA00004D197F86400396F09698847B8F1020F7A
:106BB0000BD1797E38697A6880183A6F52699047AC
:106BC000002802D0304608F07BF8002130467A6F6A
:106BD00092699047022801D10120B8750121304601
:106BE0007A6F92699047022802D1304608F014F972
:106BF0003668AE42BAD1D4E91C01002901D100287F
:106C00000CD00A208DF8080002208DF80000D4F87E
:106C10008000ADF8220000A801F0F8FF01200AB0C2
:106C2000BDE8F08130B585B004460D46CA208DF828
:106C300000002888ADF801000220ADF80300BDF87F
:106C40000100001D03F022FBCDF8090002220DF126
:106C50000301FCF790FF02222946DDF80900801CA1
:106C6000FCF789FF2A882146DDF80900001DFCF7A2
:106C700082FF0020288000A9DFF8F00D08F0FCFB5F
:106C800005B030BD42F23411081A322801DA012071
:106C900070470020704780B5FBF711FA407B002851
:106CA00004D007F04BFFDFF8A01E086001BD80B5DF
:106CB00007F044FFDFF8941E086001BDDFF88C0E7A
:106CC0000068704710B582B000F10C03D96A89687A
:106CD0000091042200A95C7DDB68C06818182018A8
:106CE000FCF749FF13BD30B41488651C15800525D9
:106CF00065541488651C1580635413885C1C1480CB
:106D0000007A585430BC704732B515461C4621886D
:106D10004A1C228037224A5521884A1C2280007A48
:106D20004855022200A920884019FCF724FF20883A
:106D3000801C208031BDF8B517461D4600F10C06B9
:106D4000069CA4B2B27D6243C06809182888C019A5
:106D5000FCF711FF2888B17D614311FA80F028808B
:106D6000F1BD30B400F110039B7C914203D1006966
:106D700090FBF3F00DE00C46154603D2281B90FB68
:106D8000F3F006E00069001B90FBF3F095FBF3F1D4
:106D9000081880B230BC704700F110018A688B7C03
:106DA000D2188A600069824201D1002088600020E8
:106DB00088737047F8B504460D461E46069F92B28A
:106DC00089B2FFF7CEFF00903B4632462946204667
:106DD000FFF7B1FFF1BDF8B5044615461E4622691E
:106DE000002D00D11546069F0097FFF7E3FF2069AD
:106DF000854206DA009733462A4600212046FFF7EF
:106E0000D9FFF1BD2DE9FC4104460D461646A169A6
:106E10006069002815D500270A4692B289B220463B
:106E2000FFF79FFF804633462A4641462046FFF73C
:106E30006BFFA26900962B4611462046FFF7CBFF59
:106E40002EE0814216DA01270A4692B2014689B243
:106E50002046FFF786FF804633462A4641462046B5
:106E6000FFF752FF00962B46A26961692046FFF7A3
:106E7000B2FF15E002270A4692B2014689B22046C7
:106E8000FFF76FFF804633462A4641462046FFF70C
:106E90003BFF00962B46A26961692046FFF78AFFF7
:106EA000A0690190606900903B46424694F9081041
:106EB0000FF20800FBF785F9BDE8F3815061636BC1
:106EC000203D256420256420256420256420256438
:106ED0000000000070B582B004460D461646206ED4
:106EE000012811DAA07F012811D133462A46012159
:106EF0002046FFF709FF0120009033462A46A1698A
:106F00002046FFF718FF02E02046FFF77BFF012332
:106F1000324629462046FFF7E6FEA0696061236EEF
:106F2000626E94F908100FF20C00FBF74AF9206E1C
:106F3000606673BD666C75736820256420256420C7
:106F4000256400002DE9F84304460D461646FBF77C
:106F50007BFC8146FBF7B3F8804604F10807B87D57
:106F6000002802D02046FFF7ADFEB86D0128C0F220
:106F70008E8098F80E00002844D0B87D002800F0DC
:106F8000CA80F86DD9F88010401AF865B87E396962
:106F9000FA68531A834205D0002A2FD1BA68511AD1
:106FA00081422BD194F90820397E0FF27010FBF743
:106FB00008F9397E00291ED094F908200FF27410C8
:106FC000FBF7FFF83869B97E421892B2F96889B2C6
:106FD0002046FFF7C6FE33462A4601462046FFF705
:106FE00093FE00962B463869B97E4218F968204610
:106FF000FFF7F1FE02E04FF0FF30F8602046BDE8F9
:10700000F243C9E698F80E00002840F08480F86D3D
:10701000D9F88010401AF865012831DAB86DF865A2
:10702000386BD0F80C8094F908308268B96D0FF293
:107030002010FBF7C6F8B868B97E90FBF1F0B96D87
:1070400091FBF8F1814202DB4FF0FF30F860386EBF
:10705000B97D00290CD0002807D42046FFF79CFEFC
:10706000324629462046FFF7CDFE3869F86052E0E7
:10707000002850D4324629462046BDE8F843C1E6F0
:10708000B87D002847D02046BDE8F24384E6B87DAD
:10709000002840D094F9080098F80A1000291BD065
:1070A000072803D00D2801D015282FD133462A46B2
:1070B00001212046FFF728FE0120009033462A4692
:1070C00039692046FFF737FE7A7894F908100FF2F5
:1070D0009400FBF776F819E0092809D194F87610A6
:1070E000012905D10FF28C00BDE8F443FBF769B824
:1070F00033462A4601212046FFF706FE0120009074
:1071000033462A4639692046FFF715FE2046FFF729
:1071100043FE3869F860BDE8F18300007375737051
:10712000656E64206669666F2066756C6C202564E8
:107130002025640073757370656E64206669666FE0
:107140002066756C6C2032202564202564000000C8
:107150006669666F2066756C6C3320256420256433
:107160002025640041502053757320256420256438
:1071700000000000233E6C75785F73617420256405
:1071800000000000F8B504460D46234E376805E0C0
:107190002A4621463846FFF7D5FE3F68B742F7D169
:1071A000F1BD2DE9F04104460D46DFF82C6DF7697D
:1071B00007F10C0898F81510D8F80C00FA68801838
:1071C000D8F86C205269904700280AD0012088F82E
:1071D0001200787A002804D02A4621463846FFF764
:1071E000B1FEB66906F10C07797DF868F26880187F
:1071F000FA6E52699047002809D00120B874707A5D
:10720000002804D02A4621463046FFF79BFE012085
:10721000BDE8F081935501207C6B00200288D21CD0
:1072200002800A80704780B50B889B1AADF8003049
:10723000BDF80030002B09D01018012100F8031C04
:10724000022200A9801EFCF796FC01BD0888C01E22
:10725000088001BD2DE9F04FADF68C2D04460D469A
:10726000FBF7F2FA8046FAF72AFF074610A840F625
:107270004821FEF741FC00208DF8020006A82821D5
:10728000FEF73AFC01A81421FEF736FC0020ADF809
:1072900000000646D8E91C01002902D1002800F0B0
:1072A000E18397F9090008F0F9FD002800F0DA837E
:1072B00000A92846FFF7B2FF37461BE00120314600
:1072C0003A4609F015F8D8E91C231040194001D1BD
:1072D00000280ED007EB8700DFF8001C01EBC0028E
:1072E00092F90900012804D10DF1020110A8126AD7
:1072F00090477F1C2D2FE1DB37461AE02888411C80
:10730000298099F8021001552888FFF7BBFC002856
:107310000DD0BDF8002029462046FFF784FF2946FE
:107320002046FFF77FFC00A92846FFF777FF7F1C68
:107330007FB29DF80200874280F28C832988481C26
:10734000288040F2491010FB07F010AA825C0A5511
:1073500029884A1C2A8010AA00EB020898F801002C
:1073600008552888411C298008F1010999F8011065
:10737000015599F80100032821D0092800F04C811B
:107380000C2800F026811A2800F04A821B2800F001
:1073900059811C2800F078821D2800F066811E2883
:1073A00000F06282252800F0A182262800F0DB820E
:1073B000282800F0B6822C2800F0E5829EE798F895
:1073C0000100032805D12888411C298099F8021062
:1073D00001552888411C298099F80310015599F816
:1073E0000300C0280DD1B8F83020D8F83210288812
:1073F0000019FCF7C0FB2888B8F83010081828805E
:1074000082E7711C00064ED401A808F104025278EC
:107410003254C9B298F806200A54491CC9B2002255
:107420000A544A1C08F20601D2B24B781354521C7B
:10743000B8F80E30D2B21E0A1654521CD2B21354EF
:10744000521C08F20E03D2B29E781654521CD2B2CD
:10745000DB781354521CD2B298F812301354521CD9
:10746000D2B298F813301354521CD2B28B78135402
:10747000521CD2B2C9781154511CC9B298F80A20D2
:107480000A54491CC9B298F80B200A544E1CF6B293
:10749000324601A928880019FCF76DFB288850FAAC
:1074A00086F0288030E7D8F8052006A8130C33545E
:1074B000C9B2130A0B54491CC9B20A54491CD8F862
:1074C0000920C9B2130C0B54491CC9B2130A0B543E
:1074D000491CC9B20A54491CD8F80D20C9B2130C72
:1074E0000B54491CC9B2130A0B54491CC9B20A54A3
:1074F000491CD8F81120C9B2130C0B54491CC9B24D
:10750000130A0B54491CC9B20A54491CD8F8272045
:10751000C9B2130C0B54491CC9B2130A0B54491CB1
:10752000C9B20A544A1C08F22701D2B20B7913548B
:10753000521CD2B24B791354521CCB88D2B21E0AC1
:107540001654521CD2B21354521CD2B2097A11549E
:10755000511CD8F81520C9B2130C0B54491CC9B2E0
:10756000130A0B54491CC9B20A54491CD8F81920F3
:10757000C9B2130C0B54491CC9B2130A0B54491C51
:10758000C9B20A54491CD8F81D20C9B2130C0B54B7
:10759000491CC9B2130A0B54491CC9B20A54491CEC
:1075A000D8F82120C9B2130C0B54491CC9B2130AD4
:1075B0000B54491CC9B20A544E1CF6B2324606A9F5
:1075C00028880019FCF7D7FA288850FA86F0288016
:1075D0009AE608F20301B1F90300C0F3072242EA78
:1075E0000020A1F80300B1F90700C0F3072242EA26
:1075F0000020A1F80700B1F90500C0F3072242EA14
:107600000020A1F80500092228880019FCF7B3FA28
:1076100028880930288077E698F8010003280AD1E5
:10762000022208F1030128880019FCF7A4FA28882F
:10763000801C288068E62888411C298099F802105F
:10764000015561E62888411C298099F802100155EE
:1076500098F8010005287FF457AE2888411C29803E
:1076600008F10401497801554EE608F2030998F83B
:107670000100012840F0C4802888411C298099F825
:10768000041001554FF0000AA1E0CAEB4A1000EBCC
:10769000090BDBF81800010221F0FF11000A00F0CD
:1076A000FF100843CBF818004FEA3040CBF8180021
:1076B00004220BF1180128880019FCF75CFA2888CD
:1076C000001D2880DBF80800010221F0FF110012E4
:1076D00000F0FF100843CBF80800C0F30F4141EA67
:1076E0000040CBF8080004220BF10801288800199B
:1076F000FCF741FA2888001D2880DBF80C00010205
:1077000021F0FF11001200F0FF100843CBF80C002D
:10771000C0F30F4141EA0040CBF80C0004220BF10A
:107720000C0128880019FCF726FA2888001D2880FB
:10773000DBF81000010221F0FF11001200F0FF1031
:107740000843CBF81000C0F30F4141EA0040CBF8EA
:10775000100004220BF1100128880019FCF70BFA25
:107760002888001D2880DBF81C00010221F0FF1191
:10777000000A00F0FF100843CBF81C004FEA30402D
:10778000CBF81C0004220BF11C0128880019FCF71F
:10779000F2F92888001D2880BBF81600010A41EA8A
:1077A0000020ABF8160002220BF116012888001900
:1077B000FCF7E1F92888801C2880411C298080B2D0
:1077C000DBF8201001550AF1010A5FFA8AFA99F8EC
:1077D00004008245FFF659AFB8F84321D8F84511A7
:1077E00028880019FCF7C7F92888B8F84311081849
:1077F0002880B8F843110FF27820FAF7E2FC83E50D
:1078000005287FF481AD2888411C298099F8021051
:1078100001552888411C298099F80310015573E50A
:1078200008F2030198F80100032805D12888421CBA
:107830002A8098F80A200255D1F80100020222F0AD
:10784000FF12000A00F0FF101043C1F801004FEAD8
:107850003040C1F80100072228880019FCF78BF995
:107860002888C01D28804FE508F203010888020A15
:1078700042EA00200880022228880019FCF77BF9E0
:107880002888801C28803FE508F2030098F8011042
:1078900001297FF439AD99F80210012918D12988FE
:1078A0004A1C2A8000780855B8F80420D8F8061039
:1078B00028880019FCF75FF92888B8F80410081820
:1078C0002880B8F804100FF2BC10FAF77AFC1BE518
:1078D00002297FF419AD29884A1C2A8002780A55AA
:1078E00029884A1C2A80C07908550DE52888411C42
:1078F0002980B9F8021001552888411C2980B9F95E
:10790000021009120155B9F90220D8F8051028888B
:107910000019FCF730F92888B9F9021008182880F6
:10792000F2E42888411C2980B9F802100155288802
:10793000411C2980B9F90210091201552888411CFF
:10794000298008F1040149780155B9F90220D8F8D5
:10795000061028880019FCF70EF92888B9F90210DA
:1079600008182880D0E408F203010888020A42EAD5
:1079700000200880022228880019FCF7FCF82888DB
:10798000801C2880C0E408F203082988084698F87B
:10799000002013072AD5491C298098F800100155AA
:1079A0002888411C298098F8071001552888411C17
:1079B000298098F808100155D8F80900010221F033
:1079C000FF11000A00F0FF100843C8F809004FEA51
:1079D0003040C8F80900042208F10901288800197C
:1079E000FCF7C9F82888001D28808DE4520724D5AB
:1079F000491C298098F8001001552888411C2980CD
:107A000098F801100155D8F80300010221F0FF1188
:107A1000000A00F0FF100843C8F803004FEA3040A6
:107A2000C8F80300042208F1030128880019FCF7B4
:107A3000A2F82888001D288066E498F80220D8F86B
:107A40000D100019FCF797F8288898F802104018D4
:107A5000288059E4BDF8002029462046FFF7E3FBC3
:107A600008F049FA0DF68C2DBDE8F08F448C00200B
:107A70004F4A483A20415442442073697A653A207B
:107A8000256400004F4A483A20415044522073690F
:107A90007A653A20256400002DE9F04105460E463E
:107AA000FAF70DFB0746DFF838442078401C2070B9
:107AB0006078F021084202D09920FEF76BF8FEF7BB
:107AC000D6F86078401C607097F81880B8F1010F04
:107AD00026DB3088404480B2FFF7D4F8002803D07A
:107AE00031462846FFF79EF83088411C318003213B
:107AF00041553088411C318000F80580424607F12D
:107B0000190130884019FCF736F83088404430803D
:107B1000FF22002107F11900FBF7FAFB002038765D
:107B20006078F021084202D09920FEF733F860789F
:107B3000401E6070C0B2002801D1FEF792F8BDE887
:107B4000F041FEF7EABE0000205501202455012037
:107B500038B504460D46FAF7B2FA817A002909D100
:107B6000417B002906D129884A1C2A8006220A5511
:107B70000121417331BD38B504460D4628880028DF
:107B80000CD02046FFF788FF29462046FFF7E0FF8C
:107B900029462046BDE83440FFF744B831BD14B54E
:107BA00085B0049101A90022134614461CC10A2184
:107BB000ADF8001004218DF804108DF805000A4678
:107BC00005A90DF10600FBF7D6FF042204A90DF16B
:107BD0000A00FBF7D0FF00A901A8FFF723F806B0C1
:107BE00010BD80B5FAF76BFA4FF49671FAF754FCB2
:107BF00007208DF802000120ADF8000000A90DF16A
:107C00000200FFF70FF801BD2DE9F041DFF88C4DC0
:107C10006068002828D0218888421FD002F036FBF7
:107C2000054666682788A6EB07081FFA88F84246CB
:107C3000381900F108012846FBF79DFF3A4604F188
:107C4000080108EB0500FBF796FF3246294604F1D0
:107C50000800FBF790FF284602F030FB626804F151
:107C600008010520FFF79BFF002060602080BDE831
:107C7000F08180B5FAF7E8FD062180F884108430A1
:107C8000417007218170C170017101BD2DE9FC4176
:107C900005460F469046FAF712FA0026D5F8091065
:107CA0000C1D2A781146012962D00F2933D03529BD
:107CB00037D0802900F08A80812900F091808229C4
:107CC00000F08E80852900F08B80862900F0888066
:107CD000882900F085808A2900F08A808B2900F0AD
:107CE000A3808C2900F0AF808D2900F0B780DD29BA
:107CF00000F0C180DF2900F0DB80F0291AD0F429E0
:107D000023D0F62929D0F82947D0F92935D0FF29E1
:107D100000F0A98061E0807D2070FFF7AAFF0120BC
:107D20005CE00120FAF743F83046FAF744F8012006
:107D3000207053E00422DFF8681C2046FBF71BFF8D
:107D40000120FCF7A9FF012048E0042200F1100106
:107D50002046FBF710FF012040E003222146304679
:107D6000DFF8403C9B689B6F1B6A9847012035E019
:107D7000204608F0EDFA012030E0B5F80120B5F812
:107D80000300C010C0EB0011D5F8050000EB811115
:107D90002046FBF7F0FE012020E03046ADF804005D
:107DA0000120D5F80510C9B2012900D10320FCF744
:107DB000DCF9FCF716FAADF80400FCF729FA022208
:107DC00001A92046FBF7D7FE012007E0D5F8050002
:107DD00020702146304607F0DDF83046BDE8F681D8
:107DE00030462070214602F07F0007F0D3F8F4E718
:107DF00001202070DFF8AC0B45683746287F00284B
:107E000001D13046EAE7687A002803D1A86F4068BC
:107E1000804707462046A96FC9698847002FDCD0F4
:107E2000A86F80688047D8E70120B5F80310C1F338
:107E3000C101091D884040F0020020702146012048
:107E400007F0A8F8C9E701782170C178617041791D
:107E5000A1708079E07001202071BFE7204608F012
:107E60008BFA0646B9E704F10802211D2046FCF70B
:107E7000C1FF0120B2E76879DFF8281B51F82050D4
:107E8000687A002810D0424639462846FFF722F883
:107E9000DFF8140B01210170DFF8101B082008F037
:107EA0002DFB0120207001E030462070012095E775
:107EB0006879DFF8F01A51F82050286995F82210F7
:107EC00090FBF1F0401E0090042200A92046FBF731
:107ED00052FE012082E7000000600020A4E00020A4
:107EE000D4880020F0B593B00646FAF7E8F80546C6
:107EF000FAF7AAFCD6F809100C1D31780022089276
:107F00004FF0FF32099217460A46312A00F01E81CF
:107F1000322A00F02581332A00F03181342A00F022
:107F20003881372A74D0A12A00F06081A22A00F09B
:107F30007F81A42A00F08A81B12A00F03483B22A1A
:107F400000F0CF84B82A00F09C81C12A00F0CA81D9
:107F5000CD2A00F08B80CE2A00F0A180D02A37D025
:107F6000D12A2BD0D22A38D0D32A3FD0D42A41D0FC
:107F7000D62A58D0D72A56D0D82A5CD0D92A5AD057
:107F8000DB2A00F01E81DC2A00F02281F12A5AD07F
:107F9000F22A00F09D80F52A00F0B180F72A00F067
:107FA000C480FA2A00F0DD84FB2A00F0DD84FD2A7B
:107FB00000F0B080FE2A00F0E784C4E000212846EB
:107FC000FAF7A8FA0020A873FFF71EFE0120BBE015
:107FD0000020FCF761FE0120B6E001212846FAF7F7
:107FE00099FA012008F0DAFA0120ADE00020A87229
:107FF0000120A9E00120A872002068730120A87365
:10800000E87A002802D1012008F0C8FA01209BE09C
:10801000002221461046DFF88C391B689B6F1B6AD3
:108020009847012090E0D62901D1012000E00020EE
:10803000E872012088E0D92901D1012000E0002068
:108040002873012080E000210CE00A180B5D82F803
:108050008430022905D10A5D80F887200A5D80F806
:108060008820491C0329F0DB01206DE0002512E087
:10807000DFF83009466806EB4506022204EB4501AD
:1080800006F17000FBF777FDB6F97010DFF82009F4
:10809000FAF797F86D1C032DEADB012054E0002568
:1080A00012E0DFF80009066806EB4506022204EB41
:1080B000450106F17000FBF75EFDB6F97010DFF8C0
:1080C000F408FAF77EF86D1C032DEADB01203BE093
:1080D000297C090601D4012036E02178A0F88A1015
:1080E0006178A0F88C1002212046DFF8B828D26908
:1080F000926F92699047002825D0012024E0032246
:1081000021460120DFF89C389B689B6F1B6A9847CB
:10811000012019E01B2221460720DFF888389B68E0
:108120009B6F1B6A984701200EE0DFF8780886698C
:10813000B06F80688047002805D0012221460520C5
:10814000B36F1B6A9847002013B0F0BDF9F737FEF4
:10815000012801D10120F7E72046F9F75BFDF2E79E
:10816000F9F72DFE012801D10120EDE72046F9F7AE
:10817000D6FD20780028E6D0F9F702FEE3E7F9F70C
:108180001EFE012801D10120DEE72078F9F7FFFD6E
:10819000D9E7F9F714FE012801D10120D4E74FF403
:1081A00080510020FAF7EFF90120F9F787FC012050
:1081B000F9F701FE2078F9F705FEF9F7F2FC012046
:1081C000C2E7D6F80510DFF8F007F9F7FAFFBAE7CB
:1081D000FEF773F8002802D0FEF791F8B3E7FEF738
:1081E000F4F80028AFD0FEF7C3F8ACE794F90050DC
:1081F0000422611C08A8FBF7BEFCB6F801000628A3
:1082000006D30422611D09A8FBF7B5FC94F9097097
:10821000042D04D1DFF88C070069A17A81720097E0
:10822000099B00220899284606F023FF20708AE760
:1082300094F900500422611C08A8FBF79CFC002361
:108240001A460899284606F081FF7DE794F9005008
:108250000422611C08A8FBF78EFCB6F80100062872
:1082600006D30422611D09A8FBF785FC94F9097067
:108270000097099B00220899284606F0C6FF207047
:1082800061E720780146032908D01A2913D025294F
:1082900015D0282917D02C2919D01CE060788DF82A
:1082A0000A00012805D1A0788DF80B00204600F0C7
:1082B00044FC012048E7204600F03FFCF9E7204657
:1082C00000F03BFCF5E7204600F037FCF1E72046E4
:1082D00000F033FCEDE794F9011040B207F0ABFE7B
:1082E000C0B231E7207801460E3908D0091F0329B2
:1082F0001CD9091F3DD0491E00F09B803DE10E2096
:108300008DF8080060788DF80A00A1788DF80B10C0
:10831000E2788DF80C200023ADF80D3052B249B24E
:1083200040B2FAF748F900F0FFFB26E18DF80800AB
:10833000122802D160788DF80A009DF808001328F1
:1083400002D160788DF80B009DF80800142802D146
:1083500060788DF80C009DF80800152802D160782F
:108360008DF80A0062782178DFF85006F9F729FFC6
:1083700003E16078A178090401EB0060E17800EB8B
:10838000012021794018CDF80A006179A279120400
:1083900002EB0161E27901EB0221227A8918CDF822
:1083A0000E10627AA37A1B0403EB0262E37A02EBFB
:1083B0000322237BD218CDF81220637B8DF8163070
:1083C000A37B8DF81730E37B8DF81830237C8DF874
:1083D0001930637C8DF81A30A37CE57C15EB032300
:1083E0001BB21D46ADF81B50257D03EB0523657DB3
:1083F0005B19ADF81D30A37D8DF81F30002803D127
:10840000002901D1002A09D00DF10A0184B0684683
:108410001622FBF775FB0FBCFAF772F90DF10A0192
:1084200084B068461622FBF76BFB0FBC00F0C4FB60
:10843000A3E060788DF809001D283DD1A0788DF863
:108440001300A07801280DD1E078217911EB0021EB
:10845000ADF80A1089B20A461D21DFF86405F9F764
:10846000B0FE8AE002280BD1E078217911EB0021DF
:10847000ADF80C1089B2DFF84C05F9F7A2FE7CE0EC
:1084800003280BD1E078217911EB0021ADF814100D
:1084900089B2DFF83405F9F794FE6EE004286CD158
:1084A000E078217911EB0021ADF8161089B2DFF8E0
:1084B0001C05F9F786FE60E0262809D1A0788DF822
:1084C0000E00A078012858D1E0788DF80D0054E016
:1084D0001C2823D1A0788DF80D00A078012807D1A1
:1084E000E1788DF80A10DFF8E804F9F76AFE44E055
:1084F000022807D1E1788DF80B10DFF8D804F9F7DE
:1085000060FE3AE0032838D0052836D1E1788DF8AE
:108510000C10DFF8C404F9F754FE2EE02C282CD1FF
:10852000A0788DF81400A078012803D1E0788DF8A8
:108530000E0022E0022806D1E078217911EB00201C
:10854000ADF8150019E0032806D1E078217911EB88
:108550000020ADF8170010E0042806D1E07821795A
:1085600011EB0020ADF8190007E0052805D1E078EF
:10857000217911EB0020ADF81B0006208DF82800B2
:1085800020780B900DF1310002A91822FBF7B8FA00
:108590000B208DF830000020ADF84A000AA800F04A
:1085A00035FBC0B2D0E594F9000006F0B4FF012815
:1085B00040F0698120780146032928D0062965D03A
:1085C00009292BD00C2945D00D2951D0192900F0AB
:1085D00090801A2967D01B2900F0A0801C2900F088
:1085E000DB801D2900F0B3801E2900F0E2802529E0
:1085F00000F0FB80262900F0EA80272900F0FC80AB
:10860000282900F020812C2900F0218136E1032265
:10861000611C0DF10A00FBF7AEFA34E10722611C80
:108620000DF10A00FBF7A7FABDF80A00010A41EABA
:108630000020ADF80A00BDF80C00010A41EA002054
:10864000ADF80C00BDF80E00010A41EA0020ADF8BB
:108650000E0018E10322611C0DF10A00FBF78BFAF2
:10866000BDF80B00010A41EA0020ADF80B000AE159
:108670000322611C0DF10A00FBF77DFABDF80B0027
:10868000010A41EA0020ADF80B00FCE00122611C68
:108690000DF10A00FBF76FFA9DF80A100FF2403057
:1086A000F9F78FFDEFE00B22611C0DF10A00FBF7DB
:1086B00062FADDF80B00010221F0FF11000A00F060
:1086C000FF100843CDF80B004FEA3040CDF80B0007
:1086D000BDF81000010A41EA0020ADF810000023A7
:1086E0009DF914209DF913109DF91200F9F763FF0D
:1086F000C9E00622611C0DF10A00FBF73CFABDF847
:108700000A00010A41EA0020ADF80A00BDF80E0097
:10871000010A41EA0020ADF80E00B4E00422611C19
:108720000DF10A00FBF727FABDF80A00010A41EA39
:108730000020ADF80A00BDF80C00010A41EA002053
:10874000ADF80C000FF2A420F9F73BFD9BE00922E5
:10875000611C0DF10A00FBF70EFABDF80A00010AD0
:1087600041EA0020ADF80A00BDF80C00010A41EA18
:108770000020ADF80C00BDF80E00010A41EA00200F
:10878000ADF80E0000239DF912209DF911109DF9FE
:108790001000F9F710FF76E060788DF80A00A078F5
:1087A0008DF80B00A27861780FF24C20F9F709FDE3
:1087B00069E00322611C0DF10A00FBF7DCF9BDF84A
:1087C0000B00010A41EA0020ADF80B005BE0052236
:1087D000611C0DF10A00FBF7CEF9BDF80B00010A90
:1087E00041EA0020ADF80B004DE00922611C0DF1BB
:1087F0000A00FBF7C0F946E00A22611C0DF10A00ED
:10880000FBF7B9F9BDF90A00C0F3072141EA0020DE
:10881000ADF80A00BDF90C00C0F3072141EA0020C1
:10882000ADF80C00BDF90E00C0F3072141EA0020AD
:10883000ADF80E00BDF91000C0F3072141EA002099
:10884000ADF810001FE060788DF80A001BE00822E8
:10885000611C0DF10A00FBF78EF9BDF80C00010A4E
:1088600041EA0020ADF80C0000239DF911209DF98C
:1088700010109DF90F00F9F79EFE04E08DF8080036
:1088800060788DF809002078052807D15348012128
:108890000170687A00280ED1084655E418280AD1DC
:1088A0008DF8080060788DF80900A0788DF80A002E
:1088B000E0788DF80B0000208DF8280020780B90D0
:1088C0000DF1310002A91822FBF71AF90B208DF8DF
:1088D00030000020ADF84A000AA800F097F9C0B2B5
:1088E00032E42078052804D13C48002101700120A1
:1088F0002AE41A281CD10822611C0DF10A00FBF79A
:108900003AF9DDF80B00010221F0FF11000A00F036
:10891000FF100843CDF80B004FEA3040CDF80B00B4
:10892000BDF81000010A41EA0020ADF8100004E093
:108930002C2802D160788DF80A0001208DF82800DB
:1089400020780B900DF1310002A91822FBF7D8F81E
:108950000B208DF830000AA800F058F9C0B2FFF7DC
:10896000F3BB0120FFF7F0BB2078002802D00528D8
:1089700005D006E00FF29000FDF7AAFC01E0FFF73A
:1089800043F90120FFF7E0BB04F10802211D204656
:10899000FCF7E8F90120FFF7D7BB0000AC1301207A
:1089A000088A0020006000209255012094C3002016
:1089B000E8490308F4490308004A03080C4A03087D
:1089C0001C4A03082C4A0308384A0308444A03088F
:1089D000504A0308644A0308784A03089355012063
:1089E00050443A2053432025640000004C54205347
:1089F000532041444400000041504452204144442B
:108A0000202564202564000041505F5245515545A2
:108A1000535400007C4870472DE9F04182B00C4669
:108A20001646012500282DD106EB8600764901EB7C
:108A3000C007284600FA04F8F86810EA080F08D0C2
:108A40002346FA6831460FF25030F9F7BAFB02209C
:108A500046E04FF0FF30009003462A4679682046F2
:108A600006F007FB00280BD02346FA6831460FF2C8
:108A70003830F9F7A6FBF86848EA0000F8602EE005
:108A800002202DE001282AD106EB86005E4901EB89
:108A9000C007284600FA04F8F86810EA080F08D161
:108AA0002346FA6831460FF21030F9F78AFB0325A6
:108AB00015E04FF0FF332A467968204606F046FB62
:108AC000002807D02346FA6831460FF2FC20F9F758
:108AD00078FB00E00325F86820EA0800F8602846E3
:108AE000BDE8F68107F0B3BA02B58AB00021ADF84F
:108AF000221001910A218DF8081000218DF809102B
:108B00008DF80A1005218DF80010019004220AA9A1
:108B10000DF10900FBF72FF80020ADF8220000A8A6
:108B200000F074F80BB000BD80B508F0F3FA0FF256
:108B3000A820BDE80240F9F744BB38B544788578F1
:108B40000078032822D01A2802D02C282AD031BD40
:108B5000012C0CD1012009F0D0FE012322461A215C
:108B60000FF2802001B0BDE83040F9F72ABB022C9B
:108B700021D1022009F0C1FE022322461A210FF260
:108B8000742001B0BDE83040F9F71BBB012C12D1B5
:108B9000284608F0CAFA29460FF26C20BDE8344096
:108BA000F9F70FBB012C06D129460FF26820BDE86A
:108BB0003440F9F706BB31BD0FB480B5002805D1AC
:108BC0000846002802D11046002804D00AF0E7FB2E
:108BD000C046C04601E00AF0CBFB01BC5DF814FBC7
:108BE0000022C0B22D280CD240B200EB8003064810
:108BF00000EBC300C068012303FA01F1084200D072
:108C00001A46104670470000A4E0002030B585B039
:108C10000446012594F90000062800F2A880DFE848
:108C200000F004284B667D9EA20004F1090182B089
:108C300068461822FAF764FF0CBC94F908106068C3
:108C400040B206F00FFE02280AD1606800B207F0B9
:108C50001CF8002561680FF2C410F9F7B2FA8CE035
:108C6000032840F08A8061680FF2B810F9F7A9FA7A
:108C700083E060681A280BD104F1090007F0C5FAF7
:108C8000237CE268E17A0FF2A410F9F79AFA05E082
:108C90002C2803D104F1090007F0B7FA94F9081061
:108CA000606840B206F0F8FE032866D161680FF2F2
:108CB0009410F9F786FA60E0618C00A806F0FFFFD7
:108CC0009DF9040002280AD1009800B206F0DDFFE9
:108CD000002500990FF27410F9F773FA4DE003289C
:108CE0004BD100990FF26C10F9F76BFA45E00AF0DE
:108CF00063FC02280AD1606800B206F0C6FF0025B6
:108D000061680FF25810F9F75CFA36E0032834D1A5
:108D100061680FF25010F9F754FA2EE060680528E8
:108D20000CD128460AF00FFD02280DD0032824D1CB
:108D300061680FF24010F9F744FA1EE002281CD1D6
:108D40000AF005FE0228F1D1606800B206F09DFF2E
:108D5000002561680FF21410F9F733FA0DE0204690
:108D600007F013F809E0204607F0D2F905E0616842
:108D70000FF20810F9F725FA0025284605B030BD96
:108D8000012070470FB4022004B0704701207047E3
:108D90000020704770470000534D41432025642058
:108DA0002564202564000000534D412025642025C2
:108DB0006420256400000000534D524320256420A8
:108DC0002564202564000000534D52202564202591
:108DD00064202564000000005044205365745354FF
:108DE0000000000041542052492D256420256420B4
:108DF00025640000415420524920426174202D25F1
:108E0000642025642025640050442055542D256499
:108E100000000000534C4D2025640000414C4F469B
:108E200020256400414C4346202564004F4A4820D9
:108E3000454C2030782578203078257820307825EA
:108E400078000000524C434620256400504C4F46A9
:108E500020256400504C43462025640050414F4675
:108E600020256400504143462025640050504F4661
:108E70002025640050504346202564004558204C6E
:108E80004D454C2025640000010040F10980F44666
:108E9000404200F005F851F000416047010000BF7A
:108EA00009D0B0FA80F18840C91CC1F58461090578
:108EB00001EBD02140057047B0B581EA030C0CF0FE
:108EC000004C40F2FF7515EA11541DBF15EA135707
:108ED000AC42AF4239E0E41923EA455343F480132E
:108EE000C90241F0004141EA505EC7021100A7FBF0
:108EF000020200284FF00000EEFB01204FF00001BD
:108F0000E3FB072118BF42F001024018002149414C
:108F1000E3FB0E01A4F580640F0302D2520040412E
:108F2000494154F101046CDD470872F1004250F1EF
:108F3000000051EB0451A1F580115CBF41EA0C0126
:108F4000B0BD4CEA05510020B0BD05EA1357AC4254
:108F500014BFAF4241E050EA410E1CBF52EA430E3B
:108F600002E061460020B0BD24423C441BD15FEAD0
:108F7000070EF6D0090302BF01460020AEF1140E21
:108F8000B1FA81F7AEEB070401FA07FE0C37C7F11F
:108F9000200100FA07F7C8404EEA000E23EA4553C5
:108FA00043F48013A2E733F00043B3FA83F704BF1E
:108FB000B2FA82FE77440B3FE41BB7F1200E2FBFBD
:108FC00002FA0EF3BB40C7F1200E22FA0EFE38BFA4
:108FD00043EA0E03BA40641C82E750EA410E14BF14
:108FE00052EA430E6FF000014FF4001717EB430FE6
:108FF0008ABF194617EB410FB5E74CEA055100202F
:10900000B0BDD4F10104B4F120070FDAC4F1200798
:10901000520828BF42F0010210FA07F501FA07F7DB
:10902000E1BF2A43E0403843E1400FE0352C98DCB3
:10903000C7F1200452EA400220FA07F218BF42F0BA
:10904000010231FA07F0A1400A43002172F1004207
:1090500050F1000051EB0C01B0BD00005FF0FF0CBF
:109060001CEAD05114BF614506E0C110400721F051
:10907000E04101F16051704779B900F00041000210
:109080000AD0B0FA80FC00FA0CF001F16051A1EBBB
:109090000C5101EBD0214005704741020CBF40F458
:1090A000E0016FF000010020704700004FEAF17C02
:1090B000BCF1E04C2CBFBCF5001F11E05FEA4C0C8A
:1090C00034BFBCF17F5F2EE05FEA9C0C4FEA0C1CC2
:1090D0004FEA3C0CC10071F100414CEB50707047FD
:1090E000C90241EA5051C00218BF41F0010141F0EC
:1090F00000414FEA6C50C0F10900212810D240EA2B
:10910000CC7CCCF1200C11FA0CF070F10040CCF1C9
:10911000200C21FA0CF00CF0004C40EB0C007047D6
:109120004FEACC707047490011F5001F04D84FEA90
:10913000CC10FF30C0057047C817704762F30F228C
:1091400062F31F42401810F0030308D0C91A1FD35E
:10915000DB0748BF00F8012D28BF20F8022D1300BF
:1091600030B414461546103928BF20E93C00FAD81F
:10917000490728BF20E90C0048BF40F8042D8900AA
:1091800028BF20F8022D48BF00F8012D30BC7047E1
:10919000C91818BF00F8012DCB0728BF00F8012D12
:1091A00070470000DFF8B01100220A700A70012831
:1091B00002D0042803D070470120087070470520B2
:1091C0000870704765490860704710B464494A6880
:1091D00002F00C02644B082A12D10A680C6804F0F1
:1091E0003F04B3FBF4F30A68C2F388125A430B68D6
:1091F000C3F301435B1C5B00B2FBF3F2026000E0CF
:1092000003604A6802F0F003584A1B099B5C04683B
:1092100024FA03F343604C6804F4E054A40AA45C09
:10922000E3408360496801F46041490B895C42680E
:1092300022FA01F1C16010BC70474A4900F4407243
:10924000B2F5407F06D10A6822F4F812484B034079
:109250001A430A608A6E000552EA10508866704709
:10926000444908607047444908607047434A0029F0
:10927000116802D008431060704721EA00001060B6
:1092800070473F4A0029116802D0084310607047B8
:1092900021EA0000106070473A4A0029116802D0A4
:1092A00008431060704721EA000010607047364A9A
:1092B0000029116802D008431060704721EA0000BD
:1092C00010607047314A0029116802D008431060CD
:1092D000704721EA0000106070472D4A002911688C
:1092E00002D008431060704721EA00001060704708
:1092F000284A0029117802D008431070704721EAEB
:1093000000001070704700214209124B012A01D160
:109310001A6804E0022A01D11A6F00E05A6F012393
:1093200000F01F0003FA00F0024200D01946084680
:1093300070471948016841F0807101607047002151
:10934000164A1268024200D00121084670471449AB
:10935000087070470038024070380240800E474263
:1093600004380240083802400024F400BC89002080
:10937000FFFCFF0F3C0E4742400E47423038024090
:109380004038024044380240103802402038024041
:10939000243802400D380240743802400C38024034
:1093A0000E38024080B52749884209D1012108467C
:1093B000FFF77DFF00210120BDE80440FFF777BFE4
:1093C0002149884209D101210220FFF770FF0021C5
:1093D0000220BDE80440FFF76ABF1C49884209D15A
:1093E00001210420FFF763FF00210420BDE80440B1
:1093F000FFF75DBF1649884209D101210820FFF718
:1094000056FF00210820BDE80440FFF750BF114976
:10941000884209D101211020FFF749FF00211020C7
:10942000BDE80440FFF743BF0B49884209D1012141
:109430008020FFF73CFF00218020BDE80440FFF7BB
:1094400036BF01BD00000240000402400008024097
:10945000000C024000100240001C0240F0B4002248
:1094600032E0012393400C681C409C422BD15400F5
:109470000325A540ED4306682E40066006680F7977
:10948000A7403E4306600E79012E01D0022E11D175
:1094900086682E40866086684F79A7403E43866086
:1094A000466826EA0303436043688E799640B6B265
:1094B00033434360C3682B40C360C368CD7905FA6A
:1094C00004F42343C360521C102ACAD3F0BC704773
:1094D0004FF6FF7101600021017141718171C1710D
:1094E000704700220069084200D0012210467047F0
:1094F000018370474183704710B4CB1000EB8300A9
:1095000001F007018900036A0F248C40A343036222
:10951000036A02FA01F11943016210BC70470000AE
:1095200080B5434988420BD101214FF40010FFF769
:10953000C9FE00214FF40010BDE80440FFF7C2BE91
:109540003C4988420BD101214FF48000FFF7BAFE5D
:1095500000214FF48000BDE80440FFF7B3BE364958
:1095600088420BD101214FF40000FFF7ABFE002130
:109570004FF40000BDE80440FFF7A4BE01BD7FB575
:1095800004460D46A68800A8FFF71FFE02992B4847
:10959000B1FBF0F04FF6C07232400243A280228845
:1095A0004FF6FE731A4022802A68254B9A420AD24F
:1095B0005200B1FBF2F10A4692B2042A00D2042111
:1095C000401C208421E0EB884BF6FF76B34204D1A7
:1095D00002EB4202B1FBF2F106E019235A43B1FB60
:1095E000F2F141F4804189B20A0502D141F0010152
:1095F00089B241F4004180B24FF4967250434FF467
:109600007A7290FBF2F0401C2084A183208840F005
:109610000100208020884FF6F5310840A9880843D2
:10962000698908432080A8892989084320817FBD52
:109630000054004000580040005C004040420F00D1
:10964000A18601000029018803D041F001010180B9
:1096500070474FF6FE721140018070470029018863
:1096600003D041F48071018070474FF6FF621140D2
:10967000018070470029018803D041F40071018006
:1096800070474FF6FF52114001807047002A02D008
:1096900041F0010101E001F0FE0101827047002963
:1096A000018803D041F48061018070474FF6FF329A
:1096B0001140018070470029018803D041F4004126
:1096C000018070474904490C0180704782B002460E
:1096D000002003460193009300920A0F01920902B1
:1096E000090A019A002A03D0009A1432009203E07A
:1096F000090C009A18320092009A12680A4200D0AF
:10970000012002B07047000080B5254988420BD186
:1097100001214FF48050FFF7E0FD00214FF480500D
:10972000BDE80440FFF7D9BD1E4988420BD1012195
:109730004FF48040FFF7C6FD00214FF48040BDE8A4
:109740000440FFF7BFBD184988420BD101214FF4F7
:109750000040FFF7B7FD00214FF40040BDE8044092
:10976000FFF7B0BD01BD028802F441520B881A43D5
:109770004B881A438B881A43CB881A430B891A43A8
:109780004B891A438B891A43CB891A430280828BF7
:109790004FF2FF731A408283098A018270470000EA
:1097A0000030014000380040003C004000290188A2
:1097B00003D041F04001018070474FF6BF72114065
:1097C00001807047002A828802D01143818070474F
:1097D00022EA01018180704700220089084200D0FE
:1097E00001221046704700000168490849000160E5
:1097F0000021016041608160C160016121214161FE
:109800006A49884203D16A483D210160704769492D
:10981000884204D166484FF474610160704766491C
:10982000884204D162484FF4741101607047634963
:10983000884204D15E484FF074610160704760490E
:10984000884203D15A485F49416070475E49884267
:1098500003D157485D49416070475D49884203D153
:1098600053485C49416070475B49884204D1504885
:109870004FF03D51416070475849884203D15848E4
:109880003D21016070475749884204D154484FF444
:109890007461016070475449884204D150484FF4C4
:1098A0007411016070475149884204D14C484FF00F
:1098B0007461016070474E49884203D1484841496C
:1098C000416070474B49884203D145483F49416058
:1098D00070474949884203D141483E494160704739
:1098E0004649884203D13E484FF03D5141607047A0
:1098F0000268434B1A400B681A43CB681A434B6902
:109900001A438B691A43CB691A430B6A1A434B6A91
:109910001A438B6A1A434B6B1A438B6B1A430260D0
:109920004269D208CB6A53EAC2020B6B1A43426106
:109930000A6942604A6882608968C160704700298C
:10994000016803D041F001010160704749084900F6
:1099500001607047002A01D001617047C160704703
:10996000006800F00100704700221C4B984201D2B1
:10997000244800E024488B0001D5406800E00068DE
:1099800008402249084200D0012210467047134A7D
:10999000904201D21B4800E01B481C4A0A40890043
:1099A00001D5C260704782607047000010600240BD
:1099B0000860024028600240406002405860024057
:1099C000706002403D00002088600240400F00208F
:1099D000A060024000003D20B860024010640240D8
:1099E0000864024028640240406402405864024017
:1099F0007064024088640240A0640240B86402407F
:109A00003F801CF000600240006402407D0F7D0F2B
:109A100002490860704702490860704720000E4202
:109A200024000E4270B504460026DFF83854CA20E0
:109A3000E8615320E86100F018F8002811D0286888
:109A400020F0400028602868216808432860A0684A
:109A5000A860A868616840EA0140A86000F024F8A6
:109A60000126FF20E861304670BD81B000200090E3
:109A7000DFF8F4030168490613D44FF0FF310160A9
:109A8000016801F04001009A521C0092009AB2F560
:109A9000803F01D00029F3D00068800900F0010068
:109AA00000E0012001B07047DFF8BC03016821F03D
:109AB00080010160704781B000200090DFF8A8139A
:109AC000CA20886153208861086820F0A0000860DF
:109AD000086800F02000009A521C0092009AB2F52B
:109AE000003F01D00028F3D00868400900F00100D1
:109AF000FF228A6101B07047F8B507460E46002480
:109B0000DFF85C53002FA86804D140060AD4204631
:109B1000F07007E0400603D5307800F0BEF901E0B0
:109B20002046F0703078002F09D07178090241EAA0
:109B30000040B1780843F17840EA01460FE000F0B8
:109B4000A1F90746707800F09DF9000240EA074746
:109B5000B07800F097F93843F17840EA0146CA201E
:109B6000686253206862FFF780FF00280FD0DFF89B
:109B7000FC0230402860FFF797FFA868800605D4F4
:109B8000FFF799FF002802D0012400E00124FF2004
:109B900068622046F2BD10B50C46DFF8C4120968B1
:109BA000DFF8C82211400A0C02F03F0323700B0AB1
:109BB00003F07F03637001F07F01A17002F04001A8
:109BC000E17000280BD1207800F067F920706078F0
:109BD00000F063F96070A07800F05FF9A07010BD2C
:109BE000DFF88C12486A0968704770B506460D4662
:109BF0000024002E06D16878C10603D500F0EF00DE
:109C00000A306870002E05D0687800F046F9A87810
:109C100000F043F9E878002E09D06978090241EA9A
:109C20000040A9780843297840EA41360FE000F067
:109C300029F90646687800F025F9000240EA064650
:109C4000A87800F01FF93043297840EA4136DFF860
:109C50002052CA20286253202862FFF706FF0028FE
:109C60000FD0DFF8100230402860FFF71DFF686852
:109C7000800605D4FFF71FFF002802D0012400E072
:109C80000124FF202862204670BD10B50C46DFF885
:109C9000E0110968DFF8DC2111400A0CE2700A0AC1
:109CA00002F01F02627001F03F02A270490B01F046
:109CB0000701217000280BD1E07800F0EEF8E07089
:109CC000607800F0EAF86070A07800F0E6F8A07024
:109CD00010BDDFF89011CA22CA615322CA610A6816
:109CE000D208D2000A600A6810430860FF20C861E9
:109CF0007047DFF88411CA220A6153220A610860A2
:109D0000FF200861704781B000210091DFF85411F5
:109D1000CA22CA615322CA610028086804D040F4EC
:109D200080600860012012E020F4806008604868CC
:109D300000F00400009A521C0092009AB2F5803F95
:109D400001D00028F3D04868800800F00100FF220D
:109D5000CA6101B0704781B000220092474A009268
:109D6000009A02EB800000900098016001B07047FB
:109D700081B00021009141490091009901EB8000E0
:109D800000900098006801B0704738B50024224662
:109D9000344DCA23EB615323EB616B681B0701D47D
:109DA00006E0521C6B681B0702D5B2F5805FF8D144
:109DB0006A68120709D42A68D20606D40843686282
:109DC000FFF779FE002800D00124FF20E86120463B
:109DD00032BD244ACA23D3615323D36100F0040364
:109DE00020F004000029116805D008431060906B32
:109DF0001843906305E021EA00001060906B9843DF
:109E00009063FF20D06170470021174A12681C4BF5
:109E10001A40024200D001210846704710B40021C8
:109E2000104A936B03F004031468044003EAD03330
:109E30002343526802EA101002D0000400D001212E
:109E4000084610BC704708490003000C40F0800031
:109E50000A6802F0800262EA0000086070470000B1
:109E600000280040082800400C2800407F7F7F0029
:109E7000042800403FFFFF00142800405028004005
:109E80007F3F0100002101E0491C0A38C0B20A28C6
:109E9000FAD240EA0110C0B27047010901EB810219
:109EA00000F00F0000EB4200C0B2704730B4016810
:109EB000CB4321498279002A27D00A4614682340DF
:109EC000136053680468A34353600379CC18236874
:109ED00005682B43236093680468A3439360D368A9
:109EE0000468A343D36043790568102B07D19168B8
:109EF00029439160D16800680843D0600AE051FAB4
:109F000083F420682843206004E000790C1820685E
:109F10001840206030BC70470021074A1368034096
:109F20005269024202D0002B00D00121084670473E
:109F30000249086070470000003C0140143C0140A9
:109F40001949084319490860704770B403781A46E4
:109F50000121C478002C1DD0144B1B6803F4E0636E
:109F6000C3F5E0631B0A4478C3F10405AC4085786F
:109F70000F2646FA03F32B4023431B010C4C1355C9
:109F8000007842110B4B00F01F0001FA00F043F87B
:109F9000220006E05011084A03F01F03994042F8DE
:109FA000201070BC704700000000FA050CED00E0C6
:109FB00000E400E000E100E080E100E030B401F006
:109FC0000302920021F00301054BCC580F25954068
:109FD000AC43CC50CC5890402043C85030BC704764
:109FE0000838014080B501214FF48070FFF775F902
:109FF00000214FF48070BDE80440FFF76EB942685D
:10A000004D4B1A400B7942EA03220B681A43426017
:10A0100082684A4B1A400B691A43CB681A438B6813
:10A020001A434B7942EA43028260C26A22F4700208
:10A03000097D491EC9B242EA0151C162704700213F
:10A040000160017141718160C1600161012101758F
:10A0500070473B490A683B4B1A4003681A43436800
:10A060001A4383681A43C068104308607047002190
:10A07000016041608160C16070470029816803D040
:10A0800041F00101816070474908490081607047D3
:10A0900070B407240A290BD3C568A1F10A0606EBA0
:10A0A0004606B44025EA0404B3402343C36008E0F5
:10A0B000056901EB4106B44025EA0404B34023439B
:10A0C00003611F23072A0AD2446B521E02EB82024D
:10A0D000934024EA030391401943416316E00D2A9B
:10A0E0000AD2046BD21F02EB8202934024EA0303DC
:10A0F00091401943016309E0C46A0D3A02EB820200
:10A10000934024EA030391401943C16270BC704735
:10A11000816841F08041816070470029816803D0E7
:10A1200041F480618160704721F4806181607047F3
:10A13000C06C80B270470000FFFEFFFCFDF7FFC05F
:10A1400004230140E030FCFF00220068084200D0F8
:10A15000012210467047000013F0004C03D55B420B
:10A16000524263F100039CEA210C00F0178010B505
:10A17000644603D34942404261F1000100F00EF809
:10A18000640004D34942404261F10001244203D5F6
:10A190005B42524263F1000310BD00001B4213D129
:10A1A000094236D12AB18446B0FBF2F002FB10C25C
:10A1B000704709F02DBCFCD30022002370470B0030
:10A1C0000200002100207047904271EB030CF6D38F
:10A1D00070B5B1FA81F4B3FA83F52C1BA340C4F136
:10A1E000200532FA05F63343A2405FF00046E64010
:10A1F00002E05B085FEA3202841A71EB030524BFB8
:10A20000204629467641F4D302000B00300000219D
:10A2100070BD012ACFD970B5140C20D0B1FA81F4E9
:10A22000B2FA82F5C4F120046419B4F12006D6D341
:10A23000B2405FF00044F440002502E052085FEABB
:10A240003303C61A71EB020E24BF304671466441D7
:10A250006D41F3D302000B002000290070BD0C46B5
:10A26000B1FBF2F102FB11452D0445EA1045B5FBA7
:10A27000F2F402FB145580B240EA0545B5FBF2F05A
:10A2800002FB105240EA044070BD000010B504000B
:10A2900010480078002805D10F4809F0E0FB0D4870
:10A2A000012101700C4809F010FC20000AF08CFA22
:10A2B0000400094809F03DFC200010BD10B5040061
:10A2C000054809F002FC20000AF0CAFB024809F028
:10A2D00030FC10BD9C5501203C520120BFF34F8F34
:10A2E000DFF8B40C006810F4E060DFF8B01C08433D
:10A2F000DFF8A41C0860BFF34F8FFEE700B583B002
:10A300000020ADF8040000208DF8060000208DF834
:10A310000700012000900DF106037622D0210020D5
:10A32000F8F71FF8002801D1002044E076208DF8CE
:10A3300004009DF8060050F020008DF8050002236F
:10A3400001AAD0210020F7F7B2FF002801D1002098
:10A3500031E0012000900DF107034922D0210020B7
:10A36000F7F7FFFF002801D1002024E049208DF8F5
:10A3700004009DF8070050F001008DF8050002234D
:10A3800001AAD0210020F7F792FF002801D1002078
:10A3900011E076208DF804009DF806008DF8050088
:10A3A000022301AAD0210020F7F781FF002801D164
:10A3B000002000E001200EBD38B50400F7F77FFE55
:10A3C0000500DFF8040D0078401CDFF8FC1C087065
:10A3D000DFF8F40C4078F021084202D09920FBF716
:10A3E000D9FBFBF744FCDFF8E00C4078401CDFF8B9
:10A3F000D81C4870210089B22800F8F74DF8DFF822
:10A40000C80C4078F021084202D09920FBF7C2FB2B
:10A41000DFF8B40C4078401EDFF8AC1C4870C0B2C6
:10A42000002801D1FBF71DFCFCF777FA31BD10B510
:10A4300082B00020ADF80000F7F741FE04006B2069
:10A440008DF8000080208DF80100022300AAD021A1
:10A450000020F7F72CFF002801D1002094E06421B0
:10A460002000F8F719F8FFF749FF002801D1002074
:10A470008AE06B208DF8000000208DF80100022397
:10A4800000AAD0210020F7F712FF002801D10020F8
:10A490007AE028212000F7F7FFFF19208DF800004F
:10A4A00004208DF80100022300AAD0210020F7F734
:10A4B000FEFE002801D1002066E01A208DF8000081
:10A4C00003208DF80100022300AAD0210020F7F715
:10A4D000EEFE002801D1002056E01B208DF8000080
:10A4E00018208DF80100022300AAD0210020F7F7E0
:10A4F000DEFE002801D1002046E01D208DF800007E
:10A5000003208DF80100022300AAD0210020F7F7D4
:10A51000CEFE002801D1002036E06A208DF8000030
:10A5200000208DF80100022300AAD0210020F7F7B7
:10A53000BEFE002801D1002026E06C208DF800002E
:10A540003F208DF801009DF80110DFF8500DF7F75E
:10A5500038FE022300AAD0210020F7F7A8FE002829
:10A5600001D1002010E06B208DF8000040208DF814
:10A570000100022300AAD0210020F7F798FE00284E
:10A5800001D1002000E0012016BD0178407850EA9A
:10A59000012000B2704780B502200090DFF8003D36
:10A5A0006B22D0210020F7F7DCFE002801D100202B
:10A5B0005BE001200090DFF8EC3C1A22D021002063
:10A5C000F7F7CFFE002801D100204EE001200090D7
:10A5D000DFF8D43C1B22D0210020F7F7C2FE002870
:10A5E00001D1002041E001200090DFF8C03C1C2296
:10A5F000D0210020F7F7B5FE002801D1002034E07B
:10A6000001200090DFF8A83C1D22D0210020F7F7A0
:10A61000A8FE002801D1002027E001200090DFF8EB
:10A62000943C6A22D0210020F7F79BFE002801D13C
:10A6300000201AE001200090DFF87C3C3822D02175
:10A640000020F7F78EFE002801D100200DE0012048
:10A650000090DFF8683C1922D0210020F7F781FE36
:10A66000002801D1002000E0012002BD80B50020BB
:10A67000ADF800001A208DF80000DFF8240C0079F6
:10A680008DF80100022300AAD0210020F7F70FFE69
:10A69000002801D1002090E01B208DF80000DFF899
:10A6A000000C40798DF80100022300AAD02100207F
:10A6B000F7F7FDFD002801D100207EE01C208DF879
:10A6C0000000DFF8DC0B80798DF80100022300AA7E
:10A6D000D0210020F7F7EBFD002801D100206CE02D
:10A6E0001D208DF80000DFF8B80BC0798DF801004F
:10A6F000022300AAD0210020F7F7D9FD002801D1BC
:10A7000000205AE06A208DF80000DFF8940BC07832
:10A710008DF80100022300AAD0210020F7F7C7FD21
:10A72000002801D1002048E019208DF80000DFF852
:10A73000700B80788DF80100022300AAD021002040
:10A74000F7F7B5FD002801D1002036E038208DF85C
:10A750000000DFF84C0B007A8DF80100022300AAFC
:10A76000D0210020F7F7A3FD002801D1002024E02C
:10A770006B208DF80000DFF8280B00788DF80100C1
:10A78000022300AAD0210020F7F791FD002801D173
:10A79000002012E06C208DF80000DFF8040B4078F8
:10A7A0008DF80100022300AAD0210020F7F77FFDD9
:10A7B000002801D1002000E0012002BD10B582B0C8
:10A7C0000020ADF80000DFF8D80A0078400612D566
:10A7D0006B208DF8000000208DF80100022300AAF4
:10A7E000D0210020F7F763FD002801D10020C9E047
:10A7F0003220FFF7E1FD6C208DF80000DFF8A00AA1
:10A80000407810F0F8008DF80100022300AAD02152
:10A810000020F7F74CFD002801D10020B2E06A20AB
:10A820008DF8000000208DF80100022300AAD0213D
:10A830000020F7F73CFD002801D10020A2E0002411
:10A8400000E0641C062C10DA14F113008DF80000EF
:10A8500000208DF80100022300AAD0210020F7F784
:10A8600026FD0028EDD100208CE019208DF8000095
:10A8700000208DF80100022300AAD0210020F7F764
:10A8800016FD002801D100207CE01A208DF8000080
:10A8900003208DF801004FF4FA642000FA281DD03F
:10A8A000B0F5FA7F13D0B0F57A7F09D0B0F5FA6F22
:10A8B00019D19DF8010050F018008DF8010016E044
:10A8C0009DF8010050F010008DF801000FE09DF898
:10A8D000010050F008008DF8010008E09DF801002B
:10A8E0008DF8010003E09DF801008DF801000223BE
:10A8F00000AAD0210020F7F7DAFC002801D10020BF
:10A9000040E0FA2C14D0B4F5FA7F0DD0B4F57A7F7C
:10A9100006D0B4F5FA6F0FD103208DF801000EE0D8
:10A9200002208DF801000AE001208DF8010006E008
:10A9300000208DF8010002E000208DF801001B20AE
:10A940008DF800009DF80100C0008DF80100022381
:10A9500000AAD0210020F7F7AAFC002801D100208E
:10A9600010E038208DF8000000208DF8010002234F
:10A9700000AAD0210020F7F79AFC002801D100207E
:10A9800000E0012016BD00B583B00020ADF8060040
:10A9900000208DF804006B208DF8060001208DF852
:10A9A000070002230DF10602D0210120F7F77FFCFA
:10A9B000002801D1002023E02820FFF7FDFC012022
:10A9C000009001AB6C22D0210120F7F7CAFC0028CF
:10A9D00001D1002014E06C208DF806009DF80400E1
:10A9E00010F0C0008DF8070002230DF10602D021FF
:10A9F0000120F7F75CFC002801D1002000E00120D5
:10AA00000EBD2DE9F04F85B004000D0016001F00AB
:10AA10000020ADF8040002A80021002206C008387A
:10AA200006208DF8060038208DF8040000208DF8EF
:10AA30000500022301AAD0210120F7F738FC0028E5
:10AA400002D15FF0FF3070E123208DF80400002078
:10AA50008DF80500022301AAD0210120F7F727FC79
:10AA6000002802D15FF0FF305FE16A208DF804001A
:10AA700000208DF80500022301AAD0210120F7F75C
:10AA800016FC002802D15FF0FF304EE16A208DF8FD
:10AA9000040004208DF80500022301AAD021012022
:10AAA000F7F705FC002802D15FF0FF303DE11A20E6
:10AAB0008DF8040001208DF80500022301AAD021A1
:10AAC0000120F7F7F4FB002802D15FF0FF302CE102
:10AAD00019208DF8040000208DF80500022301AA3A
:10AAE000D0210120F7F7E3FB002802D15FF0FF300F
:10AAF0001BE11B208DF804008DF80540022301AAFC
:10AB0000D0210120F7F7D3FB002802D15FF0FF30FE
:10AB10000BE1FFB2002F0FD01C208DF804008DF840
:10AB20000540022301AAD0210120F7F7C0FB00282D
:10AB300002D15FF0FF30F8E064B2002C02D0C820F0
:10AB4000FFF73AFC6A208DF8040044208DF80500D8
:10AB5000022301AAD0210120F7F7A9FB002802D186
:10AB60005FF0FF30E1E023208DF80400FFB2002FFA
:10AB700003D008208DF8050002E070208DF8050054
:10AB8000022301AAD0210120F7F791FB002802D16E
:10AB90005FF0FF30C9E00A20FFF70EFC002408E058
:10ABA000E4B2002045F82400E4B2002046F8240076
:10ABB000641CE4B2032CF3D35FF00009B9F1320F47
:10ABC0006EDA0A20FFF7F8FB0220009002AB722237
:10ABD000D0210120F7F7C5FB002802D15FF0FF303C
:10ABE000A3E002A8FFF7D1FC9DF8061090FBF1F856
:10ABF000B8F1070F02DA7FF0010096E000241AE0B6
:10AC00005FFA8AFA55F82AB05FFA8AFA02A810EBBE
:10AC10004A00FFF7BAFC0BFA80F05FFA8AFA45F8AF
:10AC20002A001AF1010A5FFA8AFABAF1030FE7D390
:10AC300019F10109641CE4B24445BFDAB9F1320FDD
:10AC4000BCDA9DF80600009002AB7422D0210120EE
:10AC5000F7F787FB002802D15FF0FF3065E0FFB215
:10AC6000002F1AD05FF0000A5FFA8AFABAF1030FD8
:10AC7000DED25FFA8AFA56F82AB05FFA8AFA02A898
:10AC800010EB4A00FFF781FC0BFA80F05FFA8AFABA
:10AC900046F82A001AF1010AE6E75FF0000AC2E767
:10ACA00023208DF8040000208DF80500022301AA5E
:10ACB000D0210120F7F7FBFA002802D15FF0FF3026
:10ACC00033E05FF0000A0FE05FFA8AFA55F82A00D5
:10ACD0004FF47A714843322190FBF1F05FFA8AFA1F
:10ACE00045F82A001AF1010A5FFA8AFABAF1030F4D
:10ACF000EAD3FFB2002F17D05FF0000A0FE05FFA2F
:10AD00008AFA56F82A004FF47A714843322190FBB0
:10AD1000F1F05FFA8AFA46F82A001AF1010A5FFA9E
:10AD20008AFABAF1030FEAD3012005B0BDE8F08F2B
:10AD30002DE9F04389B004000D00160000275FF0F4
:10AD4000010801A8002101605FF0000903200090C4
:10AD500001AB0D22D0210120F7F703FB002801D120
:10AD60005FF0FF385FF0000905E005A8002140F81A
:10AD7000291019F10109B9F1030F11DA01A819F825
:10AD800000000028F1D001A819F80000DFF8C81A67
:10AD900011EB400030F8020C05A941F82900E8E762
:10ADA0005FF000091FE002A850F82900DFF8AC1A94
:10ADB000884207DADFF8A80AF7F703FA012010FA49
:10ADC00009F0074302A850F82900DFF8981A8842D2
:10ADD00007DBDFF8940AF7F7F4F9012010FA09F01D
:10ADE000074319F10109B9F1030F2BDA55F82900CE
:10ADF00056F82910401A0AF0ABF802A941F82900C8
:10AE000005A850F829000028CDD002A850F8290044
:10AE100005A951F8291090FBF1F0B0F57A700AF00D
:10AE200097F824F8190034F9190040F2F511884216
:10AE3000D7DBDFF8380AF7F7C4F9012010FA09F078
:10AE40000743CEE7B4F904000090B4F90230B4F936
:10AE500000203900DFF8180AF7F7B3F9002F05D002
:10AE6000DFF8100AF7F7ADF97FF00208404640B26C
:10AE700009B0BDE8F08338B505000020ADF800004A
:10AE80000020ADF80200F7F71AF9040038208DF819
:10AE9000000000208DF80100022300AAD02100202C
:10AEA000F7F705FA002801D1002074E000F029FB33
:10AEB000002801D100206EE01F208DF800004B20FB
:10AEC0008DF80100022300AAD0210020F7F7EFF946
:10AED000002801D100205EE01E208DF80000062031
:10AEE0008DF80100022300AAD0210020F7F7DFF936
:10AEF000002801D100204EE069208DF80000C0201C
:10AF00008DF80100022300AAD0210020F7F7CFF925
:10AF1000002801D100203EE0012201210320F7F7A3
:10AF200042FB0020F7F741FB38208DF8000040205D
:10AF30008DF80100022300AAD0210020F7F7B7F90D
:10AF4000002801D1002026E0012028702000407D4B
:10AF5000C046012810D001212000F7F79DFABDF866
:10AF60000200401CADF80200BDF802003228EDD30B
:10AF7000DFF80409F7F725F9012200210320F7F78C
:10AF800012FB0020F7F711FB00F0B1FB002801D104
:10AF9000002000E0012032BD0CED00E00400FA05C5
:10AFA00070B58EB0040000A80021002206C0083849
:10AFB000012500260BA80021002200230EC00C381A
:10AFC00008A80021002200230EC00C3805A800218B
:10AFD000002200230EC00C3802A80021002200230A
:10AFE0000EC00C38FFF7D7FA002801D1002056E038
:10AFF000FFF7E4FB002806D00126FFF7C4FC002879
:10B0000003D100204BE0002049E0012302AA08A957
:10B010000020FFF7F6FC05006DB2012D04D0DFF82B
:10B020005408F7F7CEF81CE0012305AA0BA97FF01E
:10B030001F00FFF7E6FC05006DB2012D04D0DFF81C
:10B040002C08F7F7BEF80CE005AA02A900A8FFF744
:10B050006FFE05006DB2012D03D0DFF80408F7F78D
:10B06000B0F82670BDF800006070BDF90000001255
:10B07000A070BDF80200E070BDF90200001220715E
:10B08000BDF804006071BDF904000012A071E57103
:10B09000FFF7ECFA002801D1002000E001200EB0FB
:10B0A00070BD80B5DFF8D4070078002809D1FFF71C
:10B0B000BEF9002801D1002004E0DFF8C00701211B
:10B0C0000170012002BD0000D48800201CB50020C2
:10B0D0008DF806000020ADF80400F6F7F0FF04003C
:10B0E000012000900DF106036B22D0210020F7F71C
:10B0F00038F9002801D1002088E09DF80600602181
:10B10000084216D06B208DF804009DF8060010F060
:10B110009F008DF80500022301AAD0210020F7F737
:10B12000C6F8002801D1002070E014212000F7F7B4
:10B13000B3F9012000900DF106036C22D02100200C
:10B14000F7F70FF9002801D100205FE06C208DF89F
:10B1500004009DF8060010F0C7008DF805000223DA
:10B1600001AAD0210020F7F7A2F8002801D1002081
:10B170004CE00A212000F7F78FF91D208DF804001C
:10B1800043208DF80500022301AAD0210020F7F703
:10B190008EF8002801D1002038E01C208DF8040032
:10B1A00000208DF80500022301AAD0210020F7F726
:10B1B0007EF8002801D1002028E020208DF804002E
:10B1C00080208DF80500022301AAD0210020F7F786
:10B1D0006EF8002801D1002018E01F208DF804002F
:10B1E00080208DF80500022301AAD0210020F7F766
:10B1F0005EF8002801D1002008E0DFF8840600781E
:10B2000050F00100DFF878160870012016BD00B577
:10B2100083B000208DF806000020ADF80400012066
:10B2200000900DF106036C22D0210020F7F799F869
:10B23000002801D1002030E06C208DF804009DF83A
:10B24000060050F038008DF80500022301AAD02135
:10B250000020F7F72CF8002801D100201DE0DFF8CE
:10B260002006007880070FD46B208DF80400402062
:10B270008DF80500022301AAD0210020F7F717F866
:10B28000002801D1002008E0DFF8F405007810F074
:10B29000FE00DFF8EC15087001200EBDF84B030826
:10B2A0002453012028530120295301202A5301202F
:10B2B0002B530120275301202C530120265301201A
:10B2C00000B583B000208DF804000020ADF8060022
:10B2D0000120009001AB6C22D0210020F7F741F84B
:10B2E000002801D1002014E06C208DF806009DF8A4
:10B2F000040050F038008DF8070002230DF106021B
:10B30000D0210020F6F7D3FF002801D1002000E073
:10B3100001200EBD2DE9F04186B004000D0004A807
:10B320000021002206C008380020ADF80C000126DC
:10B33000DFF850050768F6F7C2FE8046DFF84805DB
:10B340000068401CDFF8401508600120009004AB45
:10B350006B22D0210020F7F704F8002801D100204B
:10B36000CCE09DF8100040061AD56B208DF80C003B
:10B370009DF8100010F0BF008DF80D00022303AA05
:10B38000D0210020F6F793FF002801D10020B5E07E
:10B3900014214046F7F780F8DFF8F004F6F711FFC4
:10B3A0000120009004AB6C22D0210020F6F7D9FFD9
:10B3B000002801D10020A1E09DF8100038210842AA
:10B3C0001ED06C208DF80C009DF8100010F0C70006
:10B3D0008DF80D00022303AAD0210020F6F767FFA5
:10B3E000002801D1002089E005214046F7F754F8F4
:10B3F000DFF89C04F6F7E5FEDFF898040121016010
:10B40000EDB2009504AB3B22D0210020F6F7A9FF56
:10B41000002805D1DFF88004F6F7D3FE00206DE0A8
:10B420009DF8110020709DF8100060709DF81300C9
:10B43000A0709DF81200E0709DF8150020719DF835
:10B4400014006071002000E0401C062806D2015D57
:10B45000DFF84824825C9142F6D00026F6B2012E35
:10B4600018D1DFF83C040068401CDFF83414086091
:10B47000DFF82C040068132804D1DFF82804F6F75D
:10B48000A0FE0BE0DFF818040068142806D1FEF7D0
:10B4900025FF03E0DFF808040021016006222100F7
:10B4A000DFF8F803F8F767FBDFF8DC030068C82172
:10B4B00090FBF1F201FB120000281ED1F86AC0686F
:10B4C0000290F86A80680190B4F904000090B4F921
:10B4D0000230B4F90020DFF8BC030168DFF8C803CC
:10B4E000F6F76FFEDFF8A0030068DFF8C0138842AC
:10B4F00003DBDFF8940300210160012006B0BDE802
:10B50000F08130B583B001240020ADF806000020A2
:10B510008DF80400F6F7D3FD05000120009001AB83
:10B520006B22D0210020F6F71CFF002801D100205B
:10B530008BE09DF8040040061AD56B208DF80600BC
:10B540009DF8040010F0BF008DF8070002230DF1F4
:10B550000602D0210020F6F7AAFE002801D1002023
:10B5600073E014212800F6F797FFD148F6F729FE7B
:10B570001D208DF8060008208DF8070002230DF12C
:10B580000602D0210020F6F792FE002801D100200B
:10B590005BE00120009001AB6C22D0210020F6F787
:10B5A000E0FE002801D100204FE06C208DF806005D
:10B5B0009DF8040050F080008DF804009DF8040010
:10B5C00050F007008DF804009DF8040010F0C7004B
:10B5D0008DF804009DF804008DF8070002230DF19A
:10B5E0000602D0210020F6F762FE002801D10020DB
:10B5F0002BE00120009001AB6B22D0210020F6F758
:10B60000B0FE002801D100201FE06B208DF806005D
:10B610009DF8040010F0BF008DF804009DF80400B0
:10B6200050F020008DF804009DF804008DF807000C
:10B6300002230DF10602D0210020F6F738FE002883
:10B6400001D1002001E02000C0B23EBD80B5002045
:10B65000ADF80000FFF755FF002801D1002045E0BC
:10B660001F208DF800004B208DF80100022300AA56
:10B67000D0210020F6F71BFE002801D1002035E084
:10B680001E208DF8000006208DF80100022300AA7C
:10B69000D0210020F6F70BFE002801D1002025E084
:10B6A00069208DF80000C0208DF80100022300AA57
:10B6B000D0210020F6F7FBFD002801D1002015E085
:10B6C000012201210320F6F76EFF38208DF80000DB
:10B6D00040208DF80100022300AAD0210020F6F7B7
:10B6E000E6FD002801D1002000E0012002BD80B568
:10B6F0000020ADF80000012200210320F6F753FFDF
:10B7000038208DF8000000208DF80100022300AAE7
:10B71000D0210020F6F7CBFD002801D1002058E011
:10B720006B208DF8000000208DF80100022300AA94
:10B73000D0210020F6F7BBFD002801D1002048E011
:10B740001D208DF8000000208DF80100022300AAC2
:10B75000D0210020F6F7ABFD002801D1002038E011
:10B760006C208DF8000046480078032803D10020A3
:10B770008DF8010012E042480078022803D13820F9
:10B780008DF801000AE03E480078012803D1072027
:10B790008DF8010002E03F208DF80100022300AA8D
:10B7A000D0210020F6F783FD002801D1002010E011
:10B7B00069208DF8000000208DF80100022300AA06
:10B7C000D0210020F6F773FD002801D1002000E011
:10B7D000012002BD80B50178012905D1FFF74BFB9F
:10B7E00000280AD1002009E00178022905D1FFF7DD
:10B7F000D7FB002801D1002000E0012002BD80B568
:10B800000020ADF800001D208DF800000878002809
:10B8100006D140208DF801002648F6F7D2FC05E05D
:10B8200043208DF801002448F6F7CBFC022300AA40
:10B83000D0210020F6F73BFD002801D1002000E0D8
:10B84000012002BD80B51D490020F9F757FF1C49B2
:10B850000B20F9F753FF01BD74330308003E490084
:10B86000C84C030801EFE700D04C0308C04C0308A4
:10B87000A04B0308D84C0308E04C03086352012096
:10B8800070550120006000202C540120E84C030872
:10B89000F04C03087C540120F84C03085C54012050
:10B8A000E05401207C4C0308104C0308A1860100E1
:10B8B000004D03089C4C0308A84C03087C050308B2
:10B8C000244B030810B50024DFF8540C007800283E
:10B8D0000AD1FEF7ACFD002801D1002007E0DFF817
:10B8E000400C0121017000E001242000C0B210BD15
:10B8F0001CB500208DF806000020ADF80400F6F716
:10B90000DEFB0400012000900DF106036B22D02124
:10B910000120F6F726FD002801D1002068E09DF8FF
:10B9200006006021084216D06B208DF804009DF8B7
:10B93000060010F09F008DF80500022301AAD02117
:10B940000120F6F7B4FC002801D1002050E01E21B0
:10B950002000F6F7A1FD012000900DF106036C22F6
:10B96000D0210120F6F7FDFC002801D100203FE0A6
:10B970006C208DF804009DF8060010F0F8008DF89A
:10B980000500022301AAD0210120F6F790FC00282F
:10B9900001D100202CE00A212000F6F77DFD1B20BC
:10B9A0008DF8040018208DF80500022301AAD0218B
:10B9B0000120F6F77CFC002801D1002018E01A20B5
:10B9C0008DF8040003208DF80500022301AAD02180
:10B9D0000120F6F76CFC002801D1002008E0DFF818
:10B9E000440B007850F00200DFF8381B087001208B
:10B9F00016BD00B583B000208DF806000020ADF81C
:10BA00000400012000900DF106036C22D0210120DA
:10BA1000F6F7A7FC002801D1002030E06C208DF85B
:10BA200004009DF8060050F007008DF80500022381
:10BA300001AAD0210120F6F73AFC002801D100200C
:10BA40001DE0DFF8E00A0078C0070FD46B208DF806
:10BA5000040040208DF80500022301AAD021012016
:10BA6000F6F725FC002801D1002008E0DFF8B40A31
:10BA7000007810F0FD00DFF8AC1A087001200EBD50
:10BA800000B583B000208DF804000020ADF806005A
:10BA90000120009001AB6C22D0210120F6F761FC5F
:10BAA000002801D1002014E06C208DF806009DF8DC
:10BAB000040050F007008DF8070002230DF1060284
:10BAC000D0210120F6F7F3FB002801D1002000E08F
:10BAD00001200EBD7FB5040002A80021002206C08F
:10BAE000083800260020ADF80400F6F7E8FA050053
:10BAF0000120009002AB6B22D0210120F6F731FC2F
:10BB0000002801D1002083E09DF80800400625D5DB
:10BB10006B208DF804009DF8080010F0BF008DF830
:10BB20000500022301AAD0210120F6F7C0FB00285E
:10BB300001D100206CE032212800F6F7ADFCDFF8DF
:10BB4000E809F6F73EFB002603E0F6B20020305588
:10BB5000761CF6B2062EF8D3012059E001200090A1
:10BB600002AB6C22D0210120F6F7FBFB002801D1AB
:10BB700000204DE09DF808000721084225D06C20E8
:10BB80008DF804009DF8080010F0F8008DF805000D
:10BB9000022301AAD0210120F6F789FB002801D158
:10BBA000002035E00A212800F6F776FCDFF87C0952
:10BBB000F6F707FB002603E0F6B200203055761CAE
:10BBC000F6B2062EF8D3012022E00620009002AB48
:10BBD0004322D0210120F6F7C4FB002805D1DFF86D
:10BBE0005009F6F7EEFA002012E09DF809002070E7
:10BBF0009DF8080060709DF80B00A0709DF80A0089
:10BC0000E0709DF80D0020719DF80C00607101201E
:10BC100004B070BD2DE9F64FADF63C6D0500002077
:10BC2000ADF8080003A81421F9F766FF002608A85C
:10BC30000021002200230EC00C385FF0000940F6FE
:10BC40008C1068444FF49661F9F756FFFFA8E03076
:10BC50004FF49661F9F750FF0BA84FF49661F9F78E
:10BC60004BFF5FF00008002700240020070000E0E1
:10BC70007F1C032F80F2BA806B208DF80800781C9F
:10BC80008DF80900022302AAD0210120F6F70FFB4C
:10BC9000002801D1002099E13220FEF78DFB6A20B7
:10BCA0008DF8080044208DF80900022302AAD02153
:10BCB0000120F6F7FCFA002801D1002086E10124DA
:10BCC00009E019EB060608A850F8270019EB000058
:10BCD00008A941F827002000441E012875DB232015
:10BCE0008DF8080070208DF80900022302AAD021E7
:10BCF0000120F6F7DCFA002801D1002066E14B2094
:10BD0000FEF75AFB23208DF8080000208DF809006B
:10BD1000022302AAD0210120F6F7C9FA002801D196
:10BD2000002053E10220009003AB7222D0210120B9
:10BD3000F6F717FB002801D1002047E103A8FEF722
:10BD400024FC00EE100AB8EEC00A10EE100AFDF74F
:10BD500085F9DFF8E027DFF8E037FDF7ADF809F007
:10BD6000FBF88146B9F148000128B4DB5FF0000818
:10BD70001DE003A8FEF709FC18EB060140F68C1243
:10BD80006A4422F811000DF10E00FEF7FEFB18EBDD
:10BD90000601FFAAE03222F8110004A8FEF7F5FB25
:10BDA00018EB06010BAA22F8110018F10108C8458A
:10BDB00087DA0620009003AB7422D0210120F6F729
:10BDC000D0FA0028D5D1002000E123208DF808000A
:10BDD00000208DF80900022302AAD0210120F6F7E5
:10BDE00066FA00287FF444AF0020EFE0002E01D077
:10BDF000340000E001245FF0000800200021C5E9C4
:10BE0000000100200021C5E9020100200021C5E950
:10BE1000040122E0D5E9000140F68C126A4432F9AF
:10BE20001820D31780185941C5E90001D5E902014E
:10BE3000FFAAE03232F91820D31780185941C5E91A
:10BE40000201D5E904010BAA32F91820D317801892
:10BE50005941C5E9040118F10108B045DADBD5E91B
:10BE600000012200E317FEF777F9C5E90001D5E9E3
:10BE700002012200E317FEF76FF9C5E90201D5E9D7
:10BE800004012200E317FEF767F9C5E904015FF03A
:10BE90000008DDF83C0E00220023C0E90023DDF895
:10BEA0003C0E00220023C0E90223DDF83C0E0022F4
:10BEB0000023C0E9042382E0DDF83C2ED2E9000132
:10BEC000CDE9000140F68C10684430F91800C11724
:10BED000D5E90023801A994140F68C126A4432F960
:10BEE00018A05FEAEA7BD5E90023BAEB02027BEBFC
:10BEF0000303A2FB00AB02FB01BB03FB00BBDDE9BC
:10BF0000000110EB0A0051EB0B01DDF83C2EC2E9F9
:10BF10000001DDF83C2ED2E90201CDE90001FFA8C5
:10BF2000E03030F91800C117D5E90223801A994191
:10BF3000FFAAE03232F918A05FEAEA7BD5E90223D2
:10BF4000BAEB02027BEB0303A2FB00AB02FB01BBDB
:10BF500003FB00BBDDE9000110EB0A0051EB0B0114
:10BF6000DDF83C2EC2E90201DDF83C2ED2E90401E5
:10BF7000CDE900010BA830F91800C117D5E9042359
:10BF8000801A99410BAA32F918A05FEAEA7BD5E939
:10BF90000423BAEB02027BEB0303A2FB00AB02FB20
:10BFA00001BB03FB00BBDDE9000110EB0A0051EB14
:10BFB0000B01DDF83C2EC2E9040118F10108B0457F
:10BFC000FFF67AAFDDF8400E066001200DF6446DF5
:10BFD000BDE8F08F2DE9F04389B004000D00160094
:10BFE00001275FF0000801A80021016003200090F4
:10BFF00001AB0022D0210120F6F7B3F9002801D1CE
:10C000005FF0FF375FF0000907E04FFA89F905A8F4
:10C01000002140F8291019F101094FFA89F9B9F105
:10C02000030F17DA4FFA89F901A819F80000002860
:10C03000EBD04FFA89F901A819F80000DFF8FC14D9
:10C0400011EB400030F8020C4FFA89F905A941F8CC
:10C050002900E0E75FF0000925E04FFA89F902A81E
:10C0600050F82900DFF8D814884208DADFF8D40441
:10C07000F6F7A7F8012010FA09F050EA08084FFA7D
:10C0800089F902A850F82900DFF8BC14884208DBBF
:10C09000DFF8B804F6F795F8012010FA09F050EA35
:10C0A000080819F101094FFA89F9B9F1030F3CDACF
:10C0B0004FFA89F955F829004FFA89F956F82910ED
:10C0C000401A08F045FF4FFA89F902A941F8290002
:10C0D0004FFA89F905A850F829000028BDD04FFA79
:10C0E00089F902A850F829004FFA89F905A951F8F1
:10C0F000291090FBF1F0B0F57A7008F029FF4FFAA3
:10C1000089F924F819004FFA89F934F9190040F235
:10C11000F5118842C5DBDFF83804F6F752F8012044
:10C1200010FA09F050EA0808BBE74FFA88F8B8F1AE
:10C13000000F05D0DFF81C04F6F743F87FF0020784
:10C14000380040B209B0BDE8F0832DE9F0479CB05B
:10C1500004005FF0010801250CA81821F9F7CCFCB8
:10C1600006A81821F9F7C8FC02A80021016000A860
:10C170000021002206C008385FF0000A18A800213C
:10C18000002200230EC00C3815A800210022002335
:10C190000EC00C3812A80021002200230EC00C385B
:10C1A00003A80021002200230EC00C380026DFF86F
:10C1B000A803D0F80490FEF7EEF9002801D1002082
:10C1C00049E1FEF7FBFA80465FFA88F8B8F1010F03
:10C1D0000AD15FF0010A02AA06A90CA8FFF71AFD0E
:10C1E000002805D1002036E1FEF740FA002032E1B8
:10C1F000FEF7C9FB002801D100202CE1002303AA8F
:10C2000015A90020FEF7FDFB05006DB2012D03D03E
:10C21000761CD248F5F7D5FF002312AA18A97FF0A3
:10C220001F00FEF7EEFB05006DB2012D03D0B61C1A
:10C23000CB48F5F7C6FF18AA15A900A8FFF7CAFE54
:10C2400005006DB2012D03D0361DC648F5F7B9FFC4
:10C25000DDE90601002901D100280BD0DDE9080144
:10C26000002901D1002805D0DDE90A01002905D106
:10C27000002803D1BC48F5F7A4FF083600273AE0B0
:10C28000FFB20CA810EBC700D0E9002340F2411028
:10C2900000218B420FDB01DC82420CD31036FFB24F
:10C2A0000CA810EBC702D2E900010200FFB239006E
:10C2B000AE48F5F786FFFFB206A810EBC702D2E939
:10C2C0000001029AD317FDF747FF002912DB02DCB9
:10C2D000B0F5C85F0ED34036FFB206A810EBC70218
:10C2E000D2E90001029990FBF1F2FFB23900A048B7
:10C2F000F5F767FF7F1CFFB2032FC1D336B2002EC4
:10C300001AD100220CE0D2B219EB4203D2B20CA82F
:10C3100010EBC206D6E900018000A3F87000521CA1
:10C32000D2B2032AEFD3B9F97430B9F97220B9F94E
:10C3300070109048F5F745FF84F800A0BDF80000A4
:10C340006070BDF900000012A070BDF80200E0703E
:10C35000BDF9020000122071BDF804006071BDF942
:10C3600004000012A071E571029820720298001278
:10C37000607202980014A07202980016E072DDE963
:10C380000C012073DDE90C0100B200126073DDE9DD
:10C390000C010014A073DDE90C010016E073DDE967
:10C3A0000E012074DDE90E0100B200126074DDE9B7
:10C3B0000E010014A074DDE90E010016E074DDE941
:10C3C00010012075DDE9100100B200126075DDE991
:10C3D00010010014A075DDE910010016E075DDE91B
:10C3E00006012076DDE9060100B200126076DDE983
:10C3F00006010014A076DDE906010016E076DDE90D
:10C4000008012077DDE9080100B200126077DDE95C
:10C4100008010014A077DDE908010016E077DDE9E6
:10C420000A0184F82000DDE90A0100B2001284F854
:10C430002100DDE90A01001484F82200DDE90A0187
:10C44000001684F82300FEF711F9002801D100201E
:10C4500001E04046C0B21CB0BDE8F08730B583B003
:10C4600004000020ADF8040000203B494D68697AC3
:10C47000002907D1A86F40688047F5F720FE0A2100
:10C48000F6F70AF80220009001AB4122D0210120EA
:10C49000F5F767FF002801D1002017E09DF805009F
:10C4A0009DF8041050EA0120032110FB01F04FF425
:10C4B0007A7190FBF1F01530207000206070687A7E
:10C4C000002802D1A86F8068804701203EBD80B55A
:10C4D0000178002905D1FFF738FE00280AD1002095
:10C4E00009E00178012905D1FFF7B8FF002801D143
:10C4F000002000E0012002BD80B5C0B2062806D1B0
:10C500000800FFF7ABFF002801D1002000E0012068
:10C5100002BD80B518490120F9F7F0F801BD00000F
:10C520006352012070550120084D0308104D030887
:10C53000184D03082D211FF46C56C53F74350308B0
:10C5400030FD1300284D030879E2D100304D030877
:10C55000204D0308384D030800600020404D0308BB
:10C56000484D0308504D03088C4C0308C04B03088A
:10C57000284C0308684C0308484B0308DFF87C0587
:10C58000704730B583B00020ADF806008DF8040088
:10C590000120009001AB002218210220F5F7E1FEF6
:10C5A00004469DF8040048281FD131208DF806006C
:10C5B0000DF106050120687002230DF10602182115
:10C5C0001846F5F774FE00280DD031208DF80600CE
:10C5D0000020687002230DF1060218211846F5F7B5
:10C5E00066FE002802D100203EBD00241822002152
:10C5F000DFF80805F6F78CFE20463EBD70B582B028
:10C600000020ADF8000008F0D8FC0446DFF8F00484
:10C610008168497AC268527A51180069407A0818CC
:10C62000012801DB012076BDDFF8D85468780128A5
:10C630001CD032208DF8000000AE01207070022363
:10C6400000AA18211846F5F732FE00280CD0312038
:10C650008DF8000001207070022300AA18211846EE
:10C66000F5F725FE002803D1002076BD01202870B3
:10C67000281D61698847012076BD38B50020ADF8D6
:10C68000000008F09AFC0446DFF874048168497AD7
:10C69000C268527A51180069407A0818022801DBF2
:10C6A000012032BDDFF85C542878012812D03120F7
:10C6B0008DF8000000208DF80100022300AA182147
:10C6C0001846F5F7F4FD002801D1002032BD002006
:10C6D000687001E000202870281D2169884701202A
:10C6E00032BD80B50020ADF8000031208DF800008B
:10C6F00000208DF80100022300AA18211846F5F742
:10C70000D6FD401E8041C043C00F02BD7CB504462B
:10C710000020ADF806008DF804000120009001AB68
:10C72000002218210220F5F71CFE05469DF80400A2
:10C73000482829D131208DF806000DF106061F206A
:10C74000707002230DF1060218211846F5F7AFFDAF
:10C75000002817D0032000902346602218210220D1
:10C76000F5F7FFFD00280DD031208DF806000020E0
:10C77000707002230DF1060218211846F5F797FD97
:10C78000002802D1002076BD0025284676BD002174
:10C79000DD4A02E00B5C8B54491C1B29FADBDB48A9
:10C7A000C0F8D423012070472DE9F04387B0044638
:10C7B0000D4616461F464FF000084046ADF80400EF
:10C7C00002A841460A460B460EC04FF0050906C0B6
:10C7D0000120009002AB102218210220F5F7C1FDC4
:10C7E0009DF80810C9070ED501280CD1082000902B
:10C7F0000DF10903112218210220F5F7B2FD0028DE
:10C8000007D140467AE04846A0F1010980B20028ED
:10C81000DED1BF489DF80810017002A90A7A427063
:10C82000CA7982704A78C2708A780271CA78427175
:10C830000A7982714A79C271897901720AE002A883
:10C8400000EB48008178407810EB012024F81800B4
:10C8500008F10108B8F1030FF1DBA948D0F80C800A
:10C8600008F10C0999F815202146D9F80C00D8F8E0
:10C870000C30C018F7F77FF9404602F021FA99F81A
:10C880001520D9F80C00D8F80C1041182046F7F7FD
:10C8900072F9DFF8788205AA2146404608F0E0FDEB
:10C8A00098F9F4023860B8F8EE00288008F2EE003B
:10C8B000418869808188A98081892180C1896180BE
:10C8C000008AA08020882988401A30806088698882
:10C8D000401A7080A088A988401AB08031208DF855
:10C8E000040001208DF80500022301AA1821184632
:10C8F000F5F7DDFC401E8041C043C00F07B0BDE826
:10C90000F08330B585B004460020ADF8040002A8DD
:10C9100000210A460B460EC005250120009002ABFF
:10C92000102218210220F5F71CFD9DF80810C907F8
:10C930000ED501280CD1082000900DF10903112219
:10C9400018210220F5F70DFD002806D1002028E06F
:10C950002846451E80B20028DFD16D489DF808109A
:10C96000017002A90A7A4270487820708878607055
:10C97000C878A0700879E070487920719DF80E00A1
:10C98000607131208DF8040001208DF8050002232C
:10C9900001AA18211846F5F78AFC401E8041C043C1
:10C9A000C00F05B030BD2DE9F04104460025F5F774
:10C9B0004BFF0746FFF7E2FD06465148D0F81080CE
:10C9C000F86E40070BD406F1140306F10C02B11DFA
:10C9D0003046FFF7E9FE002801D1284651E098F8DB
:10C9E0000A00012848D14A480178217041786170D5
:10C9F000C178A1700179E17041792171817961710A
:10CA0000C179A171007AE0714048818D2172B0F93D
:10CA10002C100912617200F12C014A88A272B1F93E
:10CA200002201212E2728A882273B1F904100912EC
:10CA30006173B0F8F410A173B0F9F4100912E17346
:10CA4000F43041882174B0F90210091261748188B0
:10CA5000A174B0F904000012E074284620750FE0BC
:10CA600006EB4500C18804F8151004EB4501B0F948
:10CA70000600001248706D1C032DF1DB7069A07177
:10CA80000120BDE8F081F8B504460025F5F7DCFE8D
:10CA90000746FFF773FD0646F86E000705D52046EA
:10CAA000FFF72FFF002826D109E006F1140306F155
:10CAB0000C02B11D3046FFF777FE002814D128463E
:10CAC000F2BD36F8150004F8150004EB450036F900
:10CAD00015100912417006EB45018A898271B1F97E
:10CAE0000C100912C1716D1C032DEADB18223146AE
:10CAF0000248F7F740F80120F2BD00001051012074
:10CB000000600020EC510120BC50012068F800209A
:10CB1000485301207CB504460020ADF806008DF88E
:10CB20000400F5F7CCFA05460120009001AB002285
:10CB300018210220F5F715FC9DF80410482932D180
:10CB400031208DF806000DF106061F2070700223BB
:10CB50000DF1060218211846F5F7A9FB00281BD095
:10CB600031208DF806000020707002230DF10602BE
:10CB700018211846F5F79BFB00280DD00121284607
:10CB8000F5F78AFC0120009001AB31221821022028
:10CB9000F5F7E7FB002801D1002076BD9DF80400E1
:10CBA0002070012076BDFF21217076BD2DE9F04770
:10CBB0008AB0044604A800210A460B460EC0084667
:10CBC000ADF80C0007A806C04FF00509F5F777FA95
:10CBD00005460220009004AB00221821F5F7C1FBA6
:10CBE00006469DF81000482840F01D819DF8100071
:10CBF000207004AF7878607031208DF80C000DF152
:10CC00000C081F2088F80100022303AA18211846E7
:10CC1000F5F74DFB002800F007810320009004ABDE
:10CC2000602218210220F5F79CFB002800F0FC8010
:10CC30009DF81000A0707878E070B87820713120ED
:10CC40008DF80C00002088F80100022303AA1821A7
:10CC50001846F5F72CFB002800F0E6800120009034
:10CC600004AB312218210220F5F77BFB002800F0ED
:10CC7000DB809DF81000607531208DF80C000120DC
:10CC800088F80100022303AA18211846F5F70FFBC4
:10CC9000002800F0C9801E212846F5F7FDFB012081
:10CCA000009004AB102218210220F5F75AFB06462B
:10CCB0009DF81000C0070DD5012E0BD10820009063
:10CCC0000DF11103112218210220F5F74AFB00286B
:10CCD00006D16AE04846A0F1010980B20028DED101
:10CCE000B87902907879019038790090FB78BA7819
:10CCF00079780FF29010F5F764FAB878797811EB3B
:10CD00000020ADF81C000DF11C0A3879F97811EB00
:10CD10000020AAF80200B879797911EB0020AAF86E
:10CD20000400BDF91C0000126071BDF81C00A07168
:10CD3000BAF902000112E1712072BAF9040001127D
:10CD40006172A0729DF81000E072387A2073312071
:10CD50008DF80C00102088F80100022303AA182186
:10CD60001846F5F7A4FA00285ED01E212846F5F7EC
:10CD700093FB4FF005090120009004AB102218210D
:10CD80000220F5F7EEFA06469DF81000C0070ED512
:10CD9000012E0CD1082000900DF111031122182151
:10CDA0000220F5F7DEFA002807D100203DE04846D2
:10CDB000A0F1010980B20028DDD1B879029078791C
:10CDC000019038790090FB78BA7879780FF2D0002A
:10CDD000F5F7F7F9B878797811EB0020ADF81C0079
:10CDE0003879F97811EB0020AAF80200B87979793E
:10CDF00011EB0020AAF80400BDF91C0000126073BA
:10CE0000BDF81C00A073BAF902000112E17320748E
:10CE1000BAF9040001126174A0749DF81000E07466
:10CE2000387A207500E0002630460AB0BDE8F08769
:10CE300018B404460B4611460020032C04D0042CE1
:10CE400005D0072C06D008E0184614BC5EE418464E
:10CE500012BC5FE6184612BC99E412BC704710B5CC
:10CE60000FF2580421460220F8F748FC0FF2700137
:10CE70000420F8F743FC21460320BDE81040F8F7F2
:10CE80003DBC0000474D53312D25642C2025642CDA
:10CE90002025642C2025642C2025642C202564006A
:10CEA000474D53322D25642C2025642C2025642CDD
:10CEB0002025642C2025642C2025640083C50008CF
:10CEC000FDC500087BC60008E3C60008000000009E
:10CED00087CA000800000000ADCB000831CE000872
:10CEE00083C50008FDC500087BC60008E3C600082E
:10CEF00000000000A7C9000800000000ADCB00083A
:10CF000031CE00087CB500242046ADF80400F5F7CA
:10CF1000D6F8054620208DF8040001AE204670703A
:10CF2000022301AABA210520F5F7C1F9002801D191
:10CF3000204676BD01212846F5F7AEFA641C012093
:10CF4000009001AB2122BA210520F5F70AFA00284A
:10CF500001D1002076BD40F2F510A4B2844205D381
:10CF60000FF21020F5F72DF9002076BD9DF8040092
:10CF70000006DFD420208DF80400022070700346E4
:10CF800001AABA210520F5F792F9401E8041C0435D
:10CF9000C00F76BD1CB504460020ADF8040001208A
:10CFA000009001AB0F22BA210520F5F7DAF900282D
:10CFB00001D1002016BD9DF80400BD2833D100F03A
:10CFC00034F8002801D1002016BD032001E0401EE6
:10CFD00040B2002807D40FF2B41151F830108C423F
:10CFE00001D20028F3D120208DF8040001ACA42048
:10CFF0006070022301AABA210520F5F758F900282C
:10D0000001D1002016BD10208DF804007F20607033
:10D01000022301AABA210520F5F749F9401E8041F3
:10D02000C043C00F16BD002016BD80B50020ADF86E
:10D03000000020208DF8000000208DF80100022360
:10D0400000AABA210520F5F732F9002805D10FF220
:10D050002C10F5F7B6F8002002BD012002BD80B506
:10D060008F20FFF797FF401E8041C043C00F02BDD5
:10D0700080B5FFF747FF002805D10FF20810F5F73C
:10D08000A0F8002002BD012002BD80B5FFF7E7FF38
:10D09000401E8041C043C00F02BD80B5FFF7C5FFF1
:10D0A000401E8041C043C00F02BD012070470120D7
:10D0B00070471FB5044601A800210A460B460EC062
:10D0C0000120009001AB0F22BA210520F5F749F9A4
:10D0D000002821D09DF80400BD281DD10520009016
:10D0E00001ABA822BA21F5F73CF9002801D10020B4
:10D0F00013E09DF80400207001A8417861708178E8
:10D10000A1700021E170C178217100796071E01C8B
:10D1100000F006F8012000E0002004B010BD00007F
:10D120004178007840EA01204FF4F07190FBF1F073
:10D1300000EE100AB8EEC00ADFED070A30EE200A52
:10D14000BDEEC00A10EE100A80B204490870000A51
:10D15000487001207047000000002A426C550120F1
:10D1600001207047012070470FF240010520F8F7B9
:10D17000C5BA000042522D524600000042522D43D3
:10D180004600000042522D504600000028000000DA
:10D190007000000050000000600000008F000000E0
:10D1A00050000000E80300001000000071D00008EB
:10D1B0008BD000089BD00008ABD00008AFD000088F
:10D1C000B3D000080000000061D1000865D100085C
:10D1D00000207047012070470120704738B5044691
:10D1E0000D46F4F76CFF0521F5F756F900201049BC
:10D1F00004E00A680255521C0A60401CA842F8DB91
:10D20000012032BD012070470120704709480268A3
:10D210000A704A70511C01600120704706490A6873
:10D2200002704270501C086001207047000000002E
:10D23000008A0020E8540120EC5401200FF2340150
:10D240000820F8F75BBA10B50FF228042146122027
:10D25000F8F754FA21461320F8F750FA2146142023
:10D26000BDE81040F8F74ABA0FF208011520F8F7A8
:10D2700045BA0000D1D10008D5D10008D9D10008A5
:10D28000D9D1000809D20008DDD1000805D2000874
:10D290001DD200080DD2000810B50024F4F70FFFCE
:10D2A000007CC00700D50124204610BD00B589B020
:10D2B00000A82421F8F720FC0020ADF822000A2065
:10D2C0008DF8080000208DF809008DF80A008DF80F
:10D2D00000001F20019000A8FBF798FC012009B076
:10D2E00000BD00B589B000A82421F8F705FC002096
:10D2F000ADF822000A208DF8080000208DF8090002
:10D300008DF80A0001208DF800001F20019000A870
:10D31000FBF77CFC012009B000BD00B589B000A876
:10D320002421F8F7E9FB0020ADF822000A208DF84F
:10D33000080000208DF809008DF80A0001208DF802
:10D3400000001F20019000A8FBF760FC012009B03D
:10D3500000BD0120704710B50024F4F7B0FE007C3A
:10D36000C00700D50124204610BD00B589B000A833
:10D370002421F8F7C1FB0020ADF822000A208DF827
:10D38000080000208DF809008DF80A008DF80000D3
:10D390002020019000A8FBF739FC012009B000BD56
:10D3A00000B589B000A82421F8F7A6FB0020ADF84D
:10D3B00022000A208DF8080000208DF809008DF861
:10D3C0000A0001208DF800002020019000A8FBF742
:10D3D0001DFC012009B000BD00B589B000A82421C2
:10D3E000F8F78AFB0020ADF822000A208DF808002B
:10D3F00000208DF809008DF80A0001208DF800004A
:10D400002020019000A8FBF701FC012009B000BD1D
:10D410000120704710B50024F4F751FE007C80070E
:10D4200000D50124204610BD00B589B000A82421F4
:10D43000F8F762FB0020ADF822000A208DF8080002
:10D4400000208DF809008DF80A008DF800002120D9
:10D45000019000A8FBF7DAFB012009B000BD00B580
:10D4600089B000A82421F8F747FB0020ADF822007E
:10D470000A208DF8080000208DF809008DF80A00B8
:10D4800001208DF800002120019000A8FBF7BEFBD1
:10D49000012009B000BD00B589B000A82421F8F72B
:10D4A0002BFB0020ADF822000A208DF80800002098
:10D4B0008DF809008DF80A0001208DF80000212068
:10D4C000019000A8FBF7A2FB012009B000BD0120DC
:10D4D000704710B50024F4F7F2FD007C00F0030063
:10D4E000032800D10124204610BD00B589B000A852
:10D4F0002421F8F701FBDFF86803017841F002010D
:10D5000001700020ADF822000A208DF808000120EB
:10D510008DF809008DF80A1000208DF800002220F7
:10D52000019000A8FBF772FB012009B000BD00B517
:10D5300089B000A82421F8F7DFFADFF8241308786F
:10D5400010F0FD00087014D10020ADF822000A2070
:10D550008DF8080001208DF8090000208DF80A00E0
:10D5600001208DF800002220019000A8FBF74EFB5F
:10D5700002E040B208F038FC012009B000BD0120F3
:10D5800070470120704710B50024F4F798FD007C27
:10D5900000F00700072800D10124204610BD00B587
:10D5A00089B000A82421F8F7A7FAAD48017841F026
:10D5B00001010170032905D1032008F015FC08F0D2
:10D5C0002FFC11E00020ADF822000A208DF80800A1
:10D5D00000208DF809008DF80A108DF80000222037
:10D5E000019000A8FBF712FB012009B000BD00B5B7
:10D5F00089B000A82421F8F77FFA9949087810F03B
:10D60000FE00087013D10020ADF822000A208DF82A
:10D61000080000208DF809008DF80A0001208DF81F
:10D6200000002220019000A8FBF7F0FA04E040B2CD
:10D6300008F0DAFB08F0F9FB012009B000BD012079
:10D6400070470120704710B50024F4F738FD007CC6
:10D65000C00700D50124204610BD30B58BB001A80D
:10D660002421F8F749FA002000907E48446C0020FD
:10D67000ADF826000A208DF80C0000208DF80D0072
:10D680008DF80E008DF804002320029001A8FBF70E
:10D69000BDFA0020009004F10C056A7D00A9E8683D
:10D6A000E368C018F6F767FA0120A874002008F0B4
:10D6B00072FC03F09DFC01200BB030BD00B589B0B9
:10D6C00000A82421F8F718FA0020ADF822000A205B
:10D6D0008DF8080000208DF809008DF80A0001205F
:10D6E0008DF800002320019000A8FBF78FFA01209D
:10D6F00009B000BD00B589B000A82421F8F7FCF9F5
:10D700000020ADF822000A208DF8080000208DF8D6
:10D7100009008DF80A0001208DF8000023200190F7
:10D7200000A8FBF773FA012009B000BD0120704783
:10D7300070B58AB004460E46FBF76CF9054600202A
:10D7400000900422214600A8F6F715FA01A824212A
:10D75000F8F7D2F9009A31460FF2C010F4F731FD14
:10D7600030460C3809284ED8DFE800F0051118259E
:10D770003C0C4D4D4D481420C5F8DC0420700120B0
:10D780000AB070BD1420C5F87C052070F7E705F2DB
:10D79000DC403C21816208462070F0E705F2DC4065
:10D7A00021783C2904D13C21217021780165E6E7EC
:10D7B00000990165E3E72A480078C10712D50021E6
:10D7C000ADF826100A218DF80C1000218DF80D10EF
:10D7D0008DF80E0001208DF804002220029001A88F
:10D7E000FBF714FA0099304640B200F012F80090AE
:10D7F000206005F2DC4000998167C0E71420C5F87D
:10D80000BC062070BBE70FF22410F4F7DAFC00200E
:10D81000B6E710B4134AD36B126C114C2478002C69
:10D820001AD00F2802D010280BD015E0507A00280B
:10D8300012D0906B806800280ED488420DDD084617
:10D840000BE0587A002807D0986B8068002803D432
:10D85000884202DD084600E0084610BC7047000020
:10D86000735501200060002012B589B001460C39C3
:10D8700009292CD8DFE801F0051F2123231D2B2BBC
:10D880002B291F240020ADF8220001900A208DF8DA
:10D89000080005208DF800000194042209A90DF16B
:10D8A0000900F6F768F900A8FBF7B0F901200AB003
:10D8B00010BD2324E6E72024E4E72124E2E7222424
:10D8C0000999FFF7A6FF0990DCE72B24DAE70FF2AE
:10D8D0006400F4F776FC0020E9E780B50FF25C0104
:10D8E0000C20F7F70BFF0FF278011120F7F706FF76
:10D8F0000FF290010D20F7F701FF0FF2AC010E209F
:10D90000F7F7FCFE0FF2C4010F20F7F7F7FE0FF256
:10D91000E0011020BDE80440F7F7F0BE4D52322080
:10D9200044523D25642C2564000000004D523220F5
:10D93000534446004D5232205243460099D20008CB
:10D94000ADD20008E3D200081BD30008000000009D
:10D9500053D3000831D70008000000000000000089
:10D9600047D600085BD60008BDD60008F5D60008EB
:10D97000000000002DD7000831D70008000000008B
:10D980000000000057D300086BD30008A1D30008A3
:10D99000D9D300080000000011D4000831D70008D6
:10D9A000000000000000000015D4000829D4000881
:10D9B0005FD4000897D4000800000000CFD400080E
:10D9C00031D700080000000000000000D3D4000898
:10D9D000EBD400082FD500087FD500080000000018
:10D9E00083D5000831D700080000000000000000C7
:10D9F00087D500089FD50008EFD500083FD600085E
:10DA00000000000043D6000831D7000800000000E5
:10DA10000000000000B500BF130096469446103980
:10DA200028BFA0E80C50FAD85FEA417C28BF0CC0A0
:10DA300048BF40F8042BC90728BF20F8022B48BF75
:10DA400000F8012B00BD00002DE9F04FA1B0804689
:10DA500017461D46029102AE0020706211AC6FF0B5
:10DA600000490AE017F8011B0298C04702900028FD
:10DA700000F06A82706A401C7062387808B9706A77
:10DA800064E22528EED10020F06030617061B06161
:10DA9000F061306201E040F0010017F8011F202919
:10DAA000F9D023290DD02B2904D02D2906D03029D7
:10DAB0000AD00CE040F0020080B2EEE740F0040033
:10DAC000FAE740F00800F7E740F01000F4E72A29F1
:10DAD0000DD129680A1D2A600968F162002904D560
:10DAE0004942F16240F0040080B27F1C12E0002144
:10DAF000F16209E0F16A494505D001EB810302EBCF
:10DB000043013039F1627F1C3A78A2F13001C9B289
:10DB10000A29EFD339782E2903D04FF0FF31B162B3
:10DB20001DE017F8011F2A2906D129680A1D2A605D
:10DB30000968B1627F1C12E00021B16209E0B16A9C
:10DB4000494505D001EB810302EB43013039B16255
:10DB50007F1C3A78A2F13001C9B20A29EFD330868E
:10DB600039780FF6983008F053FA08B117F8010B1E
:10DB70008DF83A009DF83A00682804D13878682872
:10DB80000AD1622005E06C2804BF38786C2803D1E4
:10DB900071208DF83A007F1C11A8B0603978B1F17E
:10DBA000250023D01C3871D0001F02286ED91338ED
:10DBB00000F09680093869D0801E00F02781401E51
:10DBC00000F0D180401E022860D9001F00F0CB80F9
:10DBD000401F30D0401E00F08380401E20D0C01E69
:10DBE00009D0801E7CD0C01E7AD017E1F068411C9D
:10DBF000F16025211BE12868011D29600068706023
:10DC0000B26A002A02D5F7F7A5FF07E0002108F065
:10DC10000BFA00281ABF7168401AB06A306107E138
:10DC20002868011D296000680021CDE9000111A8C4
:10DC300070607821E6E09DF83A00622818D06828E4
:10DC400006D06A280BD06C2819D0712807D016E0AE
:10DC50002868011D2960716A00680180E8E02A686F
:10DC6000101D2860706AC1171268C2E90001DFE068
:10DC70002868011D2960716A00680170D8E0286871
:10DC8000011D2960716A00680160D1E02868C01D2B
:10DC900020F00700286000F108022A60D0E9002384
:10DCA000CDE90023002B04D5F068421CF2602D2240
:10DCB0000DE0308E820704D5F068421CF2602B2202
:10DCC00005E0C00704D5F068421CF260202202552E
:10DCD000F06811AA8018706000A800F0C5F9A7E0EC
:10DCE0009DF83A006C2808BF2A6811D0712808BF37
:10DCF0002A6802D06A282A680AD1D21D22F00702B7
:10DD00002A6094460CF108022A60DCE9002303E053
:10DD1000131D2B6012680023CDE90023682808BF7B
:10DD200092B207D0622808BFD2B203D0742818BFBD
:10DD30007A2802D10023CDE9002396F830000007AD
:10DD40005CD5DDE90023002B08BF002A56D041F046
:10DD50002000782852D1F06830220255401C421C25
:10DD6000F26001554AE09DF83A0062280CD068281C
:10DD700010D06A281AD06C2823D0712816D07428A5
:10DD80001FD07A280CD01CE02868021D2A6090F968
:10DD900000201AE02868021D2A60B0F9002014E073
:10DDA0002868021D2A60026800230FE02868C01D51
:10DDB00020F00700286000F108022A60D0E9002363
:10DDC00004E02868021D2A600268D317CDE9002309
:10DDD000002B04DAF068421CF2602D220DE0308E38
:10DDE000820704D5F068421CF2602B2205E0C007D0
:10DDF00004D5F068421CF26020220255F06811AA96
:10DE00008018706000A800F0A4F811E0F068411CD0
:10DE1000F16029680A1D2A60096808E0F068421C60
:10DE2000F2602522025519B1F068421CF2600155DA
:10DE30007F1CF06AF168401AB169401A3169401AD2
:10DE4000F169401A7169401A316AA0EB010A96F82B
:10DE50003000400711D420208DF84000BAF1010FA6
:10DE60000BDBD346012310AA00A9404600F02FFC8B
:10DE7000002869D1BBF1010BF4D1F36811AA00A904
:10DE8000404600F024FC00285ED130208DF8400090
:10DE9000D6F818B0BBF1010F0ADB012310AA00A9C4
:10DEA000404600F014FC00284ED1BBF1010BF4D128
:10DEB0003369726800A9404600F009FC002843D18C
:10DEC00030208DF84000D6F81CB0BBF1010F09DB03
:10DED000012310AA00A9404600F0F9FBA0BBBBF14A
:10DEE000010BF5D1736930697168421800A9404689
:10DEF00000F0EDFB40BB30208DF84000D6F820B09C
:10DF0000BBF1010F09DB012310AA00A9404600F074
:10DF1000DEFBC8B9BBF1010BF5D196F83000400724
:10DF20007FF5ABAD20208DF84000BAF1010FFFF670
:10DF3000A4AD012310AA00A9404600F0C8FB18B9FF
:10DF4000BAF1010AF5D198E54FF0FF3021B0BDE8F4
:10DF5000F08F2DE9FA4782B0064635696F2908BF70
:10DF6000082705D041F02000782814BF0A27102781
:10DF70003C24D6E90001804689469DF80820642AA1
:10DF800018BF692A05D1002903DAD8F1000869EB26
:10DF90004909B9F1000F08BFB8F1000F0CD1306B7F
:10DFA00050B9082F3BD196F83800000737D53B24ED
:10DFB000302085F83B0032E0A4F1010A5446FB17FB
:10DFC000404649463A46FCF7E9F8CDE90089B846AB
:10DFD000A8FB0023DDE90089A8EB02023032D2B2AF
:10DFE0003A2A03D39DF80830513B9A180AF80520C5
:10DFF00080465FEA010908BFB8F1000F03D0F0685E
:10E0000061198842D8D3082F09D196F83800000743
:10E0100005D5605D302802D0641E30206055C4F103
:10E020003C00B0616119F160316B884207DA081A6F
:10E030003062308F4FF6EF710840308710E00029D2
:10E040000ED596F8381001F01401102908D1716B23
:10E050007269891A326A891A081A0128A8BF3062BF
:10E0600004B0BDE8F08700002DE9F24F8EB0044601
:10E0700004AED4E90001CDE902019DF8380040F07A
:10E0800020008DF8000061280BD0206B002848BFCD
:10E09000062005D404BF9DF80000672801D10120A7
:10E0A00020636168C1F30A5040F2FF7398421ED1A9
:10E0B000080304BF206800280AD10320A0619DF84E
:10E0C00038006138C0B21A2838D30FF2446109E031
:10E0D0000320A0619DF838006138C0B21A282AD305
:10E0E0000FF224610322E068F5F70AFDB9E1012887
:10E0F00017DA204607F0C4FF012812DB00270020B2
:10E100009DF80010612920D1E168302201F8012B2F
:10E110004A1CE2609DF83820612A0CBF7822582200
:10E120000FE040F2FE31626861F31E526260471AEE
:10E130004FF0FF30E4E70FF2CC51D3E70FF2CC51B0
:10E14000D0E70A706169891C616110B90025002758
:10E150007EE19DF80000612840F09780206B002848
:10E160004CBF2125451C2DB26E1CD4E90089DDE988
:10E1700002010022002307F0A5FF3ABF89F000400A
:10E18000CDE90280CDE902893F1F8DF810200DF105
:10E190001108012E35DBDDE902010022002307F022
:10E1A000A9FF2ED21C2102A807F0BCFFDDE9020165
:10E1B00006F0D2FE8146F61F012E09DBFAF764FE57
:10E1C00002460B46DDE9020108F036F8CDE902010E
:10E1D00008F20700072105E009F00F0200F8012D01
:10E1E0004FEA2919B9F1010F01DB491EF4D5491E87
:10E1F0005CBF002200F8012DF9D500F20708012EBE
:10E20000C9DA0DF11100A8EB00010DF11106A942C8
:10E21000B8BF0D462DB2002D30D42846884206DA0C
:10E2200004A941184978082928BF0F2100D20021EC
:10E2300004AA821800E06D1E401E12F801398B42BC
:10E24000F9D00F2904D104A941184A78521C4A7008
:10E25000002802D504AE6D1C3F1D2DB2681E0DD4E2
:10E2600081190A783032D2B23A2A03D39DF8383075
:10E270003A3B9A1801F80129401EF2D5206B00287C
:10E2800040F1E680681E2063E2E0DDE90201002241
:10E29000002307F017FF3CBF81F00041CDE90201E8
:10E2A0003FB247F297507843474990FBF1F73FB2AE
:10E2B000C7F107069246DFF814B1012E19DBDDE93C
:10E2C0000289F00707D552465B4640464946FAF7B1
:10E2D000F3FD8046894676105046594652465B46C5
:10E2E000FAF7EAFD82468B46002EEAD1CDE9028993
:10E2F00021E076429046DFF8D89012E0F00707D58B
:10E3000052465B4640464946FAF7D6FD8046894666
:10E3100076105046594652465B46FAF7CDFD824686
:10E320008B46002EEAD1DDE9020142464B4608F059
:10E3300043F8CDE902019DF8000066280CBF07F103
:10E340000A000620216B4518142DA8BF1325302084
:10E350008DF810000DF11106DFF87890012D3BDBF0
:10E36000DDE9020106F00EFE06F1080104220A268C
:10E37000B0FBF6F303EB830EA0EB4E00303001F858
:10E38000010DB3FBF6F000EB8006A3EB4603303340
:10E3900001F8013D521EEAD101F10806083D012DA8
:10E3A000DCDBDDE9020106F0EDFDFAF777FD024660
:10E3B0000B46DDE9020107F03FFF00224B46FAF76A
:10E3C0007BFDCDE90201CBE7A086010000002440DF
:10E3D0000000F03F84D797410DF11100301A0DF184
:10E3E000110602E0401E7F1E761C31783029F9D0DC
:10E3F0009DF80010662902D13FB2791C03E065291F
:10E400000CBF01210021226B8D182DB2A842B8BF8C
:10E4100005462DB2002D1BD42946814204DA885DC1
:10E42000352828BF392000D230208A19521E00E03A
:10E430006D1E491E12F801398342F9D0392802D1E4
:10E44000885D401C8855002902D5761E6D1C7F1CF6
:10E450003FB200972BB232469DF83810204600F0AC
:10E4600003F80FB0BDE8F08F2DE9F04385B0054605
:10E47000894617461E46D5F83080012E02DA01265D
:10E480000FF2902749F02000BDF93040662808BF00
:10E49000641C18D0672840F082806FF0030084422B
:10E4A000C0F28380444580F28080641C95F8380077
:10E4B000000702D44645B8BFB04624B2B8EB040802
:10E4C00048BF4FF00008E868A96924B2012C25DA9A
:10E4D0004A1C30230B54B8F1010F03DA95F83810B9
:10E4E000090702D52E211154521CAA6118EB040F02
:10E4F000B8BFC8F1000424B261426962A044B045CB
:10E50000B8BF464636B2EE6132463946AB69181896
:10E51000F5F7F6FAA8EB0600A862C1E00818A642D3
:10E5200018DA32463946F5F7EBFAA9697118A9618C
:10E53000A01B6862B8F1010F03DA95F838000007F4
:10E5400005D5E8682E220A54E869401CE861C5F840
:10E550002880A5E022463946F5F7D2FAA8692018A6
:10E56000361BB8F1010F03DA95F83810090703D507
:10E57000E9682E224254401CA86136B2B045B8BFAB
:10E58000464636B23246E119EB68C018F5F7B8FADC
:10E59000A8693018A861A8EB0600686280E0B9F1AC
:10E5A000610F16D14FF0700918E0464504DA95F86E
:10E5B0003810090758BFB046B8F1010848BF4FF0FE
:10E5C0000008B9F1670F14BF4FF045094FF0650916
:10E5D00004E0B9F1410F08BF4FF05009A9694A1C86
:10E5E000E86817F8013B0B54B8F1010F05DA95F80C
:10E5F0003810090758BFAA6117D52E211154531C92
:10E60000AB61B8F1010F10DB761E36B2B045B8BF72
:10E61000464636B2324639461818F5F771FAA869F7
:10E620003018A861A8EB06006862A869E968471875
:10E6300007F8019B002C03D42B2007F8010B03E003
:10E640002D2007F8010B644200260DF1080809E0AF
:10E650000A22214600A807F0D2FF019808F8010B12
:10E66000009C761C24B2012CF2DA022E06DA49F064
:10E670002000652804BF302007F8010B4EB9302078
:10E6800007F8010B07E0761E02A8305C303007F86F
:10E69000010B012EF7DAA869E9684018381AE86119
:10E6A00095F8380000F0140010280DD16869A969A8
:10E6B0000818696A0818E9690818A96A0818696BCE
:10E6C0008842BCBF081A286205B0BDE8F083F8B5DF
:10E6D00004460D4616461F46002077B116F8011B6A
:10E6E000A868A047A86030B1E86A401CE862002032
:10E6F0007F1EF3D1F2BD4FF0FF30F2BD686A6C743B
:10E700007A4C00006E616E004E414E00696E6600EC
:10E71000494E4600300000000CB41CB5044604A865
:10E720000190009401AB0A4600A9074878441830CC
:10E73000FFF78AF9009900220A7000285CBF009850
:10E74000001B16BC5DF80CFB4374FFFF01B58B0783
:10E7500018D1121F21D351F8043BA3F1013C2CEA3C
:10E76000030C1CF0803C04BF40F8043BF1E79CFA2A
:10E770008CFCBCFA8CF1C1F118018B40CB4040F805
:10E78000043B13E0042A09D311F8013B521E00F8A0
:10E79000013B5BB18B07F7D1DBE7121D5AB111F8D2
:10E7A000013B521E00F8013B03B1F8D111001CBF20
:10E7B0000022FAF7C7FC01BD002801D10A48806891
:10E7C00090F84C10642901D0002000E0806A704766
:10E7D000002801D10448806890F84C10642901D0C9
:10E7E000002000E0406A7047D4880020024870474B
:10E7F00002480149401A7047004000200060002094
:10E800004C48C168002903D54B4901604B49016060
:10E8100070474B48016841F000410160704770B596
:10E820000446002600290BD0012902D14FF480763E
:10E8300006E0022902D14FF4007601E04FF4407661
:10E8400000F082F809281ED13D4D286820F4407060
:10E850002860286830432860286820F0F800286085
:10E86000286844F0020108432860286840F480309A
:10E87000286000F069F8296821F002012960296800
:10E8800021F0F801296070BD70B504460D4600F016
:10E890005BF8092813D12A4E306820F440703060AC
:10E8A000306840F400703060306840F00100306043
:10E8B000256000F049F8316849084900316070BDB1
:10E8C00070B505460E4600F03FF8092811D11C4CE2
:10E8D000206820F44070206020682060206840F0AC
:10E8E000010020602E7000F02FF8216849084900CF
:10E8F000216070BD134908607047092011490A68FA
:10E90000D20301D5012070470A68D20601D506203E
:10E9100070470A68D20501D5022070470A6812F0D4
:10E92000EF0F01D0072070470968890700D508203C
:10E9300070470000043C024023016745AB89EFCDDE
:10E94000103C02400C3C024080B509208DF80000CC
:10E95000FFF7D3FF8DF8000003E0FFF7CEFF8DF83F
:10E9600000009DF800000128F7D09DF8000002BDCE
:10E970000901002806D500F00F004C4A801800F865
:10E98000041C70474A4A8154704710B5B0F1807F2B
:10E9900001D3012010BD474C0002000A401E6060F8
:10E9A0000F214FF0FF30FFF7E3FF0020A0600720AA
:10E9B0002060002010BD38B53F4D2878401C2870DD
:10E9C0003E4C2078401C2070F7F78BFF07F01EFEAE
:10E9D0002878411E2970002802D19820F7F7DAF82C
:10E9E0002078012804D16068002801D0F7F735F9B4
:10E9F0002078401E207031BD10B5304C6078F02179
:10EA0000084202D09920F7F7C5F8F7F730F9607897
:10EA1000401C607007F054FE294800684FF47A717A
:10EA2000B0FBF1F0FFF7B1FF002800D0FEE725486A
:10EA3000254901600E214FF0FF30FFF799FF607804
:10EA4000F021084202D09920F7F7A4F86078401E20
:10EA50006070C0B2002803D1BDE81040F7F701B9DB
:10EA600010BD0000194C4FF400512046FAF742FD4A
:10EA700030BF4FF400512046FAF73AFDF3E710B4E7
:10EA80000E48006A0E4909684FF47A72B1FBF2F140
:10EA90000F4A1368CB1A0F4C2468640102D5126820
:10EAA0008B1A401C00FB013010BC704718ED00E0D1
:10EAB00000E400E010E000E099550120D488002037
:10EAC0008889002008ED00E00000000800100240E6
:10EAD00018E000E004ED00E0EFF30580002847F0C7
:10EAE0004F86704780B5EFF3108072B60B49096806
:10EAF00051F47F01094A116080F3108808480068CA
:10EB000010F4700F02D1A720F7F744F805485FF022
:10EB10000071016004480021016001BD20ED00E0AA
:10EB200088ED00E03CEF00E034EF00E080B5F3F763
:10EB30008BFEDFF8C4180860012002BD10B5F6F79F
:10EB4000CFF90246C317DFF8B448D4E90001101A20
:10EB50000021012905DB01DC002802D3C4E90023E0
:10EB6000084610BDF0B583B0044600A800210A464F
:10EB700006C0A069E16845182888ADF80000B5F91D
:10EB8000027000A84780B5F904608680B4F970006F
:10EB900094F9081001292CD1B5EE000ABDF8001037
:10EBA00000EE900AF8EEE00A60EE800AFDEEE00A60
:10EBB00010EE900A081A2880B4F9720000EE900A4C
:10EBC000F8EEE00A60EE800AFDEEE00A10EE900A30
:10EBD000381A6880B4F9740000EE900AF8EEE00A82
:10EBE00020EE800ABDEEC00A10EE100A301AA8808E
:10EBF0000BE0BDF80010081A2880B4F87200381A2B
:10EC00006880B4F87400301AA880BDF90000B5F926
:10EC10000010C913B1EBE03F13D0B4F97010C91361
:10EC2000B1EBE03F0DD00FF2F070F3F7CAFAB5F98F
:10EC30000000012802DBDFF8C80701E047F6FF709B
:10EC40002880B5F90210C913B1EBE73F13D0B4F92E
:10EC50007210C913B1EBE73F0DD00FF2C870F3F794
:10EC6000B0FAB5F90200012802DBDFF8940701E0F1
:10EC700047F6FF706880B5F90410C913B1EBE63FA1
:10EC800013D0B4F97410C913B1EBE63F0DD00FF2F5
:10EC9000A070F3F796FAB5F90400012802DBDFF85B
:10ECA000600701E047F6FF70A88094F9080000288B
:10ECB00004D1002000E0401C0328FCDBF7BD00006D
:10ECC000FEB5044600A800210A460B460EC0A06906
:10ECD000E1684518174694F90860052E80F09A807F
:10ECE000012E02D12046FFF73DFF3046012802D910
:10ECF000C01E40F08A80002E01D14FF6FF77DFF86A
:10ED0000F8060068301890F88400401E06285ED887
:10ED1000DFE800F004101D2936424F00B5F902006B
:10ED2000009000A8B5F90010791A4160B5F90410F7
:10ED3000816056E0B5F90000381A009000A8B5F9D6
:10ED40000210791A4160B5F90410816049E0B5F903
:10ED50000200381A009000A8B5F900104160B5F91A
:10ED6000041081603DE0B5F90000381A009000A859
:10ED7000B5F902104160B5F90410791A816030E0EC
:10ED8000B5F90200009000A8B5F900104160B5F98E
:10ED90000410791A816024E0B5F90000009000A801
:10EDA000B5F90210791A4160B5F90410791A816039
:10EDB00017E0B5F90200381A009000A8B5F9001064
:10EDC000791A4160B5F90410791A816009E0B5F942
:10EDD0000000009000A8B5F902104160B5F90410D8
:10EDE0008160012E0AD1002106E050F8212002F3B3
:10EDF0000F0240F82120491C0329F6DB00982880E7
:10EE000000A8416869808068A880002E02D1204651
:10EE1000FFF7A8FE0120FEBD70B52DED028B84B07A
:10EE200000A9002213460CC18169C2688A1890F9B2
:10EE3000081008460A2800F2A480DFE800F0063136
:10EE40007FA2A271A2A2A28C9A001088ADF8000045
:10EE5000B2F9024000A84480B2F904508580DFF87E
:10EE6000980500689FEDB60ABDF9001000EE901AF3
:10EE7000F8EEE00A60EE800AC0ED000A00EE904A6B
:10EE8000F8EEE00A60EE800AC0ED010A00EE905A4A
:10EE9000F8EEE00A20EE800A001D80ED010A74E021
:10EEA0001088ADF80000B2F9024000A84480B2F921
:10EEB00004508580DFF840050068061D9FEDA18B9A
:10EEC000BDF9000000EE100AB8EEC00A10EE100AFC
:10EED000FAF7C4F853EC182BF9F7EEFFFAF7E6F857
:10EEE000B06000EE104AB8EEC00A10EE100AFAF751
:10EEF000B5F853EC182BF9F7DFFFFAF7D7F8F06005
:10EF000000EE105AB8EEC00A10EE100AFAF7A6F892
:10EF100053EC182BF9F7D0FFFAF7C8F8306134E05A
:10EF200018460290106802909DED020ABAEECA0AD5
:10EF3000DFF8C404006880ED0C0A26E0DFF8B804AE
:10EF400000681188A0F85A1000F25A0051884180D8
:10EF50009188818019E0DFF8A004006800F25A006F
:10EF60001188C1805188018191884181D188818136
:10EF70000BE0DFF88404006892F9001080F8681054
:10EF800003E00FF2B840F3F71CF9012004B0BDEC28
:10EF9000028B70BD70B50D46DFF8681451F8204043
:10EFA0000026207F002801D1304670BD607A0028FD
:10EFB00003D0A06F8068804706462846A16FC969C4
:10EFC00088470546002E02D0A06F4068804728463B
:10EFD00070BD01207047F0B4002A1ED400F1100467
:10EFE000A57C066992FBF1F76F43B74202DA22650E
:10EFF000626504E096FBF5F2514321656165A16D00
:10F00000002902D5626D511A6165616DDFF8E82350
:10F010001268D2F8802051186165002B03D499073B
:10F0200001D510300374F0BC7047002904D40021CE
:10F0300001664161816181777047C0B2042817D1B0
:10F0400001F10C008A7A012A09D0072242750B22AD
:10F050008275DFF8B423CA600B2141607047152226
:10F06000427519228275DFF8A423CA601921416014
:10F070007047F2B5044615461A46E4B2162C47D23C
:10F0800064B2DFF8800350F824600227307F002844
:10F090003ED00846C82802D1B420009003E04228A0
:10F0A00001D13C2000909DF91830002B06D4D807E0
:10F0B00004D500993046FFF78CFFF2BD0099304629
:10F0C000FFF789FFA4F10C00C0B2062805D2214643
:10F0D000C9B200A8B26F9269904731462046FFF747
:10F0E000ACFF707A00281BD1294649B23046F26F36
:10F0F0001268904700280DD0B06F40688047002804
:10F1000004D139464F1EC9B20029F5D1002801D1DA
:10F110000020F2BD294649B23046F26F526890474E
:10F12000707A401C70720D2C08D02A4652B2009999
:10F130003046F36F1B69984700F0C7F80120F2BD15
:10F1400060F61C3A89AD84FA0A74513F2DE9F84300
:10F1500004460D4616461F46E4B2162C09D264B288
:10F16000A84850F824804FF0020998F81C000028A5
:10F1700001D1002047E0C82D01D1B42502E0422D85
:10F1800000D13C2598F8090001281BD1314649B22D
:10F190004046D8F87C209268904700280BD0D8F8D9
:10F1A000780080688047002805D14846A0F1010911
:10F1B000C0B20028F3D1314649B24046D8F87C208D
:10F1C000D268904798F80900002802D0401E88F8BD
:10F1D0000900002E0AD10020C8F8600098F8090044
:10F1E000002803D139464046FFF71FFF0D2C09D0F8
:10F1F000324652B229464046D8F87C305B6998477F
:10F2000000F063F80120BDE8F2832DE9F0410446E7
:10F210000D4616461A46E4B2162C25D264B2794839
:10F2200050F82470387F00281ED0C82D01D1B42595
:10F2300002E0422D00D13C250D2C01D1012042E0FD
:10F240009DF91830002B06D4D80704D52946384636
:10F25000BDE8F041BDE606EB460007EB8008D8F8B4
:10F2600038008068002801D500202CE02946384667
:10F27000FFF7B1FED8F838008068854215D0012D1F
:10F2800013DB0FF2C410F2F79CFF324652B2D8F8EB
:10F29000380081683846FB6F5B699847324652B246
:10F2A00029463846FB6F1B699847A4F10C00C0B291
:10F2B000062805D229462046FEF7D6FA012002E0AC
:10F2C00000F003F80120BDE8F08170B56FF0004652
:10F2D00034464F48016804E08A68A24200DA1446C6
:10F2E00009688142F8D14B4D2878401C2870687815
:10F2F000F021084202D09920F6F74CFCF6F7B7FC53
:10F300006878401C6870B44200D100243A4E3068DE
:10F31000C467D0F8802021468A4212D0002901D04B
:10F32000002A0BD1C0F880100FF22C10F2F749FF21
:10F330003068D0F88000F2F720FF02E0012007F0EB
:10F3400045FA6878F021084202D09920F6F722FCAD
:10F350006878401E6870C0B2002801D1F6F781FCC1
:10F36000F7F7DBFA012070BD38B50546294C207847
:10F37000401C20706078F021084202D09920F6F7F6
:10F3800009FCF6F774FC6078401C607029460FF2A7
:10F39000DC00F2F716FF18480068C0F880501C48DF
:10F3A000016805E08A68B2FBF5F26A43CA60096841
:10F3B0008142F7D16078F021084202D09920F6F717
:10F3C000E9FB6078401E6070C0B2002801D1F6F7FA
:10F3D00048FCBDE83140F7F7A0BA0D490A6808E0DB
:10F3E0001369012B01DAD368136113691B1A1361C6
:10F3F00012688A42F4D17047FC54012080540120E5
:10F400000080FFFF0060002094720020F450012073
:10F4100070600020D488002058206973206F7665C2
:10F420007200000059206973206F76657200000039
:10F430005A206973206F766572000000554353545B
:10F44000282564294E5300006368616E6765207249
:10F450006174653200000000675F707453682D3E70
:10F460006354696D6572203D202564006374696D85
:10F470006572203D2025640038B504000D00144855
:10F480000078401C1249087012480078002802D009
:10F49000A120F6F77FFBF7F7FFF9607E662802D020
:10F4A0008220F6F777FBF6F7E2FB05E03821200033
:10F4B00007F092F9F6F7DBFBE06821698842F5D0A6
:10F4C0002900200007F0AAF9F7F727FA31BD00BF9D
:10F4D000D48800209A5501204FF0FF31801E01286A
:10F4E00014D9C01E042811D9801F05280ED9083848
:10F4F0000CD0801E042809D9401F05D0401E1028BA
:10F5000004D9113804D004E0072102E0012100E011
:10F5100003210846704780B501460020C91E1AD055
:10F52000C91E18D0C91E16D0C91E012913D90D39FC
:10F53000032910D9091F07D0491E0CD0C91F032960
:10F5400009D9C91F07D002BD1D210FF21000F2F723
:10F5500038FE012002BD012002BD000050443A20C7
:10F560004C4C53202564000038B504464FF0FF355D
:10F57000F9F750FA2C2C36D8DFE804F03435323461
:10F580003432343432323534193217173435353297
:10F5900035343434193432343234341C1F23272B9D
:10F5A0002E323232323230323400B4251BE04FF486
:10F5B0007A7518E0D0F8DC5415E000F2DC40856A7A
:10F5C00011E000F2DC40056D0DE000F2DC40856FDB
:10F5D00009E0D0F87C5506E00A2504E0052502E0A4
:10F5E000142500E03C25284632BD38B5DFF8684ACE
:10F5F000F3F72AF9E06207F079F9F9F70BFA2063DB
:10F60000002512E0DFF8541A0161DFF8541A416155
:10F61000DFF8502A8261DFF8502AC261DFF84C2AF5
:10F6200002624162406A80476D1C2D2D80F2188174
:10F63000216B05EB8500C000002242544018427047
:10F640004FF0FF32426000220272C2604272032D0C
:10F6500004D17431DFF8182A8A62E3E7022D03D15E
:10F66000DFF8102A4A67DDE7002DCBD0042D04D146
:10F670007431DFF8042A0A65D4E7052D04D174310A
:10F68000DFF8F8298A67CDE7062D04D1DFF8F029E5
:10F69000C1F81421C6E7072D05D101F58A71DFF8FD
:10F6A000E4298A62BEE7082D05D101F58A71DFF8E9
:10F6B000D8290A65B6E7092D05D101F58A71DFF869
:10F6C000CC298A67AEE70A2D9CD00B2D9AD0012D4C
:10F6D00098D00C2D04D1DFF8B829C1F80422A1E795
:10F6E0000D2D05D101F50171DFF8A8298A6299E78E
:10F6F0000E2D05D101F50171DFF89C290A6591E70E
:10F700000F2D05D101F50171DFF890298A6789E78E
:10F71000102D04D1DFF88829C1F8A42282E7122D28
:10F720003FF470AF142D3FF46DAF132D3FF46AAF6B
:10F73000162D3FF467AF2B2D3FF464AF152D04D188
:10F74000DFF86029C1F86C236CE7172D05D101F5AE
:10F750005B71DFF854290A6564E7182D05D101F5BE
:10F760005B71DFF848298A675CE71A2D05D101F241
:10F770000C41DFF83C298A6254E71E2D05D101F2C5
:10F78000AC41DFF830298A624CE7192D04D1DFF84B
:10F790002829C1F80C2445E71F2D05D101F2AC4101
:10F7A000DFF818290A653DE7202D05D101F2AC41AB
:10F7B000DFF80C298A6735E7212D04D1DFF8042909
:10F7C000C1F84C252EE7222D05D101F24C51DFF86E
:10F7D000F8288A6226E7232D05D101F24C51DFF883
:10F7E000EC280A651EE71B2D05D101F20C41DFF85C
:10F7F000282A0A6516E71C2D05D101F20C41DFF815
:10F800001C2A8A670EE71D2D04D1DFF8142AC1F8DF
:10F81000AC2407E7262D04D1DFF8082AC1F8142606
:10F8200000E7272D05D101F21461DFF8FC298A6277
:10F83000F8E6292D05D101F21461DFF8F0298A6775
:10F84000F0E62A2D04D1DFF8E829C1F8B426E9E66C
:10F850002C2D7FF4D7AEDFF8DC29C1F80427E1E6D0
:10F86000012032BD0CB42DE9F04385B004460E46AC
:10F8700001251A2C46D02C2C44D004EB8400C70060
:10F88000DFF8D4870B2E20D1D8F8300007EB000921
:10F8900099F80100002818D02046FFF71DFE012826
:10F8A00013DB2046FFF718FE99F8011081420CDBAC
:10F8B000204600F0A9F90546D8F830003818002194
:10F8C00041700FF67C10F2F77CFCD8F83000395C00
:10F8D00000294ED139184A78002A4AD100223A54D8
:10F8E000104648700CA983B068461822F4F718F93E
:10F8F0000EBC204600F07EF8022835D0032838D10F
:10F90000032536E00B2E16D1FFF7E6FD012812DBAA
:10F910002046FFF7E1FD04EB8401DFF83C27126B82
:10F9200002EBC1014978814205DB0FF61C10F2F7AA
:10F9300048FC022059E01A2C04D13046C0B202F033
:10F94000DBF805E02C2C03D13046C0B207F0F4F808
:10F950000CA983B068461822F4F7E2F80EBC2046E2
:10F9600000F048F8022801D102203EE0032800D12F
:10F9700003250A2E0AD1DFF8E086D8F8300004EB20
:10F980008401CF00395C491C395416E00B2E14D188
:10F99000DFF8C486032C07D1D8F8300090F879003E
:10F9A000002801D101F0FEFA04EB8400C700D8F86A
:10F9B000300038184178491C4170DFF89C86D8F82F
:10F9C0003000D8F82C1004EB8402D700D1E91C23B6
:10F9D000CDE90223C96E009139184B783A5C214673
:10F9E0000FF67000F2F7EDFB284605B0BDE8F00316
:10F9F0005DF80CFB0EB42DE9F04183B005460124FF
:10FA000005EB8500C600DFF850761A2D0CD02C2DA2
:10FA10000AD02846C0B2FFF7A7FD396B71184860BD
:10FA200000200872C86011E0386B315C00290DD1EC
:10FA300030184078002809D12846C0B2FFF794FD5D
:10FA4000396B7118486000200872C86009A984B039
:10FA500068461822F4F764F80FBCD7F830C0664443
:10FA60003669B047022801D1022011E0032801D1F4
:10FA700003240CE0D7F82C80D8E91C67204600212D
:10FA80002A4600F035FC30433943C8E91C012046C2
:10FA9000BDE8FE015DF810FB2DE9FF4704460D4669
:10FAA0000126274607EB87004FEAC008DFF8A89534
:10FAB000D9F830001A2C58D02C2C56D008EB000A5C
:10FAC0009AF80100022814D32046FFF705FD01280B
:10FAD0000FDB2046FFF700FD9AF80110814208DB9A
:10FAE0002046FFF7F9FC8AF801000FF27C70F2F76C
:10FAF00068FBD9F8300018F80010002904D108EB91
:10FB000000025278002A67D00A2D09D1002903D0BB
:10FB1000491E08F8001017E0002108F8001013E053
:10FB20000B2D11D108EB00014A78002A02D0521E99
:10FB30004A7001E000224A70032C05D190F8790048
:10FB4000002801D101F03DFAD9F8300018F8001072
:10FB5000002941D14044407800283DD1204600F0A2
:10FB600053F8032838D1032636E018F8001000298E
:10FB700004D108EB00025278002A2DD00A2D09D1B9
:10FB8000002903D0491E08F8001012E0002108F8EF
:10FB900000100EE00B2D0CD108EB000A9AF80100C2
:10FBA000002803D0401E8AF8010002E000208AF8F5
:10FBB00001001A2C04D12846C0B201F09DFF05E0D7
:10FBC0002C2C03D12846C0B206F0B6FF204600F028
:10FBD0001BF8032800D10326D9F83000D9F82C10DF
:10FBE000D1E91C23CDE90223C96E009108EB000185
:10FBF0004B7818F8002039460FF27460F2F7E1FAFA
:10FC0000304604B0BDE8F0872DE9F04107460126F3
:10FC100007EB8700C500DFF84044206B28184069D7
:10FC20008047032800D103262C2F08D1206B90F8A1
:10FC3000E01600290AD190F8E106002806D13846DE
:10FC400040B200F080F9032800D10326206B295C24
:10FC5000002917D128184178002913D14FF0FF311E
:10FC6000416000210172C160D4F82C80D8E91C45A4
:10FC700001203A4600F03CFB24EA000025EA01019D
:10FC8000C8E91C013046BDE8F08138B5044604EBF4
:10FC90008400C000DFF8C053296B00224254401892
:10FCA000114641702046FFF7AFFFE86AD0E91C23F8
:10FCB00021460FF2D050F2F784FA012032BD2DE92F
:10FCC000F041B6B004460E46B6B201208DF864008D
:10FCD000DFF884531AA8E96A6C22F3F721FF17951D
:10FCE0001AA984B068466C22F3F71AFF0FBC00F023
:10FCF000EFF900270BE0032803D1189703208DF8B4
:10FD00006400286B4044002101727F1C7FB22D2FBC
:10FD10002BDA012000213A4600F0EAFAD5F82CC08F
:10FD2000DCE91C231040194001D10028EDD007EB7D
:10FD300087004FEAC008286B404441680029E4D49A
:10FD4000027A521C0272D2B2724389B28A42DCDB5E
:10FD5000806980470228CED1189702208DF8640070
:10FD6000DDE91801C4E9000103E0DDE91801C4E997
:10FD7000000136B0BDE8F08100210A3842F2077276
:10FD8000904200D20121084670472DE9F04383B02C
:10FD9000044600200190042204F1090101A8F3F7B0
:10FDA000EAFE6168DFF8B062376B282505FB017059
:10FDB0004068019A904204D10FF2D840F2F701FA5C
:10FDC0006AE01046FFF7D8FF002809D16168019B5F
:10FDD00005FB017042680FF2C840F2F7F2F95BE0F0
:10FDE000DFF854743868D0F8008026E090F9089065
:10FDF0006068316B05FB0010C068012101FA09F150
:10FE0000084217D04FF0FF300090034601220199BD
:10FE10004846FFF72EF940B200280BD161680198DF
:10FE20000090306B05FB010043684A460FF28440A6
:10FE3000F2F7C7F94046D0F80080B842D6D138680A
:10FE4000D0F8008020E090F90890C868012202FAFA
:10FE500009F2104215D04FF0FF330122496848469D
:10FE6000FFF774F940B200280BD161680198009047
:10FE7000306B05FB010043684A460FF25040F2F731
:10FE8000A0F94046D0F800806168326B05FB012183
:10FE9000B842D8D101984860BDE8F7832DE9F8430E
:10FEA00081464FF0000844466B4E1FE004EB84008F
:10FEB000C500306B2F1800207872012000212246E7
:10FEC00000F016FAD6F82CC0DCE91C2310401940CB
:10FED00001D1002809D04846F9698847002804D094
:10FEE000306B2818012141728846641C2D2CDDDB03
:10FEF0004046BDE8F2835848C16AD1E91C23002B73
:10FF000001D1002A0BD0002107E001EB8102036B35
:10FF100003EBC20200235372491C2D29F5DB704705
:10FF200030B502460120002100F0E2F94A4AD26AC7
:10FF3000D2E91C452040294001D1002801D00120F0
:10FF400030BD002030BD2DE9F0478146012409EB8A
:10FF50008900C500404E306B2818C068002829D0A1
:10FF6000DFF8D4723868D0F8008003E003244046FC
:10FF7000D0F80080B8421DD090F908A0306B281846
:10FF8000C168012202FA0AF2114021FA0AF149B2CB
:10FF90000129ECD14FF0FF33012241685046FFF7B1
:10FFA000D5F80028E2D0524649460FF23830F2F731
:10FFB00008F9DCE72046BDE8F08710B58AB00446B2
:10FFC0000020ADF8220001900A208DF808000020E2
:10FFD0008DF809008DF80A00ADF82200600719D5E8
:10FFE0000520FFF79DFF002807D004208DF80000B2
:10FFF0000520019000A8F8F709FE0220FFF790FF06
:020000021000EC
:10000000002807D004208DF800000220019000A8ED
:10001000F8F7FCFDE0060CD50820FFF781FF00286B
:1000200007D003208DF800000820019000A8F8F701
:10003000EDFD0AB010BD02460020092A00D070472D
:1000400080B5012902D107F02DFF012002BD024930
:100050002C22F3F765BD0000F04E0120858D0008CD
:10006000818D00088D8D0008918D0008958D000808
:10007000750901082139010815030108E536010851
:100080000F320308D54303081D350108F37D01082D
:100090002B060108BD300308B9250308053B0308FA
:1000A0008B410308ED4403081D470308E1390308A9
:1000B00089260108FF2B0308DD3D0308B39F0108D3
:1000C000BF4203087B3803088B5D0108575F0108B6
:1000D0000FB41B98009901600199416002998160F9
:1000E0000399C1600499016105994161BDF85A10F5
:1000F0000183BDF85C104183BDF85E1081830C99CB
:100100000162139941621499816204B07047000042
:100110004168122903D1C17A002001F004B81329E3
:1001200003D1017B012000F0FEBF142903D1417BE4
:10013000022000F0F8BF152902D1C07A01F004B8FE
:10014000172961D1817A1B2908D01C2932D01D2999
:1001500011D0262928D02C293CD07047C17B0129F9
:1001600003D1B0F80B0003F007B902294CD1B0F865
:100170000D0003F0FFB8017D012903D1B0F80B0099
:1001800008F080B9022903D1B0F80D0008F06EB96B
:10019000042903D1B0F8170008F076B9032933D148
:1001A000B0F8150008F07CB9C17B01292CD1807B07
:1001B00008F099BA817B012902D1C07A08F09FBC6E
:1001C000022902D1007B08F0A4BC05291CD1407B88
:1001D00008F07FBC417D012902D1C07B07F0B9BA8C
:1001E000022902D1C08A07F0A0BA032902D1008BEC
:1001F00007F0A5BA042902D1408B07F0C8BA052937
:1002000002D1808B07F0B5BA70470C49086070477F
:100210000A480068704700001D3301084D89010835
:100220000B8401082D860108FB0E03081146030804
:1002300095100308677601087C6B002000550120AB
:10024000414C204558000000414C2045582D415458
:1002500000000000414C25642025642025642025F1
:100260006420256C6C750000524C2045580000003D
:10027000524C256420256420256420256420256CAB
:100280006C7500005445524D20256420256C6C751A
:10029000000000004558204C4D4352312025640099
:1002A0004558204C4D43523220256420256420259A
:1002B000640000004558204C4D43523320256420F3
:1002C0002564202564202564000000004558204C4A
:1002D0004D43523420256420256420256420256464
:1002E00000000000534D5241202564202564000089
:1002F000D2B2203A22BF00FA02F1002070475242E7
:10030000D041D2F1200291404140D0409040414044
:100310007047000038B5F8F77DFB0446104DF2F742
:1003200093FA286004F044FE04F047FE686004F08D
:100330007FFF0C48C4F8B00004F1B0000A494160E6
:100340000A4981600A49C1600A490161012032BD40
:1003500003494968896808470148406800680047C0
:10036000A0540120858D0008818D00088D8D000826
:10037000918D0008958D00082DE9F04786B0044660
:1003800001A81421F5F7B8FBF1F799FE05464FF0E7
:100390000208002601E0761C76B20A2E80F29E80CA
:1003A000022EF8D0032EF6D0062EF4D0524850F884
:1003B0002670787A002806D107F10C00C06E4068DC
:1003C00080470028E7D008F8046008F101084FFAD8
:1003D00088F8304609284FD8DFE800F0050A4E4E6D
:1003E00010204E154E49C8212846F2F755F843E033
:1003F0004FF448712846F2F74FF83DE03221284685
:10040000F2F74AF838E007208DF80400FF208DF855
:10041000050032212846F2F73FF82DE03C2128461E
:10042000F2F73AF84FF0000A07F10C09BAF1030F9E
:1004300022DA0020D9F86C1009698847142128466F
:10044000F2F72AF80120D9F86C10096988471421BD
:100450002846F2F721F8BAF1020F05DA062101A8C1
:10046000D9F86C20526990470AF1010ADEE74FF48F
:1004700016712846F2F710F807F10C0999F81510D3
:1004800001A8D9F86C2052699047002819D0D9F8F2
:100490000C00F96800EB010A99F8152001A95046F3
:1004A000F3F769FB3846FEF70BFC99F81520514627
:1004B00008EB0400F3F75FFB99F9150080444FFA4D
:1004C00088F8787A00287FF466AFD9F86C008068E5
:1004D000804700287FF45FAF002009E0A8F1020008
:1004E000ADF80000022200A92046F3F744FB0020EB
:1004F00006B0BDE8F08700000060002038B50500B8
:100500000C0094F84C00642802D08020F5F742FBE0
:10051000F6F79AF9F5F7ABFB606928436061207C38
:1005200010F0F800082806D1A0696169084202D0DD
:100530002000F6F72EFA07484078F021084202D052
:100540009920F5F727FB03484078002801D1F5F7FB
:1005500088FB31BDD48800200FB480B5BDF80B00F6
:1005600065494880022802D3801E088001E00020EF
:1005700008800C229DF90A100020F8F74DFA032894
:1005800001D1022000E0012002BC5DF814FB5A48B2
:1005900001214180002101800120704757490870E6
:1005A0007047000030B58DB002A8F8F79BFA524CA6
:1005B0002088401C2080618880B2884232D300208D
:1005C0002080054628E06068D0F8EC010121A940B0
:1005D000084220D0284606F0DAF900281BD400EBA8
:1005E00080009FED440ADDED0B0A60EE800AFDEE0F
:1005F000E00A10EE901A00AA8152DDED0C0A20EEFE
:10060000800ABDEEC00A10EE101A8218518000A9AF
:100610004018012101716D1C172DD4DBDDE90001AB
:1006200006F0BEF901200DB030BD80B5F8F7F2F943
:10063000314948603249C0F8F01100F5F87031498D
:100640004160314981600FF21101C1600FF2250153
:100650000161012002BD000010B50024274890F977
:100660000000002804D106F0BAF9002800D00124C7
:10067000204610BDF8B504460D4640F249162878CC
:1006800016FB004001210170287816FB00404170E4
:10069000287816FB00400C218170287816FB00405A
:1006A000164991F90010002902D00221C17001E021
:1006B0000121C170287816FB0040012101712878C2
:1006C00016FB0040C180287816FB0047002006F08A
:1006D00028F93881287816FB0044002006F026F916
:1006E00060812878401C28700C20BDE8F24006F09C
:1006F00036B900000000C842F88900207C5501206E
:10070000590501088F050108A50501080FB410B5AA
:10071000032200210846F8F77FF9022801D10220C0
:100720001CE00FF24000F1F74CFDDFF8404C0020D8
:100730006073608260629DF80C209DF80B109DF83C
:100740000A0008F077FF58220021DFF8B40CF2F716
:10075000DFFD00202074A073A063012010BC5DF8B1
:1007600014FB000050443A20537461727450656465
:100770006F2D303632362D310000000080B5032257
:1007800000210120F8F748F9032801D1032002BD18
:10079000012002BD30B58BB000A8F8F7A3F9052100
:1007A0000320F8F71DFA002802D1DFF8580C089052
:1007B000DFF8B84BE069C56F08F0D1FE207294F9FC
:1007C0000800022806D13C2D04D114210320F8F79B
:1007D0008BF907E0012805D1142D03D13C2103201A
:1007E000F8F782F9284680B2DDED081A00A991ECED
:1007F000030A08F081FD206A2818206201200BB04E
:1008000030BD10B5DFF8644B94F9000000283BD4EC
:1008100094F90A0094F90110814229D1217B08182A
:10082000A07240B23D2801DB3C38A07294F90A1056
:100830000FF27000F1F7C5FC00202062DFF8C80B52
:1008400090F901004FF0FF31884201D1012010BD25
:1008500094F90110081AF8F717FB21F0004104F091
:100860007BFB40B2012801DB012010BD002010BD40
:10087000DFF8980B90F90120914203D0D4E90023CE
:10088000C0E90023002010BD206ADFF8841B8842E5
:1008900005DB0FF21C00F1F794FC012010BD0020D5
:1008A00010BD000050443A204E5420256400000042
:1008B00050443A204E6F54696D6500002DE9F843AD
:1008C0000026DFF8A84A07E07A19A27252B2314630
:1008D0000FF26C00F1F775FC94F90A50002E21D448
:1008E0006078461B76B294F90C70002EECD5304639
:1008F000F8F7CAFA21F0004102460B4690469946A5
:100900003846F8F7C1FA42464B4605F0DBFBE3D226
:10091000EA1BA272002652B231460FF23800F1F7FC
:1009200050FCD9E73C2D02DBA5F13C00A07294F904
:100930000A100FF23400BDE8F443F1F742BC0000A6
:1009400050443A20636F6D70312025642C2025645B
:100950000000000050443A20636F6D70322025641F
:100960002C2025640000000050443A2043555420B8
:100970002564000010B5DFF8F4490020A0730120C1
:100980002072002060724FF0FF3020700F20E07264
:1009900014202073002060736082606260742063A2
:1009A000606328220146DFF8700AF2F7B1FCF8F71D
:1009B00031F8E061F1F783FBA061E069DFF85C1AD0
:1009C000C0F888108830DFF8581A4160DFF8541AF0
:1009D00081600FF28D21C1600FF64D210161012070
:1009E00010BD10B582B04FF46163C1EB0114A400D7
:1009F00013FB0043D3184FF47A746343DFF8184AAB
:100A00002360DFF868391B7C009313460A460146D1
:100A10000FF20800F1F7D5FB13BD0000504420424F
:100A200054202564202564202564202564000000CE
:100A30002DE9F0412DED028BAAB0DFF8C4693146F3
:100A400084B068465822F3F76BF80FBC00F090FCB6
:100A500010EE100AF8F702FB41EC100B9FED7E8BB5
:100A6000DFF8B449656853EC102B51EC180BF8F71C
:100A700023FA04F071FA15FA80F060604FF6FF7502
:100A8000A84200D36560314684B068465822F3F727
:100A900047F80FBC00F022FC10EE100AF8F7DEFA5F
:100AA00041EC100BA76853EC102B51EC180BF8F726
:100AB00003FA04F051FA17FA80F0A060A84200D3BC
:100AC000A5600020139002201290314684B0684641
:100AD0005822F3F725F80FBC00F094FAA1894018CA
:100AE000A08180B2FF2801D3FF20A08100201390B5
:100AF00003201290314684B068465822F3F710F86C
:100B00000FBC00F07FFA216940182061A84200D391
:100B100025610020139006201290314684B068466B
:100B20005822F2F7FDFF0FBC00F06CFAA18A4018C2
:100B3000A08280B2FF2801D3FF20A0820020139062
:100B400007201290314684B068465822F2F7E8FF39
:100B50000FBC00F057FAE18A4018E08280B2FF280B
:100B600001D3FF20E082002013900820129031462C
:100B700084B068465822F2F7D3FF0FBC00F042FA67
:100B8000A1694018A061A84200D3A561002013907C
:100B900009201290314684B068465822F2F7C0FF0F
:100BA0000FBC00F02FFAE1694018E061A84200D3C1
:100BB000E56114A808F0D7FCDFF8607DD7F8308035
:100BC0002398F8F74BFA0022DFF8343DF8F774F970
:100BD00004F0C2F958FA80F03863796B491C7963E4
:100BE000B0FBF1F084F82000002013900120129057
:100BF000314684B068465822F2F792FF0FBC00F0ED
:100C000001FA616A40186062A84200D36562F87B0D
:100C100000F0E3FA2AB0BDEC028BBDE8F081DFF80A
:100C2000F8078189002914D10169002911D1818A2D
:100C300000290ED1C18A00290BD18169002908D170
:100C4000C169002905D1406A401E8041C043C00FE0
:100C5000704701207047000000000000000059406C
:100C60002DE9F04FABB006460025DFF8B04CA07B75
:100C7000314688420BD0012E40F09E80E06990F909
:100C8000782090F979100FF6CC40F1F79AFA14A871
:100C900008F069FCDFF8689728461390012012904D
:100CA000494684B068465822F2F73AFF0FBC00F07C
:100CB000A9F907469DED230AD9ED0F0A30EE600A27
:100CC00010EE100AF8F7CAF92A46DFF8343CF8F7B4
:100CD000F3F804F041F980461FFA88F8BDF89A004D
:100CE000B9F84A10A0EB010A5FFA8AFAE06990F8B5
:100CF000D914002903D190F8D814002905D0E16A4D
:100D0000149A5118A26B891AE16200F5AF61497813
:100D1000002903D190F87825002A05D0A26A149BF7
:100D20009A18A36BD21AA262A269927A002A1AD1E7
:100D3000A26A002A08D0002903D190F8780500287B
:100D400002D0012005F027F9E06A00280BD0E06905
:100D500090F8D914002903D190F8D804002802D0C3
:100D6000012009F046F9002E33D1002F02D15AEAB2
:100D7000080000D00125002020624FF0FF302070D5
:100D8000DFF88826D4E90001C2E90001DFF8A42BCE
:100D9000C2E90001DFF87026C2E90001E07AA07222
:100DA000A07B00284DD00020A073207C002848D0D4
:100DB00001206074054644E0002E04D10FF6A830EF
:100DC000F1F7FFF963E70FF6AC30F1F7FAF92846CF
:100DD000E5E000F0A4F900281BD000A8F1F78CFC96
:100DE000204600A90522F2F78BFE28466072DFF844
:100DF0001C26D4E90001C2E9000194F9023094F9FB
:100E0000012094F900100FF68830F1F7DAF9FFF7B6
:100E100055FD00A8F1F770FC204600A90522F2F765
:100E20006FFEFFF7EEFC00280BD0DFF8DC25D4E9DD
:100E30000001C2E90001207C002801D0012060747B
:100E40000125012E06D1A07B012803D000F034FA41
:100E50000120A073012E58D1002F56D0DFF8D4BA4C
:100E6000E07B217C08430CD101202074052221461F
:100E70000BF10800F2F77FFEA27861782078FFF787
:100E8000B0FD94F901009BF90910401A411E222976
:100E900001D2012005E010F1230F01DA012000E06A
:100EA000002001282AD1002020636063FFF7B7FEED
:100EB000002823D028220021DFF85C05F2F728FA69
:100EC000E07B401CE073C0B2152809D10FF6D82092
:100ED000F1F777F9012060740020E07301250DE03F
:100EE000207C401C2074A27861782078FFF779FD7F
:100EF000052221460BF10800F2F73DFEFFF798FDB1
:100F0000582214A94846F2F736FE607B012833D1F7
:100F1000608A002805D10FF6A020F1F752F90125CB
:100F200023E0616A814218D2002F02D15AEA0800F8
:100F300000D00125DFF8FCB99BF9020094F90220EA
:100F4000904212D0491C61620FF68020F1F739F906
:100F5000D4E90001CBE9000107E000206073608262
:100F600060620FF67820F1F72CF9012E04D1207C75
:100F7000002801D001206074012D01D100202062E1
:100F8000E06990F87900002806D100202062012D48
:100F900001D100F091F900251498A06328462BB0E8
:100FA000BDE8F08F10B5DFF874090021016203225B
:100FB00005210020F7F730FD044600F007F8204631
:100FC00010BD032205210120F7F726BD00B597B01B
:100FD00000A808F0C8FA582200A9DFF84409F2F77F
:100FE000CAFD012017B000BDDFF83009806A7047E4
:100FF000DFF82809002181627047DFF8200900210D
:10100000C16270470FB430B597B09DF9C0409DF9EB
:10101000C400002501280BD108F09DFB1A998842D5
:1010200002D3451AEDB270E08038451AEDB26CE09B
:1010300000A808F098FA641E082C66D8DFE804F0CF
:101040002905111D2936424E5A0001981B998842E4
:1010500001D3451A59E0DFF8E0281018401A451C62
:1010600053E002981C99884201D3451A4DE0DFF8FD
:10107000C8281018401A451C47E003981D9988425B
:1010800001D3451A41E0DFF8B0281018401A451C7A
:101090003BE000981A99884201D3451A35E0DFF801
:1010A000981808181A99401A451C2EE004981E99A1
:1010B000884201D3451A28E0DFF87C281018401A2E
:1010C000451C22E005981F99884201D3451A1CE06F
:1010D000DFF864281018401A451C16E0069820997D
:1010E000884201D3451A10E0DFF84C281018401A46
:1010F000451C0AE007982199884201D3451A04E06B
:10110000DFF834281018401A451C284617B030BCA8
:101110005DF814FBDFF80408012141727047DFF825
:10112000FC07407A704708F031BADFF8F0177928E9
:1011300002D378224A8200E0488201224A730146A3
:101140000FF6AC00F1F73DB810B5040001D1012451
:1011500002E0072C00D3062421460FF6A800F1F781
:1011600030F8641E052C2DD8DFE804F0030A1118AE
:101170001F26DFF8A8073721C1723C21017321E047
:10118000DFF898071921C1721E2101731AE0DFF8F8
:101190008C070F21C1721421017313E0DFF87C0763
:1011A0000A21C1720F2101730CE0DFF870070721DB
:1011B000C1720C21017305E0DFF860070521C172DF
:1011C0000A210173DFF85407C17A8172BDE810402B
:1011D000FFF774BBDFF82C07704700EB8001880035
:1011E000421CDFF820078C4992B20B681B0E135487
:1011F000521C92B20B681B0C1354521C92B20B6817
:101200001B0A1354521C92B20B681354521C92B214
:101210004B681B0A1354521C92B24B681354521C55
:1012200092B28B681B0A1354521C92B28B681354EF
:10123000521C92B28B891354521C92B20B691B0A36
:101240001354521C92B20B691354521C92B28B8AE3
:101250001354521C92B2CB8A1354521C92B28B6913
:101260001B0A1354521C92B28B691354521C92B233
:10127000CB691B0A1354521C92B2CB691354521CF3
:1012800092B291F820301354521C92B24B6A1B0A4E
:101290001354521C92B2496A1154DFF88006511C53
:1012A0008182704710B5DFF87446A18A0FF2607032
:1012B000F0F787FFA08A10BD80B52822002156488C
:1012C000F2F726F8DFF854060021C173012181826C
:1012D000002101740163416301BD00000FB400B53A
:1012E00097B000A808F03FF99DED090ADDED210A4D
:1012F000B4EE600AF1EE10FA02DB30EE600A05E0AF
:101300009FED441A71EE600A30EE800A10EE100A6A
:10131000F7F7A4FEDFF8F025DFF8F03508F0AAFEB5
:10132000F7F7C4FEF7F79AFE0022DFF8E435F7F787
:10133000C3FD03F011FE00EE100AB8EEC00A10EE75
:10134000100AF7F78BFEDFF8C025DFF8C835F7F78E
:10135000B3FDDFF8C425DFF8E43508F08BFEF7F7BE
:10136000A5FE00EE100A17B05DF814FBA84D012091
:101370000FB400B597B000A808F0F5F89DED0E0A7F
:10138000DDED260AB4EE600AF1EE10FA02DB30EE73
:10139000600A05E09FED1F1A71EE600A30EE800AC8
:1013A00010EE100AF7F75AFEDFF85C25DFF85C351F
:1013B00008F060FEF7F77AFEF7F750FE0022DFF83C
:1013C0005035F7F779FD03F0C7FD00EE100AB8EECF
:1013D000C00A10EE100AF7F741FEDFF82C25DFF8FF
:1013E0003435F7F769FDDFF83025DFF8503508F0C0
:1013F00041FEF7F75BFE00EE100A17B05DF814FB34
:10140000004A012000007A44B0540120A854012071
:1014100040771B0000247449A84F01200D070108E4
:101420007D070108950701082DE9F0472DED068B92
:10143000AAB006460D4614A808F095F840F24914E3
:10144000287814FB006001210170287814FB0060EB
:10145000DFF8C874797B01290CD103214170287809
:1014600014FB00600121C170788A002804D100209B
:10147000787301E001214170287814FB006003219A
:101480008170787C012820D1387C00281DD02978F3
:1014900014FB0161C0220A71DFF868140870287813
:1014A00014FB0068FFF7FEFEA8F83000287814FB54
:1014B0000064FFF78FFEC4F832002878401C2870C3
:1014C000FFF7FAFE0020787415E20DF18C099FED0C
:1014D000868B9FED879BDFF84874002013900120D6
:1014E0001290394684B068465822F2F719FB0FBCB7
:1014F000FFF788FD0A28287814FB006080F0FC8044
:1015000000210171287814FB006898F804A00846AF
:10151000139002201290394684B068465822F2F7A0
:10152000FFFA0FBCFFF76EFD40EA0A0088F80400DE
:10153000287814FB0068002013900320129039468D
:1015400084B068465822F2F7EBFA0FBCFFF75AFD59
:1015500088F80500287814FB006800201390042008
:101560001290394684B068465822F2F7D9FA0FBC77
:10157000FFF748FD88F80600287814FB0068002073
:10158000139005201290394684B068465822F2F72D
:10159000C7FA0FBCFFF736FD88F80700394684B05C
:1015A00068465822F2F7BCFA0FBCFFF7E1FE10EED6
:1015B000100AF7F753FD41EC100B287814FB006874
:1015C00053EC102B51EC190BF7F776FC03F0C4FC2D
:1015D000A8F80E00287814FB00682398F7F73EFD62
:1015E00053EC182BF7F768FC03F0B6FC88F81000F2
:1015F000287814FB0060B9F80E104174394684B0A5
:1016000068465822F2F78CFA0FBCFFF767FE10EE1F
:10161000100AF7F723FD41EC1A0B287814FB006839
:1016200053EC1A2B51EC190BF7F746FC03F094FC22
:1016300088F81200287814FB0068D9F80800F7F73A
:101640000DFD53EC182BF7F737FC03F085FC88F8F9
:101650001300287814FB00680020139006201290D5
:10166000394684B068465822F2F75AFA0FBCFFF7A1
:10167000C9FC88F80800287814FB00680020139043
:1016800007201290394684B068465822F2F748FA8B
:101690000FBCFFF7B7FC88F80900287814FB006836
:1016A0000020139008201290394684B068465822D2
:1016B000F2F736FA0FBCFFF7A5FC88F80A00287885
:1016C00014FB00640020139009201290394684B066
:1016D00068465822F2F724FA0FBCFFF793FCE07239
:1016E0002878401C287004E100000000000024401D
:1016F000000000000000594080210171287814FB8F
:1017000000680020139002201290394684B0684689
:101710005822F2F705FA0FBCFFF774FCC8F8050071
:10172000287814FB0068002013900320129039469B
:1017300084B068465822F2F7F3F90FBCFFF762FC59
:10174000C8F80900287814FB0068002013900420D2
:101750001290394684B068465822F2F7E1F90FBC7E
:10176000FFF750FCC8F80D00287814FB0068002033
:10177000139005201290394684B068465822F2F73B
:10178000CFF90FBCFFF73EFCC8F81100394684B012
:1017900068465822F2F7C4F90FBCFFF7E9FD10EED6
:1017A000100AF7F75BFC41EC100B287814FB00687B
:1017B00053EC102B51EC190BF7F77EFB03F0E2FB17
:1017C000C8F82700287814FB00682398F7F746FC30
:1017D00053EC182BF7F770FB03F0BEFB88F82B00D7
:1017E000287814FB0060B9F80E1080F82C103946E8
:1017F00084B068465822F2F793F90FBCFFF76EFDEC
:1018000010EE100AF7F72AFC41EC1A0B454A464B3A
:1018100004F070FC06D8454A454B04F053FC01D255
:101820009FED47AB287814FB006853EC1A2B51EC62
:10183000180BF7F741FB03F08FFBA8F82D00287871
:1018400014FB0068D9F80800F7F708FC53EC182BD4
:10185000F7F732FB03F080FB88F82F00287814FBA1
:1018600000680020139006201290394684B0684624
:101870005822F2F755F90FBCFFF7C4FBC8F8150062
:10188000287814FB00680020139007201290394636
:1018900084B068465822F2F743F90FBCFFF7B2FB59
:1018A000C8F81900287814FB00680020139008205D
:1018B0001290394684B068465822F2F731F90FBCCD
:1018C000FFF7A0FBC8F81D00287814FB0064002077
:1018D000139009201290394684B068465822F2F7D6
:1018E0001FF90FBCFFF78EFBC4F821002878401CBD
:1018F0002870FFF76BFB2AB0BDEC068BBDE8F087C4
:10190000000024405C2801207B14AE47E17A743F3C
:1019100000005940E17A843F2D431CEBA84D012083
:10192000004A0120B81E85EB51B89E3F9A999999BB
:101930009999B93FE452012080969800E2361A3F07
:101940009A9999999999B93F80B5C046C0460120A6
:1019500002BD0000504420526566204528256429B8
:101960002C492825642900005044203A206C6364E7
:101970006F6E00005044203A206249734150536C0E
:10198000656570696E672077726F6E6720256400E9
:1019900050443A54696D654E6F7469202564202562
:1019A0006420256400000000504420425420424638
:1019B0002046554C4C00000050443A20526571209E
:1019C0005065646F496E666F3100000050443A20E4
:1019D0007574696D657220256400000050443A20DA
:1019E000526571205065646F496E666F3200000069
:1019F00050443A205374617274204461746120250C
:101A00006400000050443A20555420256400000032
:101A100050443A204241544C454E47544820256496
:101A20000000000010B5DFF89C4C4FF42872002134
:101A30002046F1F76DFCFF202070E07284F862020E
:101A4000DFF8C00C0021417010BDF8B501240B284F
:101A500024D101290ED1DFF86C3CD31893F95452EC
:101A60002E46DFF8A47CD75DBE4210DA6D1C83F8E9
:101A7000545230E002292ED1DFF8483CD31893F9B4
:101A80005452012D03DB6D1E83F8545223E0DFF81E
:101A9000343CD318002483F854421CE00A281AD19D
:101AA000012908D1DFF81C3CD31803F515735D79C3
:101AB0006D1C5D710FE002290DD1DFF8083CD318D1
:101AC00003F5157393F90550012D02DB6D1E5D7151
:101AD00001E000245C71002C05D1134602460FF290
:101AE0000C00F0F76EFB2046F2BD000041542D259E
:101AF000643A256420256400DFF8C81B81F85E0283
:101B000070470FB42DE9F04194B00124DFF8F45B85
:101B1000E868DFF8B06B90F81014002957D190F8FE
:101B20001104002853D10FF22C20F0F74AFBB42007
:101B30008DF8020046208DF8030020468DF8040041
:101B400000208DF82C0003200C900DF1350000A929
:101B50001822F1F7D5FF0A208DF834000BA8F7F70B
:101B600055F8002801D10220EEE000A8F0F7C4FDEE
:101B70009DF80000B0779DF90100F0779DF9021003
:101B800086F82010BDF90320A6F821209DF9003029
:101B90004FF46167C0EB001C4FEA8C0017FB030099
:101BA00040FA81F04FF47A7101FB0020C6F8020080
:101BB000C6F80D000020A861E8702870A870687051
:101BC00028712422014606F52870F1F7A1FB9DF843
:101BD0006A70A046012F1DD1DDF86B00202805D0CA
:101BE000D6F817100843C6F817000BE0204607E0A8
:101BF000D6F8171008FA00F21143C6F81710401C67
:101C00000528F5D3F07E9DF96F1008FA01F108431D
