:1000000000200020450003087DA1020891A10208FC
:10001000A5A10208B9A10208CDA1020800000000B4
:10002000000000000000000000000000E1A1020844
:10003000F5A1020800000000114A000887A6000888
:100040005D03030861030308650303089BA7020817
:100050006D030308F7A802084DA40208DDA50208F5
:1000600069A60208810303088503030889030308BE
:100070008D030308910303089503030899030308FC
:100080009D030308A1030308A5030308A9030308AC
:10009000AD030308B1030308B5030308B90303085C
:1000A000BD030308C1030308C5030308C90303080C
:1000B000CD030308D1030308D5030308D9030308BC
:1000C000DD030308E1030308E50303080DA20208AA
:1000D000ED030308F1030308F5030308F90303081C
:1000E00007A702085BA8020805040308090403081F
:1000F0000D04030811040308150403081904030878
:100100001D04030821040308250403082904030827
:100110002D040308310403083504030839040308D7
:100120003D04030841040308450403084904030887
:100130004D04030851040308550403085904030837
:100140005D040308610403086504030869040308E7
:100150006D04030871040308750403087904030897
:100160007D04030881040308850403088904030847
:100170008D040308910403089504030899040308F7
:100180009D040308A104030838B5DFF8CC4C002017
:10019000E06120626062A062E062A081DFF8BC0CD6
:1001A000E063DFF8BC0C206460643220E0824FF42E
:1001B00096702083DFF8AC5C4FF42072002105F1CB
:1001C000400002F04BF84FF42072002105F530702A
:1001D00002F044F89022002105F5B86002F03EF8E4
:1001E00040220021284602F039F840220021DFF8A1
:1001F0003C0D02F033F840220021DFF8340D02F00C
:100200002DF840220021DFF82C0D02F027F84022C3
:10021000002105F5A86002F021F84022002105F533
:10022000B06002F01BF840220021DFF80C0D02F054
:1002300015F840220021DFF8040D02F00FF8052226
:100240000021204602F00AF805220021DFF8F00C18
:1002500002F004F805220021DFF8D40D01F0FEFFC2
:100260000020A0822063A0632061A0606063E0643E
:100270000220A07331BD80B50FF2100002F092F899
:10028000DFF8D40B0021017301BD00004C54205352
:10029000746F70007047DFF8C01B4FF47A725043E0
:1002A000C86301460FF2040002F07CB84C5420539E
:1002B0005044202564000000DFF89C2B4FF47A7135
:1002C00048431064014651640FF2040002F06AB81A
:1002D0004C5420575044202564000000DFF8781B60
:1002E000C88201460FF2040002F05CB84C5420535F
:1002F0005220256400000000DFF85C1B08830146E3
:100300000FF2040002F04EB84C5420534152202505
:10031000640000000EB410B587B0DFF8184DBDF8CA
:100320006E0000281ED1DFF8100DD0E90023CDE9C2
:100330000223D4E90001CDE90001DDE9022300F048
:1003400088FFDFF8141BC96B4FF47A724243914265
:1003500006D201460FF2280002F024F801200AE03C
:10036000002008E004A802F00DFB204604A90522A5
:1003700002F0B8FB002007B010BC5DF810FB0000D5
:100380004C542053544F5020436865636B696E672B
:1003900020256400DFF8C00A01210162C16100214B
:1003A0008162C1627047DFF8B00A01214162C16118
:1003B0007047DFF8A40AC0697047DFF89C0A002183
:1003C000C1610FF2080001F0EDBF00004C54205253
:1003D000455345545F434D4452440000DFF8780ACA
:1003E000002101620FF2040001F0DCBF4C542052E6
:1003F000455345545F504F5352455100DFF8580A5A
:10040000002141620FF2040001F0CCBF4C54205295
:10041000455345545F504F4941434B00DFF8380A7C
:10042000012181620021C16201727047DFF8280A50
:100430000121C16270472DE9FC4106460F469046F6
:10044000DFF8E84ADFF81C5A20462946402202F02D
:1004500059FB85ED000B85ED021B85ED042B85F81E
:10046000296085F82A7085F82B80D4E904230020C0
:10047000014602F083FB0ED1D4E9002302F07EFB9B
:1004800009D1D4E9022302F079FB04D120462946A0
:10049000402202F037FB95ED020B8DED000BD5E904
:1004A00000230FF20C0001F07DFFBDE8F381000096
:1004B0004C54205550504F5320256620256600008F
:1004C00030B583B0DFF89049A06A012815D1DFF874
:1004D000605A2846DFF88C19402202F013FB95ED94
:1004E000020B8DED000BD5E900230FF2140001F093
:1004F00059FF0020A06201203EBD00203EBD00004B
:100500004C54203173742025662C20256600000091
:1005100030B583B0DFF84049A06A012815D1DFF873
:10052000145A2846DFF83C19402202F0EBFA95ED08
:10053000020B8DED000BD5E900230FF2140001F042
:1005400031FF0020A06201203EBD0020A0623EBD20
:100550004C5420326E642025662C20256600000055
:100560000020DFF8F418CA6A012A01D1C86201200C
:1005700070470FB400B59DB0DDE92E2302F00EFBED
:10058000CDE90C01DDE92001DDE9302302F006FBB5
:10059000CDE90E010CA984B06846402202F0B2FAFF
:1005A0000FBC00F05DFD53EC102B0020DFF81C1E8B
:1005B00002F0B4FB41EC100B1DB05DF814FB000021
:1005C0000FB470B52DED048B9CB0DFF88C58687AB1
:1005D000002801D1002043E00A2801DB0A2600E0C0
:1005E000AE7A9FED998B002422E0DFF8781801EBBA
:1005F000801000F530710CA8402202F083FA24A983
:1006000084B06846402202F07DFA0FBCFFF7B1FFCC
:10061000B0EE409AF0EE609A51EC190B53EC182BA7
:1006200002F05AFC03D2B0EE498AF0EE698A641CEB
:10063000E4B22046B042D8DB288B02F073FC0246BD
:100640000B4651EC180B02F047FC01D2002007E0EA
:1006500053EC182B0FF2140001F0A4FE0120E86403
:100660001CB0BDEC048B70BC5DF814FB4C542053E3
:1006700041204F55542025660000000030B585B05C
:10068000DFF8E04794F969058DF8000004F269503D
:1006900090F901108DF8011090F902008DF8020018
:1006A000B4F86C05ADF80300DFF88C59D5E900010A
:1006B000CDE90201DDE90223DDE9000100F0C9FD19
:1006C000C4F87805DFF89007D5E90023C0E90023D6
:1006D00005B030BD0FB42DE9F0412DED088B84B08D
:1006E000DFF87447DFF87C57A07A05EB80109DEDAA
:1006F000120B80EDA00B00F520709DED140B80ED2A
:10070000020B9DED160B80ED040B2099816394F88C
:100710000980B8F10A0F01DB4FF00A089FEDBF8B8B
:10072000B0EE489AF0EE689AB0EE48AAF0EE68AAE9
:1007300000261DE005EB861753EC182BD7E9B00116
:1007400002F0FEFB41EC180B07F5307753EC192B48
:10075000D7E9020102F0F4FB41EC190B51EC1A0B42
:10076000D7E9042302F0ECFB41EC1A0B761CF6B23D
:100770004645DFDB404602F0D5FB41EC1B0B51EC5C
:10078000180B53EC1B2B02F04FFC05F5A862C2E9D5
:10079000000105F2405651EC190B53EC1B2B02F0F3
:1007A00043FCC6E9020151EC1A0B53EC1B2B02F07F
:1007B0003BFCC6E9040195F969058DF8000005F2D6
:1007C000695797F901008DF8010097F902008DF83B
:1007D0000200B5F86C05ADF80300DFF85C88D8E9D5
:1007E0000001CDE90201DDE90223DDE9000100F0AD
:1007F00030FD0246C5F87825D8E90001C4E90001BA
:100800000192B87800907B7895F86925617A0FF2AB
:10081000142001F0C7FD96ED020B8DED000B05F5E0
:10082000A860D0E900230FF2606001F0BBFD032057
:10083000A0730FF2044001F0B5FD04B0BDEC088BCD
:10084000BDE8F0015DF814FB00000000006AF8400C
:100850000FB42DE9F0472DED088B86B0DFF8D047B7
:10086000DFF8D4A7DAE90001CDE90401D4E90001F9
:10087000CDE90201DDE9042300F0EBFCDFF8D855F7
:10088000A97ADFF8E06506EB81129DED160B82ED8B
:10089000B00B02F530739DED188B83ED028B9DED4F
:1008A0001A9B83ED049B237882F8E93202F2E92354
:1008B00067785F70A7789F7000B2C2F8F802481C92
:1008C000A872C0B20A2801D10020A872687A00F18B
:1008D000010885F809805FFA88F8A8F1010002F0A4
:1008E00017FB41EC1A0B06F2405953EC1A2BD9E9CD
:1008F000020102F013FA53EC182B02F021FB41EC39
:10090000180B53EC1A2BD9E9040102F007FA53EC47
:10091000192B02F015FB41EC190B404602F002FBCB
:1009200041EC1B0B53EC1A2B06F5A86041680068DC
:1009300002F0F4F9DDE9162302F002FB53EC1B2B65
:1009400002F072FB06F5A862C2E9000151EC180B37
:1009500053EC1B2B02F068FBC9E9020151EC190BA7
:1009600053EC1B2B02F060FBC9E9040106F2695746
:10097000B8F1010F0AD1207886F86905607878709F
:10098000A078B870B4F80300A6F86C0596F969056C
:100990008DF8000097F901008DF8010097F9020029
:1009A0008DF80200B6F86C05ADF80300DAE9000135
:1009B000CDE90201DDE90223DDE9000100F049FC97
:1009C0000246C6F87825DAE90001C5E9000101927E
:1009D000B87800907B7896F86925697A0FF2440020
:1009E00001F0E0FC99ED020B8DED000B06F5A8601F
:1009F000D0E900230FF2904001F0D4FC687A01287E
:100A000005D10120A8730FF28C4001F0CBFC06B099
:100A1000BDEC088BBDE8F0075DF814FB000000009A
:100A2000000000004C542025642053502025643AD7
:100A300025643A25642C2025640000000FB42DE9BC
:100A4000F0472DED0A8B86B0DFF8ECA5DAE900015E
:100A5000CDE90401DFF8E804D0E90023CDE9022361
:100A6000DDE90423DDE9020100F0F3FB8046DFF855
:100A7000E843A07A461E36B2002E01D50A3636B2B9
:100A8000607A02F04FFA41EC180BF64D05EB861632
:100A900053EC182B05F5A8604168006802F03EF998
:100AA000D6E9B02302F07AF841EC190B06F530775D
:100AB00005F2405953EC182BD9E9020102F02EF946
:100AC000D7E9022302F06AF841EC1A0B53EC182B19
:100AD000D9E9040102F022F9D7E9042302F05EF813
:100AE00041EC1B0B9FEDE0CBD6E9B023DDE918010B
:100AF00002F026FA53EC1C2B02F010F9C6E9B00103
:100B0000D7E90223DDE91A0102F01AFA53EC1C2B93
:100B100002F004F9C7E90201D7E90423DDE91C0169
:100B200002F00EFA53EC1C2B02F0F8F8C7E90401AE
:100B3000C7F8388053EC1A2BD7E9020102F000FA0B
:100B400041EC1A0B51EC1B0BD7E9042302F0F8F926
:100B500041EC1B0B51EC190BD6E9B02302F0F0F974
:100B600053EC182B02F060FA05F5A862C2E9000107
:100B700051EC1A0B53EC182B02F056FAC9E902019A
:100B800051EC1B0B53EC182B02F04EFAC9E904018F
:100B900095F969058DF8000005F2695696F901008E
:100BA0008DF8010096F902008DF80200B5F86C0589
:100BB000ADF80300DAE90001CDE90201DDE9022325
:100BC000DDE9000100F045FB0246C5F87825DAE9C9
:100BD0000001C4E900010192B0780090737895F8A3
:100BE0006925617A0FF2380001F0DCFB99ED020B08
:100BF0008DED000B05F5A860D0E900230FF28820E9
:100C000001F0D0FB0320A0730FF22C0001F0CAFB0F
:100C100006B0BDEC0A8BBDE8F0075DF814FB0000E0
:100C20004C5420256420552D53502025643A2564CA
:100C30003A25642C202564004C5420415245412023
:100C400053544159000000000FB42DE9F0472DED39
:100C50000A8B86B09FED848BDDE91823DDE928013E
:100C600002F06EF953EC182B02F058F841EC190B16
:100C7000DDE91A23DDE92A0102F062F953EC182BB1
:100C800002F04CF841EC1A0BDDE91C23DDE92C01E4
:100C900002F056F953EC182B02F040F841EC180B17
:100CA000A74CDFF894A3DAE90001CDE90401D4E907
:100CB0000001CDE90201DDE9042300F0CAFA664D26
:100CC000A97ADFF8AC6C06EB811282EDB09B02F5DD
:100CD000307383ED02AB83ED048B237882F8E93225
:100CE00002F2E92367785F70A7789F70B4F8033049
:100CF000A2F8EC32C2F8F802481CA872C0B20A2866
:100D000001D10020A872687A00F1010885F80980F5
:100D10005FFA88F8A8F1010002F0FAF841EC1B0B29
:100D200006F2405953EC1B2BD9E9020101F0F6FF02
:100D300053EC1A2B02F004F941EC1A0B53EC1B2B69
:100D4000D9E9040101F0EAFF53EC182B02F0F8F89E
:100D500041EC180B404602F0E5F841EC1C0B53EC5B
:100D60001B2B06F5A8604168006801F0D7FF53EC23
:100D7000192B02F0E5F853EC1C2B02F055F906F59F
:100D8000A862C2E9000151EC1A0B53EC1C2B02F0D3
:100D90004BF9C9E9020151EC180B53EC1C2B02F082
:100DA00043F9C9E9040106F26957B8F1010F0AD104
:100DB000207886F8690560787870A078B870B4F803
:100DC0000300A6F86C0596F969058DF8000097F9FF
:100DD00001008DF8010097F902008DF80200B6F8C5
:100DE0006C05ADF80300DAE90001CDE90201DDE9A7
:100DF0000223DDE9000100F02CFA0246C6F878254E
:100E0000DAE90001C5E900010192B87800907B7829
:100E100096F86925697A0FF2580001F0C3FA99ED46
:100E2000020B8DED000B06F5A860D0E900230FF250
:100E3000580001F0B7FA687A012805D10120A8739B
:100E40000FF2500001F0AEFA06B0BDEC0A8BBDE81F
:100E5000F0075DF814FB000090200120E0930400EF
:100E600060E31600A8C20020000000000000E03F80
:100E70004C5420256420532D53502025643A25647A
:100E80003A25642C202564004C54202566202566D4
:100E9000000000004C54204152454120494E0000C2
:100EA0000FB410B584B0DFF8CC0A016B01EBC102BE
:100EB000DFF8BC3A03EBC20202F5B8639DED060B06
:100EC00083ED000B9DED080B83ED020B08AC94ED58
:100ED000021B83ED041B9DF8413082F8E93502F2D4
:100EE000E9530DF1410464785C700DF14104A4787C
:100EF0009C70BDF84430A2F8EC3502F2EC5211AB14
:100F0000DB685361C48A1483048B5483002901D1A4
:100F10000121016302938DED000BDDE906230FF241
:100F2000240001F03FFA1FBC5DF814FBA021012052
:100F3000E02101202022012060220120A0220120A6
:100F4000602801204C5420555341202566202566F9
:100F5000202564000FB4F0B585B0DFF8184A4825A5
:100F6000DFF80C6A206B05FB006000F5B8619DEDB1
:100F70000A0B81ED000B9DED0C0B81ED020B0CAA11
:100F800092ED020B81ED040B9DF8511080F8E915EC
:100F900000F2E9520DF151035B7853700DF15107E6
:100FA000BF789770BDF95420A0F8EC258DF8041097
:100FB0008DF805308DF80670ADF8072094F9000023
:100FC0008DF80C0060788DF80D00A0788DF80E007B
:100FD000B4F80300ADF80F00DDE90323DDE90101FA
:100FE00000F037F9074600979DF906309DF9052076
:100FF0009DF904100FF2440001F0D4F9206B05FBB9
:101000000061C1F8007601F20061E28A8A80228BD9
:10101000CA80022801D2401C20630220A0730FF274
:10102000340001F0BFF905B0F0BC5DF814FB00001E
:101030006828012070280120582801204C54205392
:101040005341312025643A25643A25642C202564D7
:10105000000000004C542041524541204F5554009F
:101060000FB438B52DED048B8CB006AA08A90AA8D8
:101070009DED140B00F06EF8DDE90A230020DFF887
:10108000F81801F04BFE04460D46DDE90823DFF8B1
:10109000EC08DFF8EC1801F041FE22462B4601F087
:1010A0004FFF04460D46DDE90623DFF8D808DFF8D8
:1010B000D81801F033FE22462B4601F041FF41ECE7
:1010C000180B00AA02A904A89DED160B00F042F827
:1010D000DDE904234FF03330DFF8B01801F01EFED5
:1010E00004460D46DDE90223DFF8A408DFF8A41862
:1010F00001F014FE22462B4601F022FF04460D4665
:10110000DDE90023DFF87408DFF88C1801F006FE33
:1011100022462B4601F014FF41EC190B53EC182B1F
:1011200051EC180B01F0FAFD04460D4653EC192B57
:1011300051EC190B01F0F2FD22462B4601F000FFA5
:1011400041EC100B02F094F80CB0BDEC048B31BCF8
:101150005DF814FB70B52DED048BB0EE408AF0EE17
:10116000608A04460D46164651EC180B53EC182BBA
:1011700001F014FD41EC190B53EC192B0020DFF8A2
:101180001C1801F0CBFD41EC100B84ED008B85EDBC
:10119000000B0022DFF8043801F046FF02460B4640
:1011A00051EC190B01F0FAFC0022DFF8F43701F0E2
:1011B000B5FDC6E90001BDEC048B70BDDFF8B407D6
:1011C000006A7047DFF8AC07406A704780B540227C
:1011D0000021DFF8D00701F041F840220021DFF8BC
:1011E000C80701F03BF8DFF8D40D0021417281728D
:1011F000016181820FF20C00BDE8024001F0D2B81B
:10120000000000004C542052455345545F41535058
:1012100000000000DFF8A40D006B704780B5DFF818
:10122000501701F5B06001F5A861402201F06AFC99
:10123000DFF8880D0021016301BDC9B201EBC102D5
:10124000DFF82C1701EBC20101F5B861482201F06B
:1012500059BC3FB581B04FF47A704EF66022DFF88A
:10126000603D9DF904109DF90540544303FB014185
:101270009DF9064014FB0011BDF9074001FA84F105
:101280009DF90C409DF90D506A4303FB04229DF922
:101290000E3013FB0020BDF90F2000FA82F0441A33
:1012A00042F20F721319934205D200240FF23C0050
:1012B00001F078F807E0DFF80C2D944203DADFF84C
:1012C000082D1018441ADFF8040D844200DB044690
:1012D000204601F01DFEDFF8F82CDFF8F83C01F0A5
:1012E0001DFD05B0BDE8304002F042B841542D4C20
:1012F0005420646966662054696D65205265736583
:10130000740000002DE9F64383B08146BDF90F401B
:101310004EF66025DFF8A86C9DF90C009DF90D10C4
:10132000694306FB00109DF90E104FF47A7211FB11
:10133000020000FA84F10C98412808D15F18DFF808
:10134000980C87420BD3DFF8940CC71907E0994239
:1013500004D2DFF8740C4018C71A00E0CF1A3846E0
:1013600001F0E0FD0022DFF8783C01F05DFE01F0C5
:10137000FFFF80465FFA88F806FB1876304601F0DA
:10138000D1FD0022DFF85C3C01F04EFE01F0F0FFE1
:10139000C0B28DF8008001468DF8011005FB106089
:1013A00001F0C0FDDFF8282CDFF8283C01F0B6FC86
:1013B00001F0DEFF8DF80200ADF80340484600A9B9
:1013C000052201F08FFB05B0BDE8F08300408F409F
:1013D00010B50024DFF89C05C16C012907D1012458
:1013E0000021C1640FF2540000F0DCFF23E0DFF8BD
:1013F0008005D0F87815D0F8B825914216D190F82C
:10140000691590F8A925914210D100F2A95100F276
:10141000695042784B789A4208D18078897888421E
:1014200004D10FF6EC3000F0BDFF04E001240FF60C
:10143000E83000F0B7FF204610BD00004C542046B5
:101440005500000000B58DB0DFF82805407A00286F
:101450000AD0DFF8941B84B06846402201F052FBAA
:101460000FBCFFF71DFD06E00FF6B4300DB05DF8C0
:1014700004EB00F097BF0DB000BD00001CB5DFF815
:10148000F444217B61732073401E05284DD8DFE8AA
:1014900000F0034C16222C4100A801F073FADFF88B
:1014A0004C0B00A9052201F01DFB616C216400209A
:1014B000E0720FF67830BDE81C4000F073BF00A862
:1014C00001F060FADFF8240B00A9052201F00AFB05
:1014D000A06BA06413BD00A801F054FADFF80C0B58
:1014E00000A9052201F0FEFA13BD00202061A082B0
:1014F00040220146DFF8B00400F0B0FE00A801F081
:1015000041FADFF8E80A00A9052201F0EBFAA06B26
:10151000A06413BD00A801F035FADFF8D00A00A9D5
:10152000052201F0DFFAA06BA06413BD0CB400B576
:1015300083B09DF939108DF800100DF1390191F942
:1015400001108DF801100DF1390191F902108DF89B
:1015500002100021ADF8031000A9052201F0C2FA23
:101560000EBC5DF80CFB00002DE9F84F2DED0A8B49
:101570009CB082469FED558BDFF8F883B8F81000D9
:10158000B8F81290814502D25FFA89F901E0C0B241
:101590008146B8F91400461E00D50A36DFF8D0B3EC
:1015A0000BEB861797ED109B97ED12AB97ED14BBE5
:1015B00001243CE0301A00D50A300BEB801505F110
:1015C00040010CA8402201F09DFA07F1400184B0CF
:1015D0006846402201F096FA0FBCFEF7CAFFB0EE53
:1015E00040CAF0EE60CA51EC180B53EC1C2B01F012
:1015F00073FC03D2B0EE4C8AF0EE6C8A53EC1B2BDA
:10160000D5E9140101F09CFC41EC1B0B53EC192BA8
:10161000D5E9100101F094FC41EC190B51EC1A0BC7
:10162000D5E9122301F08CFC41EC1A0B641CE4B2E6
:1016300020464845BEDB484601F074FC41EC1C0BDB
:1016400051EC1B0B53EC1C2B01F0EEFCCAE904011E
:1016500051EC190B53EC1C2B01F0E6FCCAE900011C
:1016600051EC1A0B53EC1C2B01F0DEFCCAE9020111
:10167000B8F81000B8F8121088421ED207F14001E5
:101680000CA8402201F03EFADFF8641984B06846E5
:10169000402201F037FA0FBCFEF76BFFB0EE40CAF4
:1016A000F0EE60CA51EC180B53EC1C2B01F014FC4B
:1016B00003D2B0EE4C8AF0EE6C8AB0EE480AF0EE3F
:1016C000680A1CB0BDEC0A8BBDE8F18F0000000079
:1016D000000000000FB42DE9F0412DED068BA0B005
:1016E0002CA984B06846402201F00CFA0FBCFEF72A
:1016F00067FFA04D68639E4E012812D100206863E9
:1017000006F5A86184B06846402201F0FBF90FBCE1
:10171000FFF720FCFFF75AFD0FF6201000F042FE05
:1017200019E1B5F9144006EB841040302CA9402291
:1017300001F0E8F9601CA88200B20A2801D100205B
:10174000A882288A0A2801DA401C2882688A401C5C
:101750006882314682B06846402201F0D3F90CBC61
:101760000EA8FFF7E3FE288A0A2801DA002700E026
:101770002F7D8D4CD4E900010022134601F0FEF9C3
:101780002FD1D4E9020101F0F9F92AD1D4E90401F9
:1017900001F0F4F925D106EB8716DFF8588896F9A1
:1017A000690088F8000006F2690090F9011088F8D5
:1017B000011090F9020088F80200B6F86C00A8F851
:1017C0000300DFF82C0806F14001402201F09AF9ED
:1017D000204606F14001402201F094F90020A06368
:1017E000B9E010A8FFF7C0FEB0EE408AF0EE608AC4
:1017F000DFF80088288B400801F094FB53EC182B8D
:1018000001F06AFB28D206EB871696F9690088F882
:10181000000006F2690090F9011088F8011090F9B3
:10182000020088F80200B6F86C00A8F80300DFF8A0
:10183000C00706F14001402201F064F9204606F19C
:101840004001402201F05EF90020A06368820FF29F
:10185000FC7000F0A7FD7EE0D8E90001CDE90001B1
:10186000DDE90E23FFF7F5FC064631460FF2EC707A
:1018700000F098FD286C4FF47A71714388426AD267
:101880006F8A3846042866DBA16B002916D19DEDCE
:10189000100B84ED000B9DED120B84ED020B9DED02
:1018A000140B84ED040BA663214684B068464022E5
:1018B00001F028F90FBCFEF7CBFF43E0401E01F01A
:1018C00027FB41EC190B384601F02CFB41EC1A0BBD
:1018D00051EC190BD4E9002301F020FADDE92C23A7
:1018E00001F02EFB53EC1A2B01F09EFBC4E9000122
:1018F00051EC190BD4E9022301F010FADDE92E2393
:1019000001F01EFB53EC1A2B01F08EFBC4E902011F
:1019100051EC190BD4E9042301F000FADDE930237E
:1019200001F00EFB53EC1A2B01F07EFBC4E904011D
:10193000A663214684B06846402201F0E3F80FBC5C
:10194000FEF7C8FEA06B009053EC182B698A0FF2CB
:101950001C7000F027FD20B0BDEC068BBDE8F00147
:101960005DF814FB7047DFF85406807B7047000079
:10197000A8C200209020012000C05B409A9999994C
:101980009999FD3F5839B4C876BE9F3F33335640CE
:10199000AE47E17A14AEF73F9999993F00004E4067
:1019A0000020AC40E8C70020602201200EB478B5CA
:1019B0002DED028B9EB00646DFF80046A06B08189E
:1019C000A06300A800F0DEFFDFF82C56284600A92F
:1019D000052201F087F8207B062800F2E782DFE885
:1019E00010F0070012007400C1006A011402C00266
:1019F000FFF7ECFB0120FFF741FD217B0FF2846034
:101A000000F0D0FCD2E225A983B06846582201F04C
:101A100079F80EBC304680B2FEF77CFC002843D03B
:101A2000D5E90001CDE903014D200090E36BDDE92C
:101A300003010A46014601A8FFF764FCDFF8BC0574
:101A400001A9052201F04EF8DFF8B41582B068460E
:101A5000402201F057F80CBC1CA8FFF767FDD5E940
:101A60000001CDE90001DDE90023DDE91C01FFF7FC
:101A7000F0FB05463D2D07DB29460FF2186000F00C
:101A800091FCFEF787FC06E00120A06229460FF2D8
:101A9000146000F087FC0220FFF7F0FC217B0FF2BE
:101AA000146000F07FFC81E2A06A012840F07E8291
:101AB0000020A062DFF8481584B06846402201F09B
:101AC00021F80FBCFFF706FE70E2FEF7F9FC0028D4
:101AD00034D00320FFF7D2FC0FF2E85000F062FC94
:101AE000607A00281FD0DFF81C55294684B068466C
:101AF000402201F007F80FBCFEF762FD6063012889
:101B000011D100206063DFF8E01484B06846402201
:101B100000F0F8FF0FBCFFF71DFAFFF757FB0FF2BD
:101B2000B85000F03FFCDFF8D81484B0684640227B
:101B300000F0E8FF0FBCFFF7CDFD37E2FEF710FD28
:101B4000002800F03382207A401C2072C0B20328A3
:101B500080F243810120FFF791FC0FF2985000F0D2
:101B600021FC23E2A06A012851D10020A062DFF805
:101B70009064607A00281DD0314684B068464022C7
:101B800000F0C0FF0FBCFEF71BFD6063012811D100
:101B90000020606306F5A86184B06846402200F02A
:101BA000B1FF0FBCFFF7D6F9FFF710FB0FF25C5047
:101BB00000F0F8FB314684B06846402200F0A2FFF6
:101BC0000FBCFFF787FD31460CA8402200F09AFFBA
:101BD000DFF8301484B06846402200F093FF0FBC59
:101BE000FEF7C7FCB0EE408AF0EE608AE08A01F0B2
:101BF00099F953EC182B01F06FF908D20120FFF787
:101C00003DFC53EC182B0FF2105000F0CBFBD5E944
:101C10000001CDE90201DFF8D403D0E90023CDE9CA
:101C20000023DDE90223DDE90001FFF712FBA16BD0
:101C3000A26C8E1A332E08D30120FFF71FFC314609
:101C40000FF2EC4000F0AEFBB0E1216C4FF47A7281
:101C50005043814280F0AA81DFF8A41382B0684625
:101C6000402200F04FFF0CBC1CA8FFF75FFCD5E939
:101C70000001CDE90001DDE90023DDE91C01FFF7EA
:101C8000E8FA05463D2D07DBFEF784FB29460FF2F7
:101C9000B84000F087FB06E00120A06229460FF261
:101CA000044000F07FFB0420FFF7E8FB0FF2A840A0
:101CB00000F078FB7AE1FEF72BFC002800F0828030
:101CC000D14E314684B06846402200F01BFF0FBC65
:101CD000FEF776FC6063012818D100206063C249DA
:101CE00084B06846402200F00DFF0FBCFFF732F9C8
:101CF000FFF76CFA0FF2704000F054FB607B052890
:101D000040F054810120FFF7B9FB4FE1BD4D314652
:101D10000CA8402200F0F6FE294684B06846402216
:101D200000F0F0FE0FBCFEF724FCB0EE408AF0EEAF
:101D3000608AE08A01F0F6F802460B4651EC180B77
:101D400001F0CAF82BD2607B052831460CD184B053
:101D50006846402200F0D6FE0FBCFEF76FFE0FF281
:101D6000144000F01FFB10E00CA8402200F0CAFE57
:101D7000294684B06846402200F0C4FE0FBCFEF73E
:101D800063FF0FF2FC3000F00DFBFEF70CFB0520AB
:101D9000FFF774FB0FF2F03000F004FB06E10120C6
:101DA000FFF76CFB53EC182B0FF2F03000F0FAFA4F
:101DB000934984B06846402200F0A4FE0FBCFFF7B0
:101DC00089FCF3E0FEF7CCFB002800F0EF80207ADE
:101DD000401C2072C0B2032807DB0620FFF74EFB31
:101DE0000FF2003000F0DEFAE0E0884820640320C3
:101DF000FFF744FB217A0FF2B83000F0D3FA216CE0
:101E00000FF2282000F0CEFAD0E0A06A012846D1D7
:101E10000020A0627A4E607A00281DD0314684B03E
:101E20006846402200F06EFE0FBCFEF7C9FB6063FF
:101E3000012811D10020606306F5A86184B06846CE
:101E4000402200F05FFE0FBCFFF784F8FFF7BEF9F9
:101E50000FF2743000F0A6FA31460CA8402200F0D0
:101E600051FE684984B06846402200F04BFE0FBC2A
:101E7000FEF77FFBB0EE408AF0EE608AE08A01F068
:101E800051F853EC182B01F027F808D20120FFF786
:101E9000F5FA53EC182B0FF23C3000F083FAD5E939
:101EA0000001CDE902015148D0E90023CDE900232A
:101EB000DDE90223DDE90001FFF7CBF9A16BA26C9C
:101EC0008E1A332E08D30120FFF7D8FA31460FF2CD
:101ED0001C3000F067FA69E0216C4FF47A725043CD
:101EE00081423BD2464E96F929008DF8700006F2E9
:101EF000290090F901108DF8711090F902008DF809
:101F00007200D5E90001CDE90001DDE90023DDE93A
:101F10001C01FFF79EF905463D2D07DBFEF73AFA57
:101F200029460FF2E02000F03DFA06E00120A06211
:101F300029460FF2E02000F035FA0420FFF79EFA60
:101F4000E07A401CE072C0B203282FDB606C4100D5
:101F500021640FF2D80000F025FA27E0FEF78EFB8F
:101F600024E0A06BA16C401A33280BD30120FFF7AB
:101F700085FA0FF2B42000F015FA0FF2C02000F03D
:101F800011FA13E0A06A01280BD10120FFF776FABD
:101F90000FF2B42000F006FA0FF2A02000F002FACF
:101FA00004E0607B042801D1FEF768FB207B1EB0B3
:101FB000BDEC028B72BC5DF810FB0000902001208C
:101FC00080EE3600F1D8FFFF005C2605C0E40A056C
:101FD000FCA9F1D24D62503F015C260500A4D9FA5C
:101FE00040774B41004CED40E8C7002070280120AD
:101FF000A022012068280120582801206028012003
:10200000A8C20020E021012020220120E09304004A
:102010004C542053410000004C542044490000001F
:102020004C54204E6F20504F530000004C542D57FD
:1020300050204348414E4745202564004C542053CE
:10204000617665205341554D000000004C542052EC
:10205000455345545F474150000000004C54204711
:1020600041204D546D202564000000004C54205345
:102070005020534741522025642C2025662C2025D2
:10208000640000004C542D434B5F53544F502025A7
:10209000640000004C5420524551504F532D4620AF
:1020A000256400004C54204E2D524551504F532072
:1020B000256400004C542D4745545F315F504F5309
:1020C000202564004C542D434B5F555345525F4DC2
:1020D0004F564554000000004C54205353412D46A8
:1020E000500000004C542D53535F50415553455FF1
:1020F000535300004C542053535F475053204E4FCE
:1021000054204F4B20317374000000004C54205376
:1021100053412D554D0000004C542D434B5F5354FB
:102120004F502D554D2D64697374202566000000B5
:102130004C542D434B5F53544F502D554D2D7374BC
:1021400065702025640000004C5420524551504FCA
:10215000532D5320256400004C542D4745545F32C5
:102160005F504F53000000004C54205353412D53F7
:10217000500000004C54205544542053500000009F
:102180004C542053535000004C542D434B5F555337
:1021900045525F4C454156494E4700004C542D4333
:1021A0004845434B5F53544F502D535020256600F4
:1021B0004C542D475053204E4F54204F4B20326EDD
:1021C00064202564000000004C54205353412D55D9
:1021D0004C0000004C542D434B5F53544F502D5531
:1021E0004C20646973742025660000004C542D4314
:1021F0004B5F53544F5020554C207374657020250D
:10220000640000004C5420524551504F532D554C02
:10221000202564004C54204E2D524551504F532DD3
:10222000554C2025640000004C5420535320414756
:1022300041494E2042592053544550004C542D439F
:102240004B5F53544F5000004C5420535320414790
:1022500041494E20425920504F53000010B50446CA
:1022600010460A460146204601F0AEF8204610BD51
:10227000BFF34F8FDFF8C407016801F4E061DFF8B6
:10228000EC2711430160BFF34F8FFEE710B5DFF875
:10229000E0474FF48E7200212046FFF7DFFF204613
:1022A00010BDDFF8CC07704710B5FFF7EFFF04460D
:1022B00000231A461146084600F0C1FAC046C0463F
:1022C00001F0B6F8204600F018F801F004FB2046B3
:1022D00000F022FA204600F014F8204600F01EF824
:1022E00000F0E5F900206072A072E0722073012016
:1022F00060730020E075012010BD0021C1710172E2
:1023000031E010B50446DFF8380701F039F9DFF89D
:10231000640701F035F90120607110BD10B5044665
:1023200001F099F90120A07110BD38B504460125CE
:1023300001F044FA012804D12846E0700020A07082
:102340000AE0022804D10020E0702846A07003E0D3
:102350000020E070A0700546284632BD80B501F02F
:10236000A7FB012002BD10B50446E07901F0CEFCC8
:102370000121217010BD70B504460025E679E17198
:10238000FFF7F1FF002807D02046FFF7BAFF2046ED
:10239000FFF7C4FF012503E0E6712046FFF7E3FFE6
:1023A000284670BD0EB470B5C1B0054600A84FF404
:1023B000807102F0DDFAFFF774FF044645AB2A4650
:1023C0004FF4807100A802F0D7FA00A802F0F2FAE8
:1023D000451C00A82818002100F8011CDFF89866A9
:1023E0003078401C30707078F021084202D099207B
:1023F00002F0FCFA02F067FB7078401C7070207EDF
:102400002818FF2810DA207E002803D0207E00192B
:102410000A2101762A4600A9207E0019193002F00F
:1024200069FB207E2818207600A802F0BBFD70789A
:10243000F021084202D0992002F0D8FA7078401EAC
:102440007070C0B2002801D102F037FB03F095F99B
:1024500041B070BC5DF810FB0428DFF8E80503D834
:10246000DFF8DC1501607047DFF80816016070477F
:10247000DFF8D41551F82000007F002807D0DFF8DE
:10248000FC0501784A1C0270032900DBF0E6704766
:102490002DE9F84305460E4617464FF00208DFF8CF
:1024A000D8456078F021084202D0992002F09EFAC7
:1024B00002F009FB6078401C60709DF80000401E2F
:1024C0008DF8000017F8019B2846FFF7C5FF00AB09
:1024D0004A463946304601F031FD002810D0607878
:1024E000F021084202D0992002F080FA6078401E64
:1024F0006070C0B2002801D102F0DFFA01201FE0B5
:102500005FFA88F8424629460FF27C50FFF74AFFEF
:102510004046A0F101080028D9D16078F021084296
:1025200002D0992002F062FA6078401E6070C0B25A
:10253000002801D102F0C1FA2846FFF799FF0020D8
:10254000BDE8F2832DE9F04704460D4616461F46C6
:10255000DFF8F884089888F80000DFF81C9599F8EF
:102560000100F021084202D0992002F03FFA02F067
:10257000AAFA99F80100401C89F801002046FFF7EB
:102580006BFF4FF0020A434632463946284601F0B7
:1025900085FD002813D099F80100F021084202D0EF
:1025A000992002F023FA99F80100401E89F80100F1
:1025B000C0B2002801D102F080FA012022E05FFAC7
:1025C0008AFA524621460FF2CC40FFF7EBFE504606
:1025D000A0F1010A0028D6D199F80100F0210842A3
:1025E00002D0992002F002FA99F80100401E89F801
:1025F0000100C0B2002801D102F05FFA2046FFF7C7
:1026000037FF0020BDE8F0872DE9F84305460E4668
:10261000174698464FF00209DFF85C446078F021D5
:10262000084202D0992002F0E1F902F04CFA6078F9
:10263000401C60702846FFF70FFF4246394630467F
:1026400001F024FE002810D06078F021084202D06A
:10265000992002F0CBF96078401E6070C0B200286B
:1026600001D102F02AFA01201FE05FFA89F94A46F7
:1026700029460FF22C40FFF795FE4846A0F10109CC
:102680000028DAD16078F021084202D0992002F0C7
:10269000ADF96078401E6070C0B2002801D102F030
:1026A0000CFA2846FFF7E4FE0020BDE8F28303F0B1
:1026B000DABDF8B5044602270025DFF88C630DE08B
:1026C00039464F1EC9B200290AD1002804D1206919
:1026D0000121A9408843206102276D1C162D10DAC4
:1026E00056F82500006E006880470128E8D121696E
:1026F0000122AA401143216156F8251001220A77D0
:10270000E3E72069032803D0022801D0012802D181
:1027100040F480502061F1BD01F0AEBE01F009BF70
:1027200081B00022ADF80220ADF80020C079042865
:1027300008D0062809D008280AD009280BD00A2872
:102740000CD00EE04FF4C8600DE04FF448600AE092
:102750004FF4C85007E04FF4FA5004E042F2107012
:1027600001E041F27070ADF802200DE0BDF80020EC
:10277000521CADF80020BDF800208242F6DBBDF807
:102780000220521CADF80220BDF802208A4203D27A
:102790000022ADF80020EEE701B07047417230B57D
:1027A00089B003F031FE0446FFF77BFD054600A823
:1027B000242102F0DDF80020ADF8220001900A206B
:1027C0008DF8080000208DF809008DF80A00687A5D
:1027D00000280DD0002C18D000208DF80000052016
:1027E00001900B208DF8080000A805F00BFD0CE00F
:1027F000002C0AD001208DF80000052001900B204C
:102800008DF8080000A805F0FDFC09B030BD01F00E
:10281000ACBE01F0B4BE01210846F8E7012108462C
:10282000F7E702210120F2E702210120F1E701F0A0
:10283000B1BE10B50446FFF734FD447510BD2DE957
:10284000F04782B00C4615462F46264680464FF488
:102850007A714FF03C0C4FF4616918FB09F216FBDA
:102860000C22BA1801FB0232DFF8E4E19EF900A065
:102870001AFB09F99EF901A01AFB0C9C9EF9029023
:102880004CFA89FCBEF9039001FB0C919EF808C03C
:10289000BCF1000F22D144EA00012943194302D0C0
:1028A00001218EF808108EF80000B8F1000F04D551
:1028B0009EF8000018308EF800008EF801408EF867
:1028C0000250AEF8033000933B4632469EF90010AA
:1028D0000FF2FC10FFF766FDBDE8F38791420DD3C0
:1028E000A1EB020CACF2D17CDFF89491CC45DAD3A9
:1028F0000FF2B81002B0BDE8F04753E5D3D2A2EB17
:10290000010CACF2D179DFF878A1D145CBD3634685
:102910000FF2A81002B0BDE8F04743E510B504007F
:102920002FD003F028FE4A49CA68002A00D0841A32
:10293000B1F80320A218A1F8032012B2B2F57A7FF1
:1029400006DBA2F57A72A1F803208A78521C8A70FD
:1029500091F902203C2A04DB3C3A8A704A78521CE6
:102960004A7091F901203C2A04DB3C3A4A700A780B
:10297000521C0A7091F90020182A01DB00220A700B
:10298000C86010BD3249052200F0ACB8000000005C
:102990000FB410B52DED028B2E4C104600F0C2FA8C
:1029A0002D4A2E4B00F0BAF9206161619FED2C8B0E
:1029B000049800F0B7FA53EC182B00F0AFF9206040
:1029C0006160059800F0AEFA53EC182B00F0A6F900
:1029D000A060E1609DF81C00207604F118009DF8CD
:1029E0001D1041709DF81E1081709DF81F10C17060
:1029F0009DF820100171BDF8210000EE100AB8EE1C
:102A0000400A10EE100A05F025FD174A1D4B00F094
:102A100085F905F047FDC4F81D00BDF82300A4F8B2
:102A200021009DF8250084F82300BDEC028B10BC2A
:102A30005DF814FB0749242200F054B80CED00E0C7
:102A4000005400406C7A002008400020F628012045
:102A50007026012068240120FCA9F1D24D62503F6C
:102A60008DEDB5A0F7C6B03E3BDF4F8D0400FA05F3
:102A7000540701200058004070790020F5280120FB
:102A80005F4C2605976EA23F4957452025642025B7
:102A900064000000495245202564202564000000A0
:102AA00049524F45202564202564000041542D5390
:102AB00065745453312025642025640041542D53FE
:102AC0006574545332202564202564202564000059
:102AD00041542D536574542025643A25643A256485
:102AE0002E25640062B38B0708D0521E11F8013BFB
:102AF00000F8013B00F024808B07F6D1830740F0FB
:102B0000208000BF103A07D330B4B1E83810103A33
:102B1000A0E83810F9D230BC530724BFB1E8081040
:102B2000A0E8081044BF51F8043B40F8043BD2072A
:102B300024BF31F8022B20F8022B44BF0B7803701E
:102B40007047083A07D3B1E80810083A40F8043B48
:102B500040F804CBF7D25307E4E750F8041B61B107
:102B600050F8042BD30744BFA9F101039A1800239E
:102B700042F8043B091FFAD1EFE7704790420CD1AD
:102B800041EA030C50EA4C0C07D0994205D14FF4AE
:102B9000001C1CEB410F38BF8942704770B44FF0E6
:102BA000004591EA030F44BF6B4000F0D3B900BF6A
:102BB000841A71EB030604D26E40001BB141121956
:102BC00073414FF4001C1CEB410F34BF7CEB4306F8
:102BD00084E00C0DA4EB1356362E7DDC012E43DC75
:102BE00045EAC32343EA525312BFD20292025B0862
:102BF000240545EAC12141EA5051D2EBC020994158
:102C000025D407D1B0FA80F610FA06F164D000207E
:102C1000203608E0B1FA81F6B140C6F1200220FA70
:102C200002F21143B0404FEAF474B4EB465434F06E
:102C300001064FEA74040AD8D6F50016760D04F0A2
:102C40000044F04061FA06F25040F1404840C00AAA
:102C500040EA415021F0004128BF5FEA500550F1A1
:102C6000000044EBD12137E045EAC323DB0A45EA03
:102C7000C121C90AB6F120050EDD42EA0242120C5A
:102C8000C5F1200603FA06F6EB4042EA06056D425E
:102C9000984161F100010DE062FA06F5F2405540FD
:102CA00063FA06FC82EA0C02F3405A406D429041FE
:102CB00061EB030111F4801F05D1641E620502D08F
:102CC0006D004041494121F48011430875F10043F2
:102CD00050F1000041EB045170BC70471CEB410FF8
:102CE00015D223F0004352EA43060BD04FEA4C0CB6
:102CF000BCEB410F04D80C0D661E342EB7DDEBE79C
:102D0000801A994150EA410608BF0021E4E708BF54
:102D10001CEB430F28BF6FF00001DDE7B0B581EA7F
:102D2000030C0CF0004C40F2FF7515EA11541DBF66
:102D300015EA1357AC42AF4239E0E41923EA455390
:102D400043F48013C90241F0004141EA505EC702DA
:102D50001100A7FB020200284FF00000EEFB01204B
:102D60004FF00001E3FB072118BF42F001024018B9
:102D700000214941E3FB0E01A4F580640F0302D258
:102D800052004041494154F101046CDD470872F1A1
:102D9000004250F1000051EB0451A1F580115CBFDD
:102DA00041EA0C01B0BD4CEA05510020B0BD05EA76
:102DB0001357AC4214BFAF4241E050EA410E1CBF72
:102DC00052EA430E02E061460020B0BD24423C447A
:102DD0001BD15FEA070EF6D0090302BF01460020AF
:102DE000AEF1140EB1FA81F7AEEB070401FA07FE5B
:102DF0000C37C7F1200100FA07F7C8404EEA000E71
:102E000023EA455343F48013A2E733F00043B3FAB7
:102E100083F704BFB2FA82FE77440B3FE41BB7F19D
:102E2000200E2FBF02FA0EF3BB40C7F1200E22FA8C
:102E30000EFE38BF43EA0E03BA40641C82E750EA34
:102E4000410E14BF52EA430E6FF000014FF4001719
:102E500017EB430F8ABF194617EB410FB5E74CEA52
:102E600005510020B0BDD4F10104B4F120070FDA00
:102E7000C4F12007520828BF42F0010210FA07F5FA
:102E800001FA07F7E1BF2A43E0403843E1400FE091
:102E9000352C98DCC7F1200452EA400220FA07F2F0
:102EA00018BF42F0010231FA07F0A1400A430021A5
:102EB00072F1004250F1000051EB0C01B0BD82688C
:102EC000521C8260426832B10268531C0360117068
:102ED0004168491E416070474FF4001C1CEB410FD4
:102EE00094BF1CEB430F09E041EA030C50EA4C0C81
:102EF00052EA0C0C03D2994208BF9042704714BFAB
:102F00008B42824270470268531C03601170704705
:102F1000010040F10980F446404200F005F851F00C
:102F200000416047010000BF09D0B0FA80F188403D
:102F3000C91CC1F58461090501EBD021400570472A
:102F400070B44FF0004591EA030C44BF6B40FFF7AB
:102F50002FBE00BF841A71EB030603D2001BB141E0
:102F6000121973414FF4001C1CEB410F34BF7CEB72
:102F7000430443E00C0DA4EB1356352E50DC45EA18
:102F8000C323DB0A45EAC121C912B6F120050DDDD4
:102F900063FA05F6EB4086EA0305124218BF45F0D6
:102FA0000105C01851F100010CD213E062FA06F5D8
:102FB000F2405540F3415A40B340F3405A40801824
:102FC000594107D349085FEA30005FEA350528BF59
:102FD00045F0010501F58011420875F1004250F1FC
:102FE000000041EB045170BC4FF4001C1CEB410F7E
:102FF00038BF70470020090D090570471CEB410FD1
:1030000010D252EA43060BD0BCEB410F05D80C0D91
:10301000AB43661E342EB5DD02E0AB438018594148
:1030200070BC704770BC7047F0B540F2FF7581EA24
:10303000030C0CF0004C15EA11541DBF15EA135790
:10304000AC42AF42E5E0BC41C1F31301C3F313034B
:10305000801A994143F4801304D2641E4000494110
:1030600080185941C90241EA5051B1FBF3F603FB04
:103070001611A2FB0675D7EBC020A94102D2761E1D
:1030800080185941C90241EA5051B1FBF3FE03FBDC
:103090001E11A2FB0E75D7EBC020A94103D2AEF1E1
:1030A000010E80185941890241EA9051760546EA9D
:1030B0008E2EB1FBF3F603FB1611A2FB0675D7EBC0
:1030C0008020A94102D2761E80185941C90241EAE6
:1030D00050514EEA060EB1FBF3F603FB1611A2FBAC
:1030E0000675D7EBC020A94102D2761E801859413F
:1030F000C90241EA5051B1FBF3F703FB1711A2FBE0
:103100000735D3EBC020A94167F100070CBF00428F
:1031100047F0010766F3D5274FEA1E31B80814F5CA
:10312000806412DDBD0775F1004250EB0E5051EB8B
:10313000045111F5801F5CBF41EA0C01F0BD4CF059
:103140007F6141F0E0410020F0BDBD076D0840EA1D
:103150000E5041F48011D4F10104B4F120060ADAD2
:10316000C4F120060200E04001FA06F3E1401843F2
:10317000B24015430EE0342C13DCC6F1200445EABE
:1031800040056D0820FA06F2154321FA06F0A14029
:103190000D43002175F1004250F1000051EB0C018C
:1031A000F0BD00205FEA0C01F0BDCFB992185B4181
:1031B000B3FA83F704BFB2FA82F6BF190B3FB7F137
:1031C00020062FBF02FA06F3BB40C7F1200622FA01
:1031D00006F638BF3343BA401CB1E419641E33E726
:1031E0007F4231F00041B1FA81F404BFB0FA80F6B9
:1031F000A4190B3CB4F120062FBF00FA06F1A14040
:10320000C4F1200620FA06F638BF3143A0403C1B2B
:103210001AE7AC421ABF05EA1357AF4212E050EA70
:1032200041061CBF52EA4306BFE750EA4107304659
:1032300061461CBF41EA0551F0BD52EA430C08BF8C
:10324000C143F0BD00204FF4001616EB410F98BFAC
:1032500016EB430F08BF16EB410F24BFC14305E037
:1032600016EB430F0CBF61464CEA0551F0BD000060
:1032700051EC100B00B500F003F841EC100B00BD51
:1032800040F2FF7C0B0D4DD0634566D230B421EA8D
:10329000035141F4801103F2FD3C5FEA5C0C01D361
:1032A00000184941890041EA907180004FF44014B0
:1032B0000023E202D50AB1F5100107D46D081DD232
:1032C000091B641900184941491BF7D56D080AD23A
:1032D0000919641B00184941491BEFD56D08F7D344
:1032E00001E0520817D0C01861419B1AAC41001888
:1032F0004941801AA941F4D452080AD0C01AA14108
:103300009B186C4100184941801AA941E9D4520820
:10331000F4D15B1C6C4161084FEA330001EB0C51A6
:1033200030BC704750EA0103FBD030B4B1FA81F3EE
:1033300011B9B0FA80F41B190B3BB3F120042FBF75
:1033400000FA04F19940C3F1200420FA04F438BFD4
:1033500021439840D3F101039DE76345E1D011F586
:10336000801FDED850EA4101DBD0D94305F0E2B836
:10337000F446400D40EAC120490006D200F014F89E
:10338000004248BF6FF00040604700F00DF84FF07A
:10339000004188428CBF084640426047400D40EAE9
:1033A000C120490080F00D8040F00040490DA1F59A
:1033B0008061491C05D4D1F11F0154BFC840C0171A
:1033C00070474FF00000704762F30F2262F31F4214
:1033D000401810F0030308D0C91A1FD3DB0748BFF9
:1033E00000F8012D28BF20F8022D130030B4144638
:1033F0001546103928BF20E93C00FAD8490728BFF4
:1034000020E90C0048BF40F8042D890028BF20F8AF
:10341000022D48BF00F8012D30BC7047C91818BFF5
:1034200000F8012DCB0728BF00F8012D70470000E0
:1034300030B583B00121032005F0E7F8DFF8504CE8
:10344000204605F07BF9DFF84C5C284605F076F95C
:1034500001208DF8040000208DF8050001208DF872
:10346000060000208DF80700012128460183C04690
:103470000120009000A9284605F0BCF90221284649
:103480000183C0460220009000A9284605F0B2F949
:1034900001208DF8040000208DF80500ADF806002D
:1034A0004FF48070009000A9284605F0A3F94FF46E
:1034B000807128464183C04601208DF80400002019
:1034C0008DF80500ADF806004FF48050009000A97B
:1034D000204605F08FF94FF4805120464183C046C5
:1034E00004220621284605F0D3F9042207212846A4
:1034F00005F0CEF902208DF8040001208DF80500BA
:103500008DF8060000208DF807004020009000A9EB
:10351000284605F06FF98020009000A9284605F0A4
:1035200069F904220A21284605F0B2F9092203218B
:10353000284605F0ADF902208DF8040001208DF831
:1035400005008DF8060000208DF807004FF480601C
:10355000009000A9284605F04DF90820009000A928
:10356000284605F047F9286820F0300040F01000A8
:103570002860206820F0300040F01000206037BD47
:103580001FB5DFF8144BA04230D101214FF40010D9
:1035900005F046F80121022005F037F801214FF42B
:1035A000001005F05EF800214FF4001005F059F806
:1035B0000020ADF804004BF6FF70ADF806004FF4A4
:1035C0008060ADF80A004FF48040ADF80C000A208E
:1035D000ADF80800DFF8A40C009000A9204605F023
:1035E0009AF90121204605F0F9F91FBDDFF8904C4A
:1035F000A0422FD101214FF4800005F011F80121E4
:10360000022005F002F801214FF4800005F029F8AE
:1036100000214FF4800005F024F80020ADF80400EC
:103620004BF6FF70ADF806004FF48060ADF80A006D
:103630004FF48040ADF80C000A20ADF80800DFF828
:103640003C0C009000A9204605F065F901212046B8
:1036500005F0C4F91FBD2DE9F04192B001214FF4EE
:10366000805004F0E8FF0121084604F0CEFF01215C
:103670004FF4800004F0C9FFDFF8144A0522114618
:10368000204605F005F905220721204605F000F93E
:1036900005220621204605F0FBF8052204212046DC
:1036A00005F0F6F802208DF8040001208DF80500E1
:1036B0000020ADF806002020009000A9204605F06B
:1036C00099F88020009000A9204605F093F840204A
:1036D000009000A9204605F08DF81020009000A968
:1036E000204605F087F8DFF89C4B204605F0D8F916
:1036F000DFF8945B0020288068600120288100208A
:103700006881E8600720288200206880DFF8D06C9C
:10371000304605F035FADFF8CC7C384605F030FA53
:103720004FF48060069000210D9103210E9100213D
:103730000F910A910890DFF8680D039008461090E9
:10374000099007904FF400300C9008460B904FF012
:10375000C068CDF80880402005900846049002A972
:10376000304605F091FA00200B90CDF808800590C6
:1037700005F11400049002A9384605F085FA0020EE
:1037800068802946204605F0BAF901220221204628
:1037900005F0E4F901221146204605F0DFF9012188
:1037A000204605F0CFF90021304605F094FA0021BB
:1037B000384605F090FA12B0BDE8F08130B589B016
:1037C00001214FF0805004F02BFF012005F0ECFAAE
:1037D00001214FF4802004F018FF0F2005F094FC25
:1037E0000446102005F090FC0546012004F00AFF75
:1037F000002004F007FF21460F2005F078FC294641
:10380000102005F074FC00214FF4802004F0FDFE30
:10381000012004F095FE412004F044FF0028FAD076
:103820004FF4807004F0D8FE012004F0E8FE05F0AB
:103830000EFB3F20069040F2FF10079000200590FD
:1038400005A805F0BBFA0020029002A905F020FBB4
:1038500000208DF8070001208DF804008DF8050088
:103860008DF8060001A9002005F08BFB4FF48000C5
:1038700005F02AFD4FF48000039000208DF8100021
:1038800008208DF8110001208DF8120003A805F022
:10389000D9FC03208DF800000D208DF801000020D8
:1038A0008DF8020001208DF8030000A805F019FD35
:1038B000032005F0DAFB4FF4804005F090FC4FF454
:1038C000800005F001FD01214FF4804005F04DFC22
:1038D000012009B030BD10B586B00121084604F0C2
:1038E00094FE01214FF4804004F0A5FE00208DF8E5
:1038F00010008DF8130001200390DFF8944703A90E
:10390000204604F077FF0420039003A9204604F02A
:1039100071FF0021084605F01DFD0221002005F081
:1039200019FD00208DF8080001208DF80A00019093
:103930000C208DF8090001A805F084FC04200190FA
:103940000C208DF8090001A805F07CFC042005F08E
:10395000BBFC28208DF800000F208DF8010000200E
:103960008DF8020001208DF8030000A805F0B9FCD5
:1039700006B010BD10B586B00121084604F045FE22
:1039800001214FF4804004F056FE00208DF8100015
:103990008DF813004FF40064039403A9DFF8F006D8
:1039A00004F028FF0B21002005F0D4FC00208DF846
:1039B000080001208DF80A0001940C208DF8090000
:1039C00001A805F03FFC204605F07EFC28208DF87C
:1039D00000000F208DF8010000208DF8020001206A
:1039E0008DF8030000A805F07CFC06B010BD30B5D2
:1039F0008DB0044601214FF4807004F01CFE00A835
:103A000004F032FF0A20009003208DF8040000200B
:103A10008DF8070000A9DFF8780604F0EBFE05F04A
:103A2000ADFC02A805F0EFFC4FF48030039002A833
:103A300005F0DBFC06A805F0CEFCDFF8C05C06A9AB
:103A4000284605F0A8FC072301222146284605F058
:103A5000EBFC0121284605F02AFD0121284605F04E
:103A6000D8FC0DB030BD38B5DFF8904C204605F0DD
:103A700019FD4FF47A750221204605F02FFD00282C
:103A800003D12846451E0128F5DA2046BDE832401C
:103A900005F018BD80B50021DFF8600C05F0B9FC19
:103AA00000214FF48070BDE8044004F0C4BD000064
:103AB00038B5040039D0012005F076F9002005F072
:103AC000EEFA4FF40055042005F06AFB012804D1FA
:103AD0002846451E80B20028F5D100EE104AB8EE07
:103AE000400ADFED780A80EE800AF0EE000A20EE50
:103AF000200ADFED750A80EE800ABDEEC00A10EEE6
:103B0000100A401E80B205F0C0FA4FF4804005F064
:103B100066FB4FF4800005F0D7FB012005F0BFFAEB
:103B2000DFF8D00C0121416031BD012005F03CF9E6
:103B30000020BDE8324005F0B2BA000030B40146C2
:103B400001200023DFF8B82B1C469460946814F021
:103B50000C0FFBD10C460B2C55D8DFE804F0205499
:103B6000545406192031383F464D946844F080047F
:103B70009460DFF8904B4FF4C0652560146824F022
:103B800080741460DFF8004CDFF87C5B25603BE05C
:103B90000346DFF8F44BDFF8F45B256034E094680B
:103BA0009460DFF8604B4FF4C0652560146824F022
:103BB00080741460DFF8D04BDFF8D45B256023E01D
:103BC0000223DFF8C44BDFF8CC5B25601CE0032345
:103BD000DFF8B44BDFF8C05B256015E00423DFF8A5
:103BE000A84BDFF8145C25600EE00523DFF8984B46
:103BF000DFF8085C256007E00623DFF88C4BDFF870
:103C0000005C256000E01846002B4AD003EBC3039C
:103C10000FF2B8041B1994689460146824F080743F
:103C20001460146824F0806414609C781D8844EA51
:103C30008514DD786D086D1E44EA05441D7944EA5B
:103C400005645460DC881D7A2D0745EA8414DFF88A
:103C50000C5C2C60146844F0807414601468A40137
:103C6000FCD55B7943F4C063DFF8984A236093681E
:103C7000936093689360052904D1916841F09001A5
:103C8000916005E00A2903D1916841F48051916067
:103C9000916841F002019160916801F00C010829DE
:103CA000FAD1DFF8E41A0968DFF8B42B914207D2A1
:103CB000DFF8401C0A6822F4404242F480420A6065
:103CC00030BC704700007A44000000472001100417
:103CD0000F03020103F00010060F01020103C000F0
:103CE00010080F01020103C00010060F01020103BA
:103CF000F00010060F01020103C80010040F0202B9
:103D00000103A80010020F030201030016E70028B8
:103D100000E0401EFDD170477CB50726DE49884291
:103D20006BD101208DF804008DF805008DF8060098
:103D300000208DF8070040200090DFF8D85B00A934
:103D4000284604F057FD8020009000A9284604F082
:103D500051FD402128464183C0460F20FFF7D7FF81
:103D6000402128460183C0460F20FFF7D0FF304690
:103D7000461E80B20028ECD18020009000A9284681
:103D800004F038FD402128464183C0460520FFF756
:103D9000BEFF802128460183C0460520FFF7B7FFFC
:103DA000402128460183C0460A20FFF7B0FF40218A
:103DB00028464183C0460520FFF7A9FF80212846F9
:103DC0004183C0460520FFF7A2FF02208DF80400C2
:103DD00001208DF805008DF8060000208DF8070001
:103DE0004020009000A9284604F004FD80200090A7
:103DF00000A9284604F0FEFC73BDDFF88414884255
:103E00006AD101208DF804008DF805008DF80600B8
:103E100000208DF807004FF480640094DFF8F45A16
:103E200000A9284604F0E6FC0820009000A92846D6
:103E300004F0E0FC214628464183C0460A20FFF7F3
:103E400066FF214628460183C0460A20FFF75FFF30
:103E50003046461E80B20028ECD10820009000A910
:103E6000284604F0C7FC214628464183C046052069
:103E7000FFF74DFF082128460183C0460520FFF7C4
:103E800046FF214628460183C0460A20FFF73FFF30
:103E9000214628464183C0460520FFF738FF082108
:103EA00028464183C0460520FFF731FF02208DF8E8
:103EB000040001208DF805008DF8060000208DF823
:103EC0000700009400A9284604F094FC0820009004
:103ED00000A9284604F08EFC73BD10B5DFF8384AFF
:103EE0000121206804F0B3FD206804F0E5FC20689F
:103EF000FFF746FB05E02068FFF70EFF2068FFF79D
:103F00003FFB4FF40031206804F0ACFD0028F2D1F3
:103F100010BD30B40022838A008BDFF8FC4965684D
:103F200043EA00400840000255EA10206060084063
:103F3000884200D10122104630BC70472DE9F84F6D
:103F400004460D4616464FF420491F78DFF8C8890D
:103F50004FF40031D8F8000004F084FD002808D0A8
:103F60004846A0F101090028F2D1FFF7B6FF002072
:103F70008CE0D8F8000001884FF6FF521140018014
:103F80000121D8F8000004F035FD4FF4805AD146E5
:103F90000020C8F80400D8F800B0DFF880195846AF
:103FA000FFF7B7FF002805D14846A0F10109002816
:103FB000F1D163E0D14600222146584604F032FD9B
:103FC0000020C8F80400D8F80040DFF85419204653
:103FD000FFF79FFF002805D14846A0F101090028FE
:103FE000F1D14BE03146C9B220460182C046D146EC
:103FF0000020C8F80400D8F80040DFF8281920464F
:10400000FFF787FF002805D14846A0F101090028E5
:10401000F1D133E0012F15D1297820460182C04625
:10402000D1460020C8F80400DFF8FC18D8F80000DA
:10403000FFF76FFF002823D14846A0F101090028AF
:10404000F2D11BE03846471EC0B2002818D015F840
:10405000011BD8F800000182C046D1460020C8F8F4
:104060000400DFF8C418D8F80000FFF752FF00285A
:10407000E8D14846A0F101090028F2D1002005E06E
:104080000121D8F8000004F0C1FC0120BDE8F28F46
:104090000000024000040240005400402DE9F54FAA
:1040A00081B00D461E464FF420483778DFF8684847
:1040B0004FF40031206804F0D5FC002808D04046B9
:1040C000A0F101080028F3D1FFF707FF0020D3E09B
:1040D000206801884FF6FF521140018001212068BD
:1040E00004F088FC4FF48059C84600206060DFF877
:1040F0002CA8D4F800B051465846FFF70AFF002814
:1041000005D14046A0F101080028F2D191E000223B
:104110009DF80410584604F085FCC84600206060F5
:10412000D4F800B0DFF8F8175846FFF7F2FE002881
:1041300005D14046A0F101080028F1D179E0BDF891
:104140000810C9B258460182C046C846DFF8DC17DD
:10415000206804F087FC002805D14046A0F1010842
:104160000028F3D165E00121206804F043FCC84633
:1041700000206060D4F800B051465846FFF7C9FEF1
:10418000002805D14046A0F101080028F2D150E0F6
:1041900001229DF80410584604F044FC022FC84642
:1041A00039DADFF88C17206804F05CFC002805D1B0
:1041B0004046A0F101080028F3D13AE00021206830
:1041C00004F039FC2068018B012104F01FFCC84673
:1041D000DFF86017206804F045FC002805D1404650
:1041E000A0F101080028F3D123E02068008AC0B2C2
:1041F00028703078401E3070C846206801888905D4
:1042000005D54046A0F101080028F6D111E00121B2
:1042100004F011FC2BE000206060DFF81C17206820
:10422000FFF777FE002806D14046A0F101080028DC
:10423000F3D1002020E0012616E0012F0CD1012E41
:104240000AD100263146206804F0F5FB2068818AF7
:10425000018B012104F0DAFB2068818A490603D52D
:10426000008A05F8010B7F1EFFB2002FE5D1012166
:10427000206804F0E0FB0120BDE8FE8F801A0600F4
:104280000058004000300140442401202DE9F0474F
:1042900007460D4616464FF42048DFF87C464FF49B
:1042A0000031206804F0DEFB002808D04046A0F171
:1042B00001080028F3D1FFF710FE00208DE02068F0
:1042C00001884FF6FF52114001800121206804F05F
:1042D00091FB4FF48059C84600206060D4F800A0DC
:1042E000DFF838165046FFF714FE002805D1404687
:1042F000A0F101080028F1D14CE0012239465046D6
:1043000004F090FB022EC84636DADFF82416206847
:1043100004F0A8FB002805D14046A0F101080028C0
:10432000F3D137E00021206804F085FB2068018B81
:10433000012104F06BFBC846DFF8F815206804F093
:1043400091FB002805D14046A0F101080028F3D1D7
:1043500020E02068008AC0B22870C8462068018822
:10436000890505D54046A0F101080028F6D111E0E5
:10437000012104F060FB2BE000206060DFF8B8153D
:104380002068FFF7C6FD002806D14046A0F10108CD
:104390000028F3D1002020E0012716E0012E0CD1E7
:1043A000012F0AD100273946206804F044FB206819
:1043B000818A018B012104F029FB2068818A49064A
:1043C00003D5008A05F8010B761EF6B2002EE5D162
:1043D0000121206804F02FFB0120BDE8F0870000D8
:1043E0008864024010640240DFF850050168082923
:1043F00033D1DFF80C130A6842F080720A60426819
:10440000B2F1806F03D10A6842F080620A600A68E4
:104410009201FCD58A6842F002028A608A6802F042
:104420000C02082AFAD14268B2F1806F02D10A6800
:104430001201FCD5DFF850130968DFF824249142FB
:1044400007D2DFF8B0140A6822F4404242F48042F6
:104450000A6000210160416070474168B1F1806FDE
:1044600009D1A7490A6842F080620A600A6812010D
:10447000FCD5002141607047DFF8C404016841F0B9
:1044800080510160DFF86C0401688908890041F0FF
:1044900001010160DFF8AC040FF20901016070470F
:1044A0000C30014038B5DFF8A044208840F004000B
:1044B0002080FDF7F6FE807A012803D1012004F068
:1044C00076FC02E0002004F072FCDFF880548021CA
:1044D000DFF87C0404F04CFB002818D172B6884841
:1044E000DFF85814826802F00C020A60006800F0DD
:1044F00080604860286840F00400286030BF62B6E1
:10450000286820F004002860FFF76EFF0CE0608848
:1045100040F004006080286820F00400286030BF6C
:10452000286840F004002860608840F00400608043
:1045300031BDDFF8100400680047DFF818140128C7
:1045400006D010D3032809D005D3042809D00AE0E7
:10455000DFF8C01307E0DFF8001404E0DFF8FC1315
:1045600001E0DFF8FC130846704710B50C46FFF772
:10457000E4FF214689B2BDE8104004F085B910B5CA
:104580000C46FFF7DAFF214689B2BDE8104004F07F
:104590007DB90000E0B500238DF8083001238DF8C7
:1045A0000A30002A03D10C228DF8092002E00822EB
:1045B0008DF8092004283CD8DFE800F00315212AF3
:1045C0002A004FF40060019028208DF800000F2091
:1045D0008DF8010000208DF80200012921D1184634
:1045E0008DF803001FE01846019010208DF8090097
:1045F00006208DF800000E208DF80100EAE7022069
:10460000019007208DF800000F208DF80100E1E7F0
:104610000420019008208DF800000F208DF8010083
:10462000D8E78DF8030001A804F00CFE00A804F000
:1046300058FE07BD4FF40061C64804F01EB910B51E
:10464000044601214FF4802003F0DFFF21461020B3
:1046500004F04DFD00214FF48020BDE8104003F030
:10466000D4BF10B501214FF4802003F0CEFF1020FD
:1046700004F04AFD044600214FF4802003F0C5FFFA
:104680007B2004F00FF8002802D09BA0FDF78AFEE3
:104690007A2004F007F8002802D098A0FDF782FEE7
:1046A000792003F0FFFF002802D095A0FDF77AFEE5
:1046B0007C2003F0F7FF002802D092A0FDF772FEE5
:1046C0007D2003F0EFFF002802D08FA0FDF76AFEE7
:1046D0007E2003F0E7FF002802D08CA0FDF762FEE9
:1046E0007F2003F0DFFF002802D089A0FDF75AFEEB
:1046F00003F0EAFF2046C0B210BD000000200140D8
:1047000000380240003C024000127A003EB50C46E0
:1047100015460422014602A800F0ECF904222146C5
:1047200001A800F0E7F90422294600A800F0E2F908
:1047300002A9002004F0ACFB01A9002004F021FC38
:1047400004F01AFC0446874A002300981946101A00
:1047500063EB0101490241EAD051400204F0E8FE56
:104760000090844205D2011B4FF0004004F0D9FCB8
:1047700037BDA04207D2C4F50070009909184FF068
:10478000004004F0CEFC37BD287A002080969800C7
:104790000024F40000366E010048E8012DE9704362
:1047A00084B004460D46164602A9002004F0BFFB63
:1047B00001A9002004F035FC04F0DEFB0090694AFA
:1047C000A2FB00894FEA582848EAC958A2EB080022
:1047D0000090042202A9204600F08CF9042201A9CD
:1047E000284600F087F9042200A9304600F082F93B
:1047F000BDE87F83EC270120005A620280F0FA02B4
:1048000000BD010570B48C1E012C01DA0C34401E71
:104810003C216425B0FBF5F5C5EB90054FF4C87657
:10482000B0FBF6F6751940F26F1674430C26B4FB14
:10483000F6F46419121940F26D1404FB00204A4A80
:10484000101800EB400203EBC200039A01FB0020AA
:10485000049A01FB002070BC7047000084380240BD
:10486000018793031CB50C460168019141680091D2
:104870008368C2680169491C406900F26C70FFF7E7
:10488000C1FF2060002016BD10B58EB0374800680B
:10489000C405E40D01A9002004F049FB00A9002093
:1048A00004F0BFFB9DF8040006909DF805000590FC
:1048B0009DF8060004909DF80100401E08909DF8A8
:1048C000020007909DF803006430099002A904A833
:1048D000FFF7C8FF4FF47A7010FB04F0400AC0F5F0
:1048E0007A700390029A4FF47A73C117E3FB0201C6
:1048F0000EB010BD00700040504F520050494E00A5
:10490000424F520053465400495744005757440001
:104910004C505700000402406C7A00200100030054
:1049200082000700800007008400070004000010D8
:10493000020000104000001002000300F4270120D4
:1049400040380240EC2701201800024010ED00E042
:10495000003001400000024000080240000C02400C
:104960000010024000CA9A3B7505F5FF2828004058
:10497000002204F055BE000008B584B00023029365
:1049800011B90093019302E00090481E019004AB1E
:1049900000A907487844183004F05CFE009909B17A
:1049A00000220A70002858BF029805B000BD00BF61
:1049B0000FE5FFFF00F10103810704D010F8011B90
:1049C00089B18107FAD10268B2F10131914311F046
:1049D000803F04BF50F8042FF6E710F8011B11B117
:1049E00010F8011BFBE7C01A7047000000B585B046
:1049F00002460FF2140100A805F0F8FC00A800F030
:104A000099FB05B000BD00004F4525640000000083
:104A100030488168002904BF08B008E0EFF309823C
:104A2000A2F12802036882E8F84F83685A6000F018
:104A30004BFD816859B14A6892E8F84F036002F172
:104A4000280282F3098813F47F4F36D0704722483A
:104A500022490968401A80F308884FF08071C161CB
:104A60001F4981617FF0060E704701BC2046DFF8C8
:104A700074E000BDFEE71C48006818490968401A48
:104A8000203820F0070080F308884FF0000181F300
:104A9000118862B600F00DF8FEE74FF0000181F3D7
:104AA00011881249124A0A604FF0800181F311887F
:104AB00070470E490E4A0A6070474FF0000181F3BB
:104AC0001188704700BF4FF0800181F31188704753
:104AD00000BF000070790020E01F002034030308AD
:104AE00035A70008754A00080000000804ED00E042
:104AF0000000001010B50446FDF7F4FF204610BD7D
:104B0000EFF303807047BFF34F8FDFF86C06016847
:104B100001F4E061DFF8642611430160BFF34F8FB9
:104B2000FEE770B582B006460C462046FFF742FF0E
:104B30000546202D05D10422314600A8FFF7DAFFF3
:104B400006E0102D16D10222314600A8FFF7D2FF51
:104B5000002000E0401CA8420EDA015D7829F9D05F
:104B6000009A2B465B1E1B1ADA4002F00102303914
:104B70008A42EFD0002076BD012076BDDFF8001616
:104B8000016006207047A0F10060B0F53E3F01D8FB
:104B90000120704700207047F8B504460D460020FC
:104BA00000902068FFF7EFFF00281AD000A8FFF759
:104BB000E5FF0646002700E07F1CB74211D20098AF
:104BC00050F8371000EBC700406840422268520896
:104BD00010EB4200FFF7A5FF0028EDD02F60012069
:104BE000F2BD0020F2BDF8B50C46DFF898150A6D4D
:104BF0004B6D002559082E465F1B062F11D3482701
:104C000007FB01273F6C874200D20D46B84200D215
:104C10000B46E918490837467E1C1F2FECD300E0ED
:104C20006D1C9D4211D2482707FB05210E6CB04236
:104C3000F6D34E6C8642F3D34022204605F0F0FBBB
:104C4000002084F840000120F2BD40220FF20061F4
:104C5000204605F0E5FB0020F2BDF0B591B004461A
:104C600000250EE032590FF2F45100A805F0BEFB0A
:104C700000A8FFF79FFE024600A9381D05F0D0FBF3
:104C80006D1C05EBC500C600305900280BD0371944
:104C900000A9FFF7A8FF0028E4D0402200A9381D92
:104CA00005F0BEFBECE711B0F0BDF8B507460C46C9
:104CB0001546002630460090002F1ED0002C09D14A
:104CC000F2BD06EBC600C00057F8041B49084900B6
:104CD0004151761C0C2E0FD200A93846FFF75CFF1D
:104CE000002807D13868FFF74EFF002802D13F1D8A
:104CF000BC42F1D2BC42E4D23046F2BD70B5DFF81E
:104D000088140A460B68D21A1368DFF88044A3425D
:104D100001D0002070BDDFF86C44121D22650968C7
:104D2000091F4822B1FBF2F1616510F1030F02D0B7
:104D300010F1130F0AD1DFF85854A86805F0A6FB4C
:104D40000646A86805F0AEFB811905E005F0B8FB42
:104D5000054605F0B7FB4119DFF83854A069286013
:104D600005F14802A06AFFF7A0FF2846FFF775FF8C
:104D7000012070BD0EB430B5CCB0044600A84FF48D
:104D80009671FFF7F5FD00254FAB22464FF4967163
:104D900000A8FFF7F1FD00A8FFF70CFE044609E0AC
:104DA000DFF8E013C86D421CCA6500A9695C05F014
:104DB000F1FB6D1CA542F3D34CB030BC5DF810FB89
:104DC00038B50024DFF8BC53E8650FF29840FFF7D0
:104DD000D1FFDFF8C40301680FF2AC40FFF7CAFF50
:104DE000A86C0090AB6B6A6B296B0FF2B440FFF7B5
:104DF000C1FFE96C0FF2E040FFF7BCFF6A69A969E7
:104E00000FF2E840FFF7B6FF0FF2F840FFF7B2FFEE
:104E100006E01018021D0FF20450FFF7ABFF641CF0
:104E200004EBC400C200DB4811580029F1D10FF295
:104E3000F840FFF79FFFA86D441E002505E0091804
:104E4000BBA0FFF797FF641E6D1C3C2D09D2002C00
:104E500000D53B24322000FB04F1D0480A5C002A34
:104E6000EDD131BDCE48CF490A6802604A68426040
:104E70008A688260CA68C2600A6902614A694261DE
:104E80000A7E8261097F8161C7490A7882614A6826
:104E900042628A688262CA68C2620A6902634A69B7
:104EA00042638A698263CA69C2638A6EC0F88820D5
:104EB000BE4A9369C0F89830D368C0F88C30136943
:104EC000C0F890305369C0F894300B6FC0F89C3034
:104ED0004B6FC0F8A0308B6FC0F8A430C96FC0F81A
:104EE000A810B3490968C0F8AC10B2490B68C0F803
:104EF000CC304B68C0F8D0308B68C0F8D430CB6869
:104F0000C0F8D8300969C0F8DC105168C0F8E81062
:104F10001168C0F8E410704770B506460C46994D0C
:104F20006FF01E01401A14D0083812D0001F05D0AF
:104F3000001F0ED008380CD0001F10D104F1200043
:104F40002862EFF3148040F00200E862286AA86249
:104F500005E004F120002862EFF31480E862EFF32B
:104F600008806862EFF305802863EFF300806863D0
:104F7000FFF7C6FDA863EFF31080E863EFF311803D
:104F80002864EFF313806864F1EE100AA864EE64FD
:104F9000002004E054F8201045F82010401C082898
:104FA000F8D370BD70B5774CA16D3C2901D30021B9
:104FB000A165A56D3221794A01FB05260A46014605
:104FC0003046FFF797FD002086F83100681CA06589
:104FD00070BD70B5014674462046FFF79DFFFFF790
:104FE00041FF2046FFF78AFE00F09AF8002832D1F0
:104FF00000F034F805F06EFAF32005F0E5FA6E489B
:105000004FF00054002505E02178641C05F0C2FA39
:1050100030466D1C461CB5F5C03FF5D3532105F055
:10502000B9FA5221304605F0B5FA741C41212046E8
:1050300005F0B0FA641C4D21204605F0ABFA5F483C
:10504000C046C04604F10D00FFF7BAFE05F04BFA6A
:105050005B4800F01FF8BDE8704054E510B505F05E
:1050600039FAF32005F0B0FA564C3820206002E0FF
:105070002068083020602068402807D2002105F011
:1050800038FA0928F4D0FFF73EFDFCE7BDE81040F0
:1050900005F029BA38B5044605F01CFAF32005F0EE
:1050A00093FA3D480168204605F058FA241DFF2177
:1050B000204605F06FFA641C404D6979204605F0E2
:1050C00069FA641CE978204605F064FA641C2979C1
:1050D000204605F05FFA641C2978204605F05AFA4C
:1050E000641C6978204605F055FA641CA9782046AE
:1050F00005F050FAF521601C05F04CFABDE831408E
:1051000005F0F1B980B505F0E5F9F32005F05CFA9A
:10511000AA212D4805F03EFABDE8014005F0E3B9AB
:10512000002029490978F52900D1012070470000A5
:1051300025730A0010B50446FFF73CFCC0B21428E2
:1051400000DB1320024621462048FFF7D3FC4FF036
:10515000AC30007810BD80B500F049F8BDE80140E2
:10516000D1E480B5FFF7CEFF4FF4C83212490020DA
:10517000BDE8084002F003B80CED00E00400FA05B9
:1051800040790020481A0120FC4F0508FECAFECADB
:105190007079002014E80020847A002034B00020C8
:1051A0006C09012000ED00E020ED00E004E000E0EB
:1051B000A0ED00E034EF00E000000608E427012045
:1051C000F4FF070888280120FFFF0708E8250120D1
:1051D00010B500F01BF80FF270142046FFF7EAFB41
:1051E000024621460020BDE8104001F0C8BF80B54E
:1051F00001214FF4802003F008FA012003F0D4FDD0
:1052000094210F20BDE8044003F071BF80B5012157
:105210004FF4802003F0F9F9012003F0C5FD0021CF
:105220000F20BDE8044003F062BF10B50024012147
:105230004FF4802003F0E9F9012003F0B5FD0F20C1
:1052400003F062FF942800D10124204610BD000025
:105250004E6F2053796D626F6C00000030782530FE
:10526000387800000A0A0A0A3D3D204372617368DB
:105270002044756D7020496E666F726D6174696F40
:105280006E203D3D0A0000004669726D77617265CF
:105290002056657273696F6E203A2025640A0000FB
:1052A0000A49505352203D20307825782C20415017
:1052B0005352203D20307825782C207850535220AE
:1052C0003D20307825782C205046534352203D20F5
:1052D000307825780A0000000A6661756C74206DCC
:1052E0006F6465203D203078257800000A50432007
:1052F0003D20307825782C204C52203D20307825D8
:10530000780A00000A3C43726173682043616C6C48
:1053100020537461636B3E0A0000000030782578EA
:10532000202025730A0000000A0A3D3D20526563D3
:10533000656E74204C6F67204D657373616765738C
:10534000203D3D0A00000000534E414D5900000031
:105350000000000038B5FFF7B6FBDFF830068468C0
:10536000DFF8280600210171FFF7A7FB002C2CD0E5
:105370002068002829D0607C2168497CC0B2814225
:1053800023D1256800E00D002968002903D04A7C5C
:10539000C0B28242F7D0FFF796FBDFF8F005006954
:1053A000A04203D1DFF8E40521680161E0692168CA
:1053B0000160C861E56129682160002900D0CC61E5
:1053C0002C6095F8410085F84000FFF776FB31BD71
:1053D00010B5FFF778FBDFF8B8050468DFF8AC0517
:1053E000006A201A012832DADFF8A005046A04E016
:1053F000DFF898050462FFF760FBDFF89805007896
:10540000C00722D5FFF75FFBDFF88805007880072B
:10541000EED5DFF88005007810F0FD00DFF8741598
:105420000870FFF74AFBDFF86405006A8442FAD08F
:10543000DFF858050462DFF858050068401CDFF803
:1054400050150860DFF844154862FFF73CFB10BDBB
:1054500038B504000020A071206A10F57A606062FF
:10546000E069002802D02000E1698847FFF725FBAA
:10547000E56809E0E868616A401A002801D5E86833
:105480006062FFF71AFB2D68002D1AD0FFF71BFB97
:105490002069002804D0687C2169497C884212D3A5
:1054A000287C4007EDD5E868216A401A0128E1DA36
:1054B000280000F09EF9FFF706FB287C0028D9D1D0
:1054C00001E0FFF700FB31BD70B504000020607003
:1054D0000120207004F0F4FF0078C0B2CD2802D083
:1054E0007D20FFF783FAA06800280CD0A068406CEC
:1054F000002808D0A068406C01680800002802D08D
:10550000A0684068884794F8290000280BD0A0685C
:1055100094F8281080F84010DFF870040079002813
:1055200001D0FFF717FFDFF870040078002823D0C0
:10553000DFF868040068DFF85414096A401A00288C
:1055400004D5DFF854040021017015E0FFF7BBFA21
:1055500005F0FEF80500FFF7B0FAA068002808D0B3
:10556000A068406B2818DFF838140968401AA16851
:105570004863DFF82C040560A068002808D0A06804
:10558000007C002804D1A068006B401CA16808635F
:10559000206900282BD003E030682061FFF78DFAE6
:1055A000FFF791FA2669002E27D0357CEDB2002D49
:1055B00023D0680710D5F068216A411A012906DA5C
:1055C000300000F016F9307C002805D10FE0616A48
:1055D000411A002900D56062EDB215F0FB001028D9
:1055E000DAD1B06880684068007C0028D4D1FFF729
:1055F0006AFA02E02000FFF72BFFA0790028F9D11A
:10560000DFF890030078C00701D5FFF7E1FE002026
:1056100060712069002839D02069007C002805D0FD
:105620002069806880684068A06001E02069A0600F
:10563000A06890F84C00642802D08020FFF7D6F9CB
:10564000A068806A0078CD2802D07820FFF7CEF9D4
:10565000A068406C002808D0A068406C4168080031
:10566000002802D0A06840688847A06890F84000F1
:1056700084F8280084F82900DFF810038068C06AE5
:10568000401CDFF808138968C8620BE0002084F82A
:105690002900002084F828000020A060002020704D
:1056A000FFF70BFA200070BD80B505F07FF8DFF83A
:1056B000F4120978002806D0022810D009D3042853
:1056C00015D010D314E0002902D0A320FFF78EF9E3
:1056D00011E0002902D1A420FFF788F90BE0A620F1
:1056E000FFF784F907E0A720FFF780F903E002E065
:1056F000A820FFF77BF901BD10B505F057F80400AD
:10570000DFF8A0020078002802D0A020FFF76EF991
:10571000002C05D0022C08D003D3032C09D00CE0B8
:105720000EE0A420FFF762F90AE0A620FFF75EF979
:1057300006E0A720FFF75AF902E0A820FFF756F984
:1057400010BD80B505F032F8002805D0022808D039
:1057500006D3032809D00CE0A320FFF747F90BE09C
:105760000AE0A620FFF742F906E0A720FFF73EF97E
:1057700002E0A820FFF73AF901BD80B5DFF80C027E
:105780000078002802D19720FFF730F9DFF8FC01FC
:105790000078401EDFF8F4110870C0B2002827D14D
:1057A000DFF8E8014068002822D0FFF78CF9DFF825
:1057B000DC01406800280BD0DFF8D0010121017026
:1057C000DFF8C801FFF769F9DFF8C00100210170B7
:1057D000DFF8B8014078F021084202D09920FFF7A5
:1057E00005F9DFF8A8014078002801D1FFF765F935
:1057F00001BD10B5816800290CD0DFF89011096A4D
:10580000C16081680A684968002A00D051600A6056
:1058100000218160017C11F003010174C9B20029EB
:1058200045D1DFF868110969002929D1DFF85C1139
:105830000861DFF85801007800280CD1DFF84C012E
:1058400001210170DFF84401FFF727F9DFF83C017F
:105850000021017003E0DFF8340101214171DFF81C
:105860002C014078F021084202D09920FFF7BEF8C1
:10587000DFF818014078002801D1FFF71EF916E083
:10588000427C4B7CD2B29342D0D38142D1D04B7C6C
:10589000D2B29A420BD10300FFE71B68002BDED087
:1058A0005C7CD2B2A242DAD18B42F6D1BEE710BD07
:1058B00010B50400627C35480078401C33490870FC
:1058C000394800E008000168002903D04B7CD2B2BF
:1058D0009A42F7D32160E061046000290AD0CC61CC
:1058E000487CD2B2904202D194F8410000E00020FE
:1058F00084F84000207C002812D1FFF7E4F8200053
:10590000FFF777FF21484078F021084202D0992024
:10591000FFF76CF81D484078002801D1FFF7CDF85B
:10592000FFF72BFF10BD10B5184804781748007812
:10593000401C164908701548FFF7AFF8134804706B
:1059400012484078F021084202D09920FFF74EF823
:105950000E484078002801D1FFF7AFF810BD10B510
:1059600004F02AFF09480121017004F0A9FD040098
:105970006846C046021B203A012A03DBCD212000E5
:10598000FCF76CFC09480121017010BD7079002002
:10599000C82801201829012019290120E028012008
:1059A000CC2801201A2901207C7900201C29012003
:1059B000506002604160086070470A68F8E748601C
:1059C0000160704701684068F9E7F8B50600DFF844
:1059D000F45802D505F15800F2BD05F15804002035
:1059E000296F00E0096805F17002914204D00C466D
:1059F000A2689642F6D10120002840D1A86FD0F8C5
:105A00008070182004F0FCFE0446A660002F05D02C
:105A1000B74203D2B6FBF7F0784300E03046E060CF
:105A2000002F02D0B74200D23E46266100202075EA
:105A3000DFF894683078401C30707078F0210842AC
:105A400002D09920FEF7D2FFFFF73DF87078401C96
:105A5000707005F170012046FFF7AFFF7078F021FC
:105A6000084202D09920FEF7C1FF7078401E707086
:105A7000C0B2002801D1FFF720F8FFF77EFE2046D4
:105A8000F2BD38B5044694F91400002829D1DFF896
:105A900038582878401C28706878F021084202D0D5
:105AA0009920FEF7A3FFFFF70EF86878401C687096
:105AB0002046FFF787FF204604F0BAFE6878F02101
:105AC000084202D09920FEF791FF6878401E687066
:105AD000C0B2002801D1FEF7F0FFBDE83140FFF76A
:105AE0004CBE31BDF8B5044608466FF00045FFF7DF
:105AF0006CFF064694F9050094F90410814214D114
:105B0000C01C800004F07CFE074694F905000128C3
:105B100007DB820021683846FEF7ECFF206804F0BE
:105B200087FE27606079C01C607194F90400411CF5
:105B30002171216841F82060DFF89007864202D089
:105B4000307D401C3075002008E0216851F820109D
:105B50008A68954201DB1546A160401C94F9041047
:105B60008842F2DBF1BDF8B504466FF00046DFF87D
:105B7000542702F1580502F158004FF0FF33002777
:105B800004E0664501DB664675467F1C94F904C057
:105B900067450DDAD4F800C05CF827E0DEF808C0ED
:105BA000002BEED58C45ECD170463B465BB2ECE762
:105BB000002B11D4BCF1010F0EDB06E0216801EBD4
:105BC0008306766841F823605B1C94F904104E1E2E
:105BD000B342F3DB491E217102F15801884204D01F
:105BE000017D491E0175FFF74CFFA560F1BD10B4A2
:105BF000C26A836B406C9C68002C02D56FF0004336
:105C000000E01B698468002C02D56FF0004000E0C2
:105C10000069984200DD1846D2685143884201DB92
:105C2000012000E0002010BC704738B5DFF8941662
:105C30008A6FD36E012490F90850AC402343D36699
:105C400001F66C11FFF7B9FE012032BD10B5DFF887
:105C50007416896FCA6E012390F90840A3409A43D5
:105C6000CA66FFF7AFFE012010BD01207047F8B5EE
:105C7000044615461E4604F12400FFF733FF06EBE9
:105C8000460004EB8007294607F13000FFF72AFFA2
:105C900097F9340000903346627A94F908100FF2B5
:105CA0003060FCF77FFBF1BDF8B5044615461E4693
:105CB00004F12400FFF757FF06EB460004EB8007D2
:105CC000294607F13000FFF74EFF97F934000090A6
:105CD0003346627A94F908100FF20460FCF762FB15
:105CE000F1BDC16A8A68012A09DB0969012906DA5E
:105CF000006D002801D50020704702207047002069
:105D0000704701EB410200EB8201896B8A68012A2E
:105D100009DB0969012906DA006D002801D5002098
:105D200070470220704700207047002900D5D8E74F
:105D3000E7E7012900DA012113460A4697E701291E
:105D400000DA012113460A46AEE7DFF87805C06A9B
:105D5000417A481E8041C00F704713464FF0FF3212
:105D6000114684E713464FF0FF3211469CE780B599
:105D7000DFF850050068417A002902D1006E4068C2
:105D80008047012002BD80B5FFF760FFDFF83405D2
:105D90000068417A002902D1006E806880470120A6
:105DA00002BDB1F57A7F01DC4FF47A7113460A46E1
:105DB0004FF4FA715BE7B1F57A7F01DC4FF47A7149
:105DC00013460A464FF4FA716EE710B504460029EF
:105DD00022D5E06A816801291CDB0069012819DAF3
:105DE00002212046FFF703FF002813D194F9540045
:105DF00010F1010F04D1002084F85400012010BDDF
:105E0000002807D1012060774FF0FF3084F854005C
:105E1000022010BD002010BDBDE8104071E74FF01A
:105E2000FF3280F8542000E7C92900DAC821134660
:105E30000A4642211BE7C92900DAC82113460A464F
:105E4000422131E710B50446002927D5E06A816870
:105E5000012921DB006901281EDA03212046FFF712
:105E6000C6FE002818D194F95400014611F1010F23
:105E700004D1002084F85400012010BD002803D173
:105E8000012084F8540010BD012905D14FF0FF30E6
:105E900084F85400022010BD002010BDBDE8104061
:105EA0002FE74FF0FF3280F85420DFF81824926F6C
:105EB000D2F88020C83252420265B6E6DFF80424E8
:105EC000926FD2F88020C83252420265ADE6134686
:105ED0004FF0FF321146CAE613464FF0FF3211462B
:105EE000E2E680B5FFF7A1FEFCF7DBF900210175C2
:105EF000012002BD80B5FFF7A9FEFCF7D2F9002111
:105F00000175012002BD292900DA282113460A461D
:105F10001421ACE6292900DA282113460A46142167
:105F2000C2E610B50446002920D5E06A816801293F
:105F30001ADB0069012817DA02212046FFF757FE15
:105F4000002811D194F9540010F1010F04D1002060
:105F500084F85400012010BD002805D14FF0FF3017
:105F600084F85400022010BD002010BDBDE8104090
:105F7000C7E600002DE9F0410C46D24D55F82060EF
:105F8000307206F154070FF268313961152800F2BA
:105F90003081DFE810F016002600410059004D0066
:105FA000650075008400B4009400A400C400D4000F
:105FB000E200EF00FB000901160123012301230188
:105FC000320006F10800062141760A21817605F6A5
:105FD0007411416040F2DC5181600FF23030386161
:105FE00007E106F10800062141760A21817605F6CF
:105FF0005071416064218160FBE006F108000121DD
:1060000041760521817605F6BC71416005218160EC
:106010000FF2D8303861ECE006F108000C2141762F
:106020001021817605F6D071416010218160E0E099
:1060300006F10800072141760B21817605F6C4712F
:1060400041600B218160D4E006F108000621417611
:106050000A21817605F6E07141600A218160C8E07D
:1060600006F10800062141760A21817605F6EC71D9
:1060700041604FF4FA7181600FF2E4203861B8E0BA
:1060800006F10800142141761821817605F58F511B
:106090004160182181600FF238303861A9E006F1C3
:1060A0000800032141760721817605F590511431CE
:1060B0004160072181600FF2E020386199E006F12C
:1060C00008000A2141760E21817605F59051091DBF
:1060D00041600E2181600FF2A420386189E006F151
:1060E0000800022141760621817605F590511C3188
:1060F0004160062181600FF2BC20386179E006F131
:106100000800052141760921817605F58851F8318D
:106110004160092181600FF22C20386169E006F1AD
:106120000800062141760A21817605F59051243137
:1061300041600A2181600FF2F010386159E006F1E8
:106140000800012141760521817605F59051303115
:10615000416040F2866181604BE006F10800012158
:1061600041760521817605F5C051B83141600521A0
:1061700081603EE006F108000C2141761021817615
:1061800005F5C65141601021816032E006F108003A
:10619000112141761521817605F5C051D03141603C
:1061A00041F66631816024E006F108001121417654
:1061B0001521817605F550513831416015218160F6
:1061C00017E006F10800042141760821817605F5E3
:1061D000505150314160082181600AE006F1080009
:1061E000012141760521817605F6B47141600521D2
:1061F000816006F108000021017541758175017605
:10620000C1600161417006F128080846C8F82800FD
:106210004FF0FF3086F854007880062206F15800CF
:10622000FCF71CF8002010E000EB400106EB8101B8
:10623000002281F8342034314A7005F158024A6056
:1062400006EB800100228A64401C0228ECDB00205F
:1062500086F8280088F8010005F15800C8F8040005
:10626000FC60BDE8F08110B5164C04F0F1FAA067AF
:10627000002006E0682111FB00417C3144F8201029
:10628000401C1628F6DB4FF0FF30206660660020C9
:10629000A06605F065FD06F0C3FB07F054F807F0B3
:1062A000E9FC07F0A6FF07F09FFF07F0FDFE08F0EE
:1062B000F5F808F01AFA08F038FDBDE8104007F0CC
:1062C0009DBF000008400020707900206040002041
:1062D0004144202564202564202564202564000095
:1062E000524D20256420256420256420256400006B
:1062F0006B5C00082B5C00086B5C00084D5C0008C0
:10630000335D00083F5D00082B5D00084B5D000811
:106310002B5C00084B5D00084D5C0008335D0008F5
:106320003F5D00082B5D00086F5D00082B5C0008D6
:106330006B5C0008875D00085B5D0008655D000818
:106340002B5D00086B5C00081F5E00086B5C00089A
:106350004D5C0008A35D0008B75D0008CB5D000838
:106360006B5C0008A35E00086B5C00084D5C0008D5
:10637000295E0008375E0008455E00086B5C000877
:10638000BD5E00086B5C00084D5C0008335D0008D2
:106390003F5D00082B5D00086B5C0008E35E0008B1
:1063A0006B5C0008F55E0008CF5E0008D95E00084F
:1063B0002B5D00086B5C00082B5C00086B5C000820
:1063C0004D5C0008335D00083F5D00082B5D000850
:1063D0006B5C00082B5C00086B5C00084D5C0008DF
:1063E000CF5E0008D95E00082B5D00086B5C0008DA
:1063F0002B5C00086B5C00084D5C0008075F000820
:10640000155F0008235F0008DFF81C0D0078704757
:106410002DE9F0418AB004F01BFA0446DFF80C5D68
:106420002E6844E096F90800014607293ED00B3853
:106430000A283BD3062939D006F10807B86C002892
:1064400003D5D4F880100818B8644FF0FF313046F7
:10645000FA6D926990478046B8F1010F04D197F820
:106460004C00B96D09698847B8F1020F0BD1797EEC
:1064700038697A688018BA6D52699047002802D04E
:10648000304608F071FD00213046FA6D9269904760
:10649000022801D10120B87501213046FA6D9269B8
:1064A0009047022802D1304608F00AFE3668AE4214
:1064B000B8D1D4E91C01002901D100280CD00A2050
:1064C0008DF8080002208DF80000D4F88000ADF8A7
:1064D000220000A801F096FE01200AB0BDE8F0817C
:1064E00030B585B004460D46CA208DF800002888D6
:1064F000ADF801000220ADF80300BDF80100001D59
:1065000004F07EF9CDF8090002220DF10301FEF737
:10651000F1FA02222946DDF80900801CFEF7EAFAAA
:106520002A882146DDF80900001DFEF7E3FA002065
:10653000288000A9DFF8E80D09F09EF805B030BD0D
:10654000C0F54060322801DA012070470020704712
:1065500080B5FBF7A6FE407B002804D008F08AFC3B
:10656000DFF8C01D086001BD80B508F083FCDFF8CE
:10657000B81D086001BDDFF8B00D0068704718B4A1
:1065800000F10C030422DFF8A01D5C7DDB68C0680D
:106590001818201818BCFEF7ADBA30B41488651C62
:1065A0001580052565541488651C1580635413886F
:1065B0005C1C1480007A585430BC7047F8B50E4605
:1065C00014461D4629884A1C2A8037220A552988E4
:1065D0004A1C2A80027A0A5500F108077A7E7868F8
:1065E000311828880019FEF785FA2888797E401826
:1065F0002880787E796871184058DFF8281D09686E
:10660000401A0090042200A928880019FEF772FAA7
:106610002888001D288080B2FFF792FF002803D051
:1066200029462046FFF75CFFF1BD2DE9F041044605
:106630000D4616461F46DDF8188008E043463A46E8
:1066400029462046FFF7BAFF94F822002D18B542DC
:10665000F4DBBDE8F081F8B5044615461E46069FFA
:1066600000972269FFF7E1FF2069854206DA00976B
:1066700033462A4600212046FFF7D7FFF1BD00F13F
:1066800010018A688B7CD2188A600069824201D12D
:106690000020886000208873704770B582B000F1D8
:1066A000140674684569002D07D500920B462246F2
:1066B000B17B6118FFF7CFFF73BDAC4200920B4670
:1066C0002246294602DAFFF7C6FF73BDFFF7ADFF8A
:1066D00073BD70B504460D461646FFF7DEFF012375
:1066E000324629462046FFF758FFA069606170BD19
:1066F0002DE9F84304460D46164604F0A9F88046F5
:10670000FBF7CFFD81462046FFF739FF04F108076C
:10671000386C01284ADB99F80A00002822D0B87D9D
:10672000002800F07F8000207864B87E3A69F9681C
:106730008B1A834205D0002910D1BB689B1A834273
:106740000CD13B7E002B06D000962B4682182046AB
:10675000FFF781FF02E04FF0FF30F8602046BDE810
:10676000F2438CE7786CD8F88010401A78640128DE
:1067700015DA386C7864324629462046FFF78DFFDB
:10678000B87D002808D033462A4639692046FFF7ED
:1067900015FF2046FFF773FF3869F86042E0B87DC7
:1067A00000283FD02046BDE8F24368E7B87D0028C6
:1067B00038D094F9080099F80A10002920D0072849
:1067C0000CD133462A4639692046FFF7F7FE7A781E
:1067D00094F908100FF25000FBF7E4FD94F908005B
:1067E00008281AD197F92C00012816DB386B80682D
:1067F000B0F57A7F0BD1B7F94E00012807DA11E026
:10680000082804D1DFF8780D406800280AD1334603
:106810002A4639692046FFF7D1FE2046FFF72FFFB1
:106820003869F860BDE8F183415020537573202525
:106830006420256400000000F8B504460D46DFF82A
:10684000EC68376805E02A4621463846FFF750FFD6
:106850003F68B742F7D1F1BD2DE9F04104460D463E
:10686000DFF8206DF76907F10C0898F81510D8F8D3
:106870000C00FA688018D8F8542052699047002814
:106880000AD0012088F81200787A002804D02A461D
:1068900021463846FFF72CFFB66906F10C07797DD3
:1068A000F868F26880187A6D52699047002809D01C
:1068B0000120B874707A002804D02A462146304658
:1068C000FFF716FF0120BDE8F0810288D21C02808C
:1068D0000A80704780B50B889B1AADF80030BDF870
:1068E0000030002B09D01018012100F8031C0222EF
:1068F00000A9801EFEF7FEF801BD0888C01E0880B2
:1069000001BD2DE9F04FADF64C1D04460D4603F0D8
:106910009FFF0746FBF7C5FC804610A840F608110C
:10692000FEF726F800208DF8020006A82821FEF7C1
:106930001FF801A81421FEF71BF80020ADF8000095
:106940000646D7E91C01002902D1002800F0748313
:1069500098F9090009F060FB002800F06D8300A998
:106960002846FFF7B2FFB0461CE0D7E91C014246BB
:1069700009F062FD00F0010011F0000101D10028D2
:106980000ED008EB8800DFF8001C01EBC00292F982
:106990000900012804D10DF1020110A8126A9047E4
:1069A00008F10108B8F12B0FDFDB37461AE0288821
:1069B000411C298099F8021001552888FFF7C0FD75
:1069C00000280DD0BDF8002029462046FFF782FFA1
:1069D00029462046FFF784FD00A92846FFF775FFEA
:1069E0007F1C7FB29DF80200874280F21D832988B8
:1069F000481C288040F2211010FB07F010AA825C8E
:106A00000A5529884A1C2A8010AA00EB020898F827
:106A1000010008552888411C298008F1010999F8CE
:106A20000110015599F8010003281ED0092800F033
:106A300049810C2800F023811A2800F042821B288B
:106A400000F056811C2800F070821D2800F0638140
:106A50001E2800F05A82252800F09982262800F08E
:106A6000D382282800F0AE82A1E798F8010003281D
:106A700005D12888411C298099F8021001552888E1
:106A8000411C298099F80310015599F80300C0288A
:106A90000DD1B8F83020D8F8321028880019FEF748
:106AA00029F82888B8F830100818288085E7711C64
:106AB00000064ED401A808F1040252783254C9B23B
:106AC00098F806200A54491CC9B200220A544A1CEC
:106AD00008F20601D2B24B781354521CB8F80E30AB
:106AE000D2B21E0A1654521CD2B21354521C08F2CF
:106AF0000E03D2B29E781654521CD2B2DB781354D5
:106B0000521CD2B298F812301354521CD2B298F8D8
:106B100013301354521CD2B28B781354521CD2B27D
:106B2000C9781154511CC9B298F80A200A54491C5A
:106B3000C9B298F80B200A544E1CF6B2324601A98D
:106B400028880019FDF7D6FF288850FA86F028809B
:106B500033E7D8F8052006A8130C3354C9B2130A3A
:106B60000B54491CC9B20A54491CD8F80920C9B2AF
:106B7000130C0B54491CC9B2130A0B54491CC9B25B
:106B80000A54491CD8F80D20C9B2130C0B54491CE7
:106B9000C9B2130A0B54491CC9B20A54491CD8F88B
:106BA0001120C9B2130C0B54491CC9B2130A0B545F
:106BB000491CC9B20A54491CD8F82720C9B2130C81
:106BC0000B54491CC9B2130A0B54491CC9B20A54CC
:106BD0004A1C08F22701D2B20B791354521CD2B2CC
:106BE0004B791354521CCB88D2B21E0A1654521C35
:106BF000D2B21354521CD2B2097A1154511CD8F893
:106C00001520C9B2130C0B54491CC9B2130A0B54FA
:106C1000491CC9B20A54491CD8F81920C9B2130C2E
:106C20000B54491CC9B2130A0B54491CC9B20A546B
:106C3000491CD8F81D20C9B2130C0B54491CC9B209
:106C4000130A0B54491CC9B20A54491CD8F8212014
:106C5000C9B2130C0B54491CC9B2130A0B54491C7A
:106C6000C9B20A544E1CF6B2324606A92888001949
:106C7000FDF740FF288850FA86F028809DE608F14D
:106C80000301B1F90300C0F3072242EA0020A1F892
:106C90000300B1F90700C0F3072242EA0020A1F87F
:106CA0000700B1F90500C0F3072242EA0020A1F86D
:106CB0000500092228880019FDF71CFF28880930E3
:106CC00028807AE62888034698F80110032909D11C
:106CD000022208F103011819FDF70CFF2888801C17
:106CE00028806AE6401C288099F80200185564E65E
:106CF0002888411C298099F80210015598F8010054
:106D000005287FF45AAE2888411C298008F1040127
:106D10004978015551E608F1030998F80100012866
:106D200040F0BF802888411C298099F80410015543
:106D30004FF0000A9CE01B2010FB0A9BDBF80C20A4
:106D4000DBF808100FF2F820FBF72CFBDBF818003B
:106D5000010221F0FF11000A00F0FF100843CBF8F8
:106D600018004FEA3040CBF8180004220BF118014C
:106D700028880019FDF7BEFE2888001D2880DBF852
:106D80000800010221F0FF11000A00F0FF10084383
:106D9000CBF808004FEA3040CBF8080004220BF192
:106DA000080128880019FDF7A5FE2888001D288005
:106DB000DBF80C00010221F0FF11000A00F0FF10C7
:106DC0000843CBF80C004FEA3040CBF80C0004220B
:106DD0000BF10C0128880019FDF78CFE2888001D96
:106DE0002880DBF81000010221F0FF11000A00F0FA
:106DF000FF100843CBF810004FEA3040CBF81000EA
:106E000004220BF1100128880019FDF773FE288871
:106E1000001D2880DBF81C00010221F0FF11000A90
:106E200000F0FF100843CBF81C004FEA3040CBF8CD
:106E30001C0004220BF11C0128880019FDF75AFEE2
:106E40002888001D2880BBF81600010A41EA0020AE
:106E5000ABF8160002220BF1160128880019FDF785
:106E600049FE2888801C28800AF1010A5FFA8AFA04
:106E700099F804008245FFF65EAFB8F81B21D8F8F8
:106E80001D1128880019FDF735FE2888B8F81B1158
:106E900008182880B8F81B110FF2B410FBF782FA1B
:106EA0008BE505287FF489AD2888411C298099F855
:106EB000021001552888411C298099F803100155BA
:106EC0007BE508F1030198F80100032805D1288823
:106ED000421C2A8098F80A200255D1F801000202CB
:106EE00022F0FF12000A00F0FF101043C1F8010069
:106EF0004FEA3040C1F80100072228880019FDF749
:106F0000F9FD2888C01D288057E508F1030108888D
:106F1000020A42EA00200880022228880019FDF7B0
:106F2000E9FD2888801C288047E508F1030098F8CF
:106F3000011001297FF441AD99F80210012918D1FF
:106F400029884A1C2A8000780855B8F80420D8F807
:106F5000061028880019FDF7CDFD2888B8F8041020
:106F600008182880B8F804100FF2F800FBF71AFA96
:106F700023E502297FF421AD29884A1C2A80027862
:106F80000A5529884A1C2A80C079085515E52888A1
:106F9000411C2980B9F8021001552888411C29801C
:106FA000B9F9021009120155B9F90220D8F80510F3
:106FB00028880019FDF79EFD2888B9F902100818E5
:106FC0002880FAE42888411C2980B9F8021001556C
:106FD0002888411C2980B9F9021009120155288816
:106FE000411C298008F1040149780155B9F90220B2
:106FF000D8F8061028880019FDF77CFD2888B9F913
:10700000021008182880D8E408F103010888020A51
:1070100042EA00200880022228880019FDF76AFD54
:107020002888801C2880C8E4BDF800202946204616
:10703000FFF750FC09F01EF80DF64C1DBDE8F08F6F
:107040004C54204E4D47202564202564000000004C
:107050004F4A483A20415442442073697A653A20A5
:10706000256400004F4A483A204150445220736939
:107070007A653A20256400002DE9F04105460E4668
:10708000FBF70FF90746DFF804452078401C207015
:107090006078F021084202D09920FDF7A7FCFDF7A7
:1070A00012FD6078401C607097F81880B8F1000FEE
:1070B00026D03088404480B2FFF742FA002803D03F
:1070C00031462846FFF70CFA3088411C31800321F5
:1070D00041553088411C318000F80580424607F157
:1070E000190130884019FDF705FD30884044308093
:1070F000FF22002107F11900FBF7B0F800203876D5
:107100006078F021084202D09920FDF76FFC60788A
:10711000401E6070C0B2002801D1FDF7CEFCBDE872
:10712000F041FEF72ABB0000142901207449002019
:1071300038B504460D46FBF7B4F8817A002909D129
:10714000417B002906D129884A1C2A8006220A553B
:107150000121417331BD38B504460D462888002809
:107160000CD02046FFF788FF29462046FFF7E0FFB6
:1071700029462046BDE83440FFF7B2B931BD14B509
:1071800085B0049101A90022134614461CC10A21AE
:10719000ADF8001004218DF804108DF805000A46A2
:1071A00005A90DF10600FDF7A5FC042204A90DF1C7
:1071B0000A00FDF79FFC00A901A8FFF791F906B0AE
:1071C00010BD80B5FBF76DF84FF49671FBF7A8FA88
:1071D00007208DF802000120ADF8000000A90DF194
:1071E0000200FFF77DF901BDF8B50446FBF759F839
:1071F000E44D296A496C8A6842F210739A4259D167
:107200000969002956D1807A002853D0DC4E308895
:107210000C30B0F5347F01DD002030800120FCF718
:10722000E6FBFCF720FCADF802000320FCF7DFFBD7
:10723000FCF719FCADF80000FCF72CFC37880222A3
:107240000DF10201B8190830FDF754FCBF1C37805E
:10725000022200A9BFB2B8190830FDF74BFCBF1CD1
:10726000378004222146BFB2B8190830FDF742FC2E
:10727000381D3080022280B2801900F108010620FA
:107280006B691B6E1B6A98473088801C3080022215
:1072900080B2801900F1080106206B681B6E1B6A22
:1072A00098473088801C308070680C30B0F5347F8F
:1072B00000D27060F1BD2DE9F041B14C606800284A
:1072C00028D0218888421FD003F09AFA05466668C4
:1072D0002788A6EB07081FFA88F84246381900F1FC
:1072E00008012846FDF706FC3A4604F1080108EBC0
:1072F0000500FDF7FFFB3246294604F10800FDF7C3
:10730000F9FB284603F094FA626804F108010520AD
:10731000FFF735FF002060602080BDE8F0810000AD
:1073200018A40020B8280120BC2801202DE9F8432A
:1073300006460F469046FAF7B4FF81460025D6F878
:107340000900041D30780146012967D00F2931D08A
:10735000802900F08F80812900F09680822900F03A
:107360009380852900F09080862900F08D808829FF
:1073700000F08A808A2900F08F808B2900F0A88095
:107380008C2900F0B4808D2900F0C080DD2900F048
:10739000CA80DF2900F0E080F02921D0F4292AD02A
:1073A000F62930D0F8294ED0F9293CD0FF2900F039
:1073B000B28066E099F81600207099F8170000284E
:1073C00040F0C8804FF0FF30009003462A4642F25A
:1073D0001071082007F0A2FF012089F81700B9E01A
:1073E0000422DFF8741B2046FDF784FB0120FDF723
:1073F00026F9012046E0042209F110012046FDF79C
:1074000079FB01203EE0032221462846DFF84C3B71
:107410009B681B6E1B6A9847012033E0204609F0E9
:1074200039F801202EE0B6F80120B6F80300C010AC
:10743000C0EB0011D6F8050000EB81112046FDF7E6
:1074400059FB01201EE02846ADF8000001207179AB
:10745000012900D10320FCF7CAFAFCF704FBADF8C0
:107460000000FCF717FB022200A92046FDF742FBB3
:10747000012007E0D6F8050020702146284607F0D5
:10748000F3FE2846BDE8F28329462170214600F02C
:107490007F0007F0E9FEF4E701202070DFF8BC0A66
:1074A00046682F46307F002801D12846EAE7707AE7
:1074B000002803D1306E4068804707462046316E71
:1074C000C9698847002FDCD0306E80688047D8E7D4
:1074D0000120B6F80310C1F3C101091D884040F036
:1074E000020020702146012007F0BEFEC9E799F88E
:1074F0000000207099F80300607099F80500A070F2
:1075000099F80600E07001202071BBE7204608F0E2
:10751000D5FF0546B5E704F10802211D2046FDF719
:107520003DF90120AEE77079DFF8301A51F820609C
:10753000707A00280CD0424639463046FFF7C9F829
:10754000DFF81C1A082009F085F80120207001E0FE
:1075500028462070012095E77079DFF8001A51F86D
:107560002060306996F8221090FBF1F0401E0090E8
:10757000042200A92046FDF7BDFA012082E70000A1
:10758000A4EE002008400020ECBB00207079002011
:10759000F0B593B00646FAF784FE054603F058F9B5
:1075A000D6F809100C1D3178002208924FF0FF32F6
:1075B000099217460A46A12A00F06081A22A00F02B
:1075C0007F81A42A00F08A81B12A00F0FF82B22ACA
:1075D00000F07884B82A00F09C81C12A00F0C481B0
:1075E000CD2A00F0BF80CE2A00F0D480D02A39D036
:1075F000D12A2FD0D22A3AD0D32A41D0D42A59D056
:10760000D62A79D0D72A77D0D82A7DD0D92A7BD04C
:10761000DA2A00F08180DB2A00F01B81DC2A00F0EE
:107620001F81F12A00F08C80F22A00F0CB80F52A2D
:1076300000F0EA80F72A00F0FD80FA2A00F0818449
:10764000FB2A00F07184FD2A00F0E980FE2A00F098
:107650007A84D6E000212846FBF7A0F8FFF72BFE3E
:107660000120CFE00020FCF7EAFF0120CAE0012161
:107670002846FBF793F8012009F03CF80120C1E00F
:107680000020A872E87D002840F05B8442F210746C
:1076900038460090034600222146082007F03EFEAF
:1076A0003B4601222146082007F0A0FE0120E87594
:1076B00000F047BC0120A87200206873E87A002817
:1076C00040F03F84E87D002811D042F210743B4620
:1076D00000222146082007F089FE38460090034624
:1076E00001222146082007F019FE0020E87501203C
:1076F00009F000F800F025BCD62901D1012000E0F6
:107700000020E87201207DE0D92901D1012000E0AC
:1077100000202873012075E0DFF84008056AB5F9FC
:1077200056000128C0F20D840020A5F856003B4603
:1077300002464FF47A71082007F058FE00F001BCB1
:107740000021032980F2FD830A180B5D82F8843042
:10775000022905D10A5D80F887200A5D80F888201B
:10776000491CEEE70026032E80F2EB83DFF8EC07DE
:10777000456805EB4605022204EB460105F1580079
:10778000FDF7B8F9B5F95810DFF8D807FAF70AFE8F
:10779000761CE8E70026032E80F2D383DFF8BC07CF
:1077A000056805EB4605022204EB460105F1580089
:1077B000FDF7A0F9B5F95810DFF8AC07FAF7F2FDBC
:1077C000761CE8E7297C090640F1BB832178090291
:1077D00001F4E06162788918A0F88A10A1780902A2
:1077E00001F4E061E2788918A0F88C1004212046A9
:1077F000DFF86827D269126E92699047002840F03E
:10780000A083002013B0F0BD032221460120DFF841
:107810004C379B681B6E1B6A98470120F2E71B22BE
:1078200021460720DFF834379B681B6E1B6A984798
:107830000120E7E7DFF824078569286E8068804724
:107840000028DED00122214605202B6E1B6A9847B6
:10785000D7E7D6F80510DFF81407FAF7A3FDD0E74D
:10786000FDF75EFC002802D0FDF77BFCC9E7FDF7C1
:10787000DCFC0028C5D0FDF7ABFCC2E794F9005052
:107880000422611C08A8FDF735F9B6F801000628A6
:1078900006DB0422611D09A8FDF72CF994F9097093
:1078A000042D04D1DFF8B4060069A17A8172009733
:1078B000099B00220899284607F030FD2070A0E7B8
:1078C00094F900500422611C08A8FDF713F9002365
:1078D0001A460899284607F089FD93E794F9005065
:1078E0000422611C08A8FDF705F9B6F80100062876
:1078F00006DB0422611D09A8FDF7FCF894F9097064
:107900000097099B00220899284607F0B1FD2070D6
:1079100077E720780146032906D01A2911D02529B6
:1079200013D0282915D018E060788DF80A000128B6
:1079300040F00783A0788DF80B00204600F018FC7B
:10794000FFE2204600F014FCFBE2204600F010FCB1
:10795000F7E2204600F00CFCF3E294F9011040B28B
:1079600008F02AFCC0B24DE7207801460E3908D055
:10797000091F03291CD9091F37D0491E00F09B801D
:107980000EE10E208DF8080060788DF80A00A178CD
:107990008DF80B10E2788DF80C200023ADF80D3037
:1079A00052B249B240B2FAF74AFF00F0D8FBF7E012
:1079B0008DF80800122802D161788DF80A1013287A
:1079C00002D161788DF80B10142802D161788DF8FE
:1079D0000C10152802D160788DF80A0062782178A1
:1079E000DFF88C05FAF7DEFCDAE06078A1780904AC
:1079F00001EB0060E17800EB012021794018CDF81F
:107A00000A006079A179090401EB0060E17900EBDB
:107A10000120217A4018CDF80E00607AA17A09047D
:107A200001EB0060E17A00EB0120217B4018CDF8EA
:107A30001200607B8DF81600A07B8DF81700E07BAC
:107A40008DF81800207C8DF81900607C8DF81A00E4
:107A5000A07CE17C11EB002000B20146ADF81B10C8
:107A6000217D00EB0120617D4018ADF81D00A07D57
:107A70008DF81F00DDF80A00002807D1DDF80E00A0
:107A8000002803D1DDF81200002809D00DF10A0109
:107A900084B068461622FBF725F80FBCFAF778FF8A
:107AA0000DF10A0184B068461622FBF71BF80FBCE3
:107AB00000F082FB74E060788DF809001D283ED14B
:107AC000A0788DF81300A07801280ED1E0782179F4
:107AD00011EB0021ADF80A1089B20A469DF8091091
:107AE0000FF29440FAF75EFC5AE002280BD1E078DE
:107AF000217911EB0021ADF80C1089B20FF288400A
:107B0000FAF750FC4CE003280BD1E078217911EB17
:107B10000021ADF8141089B20FF27840FAF742FC58
:107B20003EE004283CD1E078217911EB0021ADF84A
:107B3000161089B20FF26840FAF734FC30E02628BC
:107B400009D1A0788DF80E00A078012828D1E0781E
:107B50008DF80D0024E01C2822D1A0788DF80D00AE
:107B6000A078012807D1E1788DF80A100FF23C4087
:107B7000FAF718FC14E0022807D1E1788DF80B1011
:107B80000FF23C40FAF70EFC0AE0032808D0052863
:107B900006D1E1788DF80C100FF23840FAF702FCAC
:107BA00006208DF8280020780B900DF1310002A9F5
:107BB0001822FAF797FF0B208DF830000020ADF85F
:107BC0004A000AA800F01EFBC0B21BE620782B2852
:107BD00005DB0FF21440FAF7E5FB002012E640B295
:107BE00007F095FD012840F03F81207801460329E8
:107BF00024D0062961D0092927D00C2941D00D298C
:107C00004DD019297DD01A2964D01B2900F08E800F
:107C10001C2900F0C9801D2900F0A1801E2900F058
:107C2000D080252900F0E980262900F0D880272976
:107C300000F0EA80282900F00E8110E10322611C87
:107C40000DF10A00FCF756FF0EE10722611C0DF151
:107C50000A00FCF74FFFBDF80A00010A41EA0020C4
:107C6000ADF80A00BDF80C00010A41EA0020ADF8A9
:107C70000C00BDF80E00010A41EA0020ADF80E002C
:107C8000F2E00322611C0DF10A00FCF733FFBDF89E
:107C90000B00010A41EA0020ADF80B00E4E00322EA
:107CA000611C0DF10A00FCF725FFBDF80B00010A6D
:107CB00041EA0020ADF80B00D6E00122611C0DF175
:107CC0000A00FCF717FF9DF80A100FF23830FAF798
:107CD00069FBC9E00822611C0DF10A00FCF70AFFEC
:107CE000BDF80D00010A41EA0020ADF80D000023A7
:107CF0009DF911209DF910109DF90F00FAF79FFDD5
:107D0000B2E00622611C0DF10A00FCF7F3FEBDF89B
:107D10000A00010A41EA0020ADF80A00BDF80E0091
:107D2000010A41EA0020ADF80E009DE00422611C2A
:107D30000DF10A00FCF7DEFEBDF80A00010A41EA77
:107D40000020ADF80A00BDF80C00010A41EA00204D
:107D5000ADF80C000FF2B820FAF724FB84E00922FA
:107D6000611C0DF10A00FCF7C5FEBDF80A00010A0E
:107D700041EA0020ADF80A00BDF80C00010A41EA12
:107D80000020ADF80C00BDF80E00010A41EA002009
:107D9000ADF80E0000239DF912209DF911109DF9F8
:107DA0001000FAF74CFD5FE060788DF80A00A078CB
:107DB0008DF80B00A27861780FF26020FAF7F2FAE2
:107DC00052E00322611C0DF10A00FCF793FEBDF89E
:107DD0000B00010A41EA0020ADF80B0044E0052247
:107DE000611C0DF10A00FCF785FEBDF80B00010ACD
:107DF00041EA0020ADF80B0036E00922611C0DF1CC
:107E00000A00FCF777FE2FE00A22611C0DF10A0040
:107E1000FCF770FEBDF90A00C0F3072141EA00201B
:107E2000ADF80A00BDF90C00C0F3072141EA0020BB
:107E3000ADF80C00BDF90E00C0F3072141EA0020A7
:107E4000ADF80E00BDF91000C0F3072141EA002093
:107E5000ADF8100008E060788DF80A0004E08DF8B5
:107E6000080060788DF8090020780146052906D1C0
:107E7000404801210170687A00280DD161E018297D
:107E80000AD18DF8080060788DF80900A0788DF887
:107E90000A00E0788DF80B0000208DF8280020788B
:107EA0000B900DF1310002A91822FAF71BFE0B20EE
:107EB0008DF830000020ADF84A000AA800F0A2F9C1
:107EC000C0B29FE420782B2805DB0FF26010FAF790
:107ED00069FA002096E4052804D1264800210170A3
:107EE00001208FE41A280CD10522611C0DF10A0033
:107EF000FCF700FEBDF80D00010A41EA0020ADF8D4
:107F00000D0001208DF8280020780B900DF1310034
:107F100002A91822FAF7E6FD0B208DF830000AA816
:107F200000F070F9C0B26DE42078002802D0052876
:107F300005D006E00FF21410FDF7FCF801E0FFF7A2
:107F4000BAF901205EE404F10802211D2046FCF785
:107F5000DDFB012056E40000847A00200840002068
:107F60008C900020C4B60208D0B60208DCB6020825
:107F7000E8B60208142901204C54205350202564EF
:107F80002C202564000000004C542057502025640C
:107F9000000000004C5420535220256400000000D3
:107FA0004C54205341522025640000005B41504452
:107FB000525D204E545F5357554E202564000000FB
:107FC0005B415044525D204E545F54575553202519
:107FD000640000005B415044525D204E545F4241BA
:107FE00054434820256400004C6962726172792014
:107FF00072616E6765206973206F7665722C20410F
:108000006464000050443A2053432025640000007B
:108010004C542053532041444400000041504452EA
:108020002041444420256420256400004C6962728C
:108030006172792072616E6765206973206F766561
:10804000722C2052656D6F766500000041505F52C2
:10805000455155455354000069487047F8B50C46E2
:108060001646012500282BD106EB8600644901EB5A
:10807000C007F868E040C00708D52346FA683146D3
:108080000FF2FC20FAF78EF90220F2BD4FF0FF301C
:10809000009003462A467968204607F03FF90028F9
:1080A0000CD02346FA6831460FF2E420FAF77AF949
:1080B000F8682946A1400843F8602CE00220F2BD90
:1080C000012828D106EB86004D4901EBC007F8686E
:1080D000E040C00708D42346FA6831460FF2C020BA
:1080E000FAF760F9032516E04FF0FF332A46796866
:1080F000204607F07BF9002807D02346FA6831466E
:108100000FF2AC20FAF74EF900E00325F8680121E0
:10811000A1408843F8602846F2BD08F059B802B57E
:108120008AB00021ADF8221001910A218DF80810C3
:1081300000218DF809108DF80A1005218DF8001026
:10814000019004220AA90DF10900FCF7D3FC0020DC
:10815000ADF8220000A800F055F80BB000BD80B5C6
:1081600009F060F80FF25820BDE80240FAF71AB99A
:1081700038B5447885780078032810D01A281AD1A9
:10818000012C18D101200AF046FC012322461A21B5
:108190000FF2382001B0BDE83040FAF703B9012CE6
:1081A00009D1284609F049F829460FF23020BDE8E8
:1081B0003440FAF7F7B831BD0FB480B5002805D1C7
:1081C0000846002802D11046002804D00BF0E1F93F
:1081D000C046C04601E00BF0C5F901BC5DF814FBD8
:1081E00000222B2809D200EB8003054800EBC300D6
:1081F000C068C840C00700D5012210467047000083
:10820000ECBB002030B585B00446012594F9000090
:10821000062800F2A180DFE800F00428445F76978A
:108220009B0004F1090182B068461822FAF75AFC53
:108230000CBC94F90810606840B207F002FC0228F8
:108240000AD1606800B207F0E1FD002561680FF215
:108250009810FAF7A7F885E0032840F0838061685A
:108260000FF28C10FAF79EF87CE060681A280AD1A9
:1082700004F1090008F059F8637B227BE17A0FF2E0
:108280007810FAF78FF894F90810606840B207F098
:10829000D8FC032866D161680FF27410FAF782F8EF
:1082A00060E0618C00A807F0CBFD9DF90400022876
:1082B0000AD1009800B207F0A9FD002500990FF23D
:1082C0005810FAF76FF84DE003284BD100990FF2E0
:1082D0005010FAF767F845E00BF078FA02280AD157
:1082E000606800B207F092FD002561680FF2381057
:1082F000FAF758F836E0032834D161680FF23010ED
:10830000FAF750F82EE0606805280CD128460BF0EB
:1083100024FB02280DD0032824D161680FF220101D
:10832000FAF740F81EE002281CD10BF007FC0228E7
:10833000F1D1606800B207F069FD002561680FF2B5
:10834000F800FAF72FF80DE0204607F0DEFD09E00F
:10835000204607F089FF05E061680FF2EC00FAF7AC
:1083600021F80025284605B030BD012070470FB424
:10837000022004B07047012070470020704770470A
:10838000534D4143202564202564202564000000CE
:10839000534D412025642025642025640000000001
:1083A000534D52432025642025642025640000009D
:1083B000534D5220256420256420256400000000D0
:1083C000504420536574535400000000415420521F
:1083D000492D256420256420256400005044205543
:1083E000542D256400000000414C4F4620256400B8
:1083F000414C4346202564004F4A4820454C2030DC
:10840000782578203078257820307825780000008D
:10841000524C434620256400504C4F4620256400B2
:10842000504C43462025640050414F4620256400AF
:10843000504143462025640050504F46202564009B
:1084400050504346202564004558204C4D454C2053
:10845000256400005FF0FF0C1CEAD05114BF614599
:1084600006E0C110400721F0E04101F16051704782
:1084700079B900F0004100020AD0B0FA80FC00FA9D
:108480000CF001F16051A1EB0C5101EBD021400542
:10849000704741020CBF40F4E0016FF00001002082
:1084A000704700004FEAF17CBCF1E04C2CBFBCF5FA
:1084B000001F11E05FEA4C0C34BFBCF17F5F2EE07F
:1084C0005FEA9C0C4FEA0C1C4FEA3C0CC10071F1B6
:1084D00000414CEB50707047C90241EA5051C00254
:1084E00018BF41F0010141F000414FEA6C50C0F16A
:1084F0000900212810D240EACC7CCCF1200C11FAE2
:108500000CF070F10040CCF1200C21FA0CF00CF0D2
:10851000004C40EB0C0070474FEACC7070474900AC
:1085200011F5001F04D84FEACC10FF30C00570478A
:10853000C81770471FB50BF061FB212101601FBDFB
:10854000DFF8AC1100220A700A70012802D004285A
:1085500003D07047012008707047052008707047ED
:1085600064490860704710B463494A6802F00C021D
:10857000082A13D10A680B6803F03F03604CB4FB70
:10858000F3F30A68C2F388125A430B68C3F301433A
:108590005B1C5B00B2FBF3F2026001E0584A026030
:1085A0004A6802F0F003574A1B099B5C046824FAEE
:1085B00003F343604C6804F4E054A40AA45CE34071
:1085C0008360496801F46041490B895C426822FA82
:1085D00001F1C16010BC7047484900F44072B2F527
:1085E000407F06D10A6822F4F812474B03401A4331
:1085F0000A608A6E000552EA105088667047434947
:1086000008607047424908607047424A0029116873
:1086100002D008431060704721EA000010607047E4
:108620003D4A0029116802D008431060704721EAD2
:10863000000010607047394A0029116802D00843D1
:108640001060704721EA000010607047344A00292A
:10865000116802D008431060704721EA00001060E2
:108660007047304A0029116802D0084310607047F3
:1086700021EA0000106070472B4A0029116802D0DF
:1086800008431060704721EA000010607047274AD5
:108690000029117802D008431070704721EA0000C9
:1086A000107070474109114A012901D1116804E095
:1086B000022901D1116F00E0516F00F01F0021FA73
:1086C00000F000F0010070471948016841F0807126
:1086D000016070470021174A1268024200D0012150
:1086E000084670471449087070470000003802407F
:1086F00070380240800E4742043802400838024079
:108700000024F4003C7A0020FFFCFF0F3C0E47429F
:10871000400E474230380240403802404438024060
:108720001038024020380240243802400D38024000
:10873000743802400C3802400E38024080B5274998
:10874000884209D101210846FFF780FF002101205E
:10875000BDE80440FFF77ABF2149884209D10121D1
:108760000220FFF773FF00210220BDE80440FFF75D
:108770006DBF1C49884209D101210420FFF766FF23
:1087800000210420BDE80440FFF760BF164988427D
:1087900009D101210820FFF759FF00210820BDE879
:1087A0000440FFF753BF1149884209D1012110202D
:1087B000FFF74CFF00211020BDE80440FFF746BF43
:1087C0000B49884209D101218020FFF73FFF00219A
:1087D0008020BDE80440FFF739BF01BD0000024022
:1087E0000004024000080240000C02400010024059
:1087F000001C0240F0B4002232E0012393400C68D8
:108800001C409C422BD154000325A540ED43066833
:108810002E40066006680F79A7403E4306600E7939
:10882000012E01D0022E11D186682E408660866806
:108830004F79A7403E438660466826EA03034360BB
:1088400043688E799640B6B233434360C3682B4089
:10885000C360C368CD7905FA04F42343C360521C96
:10886000102ACAD3F0BC70474FF6FF710160002197
:10887000017141718171C171704700220069084224
:1088800000D0012210467047018370474183704732
:1088900010B4CB1000EB830001F007018900036ADC
:1088A0000F248C40A3430362036A02FA01F11943C7
:1088B000016210BC7047000080B5434988420BD16B
:1088C00001214FF40010FFF7CCFE00214FF40010FF
:1088D000BDE80440FFF7C5BE3C4988420BD10121E9
:1088E0004FF48000FFF7BDFE00214FF48000BDE88B
:1088F0000440FFF7B6BE364988420BD101214FF440
:108900000000FFF7AEFE00214FF40000BDE8044078
:10891000FFF7A7BE01BD7FB504460D46A68800A897
:10892000FFF721FE02992B48B1FBF0F04FF6C07221
:1089300032400243A28022884FF6FE731A40228002
:108940002A68254B9A420AD25200B1FBF2F10A463C
:1089500092B2042A00DA0421401C208421E0EB8832
:108960004BF6FF76B34204D102EB4202B1FBF2F1C7
:1089700006E019235A43B1FBF2F141F4804189B278
:108980000A0502D141F0010189B241F4004180B2EF
:108990004FF4967250434FF47A7290FBF2F0401C01
:1089A0002084A183208840F00100208020884FF699
:1089B000F5310840A9880843698908432080A889BF
:1089C0002989084320817FBD0054004000580040A1
:1089D000005C004040420F00A18601000029018890
:1089E00003D041F00101018070474FF6FE72114043
:1089F000018070470029018803D041F48071018013
:108A000070474FF6FF6211400180704700290188CE
:108A100003D041F40071018070474FF6FF521140BE
:108A200001807047002A02D041F0010101E001F00D
:108A3000FE01018270470029018803D041F4806162
:108A4000018070474FF6FF321140018070470029C6
:108A5000018803D041F40041018070474904490C6A
:108A60000180704782B002460020034601930093C4
:108A700000920A0F01920902090A019A002A03D002
:108A8000009A1432009203E0090C009A1832009206
:108A9000009A12680A4200D0012002B0704700001C
:108AA00080B5254988420BD101214FF48050FFF752
:108AB000E3FD00214FF48050BDE80440FFF7DCBD2A
:108AC0001E4988420BD101214FF48040FFF7C9FDB8
:108AD00000214FF48040BDE80440FFF7C2BD1849B3
:108AE00088420BD101214FF40040FFF7BAFD00216D
:108AF0004FF40040BDE80440FFF7B3BD01BD02885C
:108B000002F441520B881A434B881A438B881A434C
:108B1000CB881A430B891A434B891A438B891A4312
:108B2000CB891A430280828B4FF2FF731A408283F3
:108B3000098A01827047000000300140003800407F
:108B4000003C00400029018803D041F04001018031
:108B500070474FF6BF72114001807047002A82882B
:108B600002D011438180704722EA01018180704761
:108B700000220089084200D0012210467047000000
:108B8000016849084900016000210160416081607D
:108B9000C1600161212141616A49884203D16A486B
:108BA0003D21016070476949884204D166484FF40D
:108BB0007461016070476649884204D162484FF48D
:108BC0007411016070476349884204D15E484FF0D8
:108BD0007461016070476049884203D15A485F4917
:108BE000416070475E49884203D157485D49416002
:108BF00070475D49884203D153485C4941607047E2
:108C00005B49884204D150484FF03D514160704764
:108C10005849884203D158483D210160704757495F
:108C2000884204D154484FF474610160704754493C
:108C3000884204D150484FF4741101607047514983
:108C4000884204D14C484FF07461016070474E492E
:108C5000884203D148484149416070474B498842A6
:108C600003D145483F49416070474949884203D193
:108C700041483E49416070474649884203D13E48D9
:108C80004FF03D51416070470268434B1A400B68FA
:108C90001A43CB681A434B691A438B691A43CB6951
:108CA0001A430B6A1A434B6A1A438B6A1A434B6B7B
:108CB0001A438B6B1A4302604269D208CB6A53EAAB
:108CC000C2020B6B1A4342610A6942604A688260C1
:108CD0008968C16070470029016803D041F0010133
:108CE000016070474908490001607047002A01D0BF
:108CF00001617047C1607047006800F00100704773
:108D000000221C4B984201D2244800E024488B00EA
:108D100001D5406800E0006808402249084200D0C0
:108D2000012210467047134A904201D21B4800E0CE
:108D30001B481C4A0A40890001D5C2607047826006
:108D40007047000010600240086002402860024046
:108D50004060024058600240706002403D000020C8
:108D600088600240400F0020A060024000003D20CB
:108D7000B860024010640240086402402864024067
:108D800040640240586402407064024088640240BB
:108D9000A0640240B86402403F801CF000600240C2
:108DA000006402407D0F7D0F024908607047024950
:108DB0000860704720000E4224000E4270B5044641
:108DC0000026DFF83854CA20E8615320E86100F03B
:108DD00018F8002811D0286820F040002860286882
:108DE000216808432860A068A860A868616840EA14
:108DF0000140A86000F024F80126FF20E861304619
:108E000070BD81B000200090DFF8F40301684906CE
:108E100013D44FF0FF310160016801F04001009A66
:108E2000521C0092009AB2F5803F01D00029F3D085
:108E30000068800900F0010000E0012001B07047E7
:108E4000DFF8BC03016821F080010160704781B048
:108E500000200090DFF8A813CA20886153208861A1
:108E6000086820F0A0000860086800F02000009A60
:108E7000521C0092009AB2F5003F01D00028F3D0B6
:108E80000868400900F00100FF228A6101B07047C4
:108E9000F8B507460E460024DFF85C53002FA8689B
:108EA00004D140060AD42046F07007E0400603D5FE
:108EB000307800F0BEF901E02046F0703078002FE5
:108EC00009D07178090241EA0040B1780843F1788D
:108ED00040EA01460FE000F0A1F90746707800F083
:108EE0009DF9000240EA0747B07800F097F938434F
:108EF000F17840EA0146CA20686253206862FFF7B1
:108F000080FF00280FD0DFF8FC0230402860FFF718
:108F100097FFA868800605D4FFF799FF002802D0C4
:108F2000012400E00124FF2068622046F2BD10B554
:108F30000C46DFF8C4120968DFF8C82211400A0C99
:108F400002F03F0323700B0A03F07F03637001F00C
:108F50007F01A17002F04001E17000280BD1207860
:108F600000F067F92070607800F063F96070A07815
:108F700000F05FF9A07010BDDFF88C12486A096834
:108F8000704770B506460D460024002E06D168785D
:108F9000C10603D500F0EF000A306870002E05D03E
:108FA000687800F046F9A87800F043F9E878002ED8
:108FB00009D06978090241EA0040A9780843297874
:108FC00040EA41360FE000F029F90646687800F0E3
:108FD00025F9000240EA0646A87800F01FF9304360
:108FE000297840EA4136DFF82052CA20286253200F
:108FF0002862FFF706FF00280FD0DFF8100230408C
:109000002860FFF71DFF6868800605D4FFF71FFF83
:10901000002802D0012400E00124FF20286220461D
:1090200070BD10B50C46DFF8E0110968DFF8DC21EF
:1090300011400A0CE2700A0A02F01F02627001F08D
:109040003F02A270490B01F00701217000280BD1EB
:10905000E07800F0EEF8E070607800F0EAF8607018
:10906000A07800F0E6F8A07010BDDFF89011CA22D9
:10907000CA615322CA610A68D208D2000A600A682B
:1090800010430860FF20C8617047DFF88411CA22CE
:109090000A6153220A610860FF200861704781B0AD
:1090A00000210091DFF85411CA22CA615322CA611B
:1090B0000028086804D040F480600860012012E0B5
:1090C00020F480600860486800F00400009A521C98
:1090D0000092009AB2F5803F01D00028F3D0486892
:1090E000800800F00100FF22CA6101B0704781B022
:1090F00000220092474A0092009A02EB8000009002
:109100000098016001B0704781B000210091414991
:109110000091009901EB800000900098006801B078
:10912000704738B500242246344DCA23EB615323DF
:10913000EB616B681B0701D406E0521C6B681B07D0
:1091400002D5B2F5805FF8D16A68120709D42A689F
:10915000D20606D408436862FFF779FE002800D0E3
:109160000124FF20E861204632BD244ACA23D3618E
:109170005323D36100F0040320F004000029116898
:1091800005D008431060906B1843906305E021EA16
:1091900000001060906B98439063FF20D06170478F
:1091A0000021174A12681C4B1A40024200D00121CC
:1091B0000846704710B40021104A936B03F0040373
:1091C0001468044003EAD0332343526802EA1010C3
:1091D00002D0000400D00121084610BC70470849A5
:1091E0000003000C40F080000A6802F0800262EA8E
:1091F0000000086070470000002800400828004078
:109200000C2800407F7F7F00042800403FFFFF00C4
:1092100014280040502800407F3F0100002101E059
:10922000491C0A38C0B20A28FADA40EA0110C0B272
:109230007047010901EB810200F00F0000EB4200D2
:10924000C0B2704730B40168CB4321498279002A0B
:1092500027D00A4614682340136053680468A34368
:1092600053600379CC18236805682B432360936807
:109270000468A3439360D3680468A343D36043792D
:109280000568102B07D1916829439160D168006867
:109290000843D0600AE051FA83F420682843206034
:1092A00004E000790C1820681840206030BC70473A
:1092B0000021074A136803405269024202D0002B82
:1092C00000D001210846704702490860704700003D
:1092D000003C0140143C0140194908431949086009
:1092E000704770B403781A460121C478002C1DD051
:1092F000144B1B6803F4E063C3F5E0631B0A447876
:10930000C3F10405AC4085780F2646FA03F32B40E1
:1093100023431B010C4C1355007842110B4B00F0FA
:109320001F0001FA00F043F8220006E05011084A3D
:1093300003F01F03994042F8201070BC70470000F2
:109340000000FA050CED00E000E400E000E100E0C0
:1093500080E100E030B401F00302920021F003014B
:10936000054BCC580F259540AC43CC50CC58904081
:109370002043C85030BC70470838014080B50121F7
:109380004FF48070FFF778F900214FF48070BDE84A
:109390000440FFF771B942684C4B1A400B7942EA1E
:1093A00003220B681A4342608268494B1A400B69DA
:1093B0001A43CB681A438B681A434B7942EA43023B
:1093C0008260C26A22F47002097D491EC9B242EA73
:1093D0000151C162704700210160017141718160DA
:1093E000C16001610121017570473A490A683A4B31
:1093F0001A4003681A4343681A4383681A43C068D3
:109400001043086070470021016041608160C160C5
:1094100070470029816803D041F0010181607047E5
:10942000490849008160704770B407240A290BDBA2
:10943000C568A1F10A0606EB4606B44025EA040415
:10944000B3402343C36008E0056901EB4106B44023
:1094500025EA0404B3402343036113461F24072B6A
:1094600009DA436B521E02EB82029440A3439140FF
:109470001943416314E00D2B09DA036BD21F02EB91
:1094800082029440A34391401943016308E0C36AF8
:109490000D3A02EB82029440A34391401943C1620A
:1094A00070BC7047816841F080418160704700293D
:1094B000816803D041F480618160704721F480614C
:1094C00081607047C06C80B270470000FFFEFFFCF7
:1094D000FDF7FFC004230140E030FCFF00220068DC
:1094E000084200D0012210467047000013F0004CE3
:1094F00003D55B42524263F100039CEA210C00F069
:10950000178010B5644603D34942404261F100011F
:1095100000F00EF8640004D34942404261F10001BA
:10952000244203D55B42524263F1000310BD0000A8
:109530001B4213D1094236D12AB18446B0FBF2F066
:1095400002FB10C270470AF05FBBFCD3002200236D
:1095500070470B000200002100207047904271EB21
:10956000030CF6D370B5B1FA81F4B3FA83F52C1B72
:10957000A340C4F1200532FA05F63343A2405FF060
:109580000046E64002E05B085FEA3202841A71EBB3
:10959000030524BF204629467641F4D302000B0080
:1095A0003000002170BD012ACFD970B5140C20D035
:1095B000B1FA81F4B2FA82F5C4F120046419B4F16D
:1095C0002006D6D3B2405FF00044F440002502E00C
:1095D00052085FEA3303C61A71EB020E24BF30460D
:1095E000714664416D41F3D302000B002000290055
:1095F00070BD0C46B1FBF2F102FB11452D0445EAAA
:109600001045B5FBF2F402FB145580B240EA054563
:10961000B5FBF2F002FB105240EA044070BD0000BE
:1096200000B500BF130096469446103928BFA0E845
:109630000C50FAD85FEA417C28BF0CC048BF40F804
:10964000042BC90728BF20F8022B48BF00F8012BC4
:1096500000BD00002DE9F04FA1B0824602AE00200F
:1096600017461D46029170620DF144080AE017F892
:10967000011B0298D0470290002800F0DA82706A3D
:10968000401C7062387808B9706AD4E22528EED19F
:109690000020F06030617061B061F061306201E023
:1096A00040F0010017F8011F2029F9D023290DD01F
:1096B0002B2904D02D2906D030290AD00CE040F007
:1096C000020080B2EEE740F00400FAE740F0080044
:1096D000F7E740F01000F4E72A290DD129680A1DA8
:1096E0002A600968F162002904D5494240F004006B
:1096F000F16280B27F1C13E00021F1620BE0F16A9D
:109700006FF00043994205D001EB810302EB430166
:109710003039F1627F1C3A78A2F130010A29EED388
:1097200039782E2903D04FF0FF31B1621EE017F8CF
:10973000011F2A2906D129680A1D2A607F1C096891
:10974000B16213E00021B1620BE0B16A6FF0004337
:10975000994205D001EB810302EB43013039B1623C
:109760007F1C3A78A2F130010A29EED330860FF639
:10977000604039780AF04AFA08B117F8010B8DF801
:109780003A009DF83A00682802BF397868296220BB
:1097900005D06C2804BF38786C2803D171208DF86F
:1097A0003A007F1C11A8B0603978B1F1250029D0AA
:1097B0001C3800F0C080001F022840F2BC80133823
:1097C00000F0E480093800F0B680801E00F0778158
:1097D000401E00F02081401E022840F2AC80001F95
:1097E00000F01981401F7BD0401E00F0CF80401E4A
:1097F00022D0C01E0BD0801E00F0C880C01E00F01A
:10980000C58064E1F068411CF160252169E12868A8
:10981000011D29600068B26A7060002A02D5FBF75A
:10982000C9F807E000210AF0FDF900281ABF7168A5
:10983000401AB06A306156E12868011D2960002194
:109840000068CDE900014FF03C0E11A87060DDE921
:10985000000111B908B9B26ACAB10206120FA0EB31
:1098600002123032AEF10103D2B29E463A2AA8BFAC
:109870002732000903F8082040EA0170090908BFEF
:10988000002804D0726811AB73449A42E5D311A941
:1098900071447160CEF13C00B16A3061884207DAF0
:1098A000081AB0614FF6EF71308E084030861AE129
:1098B000002940F1188196F8301001F014011029A8
:1098C00040F01181F16AF268891AB269891AA1EB34
:1098D000000EBEF1010FC0F20681C6F818E002E1E9
:1098E0009DF83A00622818D0682806D06A280BD064
:1098F0006C2819D0712807D016E02868011D29604E
:109900000068716A0180EEE02A68101D2860126804
:10991000706AC117C2E90001E5E02868011D2960ED
:109920000068716A0170DEE02868011D2960006826
:10993000716A0160D7E02868C01D20F00700286028
:1099400000F108022A60D0E90023CDE90023002BB2
:1099500004D5F068421CF2602D220DE0308E8207A3
:1099600004D5F068421CF2602B2205E0C00705D543
:10997000F068421CF260202200F80820F06811AA6A
:109980008018706000A800F0E3F9ACE09DF83A00A0
:109990006C2808BF2A6811D0712808BF2A6802D035
:1099A0002A686A280AD1D21D22F007022A601446CA
:1099B00004F108022A60D4E9002303E0131D2B60A0
:1099C00000231268CDE90023682808BF92B207D0AF
:1099D000622808BFD2B203D0742818BF7A2802D1F7
:1099E0000023CDE9002396F8300000075FD5DDE9BC
:1099F0000023002B08BF002A59D041F0200078280E
:109A000055D1F068302200F80820401C421CF2605A
:109A100000F808104BE09DF83A0062280CD0682846
:109A200010D06A281AD06C2823D0712816D0742838
:109A30001FD07A280CD01CE02868021D2A6090F9FB
:109A400000201AE02868021D2A60B0F9002014E006
:109A50002868021D2A60002302680FE02868C01DE4
:109A600020F00700286000F108022A60D0E90023F6
:109A700004E02868021D2A600268D317CDE900239C
:109A8000002B04DAF068421CF2602D220DE0308ECB
:109A9000820704D5F068421CF2602B2205E0C00763
:109AA00005D5F068421CF260202200F80820F0681A
:109AB00011AA8018706000A800F0C0F813E0F068E8
:109AC000411CF16029680A1D2A60096809E0F068F4
:109AD000421CF260252200F8082021B1F068421CE7
:109AE000F26000F80810F06AF168401AB169401A93
:109AF0003169401AF169401A7169401A316AA0EB64
:109B0000010996F830007F1C400710D420208DF802
:109B10004000002409E0012310AA00A9504600F0EB
:109B200040FC002840F08580641C4C45F3DBF46861
:109B30000DF1440B0AE01BF8011B0298D04702907C
:109B4000002876D0706A401C7062641E002CF2D12E
:109B500030208DF840004FF0000BB46909E001237C
:109B600010AA00A9504600F01CFC002861D10BF19E
:109B7000010BA345F3DB3469D6F804B00AE01BF807
:109B8000011B0298D0470290002852D0706A401CF6
:109B90007062641E002CF2D130208DF840004FF02E
:109BA000000BF46909E0012310AA00A9504600F057
:109BB000F8FB00283DD10BF1010BA345F3DB306925
:109BC0007168746900EB010B09E01BF8011B029836
:109BD000D047029068B3706A401C7062641E002C0B
:109BE000F3D130208DF840004FF0000B346A08E0CC
:109BF000012310AA00A9504600F0D3FBC8B90BF10D
:109C0000010BA345F4DB96F8300040077FF53AAD31
:109C100020208DF84000002400E0641C4C45BFF675
:109C200031AD012310AA00A9504600F0BAFB00286C
:109C3000F3D04FF0FF3021B0BDE8F08F2DE9FA47A7
:109C4000064682B035690A466F2A08BF082705D044
:109C500041F02000782814BF0A271027D6E9000118
:109C60003C2480468946642A18BF692A05D1002908
:109C700003DAD8F1000869EB4909B9F1000F08BF10
:109C8000B8F1000F0CD1306B50B9082F3BD196F8CA
:109C90003800000737D530203B2485F83B0032E000
:109CA000CDE90089FB17404649463A46FFF740FC9C
:109CB000B846A8FB0023DDE90089A8EB0202303298
:109CC000A4F1010AD2B254463A2A03DB9DF80830C7
:109CD000513B9A180AF8052080465FEA010908BF3F
:109CE000B8F1000F03D0F06861198842D8D3082F6B
:109CF00009D196F83800000705D5605D302802D0FC
:109D0000641E30206055C4F13C00B0616119F160FF
:109D1000316B884207DA081A30624FF6EF71308FE4
:109D20000840308710E000290ED596F8381001F071
:109D30001401102908D1716B7269891A326A891A63
:109D4000081A0128A8BF306204B0BDE8F0870000FF
:109D50002DE9F24F04468EB0D4E90001CDE90201AD
:109D600004AE9DF8380040F02000009061280AD031
:109D7000206B002848BF062004D404BF0098672841
:109D800001D1012020636168C1F30A5040F2FF72E3
:109D900090421CD1080304BF2068002809D1032089
:109DA000A0619DF8380061381A2836D30FF234616B
:109DB00008E00320A0619DF8380061381A2829D3F3
:109DC0000FF21861E0680322F8F78CFEB5E1012874
:109DD00016DA204609F052FF012811DB0027002087
:109DE0000099612920D1E168302201F8012B4A1C39
:109DF000E2609DF83820612A0CBF782258220FE0DB
:109E0000626840F2FE3161F31E52471A62604FF001
:109E1000FF30E5E70FF2C051D4E70FF2C451D1E7AC
:109E20000A706169891C616110B9002500277BE116
:109E30000098612840F09680206B00284CBF2125B7
:109E4000451CDDE902012DB26E1CD4E90089002217
:109E50000023F9F741F83ABF89F00040CDE90280CC
:109E6000CDE902893F1F8DF810200DF1110801E0A6
:109E700000F20708012E32DBDDE902010022002397
:109E800009F01EFF2BD21C2102A809F031FFDDE9E9
:109E90000201F9F76DFAF61F8146012E09DBF9F789
:109EA00037F802460B46DDE90201F8F777FECDE907
:109EB000020108F20700072105E009F00F0200F88F
:109EC000012D4FEA2919B9F1010F01DB491EF4D523
:109ED000491E5CBF002200F8012DF9D5C8E70DF13D
:109EE0001100A8EB00010DF11106A942B8BF0D4603
:109EF0002DB228002FD4884206DA04A941184978E7
:109F00000829A8BF0F2100DA002104AA821800E066
:109F10006D1E12F80139401E8B42F9D00F2904D171
:109F200004A941184A78521C4A70002802D504AE90
:109F30006D1C3F1D2DB2681E0DD481190A78303278
:109F4000D2B23A2A03DB9DF838303A3B9A1801F82E
:109F50000129401EF2D5206B002840F1E580681EE3
:109F60002063E1E0DDE9020100220023F8F7B4FFFD
:109F70003CBF81F00041CDE902013FB247F297506A
:109F800078434849DFF820B190FBF1F73FB2C7F1C1
:109F900007069246012E19DBDDE90289F00707D595
:109FA00052465B4640464946F8F7B8FE8046894629
:109FB00076105046594652465B46F8F7AFFE824649
:109FC0008B46002EEAD1CDE9028921E07642904607
:109FD000DFF8D89012E0F00707D552465B464046BE
:109FE0004946F8F79BFE804689467610504659460A
:109FF00052465B46F8F792FE82468B46002EEAD127
:10A00000DDE9020142464B46F9F70EF8CDE90201BF
:10A01000009866280CBF07F10A000620216B45183E
:10A02000142DA8BF132530208DF810000DF1110656
:10A03000DFF87C90012D3DDBDDE90201F9F7AEF997
:10A0400006F1080104220A23B0FBF3F303EB8306B5
:10A05000A0EB4600303001F8010D0A20B3FBF0F010
:10A0600000EB8006A3EB4603303301F8013D521E9E
:10A07000E9D1083D01F10806012DDBDBDDE9020134
:10A08000F9F78CF9F8F74EFF02460B46DDE90201BD
:10A09000F8F784FD00224B46F8F740FECDE90201B7
:10A0A000CAE700BFA0860100000024400000F03F86
:10A0B00084D797410DF11100301A0DF1110602E01D
:10A0C000401E7F1E761C31783029F9D00099662910
:10A0D00002D13FB2791C03E065290CBF01210021A8
:10A0E000226B8D182DB2A842B8BF05462DB22900AB
:10A0F0001AD4814204DA885D3528A8BF392000DAF5
:10A1000030208A19521E00E06D1E12F80139491ED6
:10A110008342F9D0392802D1885D401C8855002936
:10A1200002D5761E6D1C7F1C3FB29DF8381000973B
:10A130002BB23246204600F003F80FB0BDE8F08F96
:10A140002DE9F043054685B01E46D5F83080894696
:10A150001746012E02DA01260FF28C2749F0200063
:10A16000BDF93040662808BF641C17D0672840F04E
:10A17000818014F1040FC0F28380444580F2808016
:10A1800095F83800641C000702D44645B8BFB046B5
:10A1900024B2B8EB040848BF4FF00008E868A9698A
:10A1A00024B2012C25DA30234A1C0B54B8F1010FDC
:10A1B00003DA95F83810090702D52E211154521CE4
:10A1C000AA6118EB040FB8BFC8F1000424B26142C1
:10A1D000A0446962B045B8BF464636B2EE61324629
:10A1E000AB6939461818F8F77DFCA8EB0600A862A1
:10A1F000C0E00818A64218DA32463946F8F772FC71
:10A20000A9697118A961A01B6862B8F1010F03DA8E
:10A2100095F83800000705D5E8682E220A54E86949
:10A22000401CE861C5F82880A4E022463946F8F7CA
:10A2300059FCA8692018361BB8F1010F03DA95F80C
:10A240003810090703D5E9682E224254401C36B263
:10A25000A861B045B8BF4646EB6836B23246E11950
:10A26000C018F8F73FFCA8693018A861A8EB0600F1
:10A2700068627FE0B9F1610F16D14FF0700918E004
:10A28000464504DA95F83810090758BFB046B8F1CA
:10A29000010848BF4FF00008B9F1670F14BF4FF035
:10A2A00045094FF0650904E0B9F1410F08BF4FF0CF
:10A2B0005009A969E86817F8013B0B544A1CB8F12A
:10A2C000010F05DA95F83810090758BFAA6117D5AC
:10A2D0002E211154531CAB61B8F1010F10DB761E17
:10A2E00036B2B045B8BF464636B23246394618187F
:10A2F000F8F7F8FBA8693018A861A8EB06006862B7
:10A30000A869E9684718200007F8019B03D42B20AF
:10A3100007F8010B03E02D2107F8011B644200261A
:10A320000DF1080808E00A2200A809F06BFD019869
:10A3300008F8010B761C009C21B20129F3DA022EE9
:10A3400006DA49F02000652804BF302007F8010B29
:10A350004EB9302007F8010B07E0761E02A8305CEA
:10A36000303007F8010B012EF7DAA869E9684018C8
:10A37000381AE86195F8380000F0140010280DD163
:10A380006869A9690818696A0818E9690818A96A52
:10A390000818696B8842BCBF081A286205B0BDE87E
:10A3A000F083F8B504460D4616461F46002004E02B
:10A3B000E86A401CE8627F1E002047B116F8011BC6
:10A3C000A868A047A8600028F2D14FF0FF30F2BD86
:10A3D000686A6C747A4C00006E616E004E414E00EB
:10A3E000696E6600494E4600300000000CB41CB592
:10A3F000044604A801900A46009401AB00A907484E
:10A4000078441830FFF726F9009900220A700028D6
:10A410005CBF0098001B16BC5DF80CFBEB8AFFFFCD
:10A4200001B58B0718D1121F21D351F8043BA3F1BA
:10A43000013C2CEA030C1CF0803C04BF40F8043BB8
:10A44000F1E79CFA8CFCBCFA8CF1C1F118018B404D
:10A45000CB4040F8043B13E0042A09D311F8013B38
:10A46000521E00F8013B5BB18B07F7D1DBE7121DF1
:10A470005AB111F8013B521E00F8013B03B1F8D16B
:10A4800011001CBF0022F8F7A3FF01BD002801D175
:10A490000A48806890F84C10642901D0002000E040
:10A4A000806A7047002801D10448806890F84C10F9
:10A4B000642901D0002000E0406A704770790020D4
:10A4C0000248704702480149401A704700000020C6
:10A4D000002000204C48C168002903D54B49016089
:10A4E0004B49016070474B48016841F000410160F1
:10A4F000704770B50446002600290BD0012902D10F
:10A500004FF4807606E0022902D14FF4007601E094
:10A510004FF4407600F082F809281ED13D4D28689E
:10A5200020F440702860286830432860286820F0B4
:10A53000F8002860286844F0020108432860286871
:10A5400040F48030286000F069F8296821F00201A9
:10A550002960296821F0F801296070BD70B50446B2
:10A560000D4600F05BF8092813D12A4E306820F41C
:10A5700040703060306840F400703060306840F007
:10A5800001003060256000F049F831684908490051
:10A59000316070BD70B505460E4600F03FF80928E1
:10A5A00011D11C4C206820F440702060206820608D
:10A5B000206840F0010020602E7000F02FF8216824
:10A5C00049084900216070BD13490860704709209F
:10A5D00011490A68D20301D5012070470A68D206E2
:10A5E00001D5062070470A68D20501D502207047C0
:10A5F0000A6812F0EF0F01D0072070470968890739
:10A6000000D5082070470000043C02402301674544
:10A61000AB89EFCD103C02400C3C024080B50920D4
:10A620008DF80000FFF7D3FF8DF8000003E0FFF77F
:10A63000CEFF8DF800009DF800000128F7D09DF8AE
:10A64000000002BD0901002806D500F00F004C4AA9
:10A65000801800F8041C70474A4A8154704710B5AE
:10A66000401EB0F1807F01D3012010BD464C6060D8
:10A670000F214FF0FF30FFF7E5FF0020A06007201B
:10A680002060002010BD38B5404D2878401C28704F
:10A690003F4C2078401C2070FBF753F809F0BAFBC0
:10A6A0002878411E2970002802D19820FAF79EF9D7
:10A6B0002078012804D16068002801D0FAF7F9F960
:10A6C0002078401E207031BD10B5314C6078F021EB
:10A6D000084202D09920FAF789F9FAF7F4F960787C
:10A6E000401C607009F0F0FB2A4800684FF47A7152
:10A6F000B0FBF1F0FFF7B3FF002800D0FEE72648DB
:10A70000264901600E214FF0FF30FFF79BFF607874
:10A71000F021084202D09920FAF768F96078401ECB
:10A720006070C0B2002803D1BDE81040FAF7C5B987
:10A7300010BD000010B51A4C4FF400512046418363
:10A74000C04630BF4FF400512046FEF79DF8F3E7B6
:10A7500010B40F48006A0F4909684FF47A72B1FBD0
:10A76000F2F1104A1368CB1A0F4C2468640102D529
:10A7700012688B1A401C00FB013010BC70470000AF
:10A7800018ED00E000E400E010E000E01A290120EC
:10A7900070790020287A002008ED00E00000000811
:10A7A0000010024018E000E004ED00E0EFF3058047
:10A7B000002849F0E983704780B5EFF3108072B646
:10A7C0000B49096851F47F01094A116080F3108830
:10A7D0000848006810F4700F02D1A720FAF706F9B4
:10A7E00005485FF00071016004480021016001BD6F
:10A7F00020ED00E088ED00E03CEF00E034EF00E009
:10A8000010B5040010480078002805D10F4809F061
:10A81000FAFB0D48012101700C4809F02AFC2000C8
:10A820000AF0FAFA0400094809F057FC200010BDAC
:10A8300010B50400054809F01CFC20000AF046FC95
:10A84000024809F04AFC10BD1D2901204C260120B8
:10A8500000487047D0110120BFF34F8FDFF8B40CD0
:10A86000006810F4E060DFF8B01C0843DFF8A41CB7
:10A870000860BFF34F8FFEE700B583B00020ADF84E
:10A88000040000208DF8060000208DF8070001204C
:10A8900000900DF106037622D0210020F7F752FE3A
:10A8A000002801D1002044E076208DF804009DF8B6
:10A8B000060050F020008DF80500022301AAD021E7
:10A8C0000020F7F7E5FD002801D1002031E001204C
:10A8D00000900DF107034922D0210020F7F732FE46
:10A8E000002801D1002024E049208DF804009DF8C3
:10A8F000070050F001008DF80500022301AAD021C5
:10A900000020F7F7C5FD002801D1002011E07620D6
:10A910008DF804009DF806008DF80500022301AAB9
:10A92000D0210020F7F7B4FD002801D1002000E07D
:10A9300001200EBD38B50400F7F7B3FC0500DFF8C1
:10A94000080D0078401CDFF8001D0870DFF8F80CD7
:10A950004078F021084202D09920FAF747F8FAF738
:10A96000B2F8DFF8E40C4078401CDFF8DC1C4870DB
:10A97000210089B22800F7F7D3FEDFF8CC0C40782D
:10A98000F021084202D09920FAF730F8DFF8B80C2D
:10A990004078401EDFF8B01C4870C0B2002801D1DA
:10A9A000FAF78BF8FAF7E9FE31BD10B582B0002056
:10A9B000ADF80000F7F775FC04006B208DF800007F
:10A9C00080208DF80100022300AAD0210020F7F793
:10A9D0005FFD002801D1002094E064212000F7F7FA
:10A9E0009FFEFFF749FF002801D100208AE06B207D
:10A9F0008DF8000000208DF80100022300AAD0216C
:10AA00000020F7F745FD002801D100207AE0282139
:10AA10002000F7F785FE19208DF8000004208DF83E
:10AA20000100022300AAD0210020F7F731FD002801
:10AA300001D1002066E01A208DF8000003208DF877
:10AA40000100022300AAD0210020F7F721FD0028F1
:10AA500001D1002056E01B208DF8000008208DF861
:10AA60000100022300AAD0210020F7F711FD0028E1
:10AA700001D1002046E01D208DF8000003208DF854
:10AA80000100022300AAD0210020F7F701FD0028D1
:10AA900001D1002036E06A208DF8000000208DF8FA
:10AAA0000100022300AAD0210020F7F7F1FC0028C2
:10AAB00001D1002026E06C208DF800003F208DF8A9
:10AAC00001009DF80110DFF8540DF7F76BFC02232D
:10AAD00000AAD0210020F7F7DBFC002801D10020DC
:10AAE00010E06B208DF8000040208DF8010002235B
:10AAF00000AAD0210020F7F7CBFC002801D10020CC
:10AB000000E0012016BD0178407850EA012000B233
:10AB1000704780B502200090DFF8043D6B22D02101
:10AB20000020F7F70FFD002801D100205BE0012095
:10AB30000090DFF8F03C1A22D0210020F7F702FD48
:10AB4000002801D100204EE001200090DFF8D83C21
:10AB50001B22D0210020F7F7F5FC002801D10020AE
:10AB600041E001200090DFF8C43C1C22D0210020ED
:10AB7000F7F7E8FC002801D1002034E00120009024
:10AB8000DFF8AC3C1D22D0210020F7F7DBFC0028C9
:10AB900001D1002027E001200090DFF8983C6A22D4
:10ABA000D0210020F7F7CEFC002801D100201AE0C8
:10ABB00001200090DFF8803C3822D0210020F7F7F8
:10ABC000C1FC002801D100200DE001200090DFF839
:10ABD0006C3C1922D0210020F7F7B4FC002801D1E9
:10ABE000002000E0012002BD80B50020ADF800008B
:10ABF0001A208DF80000DFF8280C00798DF801008C
:10AC0000022300AAD0210020F7F742FC002801D13E
:10AC1000002090E01B208DF80000DFF8040C407944
:10AC20008DF80100022300AAD0210020F7F730FCA4
:10AC3000002801D100207EE01C208DF80000DFF804
:10AC4000E00B80798DF80100022300AAD0210020BA
:10AC5000F7F71EFC002801D100206CE01D208DF8C4
:10AC60000000DFF8BC0BC0798DF80100022300AAB8
:10AC7000D0210020F7F70CFC002801D100205AE079
:10AC80006A208DF80000DFF8980BC0788DF801007D
:10AC9000022300AAD0210020F7F7FAFB002801D1F7
:10ACA000002048E019208DF80000DFF8740B807850
:10ACB0008DF80100022300AAD0210020F7F7E8FB5D
:10ACC000002801D1002036E038208DF80000DFF8A0
:10ACD000500B007A8DF80100022300AAD021002039
:10ACE000F7F7D6FB002801D1002024E06B208DF877
:10ACF0000000DFF82C0B00788DF80100022300AA79
:10AD0000D0210020F7F7C4FB002801D1002012E079
:10AD10006C208DF80000DFF8080B40788DF80100FA
:10AD2000022300AAD0210020F7F7B2FB002801D1AE
:10AD3000002000E0012002BD10B582B00020ADF877
:10AD40000000DFF8DC0A0078400612D56B208DF891
:10AD5000000000208DF80100022300AAD02100206D
:10AD6000F7F796FB002801D10020C9E03220FFF759
:10AD7000E1FD6C208DF80000DFF8A40A407810F0A7
:10AD8000F8008DF80100022300AAD0210020F7F777
:10AD90007FFB002801D10020B2E06A208DF800007E
:10ADA00000208DF80100022300AAD0210020F7F72F
:10ADB0006FFB002801D10020A2E0002400E0641C09
:10ADC000062C10DA14F113008DF8000000208DF825
:10ADD0000100022300AAD0210020F7F759FB002828
:10ADE000EDD100208CE019208DF8000000208DF8B6
:10ADF0000100022300AAD0210020F7F749FB002818
:10AE000001D100207CE01A208DF8000003208DF88D
:10AE100001004FF4FA642000FA281DD0B0F5FA7F43
:10AE200013D0B0F57A7F09D0B0F5FA6F19D19DF83B
:10AE3000010050F018008DF8010016E09DF80100A7
:10AE400050F010008DF801000FE09DF8010050F067
:10AE500008008DF8010008E09DF801008DF8010060
:10AE600003E09DF801008DF80100022300AAD02123
:10AE70000020F7F70DFB002801D1002040E0FA2C5C
:10AE800014D0B4F5FA7F0DD0B4F57A7F06D0B4F5BE
:10AE9000FA6F0FD103208DF801000EE002208DF82B
:10AEA00001000AE001208DF8010006E000208DF885
:10AEB000010002E000208DF801001B208DF8000049
:10AEC0009DF80100C0008DF80100022300AAD021E6
:10AED0000020F7F7DDFA002801D1002010E038202B
:10AEE0008DF8000000208DF80100022300AAD02177
:10AEF0000020F7F7CDFA002801D1002000E0012062
:10AF000016BD00B583B00020ADF8060000208DF816
:10AF100004006B208DF8060001208DF80700022345
:10AF20000DF10602D0210120F7F7B2FA002801D175
:10AF3000002023E02820FFF7FDFC0120009001AB5A
:10AF40006C22D0210120F7F7FDFA002801D1002062
:10AF500014E06C208DF806009DF8040010F0C0008D
:10AF60008DF8070002230DF10602D0210120F7F72A
:10AF70008FFA002801D1002000E001200EBD2DE94C
:10AF8000F04F85B004000D0016001F000020ADF842
:10AF9000040002A80021002206C0083806208DF80F
:10AFA000060038208DF8040000208DF805000223EB
:10AFB00001AAD0210120F7F76BFA002802D15FF037
:10AFC000FF3070E123208DF8040000208DF805008B
:10AFD000022301AAD0210120F7F75AFA002802D152
:10AFE0005FF0FF305FE16A208DF8040000208DF8EB
:10AFF0000500022301AAD0210120F7F749FA002811
:10B0000002D15FF0FF304EE16A208DF80400042089
:10B010008DF80500022301AAD0210120F7F738FAA4
:10B02000002802D15FF0FF303DE11A208DF80400C6
:10B0300001208DF80500022301AAD0210120F7F795
:10B0400027FA002802D15FF0FF302CE119208DF89B
:10B05000040000208DF80500022301AAD021012060
:10B06000F7F716FA002802D15FF0FF301BE11B2032
:10B070008DF804008DF80540022301AAD02101209B
:10B08000F7F706FA002802D15FF0FF300BE1FFB2BC
:10B09000002F0FD01C208DF804008DF805400223EE
:10B0A00001AAD0210120F7F7F3F9002802D15FF0BF
:10B0B000FF30F8E064B2002C02D0C820FFF73AFC61
:10B0C0006A208DF8040044208DF80500022301AAAF
:10B0D000D0210120F7F7DCF9002802D15FF0FF3022
:10B0E000E1E023208DF80400FFB2002F03D00820F8
:10B0F0008DF8050002E070208DF80500022301AAFA
:10B10000D0210120F7F7C4F9002802D15FF0FF3009
:10B11000C9E00A20FFF70EFC002408E0E4B200209A
:10B1200045F82400E4B2002046F82400641CE4B290
:10B13000032CF3DB5FF00009B9F1320F6EDA0A205D
:10B14000FFF7F8FB0220009002AB7222D021012011
:10B15000F7F7F8F9002802D15FF0FF30A3E002A86A
:10B16000FFF7D1FC9DF8061090FBF1F8B8F1070F3E
:10B1700002DA7FF0010096E000241AE05FFA8AFA12
:10B1800055F82AB05FFA8AFA02A810EB4A00FFF7D6
:10B19000BAFC0BFA80F05FFA8AFA45F82A001AF135
:10B1A000010A5FFA8AFABAF1030FE7DB19F1010924
:10B1B000641CE4B24445BFDAB9F1320FBCDA9DF841
:10B1C0000600009002AB7422D0210120F7F7BAF9F3
:10B1D000002802D15FF0FF3065E0FFB2002F1AD0E7
:10B1E0005FF0000A5FFA8AFABAF1030FDEDA5FFA5B
:10B1F0008AFA56F82AB05FFA8AFA02A810EB4A00D7
:10B20000FFF781FC0BFA80F05FFA8AFA46F82A0011
:10B210001AF1010AE6E75FF0000AC2E723208DF881
:10B22000040000208DF80500022301AAD02101208E
:10B23000F7F72EF9002802D15FF0FF3033E05FF01E
:10B24000000A0FE05FFA8AFA55F82A004FF47A7183
:10B250004843322190FBF1F05FFA8AFA45F82A0060
:10B260001AF1010A5FFA8AFABAF1030FEADBFFB2B8
:10B27000002F17D05FF0000A0FE05FFA8AFA56F845
:10B280002A004FF47A714843322190FBF1F05FFAC3
:10B290008AFA46F82A001AF1010A5FFA8AFABAF124
:10B2A000030FEADB012005B0BDE8F08F2DE9F04384
:10B2B00089B004000D00160000275FF0010801A806
:10B2C000002101605FF000090320009001AB0D2216
:10B2D000D0210120F7F736F9002801D15FF0FF38BF
:10B2E0005FF0000905E005A8002140F8291019F1D8
:10B2F0000109B9F1030F11DA01A819F800000028BB
:10B30000F1D001A819F80000DFF8681A11EB40002D
:10B3100030F8020C05A941F82900E8E75FF00009C0
:10B320001FE002A850F82900DFF84C1A884207DA1B
:10B33000DFF8480AF7F736F8012010FA09F007435A
:10B3400002A850F82900DFF8381A884207DBDFF836
:10B35000340AF7F727F8012010FA09F0074319F12A
:10B360000109B9F1030F2ADA55F8290056F8291016
:10B37000401A0AF039F902A941F8290005A850F845
:10B3800029000028CDD002A850F8290005A951F8BD
:10B39000291090FBF1F0B0F57A700AF025F924F845
:10B3A000190034F91900B0F5FA7FD8DDDFF8D809B3
:10B3B000F6F7F8FF012010FA09F00743CFE7B4F9D8
:10B3C00004000090B4F90230B4F900203900DFF82D
:10B3D000BC09F6F7E7FF002F05D0DFF8B409F6F750
:10B3E000E1FF7FF00208404640B209B0BDE8F083BB
:10B3F00038B505000020ADF800000020ADF80200CF
:10B40000F6F74FFF040038208DF8000000208DF87B
:10B410000100022300AAD0210020F7F739F8002804
:10B4200001D1002074E000F01DFB002801D10020B4
:10B430006EE01F208DF800004B208DF801000223E4
:10B4400000AAD0210020F7F723F8002801D100201E
:10B450005EE01E208DF8000006208DF8010002231A
:10B4600000AAD0210020F7F713F8002801D100200E
:10B470004EE069208DF80000C0208DF80100022305
:10B4800000AAD0210020F7F703F8002801D10020FE
:10B490003EE0012201210320F7F7C9F90020F7F768
:10B4A000C8F938208DF8000040208DF801000223F3
:10B4B00000AAD0210020F6F7EBFF002801D10020E0
:10B4C00026E0012028702000407DC046012810D0D1
:10B4D00001212000F7F724F9BDF80200401CADF867
:10B4E0000200BDF802003228EDDBDFF8A808F6F70D
:10B4F00059FF012200210320F7F799F90020F7F7FF
:10B5000098F900F0A5FB002801D1002000E00120FF
:10B5100032BD00000CED00E00400FA0570B58EB0FD
:10B52000040000A80021002206C0083801250026DA
:10B530000BA80021002200230EC00C3808A800210F
:10B54000002200230EC00C3805A800210022002391
:10B550000EC00C3802A80021002200230EC00C38B7
:10B56000FFF7D7FA002801D1002058E0FFF7E4FBED
:10B57000002806D00126FFF7C4FC002805D10020D2
:10B580004DE0FFF731FB002049E0012302AA08A9A2
:10B590000020FFF7F4FC05006DB2012D04D0DFF8A8
:10B5A000F007F6F7FFFE1CE0012305AA0BA97FF0C8
:10B5B0001F00FFF7E4FC05006DB2012D04D0DFF899
:10B5C000C807F6F7EFFE0CE005AA02A900A8FFF7EE
:10B5D0006DFE05006DB2012D03D0DFF8A007F6F770
:10B5E000E1FE2670BDF800006070BDF90000001299
:10B5F000A070BDF80200E070BDF9020000122071D9
:10B60000BDF804006071BDF904000012A071E5717D
:10B61000FFF7EAFA002801D1002000E001200EB077
:10B6200070BD80B5DFF870070078002809D1FFF7FA
:10B63000BCF9002801D1002004E0DFF85C070121FB
:10B640000170012002BD0000707900201CB50020AF
:10B650008DF806000020ADF80400F6F722FE040085
:10B66000012000900DF106036B22D0210020F6F797
:10B6700069FF002801D1002088E09DF806006021C4
:10B68000084216D06B208DF804009DF8060010F0DB
:10B690009F008DF80500022301AAD0210020F6F7B3
:10B6A000F7FE002801D1002070E014212000F7F7F8
:10B6B00037F8012000900DF106036C22D021002004
:10B6C000F6F740FF002801D100205FE06C208DF8E4
:10B6D00004009DF8060010F0C7008DF80500022355
:10B6E00001AAD0210020F6F7D3FE002801D10020C6
:10B6F0004CE00A212000F7F713F81D208DF8040014
:10B7000043208DF80500022301AAD0210020F6F77E
:10B71000BFFE002801D1002038E01C208DF8040075
:10B7200000208DF80500022301AAD0210020F6F7A1
:10B73000AFFE002801D1002028E020208DF8040071
:10B7400080208DF80500022301AAD0210020F6F701
:10B750009FFE002801D1002018E01F208DF8040072
:10B7600080208DF80500022301AAD0210020F6F7E1
:10B770008FFE002801D1002008E0DFF820060078C5
:10B7800050F00100DFF814160870012016BD00B556
:10B7900083B000208DF806000020ADF804000120E1
:10B7A00000900DF106036C22D0210020F6F7CAFEAE
:10B7B000002801D1002030E06C208DF804009DF8B5
:10B7C000060050F038008DF80500022301AAD021B0
:10B7D0000020F6F75DFE002801D100201DE0DFF813
:10B7E000BC05007880070FD46B208DF80400402042
:10B7F0008DF80500022301AAD0210020F6F748FEAB
:10B80000002801D1002008E0DFF89005007810F052
:10B81000FE00DFF88815087001200EBD1402030831
:10B82000B0260120B4260120B5260120B62601202D
:10B83000B7260120B3260120B8260120B226012018
:10B8400000B583B000208DF804000020ADF806009C
:10B850000120009001AB6C22D0210020F6F772FE8F
:10B86000002801D1002014E06C208DF806009DF81E
:10B87000040050F038008DF8070002230DF1060295
:10B88000D0210020F6F704FE002801D1002000E0BE
:10B8900001200EBDF0B585B004000E0002A8002105
:10B8A000002206C008380020ADF804000125F6F794
:10B8B000F8FC0700DFF8E8040068401CDFF8E0143B
:10B8C00008600120009002AB6B22D0210020F6F727
:10B8D00039FE002801D10020C2E09DF80800400692
:10B8E0001AD56B208DF804009DF8080010F0BF00F9
:10B8F0008DF80500022301AAD0210020F6F7C8FD2B
:10B90000002801D10020ABE014213800F6F708FF31
:10B91000DFF89004F6F746FD0120009002AB6C22A0
:10B92000D0210020F6F70EFE002801D1002097E07C
:10B930009DF80800382108421ED06C208DF80400C4
:10B940009DF8080010F0C7008DF80500022301AA39
:10B95000D0210020F6F79CFD002801D100207FE0D7
:10B9600005213800F6F7DCFEDFF83C04F6F71AFD97
:10B97000DFF8380401210160F6B2009602AB3B22E9
:10B98000D0210020F6F7DEFD002805D1DFF82004E5
:10B99000F6F708FD002063E09DF8090020709DF88F
:10B9A000080060709DF80B00A0709DF80A00E07020
:10B9B0009DF80D0020719DF80C006071002000E0E2
:10B9C000401C062806D2015DDFF8E823825C914224
:10B9D000F6D00025EDB2012D18D1DFF8DC030068A8
:10B9E000401CDFF8D4130860DFF8CC03006813288C
:10B9F00004D1DFF8C803F6F7D5FC0BE0DFF8B80395
:10BA00000068142806D1FEF727FF03E0DFF8A8033B
:10BA10000021016006222100DFF89803F9F76AF897
:10BA2000DFF87C030068C82190FBF1F201FB1200F3
:10BA3000002814D1B4F904000090B4F90230B4F92C
:10BA40000020DA480168DFF87803F6F7ABFCD44849
:10BA50000068DC49884202DBD148002101600120F6
:10BA600005B0F0BD30B583B001240020ADF806006C
:10BA700000208DF80400F6F714FC0500012000906A
:10BA800001AB6B22D0210020F6F75CFD002801D12C
:10BA900000208BE09DF8040040061AD56B208DF83D
:10BAA00006009DF8040010F0BF008DF80700022387
:10BAB0000DF10602D0210020F6F7EAFC002801D1A2
:10BAC000002073E014212800F6F72AFEBE48F6F79E
:10BAD00069FC1D208DF8060008208DF80700022360
:10BAE0000DF10602D0210020F6F7D2FC002801D18A
:10BAF00000205BE00120009001AB6C22D0210020EF
:10BB0000F6F720FD002801D100204FE06C208DF8D1
:10BB100006009DF8040050F080008DF804009DF8A8
:10BB2000040050F007008DF804009DF8040010F0A8
:10BB3000C7008DF804009DF804008DF8070002236B
:10BB40000DF10602D0210020F6F7A2FC002801D159
:10BB500000202BE00120009001AB6B22D0210020BF
:10BB6000F6F7F0FC002801D100201FE06B208DF8D3
:10BB700006009DF8040010F0BF008DF804009DF849
:10BB8000040050F020008DF804009DF804008DF8AA
:10BB9000070002230DF10602D0210020F6F778FC01
:10BBA000002801D1002001E02000C0B23EBD80B5D8
:10BBB0000020ADF80000FFF755FF002801D100205C
:10BBC00045E01F208DF800004B208DF80100022376
:10BBD00000AAD0210020F6F75BFC002801D100204C
:10BBE00035E01E208DF8000006208DF801000223AC
:10BBF00000AAD0210020F6F74BFC002801D100203C
:10BC000025E069208DF80000C0208DF80100022396
:10BC100000AAD0210020F6F73BFC002801D100202B
:10BC200015E0012201210320F6F701FE38208DF8EE
:10BC3000000040208DF80100022300AAD02100203E
:10BC4000F6F726FC002801D1002000E0012002BD0B
:10BC500080B50020ADF80000012200210320F6F796
:10BC6000E6FD38208DF8000000208DF80100022349
:10BC700000AAD0210020F6F70BFC002801D10020FB
:10BC800058E06B208DF8000000208DF801000223A1
:10BC900000AAD0210020F6F7FBFB002801D10020EC
:10BCA00048E01D208DF8000000208DF801000223DF
:10BCB00000AAD0210020F6F7EBFB002801D10020DC
:10BCC00038E06C208DF8000034480078032803D158
:10BCD00000208DF8010012E030480078022803D1DE
:10BCE00038208DF801000AE02C480078012803D1A3
:10BCF00007208DF8010002E03F208DF801000223AB
:10BD000000AAD0210020F6F7C3FB002801D10020B3
:10BD100010E069208DF8000000208DF8010002235A
:10BD200000AAD0210020F6F7B3FB002801D10020A3
:10BD300000E0012002BD80B50178012905D1FFF79F
:10BD400057FB00280AD1002009E00178022905D11B
:10BD5000FFF7E4FB002801D1002000E0012002BD34
:10BD600080B51A490020FAF705F919490B20FAF7AE
:10BD700001F901BDDCEA0208003E49009C0203080B
:10BD800001EFE700A40203089402030890010308EE
:10BD9000AC020308B4020308F2280120F3280120B2
:10BDA000AC270120BC020308C40203080C280120B0
:10BDB000CC020308DC270120782801205802030860
:10BDC00068020308A1860100D4020308DC0003080E
:10BDD0000001030810B50024DFF8500C007800289B
:10BDE0000AD1FEF7E2FD002801D1002007E0DFF8CC
:10BDF0003C0C0121017000E001242000C0B210BD04
:10BE00001CB500208DF806000020ADF80400F6F700
:10BE100048FA0400012000900DF106036B22D021A6
:10BE20000120F6F78FFB002801D1002068E09DF883
:10BE300006006021084216D06B208DF804009DF8A2
:10BE4000060010F09F008DF80500022301AAD02102
:10BE50000120F6F71DFB002801D1002050E032211F
:10BE60002000F6F75DFC012000900DF106036C2226
:10BE7000D0210120F6F766FB002801D100203FE029
:10BE80006C208DF804009DF8060010F0F8008DF885
:10BE90000500022301AAD0210120F6F7F9FA0028B3
:10BEA00001D100202CE00A212000F6F739FC1B20EC
:10BEB0008DF8040008208DF80500022301AAD02186
:10BEC0000120F6F7E5FA002801D1002018E01A2039
:10BED0008DF8040003208DF80500022301AAD0216B
:10BEE0000120F6F7D5FA002801D1002008E0DFF89C
:10BEF000400B007850F00200DFF8341B087001207E
:10BF000016BD00B583B000208DF806000020ADF806
:10BF10000400012000900DF106036C22D0210120C5
:10BF2000F6F710FB002801D1002030E06C208DF8DE
:10BF300004009DF8060050F007008DF8050002236C
:10BF400001AAD0210120F6F7A3FA002801D1002090
:10BF50001DE0DFF8DC0A0078C0070FD46B208DF8F5
:10BF6000040040208DF80500022301AAD021012001
:10BF7000F6F78EFA002801D1002008E0DFF8B00AB9
:10BF8000007810F0FD00DFF8A81A087001200EBD3F
:10BF900000B583B000208DF804000020ADF8060045
:10BFA0000120009001AB6C22D0210120F6F7CAFAE3
:10BFB000002801D1002014E06C208DF806009DF8C7
:10BFC000040050F007008DF8070002230DF106026F
:10BFD000D0210120F6F75CFA002801D1002000E012
:10BFE00001200EBD7FB5040002A80021002206C07A
:10BFF000083800260020ADF80400F6F752F90500D5
:10C000000120009002AB6B22D0210120F6F79AFAB2
:10C01000002801D1002083E09DF80800400625D5C6
:10C020006B208DF804009DF8080010F0BF008DF81B
:10C030000500022301AAD0210120F6F729FA0028E1
:10C0400001D100206CE032212800F6F769FBDFF80F
:10C05000E409F6F7A7F9002603E0F6B20020305510
:10C06000761CF6B2062EF8DB012059E00120009084
:10C0700002AB6C22D0210120F6F764FA002801D12E
:10C0800000204DE09DF808000721084225D06C20D3
:10C090008DF804009DF8080010F0F8008DF80500F8
:10C0A000022301AAD0210120F6F7F2F9002801D1DC
:10C0B000002035E00A212800F6F732FBDFF8780986
:10C0C000F6F770F9002603E0F6B200203055761C32
:10C0D000F6B2062EF8DB012022E00620009002AB2B
:10C0E0004322D0210120F6F72DFA002805D1DFF8F0
:10C0F0004C09F6F757F9002012E09DF8090020706E
:10C100009DF8080060709DF80B00A0709DF80A0073
:10C11000E0709DF80D0020719DF80C006071012009
:10C1200004B070BD2DE9F64FADF63C6D0500002062
:10C13000ADF8080003A81421F8F71AFC002608A897
:10C140000021002200230EC00C385FF0000940F6E9
:10C150008C1068444FF49661F8F70AFCFFA8E030B1
:10C160004FF49661F8F704FC0BA84FF49661F8F7CA
:10C17000FFFB5FF00008002700240020070000E01C
:10C180007F1C032F80F2BA806B208DF80800781C8A
:10C190008DF80900022302AAD0210120F6F778F9D0
:10C1A000002801D1002099E13220FEF7C3FB6A206C
:10C1B0008DF8080044208DF80900022302AAD0213E
:10C1C0000120F6F765F9002801D1002086E101245D
:10C1D00009E019EB060608A850F8270019EB000043
:10C1E00008A941F827002000441E012875DB232000
:10C1F0008DF8080070208DF80900022302AAD021D2
:10C200000120F6F745F9002801D1002066E14B2016
:10C21000FEF790FB23208DF8080000208DF8090020
:10C22000022302AAD0210120F6F732F9002801D119
:10C23000002053E10220009003AB7222D0210120A4
:10C24000F6F780F9002801D1002047E103A8FEF7A6
:10C250005AFC00EE100AB8EEC00A10EE100AFCF705
:10C26000F9F8DFF8DC27DFF8DC37F6F757FDF7F7EA
:10C270007FF88146B9F148000128B4DB5FF000087F
:10C280001DE003A8FEF73FFC18EB060140F68C12F8
:10C290006A4422F811000DF10E00FEF734FC18EB91
:10C2A0000601FFAAE03222F8110004A8FEF72BFCD9
:10C2B00018EB06010BAA22F8110018F10108C84575
:10C2C00087DA0620009003AB7422D0210120F6F714
:10C2D00039F90028D5D1002000E123208DF808008D
:10C2E00000208DF80900022302AAD0210120F6F7D0
:10C2F000CFF800287FF444AF0020EFE0002E01D0FB
:10C30000340000E001245FF0000800200021C5E9AE
:10C31000000100200021C5E9020100200021C5E93B
:10C32000040122E0D5E9000140F68C126A4432F99A
:10C330001820D31780185941C5E90001D5E9020139
:10C34000FFAAE03232F91820D31780185941C5E905
:10C350000201D5E904010BAA32F91820D31780187D
:10C360005941C5E9040118F10108B045DADBD5E906
:10C3700000012200E317FDF7B9F8C5E90001D5E98E
:10C3800002012200E317FDF7B1F8C5E90201D5E982
:10C3900004012200E317FDF7A9F8C5E904015FF0E5
:10C3A0000008DDF83C0E00220023C0E90023DDF880
:10C3B0003C0E00220023C0E90223DDF83C0E0022DF
:10C3C0000023C0E9042382E0DDF83C2ED2E900011D
:10C3D000CDE9000140F68C10684430F91800C1170F
:10C3E000D5E90023801A994140F68C126A4432F94B
:10C3F00018A05FEAEA7BD5E90023BAEB02027BEBE7
:10C400000303A2FB00AB02FB01BB03FB00BBDDE9A6
:10C41000000110EB0A0051EB0B01DDF83C2EC2E9E4
:10C420000001DDF83C2ED2E90201CDE90001FFA8B0
:10C43000E03030F91800C117D5E90223801A99417C
:10C44000FFAAE03232F918A05FEAEA7BD5E90223BD
:10C45000BAEB02027BEB0303A2FB00AB02FB01BBC6
:10C4600003FB00BBDDE9000110EB0A0051EB0B01FF
:10C47000DDF83C2EC2E90201DDF83C2ED2E90401D0
:10C48000CDE900010BA830F91800C117D5E9042344
:10C49000801A99410BAA32F918A05FEAEA7BD5E924
:10C4A0000423BAEB02027BEB0303A2FB00AB02FB0B
:10C4B00001BB03FB00BBDDE9000110EB0A0051EBFF
:10C4C0000B01DDF83C2EC2E9040118F10108B0456A
:10C4D000FFF67AAFDDF8400E066001200DF6446DE0
:10C4E000BDE8F08F2DE9F04389B004000D0016007F
:10C4F00001275FF0000801A80021016003200090DF
:10C5000001AB0022D0210120F6F71CF8002801D150
:10C510005FF0FF375FF0000907E04FFA89F905A8DF
:10C52000002140F8291019F101094FFA89F9B9F1F0
:10C53000030F17DA4FFA89F901A819F8000000284B
:10C54000EBD04FFA89F901A819F80000DFF8F814C8
:10C5500011EB400030F8020C4FFA89F905A941F8B7
:10C560002900E0E75FF0000925E04FFA89F902A809
:10C5700050F82900DFF8D414884208DADFF8D00434
:10C58000F5F710FF012010FA09F050EA08084FFAF9
:10C5900089F902A850F82900DFF8B814884208DBAE
:10C5A000DFF8B404F5F7FEFE012010FA09F050EAB6
:10C5B000080819F101094FFA89F9B9F1030F3BDABB
:10C5C0004FFA89F955F829004FFA89F956F82910D8
:10C5D000401A09F009F84FFA89F902A941F829002F
:10C5E0004FFA89F905A850F829000028BDD04FFA64
:10C5F00089F902A850F829004FFA89F905A951F8DC
:10C60000291090FBF1F0B0F57A7008F0EDFF4FFAC9
:10C6100089F924F819004FFA89F934F91900B0F5AD
:10C62000FA7FC6DDDFF83404F5F7BCFE012010FA0E
:10C6300009F050EA0808BCE74FFA88F8B8F1000F93
:10C6400005D0DFF81C04F5F7ADFE7FF002073800D7
:10C6500040B209B0BDE8F0832DE9F0479CB004007A
:10C660005FF0010801250CA81821F8F781F906A848
:10C670001821F8F77DF902A80021016000A8002127
:10C68000002206C008385FF0000A18A80021002226
:10C6900000230EC00C3815A80021002200230EC074
:10C6A0000C3812A80021002200230EC00C3803A869
:10C6B0000021002200230EC00C380026DFF8A4035E
:10C6C000D0F80490FEF725FA002801D1002049E1B6
:10C6D000FEF732FB80465FFA88F8B8F1010F0AD105
:10C6E0005FF0010A02AA06A90CA8FFF71BFD0028AB
:10C6F00005D1002036E1FEF777FA002032E1FEF79F
:10C7000000FC002801D100202CE1002303AA15A978
:10C710000020FEF734FC05006DB2012D03D0761C1D
:10C72000D148F5F73FFE002312AA18A97FF01F0099
:10C73000FEF725FC05006DB2012D03D0B61CCB48D9
:10C74000F5F730FE18AA15A900A8FFF7CBFE0500E3
:10C750006DB2012D03D0361DC548F5F723FEDDE986
:10C760000601002901D100280BD0DDE908010029CC
:10C7700001D1002805D0DDE90A01002905D10028F2
:10C7800003D1BC48F5F70EFE083600273AE0FFB2A9
:10C790000CA810EBC700D0E9002340F241100021A3
:10C7A0008B420FDB01DC82420CD31036FFB20CA8A7
:10C7B00010EBC702D2E900010200FFB23900AE4817
:10C7C000F5F7F0FDFFB206A810EBC702D2E90001B1
:10C7D000029AD317FCF78AFE002912DB02DCB0F5BF
:10C7E000C85F0ED34036FFB206A810EBC702D2E9ED
:10C7F0000001029990FBF1F2FFB239009F48F5F772
:10C80000D1FD7F1CFFB2032FC1DB36B2002E1AD13F
:10C8100000220CE0D2B219EB4203D2B20CA810EB0A
:10C82000C206D6E900018000A3F85800521CD2B21B
:10C83000032AEFDBB9F95C30B9F95A20B9F958107D
:10C840008F48F5F7AFFD84F800A0BDF800006070D8
:10C85000BDF900000012A070BDF80200E070BDF943
:10C86000020000122071BDF804006071BDF90400DF
:10C870000012A071E5710298207202980012607295
:10C8800002980014A07202980016E072DDE90C0113
:10C890002073DDE90C0100B200126073DDE90C01C8
:10C8A0000014A073DDE90C010016E073DDE90E0150
:10C8B0002074DDE90E0100B200126074DDE90E01A2
:10C8C0000014A074DDE90E010016E074DDE910012A
:10C8D0002075DDE9100100B200126075DDE910017C
:10C8E0000014A075DDE910010016E075DDE9060110
:10C8F0002076DDE9060100B200126076DDE906016E
:10C900000014A076DDE906010016E076DDE90801F5
:10C910002077DDE9080100B200126077DDE9080147
:10C920000014A077DDE908010016E077DDE90A01CF
:10C9300084F82000DDE90A0100B2001284F8210029
:10C94000DDE90A01001484F82200DDE90A0100167D
:10C9500084F82300FEF748F9002801D1002001E007
:10C960004046C0B21CB0BDE8F08730B583B00400CB
:10C970000020ADF8040000203A494D68697A00298A
:10C9800007D1286E40688047F5F78BFC0A21F5F740
:10C99000C7FE0220009001AB4122D0210120F5F713
:10C9A000D1FD002801D1002017E09DF805009DF879
:10C9B000041050EA0120032110FB01F04FF47A71BA
:10C9C00090FBF1F01530207000206070687A00282C
:10C9D00002D1286E8068804701203EBD80B5017875
:10C9E000002905D1FFF738FE00280AD1002009E010
:10C9F0000178012905D1FFF7B8FF002801D10020F7
:10CA000000E0012002BD80B5C0B2062806D10800B2
:10CA1000FFF7ABFF002801D1002000E0012002BD9C
:10CA200080B518490120F9F7A5FA01BDF2280120C7
:10CA3000F3280120DC020308E4020308EC020308E7
:10CA40002D211FF46C56C53FDCEC020830FD1300AD
:10CA5000FC02030879E2D10004030308F40203088E
:10CA60000C03030808400020140303081C030308F8
:10CA70002403030878020308B00103082C0203080A
:10CA80004402030824010308DFF88005704730B52D
:10CA900083B00020ADF806008DF80400012000905E
:10CAA00001AB002218210220F5F74CFD04469DF849
:10CAB000040048281FD131208DF806000DF106052D
:10CAC0000120687002230DF1060218211846F5F7BF
:10CAD000DFFC00280DD031208DF8060000206870A2
:10CAE00002230DF1060218211846F5F7D1FC0028A3
:10CAF00002D100203EBD002418220021DFF80C05E1
:10CB0000F5F7ACFB20463EBD70B582B00020ADF815
:10CB1000000008F072FD0446DFF8F4048168497AE9
:10CB2000C268527A51180069407A0818012801DB5E
:10CB3000012076BDDFF8DC54687801281CD0322053
:10CB40008DF8000000AE01207070022300AA1821A9
:10CB50001846F5F79DFC00280CD031208DF8000018
:10CB600001207070022300AA18211846F5F790FCE6
:10CB7000002803D1002076BD01202870281D61699E
:10CB80008847012076BD38B50020ADF8000008F0D8
:10CB900034FD0446DFF878048168497AC268527A25
:10CBA00051180069407A0818022801DB012032BDC3
:10CBB000DFF860542878012812D031208DF8000069
:10CBC00000208DF80100022300AA18211846F5F76D
:10CBD0005FFC002801D1002032BD0020687001E018
:10CBE00000202870281D21698847012032BD80B5AA
:10CBF0000020ADF8000031208DF8000000208DF8F5
:10CC00000100022300AA18211846F5F741FC00286C
:10CC100001D1002002BD012002BD7CB504460020E8
:10CC2000ADF806008DF804000120009001AB002251
:10CC300018210220F5F786FC05469DF804004828D7
:10CC400029D131208DF806000DF106061F207070E5
:10CC500002230DF1060218211846F5F719FC0028E9
:10CC600017D0032000902346602218210220F5F7F8
:10CC700069FC00280DD031208DF80600002070706E
:10CC800002230DF1060218211846F5F701FC0028D1
:10CC900002D1002076BD0025284676BD0021DE4A5F
:10CCA00002E00B5C8B54491C1B29FADBDB48C0F803
:10CCB000D423012070472DE9F04387B004460D4688
:10CCC00016461F464FF000084046ADF8040002A883
:10CCD00041460A460B460EC04FF0050906C001202A
:10CCE000009002AB102218210220F5F72BFC9DF8D2
:10CCF0000810C9070ED501280CD1082000900DF1AD
:10CD00000903112218210220F5F71CFC002807D185
:10CD100040467BE04846A0F1010980B20028DED100
:10CD2000BF489DF80810017002A90A7A4270CA79BA
:10CD300082704A78C2708A780271CA7842710A7920
:10CD400082714A79C271897901720AE002A800EB06
:10CD500048008178407810EB012024F8180008F191
:10CD60000108B8F1030FF1DBA948D0F80C8008F1F5
:10CD70000C0999F815202146D9F80C00D8F80C3088
:10CD8000C018F7F7B7FE404602F0EEF899F8152004
:10CD9000D9F80C00D8F80C1041182046F7F7AAFE75
:10CDA000DFF8788205AA2146404608F07BFE98F914
:10CDB000F4023860B8F8EE00288008F2EE004188EE
:10CDC00069808188A98081892180C1896180008AE8
:10CDD000A08020882988401A308060886988401A9D
:10CDE0007080A088A988401AB08031208DF8040096
:10CDF00001208DF80500022301AA18211846F5F735
:10CE000047FB002801D1002000E0012007B0BDE869
:10CE1000F08330B585B004460020ADF8040002A8C8
:10CE200000210A460B460EC005250120009002ABEA
:10CE3000102218210220F5F785FB9DF80810C9077C
:10CE40000ED501280CD1082000900DF10903112204
:10CE500018210220F5F776FB002806D1002029E0F2
:10CE60002846451E80B20028DFD16D489DF8081085
:10CE7000017002A90A7A4270487820708878607040
:10CE8000C878A0700879E070487920719DF80E008C
:10CE9000607131208DF8040001208DF80500022317
:10CEA00001AA18211846F5F7F3FA002801D100204D
:10CEB00000E0012005B030BD2DE9F0410446002519
:10CEC000FDF7C6FC0746FFF7DFFD06465048D0F8E1
:10CED0001080F86E40070BD406F1140306F10C0223
:10CEE000B11D3046FFF7E7FE002801D1284651E08A
:10CEF00098F80A00012848D1494801782170417802
:10CF00006170C178A1700179E170417921718179F5
:10CF10006171C179A171007AE0714048818D2172FF
:10CF2000B0F92C100912617200F12C014A88A2722A
:10CF3000B1F902201212E2728A882273B1F9041048
:10CF400009126173B0F8F410A173B0F9F41009126A
:10CF5000E173F43041882174B0F902100912617450
:10CF60008188A174B0F904000012E074284620758D
:10CF70000FE006EB4500C18804F8151004EB4501ED
:10CF8000B0F90600001248706D1C032DF1DB7069CA
:10CF9000A0710120BDE8F081F8B504460025FDF739
:10CFA00057FC0746FFF770FD0646F86E000705D5EB
:10CFB0002046FFF72EFF002826D109E006F11403D2
:10CFC00006F10C02B11D3046FFF775FE002814D1A2
:10CFD0002846F2BD36F8150004F8150004EB4500AC
:10CFE00036F915100912417006EB45018A898271E4
:10CFF000B1F90C100912C1716D1C032DEADB182266
:10D0000031460248F7F776FD0120F2BD40250120A8
:10D0100008400020FC250120EC24012060D30020E2
:10D02000D42601207CB504460020ADF806008DF81A
:10D030000400F5F736F905460120009001AB002207
:10D0400018210220F5F77EFA9DF80410482932D104
:10D0500031208DF806000DF106061F2070700223A6
:10D060000DF1060218211846F5F712FA00281BD018
:10D0700031208DF806000020707002230DF10602A9
:10D0800018211846F5F704FA00280DD0012128468A
:10D09000F5F746FB0120009001AB31221821022058
:10D0A000F5F750FA002801D1002076BD9DF8040064
:10D0B0002070012076BDFF21217076BD2DE9F0435F
:10D0C00087B0044604A800210A460B460EC0084655
:10D0D000ADF80C004FF00509F5F7E3F8054602201E
:10D0E000009004AB00221821F5F72CFA06469DF8B3
:10D0F0001000482840F00B819DF81000207004AF0C
:10D100007878607031208DF80C000DF10C081F202C
:10D1100088F80100022303AA18211846F5F7B8F988
:10D12000002800F0F5800320009004AB6022182155
:10D130000220F5F707FA002800F0EA809DF81000B9
:10D14000A0707878E070B878207131208DF80C00EC
:10D15000002088F80100022303AA18211846F5F7D9
:10D1600097F9002800F0D4800120009004AB312210
:10D1700018210220F5F7E6F9002800F0C9809DF893
:10D180001000607531208DF80C00012088F8010036
:10D19000022303AA18211846F5F77AF9002800F0AF
:10D1A000B7801E212846F5F7BBFA0120009004AB9A
:10D1B000102218210220F5F7C5F906469DF8100047
:10D1C000C0070DD5012E0BD1082000900DF11103E1
:10D1D000112218210220F5F7B5F9002806D160E0E8
:10D1E0004846A0F1010980B20028DED1B87902904A
:10D1F0007879019038790090FB78BA7879780FF2D5
:10D200006C10F5F7CFF8B878797811EB0020397900
:10D21000FA7812EB0121BA797B7913EB02220346EB
:10D220001BB21B126371A071084600B20012E071BC
:10D230002172104600B200126072A2729DF81000B6
:10D24000E072387A207331208DF80C00102088F8B5
:10D250000100022303AA18211846F5F719F900283E
:10D2600056D01E212846F5F75BFA4FF0050901203C
:10D27000009004AB102218210220F5F763F906464E
:10D280009DF81000C0070ED5012E0CD1082000908B
:10D290000DF11103112218210220F5F753F900288E
:10D2A00007D1002035E04846A0F1010980B20028EE
:10D2B000DDD1B87902907879019038790090FB78C7
:10D2C000BA7879780FF2C000F5F76CF8B878797809
:10D2D00011EB00203979FA7812EB0121BA797B79C8
:10D2E00013EB022203461BB21B126373A0730846A2
:10D2F00000B20012E0732174104600B20012607494
:10D30000A2749DF81000E074387A207500E00026C1
:10D31000304607B0BDE8F08318B404460B4611460A
:10D320000020032C04D0042C05D0072C06D008E0E4
:10D33000184614BC71E4184612BC73E6184612BCB9
:10D34000ACE412BC704710B50FF25804214602201D
:10D35000F8F710FE0FF270010420F8F70BFE2146DB
:10D360000320BDE81040F8F705BE0000474D5331DB
:10D370002D25642C2025642C2025642C2025642C4C
:10D380002025642C20256400474D53322D25642C24
:10D390002025642C2025642C2025642C2025642C39
:10D3A000202564008FCA000809CB000887CB00083D
:10D3B000EFCB00080000000099CF0008000000003B
:10D3C000BDD0000819D300088FCA000809CB000897
:10D3D00087CB0008EFCB000800000000B9CE0008A2
:10D3E00000000000BDD0000819D3000810B5F4F704
:10D3F00058FF04464FF480510020F5F708FA0A213F
:10D400002046F5F78DF9012010BD38B50022ADF8A2
:10D410000020DFF8804C628A1346002902D01043B6
:10D42000608202E022EA00006082608A002806D062
:10D4300002280BD0042834D0062832D06AE080209D
:10D440008DF8000000208DF8010063E0580701D539
:10D450000120E07381208DF8000000ADEB206870A2
:10D46000022300AA72210920F5F712F8002801D141
:10D47000002032BD687820738F208DF800002220B4
:10D480006870022300AA72210920F5F701F800282C
:10D4900001D1002032BD80208DF800000B20687083
:10D4A00038E0022B01D10120E07381208DF80000CB
:10D4B00000ADEB206870022300AA72210920F4F766
:10D4C000E7FF002801D1002032BD687820738F204B
:10D4D0008DF8000022206870022300AA7221092022
:10D4E000F4F7D6FF002801D1002032BD8E208DF840
:10D4F000000006206870022300AA72210920F4F7B8
:10D50000C7FF002801D1002032BD80208DF8000027
:10D510002F206870022300AA72210920F4F7B8FFB7
:10D52000002801D1002032BD012032BD10B582B0EB
:10D530000020ADF800000446FFF758FF002805D191
:10D540000FF67030F4F72EFF00E0641C082C12D2A6
:10D55000DFF8440B215C8DF800102018007A8DF85C
:10D560000100022300AA72210720F4F791FF00288E
:10D57000EBD1002016BDF6F7FDF9012016BD012004
:10D58000704730B583B00020ADF804008DF8060078
:10D59000DFF8084BE08080208DF8040001AD012009
:10D5A0006870022301AA72210720F4F771FF002896
:10D5B00001D100203EBD8C208DF804000020687051
:10D5C0002070022301AA72210720F4F761FF0028CE
:10D5D00001D100203EBD0120A07001460420FFF7CC
:10D5E00014FF002801D100203EBD012000900DF164
:10D5F0000603E52272210720F4F7A4FF002801D1D9
:10D6000000203EBD01203EBD00B583B00020ADF836
:10D6100006008DF8040080208DF8060001208DF8AA
:10D62000070002230DF1060272210720F4F730FFF4
:10D63000002801D100200EBDDFF8600A00218170B2
:10D640000420FFF7E2FE002801D100200EBD0120DA
:10D65000009001ABE52272210720F4F773FF002848
:10D6600001D100200EBD01200EBD012070471CB568
:10D6700004460020ADF806008DF80400012000905B
:10D6800001AB932272210720F4F75CFF00280ED033
:10D690009DF80400800712D5022000900DF10603CA
:10D6A0009C2272210720F4F74DFF002801D10020B1
:10D6B00016BD9DF8060020709DF8070060700120DF
:10D6C00016BD2DE9F04784B00446FDF7C1F80546C4
:10D6D000F4F7E7FD06460020ADF80400ADF80800B9
:10D6E0008DF80600012000900DF1060393227221AF
:10D6F0000720F4F727FF002801D1002011E29DF850
:10D700000600800640F10C829DF80600800715D5C2
:10D710000220009002AB9C2272210720F4F712FF36
:10D72000002801D10020FCE102A841789DF80820E2
:10D7300042EA0127114661704078A070DFF85C89E9
:10D7400098F80300002803D0002088F80300D9E1EE
:10D7500098F8020000285CD098F80000002858D102
:10D76000002030758C208DF804000DF10409332061
:10D7700089F8010088F80000022301AA722107201D
:10D78000F4F786FE002801D10020CAE188208DF838
:10D790000400002089F80100022301AA7221072059
:10D7A000F4F776FE002801D10020BAE189208DF837
:10D7B0000400002089F80100022301AA7221072039
:10D7C000F4F766FE002801D10020AAE18A208DF836
:10D7D0000400B5F88A0089F80100022301AA722129
:10D7E0000720F4F755FE002801D1002099E18B2095
:10D7F0008DF80400B5F88A00000A89F801000223B8
:10D8000001AA72210720F4F743FE002801D100206D
:10D8100087E105F28A0ABAF80220B5F88A100FF6F5
:10D82000A000F4F7BFFD39460FF6A400F4F7BAFDE7
:10D8300098F80200002800F06581B5F88A00874258
:10D8400052DB307D00284FD1012088F80100207084
:10D850002078307588208DF804000DF10409BAF89D
:10D86000020089F80100022301AA72210720F4F7BF
:10D870000FFE002801D1002053E189208DF804001B
:10D88000BAF80200000A89F80100022301AA7221F5
:10D890000720F4F7FDFD002801D1002041E18A2096
:10D8A0008DF80400FF2489F80140022301AA7221A7
:10D8B0000720F4F7EDFD002801D1002031E18B2095
:10D8C0008DF8040089F80140022301AA7221072083
:10D8D000F4F7DEFD002801D1002022E139460FF2E5
:10D8E000FC70F4F75FFD0DE1BAF80200B84254DBBA
:10D8F000307D012851D1012088F8010000202070DE
:10D900002078307588208DF804000DF1040900207E
:10D9100089F80100022301AA72210720F4F7B8FD5B
:10D92000002801D10020FCE089208DF804000020AF
:10D9300089F80100022301AA72210720F4F7A8FD4B
:10D94000002801D10020ECE08A208DF80400B5F811
:10D950008A0089F80100022301AA72210720F4F746
:10D9600097FD002801D10020DBE08B208DF804001A
:10D97000B5F88A00000A89F80100022301AA722181
:10D980000720F4F785FD002801D10020C9E03946C1
:10D990000FF25070F4F706FDB4E0B5F88A00B84213
:10D9A0005ADB307D002857D198F80400012853D164
:10D9B000012088F8010000202070207830750020B8
:10D9C00088F8040088208DF804000DF10409002077
:10D9D00089F80100022301AA72210720F4F758FDFB
:10D9E000002801D100209CE089208DF8040000204F
:10D9F00089F80100022301AA72210720F4F748FDEB
:10DA0000002801D100208CE08A208DF80400B5F8B0
:10DA10008A0089F80100022301AA72210720F4F785
:10DA200037FD002801D100207BE08B208DF8040019
:10DA3000B5F88A00000A89F80100022301AA7221C0
:10DA40000720F4F725FD002801D1002069E00FF23E
:10DA50009C60F4F7A7FC55E0BAF80200874251DB5E
:10DA6000307D01284ED198F8040001284AD10020C9
:10DA700088F8040088208DF804000DF10409BAF834
:10DA8000020089F80100022301AA72210720F4F79D
:10DA9000FFFC002801D1002043E089208DF804001C
:10DAA000BAF80200000A89F80100022301AA7221D3
:10DAB0000720F4F7EDFC002801D1002031E08A2096
:10DAC0008DF80400FF2489F80140022301AA722185
:10DAD0000720F4F7DDFC002801D1002021E08B2095
:10DAE0008DF8040089F80140022301AA7221072061
:10DAF000F4F7CEFC002801D1002012E00FF2F45020
:10DB0000F4F750FC0120009002ABE52272210720BF
:10DB1000F4F718FD002801D1002002E0012000E008
:10DB2000002004B0BDE8F08770B504460E46FCF74F
:10DB30008FFE05462078072819D16078FF2816D176
:10DB40003146601CFFF793FDA078617841EA002020
:10DB5000B5F88A10884202DB0120207005E0B5F894
:10DB60008C10814201DB00202070012070BDDFF8A5
:10DB70002C550020687131462046FFF7A2FD002891
:10DB800009D0A878002806D06878002803D00020A3
:10DB9000687001206871F6F74DFD0028E7D06879BC
:10DBA00070BD70B582B005460020ADF80000FCF7EE
:10DBB0004FFE0446DFF8E4040121017128786978FA
:10DBC00041EA0020A4F88A0004F28A06A878E978DD
:10DBD00041EA00207080B4F88A00002802D07088E2
:10DBE000002804D17820A4F88A00002070808820C2
:10DBF0008DF8000000AD70886870022300AA7221C1
:10DC00000720F4F745FC002801D1002076BD8920CB
:10DC10008DF800007088000A6870022300AA722143
:10DC20000720F4F735FC002801D1002076BD8A20BA
:10DC30008DF80000B4F88A006870022300AA7221EF
:10DC40000720F4F725FC002801D1002076BD8B20A9
:10DC50008DF80000B4F88A00000A6870022300AA58
:10DC600072210720F4F714FC002801D1002076BDB2
:10DC7000012076BD80B50FF298410720F8F77AF9B8
:10DC80000FF2B0410A20BDE80440F8F773B910B5AF
:10DC900082B00020ADF80000044600E0641C092CAE
:10DCA00012D2DFF8FC03215C8DF800102018007BF5
:10DCB0008DF80100022300AA72210920F4F7E8FB85
:10DCC0000028EBD1002016BD012016BD10B582B092
:10DCD0000020ADF8000080208DF8000001208DF8B4
:10DCE0000100022300AA72210920F4F7D1FB0028C9
:10DCF00001D1002016BDDFF89C4301202074A073E1
:10DD000001460220FFF781FB002801D1002016BD4B
:10DD100002206073012016BD80B50020ADF8000020
:10DD200080208DF8000001208DF80100022300AA58
:10DD300072210920F4F7ACFB002801D1002002BDBC
:10DD4000D448002181730220FFF75FFB002801D136
:10DD5000002002BD012002BD01207047FEB504462F
:10DD60000020ADF8040002908DF80600012000901C
:10DD70000DF10603932272210920F4F7E3FB00283A
:10DD800044D09DF80600C00740F1C880C14D287CF2
:10DD9000012803D0E87B002840F08C80022000900E
:10DDA00001AB942272210920F4F7CCFB00282DD07E
:10DDB0009DF80400A07101AE7078E071022000901F
:10DDC00001AB962272210920F4F7BCFB00281DD07C
:10DDD0009DF804002070707860700220009001AB04
:10DDE000982272210920F4F7ADFB00280ED09DF88F
:10DDF0000400A0707078E0700220009001AB9A22BD
:10DE000072210920F4F79EFB002801D10020FEBDFD
:10DE10009DF80400207170786071287B2072687B07
:10DE200060726078217841EA0020E178A27842EAC5
:10DE300001216279237943EA0222E379A67946EA4D
:10DE4000032302AE009600F0BBF8002819D1287C0D
:10DE5000012830D1002028745B20287000206870D1
:10DE60008520A8700020E870AE202871002068711D
:10DE70007020A8710120E871EB20287200206872E0
:10DE800019E0002028742078287060786870A078E5
:10DE9000A870E078E8702079287160796871A079BD
:10DEA000A871E079E871207A2872607A6872029825
:10DEB000686137E036D02878207068786070A8787C
:10DEC000A070E878E0702879207168796071A8798D
:10DED000A071E879E071287A2072687A6072002077
:10DEE000E8736078217841EA0020E178A27842EA7C
:10DEF00001216279237943EA0222E379A67946EA8D
:10DF000003232E7B277A2F736F7B647A6C7302ACAA
:10DF1000009400F055F82E736F7303E00FF2DC10DD
:10DF2000F4F740FA0120FEBD1CB504460020ADF810
:10DF300006008DF804000120009001AB8F227221B1
:10DF40000920F4F7FFFA002801D1002016BD9DF842
:10DF5000040000F0FC008DF80400012C0AD0042C11
:10DF600004D0102C1ED0402C21D025E040F0010020
:10DF70008DF804008F208DF806009DF804008DF8C0
:10DF8000070044489DF8041001F003014173022387
:10DF90000DF1060272210920F4F77AFA00280DD15A
:10DFA000002016BD40F002008DF80400E2E740F0CA
:10DFB00003008DF80400DDE7002016BD012016BD2A
:10DFC0002DE9F04105460E46174670193818C01A5B
:10DFD0004FEA60080FFA88F8B8F1000F01D54FF04A
:10DFE00000082C48407B0FF22411445C012C42D1E4
:10DFF000192B40DA1020FFF797FF002846D1A6EB37
:10E000000802A7EB08010698A84507DA0368A5EB04
:10E0100008054FF0640C0CFB05330360B04505DACE
:10E0200003684FF47A7505FB02320260B84504DAE2
:10E0300002681C4B03FB012101600168002901D526
:10E040000021016001684FF47A7291FBF2F10160E6
:10E050004FF4B9625143016001EB8102510001604C
:10E060004FF4FC7291FBF2F1016091FBF4F101605D
:10E070000120BDE8F081102CC1D143F699208342E4
:10E08000BDDB0120FFF750FF0028B8D00020F0E7EB
:10E0900000000000C07900202C7A00200428012014
:10E0A000D879002052FEFFFF0FF2AC010920F7F7EC
:10E0B00061BF0000233E50505F4641494C000000C4
:10E0C000233E55703D25642C4C6F3D2564000000B7
:10E0D000233E50524157202564000000233E50311A
:10E0E00020256400233E503220256400233E5265E3
:10E0F00054483100233E526554483200414C535F2E
:10E100004E6F7456616C6964000000000104104099
:10E110002DD5000883D5000809D600086BD6000865
:10E120000000000029DB0008A3DB0008000000005D
:10E13000000000007FD5000883D5000809D600083C
:10E140006BD60008000000006FD60008A3DB0008B3
:10E1500000000000000000008FDC0008CDDC00089B
:10E1600019DD000859DD0008000000005DDD000831
:10E1700000000000000000000000000000207047C8
:10E18000012070470120704738B504460D46F4F76A
:10E1900088F80521F4F7C4FA0020104904E00A6861
:10E1A0000255521C0A60401CA842F8DB012032BD17
:10E1B0000120704701207047094802680A704A70C0
:10E1C000511C01600120704706490A6802704270C4
:10E1D000501C086001207047000000007C7A00207D
:10E1E00080280120842801200FF234010620F7F74F
:10E1F000C1BE0FF22C010520F7F7BCBE10B50FF21F
:10E20000200421461220F7F7B5FE21461320F7F728
:10E21000B1FE21461420BDE81040F7F7ABBE000068
:10E220007DE1000881E1000885E1000885E1000842
:10E23000B5E1000889E10008B1E10008C9E1000882
:10E24000B9E1000890484368DBB200F10A02E0211E
:10E250000820F4F71DB98C484368DBB200F10C02CA
:10E26000E0210820F4F714B9F0B4884B5C7800255D
:10E2700000E06D1CEDB28D420ED22E5C744008267B
:10E2800002E03C46E4B2761EF3D067002406F8D5DF
:10E290001C787C40E4B2F6E7944201D1012000E012
:10E2A0000020F0BC7047CDE7FEB5044605260020EF
:10E2B0000090062301AAE0210820F4F7A5F90546FD
:10E2C000012D03D00FF2E810F4F76CF8012DEED118
:10E2D0003046461E80B20028E9D001AEB278022155
:10E2E00001A8FFF7C1FF002807D0727902210DF1C4
:10E2F0000700FFF7B9FF002805D10FF2AC10F4F7C3
:10E3000051F80020FEBD624871789DF8042041EA72
:10E31000022141F2171251435E4A02EBA1314180C2
:10E320000188491C01804268B0F90230D21842606D
:10E3300083683779F67847EA062640F6C4177E43A5
:10E34000B61303FA86F68660534B1B6A5F7F002F75
:10E3500019D009B292FBF1F2428096FBF1F1002252
:10E3600042608260028042882270B0F9020000128E
:10E370006070A17009B20812E070B3F9560001286C
:10E3800003DB012002E00020FEBD002020712046BA
:10E39000F8F72AFF2846FEBD30B583B03A4C6368D3
:10E3A000DBB204F10E02E0210820F4F771F800203E
:10E3B0000090032301AAE0210820F4F725F905467F
:10E3C000012D05D00FF2F000F3F7ECFF28463EBD1B
:10E3D00001ADAA78022101A8FFF746FF002801D16C
:10E3E00000203EBD6878617808402178884201D1DC
:10E3F00001203EBD00203EBD2548002141608160D6
:10E40000018028E7012070477CB504460020207079
:10E4100006251D484368DBB200F10E02E02108200A
:10E42000F4F736F800200090032301AAE021082029
:10E43000F4F7EAF80646012E0ED02846451E0128BC
:10E4400008DBF3F72EFF1E21F4F76AF92846451E74
:10E450000128DEDA002076BD9DF80620022101A801
:10E46000FFF702FF002808D1F3F71BFF1E21F4F786
:10E4700057F904A0F3F796FFE8E72670012076BD70
:10E4800000000000435243004C7A0020887A0020AC
:10E49000A02701206CEEFFFF084000200FF22001B2
:10E4A0000820F7F767BD000054482D52463200009F
:10E4B00054482D524631000054482D50463100003A
:10E4C00099E30008F9E3000805E4000800000000F3
:10E4D000A7E20008A9E200080000000009E4000823
:10E4E0000000000030B583B000208DF80600ADF8C4
:10E4F00004000324012000900DF106030F228E2159
:10E500001520F4F71FF8002805D1E4B221460FF2D8
:10E51000E810F3F747FF9DF80600CA2804D020460C
:10E52000441EC0B20028E5D1E4B2002C01D1002085
:10E530003EBD002501AC00E06D1CEDB20F2D0DDAE3
:10E540008DF8045000206070022301AA8E2115204E
:10E55000F3F79EFF0028EFD100203EBD202500E00C
:10E560006D1CEDB2302D0DDA8DF804500020607076
:10E57000022301AA8E211520F3F78AFF0028EFD18C
:10E5800000203EBD21208DF8040080206070022311
:10E5900001AA8E211520F3F77BFF002801D100206E
:10E5A0003EBD0FF26810F3F7FDFE01203EBD10B531
:10E5B00082B00020ADF80000F3F773FE044620207F
:10E5C0008DF8000000208DF80100022300AA8E21A2
:10E5D0001520F3F75DFF002801D1002016BD64214E
:10E5E0002046F4F79DF8012016BD00B583B0002049
:10E5F0008DF80400ADF806000120009001AB272241
:10E600008E211520F3F79EFF002801D100200EBDBA
:10E610009DF8040001280FD10120009001AB2822B1
:10E620008E211520F3F78EFF002805D10FF2E800A8
:10E63000F3F7B8FE00200EBD20208DF80600002064
:10E640008DF8070002230DF106028E211520F3F745
:10E650001FFF002801D100200EBD01200EBD80B596
:10E660000020ADF8000020208DF8000000208DF87B
:10E670000100022300AA8E211520F3F709FF0028CC
:10E6800001D1002002BD012002BD80B50020ADF8FF
:10E69000000021208DF8000001208DF801000223E8
:10E6A00000AA8E211520F3F7F3FE002801D10020E7
:10E6B00002BD012002BD1CB5044600208DF80400F7
:10E6C0000120009001AB28228E211520F3F73AFF9C
:10E6D000002805D10FF24000F3F764FE002016BDBC
:10E6E0009DF804002070012016BD0FF234011520A2
:10E6F000F7F740BC0000000055562D5741492072E5
:10E70000657472793A2025640000000055562D503A
:10E71000524F42450000000055562D524600000061
:10E72000E5E40008AFE50008EBE500085FE6000857
:10E730008BE60008B7E600080000000000000000BB
:10E740000000000010B50024F3F7ABFD007CC0070B
:10E7500000D50124204610BD00B589B000A82421B1
:10E76000F6F706F90020ADF822000A208DF808001F
:10E7700000208DF809008DF80A008DF800001F2098
:10E78000019000A8F9F73EFD012009B000BD00B5D9
:10E7900089B000A82421F6F7EBF80020ADF822009C
:10E7A0000A208DF8080000208DF809008DF80A0075
:10E7B00001208DF800001F20019000A8F9F722FD2C
:10E7C000012009B000BD00B589B000A82421F6F7EA
:10E7D000CFF80020ADF822000A208DF808000020B4
:10E7E0008DF809008DF80A0001208DF800001F2027
:10E7F000019000A8F9F706FD012009B000BD012035
:10E80000704710B50024F3F74CFD007CC00700D51D
:10E810000124204610BD00B589B000A82421F6F7D8
:10E82000A7F80020ADF822000A208DF8080000208B
:10E830008DF809008DF80A008DF800002020019065
:10E8400000A8F9F7DFFC012009B000BD00B589B0D0
:10E8500000A82421F6F78CF80020ADF822000A2049
:10E860008DF8080000208DF809008DF80A000120BD
:10E870008DF800002020019000A8F9F7C3FC0120CA
:10E8800009B000BD00B589B000A82421F6F770F8E2
:10E890000020ADF822000A208DF8080000208DF835
:10E8A00009008DF80A0001208DF800002020019059
:10E8B00000A8F9F7A7FC012009B000BD01207047AE
:10E8C00010B50024F3F7EDFC007C800700D501248F
:10E8D000204610BD00B589B000A82421F6F748F8FD
:10E8E0000020ADF822000A208DF8080000208DF8E5
:10E8F00009008DF80A008DF800002120019000A881
:10E90000F9F780FC012009B000BD00B589B000A86E
:10E910002421F6F72DF80020ADF822000A208DF80A
:10E92000080000208DF809008DF80A0001208DF8FC
:10E9300000002120019000A8F9F764FC012009B033
:10E9400000BD00B589B000A82421F6F711F8002019
:10E95000ADF822000A208DF8080000208DF809008B
:10E960008DF80A0001208DF800002120019000A8F8
:10E97000F9F748FC012009B000BD0120704710B52F
:10E980000024F3F78EFC007C00F00300032800D184
:10E990000124204610BD00B589B000A82421F5F758
:10E9A000E7FFC548017841F0020101700020ADF891
:10E9B00022000A208DF8080001208DF809008DF84A
:10E9C0000A1000208DF800002220019000A8F9F71D
:10E9D00019FC012009B000BD00B589B000A82421B0
:10E9E000F5F7C6FFB449087810F0FD00087014D19F
:10E9F0000020ADF822000A208DF8080001208DF8D3
:10EA0000090000208DF80A0001208DF80000222066
:10EA1000019000A8F9F7F6FB02E040B207F0CCFC49
:10EA2000012009B000BD012070470120704710B5DA
:10EA30000024F3F736FC007C00F00700072800D123
:10EA40000124204610BD00B589B000A82421F5F7A7
:10EA50008FFF9949087840F001000870032805D11C
:10EA600040B207F0A9FC07F0C3FC12E00021ADF8AA
:10EA700022100A218DF8081000218DF809108DF858
:10EA80000A0008468DF800002220019000A8F9F73E
:10EA9000B9FB012009B000BD00B589B000A8242150
:10EAA000F5F766FF8449087810F0FE00087013D16E
:10EAB0000020ADF822000A208DF8080000208DF813
:10EAC00009008DF80A0001208DF800002220019035
:10EAD00000A8F9F797FB04E040B207F06DFC07F0DF
:10EAE0008CFC012009B000BD012070470120704757
:10EAF00010B50024F3F7D5FB007CC00700D5012436
:10EB0000204610BD00B589B000A82421F5F730FFDC
:10EB10000020ADF822000A208DF8080000208DF8B2
:10EB200009008DF80A008DF800002320019000A84C
:10EB3000F9F768FB012009B000BD00B589B000A855
:10EB40002421F5F715FF0020ADF822000A208DF8EA
:10EB5000080000208DF809008DF80A0001208DF8CA
:10EB600000002320019000A8F9F74CFB012009B018
:10EB700000BD00B589B000A82421F5F7F9FE0020FA
:10EB8000ADF822000A208DF8080000208DF8090059
:10EB90008DF80A0001208DF800002320019000A8C4
:10EBA000F9F730FB012009B000BD012070470000DB
:10EBB00070B58AB006460D46F9F74EFA04460020B5
:10EBC00000900422314600A8F5F794FF01A8242103
:10EBD000F5F7CEFE009A29460FF29010F3F7E2FB0C
:10EBE00028460C3805283AD8DFE800F0030D121744
:10EBF0002E091420C4F8DC0401200AB070BD1420D2
:10EC0000C4F87C05F8E704F2DC4042218162F3E7B6
:10EC100004F2DC4000990165EEE727480078C1075F
:10EC200012D50021ADF826100A218DF80C10002114
:10EC30008DF80D108DF80E0001208DF804002220B3
:10EC4000029001A8F9F7DEFA0099284640B200F0D8
:10EC50000CF8009004F2DC4000998167CCE70FF2D9
:10EC60001C10F3F79FFB0020C7E710B4134AD36BC7
:10EC7000126C114C2478002C1AD00F2802D01028C6
:10EC80000BD015E0507A002812D0906B80680028D5
:10EC90000ED488420DDD08460BE0587A002807D0D4
:10ECA000986B8068002803D4884202DD084600E0A3
:10ECB000084610BC70470000F428012008400020DE
:10ECC00012B589B001460C39052928D8DFE801F0D2
:10ECD000031D1F21211B1F240020ADF822000190DD
:10ECE0000A208DF8080005208DF800000194042208
:10ECF00009A90DF10900F5F7FDFE00A8F9F782FA60
:10ED000001200AB010BD2324E6E72024E4E72124F3
:10ED1000E2E722240999FFF7A8FF0990DCE70FF248
:10ED20006400F3F73FFB0020EBE780B50FF25C01D6
:10ED30000C20F7F71FF90FF278011120F7F71AF9F5
:10ED40000FF290010D20F7F715F90FF2AC010E202C
:10ED5000F7F710F90FF2C4010F20F7F70BF90FF2D4
:10ED6000E0011020BDE80440F7F704B94D5232200D
:10ED700044523D25642C2564000000004D52322091
:10ED8000534446004D5232205243460045E70008A6
:10ED900059E700088FE70008C7E7000800000000F7
:10EDA000FFE70008B1EB00080000000000000000D1
:10EDB000F1EA000805EB00083BEB000873EB0008E4
:10EDC00000000000ABEB0008B1EB00080000000001
:10EDD0000000000003E8000817E800084DE80008FC
:10EDE00085E8000800000000BDE80008B1EB00085D
:10EDF0000000000000000000C1E80008D5E800089D
:10EE00000BE9000843E90008000000007BE9000866
:10EE1000B1EB000800000000000000007FE90008DE
:10EE200097E90008D9E9000827EA00080000000077
:10EE30002BEA0008B1EB0008000000000000000011
:10EE40002FEA000847EA000899EA0008E9EA000802
:10EE500000000000EDEA0008B1EB0008000000002F
:10EE60000000000080B5FBF7F3FCDFF8BC1708607A
:10EE7000012002BD80B5F5F707FDDFF8B017D1E935
:10EE80000023801A02BDF8B50446A069E168451860
:10EE9000B5F90000B5F90270B5F90460B4F858107E
:10EEA000411A2980B4F85A10791A6980B4F85C10B4
:10EEB000711AA980B5F90010C913B1EBE03F13D066
:10EEC000B4F95810C913B1EBE03F0DD00FF27870D0
:10EED000F3F768FAB5F90000012802DBDFF8500704
:10EEE00001E047F6FF702880B5F90210C913B1EBB5
:10EEF000E73F13D0B4F95A10C913B1EBE73F0DD077
:10EF00000FF25070F3F74EFAB5F90200012802DB58
:10EF1000DFF81C0701E047F6FF706880B5F90410C0
:10EF2000C913B1EBE63F13D0B4F95C10C913B1EBD0
:10EF3000E63F0DD00FF22870F3F734FAB5F904006C
:10EF4000012802DBDFF8E80601E047F6FF70A88041
:10EF500094F90800002804D1002000E0401C032898
:10EF6000FCDBF1BD00000000FEB5044600A8002156
:10EF70000A460B460EC0A069E1684518174694F989
:10EF80000860052E80F09A80012E02D12046FFF7FE
:10EF90007AFF3046012802D9C01E40F08A80002E38
:10EFA00001D14FF6FF77DFF880060068301890F83F
:10EFB0008400401E06285ED8DFE800F004101D29FA
:10EFC00036424F00B5F90200009000A8B5F90010D4
:10EFD000791A4160B5F90410816056E0B5F9000076
:10EFE000381A009000A8B5F90210791A4160B5F9F5
:10EFF0000410816049E0B5F90200381A009000A8B9
:10F00000B5F900104160B5F9041081603DE0B5F933
:10F010000000381A009000A8B5F902104160B5F957
:10F020000410791A816030E0B5F90200009000A860
:10F03000B5F900104160B5F90410791A816024E037
:10F04000B5F90000009000A8B5F90210791A4160E6
:10F05000B5F90410791A816017E0B5F90200381A81
:10F06000009000A8B5F90010791A4160B5F90410B4
:10F07000791A816009E0B5F90000009000A8B5F99F
:10F0800002104160B5F904108160012E0AD10021FF
:10F0900006E050F8212002F30F0240F82120491C1D
:10F0A0000329F6DB0098288000A841686980806801
:10F0B000A880002E02D12046FFF7E5FE0120FEBD0C
:10F0C00070B52DED028B82B08169C2688A1890F903
:10F0D000081008460A2800F2BE80DFE800F0062B80
:10F0E00099BCBC8BBCBC65A6B400B2F90240B2F9B5
:10F0F0000450DFF8340500689FEDBB0AB2F9001038
:10F1000000EE901AF8EEE00A60EE800AC0ED000A08
:10F1100000EE904AF8EEE00A60EE800AC0ED010AC7
:10F1200000EE905AF8EEE00A20EE800A001D80ED15
:10F13000010A94E0B2F90240B2F90450DFF8E804A1
:10F140000068061D9FEDC88BB2F9000000EE100AA2
:10F15000B8EEC00A10EE100AF9F77CF953EC182B40
:10F16000F3F7DCFDF9F79EF9B06000EE104AB8EE57
:10F17000C00A10EE100AF9F76DF953EC182BF3F7EB
:10F18000CDFDF9F78FF9F06000EE105AB8EEC00A25
:10F1900010EE100AF9F75EF953EC182BF3F7BEFDE9
:10F1A000F9F780F930615AE00020ADF80200ADF8BF
:10F1B00000001088ADF802005088ADF80000DFF8BC
:10F1C00068040068061D9FEDD10ABDF9020000EE3B
:10F1D000900AF8EEE00A60EE800AC6ED120ABDF968
:10F1E000000000EE900AF8EEE00A20EE800A86EDBC
:10F1F000130A34E000200190106801909DED010A8F
:10F20000BAEECA0ADFF82004006880ED0C0A26E096
:10F21000DFF8140400681188A0F85A1000F25A00B0
:10F22000518841809188818019E0DFF8FC030068F3
:10F2300000F25A001188C180518801819188418172
:10F24000D18881810BE0DFF8E003006892F90010BB
:10F2500080F8681003E00FF21440F3F7A3F80120E0
:10F2600002B0BDEC028B70BD70B50D46DFF8C41363
:10F2700051F820400026207F002801D1304670BD83
:10F28000607A002803D0206E8068804706462846B2
:10F29000216EC96988470546002E02D0206E40685D
:10F2A0008047284670BD9B0701D542F2107292FB41
:10F2B000F1F190F8222051430069814201DA0120E6
:10F2C000704700207047002901D48164C164002A7E
:10F2D00003D4910701D580F820207047002903D47A
:10F2E00000218164416181617047042815D101F1D9
:10F2F0000C008A7A012A08D0072242750B228275F7
:10F30000CD4ACA600B21416070471522427519220F
:10F310008275CA4ACA601921416070472DE9F243DB
:10F32000054614461946A846B8F1160F44D2A94618
:10F33000C04850F829600227307F00283CD09DF952
:10F340002020002A08D4D00706D513460A46009983
:10F350003046FFF7A8FF44E03046FFF7B4FFA8F1BE
:10F360000C0006280DD22946C9B200A8326E926957
:10F370009047B9F10C0F02D0B9F1110F01D114204F
:10F38000009031462846FFF7B0FF707A00281BD165
:10F39000214649B23046726E1268904700280DD05F
:10F3A000306E40688047002804D139464F1EC9B2EC
:10F3B0000029F5D1002801D1002012E0214649B2F0
:10F3C0003046726E52689047707A401C70722246C6
:10F3D00052B200993046736E1B69984700F098F856
:10F3E0000120BDE8F283000060F61C3AF8B50C4637
:10F3F00015461946162806D28E4A52F82060022772
:10F40000307F002801D10020F2BD3046FFF766FFB3
:10F41000707A012817D1294649B23046726E926837
:10F420009047002809D0306E80688047002804D1BA
:10F430003846471EC0B20028F5D1294649B23046A9
:10F44000726ED2689047707A002801D0401E7072A8
:10F450002A4652B221463046736E5B69984700F0E7
:10F4600057F80120F2BD000089AD84FA0A74313FDB
:10F470002DE9F84304460D46164619462746162F31
:10F480001DD26C4850F8248098F81C00002816D033
:10F490009DF92020002A09D4D00707D513460A4633
:10F4A0002946404601B0BDE8F043FCE606EB4600C5
:10F4B00008EB8009D9F838008068002801D50020C1
:10F4C00021E04046FFF7FFFE324652B2D9F838003D
:10F4D00081684046D8F864305B699847324652B23A
:10F4E00029464046D8F864301B699847A7F10C00BC
:10F4F000062805D229462046FFF7E2FB012002E05C
:10F5000000F006F80120BDE8F28300000AD7233C92
:10F5100070B56FF000452C464948016804E08A68E0
:10F52000A24200DA144609688142F8D1454E30788B
:10F53000401C30707078F021084202D09920F5F715
:10F5400055FAF5F7C0FA7078401C7070AC4200D1E3
:10F55000002435480168CC67D1F8802020468242DB
:10F560000BD0002801D0002A04D1C1F88000F2F7A6
:10F57000F5FE02E0012006F083FF7078F0210842DA
:10F5800002D09920F5F732FA7078401E7070C0B240
:10F59000002801D1F5F791FAF6F7EFF8012070BDD8
:10F5A00038B50546274C2078401C20706078F02143
:10F5B000084202D09920F5F719FAF5F784FA607835
:10F5C000401C607018480068C0F880501C480168F2
:10F5D00005E08A68B2FBF5F26A43CA6009688142B5
:10F5E000F7D16078F021084202D09920F5F7FEF9B2
:10F5F0006078401E6070C0B2002801D1F5F75DFA56
:10F60000BDE83140F6F7B9B80D490A6808E013695A
:10F61000012B01DAD368136113691B1A1361126895
:10F620008A42F4D17047000094280120102801205C
:10F630000080FFFF08400020CC4F0020242501203F
:10F64000784000207079002058206973206F76651B
:10F650007200000059206973206F76657200000007
:10F660005A206973206F7665720000005543535429
:10F67000282564294E53000038B504000D001448B5
:10F680000078401C1249087012480078002802D007
:10F69000A120F5F7ABF9F6F72FF8607E662802D0C7
:10F6A0008220F5F7A3F9F5F70EFA05E038212000DE
:10F6B00006F0ECFEF5F707FAE06821698842F5D01C
:10F6C0002900200006F004FFF6F757F831BD00BF0F
:10F6D000707900201B2901204FF0FF31801E012886
:10F6E00012D9C01E04280FD9801F05280CD908384C
:10F6F0000AD0801E042807D9401F03D0401E0F28BF
:10F7000002D902E0072100E001210846704780B5D8
:10F7100001460020C91E18D0C91E16D0C91E14D01B
:10F72000C91E012911D90D3903290ED9091F05D088
:10F73000491E0AD0C91F032907D902BD1D210FF296
:10F740001000F2F72FFE012002BD012002BD0000D3
:10F7500050443A204C4C53202564000038B50446F0
:10F760004FF0FF35F8F778FC2A2C35D8DFE804F0A5
:10F770002F34332F2F332F2F3333342F18331616C4
:10F780002F343433342F2F2F182F332F332F2F1B99
:10F790001E22262A2D33333333333100C8251BE094
:10F7A0004FF47A7518E0D0F8DC5415E000F2DC4034
:10F7B000856A11E000F2DC40056D0DE000F2DC40EE
:10F7C000856F09E0D0F87C5506E00A2504E0422563
:10F7D00002E0052500E01425284632BD38B5DFF8E3
:10F7E000FC49FBF735F8E06206F0DAFEF8F734FC86
:10F7F0002063002512E0DFF8E8190161DFF8E41961
:10F800004161DFF8E4298261DFF8E029C261DFF8B5
:10F81000E02902624162406A80476D1C2B2D80F214
:10F820000E81216B05EB8500C00000224254401878
:10F8300042704FF0FF32426000220272C260427298
:10F84000032D04D17431DFF8AC298A62E3E7022D7D
:10F8500003D1DFF8A4294A67DDE7002DCBD0042DC2
:10F8600004D17431DFF894290A65D4E7052D04D159
:10F870007431DFF88C298A67CDE7062D04D1DFF8D3
:10F880008429C1F81421C6E7072D05D101F58A7135
:10F89000DFF874298A62BEE7082D05D101F58A7167
:10F8A000DFF868290A65B6E7092D05D101F58A71E7
:10F8B000DFF85C298A67AEE70A2D9CD00B2D9AD021
:10F8C000012D98D00C2D04D1DFF84829C1F804226D
:10F8D000A1E70D2D05D101F50171DFF83C298A6200
:10F8E00099E70E2D05D101F50171DFF830290A6580
:10F8F00091E70F2D05D101F50171DFF824298A6701
:10F9000089E7102D04D1DFF81C29C1F8A42282E771
:10F91000122D3FF470AF142D3FF46DAF132D3FF453
:10F920006AAF162D3FF467AF152D04D1DFF8082A12
:10F93000C1F86C236FE7172D05D101F55B71DFF876
:10F94000FC290A6567E7182D05D101F55B71DFF821
:10F95000F0298A675FE71A2D05D101F20C41DFF823
:10F96000E4298A6257E71E2D05D101F2AC41DFF888
:10F97000D8298A624FE7192D04D1DFF8D029C1F8C0
:10F980000C2448E71F2D05D101F2AC41DFF8C02956
:10F990000A6540E7202D05D101F2AC41DFF8B4291A
:10F9A0008A6738E7212D04D1DFF8AC29C1F84C254E
:10F9B00031E7222D05D101F24C51DFF8A0298A62EE
:10F9C00029E7232D05D101F24C51DFF894290A656E
:10F9D00021E71B2D05D101F20C41DFF888290A65CA
:10F9E00019E71C2D05D101F20C41DFF87C298A674B
:10F9F00011E71D2D04D1DFF87429C1F8AC240AE702
:10FA0000262D04D1DFF86829C1F8142603E7272D35
:10FA100005D101F21461DFF85C298A62FBE6292D29
:10FA200005D101F21461DFF850298A67F3E62A2D27
:10FA30007FF4E1AEDFF84429C1F8B426EBE60120FB
:10FA400032BD0CB42DE9FF470546884601244746E0
:10FA50002E461A2E48D006EB86004FEAC008DFF883
:10FA60007C970B2F20D1D9F8300008EB000A9AF8C8
:10FA70000100002818D02846FFF72EFE012813DBCE
:10FA80002846FFF729FE9AF8011081420CDB284630
:10FA900000F086F90446D9F8300040440021417056
:10FAA0000FF6E400F2F77EFCD9F8300018F80010E9
:10FAB000002947D108EB00014A78002A42D10022F0
:10FAC00008F80020104648700CA983B06846182238
:10FAD000F3F718F80EBC284600F07CF802282CD06A
:10FAE00003282FD103242DE00B2F16D1FFF7F4FDAF
:10FAF000012812DB2846FFF7EFFD06EB8601DFF851
:10FB0000DC26126B02EBC1014978814205DB0FF65E
:10FB10008000F2F747FC022057E04046C0B202F0F6
:10FB20006BF80CA983B068461822F2F7EBFF0EBC05
:10FB3000284600F04FF8022801D1022045E00328B2
:10FB400000D103240A2F0DD1DFF89096D9F83000A8
:10FB500006EB86014FEAC10818F80010491C08F8A6
:10FB6000001017E00B2F15D1DFF87096032E07D188
:10FB7000D9F8300090F87900002801D101F09FFAFF
:10FB800006EB86004FEAC008D9F8300040444178BF
:10FB9000491C4170DFF84496D9F83000D9F82C1090
:10FBA00006EB86024FEAC208D1E91C23CDE9022305
:10FBB000C96E009108EB00014B7818F8002031461F
:10FBC0000FF2D870F2F7EEFB204604B0BDE8F00764
:10FBD0005DF80CFB0EB42DE9F04183B0054601241D
:10FBE000C0B2FFF7BBFDDFF8F46505EB8501326BB2
:10FBF00002EBC107786000203872F86009A984B070
:10FC000068461822F2F77EFF0FBC3F69B84702280A
:10FC100001D1022011E0032801D103240CE0D6F821
:10FC20002C80D8E91C67204600212A4606F060FD9A
:10FC300030433943C8E91C012046BDE8FE015DF8A8
:10FC400010FB2DE9FF4704460D460126274607EB2A
:10FC500087004FEAC008DFF88495D9F830001A2FE2
:10FC600057D008EB000A9AF80100022814DB20465E
:10FC7000FFF732FD01280FDB2046FFF72DFD9AF834
:10FC80000110814208DB2046FFF726FD8AF80100BB
:10FC90000FF21C70F2F786FBD9F8300018F800104C
:10FCA000002904D108EB00025278002A60D02A46CD
:10FCB0000A2A09D1002903D0491E08F8001017E0CC
:10FCC000002108F8001013E00B2A11D108EB000105
:10FCD0004A78002A02D0521E4A7001E000224A707F
:10FCE000032F05D190F87900002801D101F0F6F931
:10FCF000D9F8300018F80010002939D14044407874
:10FD0000002835D1204600F04BF8032830D10326D7
:10FD10002EE018F80010002904D108EB00025278F8
:10FD2000002A25D02A460A2A09D1002903D0491ED3
:10FD300008F8001012E0002108F800100EE00B2A6D
:10FD40000CD108EB000A9AF80100002803D0401EED
:10FD50008AF8010002E000208AF801002846C0B2BB
:10FD600001F04AFF204600F01BF8032800D10326CB
:10FD7000D9F83000D9F82C10D1E91C23CDE90223A1
:10FD8000C96E009108EB00014B7818F80020394645
:10FD90000FF22460F2F706FB304604B0BDE8F087AE
:10FDA0002DE9F0410746012607EB8700C500DFF883
:10FDB0002C44206B281840698047032800D1032673
:10FDC000384640B200F080F9032800D10326206BAA
:10FDD000295C002917D128184178002913D14FF048
:10FDE000FF31416000210172C160D4F82C80D8E954
:10FDF0001C4501203A4606F07BFC24EA000025EA77
:10FE00000101C8E91C013046BDE8F08138B504465F
:10FE100004EB8400C000DFF8C453296B0022425475
:10FE20004018114641702046FFF7BAFFE86AD0E952
:10FE30001C2321460FF29450F2F7B4FA012032BD90
:10FE40002DE9F041B6B004460E46B6B201208DF859
:10FE50006400DFF888531AA8E96A6C22F2F752FEB0
:10FE600017951AA984B068466C22F2F74BFE0FBCB6
:10FE700000F0DAF900270BE0032803D118970320DC
:10FE80008DF86400286B4044002101727F1C7FB212
:10FE90002B2F2ADAEA6AD2E91C013A4600F0CCFAA2
:10FEA00000F0010011F0000101D10028EED007EBB5
:10FEB00087004FEAC008286B404441680029E5D418
:10FEC000027A521C0272D2B2724389B28A42DDDBDC
:10FED000806980470228CFD1189702208DF86400EE
:10FEE000DDE91801C4E9000103E0DDE91801C4E916
:10FEF000000136B0BDE8F08100210A3842F20772F5
:10FF0000904200D20121084670472DE9F04383B0AA
:10FF1000044600200190042204F1090101A8F4F72D
:10FF2000E9FD6168DFF8B462376B282505FB0170D5
:10FF30004068019A904204D10FF2A040F2F732FAE1
:10FF400068E01046FFF7D8FF002809D16168019BDF
:10FF500005FB017042680FF29040F2F723FA59E076
:10FF6000DFF81C743868D0F8008025E090F908901C
:10FF70006068316B05FB0010C06820FA09F0C0070B
:10FF800017D54FF0FF3000900346012201994846F3
:10FF9000FFF7C4F940B200280BD1616801980090C6
:10FFA000306B05FB010043684A460FF25040F2F700
:10FFB000F9F94046D0F80080B842D7D13868D0F877
:10FFC00000801FE090F90890C86820FA09F0C00787
:10FFD00015D54FF0FF33012249684846FFF706FA6E
:10FFE00040B200280BD1616801980090306B05FB8E
:10FFF000010043684A460FF21C40F2F7D3F940462D
:020000021000EC
:10000000D0F800806168326B05FB0121B842D9D17C
:1000100001984860BDE8F7832DE9F8438146002444
:1000200025466E4F21E005EB8500C600386B06EBD8
:100030000008002088F80900FA6AD2E91C012A4663
:1000400000F0FAF900F0010011F0000101D10028E0
:100050000AD04846D8F81C108847002804D0386BCE
:100060003018012141720C466D1C2B2DDBDB204624
:10007000BDE8F2835948C16AD1E91C23002B01D1A4
:10008000002A0DD0002107E002EB8203026B02EB95
:10009000C30200235372491C49B20A462B2AF3DBE0
:1000A000704700B502464D48C36AD3E91C0100F011
:1000B000C3F900F0010011F0000101D1002801D0C6
:1000C000012000BD084600BD2DE9F047814601240E
:1000D00009EB8900C500414E306B2818C068002824
:1000E00029D0DFF89C723868D0F8008003E0032440
:1000F0004046D0F80080B8421DD090F908A0306B7F
:100100002818C168012202FA0AF2114021FA0AF104
:1001100049B20129ECD14FF0FF330122416850462A
:10012000FFF764F90028E2D0524649460FF2FC205E
:10013000F2F738F9DCE72046BDE8F08710B58AB061
:1001400004460020ADF8220001900A208DF8080036
:1001500000208DF809008DF80A00ADF82200600734
:1001600019D50520FFF79DFF002807D004208DF842
:1001700000000520019000A8F8F744F80220FFF7DE
:1001800090FF002807D004208DF800000220019085
:1001900000A8F8F737F8E0060CD50820FFF781FF34
:1001A000002807D003208DF800000820019000A847
:1001B000F8F728F80AB010BD02460020092A00D03E
:1001C000704780B5012902D106F048FB012002BD2D
:1001D00002492C22F2F796BC00000000E022012028
:1001E0006F8300086B830008778300087B83000817
:1001F0007F830008B50A01080F3B01085904010874
:10020000F938010877E9020805FA020831370108D0
:10021000AB6701088107010825E80208C9DB02086D
:1002200065F20208EBF802080FB41B980099016010
:1002300001994160029981600399C160049901614B
:1002400005994161BDF85A100183BDF85C104183E6
:10025000BDF85E1081830C99016213994162149973
:10026000816204B0704700004168122903D1C17A4D
:10027000002000F0E0BF132903D1017B012000F032
:10028000DABF142903D1417B022000F0D4BF152925
:1002900002D1C07A00F0E0BF172945D1817A1B292D
:1002A00006D01C2930D01D290FD0262926D0704712
:1002B000C17B012903D1B0F80B0003F057B9022923
:1002C00032D1B0F80D0003F04FB9017D012903D1FF
:1002D000B0F80B0006F0A2BD022903D1B0F80D0062
:1002E00006F090BD042903D1B0F8170006F0A2BDB6
:1002F000032919D1B0F8150006F0A8BDC17B01296A
:1003000012D1807B06F0DBBE817B012902D1C07A4D
:1003100007F0DDB8022902D1007B07F0E2B8052919
:1003200002D1407B07F0BDB870471649086070479E
:1003300014480068704700001DFB02084DFD0208CC
:1003400041F102088B27010881E502083DF502080A
:10035000658901086B140208DBEF02085B63010882
:10036000C18A01080D3501081D730108A36D01083C
:10037000037001083BC9020841FC0208D5CA020803
:100380007449002098280120414C20455800000065
:10039000414C2045582D415400000000414C25643B
:1003A00020256420256420256420256C6C750000C0
:1003B000524C204558000000524C256420256420F2
:1003C000256420256420256C6C7500005445524D31
:1003D00020256420256C6C75000000004558204CD9
:1003E0004D435231202564004558204C4D43523234
:1003F0002025642025642025640000004558204CF9
:100400004D43523320256420256420256420256433
:10041000000000004558204C4D43523420256420F4
:10042000256420256420256400000000534D5241BE
:100430002025642025640000D2B2203A22BF21FA90
:1004400002F0002170472032D141D0404840914015
:10045000D14048407047000038B5F7F7FDFD04462D
:10046000104DFAF7F5F9286005F0C2F805F0C5F867
:10047000686005F0FDF90C48C4F8B00004F1B00064
:100480000A4941600A4981600A49C1600A4901611B
:10049000012032BD0349496889680847014840681E
:1004A00000680047382801206F8300086B8300082C
:1004B000778300087B8300087F8300082DE9F047DD
:1004C00086B0044601A81421F4F752FAF1F7E9FEC8
:1004D00005464FF00209002601E0761C76B20A2E8E
:1004E00080F2A880022EF8D0032EF6D0062EF4D08B
:1004F000574850F8267007F10C08787A002805D183
:10050000D8F85400406880470028E6D009F8046015
:1005100009F101094FFA89F9304609285AD8DFE86C
:1005200000F0050A5959102059154D47C821284691
:10053000F2F7F6F84EE04FF448712846F2F7F0F87B
:1005400048E032212846F2F7EBF843E007208DF827
:100550000400FF208DF8050032212846F2F7E0F86C
:1005600038E03C212846F2F7DBF84FF0000ABAF1F8
:10057000030F2FDA0020D8F8541009698847142196
:100580002846F2F7CDF80120D8F8541009698847B9
:1005900014212846F2F7C4F8BAF1020F05DA062151
:1005A00001A8D8F85420526990470AF1010ADEE701
:1005B0004FF416712846F2F7B3F80BE00020D8F894
:1005C000541009698847012088F811003C21284609
:1005D000F2F7A6F898F8151001A8D8F85420526937
:1005E0009047002819D0D8F80C00F96800EB010AF0
:1005F00098F8152001A95046F4F77CFA3846FEF722
:10060000B3FC98F81520514609EB0400F4F772FA90
:1006100098F9150081444FFA89F9787A00287FF417
:100620005CAFD8F854008068804700287FF455AF4D
:10063000002009E0A9F10200ADF80000022200A9A3
:100640002046F4F757FA002006B0BDE8F087000016
:100650000840002038B505000C0094F84C006428D0
:1006600002D08020F4F7C2F9F5F71EF8F4F72BFA60
:10067000606928436061207C10F0F800082806D1EA
:10068000A0696169084202D02000F5F7B2F8074876
:100690004078F021084202D09920F4F7A7F90348E6
:1006A0004078002801D1F4F708FA31BD70790020B4
:1006B0000FB480B5BDF80B0067494880022802DB03
:1006C000801E088001E0002008800C229DF90A109D
:1006D0000020F7F7C3FC032801D1022000E001202D
:1006E00002BC5DF814FB5C480121418000210180BF
:1006F00001207047594908707047000030B58DB02F
:1007000002A8F7F70AFD544C2088401C208061881D
:1007100080B2884231D300202080054627E06068FF
:10072000D0F8EC01E840C00720D5284605F08AFF44
:1007300000281BD400EB80009FED460ADDED0B0A7C
:1007400060EE800AFDEEE00A10EE901A00AA8152D7
:10075000DDED0C0A20EE800ABDEEC00A10EE101A84
:100760008218518000A94018012101716D1C172DBC
:10077000D5DBDDE9000105F073FF01200DB030BDD0
:1007800080B5F7F769FC344948603549C0F8F01185
:1007900000F5F87033494160334981600FF20D0173
:1007A000C1600FF225010161012002BD10B50024D6
:1007B0002A4890F90000002804D105F071FF0028B4
:1007C00000D00124204610BDF8B504460D4640F285
:1007D0002116287816FB004001210170287816FBAD
:1007E00000404170287816FB00400C218170287869
:1007F00016FB0040194991F90010002902D002218E
:10080000C17001E00121C170287816FB0040012170
:100810000171287816FB004008214171287816FBE9
:1008200000400121C180287816FB0047002005F018
:10083000D3FE3881287816FB0044002005F0D1FE55
:1008400060812878401C28700C20BDE8F24005F03B
:10085000E1BE00000000C842747A0020FD2801209B
:10086000B1060108E7060108FD0601080FB410B53E
:10087000032200210846F7F7F1FB022801D10220EC
:100880001BE00FF23C00F1F78DFDDFF8804C0020FB
:100890006073608220629DF80C209DF80B109DF81B
:1008A0000A0007F0A5FB58220021DFF8640CF1F7DD
:1008B000D5FC00202074A073012010BC5DF814FB4F
:1008C00050443A2053746172745065646F2D303215
:1008D000323500000120704730B58BB000A8F7F723
:1008E0001CFC05210320F7F77BFC002802D1DFF870
:1008F000240C0890DFF8144CA069C56F07F00DFBBD
:10090000207294F90800022806D1422D04D1142146
:100910000320F7F704FC07E0012805D1142D03D1CB
:1009200042210320F7F7FBFB284680B2DDED081AD1
:1009300000A991EC030A07F0C0F9E0692818E0610A
:1009400001200BB030BD10B5DFF8C04B94F90000AA
:1009500000283AD494F90A0094F90110814228D170
:10096000217B0818A07240B23D2801DB3C38A07200
:1009700094F90A100FF26C00F1F714FD0020E06109
:10098000DFF8980B90F9010010F1010F01D101205F
:1009900010BD94F90110081AF2F7BAFA21F00041DB
:1009A000F2F7E6FC40B2012801DB012010BD002077
:1009B00010BDDFF86C0B90F90120914203D0D4E90F
:1009C0000023C0E90023002010BDE069DFF8541BBC
:1009D000884205DB0FF21800F1F7E4FC012010BD9E
:1009E000002010BD50443A204E54202564000000E1
:1009F00050443A204E6F54696D6500002DE9F8436C
:100A00000026DFF8084B07E07A19A27252B231468D
:100A10000FF26C00F1F7C6FC94F90A50002E21D4B5
:100A20006078461B76B294F90C70002EECD53046F7
:100A3000F2F76EFA21F0004102460B4690469946C5
:100A40003846F2F765FA42464B46F2F745FAE3D2EA
:100A5000EA1BA272002652B231460FF23800F1F7BB
:100A6000A1FCD9E73C2D02DBA5F13C00A07294F972
:100A70000A100FF23400BDE8F443F1F793BC000014
:100A800050443A20636F6D70312025642C2025641A
:100A90000000000050443A20636F6D7032202564DE
:100AA0002C2025640000000050443A204355542077
:100AB0002564000010B5DFF8544A0020A07301201F
:100AC0002072002060724FF0FF3020700F20E07223
:100AD0001420207300206073608220626074A06222
:100AE000E06228220146DFF8400AF1F7B7FBF7F78A
:100AF000B3FAA061DFF8341AC0F888108830DFF844
:100B0000301A4160DFF82C1A81600FF28D21C1602C
:100B10000FF625210161012010BD10B582B04FF400
:100B20006163C1EB0114A40013FB0043D3184FF41D
:100B30007A746343DFF8F0492360DFF8D0391B7C17
:100B4000009313460A4601460FF20800F1F72AFC0B
:100B500013BD000050442042542025642025642009
:100B600025642025640000002DE9F0412DED028B65
:100B7000AAB0DFF89C69314684B068465822F1F784
:100B8000C1FF0FBC00F07AFC10EE100AF7F762FC10
:100B900041EC100B9FED7E8BDFF88C49656853ECC0
:100BA000102B51EC180BF2F7B9F8F2F7E1FB15FA3C
:100BB00080F060604FF6FF75A84200D36560314653
:100BC00084B068465822F1F79DFF0FBC00F00EFC80
:100BD00010EE100AF7F73EFC41EC100BA76853EC3F
:100BE000102B51EC180BF2F799F8F2F7C1FB17FA3A
:100BF00080F0A060A84200D3A560002013900220DE
:100C00001290314684B068465822F1F77BFF0FBC42
:100C100000F080FAA1894018A08180B2FF2801DB92
:100C2000FF20A0810020139003201290314684B051
:100C300068465822F1F766FF0FBC00F06BFA216995
:100C400040182061A84200D325610020139006209F
:100C50001290314684B068465822F1F753FF0FBC1A
:100C600000F058FAA18A4018A08280B2FF2801DB68
:100C7000FF20A0820020139007201290314684B0FC
:100C800068465822F1F73EFF0FBC00F043FAE18AB4
:100C90004018E08280B2FF2801DBFF20E0820020C4
:100CA000139008201290314684B068465822F1F71C
:100CB00029FF0FBC00F02EFAA1694018A061A842DC
:100CC00000D3A5610020139009201290314684B012
:100CD00068465822F1F716FF0FBC00F01BFAE169D5
:100CE0004018E061A84200D3E56114A807F019F9A3
:100CF000DFF83C7DD7F828802398F7F7ABFB00227C
:100D0000DFF8103DF2F70AF8F2F732FB58FA80F0FC
:100D1000B862F96A491CF962B0FBF1F084F820006E
:100D20000020139001201290314684B0684658226A
:100D3000F1F7E8FE0FBC00F0EDF9616A401860625F
:100D4000A84200D36562F87B00F0CFFA2AB0BDEC70
:100D5000028BBDE8F081DFF8D0078189002914D12A
:100D60000169002911D1818A00290ED1C18A002987
:100D70000BD18169002908D1C169002905D1406AD8
:100D8000401E8041C043C00F7047012070470000E3
:100D900000000000000059402DE9F14FAAB00024E6
:100DA00014A807F0BEF8DFF868A7204613900120CA
:100DB0001290514684B068465822F1F7A3FE0FBC4A
:100DC00000F0A8F905469DED230ADAED0F0A30EE92
:100DD000600A10EE100AF7F73DFB2246DFF8343CBC
:100DE000F1F79CFFF2F7C4FA0646B6B2BDF89A00D6
:100DF000BAF84A10471AFFB2DFF8348C9DF9A80000
:100E000000284BD1002D02D157EA06001BD0012447
:100E1000002D18D0DFF8309CD9F81000A84212D06D
:100E2000204607F0BEFD204607F069FED9F8100005
:100E3000281AC8F82400C9F810503A4629460FF677
:100E40001C40F1F7AFFADFF8009CC9F81050002001
:100E5000C8F81C004FF0FF3088F80000DFF8C0260B
:100E6000D8E90001C2E90001C9E90001DFF8AC26B8
:100E7000C2E9000198F80B0088F80A0098F80E0003
:100E8000002846D0002088F80E0098F810000028AE
:100E90003FD0012088F8110004463AE000F0C7F97D
:100EA00000281CD000A8F1F76DFD404600A90522DE
:100EB000F1F718FE204688F80900DFF86426D8E923
:100EC0000001C2E9000198F9023098F9012098F96F
:100ED00000100FF69430F1F765FAFFF78FFD00A8C8
:100EE000F1F750FD404600A90522F1F7FBFDFFF7A1
:100EF0002AFD00280DD0DFF82426D8E90001C2E938
:100F0000000198F81000002802D0012088F8110094
:100F100001249DF9A8B0BBF1010F0AD198F80E0089
:100F20005946884205D000F04FFA9DF8A80088F88D
:100F30000E00BBF1010F69D1002D67D0DFF8089BCF
:100F400098F80F0098F81010084310D1012088F885
:100F500010000522414609F10800F3F7CBFD98F88F
:100F6000022098F8011098F80000FFF7D6FD98F9D4
:100F7000010099F90910401A411E222901D20120CD
:100F800005E010F1230F01DA012000E00020012824
:100F900035D10020C8F82800C8F82C00FFF7DBFE88
:100FA00000282CD028220021DFF87C05F1F756F923
:100FB00098F80F00401C88F80F00C0B215280BD11C
:100FC0000FF6BC20F1F7EEF9012088F8110000209F
:100FD00088F80F00012412E098F81000401C88F8EF
:100FE000100098F8022098F8011098F80000FFF718
:100FF00094FD0522414609F10800F3F77BFDFFF758
:10100000B3FD582214A95046F3F774FD98F80D006B
:1010100001283CD1B8F81200002805D10FF6702045
:10102000F1F7C0F9012428E0D8F82010814219D244
:10103000002D02D157EA060000D00124DFF8089AFB
:1010400099F9020098F90220904216D0491CC8F87C
:1010500020100FF65020F1F7A5F9D8E90001C9E9F1
:1010600000010AE0002088F80D00A8F81200C8F876
:1010700020000FF64020F1F795F9BBF1010F06D1E2
:1010800098F81000002802D0012088F811002046AE
:10109000012802D10021C8F81C10D8F8181091F8C6
:1010A0007910002907D10021C8F81C10012801D1AE
:1010B00000F08AF9002420462BB0BDE8F08F10B56F
:1010C000DFF86C090021C161032205210020F6F739
:1010D000C5FF044600F007F8204610BD0322052195
:1010E0000120F6F7BBBF00B597B000A806F019FFC6
:1010F000582200A9DFF83C09F3F7FCFC012017B0E7
:1011000000BDDFF82C09406A7047DFF82409002190
:10111000416270470FB410B596B000249DF9BC0031
:1011200001280BD106F0F7FF1899884202D3441A20
:10113000E4B272E08038441AE4B26EE000A806F02F
:10114000F0FE9DF9B800401E082866D8DFE800F0E0
:101150002905111D2936424E5A00019819998842D5
:1011600001D3441A59E0DFF8E4281018401A441C4F
:1011700053E002981A99884201D3441A4DE0DFF8EF
:10118000CC281018401A441C47E003981B99884249
:1011900001D3441A41E0DFF8B4281018401A441C67
:1011A0003BE000981899884201D3441A35E0DFF8F3
:1011B0009C1808181899401A441C2EE004981C9991
:1011C000884201D3441A28E0DFF880281018401A1A
:1011D000441C22E005981D99884201D3441A1CE062
:1011E000DFF868281018401A441C16E006981E996B
:1011F000884201D3441A10E0DFF850281018401A32
:10120000441C0AE007981F99884201D3441A04E05D
:10121000DFF838281018401A441C204616B010BCBD
:101220005DF814FBDFF80808012141727047DFF810
:101230000008407A704706F087BE0146DFF8F027C5
:10124000792902DB7820508200E05082012050731F
:101250000FF67400F1F7A6B810B5040001D101240F
:1012600002E0072C00DB062421460FF67000F1F7A0
:1012700099F8641E052C2DD8DFE804F0030A111834
:101280001F26DFF8AC073721C1723C21017321E032
:10129000DFF89C071921C1721E2101731AE0DFF8E3
:1012A00090070F21C1721421017313E0DFF880074A
:1012B0000A21C1720F2101730CE0DFF874070721C6
:1012C000C1720C21017305E0DFF864070521C172CA
:1012D0000A210173DFF85807C17A8172BDE8104016
:1012E000FFF78CBBDFF83007704700EB8001880008
:1012F000421CDFF824078C4992B20B681B0E135472
:10130000521C92B20B681B0C1354521C92B20B6805
:101310001B0A1354521C92B20B681354521C92B203
:101320004B681B0A1354521C92B24B681354521C44
:1013300092B28B681B0A1354521C92B28B681354DE
:10134000521C92B28B891354521C92B20B691B0A25
:101350001354521C92B20B691354521C92B28B8AD2
:101360001354521C92B2CB8A1354521C92B28B6902
:101370001B0A1354521C92B28B691354521C92B222
:10138000CB691B0A1354521C92B2CB691354521CE2
:1013900092B291F820301354521C92B24B6A1B0A3D
:1013A0001354521C92B2496A1154DFF88406511C3E
:1013B0008182704710B5DFF87846A18A0FF2287055
:1013C000F0F7F0FFA08A10BD80B528220021564812
:1013D000F0F744FFDFF858060021C1730121818234
:1013E000002101748162C16201BD00000FB400B52B
:1013F00097B000A806F095FD9DED090ADDED210AE4
:10140000B4EE600AF1EE10FA02DB30EE600A05E09D
:101410009FED411A71EE600A30EE800A10EE100A5C
:10142000F7F718F8DFF8F425DFF8F435F1F788FD61
:10143000F7F738F8F7F70EF80022DFF8E835F1F79C
:101440006DFCF1F795FF00EE100AB8EEC00A10EE41
:10145000100AF6F7FFFFDFF8C425DFF8CC35F1F707
:101460005DFCDFF8C825DFF8E835F1F769FDF7F72F
:1014700019F800EE100A17B05DF814FB0FB400B5B0
:1014800097B000A806F04DFD9DED0E0ADDED260A91
:10149000B4EE600AF1EE10FA02DB30EE600A05E00D
:1014A0009FED1D1A71EE600A30EE800A10EE100AF0
:1014B000F6F7D0FFDFF86425DFF86435F1F740FD7B
:1014C000F6F7F0FFF6F7C6FF0022DFF85835F1F720
:1014D00025FCF1F74DFF00EE100AB8EEC00A10EE41
:1014E000100AF6F7B7FFDFF83425DFF83C35F1F7DF
:1014F00015FCDFF83825DFF85835F1F721FDF6F750
:10150000D1FF00EE100A17B05DF814FB4423012050
:101510009C1E012000007A440024744948280120C0
:101520004028012040771B001C2401206D08010881
:10153000D5080108D90801082DE9F0472DED068BE3
:10154000AAB006460D4614A806F0EBFC40F22114A2
:10155000287814FB006001210170287814FB0060DA
:10156000DFF8CC74797B01290ED1032242702878F0
:1015700014FB00600122C270012907D1788A00287B
:1015800004D10020787301E001214170287814FB18
:10159000006003218170787C012820D1387C0028EC
:1015A0001DD0297814FB0161C0220A71DFF868148C
:1015B0000870287814FB0068FFF7FCFEA8F83000DC
:1015C000287814FB0064FFF78DFEC4F832002878F9
:1015D000401C2870FFF7F8FE0020787415E20DF12A
:1015E0008C099FED868B9FED879BDFF84874002068
:1015F000139001201290394684B068465822F1F7C2
:1016000081FA0FBCFFF786FD0A28287814FB0060DA
:1016100080F0FC8000210171287814FB006898F8A4
:1016200004A00846139002201290394684B0684600
:101630005822F1F767FA0FBCFFF76CFD40EA0A0089
:1016400088F80400287814FB006800201390032019
:101650001290394684B068465822F1F753FA0FBC0D
:10166000FFF758FD88F80500287814FB0068002073
:10167000139004201290394684B068465822F1F73E
:1016800041FA0FBCFFF746FD88F80600287814FBE6
:1016900000680020139005201290394684B06846F7
:1016A0005822F1F72FFA0FBCFFF734FD88F8070036
:1016B000394684B068465822F1F724FA0FBCFFF788
:1016C000DDFE10EE100AF6F7C5FE41EC100B28788F
:1016D00014FB006853EC102B51EC190BF1F71EFBB7
:1016E000F1F746FEA8F80E00287814FB006823984E
:1016F000F6F7B0FE53EC182BF1F710FBF1F738FEBC
:1017000088F81000287814FB0060B9F80E104174B6
:10171000394684B068465822F1F7F4F90FBCFFF758
:1017200065FE10EE100AF6F795FE41EC1A0B2878CC
:1017300014FB006853EC1A2B51EC190BF1F7EEFA7D
:10174000F1F716FE88F81200287814FB0068D9F823
:101750000800F6F77FFE53EC182BF1F7DFFAF1F7EC
:1017600007FE88F81300287814FB00680020139007
:1017700006201290394684B068465822F1F7C2F923
:101780000FBCFFF7C7FC88F80800287814FB006836
:101790000020139007201290394684B068465822E2
:1017A000F1F7B0F90FBCFFF7B5FC88F8090028780D
:1017B00014FB00680020139008201290394684B072
:1017C00068465822F1F79EF90FBCFFF7A3FC88F892
:1017D0000A00287814FB006400201390092012905E
:1017E000394684B068465822F1F78CF90FBCFFF7F0
:1017F00091FCE0722878401C287004E10000000091
:1018000000002440000000000000594080210171C8
:10181000287814FB006800201390022012903946AB
:1018200084B068465822F1F76DF90FBCFFF772FCDF
:10183000C8F80500287814FB0068002013900320E6
:101840001290394684B068465822F1F75BF90FBC14
:10185000FFF760FCC8F80900287814FB0068002036
:10186000139004201290394684B068465822F1F74C
:1018700049F90FBCFFF74EFCC8F80D00287814FB9F
:1018800000680020139005201290394684B0684605
:101890005822F1F737F90FBCFFF73CFCC8F81100EC
:1018A000394684B068465822F1F72CF90FBCFFF78F
:1018B000E5FD10EE100AF6F7CDFD41EC100B28788F
:1018C00014FB006853EC102B51EC190BF1F726FABE
:1018D000F1F764FDC8F82700287814FB0068239806
:1018E000F6F7B8FD53EC182BF1F718FAF1F740FDB5
:1018F00088F82B00287814FB0060B9F80E1080F8E7
:101900002C10394684B068465822F1F7FBF80FBC1A
:10191000FFF76CFD10EE100AF6F79CFD41EC1A0B78
:10192000454A464B02F0CCF906D8454A454BF1F7FB
:10193000D3FA01D29FED47AB287814FB006853EC33
:101940001A2B51EC180BF1F7E9F9F1F711FDA8F892
:101950002D00287814FB0068D9F80800F6F77AFD06
:1019600053EC182BF1F7DAF9F1F702FD88F82F00A4
:10197000287814FB00680020139006201290394646
:1019800084B068465822F1F7BDF80FBCFFF7C2FBE0
:10199000C8F81500287814FB006800201390072071
:1019A0001290394684B068465822F1F7ABF80FBC64
:1019B000FFF7B0FBC8F81900287814FB0068002076
:1019C000139008201290394684B068465822F1F7E7
:1019D00099F80FBCFFF79EFBC8F81D00287814FB90
:1019E00000640020139009201290394684B06846A4
:1019F0005822F1F787F80FBCFFF78CFBC4F82100E1
:101A00002878401C2870FFF76EFB2AB0BDEC068BCF
:101A1000BDE8F0870000244050FD00207B14AE4755
:101A2000E17A743F00005940E17A843F2D431CEB7A
:101A3000442301209C1E0120B81E85EB51B89E3F17
:101A40009A9999999999B93F2426012080969800EE
:101A5000E2361A3F9A9999999999B93F53746570EA
:101A60003D25642C2025640050443A54696D654E30
:101A70006F7469202564202564202564000000001F
:101A800050442042542042462046554C4C00000011
:101A900050443A20526571205065646F496E666FFC
:101AA0003100000050443A207574696D657220253C
:101AB0006400000050443A20526571205065646F04
:101AC000496E666F3200000050443A2053746172D0
:101AD00074204461746120256400000050443A2061
:101AE000555420256400000050443A204241544C93
:101AF000454E4754482025640000000010B5DFF82B
:101B0000444D40F2972200212046F0F7A7FBFF202A
:101B10002070E07284F85A02DFF8FC0D0021417059
:101B200010BD70B501240B2831D1012918D1DFF87F
:101B3000141D511891F94E321D46DFF8E06D965D87
:101B4000B54203DA581C81F84E0243E0002381F8C5
:101B50004E321C4601460FF28000F0F723FC39E0BC
:101B6000022937D1DFF8DC1C511891F94E32012BD4
:101B700003DB581E81F84E022CE0002381F84E3220
:101B80001C4601460FF26000F0F70CFC22E00A2828
:101B900020D1012908D1DFF8AC0C111801F24E2137
:101BA0000879401C087115E0022913D1DFF8941C54
:101BB000511801F24E2191F90430012B02DB581E1D
:101BC000087107E000230B711C4601460FF2180054
:101BD000F0F7E8FB204670BD41542D414C2045589C
:101BE000202564202564000041542D524C20455886
:101BF0002025642025640000DFF8481C81F8560287
:101C000070470FB4F0B5ABB00124DFF80C5DE868A5
